{
  "contractName": "Authorizer",
  "abi": [
    {
      "constant": false,
      "inputs": [
        {
          "name": "_id",
          "type": "uint256"
        },
        {
          "name": "_constituencyId",
          "type": "uint256"
        },
        {
          "name": "_adminId",
          "type": "uint256"
        }
      ],
      "name": "assignCandidateToConstituency",
      "outputs": [],
      "payable": false,
      "stateMutability": "nonpayable",
      "type": "function"
    },
    {
      "constant": true,
      "inputs": [
        {
          "name": "",
          "type": "uint256"
        }
      ],
      "name": "admins",
      "outputs": [
        {
          "name": "",
          "type": "uint256"
        }
      ],
      "payable": false,
      "stateMutability": "view",
      "type": "function"
    },
    {
      "constant": false,
      "inputs": [
        {
          "name": "_adminId",
          "type": "uint256"
        }
      ],
      "name": "getConstituencies",
      "outputs": [
        {
          "components": [
            {
              "name": "_id",
              "type": "uint256"
            },
            {
              "name": "_startTime",
              "type": "uint256"
            },
            {
              "name": "_duration",
              "type": "uint256"
            }
          ],
          "name": "",
          "type": "tuple[]"
        }
      ],
      "payable": false,
      "stateMutability": "nonpayable",
      "type": "function"
    },
    {
      "constant": true,
      "inputs": [
        {
          "name": "",
          "type": "uint256"
        }
      ],
      "name": "candidates",
      "outputs": [
        {
          "name": "_id",
          "type": "uint256"
        }
      ],
      "payable": false,
      "stateMutability": "view",
      "type": "function"
    },
    {
      "constant": false,
      "inputs": [
        {
          "name": "_id",
          "type": "uint256"
        },
        {
          "name": "_adminId",
          "type": "uint256"
        }
      ],
      "name": "registerConstituency",
      "outputs": [],
      "payable": false,
      "stateMutability": "nonpayable",
      "type": "function"
    },
    {
      "constant": false,
      "inputs": [
        {
          "name": "from",
          "type": "uint256"
        },
        {
          "name": "to",
          "type": "uint256"
        },
        {
          "name": "tokenId",
          "type": "bytes32"
        }
      ],
      "name": "transferFrom",
      "outputs": [],
      "payable": false,
      "stateMutability": "nonpayable",
      "type": "function"
    },
    {
      "constant": false,
      "inputs": [
        {
          "name": "_id",
          "type": "uint256"
        },
        {
          "name": "_adminId",
          "type": "uint256"
        }
      ],
      "name": "registerCandidate",
      "outputs": [],
      "payable": false,
      "stateMutability": "nonpayable",
      "type": "function"
    },
    {
      "constant": false,
      "inputs": [],
      "name": "renounceOwnership",
      "outputs": [],
      "payable": false,
      "stateMutability": "nonpayable",
      "type": "function"
    },
    {
      "constant": true,
      "inputs": [],
      "name": "owner",
      "outputs": [
        {
          "name": "",
          "type": "address"
        }
      ],
      "payable": false,
      "stateMutability": "view",
      "type": "function"
    },
    {
      "constant": true,
      "inputs": [],
      "name": "isOwner",
      "outputs": [
        {
          "name": "",
          "type": "bool"
        }
      ],
      "payable": false,
      "stateMutability": "view",
      "type": "function"
    },
    {
      "constant": true,
      "inputs": [
        {
          "name": "",
          "type": "uint256"
        }
      ],
      "name": "constituencies",
      "outputs": [
        {
          "name": "_id",
          "type": "uint256"
        },
        {
          "name": "_startTime",
          "type": "uint256"
        },
        {
          "name": "_duration",
          "type": "uint256"
        }
      ],
      "payable": false,
      "stateMutability": "view",
      "type": "function"
    },
    {
      "constant": false,
      "inputs": [
        {
          "name": "_id",
          "type": "uint256"
        }
      ],
      "name": "registerAdmin",
      "outputs": [],
      "payable": false,
      "stateMutability": "nonpayable",
      "type": "function"
    },
    {
      "constant": true,
      "inputs": [
        {
          "name": "_constituencyId",
          "type": "uint256"
        }
      ],
      "name": "retreiveConstituencyVoteCount",
      "outputs": [
        {
          "name": "",
          "type": "uint32"
        }
      ],
      "payable": false,
      "stateMutability": "view",
      "type": "function"
    },
    {
      "constant": false,
      "inputs": [
        {
          "name": "_id",
          "type": "uint256"
        },
        {
          "name": "_duration",
          "type": "uint256"
        }
      ],
      "name": "generateElectionforConstituency",
      "outputs": [],
      "payable": false,
      "stateMutability": "nonpayable",
      "type": "function"
    },
    {
      "constant": true,
      "inputs": [
        {
          "name": "",
          "type": "uint256"
        }
      ],
      "name": "voters",
      "outputs": [
        {
          "name": "_id",
          "type": "uint256"
        },
        {
          "name": "_constituencyId",
          "type": "uint256"
        },
        {
          "name": "_hasVoted",
          "type": "bool"
        },
        {
          "components": [
            {
              "name": "_voteId",
              "type": "bytes32"
            },
            {
              "name": "_votedId",
              "type": "uint256"
            },
            {
              "name": "_voteTime",
              "type": "uint64"
            }
          ],
          "name": "_vote",
          "type": "tuple"
        }
      ],
      "payable": false,
      "stateMutability": "view",
      "type": "function"
    },
    {
      "constant": false,
      "inputs": [
        {
          "name": "newOwner",
          "type": "address"
        }
      ],
      "name": "transferOwnership",
      "outputs": [],
      "payable": false,
      "stateMutability": "nonpayable",
      "type": "function"
    },
    {
      "constant": true,
      "inputs": [
        {
          "name": "_constituencyId",
          "type": "uint256"
        }
      ],
      "name": "getCandidatesByConstituency",
      "outputs": [
        {
          "components": [
            {
              "name": "_id",
              "type": "uint256"
            }
          ],
          "name": "",
          "type": "tuple[]"
        }
      ],
      "payable": false,
      "stateMutability": "view",
      "type": "function"
    },
    {
      "anonymous": false,
      "inputs": [
        {
          "indexed": true,
          "name": "_from",
          "type": "uint256"
        },
        {
          "indexed": true,
          "name": "_to",
          "type": "uint256"
        },
        {
          "indexed": true,
          "name": "_tokenId",
          "type": "bytes32"
        }
      ],
      "name": "Transfer",
      "type": "event"
    },
    {
      "anonymous": false,
      "inputs": [
        {
          "indexed": false,
          "name": "_id",
          "type": "uint256"
        },
        {
          "indexed": false,
          "name": "_voterId",
          "type": "uint256"
        }
      ],
      "name": "VoterCreated",
      "type": "event"
    },
    {
      "anonymous": false,
      "inputs": [
        {
          "indexed": false,
          "name": "_id",
          "type": "uint256"
        }
      ],
      "name": "CandidateRegistered",
      "type": "event"
    },
    {
      "anonymous": false,
      "inputs": [
        {
          "indexed": false,
          "name": "_id",
          "type": "uint256"
        }
      ],
      "name": "ConstituencyRegistered",
      "type": "event"
    },
    {
      "anonymous": false,
      "inputs": [
        {
          "indexed": true,
          "name": "previousOwner",
          "type": "address"
        },
        {
          "indexed": true,
          "name": "newOwner",
          "type": "address"
        }
      ],
      "name": "OwnershipTransferred",
      "type": "event"
    },
    {
      "constant": false,
      "inputs": [
        {
          "name": "_id",
          "type": "uint256"
        },
        {
          "name": "_constituencyId",
          "type": "uint256"
        },
        {
          "name": "_adminId",
          "type": "uint256"
        }
      ],
      "name": "registerVoter",
      "outputs": [],
      "payable": false,
      "stateMutability": "nonpayable",
      "type": "function"
    },
    {
      "constant": false,
      "inputs": [
        {
          "name": "_id",
          "type": "uint256"
        }
      ],
      "name": "loginVoter",
      "outputs": [
        {
          "components": [
            {
              "name": "_id",
              "type": "uint256"
            },
            {
              "name": "_constituencyId",
              "type": "uint256"
            },
            {
              "name": "_hasVoted",
              "type": "bool"
            },
            {
              "components": [
                {
                  "name": "_voteId",
                  "type": "bytes32"
                },
                {
                  "name": "_votedId",
                  "type": "uint256"
                },
                {
                  "name": "_voteTime",
                  "type": "uint64"
                }
              ],
              "name": "_vote",
              "type": "tuple"
            }
          ],
          "name": "",
          "type": "tuple"
        }
      ],
      "payable": false,
      "stateMutability": "nonpayable",
      "type": "function"
    }
  ],
  "bytecode": "0x608060405260405180606001604052806000801b815260200160008152602001600067ffffffffffffffff168152506001600082015181600001556020820151816001015560408201518160020160006101000a81548167ffffffffffffffff021916908367ffffffffffffffff1602179055505050336000806101000a81548173ffffffffffffffffffffffffffffffffffffffff021916908373ffffffffffffffffffffffffffffffffffffffff1602179055506000809054906101000a900473ffffffffffffffffffffffffffffffffffffffff1673ffffffffffffffffffffffffffffffffffffffff16600073ffffffffffffffffffffffffffffffffffffffff167f8be0079c531659141344cd1fd0a4f28419497f9722a3daafe3b4186f6b6457e060405160405180910390a3611961806101406000396000f3fe608060405234801561001057600080fd5b50600436106101215760003560e01c8063715018a6116100ad578063c1c5c5d811610071578063c1c5c5d814610306578063d59d48d414610336578063da58c7d914610352578063f2fde38b14610385578063f9ed8067146103a157610121565b8063715018a6146102725780638da5cb5b1461027c5780638f32d59b1461029a5780639209416a146102b857806394845254146102ea57610121565b80633477ee2e116100f45780633477ee2e146101be5780633acab52f146101ee5780633ba8b3ff1461020a57806352d2ec93146102265780635d6e50521461025657610121565b806312d51c721461012657806314bfd6d01461014257806328975210146101725780632ed58701146101a2575b600080fd5b610140600480360361013b91908101906113a6565b6103d1565b005b61015c600480360361015791908101906112f2565b61045e565b6040516101699190611725565b60405180910390f35b61018c600480360361018791908101906112f2565b61047f565b60405161019991906116cd565b60405180910390f35b6101bc60048036036101b791908101906113a6565b61054b565b005b6101d860048036036101d391908101906112f2565b6105a7565b6040516101e59190611725565b60405180910390f35b6102086004803603610203919081019061131b565b6105ce565b005b610224600480360361021f9190810190611357565b610717565b005b610240600480360361023b91908101906112f2565b610886565b60405161024d919061170a565b60405180910390f35b610270600480360361026b919081019061131b565b61096e565b005b61027a610a79565b005b610284610b49565b6040516102919190611690565b60405180910390f35b6102a2610b72565b6040516102af91906116ef565b60405180910390f35b6102d260048036036102cd91908101906112f2565b610bc9565b6040516102e1939291906117ae565b60405180910390f35b61030460048036036102ff91908101906112f2565b610c00565b005b610320600480360361031b91908101906112f2565b610c40565b60405161032d91906117e5565b60405180910390f35b610350600480360361034b919081019061131b565b610ca7565b005b61036c600480360361036791908101906112f2565b610d06565b60405161037c9493929190611769565b60405180910390f35b61039f600480360361039a91908101906112c9565b610da0565b005b6103bb60048036036103b691908101906112f2565b610dbd565b6040516103c891906116ab565b60405180910390f35b8060008090505b600e805490508110156104575781600e82815481106103f357fe5b90600052602060002001541415610444578360086000878152602001908152602001600020819055506009600085815260200190815260200160002060008154809291906001019190505550610449565b61044a565b5b80806001019150506103d8565b5050505050565b600e818154811061046b57fe5b906000526020600020016000915090505481565b60608160008090505b600e805490508110156105445781600e82815481106104a357fe5b9060005260206000200154141561053157600d805480602002602001604051908101604052809291908181526020016000905b8282101561052657838290600052602060002090600302016040518060600160405290816000820154815260200160018201548152602001600282015481525050815260200190600101906104d6565b505050509250610536565b610537565b5b8080600101915050610488565b5050919050565b8060008090505b600e805490508110156105a05781600e828154811061056d57fe5b9060005260206000200154141561058d576105888585610ec1565b610592565b610593565b5b8080600101915050610552565b5050505050565b600c81815481106105b457fe5b906000526020600020016000915090508060000154905081565b8060008090505b600e805490508110156107115781600e82815481106105f057fe5b906000526020600020015414156106fe5760006001600d6040518060600160405280888152602001600081526020016000815250908060018154018082558091505090600182039060005260206000209060030201600090919290919091506000820151816000015560208201518160010155604082015181600201555050039050600d818154811061067f57fe5b9060005260206000209060030201600660008781526020019081526020016000206000820154816000015560018201548160010155600282015481600201559050507f21db1a92fb8efb483c22a581ee7e282b6d79d9d43b559ee1affa341818867969856040516106f09190611725565b60405180910390a150610703565b610704565b5b80806001019150506105d5565b50505050565b600860008381526020019081526020016000205460046000858152602001908152602001600020600101541461074c57600080fd5b6107546111f8565b6004600085815260200190815260200160002060405180608001604052908160008201548152602001600182015481526020016002820160009054906101000a900460ff161515151581526020016003820160405180606001604052908160008201548152602001600182015481526020016002820160009054906101000a900467ffffffffffffffff1667ffffffffffffffff1667ffffffffffffffff168152505081525050905060018160400190151590811515815250508260076000836060015160000151815260200190815260200160002081905550600a6000848152602001908152602001600020600081548092919060010191905055508183857f612c500cbd8f1ed8a4643cbf6b41fda92203645d7e4f7c3a237a1be69565ea2c60405160405180910390a450505050565b61088e6111f8565b816000600460008381526020019081526020016000206000015414156108b357600080fd5b6108bb6111f8565b6004600085815260200190815260200160002060405180608001604052908160008201548152602001600182015481526020016002820160009054906101000a900460ff161515151581526020016003820160405180606001604052908160008201548152602001600182015481526020016002820160009054906101000a900467ffffffffffffffff1667ffffffffffffffff1667ffffffffffffffff16815250508152505090508092505050919050565b8060008090505b600e80549050811015610a735781600e828154811061099057fe5b90600052602060002001541415610a605760006001600c604051806020016040528088815250908060018154018082558091505090600182039060005260206000200160009091929091909150600082015181600001555050039050600c81815481106109f957fe5b9060005260206000200160056000878152602001908152602001600020600082015481600001559050507f43dcee486fabffa2fb551555bfaa5bfcf6a42f2d014032ccef94bf09d83855eb85604051610a529190611725565b60405180910390a150610a65565b610a66565b5b8080600101915050610975565b50505050565b610a81610b72565b610a8a57600080fd5b600073ffffffffffffffffffffffffffffffffffffffff166000809054906101000a900473ffffffffffffffffffffffffffffffffffffffff1673ffffffffffffffffffffffffffffffffffffffff167f8be0079c531659141344cd1fd0a4f28419497f9722a3daafe3b4186f6b6457e060405160405180910390a360008060006101000a81548173ffffffffffffffffffffffffffffffffffffffff021916908373ffffffffffffffffffffffffffffffffffffffff160217905550565b60008060009054906101000a900473ffffffffffffffffffffffffffffffffffffffff16905090565b60008060009054906101000a900473ffffffffffffffffffffffffffffffffffffffff1673ffffffffffffffffffffffffffffffffffffffff163373ffffffffffffffffffffffffffffffffffffffff1614905090565b600d8181548110610bd657fe5b90600052602060002090600302016000915090508060000154908060010154908060020154905083565b610c08610b72565b610c1157600080fd5b600e81908060018154018082558091505090600182039060005260206000200160009091929091909150555050565b60006060610c4d83610dbd565b9050600080600090505b8251811015610c9c57600a6000848381518110610c7057fe5b602002602001015160000151815260200190815260200160002054820191508080600101915050610c57565b508092505050919050565b610caf611228565b60066000848152602001908152602001600020604051806060016040529081600082015481526020016001820154815260200160028201548152505090504281602001818152505081816040018181525050505050565b600b8181548110610d1357fe5b90600052602060002090600602016000915090508060000154908060010154908060020160009054906101000a900460ff16908060030160405180606001604052908160008201548152602001600182015481526020016002820160009054906101000a900467ffffffffffffffff1667ffffffffffffffff1667ffffffffffffffff1681525050905084565b610da8610b72565b610db157600080fd5b610dba81611100565b50565b6060806009600084815260200190815260200160002054604051908082528060200260200182016040528015610e0d57816020015b610dfa611249565b815260200190600190039081610df25790505b509050600080905060008090505b600c80549050811015610eb6578460086000600c8481548110610e3a57fe5b90600052602060002001600001548152602001908152602001600020541415610ea957600c8181548110610e6a57fe5b90600052602060002001604051806020016040529081600082015481525050838381518110610e9557fe5b602002602001018190525081806001019250505b8080600101915050610e1b565b508192505050919050565b60006001600b6040518060800160405280868152602001858152602001600015158152602001600160405180606001604052908160008201548152602001600182015481526020016002820160009054906101000a900467ffffffffffffffff1667ffffffffffffffff1667ffffffffffffffff168152505081525090806001815401808255809150509060018203906000526020600020906006020160009091929091909150600082015181600001556020820151816001015560408201518160020160006101000a81548160ff021916908315150217905550606082015181600301600082015181600001556020820151816001015560408201518160020160006101000a81548167ffffffffffffffff021916908367ffffffffffffffff16021790555050505050039050600b8181548110610ffc57fe5b90600052602060002090600602016004600085815260200190815260200160002060008201548160000155600182015481600101556002820160009054906101000a900460ff168160020160006101000a81548160ff021916908315150217905550600382018160030160008201548160000155600182015481600101556002820160009054906101000a900467ffffffffffffffff168160020160006101000a81548167ffffffffffffffff021916908367ffffffffffffffff16021790555050509050507fa3b64c0b425d624b0d6d9f67d76ababb5e56dc10ef01de027c343a09fefdfb5d83836040516110f3929190611740565b60405180910390a1505050565b600073ffffffffffffffffffffffffffffffffffffffff168173ffffffffffffffffffffffffffffffffffffffff16141561113a57600080fd5b8073ffffffffffffffffffffffffffffffffffffffff166000809054906101000a900473ffffffffffffffffffffffffffffffffffffffff1673ffffffffffffffffffffffffffffffffffffffff167f8be0079c531659141344cd1fd0a4f28419497f9722a3daafe3b4186f6b6457e060405160405180910390a3806000806101000a81548173ffffffffffffffffffffffffffffffffffffffff021916908373ffffffffffffffffffffffffffffffffffffffff16021790555050565b6040518060c00160405280600081526020016000815260200160001515815260200161122261125c565b81525090565b60405180606001604052806000815260200160008152602001600081525090565b6040518060200160405280600081525090565b60405180606001604052806000801916815260200160008152602001600067ffffffffffffffff1681525090565b600081359050611299816118e2565b92915050565b6000813590506112ae816118f9565b92915050565b6000813590506112c381611910565b92915050565b6000602082840312156112db57600080fd5b60006112e98482850161128a565b91505092915050565b60006020828403121561130457600080fd5b6000611312848285016112b4565b91505092915050565b6000806040838503121561132e57600080fd5b600061133c858286016112b4565b925050602061134d858286016112b4565b9150509250929050565b60008060006060848603121561136c57600080fd5b600061137a868287016112b4565b935050602061138b868287016112b4565b925050604061139c8682870161129f565b9150509250925092565b6000806000606084860312156113bb57600080fd5b60006113c9868287016112b4565b93505060206113da868287016112b4565b92505060406113eb868287016112b4565b9150509250925092565b6000611401838361151d565b60208301905092915050565b60006114198383611539565b60608301905092915050565b61142e8161186c565b82525050565b600061143f8261181a565b611449818561184a565b935061145483611800565b8060005b8381101561148557815161146c88826113f5565b975061147783611830565b925050600181019050611458565b5085935050505092915050565b600061149d82611825565b6114a7818561185b565b93506114b28361180d565b8060005b838110156114e35781516114ca888261140d565b97506114d58361183d565b9250506001810190506114b6565b5085935050505092915050565b6114f98161187e565b82525050565b6115088161187e565b82525050565b6115178161188a565b82525050565b6020820160008201516115336000850182611654565b50505050565b60608201600082015161154f6000850182611654565b5060208201516115626020850182611654565b5060408201516115756040850182611654565b50505050565b606082016000820151611591600085018261150e565b5060208201516115a46020850182611654565b5060408201516115b76040850182611681565b50505050565b6060820160008201516115d3600085018261150e565b5060208201516115e66020850182611654565b5060408201516115f96040850182611681565b50505050565b60c0820160008201516116156000850182611654565b5060208201516116286020850182611654565b50604082015161163b60408501826114f0565b50606082015161164e606085018261157b565b50505050565b61165d816118b4565b82525050565b61166c816118b4565b82525050565b61167b816118be565b82525050565b61168a816118ce565b82525050565b60006020820190506116a56000830184611425565b92915050565b600060208201905081810360008301526116c58184611434565b905092915050565b600060208201905081810360008301526116e78184611492565b905092915050565b600060208201905061170460008301846114ff565b92915050565b600060c08201905061171f60008301846115ff565b92915050565b600060208201905061173a6000830184611663565b92915050565b60006040820190506117556000830185611663565b6117626020830184611663565b9392505050565b600060c08201905061177e6000830187611663565b61178b6020830186611663565b61179860408301856114ff565b6117a560608301846115bd565b95945050505050565b60006060820190506117c36000830186611663565b6117d06020830185611663565b6117dd6040830184611663565b949350505050565b60006020820190506117fa6000830184611672565b92915050565b6000602082019050919050565b6000602082019050919050565b600081519050919050565b600081519050919050565b6000602082019050919050565b6000602082019050919050565b600082825260208201905092915050565b600082825260208201905092915050565b600061187782611894565b9050919050565b60008115159050919050565b6000819050919050565b600073ffffffffffffffffffffffffffffffffffffffff82169050919050565b6000819050919050565b600063ffffffff82169050919050565b600067ffffffffffffffff82169050919050565b6118eb8161186c565b81146118f657600080fd5b50565b6119028161188a565b811461190d57600080fd5b50565b611919816118b4565b811461192457600080fd5b5056fea265627a7a72305820c5c4484f80fcd92089adf5ed55bd1ec59de85c4d4680c4294e62f3524774afb36c6578706572696d656e74616cf50037",
  "source": "pragma solidity ^0.5.0;\npragma experimental ABIEncoderV2;\nimport './ResultHelper.sol';\n\ncontract Authorizer is ResultHelper {\n    function registerVoter(uint256 _id, uint256 _constituencyId, uint256 _adminId) external onlyAdmin(_adminId) {\n        createVoter(_id, _constituencyId);\n    }\n\n    function loginVoter(uint256 _id) external onlyUser(_id) returns(Voter memory) {\n        Voter memory _voter = idToVoter[_id];\n        return _voter;\n    }\n}",
  "sourcePath": "/home/d3mon/Projects/sudo-rm--rf/contracts/Authorizer.sol",
  "compiler": {
    "name": "solc",
    "version": "0.5.8+commit.23d335f2.Emscripten.clang"
  },
  "schemaVersion": "3.0.11",
  "updatedAt": "2019-08-20T16:17:50.068Z",
  "devdoc": {
    "methods": {
      "isOwner()": {
        "return": "true if `msg.sender` is the owner of the contract."
      },
      "owner()": {
        "return": "the address of the owner."
      },
      "renounceOwnership()": {
        "details": "Allows the current owner to relinquish control of the contract."
      },
      "transferOwnership(address)": {
        "details": "Allows the current owner to transfer control of the contract to a newOwner.",
        "params": {
          "newOwner": "The address to transfer ownership to."
        }
      }
    }
  },
  "userdoc": {
    "methods": {
      "renounceOwnership()": {
        "notice": "Renouncing to ownership will leave the contract without an owner. It will not be possible to call the functions with the `onlyOwner` modifier anymore."
      }
    }
  }
}