{
  "contractName": "Authorizer",
  "abi": [
    {
      "constant": false,
      "inputs": [
        {
          "name": "_id",
          "type": "uint256"
        },
        {
          "name": "_constituencyId",
          "type": "uint256"
        },
        {
          "name": "_adminId",
          "type": "uint256"
        }
      ],
      "name": "assignCandidateToConstituency",
      "outputs": [],
      "payable": false,
      "stateMutability": "nonpayable",
      "type": "function"
    },
    {
      "constant": true,
      "inputs": [
        {
          "name": "",
          "type": "uint256"
        }
      ],
      "name": "admins",
      "outputs": [
        {
          "name": "",
          "type": "uint256"
        }
      ],
      "payable": false,
      "stateMutability": "view",
      "type": "function"
    },
    {
      "constant": false,
      "inputs": [
        {
          "name": "_adminId",
          "type": "uint256"
        }
      ],
      "name": "declareResults",
      "outputs": [],
      "payable": false,
      "stateMutability": "nonpayable",
      "type": "function"
    },
    {
      "constant": false,
      "inputs": [
        {
          "name": "_adminId",
          "type": "uint256"
        }
      ],
      "name": "getConstituencies",
      "outputs": [
        {
          "components": [
            {
              "name": "_id",
              "type": "uint256"
            },
            {
              "name": "_startTime",
              "type": "uint256"
            },
            {
              "name": "_duration",
              "type": "uint256"
            }
          ],
          "name": "",
          "type": "tuple[]"
        }
      ],
      "payable": false,
      "stateMutability": "nonpayable",
      "type": "function"
    },
    {
      "constant": false,
      "inputs": [
        {
          "name": "_id",
          "type": "uint256"
        },
        {
          "name": "_userId",
          "type": "uint256"
        }
      ],
      "name": "getConstituencyDetails",
      "outputs": [
        {
          "components": [
            {
              "name": "_id",
              "type": "uint256"
            },
            {
              "name": "_startTime",
              "type": "uint256"
            },
            {
              "name": "_duration",
              "type": "uint256"
            }
          ],
          "name": "",
          "type": "tuple"
        }
      ],
      "payable": false,
      "stateMutability": "nonpayable",
      "type": "function"
    },
    {
      "constant": true,
      "inputs": [
        {
          "name": "",
          "type": "uint256"
        }
      ],
      "name": "candidates",
      "outputs": [
        {
          "name": "_id",
          "type": "uint256"
        }
      ],
      "payable": false,
      "stateMutability": "view",
      "type": "function"
    },
    {
      "constant": false,
      "inputs": [
        {
          "name": "_id",
          "type": "uint256"
        },
        {
          "name": "_adminId",
          "type": "uint256"
        }
      ],
      "name": "registerConstituency",
      "outputs": [],
      "payable": false,
      "stateMutability": "nonpayable",
      "type": "function"
    },
    {
      "constant": false,
      "inputs": [
        {
          "name": "from",
          "type": "uint256"
        },
        {
          "name": "to",
          "type": "uint256"
        },
        {
          "name": "tokenId",
          "type": "bytes32"
        }
      ],
      "name": "transferFrom",
      "outputs": [],
      "payable": false,
      "stateMutability": "nonpayable",
      "type": "function"
    },
    {
      "constant": true,
      "inputs": [
        {
          "name": "_constituencyId",
          "type": "uint256"
        },
        {
          "name": "_userId",
          "type": "uint256"
        }
      ],
      "name": "retreiveConstituencyVoteCount",
      "outputs": [
        {
          "name": "",
          "type": "uint32"
        }
      ],
      "payable": false,
      "stateMutability": "view",
      "type": "function"
    },
    {
      "constant": false,
      "inputs": [
        {
          "name": "_id",
          "type": "uint256"
        },
        {
          "name": "_adminId",
          "type": "uint256"
        }
      ],
      "name": "registerCandidate",
      "outputs": [],
      "payable": false,
      "stateMutability": "nonpayable",
      "type": "function"
    },
    {
      "constant": false,
      "inputs": [],
      "name": "renounceOwnership",
      "outputs": [],
      "payable": false,
      "stateMutability": "nonpayable",
      "type": "function"
    },
    {
      "constant": true,
      "inputs": [],
      "name": "owner",
      "outputs": [
        {
          "name": "",
          "type": "address"
        }
      ],
      "payable": false,
      "stateMutability": "view",
      "type": "function"
    },
    {
      "constant": true,
      "inputs": [],
      "name": "isOwner",
      "outputs": [
        {
          "name": "",
          "type": "bool"
        }
      ],
      "payable": false,
      "stateMutability": "view",
      "type": "function"
    },
    {
      "constant": true,
      "inputs": [
        {
          "name": "",
          "type": "uint256"
        }
      ],
      "name": "constituencies",
      "outputs": [
        {
          "name": "_id",
          "type": "uint256"
        },
        {
          "name": "_startTime",
          "type": "uint256"
        },
        {
          "name": "_duration",
          "type": "uint256"
        }
      ],
      "payable": false,
      "stateMutability": "view",
      "type": "function"
    },
    {
      "constant": false,
      "inputs": [
        {
          "name": "_id",
          "type": "uint256"
        }
      ],
      "name": "registerAdmin",
      "outputs": [],
      "payable": false,
      "stateMutability": "nonpayable",
      "type": "function"
    },
    {
      "constant": true,
      "inputs": [
        {
          "name": "_constituencyId",
          "type": "uint256"
        },
        {
          "name": "_userId",
          "type": "uint256"
        }
      ],
      "name": "getCandidatesByConstituency",
      "outputs": [
        {
          "components": [
            {
              "name": "_id",
              "type": "uint256"
            }
          ],
          "name": "",
          "type": "tuple[]"
        }
      ],
      "payable": false,
      "stateMutability": "view",
      "type": "function"
    },
    {
      "constant": true,
      "inputs": [
        {
          "name": "",
          "type": "uint256"
        }
      ],
      "name": "voters",
      "outputs": [
        {
          "name": "_id",
          "type": "uint256"
        },
        {
          "name": "_constituencyId",
          "type": "uint256"
        },
        {
          "name": "_hasVoted",
          "type": "bool"
        },
        {
          "components": [
            {
              "name": "_voteId",
              "type": "bytes32"
            },
            {
              "name": "_votedId",
              "type": "uint256"
            },
            {
              "name": "_voteTime",
              "type": "uint64"
            }
          ],
          "name": "_vote",
          "type": "tuple"
        }
      ],
      "payable": false,
      "stateMutability": "view",
      "type": "function"
    },
    {
      "constant": false,
      "inputs": [
        {
          "name": "newOwner",
          "type": "address"
        }
      ],
      "name": "transferOwnership",
      "outputs": [],
      "payable": false,
      "stateMutability": "nonpayable",
      "type": "function"
    },
    {
      "constant": false,
      "inputs": [
        {
          "name": "_id",
          "type": "uint256"
        },
        {
          "name": "_duration",
          "type": "uint256"
        },
        {
          "name": "_adminId",
          "type": "uint256"
        }
      ],
      "name": "generateElectionforConstituency",
      "outputs": [],
      "payable": false,
      "stateMutability": "nonpayable",
      "type": "function"
    },
    {
      "anonymous": false,
      "inputs": [
        {
          "indexed": true,
          "name": "_from",
          "type": "uint256"
        },
        {
          "indexed": true,
          "name": "_to",
          "type": "uint256"
        },
        {
          "indexed": true,
          "name": "_tokenId",
          "type": "bytes32"
        }
      ],
      "name": "Transfer",
      "type": "event"
    },
    {
      "anonymous": false,
      "inputs": [
        {
          "indexed": false,
          "name": "_id",
          "type": "uint256"
        },
        {
          "indexed": false,
          "name": "_voterId",
          "type": "uint256"
        }
      ],
      "name": "VoterCreated",
      "type": "event"
    },
    {
      "anonymous": false,
      "inputs": [
        {
          "indexed": false,
          "name": "_id",
          "type": "uint256"
        }
      ],
      "name": "CandidateRegistered",
      "type": "event"
    },
    {
      "anonymous": false,
      "inputs": [
        {
          "indexed": false,
          "name": "_id",
          "type": "uint256"
        }
      ],
      "name": "ConstituencyRegistered",
      "type": "event"
    },
    {
      "anonymous": false,
      "inputs": [
        {
          "indexed": true,
          "name": "previousOwner",
          "type": "address"
        },
        {
          "indexed": true,
          "name": "newOwner",
          "type": "address"
        }
      ],
      "name": "OwnershipTransferred",
      "type": "event"
    },
    {
      "constant": false,
      "inputs": [
        {
          "name": "_id",
          "type": "uint256"
        },
        {
          "name": "_constituencyId",
          "type": "uint256"
        },
        {
          "name": "_adminId",
          "type": "uint256"
        }
      ],
      "name": "registerVoter",
      "outputs": [],
      "payable": false,
      "stateMutability": "nonpayable",
      "type": "function"
    },
    {
      "constant": false,
      "inputs": [
        {
          "name": "_id",
          "type": "uint256"
        }
      ],
      "name": "loginVoter",
      "outputs": [
        {
          "components": [
            {
              "name": "_id",
              "type": "uint256"
            },
            {
              "name": "_constituencyId",
              "type": "uint256"
            },
            {
              "name": "_hasVoted",
              "type": "bool"
            },
            {
              "components": [
                {
                  "name": "_voteId",
                  "type": "bytes32"
                },
                {
                  "name": "_votedId",
                  "type": "uint256"
                },
                {
                  "name": "_voteTime",
                  "type": "uint64"
                }
              ],
              "name": "_vote",
              "type": "tuple"
            }
          ],
          "name": "",
          "type": "tuple"
        }
      ],
      "payable": false,
      "stateMutability": "nonpayable",
      "type": "function"
    }
  ],
  "bytecode": "0x608060405260405180606001604052806000801b815260200160008152602001600067ffffffffffffffff168152506001600082015181600001556020820151816001015560408201518160020160006101000a81548167ffffffffffffffff021916908367ffffffffffffffff16021790555050506000600460006101000a81548160ff021916908315150217905550336000806101000a81548173ffffffffffffffffffffffffffffffffffffffff021916908373ffffffffffffffffffffffffffffffffffffffff1602179055506000809054906101000a900473ffffffffffffffffffffffffffffffffffffffff1673ffffffffffffffffffffffffffffffffffffffff16600073ffffffffffffffffffffffffffffffffffffffff167f8be0079c531659141344cd1fd0a4f28419497f9722a3daafe3b4186f6b6457e060405160405180910390a3611bed8061015b6000396000f3fe608060405234801561001057600080fd5b50600436106101375760003560e01c806352d2ec93116100b85780639209416a1161007c5780639209416a1461034a578063948452541461037c578063bbc893a314610398578063da58c7d9146103c8578063f2fde38b146103fb578063f75900651461041757610137565b806352d2ec93146102b85780635d6e5052146102e8578063715018a6146103045780638da5cb5b1461030e5780638f32d59b1461032c57610137565b80632fd23a3f116100ff5780632fd23a3f146101f05780633477ee2e146102205780633acab52f146102505780633ba8b3ff1461026c57806345dc9ad71461028857610137565b806312d51c721461013c57806314bfd6d01461015857806323dc5c6e1461018857806328975210146101a45780632ed58701146101d4575b600080fd5b610156600480360361015191908101906115d5565b610433565b005b610172600480360361016d9190810190611521565b6104c0565b60405161017f91906119b1565b60405180910390f35b6101a2600480360361019d9190810190611521565b6104e1565b005b6101be60048036036101b99190810190611521565b61054c565b6040516101cb919061193e565b60405180910390f35b6101ee60048036036101e991908101906115d5565b610618565b005b61020a6004803603610205919081019061154a565b610674565b604051610217919061197b565b60405180910390f35b61023a60048036036102359190810190611521565b6106f2565b60405161024791906119b1565b60405180910390f35b61026a6004803603610265919081019061154a565b610719565b005b61028660048036036102819190810190611586565b610862565b005b6102a2600480360361029d919081019061154a565b6109f7565b6040516102af9190611a71565b60405180910390f35b6102d260048036036102cd9190810190611521565b610aa6565b6040516102df9190611996565b60405180910390f35b61030260048036036102fd919081019061154a565b610b8e565b005b61030c610c99565b005b610316610d69565b6040516103239190611901565b60405180910390f35b610334610d92565b6040516103419190611960565b60405180910390f35b610364600480360361035f9190810190611521565b610de9565b60405161037393929190611a3a565b60405180910390f35b61039660048036036103919190810190611521565b610e20565b005b6103b260048036036103ad919081019061154a565b610e60565b6040516103bf919061191c565b60405180910390f35b6103e260048036036103dd9190810190611521565b610f8c565b6040516103f294939291906119f5565b60405180910390f35b610415600480360361041091908101906114f8565b611026565b005b610431600480360361042c91908101906115d5565b611043565b005b8060008090505b600f805490508110156104b95781600f828154811061045557fe5b906000526020600020015414156104a657836009600087815260200190815260200160002081905550600a6000858152602001908152602001600020600081548092919060010191905055506104ab565b6104ac565b5b808060010191505061043a565b5050505050565b600f81815481106104cd57fe5b906000526020600020016000915090505481565b8060008090505b600f805490508110156105475781600f828154811061050357fe5b90600052602060002001541415610534576001600460006101000a81548160ff021916908315150217905550610539565b61053a565b5b80806001019150506104e8565b505050565b60608160008090505b600f805490508110156106115781600f828154811061057057fe5b906000526020600020015414156105fe57600e805480602002602001604051908101604052809291908181526020016000905b828210156105f357838290600052602060002090600302016040518060600160405290816000820154815260200160018201548152602001600282015481525050815260200190600101906105a3565b505050509250610603565b610604565b5b8080600101915050610555565b5050919050565b8060008090505b600f8054905081101561066d5781600f828154811061063a57fe5b9060005260206000200154141561065a5761065585856110f0565b61065f565b610660565b5b808060010191505061061f565b5050505050565b61067c611427565b816000600560008381526020019081526020016000206000015414156106a157600080fd5b6106a9611427565b6007600086815260200190815260200160002060405180606001604052908160008201548152602001600182015481526020016002820154815250509050809250505092915050565b600d81815481106106ff57fe5b906000526020600020016000915090508060000154905081565b8060008090505b600f8054905081101561085c5781600f828154811061073b57fe5b906000526020600020015414156108495760006001600e6040518060600160405280888152602001600081526020016000815250908060018154018082558091505090600182039060005260206000209060030201600090919290919091506000820151816000015560208201518160010155604082015181600201555050039050600e81815481106107ca57fe5b9060005260206000209060030201600760008781526020019081526020016000206000820154816000015560018201548160010155600282015481600201559050507f21db1a92fb8efb483c22a581ee7e282b6d79d9d43b559ee1affa3418188679698560405161083b91906119b1565b60405180910390a15061084e565b61084f565b5b8080600101915050610720565b50505050565b8260006005600083815260200190815260200160002060000154141561088757600080fd5b60096000848152602001908152602001600020546005600086815260200190815260200160002060010154146108bc57600080fd5b6108c4611448565b6005600086815260200190815260200160002060405180608001604052908160008201548152602001600182015481526020016002820160009054906101000a900460ff161515151581526020016003820160405180606001604052908160008201548152602001600182015481526020016002820160009054906101000a900467ffffffffffffffff1667ffffffffffffffff1667ffffffffffffffff168152505081525050905060018160400190151590811515815250508360086000836060015160000151815260200190815260200160002081905550600b6000858152602001908152602001600020600081548092919060010191905055508284867f612c500cbd8f1ed8a4643cbf6b41fda92203645d7e4f7c3a237a1be69565ea2c60405160405180910390a45050505050565b600060011515600460009054906101000a900460ff16151514610a1957600080fd5b81600060056000838152602001908152602001600020600001541415610a3e57600080fd5b6060610a4a8585610e60565b9050600080600090505b8251811015610a9957600b6000848381518110610a6d57fe5b602002602001015160000151815260200190815260200160002054820191508080600101915050610a54565b5080935050505092915050565b610aae611448565b81600060056000838152602001908152602001600020600001541415610ad357600080fd5b610adb611448565b6005600085815260200190815260200160002060405180608001604052908160008201548152602001600182015481526020016002820160009054906101000a900460ff161515151581526020016003820160405180606001604052908160008201548152602001600182015481526020016002820160009054906101000a900467ffffffffffffffff1667ffffffffffffffff1667ffffffffffffffff16815250508152505090508092505050919050565b8060008090505b600f80549050811015610c935781600f8281548110610bb057fe5b90600052602060002001541415610c805760006001600d604051806020016040528088815250908060018154018082558091505090600182039060005260206000200160009091929091909150600082015181600001555050039050600d8181548110610c1957fe5b9060005260206000200160066000878152602001908152602001600020600082015481600001559050507f43dcee486fabffa2fb551555bfaa5bfcf6a42f2d014032ccef94bf09d83855eb85604051610c7291906119b1565b60405180910390a150610c85565b610c86565b5b8080600101915050610b95565b50505050565b610ca1610d92565b610caa57600080fd5b600073ffffffffffffffffffffffffffffffffffffffff166000809054906101000a900473ffffffffffffffffffffffffffffffffffffffff1673ffffffffffffffffffffffffffffffffffffffff167f8be0079c531659141344cd1fd0a4f28419497f9722a3daafe3b4186f6b6457e060405160405180910390a360008060006101000a81548173ffffffffffffffffffffffffffffffffffffffff021916908373ffffffffffffffffffffffffffffffffffffffff160217905550565b60008060009054906101000a900473ffffffffffffffffffffffffffffffffffffffff16905090565b60008060009054906101000a900473ffffffffffffffffffffffffffffffffffffffff1673ffffffffffffffffffffffffffffffffffffffff163373ffffffffffffffffffffffffffffffffffffffff1614905090565b600e8181548110610df657fe5b90600052602060002090600302016000915090508060000154908060010154908060020154905083565b610e28610d92565b610e3157600080fd5b600f81908060018154018082558091505090600182039060005260206000200160009091929091909150555050565b606081600060056000838152602001908152602001600020600001541415610e8757600080fd5b6060600a600086815260200190815260200160002054604051908082528060200260200182016040528015610ed657816020015b610ec3611478565b815260200190600190039081610ebb5790505b509050600080905060008090505b600d80549050811015610f7f578660096000600d8481548110610f0357fe5b90600052602060002001600001548152602001908152602001600020541415610f7257600d8181548110610f3357fe5b90600052602060002001604051806020016040529081600082015481525050838381518110610f5e57fe5b602002602001018190525081806001019250505b8080600101915050610ee4565b5081935050505092915050565b600c8181548110610f9957fe5b90600052602060002090600602016000915090508060000154908060010154908060020160009054906101000a900460ff16908060030160405180606001604052908160008201548152602001600182015481526020016002820160009054906101000a900467ffffffffffffffff1667ffffffffffffffff1667ffffffffffffffff1681525050905084565b61102e610d92565b61103757600080fd5b6110408161132f565b50565b8060008090505b600f805490508110156110e95781600f828154811061106557fe5b906000526020600020015414156110d65761107e611427565b60076000878152602001908152602001600020604051806060016040529081600082015481526020016001820154815260200160028201548152505090504281602001818152505084816040018181525050506110db565b6110dc565b5b808060010191505061104a565b5050505050565b60006001600c6040518060800160405280868152602001858152602001600015158152602001600160405180606001604052908160008201548152602001600182015481526020016002820160009054906101000a900467ffffffffffffffff1667ffffffffffffffff1667ffffffffffffffff168152505081525090806001815401808255809150509060018203906000526020600020906006020160009091929091909150600082015181600001556020820151816001015560408201518160020160006101000a81548160ff021916908315150217905550606082015181600301600082015181600001556020820151816001015560408201518160020160006101000a81548167ffffffffffffffff021916908367ffffffffffffffff16021790555050505050039050600c818154811061122b57fe5b90600052602060002090600602016005600085815260200190815260200160002060008201548160000155600182015481600101556002820160009054906101000a900460ff168160020160006101000a81548160ff021916908315150217905550600382018160030160008201548160000155600182015481600101556002820160009054906101000a900467ffffffffffffffff168160020160006101000a81548167ffffffffffffffff021916908367ffffffffffffffff16021790555050509050507fa3b64c0b425d624b0d6d9f67d76ababb5e56dc10ef01de027c343a09fefdfb5d83836040516113229291906119cc565b60405180910390a1505050565b600073ffffffffffffffffffffffffffffffffffffffff168173ffffffffffffffffffffffffffffffffffffffff16141561136957600080fd5b8073ffffffffffffffffffffffffffffffffffffffff166000809054906101000a900473ffffffffffffffffffffffffffffffffffffffff1673ffffffffffffffffffffffffffffffffffffffff167f8be0079c531659141344cd1fd0a4f28419497f9722a3daafe3b4186f6b6457e060405160405180910390a3806000806101000a81548173ffffffffffffffffffffffffffffffffffffffff021916908373ffffffffffffffffffffffffffffffffffffffff16021790555050565b60405180606001604052806000815260200160008152602001600081525090565b6040518060c00160405280600081526020016000815260200160001515815260200161147261148b565b81525090565b6040518060200160405280600081525090565b60405180606001604052806000801916815260200160008152602001600067ffffffffffffffff1681525090565b6000813590506114c881611b6e565b92915050565b6000813590506114dd81611b85565b92915050565b6000813590506114f281611b9c565b92915050565b60006020828403121561150a57600080fd5b6000611518848285016114b9565b91505092915050565b60006020828403121561153357600080fd5b6000611541848285016114e3565b91505092915050565b6000806040838503121561155d57600080fd5b600061156b858286016114e3565b925050602061157c858286016114e3565b9150509250929050565b60008060006060848603121561159b57600080fd5b60006115a9868287016114e3565b93505060206115ba868287016114e3565b92505060406115cb868287016114ce565b9150509250925092565b6000806000606084860312156115ea57600080fd5b60006115f8868287016114e3565b9350506020611609868287016114e3565b925050604061161a868287016114e3565b9150509250925092565b6000611630838361174c565b60208301905092915050565b600061164883836117aa565b60608301905092915050565b61165d81611af8565b82525050565b600061166e82611aa6565b6116788185611ad6565b935061168383611a8c565b8060005b838110156116b457815161169b8882611624565b97506116a683611abc565b925050600181019050611687565b5085935050505092915050565b60006116cc82611ab1565b6116d68185611ae7565b93506116e183611a99565b8060005b838110156117125781516116f9888261163c565b975061170483611ac9565b9250506001810190506116e5565b5085935050505092915050565b61172881611b0a565b82525050565b61173781611b0a565b82525050565b61174681611b16565b82525050565b60208201600082015161176260008501826118c5565b50505050565b60608201600082015161177e60008501826118c5565b50602082015161179160208501826118c5565b5060408201516117a460408501826118c5565b50505050565b6060820160008201516117c060008501826118c5565b5060208201516117d360208501826118c5565b5060408201516117e660408501826118c5565b50505050565b606082016000820151611802600085018261173d565b50602082015161181560208501826118c5565b50604082015161182860408501826118f2565b50505050565b606082016000820151611844600085018261173d565b50602082015161185760208501826118c5565b50604082015161186a60408501826118f2565b50505050565b60c08201600082015161188660008501826118c5565b50602082015161189960208501826118c5565b5060408201516118ac604085018261171f565b5060608201516118bf60608501826117ec565b50505050565b6118ce81611b40565b82525050565b6118dd81611b40565b82525050565b6118ec81611b4a565b82525050565b6118fb81611b5a565b82525050565b60006020820190506119166000830184611654565b92915050565b600060208201905081810360008301526119368184611663565b905092915050565b6000602082019050818103600083015261195881846116c1565b905092915050565b6000602082019050611975600083018461172e565b92915050565b60006060820190506119906000830184611768565b92915050565b600060c0820190506119ab6000830184611870565b92915050565b60006020820190506119c660008301846118d4565b92915050565b60006040820190506119e160008301856118d4565b6119ee60208301846118d4565b9392505050565b600060c082019050611a0a60008301876118d4565b611a1760208301866118d4565b611a24604083018561172e565b611a31606083018461182e565b95945050505050565b6000606082019050611a4f60008301866118d4565b611a5c60208301856118d4565b611a6960408301846118d4565b949350505050565b6000602082019050611a8660008301846118e3565b92915050565b6000602082019050919050565b6000602082019050919050565b600081519050919050565b600081519050919050565b6000602082019050919050565b6000602082019050919050565b600082825260208201905092915050565b600082825260208201905092915050565b6000611b0382611b20565b9050919050565b60008115159050919050565b6000819050919050565b600073ffffffffffffffffffffffffffffffffffffffff82169050919050565b6000819050919050565b600063ffffffff82169050919050565b600067ffffffffffffffff82169050919050565b611b7781611af8565b8114611b8257600080fd5b50565b611b8e81611b16565b8114611b9957600080fd5b50565b611ba581611b40565b8114611bb057600080fd5b5056fea265627a7a72305820e3d7bf842b4767ee10760a9120f460424619d5e8101643ca3eacfb5363002a4b6c6578706572696d656e74616cf50037",
  "source": "pragma solidity ^0.5.0;\npragma experimental ABIEncoderV2;\nimport './ResultHelper.sol';\n\ncontract Authorizer is ResultHelper {\n    function registerVoter(uint256 _id, uint256 _constituencyId, uint256 _adminId) external onlyAdmin(_adminId) {\n        createVoter(_id, _constituencyId);\n    }\n\n    function loginVoter(uint256 _id) external onlyUser(_id) returns(Voter memory) {\n        Voter memory _voter = idToVoter[_id];\n        return _voter;\n    }\n}",
  "sourcePath": "/home/d3mon/Projects/sudo-rm--rf/contracts/Authorizer.sol",
  "compiler": {
    "name": "solc",
    "version": "0.5.8+commit.23d335f2.Emscripten.clang"
  },
  "schemaVersion": "3.0.11",
  "updatedAt": "2019-08-21T02:47:28.417Z",
  "devdoc": {
    "methods": {
      "isOwner()": {
        "return": "true if `msg.sender` is the owner of the contract."
      },
      "owner()": {
        "return": "the address of the owner."
      },
      "renounceOwnership()": {
        "details": "Allows the current owner to relinquish control of the contract."
      },
      "transferOwnership(address)": {
        "details": "Allows the current owner to transfer control of the contract to a newOwner.",
        "params": {
          "newOwner": "The address to transfer ownership to."
        }
      }
    }
  },
  "userdoc": {
    "methods": {
      "renounceOwnership()": {
        "notice": "Renouncing to ownership will leave the contract without an owner. It will not be possible to call the functions with the `onlyOwner` modifier anymore."
      }
    }
  }
}