{
    "contractName": "Election",
    "abi": [
        {
            "constant": true,
            "inputs": [],
            "name": "getDeployedBallots",
            "outputs": [
                {
                    "name": "",
                    "type": "address[]"
                }
            ],
            "payable": false,
            "stateMutability": "view",
            "type": "function"
        },
        {
            "constant": true,
            "inputs": [
                {
                    "name": "",
                    "type": "uint256"
                }
            ],
            "name": "deployedBallots",
            "outputs": [
                {
                    "name": "",
                    "type": "address"
                }
            ],
            "payable": false,
            "stateMutability": "view",
            "type": "function"
        },
        {
            "inputs": [
                {
                    "name": "candidates",
                    "type": "bytes32[]"
                },
                {
                    "name": "district",
                    "type": "bytes32[]"
                },
                {
                    "name": "hour",
                    "type": "uint256"
                }
            ],
            "payable": false,
            "stateMutability": "nonpayable",
            "type": "constructor"
        }
    ],
    "bytecode": "608060405234801561001057600080fd5b5060405161088c38038061088c8339818101604052606081101561003357600080fd5b81019080805164010000000081111561004b57600080fd5b8201602081018481111561005e57600080fd5b815185602082028301116401000000008211171561007b57600080fd5b5050929190602001805164010000000081111561009757600080fd5b820160208101848111156100aa57600080fd5b81518560208202830111640100000000821117156100c757600080fd5b505060209091015190925090506100dc610292565b50604080518082019091527f737562680000000000000000000000000000000000000000000000000000000081527f616d6d6d000000000000000000000000000000000000000000000000000000006020820152610138610292565b50604080518082019091527f616d69746869000000000000000000000000000000000000000000000000000081527f726169626172656c6900000000000000000000000000000000000000000000006020820152600160005b6002811015610286576000848483600281106101a957fe5b602002015133856040516101bc906102b0565b8085604080838360005b838110156101de5781810151838201526020016101c6565b50505050905001848152602001836001600160a01b03166001600160a01b03168152602001828152602001945050505050604051809103906000f08015801561022b573d6000803e3d6000fd5b5060008054600180820183559180527f290decd9548b62a8d60345a988386fc84ba6bc95484008f6362f93160ef3e5630180546001600160a01b0319166001600160a01b039390931692909217909155919091019050610191565b505050505050506102bd565b60405180604001604052806002906020820280388339509192915050565b6104368061045683390190565b61018a806102cc6000396000f3fe608060405234801561001057600080fd5b50600436106100365760003560e01c80639b935abf1461003b578063cdf74c3e14610093575b600080fd5b6100436100cc565b60408051602080825283518183015283519192839290830191858101910280838360005b8381101561007f578181015183820152602001610067565b505050509050019250505060405180910390f35b6100b0600480360360208110156100a957600080fd5b503561012e565b604080516001600160a01b039092168252519081900360200190f35b6060600080548060200260200160405190810160405280929190818152602001828054801561012457602002820191906000526020600020905b81546001600160a01b03168152600190910190602001808311610106575b5050505050905090565b6000818154811061013b57fe5b6000918252602090912001546001600160a01b031690508156fea265627a7a723058200a265786733b9a3143d4352f6df8fc1d5c22c0d197fd643a2a36b2635a180cc764736f6c634300050a0032608060405234801561001057600080fd5b50604051610436380380610436833981810160405260a081101561003357600080fd5b50604081015160608201516080830151600180546001600160a01b0319166001600160a01b038416179055600283905560005b60028110156100e9576000604051806080016040528087846002811061008857fe5b6020908102919091015182526000828201819052426040808501829052908801606094850152855460018181018855968352918390208551600490930201918255918401518186015590830151600282015591015160039091015501610066565b5050505050610339806100fd6000396000f3fe608060405234801561001057600080fd5b506004361061007d5760003560e01c8063716c424e1161005b578063716c424e14610108578063a3ec138d14610122578063b2c2f2e81461015c578063e13804a7146101795761007d565b80630121b93f146100825780633477ee2e146100a1578063481c6a75146100e4575b600080fd5b61009f6004803603602081101561009857600080fd5b5035610196565b005b6100be600480360360208110156100b757600080fd5b5035610223565b604080519485526020850193909352838301919091526060830152519081900360800190f35b6100ec61025a565b604080516001600160a01b039092168252519081900360200190f35b610110610269565b60408051918252519081900360200190f35b6101486004803603602081101561013857600080fd5b50356001600160a01b031661026f565b604080519115158252519081900360200190f35b6101106004803603602081101561017257600080fd5b5035610284565b6101106004803603602081101561018f57600080fd5b50356102c4565b3360009081526003602052604090205460ff16156101b357600080fd5b600081815481106101c057fe5b9060005260206000209060040201600301544211156101de57600080fd5b6001600082815481106101ed57fe5b60009182526020808320600160049093020182018054909401909355338252600390925260409020805460ff1916909117905550565b6000818154811061023057fe5b60009182526020909120600490910201805460018201546002830154600390930154919350919084565b6001546001600160a01b031681565b60025481565b60036020526000908152604090205460ff1681565b6001546000906001600160a01b0316331461029e57600080fd5b600082815481106102ab57fe5b9060005260206000209060040201600101549050919050565b6001546000906001600160a01b031633146102de57600080fd5b600082815481106102eb57fe5b906000526020600020906004020160000154905091905056fea265627a7a7230582031bc3733642c087acb6d33ab35cd9bd8b1b6c005da20983beaf44effd7be5e9664736f6c634300050a0032",
    "sourcePath": "/home/subham/github/sudo-rm--rf/contracts/Election.sol",
    "compiler": {
        "name": "solc",
        "version": "0.5.10+commit.5a6ea5b1"
    },
    "functionHashes": {
        "deployedBallots(uint256)": "cdf74c3e",
        "getDeployedBallots()": "9b935abf"
    },
    "gasEstimates": {
        "creation": {
            "codeDepositCost": "78800",
            "executionCost": "infinite",
            "totalCost": "infinite"
        },
        "external": {
            "deployedBallots(uint256)": "770",
            "getDeployedBallots()": "infinite"
        }
    }
}