{
  "contractName": "Authorizer",
  "abi": [
    {
      "constant": false,
      "inputs": [
        {
          "name": "_id",
          "type": "uint256"
        },
        {
          "name": "_constituencyId",
          "type": "uint256"
        },
        {
          "name": "_adminId",
          "type": "uint256"
        }
      ],
      "name": "assignCandidateToConstituency",
      "outputs": [],
      "payable": false,
      "stateMutability": "nonpayable",
      "type": "function",
      "signature": "0x12d51c72"
    },
    {
      "constant": true,
      "inputs": [
        {
          "name": "",
          "type": "uint256"
        }
      ],
      "name": "admins",
      "outputs": [
        {
          "name": "",
          "type": "uint256"
        }
      ],
      "payable": false,
      "stateMutability": "view",
      "type": "function",
      "signature": "0x14bfd6d0"
    },
    {
      "constant": false,
      "inputs": [
        {
          "name": "_adminId",
          "type": "uint256"
        }
      ],
      "name": "declareResults",
      "outputs": [],
      "payable": false,
      "stateMutability": "nonpayable",
      "type": "function",
      "signature": "0x23dc5c6e"
    },
    {
      "constant": false,
      "inputs": [
        {
          "name": "_adminId",
          "type": "uint256"
        }
      ],
      "name": "getConstituencies",
      "outputs": [
        {
          "components": [
            {
              "name": "_id",
              "type": "uint256"
            },
            {
              "name": "_startTime",
              "type": "uint256"
            },
            {
              "name": "_duration",
              "type": "uint256"
            }
          ],
          "name": "",
          "type": "tuple[]"
        }
      ],
      "payable": false,
      "stateMutability": "nonpayable",
      "type": "function",
      "signature": "0x28975210"
    },
    {
      "constant": false,
      "inputs": [
        {
          "name": "_id",
          "type": "uint256"
        },
        {
          "name": "_userId",
          "type": "uint256"
        }
      ],
      "name": "getConstituencyDetails",
      "outputs": [
        {
          "components": [
            {
              "name": "_id",
              "type": "uint256"
            },
            {
              "name": "_startTime",
              "type": "uint256"
            },
            {
              "name": "_duration",
              "type": "uint256"
            }
          ],
          "name": "",
          "type": "tuple"
        }
      ],
      "payable": false,
      "stateMutability": "nonpayable",
      "type": "function",
      "signature": "0x2fd23a3f"
    },
    {
      "constant": true,
      "inputs": [
        {
          "name": "",
          "type": "uint256"
        }
      ],
      "name": "candidates",
      "outputs": [
        {
          "name": "_id",
          "type": "uint256"
        }
      ],
      "payable": false,
      "stateMutability": "view",
      "type": "function",
      "signature": "0x3477ee2e"
    },
    {
      "constant": false,
      "inputs": [
        {
          "name": "_id",
          "type": "uint256"
        },
        {
          "name": "_adminId",
          "type": "uint256"
        }
      ],
      "name": "registerConstituency",
      "outputs": [],
      "payable": false,
      "stateMutability": "nonpayable",
      "type": "function",
      "signature": "0x3acab52f"
    },
    {
      "constant": false,
      "inputs": [
        {
          "name": "from",
          "type": "uint256"
        },
        {
          "name": "to",
          "type": "uint256"
        },
        {
          "name": "tokenId",
          "type": "bytes32"
        }
      ],
      "name": "transferFrom",
      "outputs": [],
      "payable": false,
      "stateMutability": "nonpayable",
      "type": "function",
      "signature": "0x3ba8b3ff"
    },
    {
      "constant": true,
      "inputs": [
        {
          "name": "_constituencyId",
          "type": "uint256"
        },
        {
          "name": "_userId",
          "type": "uint256"
        }
      ],
      "name": "retreiveConstituencyVoteCount",
      "outputs": [
        {
          "name": "",
          "type": "uint32"
        }
      ],
      "payable": false,
      "stateMutability": "view",
      "type": "function",
      "signature": "0x45dc9ad7"
    },
    {
      "constant": false,
      "inputs": [
        {
          "name": "_id",
          "type": "uint256"
        },
        {
          "name": "_adminId",
          "type": "uint256"
        }
      ],
      "name": "registerCandidate",
      "outputs": [],
      "payable": false,
      "stateMutability": "nonpayable",
      "type": "function",
      "signature": "0x5d6e5052"
    },
    {
      "constant": false,
      "inputs": [],
      "name": "renounceOwnership",
      "outputs": [],
      "payable": false,
      "stateMutability": "nonpayable",
      "type": "function",
      "signature": "0x715018a6"
    },
    {
      "constant": true,
      "inputs": [],
      "name": "owner",
      "outputs": [
        {
          "name": "",
          "type": "address"
        }
      ],
      "payable": false,
      "stateMutability": "view",
      "type": "function",
      "signature": "0x8da5cb5b"
    },
    {
      "constant": true,
      "inputs": [],
      "name": "isOwner",
      "outputs": [
        {
          "name": "",
          "type": "bool"
        }
      ],
      "payable": false,
      "stateMutability": "view",
      "type": "function",
      "signature": "0x8f32d59b"
    },
    {
      "constant": true,
      "inputs": [
        {
          "name": "",
          "type": "uint256"
        }
      ],
      "name": "constituencies",
      "outputs": [
        {
          "name": "_id",
          "type": "uint256"
        },
        {
          "name": "_startTime",
          "type": "uint256"
        },
        {
          "name": "_duration",
          "type": "uint256"
        }
      ],
      "payable": false,
      "stateMutability": "view",
      "type": "function",
      "signature": "0x9209416a"
    },
    {
      "constant": false,
      "inputs": [
        {
          "name": "_id",
          "type": "uint256"
        }
      ],
      "name": "registerAdmin",
      "outputs": [],
      "payable": false,
      "stateMutability": "nonpayable",
      "type": "function",
      "signature": "0x94845254"
    },
    {
      "constant": true,
      "inputs": [
        {
          "name": "_constituencyId",
          "type": "uint256"
        },
        {
          "name": "_userId",
          "type": "uint256"
        }
      ],
      "name": "getCandidatesByConstituency",
      "outputs": [
        {
          "components": [
            {
              "name": "_id",
              "type": "uint256"
            }
          ],
          "name": "",
          "type": "tuple[]"
        }
      ],
      "payable": false,
      "stateMutability": "view",
      "type": "function",
      "signature": "0xbbc893a3"
    },
    {
      "constant": true,
      "inputs": [
        {
          "name": "",
          "type": "uint256"
        }
      ],
      "name": "voters",
      "outputs": [
        {
          "name": "_id",
          "type": "uint256"
        },
        {
          "name": "_constituencyId",
          "type": "uint256"
        },
        {
          "name": "_hasVoted",
          "type": "bool"
        },
        {
          "components": [
            {
              "name": "_voteId",
              "type": "bytes32"
            },
            {
              "name": "_votedId",
              "type": "uint256"
            },
            {
              "name": "_voteTime",
              "type": "uint64"
            }
          ],
          "name": "_vote",
          "type": "tuple"
        }
      ],
      "payable": false,
      "stateMutability": "view",
      "type": "function",
      "signature": "0xda58c7d9"
    },
    {
      "constant": false,
      "inputs": [
        {
          "name": "newOwner",
          "type": "address"
        }
      ],
      "name": "transferOwnership",
      "outputs": [],
      "payable": false,
      "stateMutability": "nonpayable",
      "type": "function",
      "signature": "0xf2fde38b"
    },
    {
      "constant": false,
      "inputs": [
        {
          "name": "_id",
          "type": "uint256"
        },
        {
          "name": "_duration",
          "type": "uint256"
        },
        {
          "name": "_adminId",
          "type": "uint256"
        }
      ],
      "name": "generateElectionforConstituency",
      "outputs": [],
      "payable": false,
      "stateMutability": "nonpayable",
      "type": "function",
      "signature": "0xf7590065"
    },
    {
      "anonymous": false,
      "inputs": [
        {
          "indexed": true,
          "name": "_from",
          "type": "uint256"
        },
        {
          "indexed": true,
          "name": "_to",
          "type": "uint256"
        },
        {
          "indexed": true,
          "name": "_tokenId",
          "type": "bytes32"
        }
      ],
      "name": "Transfer",
      "type": "event",
      "signature": "0x612c500cbd8f1ed8a4643cbf6b41fda92203645d7e4f7c3a237a1be69565ea2c"
    },
    {
      "anonymous": false,
      "inputs": [
        {
          "indexed": false,
          "name": "_id",
          "type": "uint256"
        },
        {
          "indexed": false,
          "name": "_voterId",
          "type": "uint256"
        }
      ],
      "name": "VoterCreated",
      "type": "event",
      "signature": "0xa3b64c0b425d624b0d6d9f67d76ababb5e56dc10ef01de027c343a09fefdfb5d"
    },
    {
      "anonymous": false,
      "inputs": [
        {
          "indexed": false,
          "name": "_id",
          "type": "uint256"
        }
      ],
      "name": "CandidateRegistered",
      "type": "event",
      "signature": "0x43dcee486fabffa2fb551555bfaa5bfcf6a42f2d014032ccef94bf09d83855eb"
    },
    {
      "anonymous": false,
      "inputs": [
        {
          "indexed": false,
          "name": "_id",
          "type": "uint256"
        }
      ],
      "name": "ConstituencyRegistered",
      "type": "event",
      "signature": "0x21db1a92fb8efb483c22a581ee7e282b6d79d9d43b559ee1affa341818867969"
    },
    {
      "anonymous": false,
      "inputs": [
        {
          "indexed": true,
          "name": "previousOwner",
          "type": "address"
        },
        {
          "indexed": true,
          "name": "newOwner",
          "type": "address"
        }
      ],
      "name": "OwnershipTransferred",
      "type": "event",
      "signature": "0x8be0079c531659141344cd1fd0a4f28419497f9722a3daafe3b4186f6b6457e0"
    },
    {
      "constant": false,
      "inputs": [
        {
          "name": "_id",
          "type": "uint256"
        },
        {
          "name": "_constituencyId",
          "type": "uint256"
        },
        {
          "name": "_adminId",
          "type": "uint256"
        }
      ],
      "name": "registerVoter",
      "outputs": [],
      "payable": false,
      "stateMutability": "nonpayable",
      "type": "function",
      "signature": "0x2ed58701"
    },
    {
      "constant": false,
      "inputs": [
        {
          "name": "_id",
          "type": "uint256"
        }
      ],
      "name": "loginVoter",
      "outputs": [
        {
          "components": [
            {
              "name": "_id",
              "type": "uint256"
            },
            {
              "name": "_constituencyId",
              "type": "uint256"
            },
            {
              "name": "_hasVoted",
              "type": "bool"
            },
            {
              "components": [
                {
                  "name": "_voteId",
                  "type": "bytes32"
                },
                {
                  "name": "_votedId",
                  "type": "uint256"
                },
                {
                  "name": "_voteTime",
                  "type": "uint64"
                }
              ],
              "name": "_vote",
              "type": "tuple"
            }
          ],
          "name": "",
          "type": "tuple"
        }
      ],
      "payable": false,
      "stateMutability": "nonpayable",
      "type": "function",
      "signature": "0x52d2ec93"
    }
  ],
  "bytecode": "0x60806040526060604051908101604052806000600102815260200160008152602001600067ffffffffffffffff168152506001600082015181600001556020820151816001015560408201518160020160006101000a81548167ffffffffffffffff021916908367ffffffffffffffff16021790555050506000600460006101000a81548160ff021916908315150217905550336000806101000a81548173ffffffffffffffffffffffffffffffffffffffff021916908373ffffffffffffffffffffffffffffffffffffffff1602179055506000809054906101000a900473ffffffffffffffffffffffffffffffffffffffff1673ffffffffffffffffffffffffffffffffffffffff16600073ffffffffffffffffffffffffffffffffffffffff167f8be0079c531659141344cd1fd0a4f28419497f9722a3daafe3b4186f6b6457e060405160405180910390a3611c598061015d6000396000f3fe60806040526004361061011d576000357c0100000000000000000000000000000000000000000000000000000000900463ffffffff16806312d51c721461012257806314bfd6d01461014b57806323dc5c6e1461018857806328975210146101b15780632ed58701146101ee5780632fd23a3f146102175780633477ee2e146102545780633acab52f146102915780633ba8b3ff146102ba57806345dc9ad7146102e357806352d2ec93146103205780635d6e50521461035d578063715018a6146103865780638da5cb5b1461039d5780638f32d59b146103c85780639209416a146103f35780639484525414610432578063bbc893a31461045b578063da58c7d914610498578063f2fde38b146104d8578063f759006514610501575b600080fd5b34801561012e57600080fd5b5061014960048036036101449190810190611718565b61052a565b005b34801561015757600080fd5b50610172600480360361016d9190810190611664565b6105b9565b60405161017f9190611a5e565b60405180910390f35b34801561019457600080fd5b506101af60048036036101aa9190810190611664565b6105dc565b005b3480156101bd57600080fd5b506101d860048036036101d39190810190611664565b610649565b6040516101e591906119eb565b60405180910390f35b3480156101fa57600080fd5b5061021560048036036102109190810190611718565b610718565b005b34801561022357600080fd5b5061023e6004803603610239919081019061168d565b610776565b60405161024b9190611a28565b60405180910390f35b34801561026057600080fd5b5061027b60048036036102769190810190611664565b6107f7565b6040516102889190611a5e565b60405180910390f35b34801561029d57600080fd5b506102b860048036036102b3919081019061168d565b610820565b005b3480156102c657600080fd5b506102e160048036036102dc91908101906116c9565b61096e565b005b3480156102ef57600080fd5b5061030a6004803603610305919081019061168d565b610b09565b6040516103179190611b1e565b60405180910390f35b34801561032c57600080fd5b5061034760048036036103429190810190611664565b610bc0565b6040516103549190611a43565b60405180910390f35b34801561036957600080fd5b50610384600480360361037f919081019061168d565b610cac565b005b34801561039257600080fd5b5061039b610dbc565b005b3480156103a957600080fd5b506103b2610e8e565b6040516103bf91906119ae565b60405180910390f35b3480156103d457600080fd5b506103dd610eb7565b6040516103ea9190611a0d565b60405180910390f35b3480156103ff57600080fd5b5061041a60048036036104159190810190611664565b610f0e565b60405161042993929190611ae7565b60405180910390f35b34801561043e57600080fd5b5061045960048036036104549190810190611664565b610f47565b005b34801561046757600080fd5b50610482600480360361047d919081019061168d565b610f89565b60405161048f91906119c9565b60405180910390f35b3480156104a457600080fd5b506104bf60048036036104ba9190810190611664565b6110c0565b6040516104cf9493929190611aa2565b60405180910390f35b3480156104e457600080fd5b506104ff60048036036104fa919081019061163b565b61115d565b005b34801561050d57600080fd5b5061052860048036036105239190810190611718565b61117c565b005b8060008090505b600f805490508110156105b25781600f8281548110151561054e57fe5b9060005260206000200154141561059f57836009600087815260200190815260200160002081905550600a6000858152602001908152602001600020600081548092919060010191905055506105a4565b6105a5565b5b8080600101915050610531565b5050505050565b600f818154811015156105c857fe5b906000526020600020016000915090505481565b8060008090505b600f805490508110156106445781600f8281548110151561060057fe5b90600052602060002001541415610631576001600460006101000a81548160ff021916908315150217905550610636565b610637565b5b80806001019150506105e3565b505050565b60608160008090505b600f805490508110156107115781600f8281548110151561066f57fe5b906000526020600020015414156106fe57600e805480602002602001604051908101604052809291908181526020016000905b828210156106f35783829060005260206000209060030201606060405190810160405290816000820154815260200160018201548152602001600282015481525050815260200190600101906106a2565b505050509250610703565b610704565b5b8080600101915050610652565b5050919050565b8060008090505b600f8054905081101561076f5781600f8281548110151561073c57fe5b9060005260206000200154141561075c57610757858561122c565b610761565b610762565b5b808060010191505061071f565b5050505050565b61077e611569565b8160006005600083815260200190815260200160002060000154141515156107a557600080fd5b6107ad611569565b600760008681526020019081526020016000206060604051908101604052908160008201548152602001600182015481526020016002820154815250509050809250505092915050565b600d8181548110151561080657fe5b906000526020600020016000915090508060000154905081565b8060008090505b600f805490508110156109685781600f8281548110151561084457fe5b906000526020600020015414156109555760006001600e606060405190810160405280888152602001600081526020016000815250908060018154018082558091505090600182039060005260206000209060030201600090919290919091506000820151816000015560208201518160010155604082015181600201555050039050600e818154811015156108d657fe5b9060005260206000209060030201600760008781526020019081526020016000206000820154816000015560018201548160010155600282015481600201559050507f21db1a92fb8efb483c22a581ee7e282b6d79d9d43b559ee1affa341818867969856040516109479190611a5e565b60405180910390a15061095a565b61095b565b5b8080600101915050610827565b50505050565b82600060056000838152602001908152602001600020600001541415151561099557600080fd5b600960008481526020019081526020016000205460056000868152602001908152602001600020600101541415156109cc57600080fd5b6109d461158b565b600560008681526020019081526020016000206080604051908101604052908160008201548152602001600182015481526020016002820160009054906101000a900460ff16151515158152602001600382016060604051908101604052908160008201548152602001600182015481526020016002820160009054906101000a900467ffffffffffffffff1667ffffffffffffffff1667ffffffffffffffff168152505081525050905060018160400190151590811515815250508360086000836060015160000151815260200190815260200160002081905550600b6000858152602001908152602001600020600081548092919060010191905055508284867f612c500cbd8f1ed8a4643cbf6b41fda92203645d7e4f7c3a237a1be69565ea2c60405160405180910390a45050505050565b600060011515600460009054906101000a900460ff161515141515610b2d57600080fd5b816000600560008381526020019081526020016000206000015414151515610b5457600080fd5b6060610b608585610f89565b9050600080600090505b8251811015610bb357600b60008483815181101515610b8557fe5b9060200190602002015160000151815260200190815260200160002054820191508080600101915050610b6a565b5080935050505092915050565b610bc861158b565b816000600560008381526020019081526020016000206000015414151515610bef57600080fd5b610bf761158b565b600560008581526020019081526020016000206080604051908101604052908160008201548152602001600182015481526020016002820160009054906101000a900460ff16151515158152602001600382016060604051908101604052908160008201548152602001600182015481526020016002820160009054906101000a900467ffffffffffffffff1667ffffffffffffffff1667ffffffffffffffff16815250508152505090508092505050919050565b8060008090505b600f80549050811015610db65781600f82815481101515610cd057fe5b90600052602060002001541415610da35760006001600d60206040519081016040528088815250908060018154018082558091505090600182039060005260206000200160009091929091909150600082015181600001555050039050600d81815481101515610d3c57fe5b9060005260206000200160066000878152602001908152602001600020600082015481600001559050507f43dcee486fabffa2fb551555bfaa5bfcf6a42f2d014032ccef94bf09d83855eb85604051610d959190611a5e565b60405180910390a150610da8565b610da9565b5b8080600101915050610cb3565b50505050565b610dc4610eb7565b1515610dcf57600080fd5b600073ffffffffffffffffffffffffffffffffffffffff166000809054906101000a900473ffffffffffffffffffffffffffffffffffffffff1673ffffffffffffffffffffffffffffffffffffffff167f8be0079c531659141344cd1fd0a4f28419497f9722a3daafe3b4186f6b6457e060405160405180910390a360008060006101000a81548173ffffffffffffffffffffffffffffffffffffffff021916908373ffffffffffffffffffffffffffffffffffffffff160217905550565b60008060009054906101000a900473ffffffffffffffffffffffffffffffffffffffff16905090565b60008060009054906101000a900473ffffffffffffffffffffffffffffffffffffffff1673ffffffffffffffffffffffffffffffffffffffff163373ffffffffffffffffffffffffffffffffffffffff1614905090565b600e81815481101515610f1d57fe5b90600052602060002090600302016000915090508060000154908060010154908060020154905083565b610f4f610eb7565b1515610f5a57600080fd5b600f81908060018154018082558091505090600182039060005260206000200160009091929091909150555050565b6060816000600560008381526020019081526020016000206000015414151515610fb257600080fd5b6060600a60008681526020019081526020016000205460405190808252806020026020018201604052801561100157816020015b610fee6115bc565b815260200190600190039081610fe65790505b509050600080905060008090505b600d805490508110156110b3578660096000600d8481548110151561103057fe5b906000526020600020016000015481526020019081526020016000205414156110a657600d8181548110151561106257fe5b9060005260206000200160206040519081016040529081600082015481525050838381518110151561109057fe5b9060200190602002018190525081806001019250505b808060010191505061100f565b5081935050505092915050565b600c818154811015156110cf57fe5b90600052602060002090600602016000915090508060000154908060010154908060020160009054906101000a900460ff1690806003016060604051908101604052908160008201548152602001600182015481526020016002820160009054906101000a900467ffffffffffffffff1667ffffffffffffffff1667ffffffffffffffff1681525050905084565b611165610eb7565b151561117057600080fd5b6111798161146f565b50565b8060008090505b600f805490508110156112255781600f828154811015156111a057fe5b90600052602060002001541415611212576111b9611569565b600760008781526020019081526020016000206060604051908101604052908160008201548152602001600182015481526020016002820154815250509050428160200181815250508481604001818152505050611217565b611218565b5b8080600101915050611183565b5050505050565b60006001600c60806040519081016040528086815260200185815260200160001515815260200160016060604051908101604052908160008201548152602001600182015481526020016002820160009054906101000a900467ffffffffffffffff1667ffffffffffffffff1667ffffffffffffffff168152505081525090806001815401808255809150509060018203906000526020600020906006020160009091929091909150600082015181600001556020820151816001015560408201518160020160006101000a81548160ff021916908315150217905550606082015181600301600082015181600001556020820151816001015560408201518160020160006101000a81548167ffffffffffffffff021916908367ffffffffffffffff16021790555050505050039050600c8181548110151561136b57fe5b90600052602060002090600602016005600085815260200190815260200160002060008201548160000155600182015481600101556002820160009054906101000a900460ff168160020160006101000a81548160ff021916908315150217905550600382018160030160008201548160000155600182015481600101556002820160009054906101000a900467ffffffffffffffff168160020160006101000a81548167ffffffffffffffff021916908367ffffffffffffffff16021790555050509050507fa3b64c0b425d624b0d6d9f67d76ababb5e56dc10ef01de027c343a09fefdfb5d8383604051611462929190611a79565b60405180910390a1505050565b600073ffffffffffffffffffffffffffffffffffffffff168173ffffffffffffffffffffffffffffffffffffffff16141515156114ab57600080fd5b8073ffffffffffffffffffffffffffffffffffffffff166000809054906101000a900473ffffffffffffffffffffffffffffffffffffffff1673ffffffffffffffffffffffffffffffffffffffff167f8be0079c531659141344cd1fd0a4f28419497f9722a3daafe3b4186f6b6457e060405160405180910390a3806000806101000a81548173ffffffffffffffffffffffffffffffffffffffff021916908373ffffffffffffffffffffffffffffffffffffffff16021790555050565b6060604051908101604052806000815260200160008152602001600081525090565b60c06040519081016040528060008152602001600081526020016000151581526020016115b66115d0565b81525090565b602060405190810160405280600081525090565b6060604051908101604052806000801916815260200160008152602001600067ffffffffffffffff1681525090565b600061160b8235611bf9565b905092915050565b600061161f8235611c0b565b905092915050565b60006116338235611c15565b905092915050565b60006020828403121561164d57600080fd5b600061165b848285016115ff565b91505092915050565b60006020828403121561167657600080fd5b600061168484828501611627565b91505092915050565b600080604083850312156116a057600080fd5b60006116ae85828601611627565b92505060206116bf85828601611627565b9150509250929050565b6000806000606084860312156116de57600080fd5b60006116ec86828701611627565b93505060206116fd86828701611627565b925050604061170e86828701611613565b9150509250925092565b60008060006060848603121561172d57600080fd5b600061173b86828701611627565b935050602061174c86828701611627565b925050604061175d86828701611627565b9150509250925092565b61177081611b83565b82525050565b600061178182611b53565b80845260208401935061179383611b39565b60005b828110156117c5576117a986835161184a565b6117b282611b69565b9150602086019550600181019050611796565b50849250505092915050565b60006117dc82611b5e565b8084526020840193506117ee83611b46565b60005b82811015611820576118048683516118a8565b61180d82611b76565b91506060860195506001810190506117f1565b50849250505092915050565b61183581611b95565b82525050565b61184481611ba1565b82525050565b6020820160008201516118606000850182611981565b50505050565b60608201600082015161187c6000850182611981565b50602082015161188f6020850182611981565b5060408201516118a26040850182611981565b50505050565b6060820160008201516118be6000850182611981565b5060208201516118d16020850182611981565b5060408201516118e46040850182611981565b50505050565b606082016000820151611900600085018261183b565b5060208201516119136020850182611981565b506040820151611926604085018261199f565b50505050565b60c0820160008201516119426000850182611981565b5060208201516119556020850182611981565b506040820151611968604085018261182c565b50606082015161197b60608501826118ea565b50505050565b61198a81611bcb565b82525050565b61199981611bd5565b82525050565b6119a881611be5565b82525050565b60006020820190506119c36000830184611767565b92915050565b600060208201905081810360008301526119e38184611776565b905092915050565b60006020820190508181036000830152611a0581846117d1565b905092915050565b6000602082019050611a22600083018461182c565b92915050565b6000606082019050611a3d6000830184611866565b92915050565b600060c082019050611a58600083018461192c565b92915050565b6000602082019050611a736000830184611981565b92915050565b6000604082019050611a8e6000830185611981565b611a9b6020830184611981565b9392505050565b600060c082019050611ab76000830187611981565b611ac46020830186611981565b611ad1604083018561182c565b611ade60608301846118ea565b95945050505050565b6000606082019050611afc6000830186611981565b611b096020830185611981565b611b166040830184611981565b949350505050565b6000602082019050611b336000830184611990565b92915050565b6000602082019050919050565b6000602082019050919050565b600081519050919050565b600081519050919050565b6000602082019050919050565b6000602082019050919050565b6000611b8e82611bab565b9050919050565b60008115159050919050565b6000819050919050565b600073ffffffffffffffffffffffffffffffffffffffff82169050919050565b6000819050919050565b600063ffffffff82169050919050565b600067ffffffffffffffff82169050919050565b6000611c0482611bab565b9050919050565b6000819050919050565b600081905091905056fea265627a7a72305820fa5cbd747640a5ea7e34440d2bd02003e124fad75906e6cd9e4cdb6fd71b29fd6c6578706572696d656e74616cf50037",
  "source": "pragma solidity ^0.5.0;\npragma experimental ABIEncoderV2;\nimport './ResultHelper.sol';\n\ncontract Authorizer is ResultHelper {\n    function registerVoter(uint256 _id, uint256 _constituencyId, uint256 _adminId) external onlyAdmin(_adminId) {\n        createVoter(_id, _constituencyId);\n    }\n\n    function loginVoter(uint256 _id) external onlyUser(_id) returns(Voter memory) {\n        Voter memory _voter = idToVoter[_id];\n        return _voter;\n    }\n}",
  "sourcePath": "/home/d3mon/Projects/sudo-rm--rf/contracts/Authorizer.sol",
  "compiler": {
    "name": "solc",
    "version": "0.5.0+commit.1d4f565a.Emscripten.clang"
  },
  "schemaVersion": "3.0.2",
  "updatedAt": "2019-12-23T11:15:40.849Z",
  "devdoc": {
    "methods": {
      "isOwner()": {
        "return": "true if `msg.sender` is the owner of the contract."
      },
      "owner()": {
        "return": "the address of the owner."
      },
      "renounceOwnership()": {
        "details": "Allows the current owner to relinquish control of the contract."
      },
      "transferOwnership(address)": {
        "details": "Allows the current owner to transfer control of the contract to a newOwner.",
        "params": {
          "newOwner": "The address to transfer ownership to."
        }
      }
    }
  },
  "userdoc": {
    "methods": {
      "renounceOwnership()": {
        "notice": "Renouncing to ownership will leave the contract without an owner. It will not be possible to call the functions with the `onlyOwner` modifier anymore."
      }
    }
  }
}