{
  "contractName": "Authorizer",
  "abi": [
    {
      "constant": false,
      "inputs": [
        {
          "name": "_id",
          "type": "uint256"
        }
      ],
      "name": "registerCandidate",
      "outputs": [],
      "payable": false,
      "stateMutability": "nonpayable",
      "type": "function"
    },
    {
      "constant": false,
      "inputs": [
        {
          "name": "_id",
          "type": "uint256"
        }
      ],
      "name": "registerConstituency",
      "outputs": [],
      "payable": false,
      "stateMutability": "nonpayable",
      "type": "function"
    },
    {
      "constant": true,
      "inputs": [
        {
          "name": "",
          "type": "uint256"
        }
      ],
      "name": "candidates",
      "outputs": [
        {
          "name": "_id",
          "type": "uint256"
        }
      ],
      "payable": false,
      "stateMutability": "view",
      "type": "function"
    },
    {
      "constant": true,
      "inputs": [
        {
          "name": "",
          "type": "uint256"
        }
      ],
      "name": "constituencies",
      "outputs": [
        {
          "name": "_id",
          "type": "uint256"
        },
        {
          "name": "_startTime",
          "type": "uint256"
        },
        {
          "name": "_duration",
          "type": "uint256"
        }
      ],
      "payable": false,
      "stateMutability": "view",
      "type": "function"
    },
    {
      "constant": true,
      "inputs": [
        {
          "name": "",
          "type": "uint256"
        }
      ],
      "name": "voters",
      "outputs": [
        {
          "name": "_id",
          "type": "uint256"
        },
        {
          "name": "_constituencyId",
          "type": "uint256"
        },
        {
          "name": "_hasVoted",
          "type": "bool"
        },
        {
          "components": [
            {
              "name": "_voteId",
              "type": "bytes32"
            },
            {
              "name": "_votedId",
              "type": "uint256"
            },
            {
              "name": "_voteTime",
              "type": "uint64"
            }
          ],
          "name": "_vote",
          "type": "tuple"
        }
      ],
      "payable": false,
      "stateMutability": "view",
      "type": "function"
    },
    {
      "anonymous": false,
      "inputs": [
        {
          "indexed": false,
          "name": "_id",
          "type": "uint256"
        },
        {
          "indexed": false,
          "name": "_voterId",
          "type": "uint256"
        }
      ],
      "name": "VoterCreated",
      "type": "event"
    },
    {
      "anonymous": false,
      "inputs": [
        {
          "indexed": false,
          "name": "_id",
          "type": "uint256"
        }
      ],
      "name": "CandidateRegistered",
      "type": "event"
    },
    {
      "anonymous": false,
      "inputs": [
        {
          "indexed": false,
          "name": "_id",
          "type": "uint256"
        }
      ],
      "name": "ConstituencyRegistered",
      "type": "event"
    },
    {
      "constant": false,
      "inputs": [
        {
          "name": "_id",
          "type": "uint256"
        },
        {
          "name": "_constituencyId",
          "type": "uint256"
        }
      ],
      "name": "register",
      "outputs": [],
      "payable": false,
      "stateMutability": "nonpayable",
      "type": "function"
    },
    {
      "constant": false,
      "inputs": [
        {
          "name": "_id",
          "type": "uint256"
        }
      ],
      "name": "login",
      "outputs": [
        {
          "components": [
            {
              "name": "_id",
              "type": "uint256"
            },
            {
              "name": "_constituencyId",
              "type": "uint256"
            },
            {
              "name": "_hasVoted",
              "type": "bool"
            },
            {
              "components": [
                {
                  "name": "_voteId",
                  "type": "bytes32"
                },
                {
                  "name": "_votedId",
                  "type": "uint256"
                },
                {
                  "name": "_voteTime",
                  "type": "uint64"
                }
              ],
              "name": "_vote",
              "type": "tuple"
            }
          ],
          "name": "",
          "type": "tuple"
        }
      ],
      "payable": false,
      "stateMutability": "nonpayable",
      "type": "function"
    }
  ],
  "bytecode": "0x608060405260405180606001604052806000801b815260200160008152602001600067ffffffffffffffff1681525060008082015181600001556020820151816001015560408201518160020160006101000a81548167ffffffffffffffff021916908367ffffffffffffffff160217905550505034801561008057600080fd5b50610ac5806100906000396000f3fe608060405234801561001057600080fd5b506004361061007d5760003560e01c80633dbfd97c1161005b5780633dbfd97c146100ea5780639209416a1461011a578063d66d6c101461014c578063da58c7d9146101685761007d565b80630b2a85ea14610082578063233f01141461009e5780633477ee2e146100ba575b600080fd5b61009c600480360361009791908101906107cd565b61019b565b005b6100b860048036036100b391908101906107cd565b610258565b005b6100d460048036036100cf91908101906107cd565b610353565b6040516100e19190610980565b60405180910390f35b61010460048036036100ff91908101906107cd565b61037a565b6040516101119190610965565b60405180910390f35b610134600480360361012f91908101906107cd565b61043c565b60405161014393929190610a09565b60405180910390f35b610166600480360361016191908101906107f6565b610473565b005b610182600480360361017d91908101906107cd565b610481565b60405161019294939291906109c4565b60405180910390f35b60006001600b604051806020016040528085815250908060018154018082558091505090600182039060005260206000200160009091929091909150600082015181600001555050039050600b81815481106101f357fe5b9060005260206000200160046000848152602001908152602001600020600082015481600001559050507f43dcee486fabffa2fb551555bfaa5bfcf6a42f2d014032ccef94bf09d83855eb8260405161024c9190610980565b60405180910390a15050565b60006001600c6040518060600160405280858152602001600081526020016000815250908060018154018082558091505090600182039060005260206000209060030201600090919290919091506000820151816000015560208201518160010155604082015181600201555050039050600c81815481106102d657fe5b9060005260206000209060030201600560008481526020019081526020016000206000820154816000015560018201548160010155600282015481600201559050507f21db1a92fb8efb483c22a581ee7e282b6d79d9d43b559ee1affa341818867969826040516103479190610980565b60405180910390a15050565b600b818154811061036057fe5b906000526020600020016000915090508060000154905081565b61038261075a565b61038a61075a565b6003600084815260200190815260200160002060405180608001604052908160008201548152602001600182015481526020016002820160009054906101000a900460ff161515151581526020016003820160405180606001604052908160008201548152602001600182015481526020016002820160009054906101000a900467ffffffffffffffff1667ffffffffffffffff1667ffffffffffffffff168152505081525050905080915050919050565b600c818154811061044957fe5b90600052602060002090600302016000915090508060000154908060010154908060020154905083565b61047d828261051b565b5050565b600a818154811061048e57fe5b90600052602060002090600602016000915090508060000154908060010154908060020160009054906101000a900460ff16908060030160405180606001604052908160008201548152602001600182015481526020016002820160009054906101000a900467ffffffffffffffff1667ffffffffffffffff1667ffffffffffffffff1681525050905084565b60006001600a6040518060800160405280868152602001858152602001600015158152602001600060405180606001604052908160008201548152602001600182015481526020016002820160009054906101000a900467ffffffffffffffff1667ffffffffffffffff1667ffffffffffffffff168152505081525090806001815401808255809150509060018203906000526020600020906006020160009091929091909150600082015181600001556020820151816001015560408201518160020160006101000a81548160ff021916908315150217905550606082015181600301600082015181600001556020820151816001015560408201518160020160006101000a81548167ffffffffffffffff021916908367ffffffffffffffff16021790555050505050039050600a818154811061065657fe5b90600052602060002090600602016003600085815260200190815260200160002060008201548160000155600182015481600101556002820160009054906101000a900460ff168160020160006101000a81548160ff021916908315150217905550600382018160030160008201548160000155600182015481600101556002820160009054906101000a900467ffffffffffffffff168160020160006101000a81548167ffffffffffffffff021916908367ffffffffffffffff16021790555050509050507fa3b64c0b425d624b0d6d9f67d76ababb5e56dc10ef01de027c343a09fefdfb5d838360405161074d92919061099b565b60405180910390a1505050565b6040518060c00160405280600081526020016000815260200160001515815260200161078461078a565b81525090565b60405180606001604052806000801916815260200160008152602001600067ffffffffffffffff1681525090565b6000813590506107c781610a74565b92915050565b6000602082840312156107df57600080fd5b60006107ed848285016107b8565b91505092915050565b6000806040838503121561080957600080fd5b6000610817858286016107b8565b9250506020610828858286016107b8565b9150509250929050565b61083b81610a40565b82525050565b61084a81610a40565b82525050565b61085981610a4c565b82525050565b6060820160008201516108756000850182610850565b5060208201516108886020850182610938565b50604082015161089b6040850182610956565b50505050565b6060820160008201516108b76000850182610850565b5060208201516108ca6020850182610938565b5060408201516108dd6040850182610956565b50505050565b60c0820160008201516108f96000850182610938565b50602082015161090c6020850182610938565b50604082015161091f6040850182610832565b506060820151610932606085018261085f565b50505050565b61094181610a56565b82525050565b61095081610a56565b82525050565b61095f81610a60565b82525050565b600060c08201905061097a60008301846108e3565b92915050565b60006020820190506109956000830184610947565b92915050565b60006040820190506109b06000830185610947565b6109bd6020830184610947565b9392505050565b600060c0820190506109d96000830187610947565b6109e66020830186610947565b6109f36040830185610841565b610a0060608301846108a1565b95945050505050565b6000606082019050610a1e6000830186610947565b610a2b6020830185610947565b610a386040830184610947565b949350505050565b60008115159050919050565b6000819050919050565b6000819050919050565b600067ffffffffffffffff82169050919050565b610a7d81610a56565b8114610a8857600080fd5b5056fea265627a7a723058209ec5dedba86b861f9cf4a1e36f5e65004ebe2d4a911c7b6de80f42efba9eff536c6578706572696d656e74616cf50037",
  "source": "pragma solidity ^0.5.0;\npragma experimental ABIEncoderV2;\nimport './Election.sol';\n\ncontract Authorizer is Election {\n    function register(uint256 _id, uint256 _constituencyId) external {\n        createVoter(_id, _constituencyId);\n    }\n\n    function login(uint256 _id) public returns(Voter memory) {\n        Voter memory _voter = idToVoter[_id];\n        return _voter;\n    }\n}",
  "sourcePath": "/home/d3mon/Projects/sudo-rm--rf/contracts/Authorizer.sol",
  "compiler": {
    "name": "solc",
    "version": "0.5.8+commit.23d335f2.Emscripten.clang"
  },
  "schemaVersion": "3.0.11",
  "updatedAt": "2019-08-10T07:06:20.498Z",
  "devdoc": {
    "methods": {}
  },
  "userdoc": {
    "methods": {}
  }
}