{
  "contractName": "Authorizer",
  "abi": [
    {
      "constant": true,
      "inputs": [
        {
          "name": "",
          "type": "uint256"
        }
      ],
      "name": "candidateVoteCount",
      "outputs": [
        {
          "name": "",
          "type": "uint256"
        }
      ],
      "payable": false,
      "stateMutability": "view",
      "type": "function",
      "signature": "0x01aa2e03"
    },
    {
      "constant": true,
      "inputs": [
        {
          "name": "",
          "type": "uint256"
        }
      ],
      "name": "idToConstituency",
      "outputs": [
        {
          "name": "_id",
          "type": "uint256"
        },
        {
          "name": "_startTime",
          "type": "uint256"
        },
        {
          "name": "_duration",
          "type": "uint256"
        }
      ],
      "payable": false,
      "stateMutability": "view",
      "type": "function",
      "signature": "0x0f80dcb0"
    },
    {
      "constant": false,
      "inputs": [
        {
          "name": "_id",
          "type": "uint256"
        },
        {
          "name": "_constituencyId",
          "type": "uint256"
        },
        {
          "name": "_adminId",
          "type": "uint256"
        }
      ],
      "name": "assignCandidateToConstituency",
      "outputs": [],
      "payable": false,
      "stateMutability": "nonpayable",
      "type": "function",
      "signature": "0x12d51c72"
    },
    {
      "constant": true,
      "inputs": [
        {
          "name": "",
          "type": "uint256"
        }
      ],
      "name": "candidateToConstituency",
      "outputs": [
        {
          "name": "",
          "type": "uint256"
        }
      ],
      "payable": false,
      "stateMutability": "view",
      "type": "function",
      "signature": "0x1471e0ab"
    },
    {
      "constant": true,
      "inputs": [
        {
          "name": "",
          "type": "uint256"
        }
      ],
      "name": "admins",
      "outputs": [
        {
          "name": "",
          "type": "uint256"
        }
      ],
      "payable": false,
      "stateMutability": "view",
      "type": "function",
      "signature": "0x14bfd6d0"
    },
    {
      "constant": false,
      "inputs": [
        {
          "name": "_adminId",
          "type": "uint256"
        }
      ],
      "name": "declareResults",
      "outputs": [],
      "payable": false,
      "stateMutability": "nonpayable",
      "type": "function",
      "signature": "0x23dc5c6e"
    },
    {
      "constant": false,
      "inputs": [
        {
          "name": "_adminId",
          "type": "uint256"
        }
      ],
      "name": "getConstituencies",
      "outputs": [
        {
          "components": [
            {
              "name": "_id",
              "type": "uint256"
            },
            {
              "name": "_startTime",
              "type": "uint256"
            },
            {
              "name": "_duration",
              "type": "uint256"
            }
          ],
          "name": "",
          "type": "tuple[]"
        }
      ],
      "payable": false,
      "stateMutability": "nonpayable",
      "type": "function",
      "signature": "0x28975210"
    },
    {
      "constant": false,
      "inputs": [
        {
          "name": "_id",
          "type": "uint256"
        },
        {
          "name": "_userId",
          "type": "uint256"
        }
      ],
      "name": "getConstituencyDetails",
      "outputs": [
        {
          "components": [
            {
              "name": "_id",
              "type": "uint256"
            },
            {
              "name": "_startTime",
              "type": "uint256"
            },
            {
              "name": "_duration",
              "type": "uint256"
            }
          ],
          "name": "",
          "type": "tuple"
        }
      ],
      "payable": false,
      "stateMutability": "nonpayable",
      "type": "function",
      "signature": "0x2fd23a3f"
    },
    {
      "constant": false,
      "inputs": [
        {
          "name": "from",
          "type": "uint256"
        },
        {
          "name": "to",
          "type": "uint256"
        },
        {
          "name": "tokenId",
          "type": "uint256"
        }
      ],
      "name": "transferFrom",
      "outputs": [],
      "payable": false,
      "stateMutability": "nonpayable",
      "type": "function",
      "signature": "0x310ed7f0"
    },
    {
      "constant": true,
      "inputs": [
        {
          "name": "",
          "type": "uint256"
        }
      ],
      "name": "candidates",
      "outputs": [
        {
          "name": "_id",
          "type": "uint256"
        }
      ],
      "payable": false,
      "stateMutability": "view",
      "type": "function",
      "signature": "0x3477ee2e"
    },
    {
      "constant": true,
      "inputs": [
        {
          "name": "",
          "type": "uint256"
        }
      ],
      "name": "constituencyCandidateCount",
      "outputs": [
        {
          "name": "",
          "type": "uint256"
        }
      ],
      "payable": false,
      "stateMutability": "view",
      "type": "function",
      "signature": "0x3b04a6c9"
    },
    {
      "constant": true,
      "inputs": [
        {
          "name": "_constituencyId",
          "type": "uint256"
        },
        {
          "name": "_userId",
          "type": "uint256"
        }
      ],
      "name": "retreiveConstituencyVoteCount",
      "outputs": [
        {
          "name": "",
          "type": "uint32"
        }
      ],
      "payable": false,
      "stateMutability": "view",
      "type": "function",
      "signature": "0x45dc9ad7"
    },
    {
      "constant": true,
      "inputs": [
        {
          "name": "",
          "type": "uint256"
        }
      ],
      "name": "voteToCandidate",
      "outputs": [
        {
          "name": "",
          "type": "uint256"
        }
      ],
      "payable": false,
      "stateMutability": "view",
      "type": "function",
      "signature": "0x56be1658"
    },
    {
      "constant": true,
      "inputs": [
        {
          "name": "",
          "type": "uint256"
        }
      ],
      "name": "idToCandidate",
      "outputs": [
        {
          "name": "_id",
          "type": "uint256"
        }
      ],
      "payable": false,
      "stateMutability": "view",
      "type": "function",
      "signature": "0x57e2ef10"
    },
    {
      "constant": false,
      "inputs": [],
      "name": "renounceOwnership",
      "outputs": [],
      "payable": false,
      "stateMutability": "nonpayable",
      "type": "function",
      "signature": "0x715018a6"
    },
    {
      "constant": false,
      "inputs": [
        {
          "name": "_constituencies",
          "type": "uint256[]"
        },
        {
          "name": "_adminId",
          "type": "uint256"
        }
      ],
      "name": "registerConstituencies",
      "outputs": [],
      "payable": false,
      "stateMutability": "nonpayable",
      "type": "function",
      "signature": "0x7b013b94"
    },
    {
      "constant": true,
      "inputs": [],
      "name": "owner",
      "outputs": [
        {
          "name": "",
          "type": "address"
        }
      ],
      "payable": false,
      "stateMutability": "view",
      "type": "function",
      "signature": "0x8da5cb5b"
    },
    {
      "constant": true,
      "inputs": [],
      "name": "isOwner",
      "outputs": [
        {
          "name": "",
          "type": "bool"
        }
      ],
      "payable": false,
      "stateMutability": "view",
      "type": "function",
      "signature": "0x8f32d59b"
    },
    {
      "constant": true,
      "inputs": [
        {
          "name": "",
          "type": "uint256"
        }
      ],
      "name": "constituencies",
      "outputs": [
        {
          "name": "_id",
          "type": "uint256"
        },
        {
          "name": "_startTime",
          "type": "uint256"
        },
        {
          "name": "_duration",
          "type": "uint256"
        }
      ],
      "payable": false,
      "stateMutability": "view",
      "type": "function",
      "signature": "0x9209416a"
    },
    {
      "constant": false,
      "inputs": [
        {
          "name": "_id",
          "type": "uint256"
        }
      ],
      "name": "registerAdmin",
      "outputs": [],
      "payable": false,
      "stateMutability": "nonpayable",
      "type": "function",
      "signature": "0x94845254"
    },
    {
      "constant": true,
      "inputs": [],
      "name": "ResultsDeclared",
      "outputs": [
        {
          "name": "",
          "type": "bool"
        }
      ],
      "payable": false,
      "stateMutability": "view",
      "type": "function",
      "signature": "0xaa3e4e1c"
    },
    {
      "constant": true,
      "inputs": [
        {
          "name": "_constituencyId",
          "type": "uint256"
        },
        {
          "name": "_userId",
          "type": "uint256"
        }
      ],
      "name": "getCandidatesByConstituency",
      "outputs": [
        {
          "components": [
            {
              "name": "_id",
              "type": "uint256"
            }
          ],
          "name": "",
          "type": "tuple[]"
        }
      ],
      "payable": false,
      "stateMutability": "view",
      "type": "function",
      "signature": "0xbbc893a3"
    },
    {
      "constant": true,
      "inputs": [
        {
          "name": "",
          "type": "uint256"
        }
      ],
      "name": "voters",
      "outputs": [
        {
          "name": "_id",
          "type": "uint256"
        },
        {
          "name": "_constituencyId",
          "type": "uint256"
        },
        {
          "name": "_hasVoted",
          "type": "bool"
        },
        {
          "name": "_voteTime",
          "type": "uint256"
        },
        {
          "components": [
            {
              "name": "_voteId",
              "type": "uint256"
            }
          ],
          "name": "_vote",
          "type": "tuple"
        }
      ],
      "payable": false,
      "stateMutability": "view",
      "type": "function",
      "signature": "0xda58c7d9"
    },
    {
      "constant": false,
      "inputs": [
        {
          "name": "newOwner",
          "type": "address"
        }
      ],
      "name": "transferOwnership",
      "outputs": [],
      "payable": false,
      "stateMutability": "nonpayable",
      "type": "function",
      "signature": "0xf2fde38b"
    },
    {
      "constant": false,
      "inputs": [
        {
          "name": "_id",
          "type": "uint256"
        },
        {
          "name": "_duration",
          "type": "uint256"
        },
        {
          "name": "_adminId",
          "type": "uint256"
        }
      ],
      "name": "generateElectionforConstituency",
      "outputs": [],
      "payable": false,
      "stateMutability": "nonpayable",
      "type": "function",
      "signature": "0xf7590065"
    },
    {
      "constant": true,
      "inputs": [
        {
          "name": "",
          "type": "uint256"
        }
      ],
      "name": "idToVoter",
      "outputs": [
        {
          "name": "_id",
          "type": "uint256"
        },
        {
          "name": "_constituencyId",
          "type": "uint256"
        },
        {
          "name": "_hasVoted",
          "type": "bool"
        },
        {
          "name": "_voteTime",
          "type": "uint256"
        },
        {
          "components": [
            {
              "name": "_voteId",
              "type": "uint256"
            }
          ],
          "name": "_vote",
          "type": "tuple"
        }
      ],
      "payable": false,
      "stateMutability": "view",
      "type": "function",
      "signature": "0xf8c70571"
    },
    {
      "anonymous": false,
      "inputs": [
        {
          "indexed": true,
          "name": "_from",
          "type": "uint256"
        },
        {
          "indexed": true,
          "name": "_to",
          "type": "uint256"
        },
        {
          "indexed": true,
          "name": "_tokenId",
          "type": "uint256"
        }
      ],
      "name": "Transfer",
      "type": "event",
      "signature": "0xaf6151f5085accf2d57e1e7bf7601d3b3982e0de7e9a90f032f8554de9c104f6"
    },
    {
      "anonymous": false,
      "inputs": [
        {
          "indexed": false,
          "name": "_id",
          "type": "uint256"
        },
        {
          "indexed": false,
          "name": "_constituencyId",
          "type": "uint256"
        }
      ],
      "name": "VoterCreated",
      "type": "event",
      "signature": "0xa3b64c0b425d624b0d6d9f67d76ababb5e56dc10ef01de027c343a09fefdfb5d"
    },
    {
      "anonymous": false,
      "inputs": [
        {
          "indexed": false,
          "name": "_id",
          "type": "uint256"
        }
      ],
      "name": "CandidateRegistered",
      "type": "event",
      "signature": "0x43dcee486fabffa2fb551555bfaa5bfcf6a42f2d014032ccef94bf09d83855eb"
    },
    {
      "anonymous": false,
      "inputs": [
        {
          "indexed": false,
          "name": "_id",
          "type": "uint256"
        }
      ],
      "name": "ConstituencyRegistered",
      "type": "event",
      "signature": "0x21db1a92fb8efb483c22a581ee7e282b6d79d9d43b559ee1affa341818867969"
    },
    {
      "anonymous": false,
      "inputs": [
        {
          "indexed": true,
          "name": "previousOwner",
          "type": "address"
        },
        {
          "indexed": true,
          "name": "newOwner",
          "type": "address"
        }
      ],
      "name": "OwnershipTransferred",
      "type": "event",
      "signature": "0x8be0079c531659141344cd1fd0a4f28419497f9722a3daafe3b4186f6b6457e0"
    },
    {
      "constant": false,
      "inputs": [
        {
          "name": "_id",
          "type": "uint256"
        },
        {
          "name": "_constituencyId",
          "type": "uint256"
        },
        {
          "name": "_adminId",
          "type": "uint256"
        }
      ],
      "name": "registerVoter",
      "outputs": [],
      "payable": false,
      "stateMutability": "nonpayable",
      "type": "function",
      "signature": "0x2ed58701"
    }
  ],
  "bytecode": "0x608060405260008060146101000a81548160ff021916908315150217905550336000806101000a81548173ffffffffffffffffffffffffffffffffffffffff021916908373ffffffffffffffffffffffffffffffffffffffff1602179055506000809054906101000a900473ffffffffffffffffffffffffffffffffffffffff1673ffffffffffffffffffffffffffffffffffffffff16600073ffffffffffffffffffffffffffffffffffffffff167f8be0079c531659141344cd1fd0a4f28419497f9722a3daafe3b4186f6b6457e060405160405180910390a360008060146101000a81548160ff021916908315150217905550611d07806101036000396000f3fe60806040526004361061015f576000357c0100000000000000000000000000000000000000000000000000000000900463ffffffff16806301aa2e03146101645780630f80dcb0146101a157806312d51c72146101e05780631471e0ab1461020957806314bfd6d01461024657806323dc5c6e1461028357806328975210146102ac5780632ed58701146102e95780632fd23a3f14610312578063310ed7f01461034f5780633477ee2e146103785780633b04a6c9146103b557806345dc9ad7146103f257806356be16581461042f57806357e2ef101461046c578063715018a6146104a95780637b013b94146104c05780638da5cb5b146104e95780638f32d59b146105145780639209416a1461053f578063948452541461057e578063aa3e4e1c146105a7578063bbc893a3146105d2578063da58c7d91461060f578063f2fde38b14610650578063f759006514610679578063f8c70571146106a2575b600080fd5b34801561017057600080fd5b5061018b6004803603610186919081019061182f565b6106e3565b6040516101989190611b26565b60405180910390f35b3480156101ad57600080fd5b506101c860048036036101c3919081019061182f565b6106fb565b6040516101d793929190611bbd565b60405180910390f35b3480156101ec57600080fd5b5061020760048036036102029190810190611894565b610725565b005b34801561021557600080fd5b50610230600480360361022b919081019061182f565b6107be565b60405161023d9190611b26565b60405180910390f35b34801561025257600080fd5b5061026d6004803603610268919081019061182f565b6107d6565b60405161027a9190611b26565b60405180910390f35b34801561028f57600080fd5b506102aa60048036036102a5919081019061182f565b6107f9565b005b3480156102b857600080fd5b506102d360048036036102ce919081019061182f565b610866565b6040516102e09190611ace565b60405180910390f35b3480156102f557600080fd5b50610310600480360361030b9190810190611894565b610995565b005b34801561031e57600080fd5b5061033960048036036103349190810190611858565b6109f3565b6040516103469190611b0b565b60405180910390f35b34801561035b57600080fd5b5061037660048036036103719190810190611894565b610a74565b005b34801561038457600080fd5b5061039f600480360361039a919081019061182f565b610b80565b6040516103ac9190611b26565b60405180910390f35b3480156103c157600080fd5b506103dc60048036036103d7919081019061182f565b610ba9565b6040516103e99190611b26565b60405180910390f35b3480156103fe57600080fd5b5061041960048036036104149190810190611858565b610bc1565b6040516104269190611bf4565b60405180910390f35b34801561043b57600080fd5b506104566004803603610451919081019061182f565b610c78565b6040516104639190611b26565b60405180910390f35b34801561047857600080fd5b50610493600480360361048e919081019061182f565b610c90565b6040516104a09190611b26565b60405180910390f35b3480156104b557600080fd5b506104be610cae565b005b3480156104cc57600080fd5b506104e760048036036104e291908101906117d7565b610d80565b005b3480156104f557600080fd5b506104fe610e11565b60405161050b9190611a91565b60405180910390f35b34801561052057600080fd5b50610529610e3a565b6040516105369190611af0565b60405180910390f35b34801561054b57600080fd5b506105666004803603610561919081019061182f565b610e91565b60405161057593929190611bbd565b60405180910390f35b34801561058a57600080fd5b506105a560048036036105a0919081019061182f565b610eca565b005b3480156105b357600080fd5b506105bc610f0c565b6040516105c99190611af0565b60405180910390f35b3480156105de57600080fd5b506105f960048036036105f49190810190611858565b610f1f565b6040516106069190611aac565b60405180910390f35b34801561061b57600080fd5b506106366004803603610631919081019061182f565b611056565b604051610647959493929190611b6a565b60405180910390f35b34801561065c57600080fd5b50610677600480360361067291908101906117ae565b6110bd565b005b34801561068557600080fd5b506106a0600480360361069b9190810190611894565b6110dc565b005b3480156106ae57600080fd5b506106c960048036036106c4919081019061182f565b61115a565b6040516106da959493929190611b6a565b60405180910390f35b60076020528060005260406000206000915090505481565b60036020528060005260406000206000915090508060000154908060010154908060020154905083565b8060008090505b600b805490508110156107b75781600b8281548110151561074957fe5b906000526020600020015414156107a45761076485846111b2565b83600560008781526020019081526020016000208190555060066000858152602001908152602001600020600081548092919060010191905055506107a9565b6107aa565b5b808060010191505061072c565b5050505050565b60056020528060005260406000206000915090505481565b600b818154811015156107e557fe5b906000526020600020016000915090505481565b8060008090505b600b805490508110156108615781600b8281548110151561081d57fe5b9060005260206000200154141561084e576001600060146101000a81548160ff021916908315150217905550610853565b610854565b5b8080600101915050610800565b505050565b60608160008090505b600b8054905081101561098e5781600b8281548110151561088c57fe5b9060005260206000200154141561097b576060600a805490506040519080825280602002602001820160405280156108de57816020015b6108cb6116ce565b8152602001906001900390816108c35790505b509050600080905060008090505b600a8054905081101561097057600a8181548110151561090857fe5b9060005260206000209060030201606060405190810160405290816000820154815260200160018201548152602001600282015481525050838381518110151561094e57fe5b90602001906020020181905250818060010192505080806001019150506108ec565b508194505050610980565b610981565b5b808060010191505061086f565b5050919050565b8060008090505b600b805490508110156109ec5781600b828154811015156109b957fe5b906000526020600020015414156109d9576109d485856112c2565b6109de565b6109df565b5b808060010191505061099c565b5050505050565b6109fb6116f0565b816000600160008381526020019081526020016000206000015414151515610a2257600080fd5b610a2a6116f0565b600360008681526020019081526020016000206060604051908101604052908160008201548152602001600182015481526020016002820154815250509050809250505092915050565b826000600160008381526020019081526020016000206000015414151515610a9b57600080fd5b60056000848152602001908152602001600020546001600086815260200190815260200160002060010154141515610ad257600080fd5b600060016000868152602001908152602001600020905060018160020160006101000a81548160ff02191690831515021790555042816003018190555083600460008781526020019081526020016000208190555060076000858152602001908152602001600020600081548092919060010191905055508284867faf6151f5085accf2d57e1e7bf7601d3b3982e0de7e9a90f032f8554de9c104f660405160405180910390a45050505050565b600981815481101515610b8f57fe5b906000526020600020016000915090508060000154905081565b60066020528060005260406000206000915090505481565b600060011515600060149054906101000a900460ff161515141515610be557600080fd5b816000600160008381526020019081526020016000206000015414151515610c0c57600080fd5b6060610c188585610f1f565b9050600080600090505b8251811015610c6b57600760008483815181101515610c3d57fe5b9060200190602002015160000151815260200190815260200160002054820191508080600101915050610c22565b5080935050505092915050565b60046020528060005260406000206000915090505481565b60026020528060005260406000206000915090508060000154905081565b610cb6610e3a565b1515610cc157600080fd5b600073ffffffffffffffffffffffffffffffffffffffff166000809054906101000a900473ffffffffffffffffffffffffffffffffffffffff1673ffffffffffffffffffffffffffffffffffffffff167f8be0079c531659141344cd1fd0a4f28419497f9722a3daafe3b4186f6b6457e060405160405180910390a360008060006101000a81548173ffffffffffffffffffffffffffffffffffffffff021916908373ffffffffffffffffffffffffffffffffffffffff160217905550565b8060008090505b600b80549050811015610e0a5781600b82815481101515610da457fe5b90600052602060002001541415610df75760008090505b85859050811015610df157610de48686838181101515610dd757fe5b905060200201358561145b565b8080600101915050610dbb565b50610dfc565b610dfd565b5b8080600101915050610d87565b5050505050565b60008060009054906101000a900473ffffffffffffffffffffffffffffffffffffffff16905090565b60008060009054906101000a900473ffffffffffffffffffffffffffffffffffffffff1673ffffffffffffffffffffffffffffffffffffffff163373ffffffffffffffffffffffffffffffffffffffff1614905090565b600a81815481101515610ea057fe5b90600052602060002090600302016000915090508060000154908060010154908060020154905083565b610ed2610e3a565b1515610edd57600080fd5b600b81908060018154018082558091505090600182039060005260206000200160009091929091909150555050565b600060149054906101000a900460ff1681565b6060816000600160008381526020019081526020016000206000015414151515610f4857600080fd5b60606006600086815260200190815260200160002054604051908082528060200260200182016040528015610f9757816020015b610f84611712565b815260200190600190039081610f7c5790505b509050600080905060008090505b600980549050811015611049578660056000600984815481101515610fc657fe5b9060005260206000200160000154815260200190815260200160002054141561103c57600981815481101515610ff857fe5b9060005260206000200160206040519081016040529081600082015481525050838381518110151561102657fe5b9060200190602002018190525081806001019250505b8080600101915050610fa5565b5081935050505092915050565b60088181548110151561106557fe5b90600052602060002090600502016000915090508060000154908060010154908060020160009054906101000a900460ff16908060030154908060040160206040519081016040529081600082015481525050905085565b6110c5610e3a565b15156110d057600080fd5b6110d9816115a9565b50565b8060008090505b600b805490508110156111535781600b8281548110151561110057fe5b9060005260206000200154141561114057600060036000878152602001908152602001600020905042816001018190555084816002018190555050611145565b611146565b5b80806001019150506110e3565b5050505050565b60016020528060005260406000206000915090508060000154908060010154908060020160009054906101000a900460ff16908060030154908060040160206040519081016040529081600082015481525050905085565b8060008090505b600b805490508110156112bc5781600b828154811015156111d657fe5b906000526020600020015414156112a9576000600160096020604051908101604052808881525090806001815401808255809150509060018203906000526020600020016000909192909190915060008201518160000155505003905060098181548110151561124257fe5b9060005260206000200160026000878152602001908152602001600020600082015481600001559050507f43dcee486fabffa2fb551555bfaa5bfcf6a42f2d014032ccef94bf09d83855eb8560405161129b9190611b26565b60405180910390a1506112ae565b6112af565b5b80806001019150506111b9565b50505050565b6112ca611726565b6112d3836116a3565b905060006001600860a060405190810160405280878152602001868152602001600015158152602001600081526020018581525090806001815401808255809150509060018203906000526020600020906005020160009091929091909150600082015181600001556020820151816001015560408201518160020160006101000a81548160ff02191690831515021790555060608201518160030155608082015181600401600082015181600001555050505003905060088181548110151561139957fe5b90600052602060002090600502016001600086815260200190815260200160002060008201548160000155600182015481600101556002820160009054906101000a900460ff168160020160006101000a81548160ff0219169083151502179055506003820154816003015560048201816004016000820154816000015550509050507fa3b64c0b425d624b0d6d9f67d76ababb5e56dc10ef01de027c343a09fefdfb5d848460405161144d929190611b41565b60405180910390a150505050565b8060008090505b600b805490508110156115a35781600b8281548110151561147f57fe5b906000526020600020015414156115905760006001600a606060405190810160405280888152602001600081526020016000815250908060018154018082558091505090600182039060005260206000209060030201600090919290919091506000820151816000015560208201518160010155604082015181600201555050039050600a8181548110151561151157fe5b9060005260206000209060030201600360008781526020019081526020016000206000820154816000015560018201548160010155600282015481600201559050507f21db1a92fb8efb483c22a581ee7e282b6d79d9d43b559ee1affa341818867969856040516115829190611b26565b60405180910390a150611595565b611596565b5b8080600101915050611462565b50505050565b600073ffffffffffffffffffffffffffffffffffffffff168173ffffffffffffffffffffffffffffffffffffffff16141515156115e557600080fd5b8073ffffffffffffffffffffffffffffffffffffffff166000809054906101000a900473ffffffffffffffffffffffffffffffffffffffff1673ffffffffffffffffffffffffffffffffffffffff167f8be0079c531659141344cd1fd0a4f28419497f9722a3daafe3b4186f6b6457e060405160405180910390a3806000806101000a81548173ffffffffffffffffffffffffffffffffffffffff021916908373ffffffffffffffffffffffffffffffffffffffff16021790555050565b6116ab611726565b6116b3611726565b60206040519081016040528084815250905080915050919050565b6060604051908101604052806000815260200160008152602001600081525090565b6060604051908101604052806000815260200160008152602001600081525090565b602060405190810160405280600081525090565b602060405190810160405280600081525090565b60006117468235611cb1565b905092915050565b60008083601f840112151561176257600080fd5b8235905067ffffffffffffffff81111561177b57600080fd5b60208301915083602082028301111561179357600080fd5b9250929050565b60006117a68235611cc3565b905092915050565b6000602082840312156117c057600080fd5b60006117ce8482850161173a565b91505092915050565b6000806000604084860312156117ec57600080fd5b600084013567ffffffffffffffff81111561180657600080fd5b6118128682870161174e565b935093505060206118258682870161179a565b9150509250925092565b60006020828403121561184157600080fd5b600061184f8482850161179a565b91505092915050565b6000806040838503121561186b57600080fd5b60006118798582860161179a565b925050602061188a8582860161179a565b9150509250929050565b6000806000606084860312156118a957600080fd5b60006118b78682870161179a565b93505060206118c88682870161179a565b92505060406118d98682870161179a565b9150509250925092565b6118ec81611c59565b82525050565b60006118fd82611c29565b80845260208401935061190f83611c0f565b60005b82811015611941576119258683516119b7565b61192e82611c3f565b9150602086019550600181019050611912565b50849250505092915050565b600061195882611c34565b80845260208401935061196a83611c1c565b60005b8281101561199c57611980868351611a15565b61198982611c4c565b915060608601955060018101905061196d565b50849250505092915050565b6119b181611c6b565b82525050565b6020820160008201516119cd6000850182611a73565b50505050565b6060820160008201516119e96000850182611a73565b5060208201516119fc6020850182611a73565b506040820151611a0f6040850182611a73565b50505050565b606082016000820151611a2b6000850182611a73565b506020820151611a3e6020850182611a73565b506040820151611a516040850182611a73565b50505050565b602082016000820151611a6d6000850182611a73565b50505050565b611a7c81611c97565b82525050565b611a8b81611ca1565b82525050565b6000602082019050611aa660008301846118e3565b92915050565b60006020820190508181036000830152611ac681846118f2565b905092915050565b60006020820190508181036000830152611ae8818461194d565b905092915050565b6000602082019050611b0560008301846119a8565b92915050565b6000606082019050611b2060008301846119d3565b92915050565b6000602082019050611b3b6000830184611a73565b92915050565b6000604082019050611b566000830185611a73565b611b636020830184611a73565b9392505050565b600060a082019050611b7f6000830188611a73565b611b8c6020830187611a73565b611b9960408301866119a8565b611ba66060830185611a73565b611bb36080830184611a57565b9695505050505050565b6000606082019050611bd26000830186611a73565b611bdf6020830185611a73565b611bec6040830184611a73565b949350505050565b6000602082019050611c096000830184611a82565b92915050565b6000602082019050919050565b6000602082019050919050565b600081519050919050565b600081519050919050565b6000602082019050919050565b6000602082019050919050565b6000611c6482611c77565b9050919050565b60008115159050919050565b600073ffffffffffffffffffffffffffffffffffffffff82169050919050565b6000819050919050565b600063ffffffff82169050919050565b6000611cbc82611c77565b9050919050565b600081905091905056fea265627a7a7230582001ab5e9e0fee865f69b09f510aa7fc9ab4660ca8d6928450bd5294bd436afc8d6c6578706572696d656e74616cf50037",
  "source": "pragma solidity ^0.5.0;\npragma experimental ABIEncoderV2;\nimport './ResultHelper.sol';\n\ncontract Authorizer is ResultHelper {\n    \n    function registerVoter(uint256 _id, uint256 _constituencyId, uint256 _adminId) external onlyAdmin(_adminId) {\n        createVoter(_id, _constituencyId);\n    }\n}",
  "sourcePath": "/home/d3mon/Projects/sudo-rm--rf/contracts/Authorizer.sol",
  "compiler": {
    "name": "solc",
    "version": "0.5.0+commit.1d4f565a.Emscripten.clang"
  },
  "schemaVersion": "3.0.2",
  "updatedAt": "2020-02-04T12:10:05.377Z",
  "devdoc": {
    "methods": {
      "isOwner()": {
        "return": "true if `msg.sender` is the owner of the contract."
      },
      "owner()": {
        "return": "the address of the owner."
      },
      "renounceOwnership()": {
        "details": "Allows the current owner to relinquish control of the contract."
      },
      "transferOwnership(address)": {
        "details": "Allows the current owner to transfer control of the contract to a newOwner.",
        "params": {
          "newOwner": "The address to transfer ownership to."
        }
      }
    }
  },
  "userdoc": {
    "methods": {
      "renounceOwnership()": {
        "notice": "Renouncing to ownership will leave the contract without an owner. It will not be possible to call the functions with the `onlyOwner` modifier anymore."
      }
    }
  }
}