{
  "contractName": "Authorizer",
  "abi": [
    {
      "constant": true,
      "inputs": [
        {
          "name": "",
          "type": "uint256"
        }
      ],
      "name": "candidateVoteCount",
      "outputs": [
        {
          "name": "",
          "type": "uint256"
        }
      ],
      "payable": false,
      "stateMutability": "view",
      "type": "function",
      "signature": "0x01aa2e03"
    },
    {
      "constant": true,
      "inputs": [
        {
          "name": "",
          "type": "uint256"
        }
      ],
      "name": "idToConstituency",
      "outputs": [
        {
          "name": "_id",
          "type": "uint256"
        },
        {
          "name": "_startTime",
          "type": "uint256"
        },
        {
          "name": "_duration",
          "type": "uint256"
        }
      ],
      "payable": false,
      "stateMutability": "view",
      "type": "function",
      "signature": "0x0f80dcb0"
    },
    {
      "constant": false,
      "inputs": [
        {
          "name": "_id",
          "type": "uint256"
        },
        {
          "name": "_constituencyId",
          "type": "uint256"
        },
        {
          "name": "_adminId",
          "type": "uint256"
        }
      ],
      "name": "assignCandidateToConstituency",
      "outputs": [],
      "payable": false,
      "stateMutability": "nonpayable",
      "type": "function",
      "signature": "0x12d51c72"
    },
    {
      "constant": true,
      "inputs": [
        {
          "name": "",
          "type": "uint256"
        }
      ],
      "name": "candidateToConstituency",
      "outputs": [
        {
          "name": "",
          "type": "uint256"
        }
      ],
      "payable": false,
      "stateMutability": "view",
      "type": "function",
      "signature": "0x1471e0ab"
    },
    {
      "constant": true,
      "inputs": [
        {
          "name": "",
          "type": "uint256"
        }
      ],
      "name": "admins",
      "outputs": [
        {
          "name": "",
          "type": "uint256"
        }
      ],
      "payable": false,
      "stateMutability": "view",
      "type": "function",
      "signature": "0x14bfd6d0"
    },
    {
      "constant": false,
      "inputs": [
        {
          "name": "_adminId",
          "type": "uint256"
        }
      ],
      "name": "declareResults",
      "outputs": [],
      "payable": false,
      "stateMutability": "nonpayable",
      "type": "function",
      "signature": "0x23dc5c6e"
    },
    {
      "constant": false,
      "inputs": [
        {
          "name": "_adminId",
          "type": "uint256"
        }
      ],
      "name": "getConstituencies",
      "outputs": [
        {
          "components": [
            {
              "name": "_id",
              "type": "uint256"
            },
            {
              "name": "_startTime",
              "type": "uint256"
            },
            {
              "name": "_duration",
              "type": "uint256"
            }
          ],
          "name": "",
          "type": "tuple[]"
        }
      ],
      "payable": false,
      "stateMutability": "nonpayable",
      "type": "function",
      "signature": "0x28975210"
    },
    {
      "constant": false,
      "inputs": [
        {
          "name": "_id",
          "type": "uint256"
        },
        {
          "name": "_userId",
          "type": "uint256"
        }
      ],
      "name": "getConstituencyDetails",
      "outputs": [
        {
          "components": [
            {
              "name": "_id",
              "type": "uint256"
            },
            {
              "name": "_startTime",
              "type": "uint256"
            },
            {
              "name": "_duration",
              "type": "uint256"
            }
          ],
          "name": "",
          "type": "tuple"
        }
      ],
      "payable": false,
      "stateMutability": "nonpayable",
      "type": "function",
      "signature": "0x2fd23a3f"
    },
    {
      "constant": false,
      "inputs": [
        {
          "name": "from",
          "type": "uint256"
        },
        {
          "name": "to",
          "type": "uint256"
        },
        {
          "name": "tokenId",
          "type": "uint256"
        }
      ],
      "name": "transferFrom",
      "outputs": [],
      "payable": false,
      "stateMutability": "nonpayable",
      "type": "function",
      "signature": "0x310ed7f0"
    },
    {
      "constant": true,
      "inputs": [
        {
          "name": "",
          "type": "uint256"
        }
      ],
      "name": "candidates",
      "outputs": [
        {
          "name": "_id",
          "type": "uint256"
        }
      ],
      "payable": false,
      "stateMutability": "view",
      "type": "function",
      "signature": "0x3477ee2e"
    },
    {
      "constant": false,
      "inputs": [
        {
          "name": "_id",
          "type": "uint256"
        },
        {
          "name": "_adminId",
          "type": "uint256"
        }
      ],
      "name": "registerConstituency",
      "outputs": [],
      "payable": false,
      "stateMutability": "nonpayable",
      "type": "function",
      "signature": "0x3acab52f"
    },
    {
      "constant": true,
      "inputs": [
        {
          "name": "",
          "type": "uint256"
        }
      ],
      "name": "constituencyCandidateCount",
      "outputs": [
        {
          "name": "",
          "type": "uint256"
        }
      ],
      "payable": false,
      "stateMutability": "view",
      "type": "function",
      "signature": "0x3b04a6c9"
    },
    {
      "constant": true,
      "inputs": [
        {
          "name": "_constituencyId",
          "type": "uint256"
        },
        {
          "name": "_userId",
          "type": "uint256"
        }
      ],
      "name": "retreiveConstituencyVoteCount",
      "outputs": [
        {
          "name": "",
          "type": "uint32"
        }
      ],
      "payable": false,
      "stateMutability": "view",
      "type": "function",
      "signature": "0x45dc9ad7"
    },
    {
      "constant": true,
      "inputs": [
        {
          "name": "",
          "type": "uint256"
        }
      ],
      "name": "voteToCandidate",
      "outputs": [
        {
          "name": "",
          "type": "uint256"
        }
      ],
      "payable": false,
      "stateMutability": "view",
      "type": "function",
      "signature": "0x56be1658"
    },
    {
      "constant": true,
      "inputs": [
        {
          "name": "",
          "type": "uint256"
        }
      ],
      "name": "idToCandidate",
      "outputs": [
        {
          "name": "_id",
          "type": "uint256"
        }
      ],
      "payable": false,
      "stateMutability": "view",
      "type": "function",
      "signature": "0x57e2ef10"
    },
    {
      "constant": false,
      "inputs": [
        {
          "name": "_id",
          "type": "uint256"
        },
        {
          "name": "_adminId",
          "type": "uint256"
        }
      ],
      "name": "registerCandidate",
      "outputs": [],
      "payable": false,
      "stateMutability": "nonpayable",
      "type": "function",
      "signature": "0x5d6e5052"
    },
    {
      "constant": false,
      "inputs": [],
      "name": "renounceOwnership",
      "outputs": [],
      "payable": false,
      "stateMutability": "nonpayable",
      "type": "function",
      "signature": "0x715018a6"
    },
    {
      "constant": false,
      "inputs": [
        {
          "name": "_constituencies",
          "type": "uint256[]"
        },
        {
          "name": "_adminId",
          "type": "uint256"
        }
      ],
      "name": "registerConstituencies",
      "outputs": [],
      "payable": false,
      "stateMutability": "nonpayable",
      "type": "function",
      "signature": "0x7b013b94"
    },
    {
      "constant": true,
      "inputs": [],
      "name": "owner",
      "outputs": [
        {
          "name": "",
          "type": "address"
        }
      ],
      "payable": false,
      "stateMutability": "view",
      "type": "function",
      "signature": "0x8da5cb5b"
    },
    {
      "constant": true,
      "inputs": [],
      "name": "isOwner",
      "outputs": [
        {
          "name": "",
          "type": "bool"
        }
      ],
      "payable": false,
      "stateMutability": "view",
      "type": "function",
      "signature": "0x8f32d59b"
    },
    {
      "constant": true,
      "inputs": [
        {
          "name": "",
          "type": "uint256"
        }
      ],
      "name": "constituencies",
      "outputs": [
        {
          "name": "_id",
          "type": "uint256"
        },
        {
          "name": "_startTime",
          "type": "uint256"
        },
        {
          "name": "_duration",
          "type": "uint256"
        }
      ],
      "payable": false,
      "stateMutability": "view",
      "type": "function",
      "signature": "0x9209416a"
    },
    {
      "constant": false,
      "inputs": [
        {
          "name": "_id",
          "type": "uint256"
        }
      ],
      "name": "registerAdmin",
      "outputs": [],
      "payable": false,
      "stateMutability": "nonpayable",
      "type": "function",
      "signature": "0x94845254"
    },
    {
      "constant": true,
      "inputs": [],
      "name": "ResultsDeclared",
      "outputs": [
        {
          "name": "",
          "type": "bool"
        }
      ],
      "payable": false,
      "stateMutability": "view",
      "type": "function",
      "signature": "0xaa3e4e1c"
    },
    {
      "constant": true,
      "inputs": [
        {
          "name": "_constituencyId",
          "type": "uint256"
        },
        {
          "name": "_userId",
          "type": "uint256"
        }
      ],
      "name": "getCandidatesByConstituency",
      "outputs": [
        {
          "components": [
            {
              "name": "_id",
              "type": "uint256"
            }
          ],
          "name": "",
          "type": "tuple[]"
        }
      ],
      "payable": false,
      "stateMutability": "view",
      "type": "function",
      "signature": "0xbbc893a3"
    },
    {
      "constant": true,
      "inputs": [
        {
          "name": "",
          "type": "uint256"
        }
      ],
      "name": "voters",
      "outputs": [
        {
          "name": "_id",
          "type": "uint256"
        },
        {
          "name": "_constituencyId",
          "type": "uint256"
        },
        {
          "name": "_hasVoted",
          "type": "bool"
        },
        {
          "name": "_voteTime",
          "type": "uint256"
        },
        {
          "components": [
            {
              "name": "_voteId",
              "type": "uint256"
            }
          ],
          "name": "_vote",
          "type": "tuple"
        }
      ],
      "payable": false,
      "stateMutability": "view",
      "type": "function",
      "signature": "0xda58c7d9"
    },
    {
      "constant": false,
      "inputs": [
        {
          "name": "newOwner",
          "type": "address"
        }
      ],
      "name": "transferOwnership",
      "outputs": [],
      "payable": false,
      "stateMutability": "nonpayable",
      "type": "function",
      "signature": "0xf2fde38b"
    },
    {
      "constant": false,
      "inputs": [
        {
          "name": "_id",
          "type": "uint256"
        },
        {
          "name": "_duration",
          "type": "uint256"
        },
        {
          "name": "_adminId",
          "type": "uint256"
        }
      ],
      "name": "generateElectionforConstituency",
      "outputs": [],
      "payable": false,
      "stateMutability": "nonpayable",
      "type": "function",
      "signature": "0xf7590065"
    },
    {
      "constant": true,
      "inputs": [
        {
          "name": "",
          "type": "uint256"
        }
      ],
      "name": "idToVoter",
      "outputs": [
        {
          "name": "_id",
          "type": "uint256"
        },
        {
          "name": "_constituencyId",
          "type": "uint256"
        },
        {
          "name": "_hasVoted",
          "type": "bool"
        },
        {
          "name": "_voteTime",
          "type": "uint256"
        },
        {
          "components": [
            {
              "name": "_voteId",
              "type": "uint256"
            }
          ],
          "name": "_vote",
          "type": "tuple"
        }
      ],
      "payable": false,
      "stateMutability": "view",
      "type": "function",
      "signature": "0xf8c70571"
    },
    {
      "anonymous": false,
      "inputs": [
        {
          "components": [
            {
              "name": "_id",
              "type": "uint256"
            },
            {
              "name": "_constituencyId",
              "type": "uint256"
            },
            {
              "name": "_hasVoted",
              "type": "bool"
            },
            {
              "name": "_voteTime",
              "type": "uint256"
            },
            {
              "components": [
                {
                  "name": "_voteId",
                  "type": "uint256"
                }
              ],
              "name": "_vote",
              "type": "tuple"
            }
          ],
          "indexed": false,
          "name": "_voter",
          "type": "tuple"
        }
      ],
      "name": "loginVoterInfo",
      "type": "event",
      "signature": "0x9936d23931256a4366149b8144968f95deb7e4c4cd50694a7c4691ce8d560415"
    },
    {
      "anonymous": false,
      "inputs": [
        {
          "indexed": true,
          "name": "_from",
          "type": "uint256"
        },
        {
          "indexed": true,
          "name": "_to",
          "type": "uint256"
        },
        {
          "indexed": true,
          "name": "_tokenId",
          "type": "uint256"
        }
      ],
      "name": "Transfer",
      "type": "event",
      "signature": "0xaf6151f5085accf2d57e1e7bf7601d3b3982e0de7e9a90f032f8554de9c104f6"
    },
    {
      "anonymous": false,
      "inputs": [
        {
          "indexed": false,
          "name": "_id",
          "type": "uint256"
        },
        {
          "indexed": false,
          "name": "_constituencyId",
          "type": "uint256"
        }
      ],
      "name": "VoterCreated",
      "type": "event",
      "signature": "0xa3b64c0b425d624b0d6d9f67d76ababb5e56dc10ef01de027c343a09fefdfb5d"
    },
    {
      "anonymous": false,
      "inputs": [
        {
          "indexed": false,
          "name": "_id",
          "type": "uint256"
        }
      ],
      "name": "CandidateRegistered",
      "type": "event",
      "signature": "0x43dcee486fabffa2fb551555bfaa5bfcf6a42f2d014032ccef94bf09d83855eb"
    },
    {
      "anonymous": false,
      "inputs": [
        {
          "indexed": false,
          "name": "_id",
          "type": "uint256"
        }
      ],
      "name": "ConstituencyRegistered",
      "type": "event",
      "signature": "0x21db1a92fb8efb483c22a581ee7e282b6d79d9d43b559ee1affa341818867969"
    },
    {
      "anonymous": false,
      "inputs": [
        {
          "indexed": true,
          "name": "previousOwner",
          "type": "address"
        },
        {
          "indexed": true,
          "name": "newOwner",
          "type": "address"
        }
      ],
      "name": "OwnershipTransferred",
      "type": "event",
      "signature": "0x8be0079c531659141344cd1fd0a4f28419497f9722a3daafe3b4186f6b6457e0"
    },
    {
      "constant": false,
      "inputs": [
        {
          "name": "_id",
          "type": "uint256"
        },
        {
          "name": "_constituencyId",
          "type": "uint256"
        },
        {
          "name": "_adminId",
          "type": "uint256"
        }
      ],
      "name": "registerVoter",
      "outputs": [],
      "payable": false,
      "stateMutability": "nonpayable",
      "type": "function",
      "signature": "0x2ed58701"
    },
    {
      "constant": false,
      "inputs": [
        {
          "name": "_id",
          "type": "uint256"
        }
      ],
      "name": "loginVoter",
      "outputs": [
        {
          "components": [
            {
              "name": "_id",
              "type": "uint256"
            },
            {
              "name": "_constituencyId",
              "type": "uint256"
            },
            {
              "name": "_hasVoted",
              "type": "bool"
            },
            {
              "name": "_voteTime",
              "type": "uint256"
            },
            {
              "components": [
                {
                  "name": "_voteId",
                  "type": "uint256"
                }
              ],
              "name": "_vote",
              "type": "tuple"
            }
          ],
          "name": "",
          "type": "tuple"
        }
      ],
      "payable": false,
      "stateMutability": "nonpayable",
      "type": "function",
      "signature": "0x52d2ec93"
    }
  ],
  "bytecode": "0x608060405260008060146101000a81548160ff021916908315150217905550336000806101000a81548173ffffffffffffffffffffffffffffffffffffffff021916908373ffffffffffffffffffffffffffffffffffffffff1602179055506000809054906101000a900473ffffffffffffffffffffffffffffffffffffffff1673ffffffffffffffffffffffffffffffffffffffff16600073ffffffffffffffffffffffffffffffffffffffff167f8be0079c531659141344cd1fd0a4f28419497f9722a3daafe3b4186f6b6457e060405160405180910390a360008060146101000a81548160ff021916908315150217905550611f6d806101036000396000f3fe608060405260043610610180576000357c0100000000000000000000000000000000000000000000000000000000900463ffffffff16806301aa2e03146101855780630f80dcb0146101c257806312d51c72146102015780631471e0ab1461022a57806314bfd6d01461026757806323dc5c6e146102a457806328975210146102cd5780632ed587011461030a5780632fd23a3f14610333578063310ed7f0146103705780633477ee2e146103995780633acab52f146103d65780633b04a6c9146103ff57806345dc9ad71461043c57806352d2ec931461047957806356be1658146104b657806357e2ef10146104f35780635d6e505214610530578063715018a6146105595780637b013b94146105705780638da5cb5b146105995780638f32d59b146105c45780639209416a146105ef578063948452541461062e578063aa3e4e1c14610657578063bbc893a314610682578063da58c7d9146106bf578063f2fde38b14610700578063f759006514610729578063f8c7057114610752575b600080fd5b34801561019157600080fd5b506101ac60048036036101a79190810190611a12565b610793565b6040516101b99190611d8c565b60405180910390f35b3480156101ce57600080fd5b506101e960048036036101e49190810190611a12565b6107ab565b6040516101f893929190611e23565b60405180910390f35b34801561020d57600080fd5b5061022860048036036102239190810190611a77565b6107d5565b005b34801561023657600080fd5b50610251600480360361024c9190810190611a12565b610864565b60405161025e9190611d8c565b60405180910390f35b34801561027357600080fd5b5061028e60048036036102899190810190611a12565b61087c565b60405161029b9190611d8c565b60405180910390f35b3480156102b057600080fd5b506102cb60048036036102c69190810190611a12565b61089f565b005b3480156102d957600080fd5b506102f460048036036102ef9190810190611a12565b61090c565b6040516103019190611d19565b60405180910390f35b34801561031657600080fd5b50610331600480360361032c9190810190611a77565b610a3b565b005b34801561033f57600080fd5b5061035a60048036036103559190810190611a3b565b610a99565b6040516103679190611d56565b60405180910390f35b34801561037c57600080fd5b5061039760048036036103929190810190611a77565b610b1a565b005b3480156103a557600080fd5b506103c060048036036103bb9190810190611a12565b610c26565b6040516103cd9190611d8c565b60405180910390f35b3480156103e257600080fd5b506103fd60048036036103f89190810190611a3b565b610c4f565b005b34801561040b57600080fd5b5061042660048036036104219190810190611a12565b610d9d565b6040516104339190611d8c565b60405180910390f35b34801561044857600080fd5b50610463600480360361045e9190810190611a3b565b610db5565b6040516104709190611e5a565b60405180910390f35b34801561048557600080fd5b506104a0600480360361049b9190810190611a12565b610e6c565b6040516104ad9190611d71565b60405180910390f35b3480156104c257600080fd5b506104dd60048036036104d89190810190611a12565b610f5d565b6040516104ea9190611d8c565b60405180910390f35b3480156104ff57600080fd5b5061051a60048036036105159190810190611a12565b610f75565b6040516105279190611d8c565b60405180910390f35b34801561053c57600080fd5b5061055760048036036105529190810190611a3b565b610f93565b005b34801561056557600080fd5b5061056e6110a3565b005b34801561057c57600080fd5b50610597600480360361059291908101906119ba565b611175565b005b3480156105a557600080fd5b506105ae611206565b6040516105bb9190611cdc565b60405180910390f35b3480156105d057600080fd5b506105d961122f565b6040516105e69190611d3b565b60405180910390f35b3480156105fb57600080fd5b5061061660048036036106119190810190611a12565b611286565b60405161062593929190611e23565b60405180910390f35b34801561063a57600080fd5b5061065560048036036106509190810190611a12565b6112bf565b005b34801561066357600080fd5b5061066c611301565b6040516106799190611d3b565b60405180910390f35b34801561068e57600080fd5b506106a960048036036106a49190810190611a3b565b611314565b6040516106b69190611cf7565b60405180910390f35b3480156106cb57600080fd5b506106e660048036036106e19190810190611a12565b61144b565b6040516106f7959493929190611dd0565b60405180910390f35b34801561070c57600080fd5b5061072760048036036107229190810190611991565b6114b2565b005b34801561073557600080fd5b50610750600480360361074b9190810190611a77565b6114d1565b005b34801561075e57600080fd5b5061077960048036036107749190810190611a12565b61154f565b60405161078a959493929190611dd0565b60405180910390f35b60076020528060005260406000206000915090505481565b60036020528060005260406000206000915090508060000154908060010154908060020154905083565b8060008090505b600b8054905081101561085d5781600b828154811015156107f957fe5b9060005260206000200154141561084a57836005600087815260200190815260200160002081905550600660008581526020019081526020016000206000815480929190600101919050555061084f565b610850565b5b80806001019150506107dc565b5050505050565b60056020528060005260406000206000915090505481565b600b8181548110151561088b57fe5b906000526020600020016000915090505481565b8060008090505b600b805490508110156109075781600b828154811015156108c357fe5b906000526020600020015414156108f4576001600060146101000a81548160ff0219169083151502179055506108f9565b6108fa565b5b80806001019150506108a6565b505050565b60608160008090505b600b80549050811015610a345781600b8281548110151561093257fe5b90600052602060002001541415610a21576060600a8054905060405190808252806020026020018201604052801561098457816020015b610971611865565b8152602001906001900390816109695790505b509050600080905060008090505b600a80549050811015610a1657600a818154811015156109ae57fe5b906000526020600020906003020160606040519081016040529081600082015481526020016001820154815260200160028201548152505083838151811015156109f457fe5b9060200190602002018190525081806001019250508080600101915050610992565b508194505050610a26565b610a27565b5b8080600101915050610915565b5050919050565b8060008090505b600b80549050811015610a925781600b82815481101515610a5f57fe5b90600052602060002001541415610a7f57610a7a85856115a7565b610a84565b610a85565b5b8080600101915050610a42565b5050505050565b610aa1611887565b816000600160008381526020019081526020016000206000015414151515610ac857600080fd5b610ad0611887565b600360008681526020019081526020016000206060604051908101604052908160008201548152602001600182015481526020016002820154815250509050809250505092915050565b826000600160008381526020019081526020016000206000015414151515610b4157600080fd5b60056000848152602001908152602001600020546001600086815260200190815260200160002060010154141515610b7857600080fd5b600060016000868152602001908152602001600020905060018160020160006101000a81548160ff02191690831515021790555042816003018190555083600460008781526020019081526020016000208190555060076000858152602001908152602001600020600081548092919060010191905055508284867faf6151f5085accf2d57e1e7bf7601d3b3982e0de7e9a90f032f8554de9c104f660405160405180910390a45050505050565b600981815481101515610c3557fe5b906000526020600020016000915090508060000154905081565b8060008090505b600b80549050811015610d975781600b82815481101515610c7357fe5b90600052602060002001541415610d845760006001600a606060405190810160405280888152602001600081526020016000815250908060018154018082558091505090600182039060005260206000209060030201600090919290919091506000820151816000015560208201518160010155604082015181600201555050039050600a81815481101515610d0557fe5b9060005260206000209060030201600360008781526020019081526020016000206000820154816000015560018201548160010155600282015481600201559050507f21db1a92fb8efb483c22a581ee7e282b6d79d9d43b559ee1affa34181886796985604051610d769190611d8c565b60405180910390a150610d89565b610d8a565b5b8080600101915050610c56565b50505050565b60066020528060005260406000206000915090505481565b600060011515600060149054906101000a900460ff161515141515610dd957600080fd5b816000600160008381526020019081526020016000206000015414151515610e0057600080fd5b6060610e0c8585611314565b9050600080600090505b8251811015610e5f57600760008483815181101515610e3157fe5b9060200190602002015160000151815260200190815260200160002054820191508080600101915050610e16565b5080935050505092915050565b610e746118a9565b816000600160008381526020019081526020016000206000015414151515610e9b57600080fd5b610ea36118a9565b6001600085815260200190815260200160002060a0604051908101604052908160008201548152602001600182015481526020016002820160009054906101000a900460ff161515151581526020016003820154815260200160048201602060405190810160405290816000820154815250508152505090507f9936d23931256a4366149b8144968f95deb7e4c4cd50694a7c4691ce8d56041581604051610f4b9190611d71565b60405180910390a18092505050919050565b60046020528060005260406000206000915090505481565b60026020528060005260406000206000915090508060000154905081565b8060008090505b600b8054905081101561109d5781600b82815481101515610fb757fe5b9060005260206000200154141561108a576000600160096020604051908101604052808881525090806001815401808255809150509060018203906000526020600020016000909192909190915060008201518160000155505003905060098181548110151561102357fe5b9060005260206000200160026000878152602001908152602001600020600082015481600001559050507f43dcee486fabffa2fb551555bfaa5bfcf6a42f2d014032ccef94bf09d83855eb8560405161107c9190611d8c565b60405180910390a15061108f565b611090565b5b8080600101915050610f9a565b50505050565b6110ab61122f565b15156110b657600080fd5b600073ffffffffffffffffffffffffffffffffffffffff166000809054906101000a900473ffffffffffffffffffffffffffffffffffffffff1673ffffffffffffffffffffffffffffffffffffffff167f8be0079c531659141344cd1fd0a4f28419497f9722a3daafe3b4186f6b6457e060405160405180910390a360008060006101000a81548173ffffffffffffffffffffffffffffffffffffffff021916908373ffffffffffffffffffffffffffffffffffffffff160217905550565b8060008090505b600b805490508110156111ff5781600b8281548110151561119957fe5b906000526020600020015414156111ec5760008090505b858590508110156111e6576111d986868381811015156111cc57fe5b9050602002013585610c4f565b80806001019150506111b0565b506111f1565b6111f2565b5b808060010191505061117c565b5050505050565b60008060009054906101000a900473ffffffffffffffffffffffffffffffffffffffff16905090565b60008060009054906101000a900473ffffffffffffffffffffffffffffffffffffffff1673ffffffffffffffffffffffffffffffffffffffff163373ffffffffffffffffffffffffffffffffffffffff1614905090565b600a8181548110151561129557fe5b90600052602060002090600302016000915090508060000154908060010154908060020154905083565b6112c761122f565b15156112d257600080fd5b600b81908060018154018082558091505090600182039060005260206000200160009091929091909150555050565b600060149054906101000a900460ff1681565b606081600060016000838152602001908152602001600020600001541415151561133d57600080fd5b6060600660008681526020019081526020016000205460405190808252806020026020018201604052801561138c57816020015b6113796118e1565b8152602001906001900390816113715790505b509050600080905060008090505b60098054905081101561143e5786600560006009848154811015156113bb57fe5b90600052602060002001600001548152602001908152602001600020541415611431576009818154811015156113ed57fe5b9060005260206000200160206040519081016040529081600082015481525050838381518110151561141b57fe5b9060200190602002018190525081806001019250505b808060010191505061139a565b5081935050505092915050565b60088181548110151561145a57fe5b90600052602060002090600502016000915090508060000154908060010154908060020160009054906101000a900460ff16908060030154908060040160206040519081016040529081600082015481525050905085565b6114ba61122f565b15156114c557600080fd5b6114ce81611740565b50565b8060008090505b600b805490508110156115485781600b828154811015156114f557fe5b906000526020600020015414156115355760006003600087815260200190815260200160002090504281600101819055508481600201819055505061153a565b61153b565b5b80806001019150506114d8565b5050505050565b60016020528060005260406000206000915090508060000154908060010154908060020160009054906101000a900460ff16908060030154908060040160206040519081016040529081600082015481525050905085565b6115af6118f5565b6115b88361183a565b905060006001600860a060405190810160405280878152602001868152602001600015158152602001600081526020018581525090806001815401808255809150509060018203906000526020600020906005020160009091929091909150600082015181600001556020820151816001015560408201518160020160006101000a81548160ff02191690831515021790555060608201518160030155608082015181600401600082015181600001555050505003905060088181548110151561167e57fe5b90600052602060002090600502016001600086815260200190815260200160002060008201548160000155600182015481600101556002820160009054906101000a900460ff168160020160006101000a81548160ff0219169083151502179055506003820154816003015560048201816004016000820154816000015550509050507fa3b64c0b425d624b0d6d9f67d76ababb5e56dc10ef01de027c343a09fefdfb5d8484604051611732929190611da7565b60405180910390a150505050565b600073ffffffffffffffffffffffffffffffffffffffff168173ffffffffffffffffffffffffffffffffffffffff161415151561177c57600080fd5b8073ffffffffffffffffffffffffffffffffffffffff166000809054906101000a900473ffffffffffffffffffffffffffffffffffffffff1673ffffffffffffffffffffffffffffffffffffffff167f8be0079c531659141344cd1fd0a4f28419497f9722a3daafe3b4186f6b6457e060405160405180910390a3806000806101000a81548173ffffffffffffffffffffffffffffffffffffffff021916908373ffffffffffffffffffffffffffffffffffffffff16021790555050565b6118426118f5565b61184a6118f5565b60206040519081016040528084815250905080915050919050565b6060604051908101604052806000815260200160008152602001600081525090565b6060604051908101604052806000815260200160008152602001600081525090565b60a0604051908101604052806000815260200160008152602001600015158152602001600081526020016118db611909565b81525090565b602060405190810160405280600081525090565b602060405190810160405280600081525090565b602060405190810160405280600081525090565b60006119298235611f17565b905092915050565b60008083601f840112151561194557600080fd5b8235905067ffffffffffffffff81111561195e57600080fd5b60208301915083602082028301111561197657600080fd5b9250929050565b60006119898235611f29565b905092915050565b6000602082840312156119a357600080fd5b60006119b18482850161191d565b91505092915050565b6000806000604084860312156119cf57600080fd5b600084013567ffffffffffffffff8111156119e957600080fd5b6119f586828701611931565b93509350506020611a088682870161197d565b9150509250925092565b600060208284031215611a2457600080fd5b6000611a328482850161197d565b91505092915050565b60008060408385031215611a4e57600080fd5b6000611a5c8582860161197d565b9250506020611a6d8582860161197d565b9150509250929050565b600080600060608486031215611a8c57600080fd5b6000611a9a8682870161197d565b9350506020611aab8682870161197d565b9250506040611abc8682870161197d565b9150509250925092565b611acf81611ebf565b82525050565b6000611ae082611e8f565b808452602084019350611af283611e75565b60005b82811015611b2457611b08868351611b9a565b611b1182611ea5565b9150602086019550600181019050611af5565b50849250505092915050565b6000611b3b82611e9a565b808452602084019350611b4d83611e82565b60005b82811015611b7f57611b63868351611bf8565b611b6c82611eb2565b9150606086019550600181019050611b50565b50849250505092915050565b611b9481611ed1565b82525050565b602082016000820151611bb06000850182611cbe565b50505050565b606082016000820151611bcc6000850182611cbe565b506020820151611bdf6020850182611cbe565b506040820151611bf26040850182611cbe565b50505050565b606082016000820151611c0e6000850182611cbe565b506020820151611c216020850182611cbe565b506040820151611c346040850182611cbe565b50505050565b602082016000820151611c506000850182611cbe565b50505050565b60a082016000820151611c6c6000850182611cbe565b506020820151611c7f6020850182611cbe565b506040820151611c926040850182611b8b565b506060820151611ca56060850182611cbe565b506080820151611cb86080850182611c3a565b50505050565b611cc781611efd565b82525050565b611cd681611f07565b82525050565b6000602082019050611cf16000830184611ac6565b92915050565b60006020820190508181036000830152611d118184611ad5565b905092915050565b60006020820190508181036000830152611d338184611b30565b905092915050565b6000602082019050611d506000830184611b8b565b92915050565b6000606082019050611d6b6000830184611bb6565b92915050565b600060a082019050611d866000830184611c56565b92915050565b6000602082019050611da16000830184611cbe565b92915050565b6000604082019050611dbc6000830185611cbe565b611dc96020830184611cbe565b9392505050565b600060a082019050611de56000830188611cbe565b611df26020830187611cbe565b611dff6040830186611b8b565b611e0c6060830185611cbe565b611e196080830184611c3a565b9695505050505050565b6000606082019050611e386000830186611cbe565b611e456020830185611cbe565b611e526040830184611cbe565b949350505050565b6000602082019050611e6f6000830184611ccd565b92915050565b6000602082019050919050565b6000602082019050919050565b600081519050919050565b600081519050919050565b6000602082019050919050565b6000602082019050919050565b6000611eca82611edd565b9050919050565b60008115159050919050565b600073ffffffffffffffffffffffffffffffffffffffff82169050919050565b6000819050919050565b600063ffffffff82169050919050565b6000611f2282611edd565b9050919050565b600081905091905056fea265627a7a72305820eaed9306783e75e5b16fc4663762473d03b1b1c112bee0ae3a73cd61e6f2ca866c6578706572696d656e74616cf50037",
  "source": "pragma solidity ^0.5.0;\npragma experimental ABIEncoderV2;\nimport './ResultHelper.sol';\n\ncontract Authorizer is ResultHelper {\n    event loginVoterInfo(Voter _voter);\n\n    function registerVoter(uint256 _id, uint256 _constituencyId, uint256 _adminId) external onlyAdmin(_adminId) {\n        createVoter(_id, _constituencyId);\n    }\n\n    function loginVoter(uint256 _id) external onlyUser(_id) returns(Voter memory) {\n        Voter memory _voter = idToVoter[_id];\n        emit loginVoterInfo(_voter);\n        return _voter;\n    }\n}",
  "sourcePath": "/home/d3mon/Projects/sudo-rm--rf/contracts/Authorizer.sol",
  "compiler": {
    "name": "solc",
    "version": "0.5.0+commit.1d4f565a.Emscripten.clang"
  },
  "schemaVersion": "3.0.2",
  "updatedAt": "2020-02-04T08:01:48.041Z",
  "devdoc": {
    "methods": {
      "isOwner()": {
        "return": "true if `msg.sender` is the owner of the contract."
      },
      "owner()": {
        "return": "the address of the owner."
      },
      "renounceOwnership()": {
        "details": "Allows the current owner to relinquish control of the contract."
      },
      "transferOwnership(address)": {
        "details": "Allows the current owner to transfer control of the contract to a newOwner.",
        "params": {
          "newOwner": "The address to transfer ownership to."
        }
      }
    }
  },
  "userdoc": {
    "methods": {
      "renounceOwnership()": {
        "notice": "Renouncing to ownership will leave the contract without an owner. It will not be possible to call the functions with the `onlyOwner` modifier anymore."
      }
    }
  }
}