{
  "contractName": "Authorizer",
  "abi": [
    {
      "constant": true,
      "inputs": [
        {
          "name": "",
          "type": "uint256"
        }
      ],
      "name": "candidateVoteCount",
      "outputs": [
        {
          "name": "",
          "type": "uint256"
        }
      ],
      "payable": false,
      "stateMutability": "view",
      "type": "function",
      "signature": "0x01aa2e03"
    },
    {
      "constant": true,
      "inputs": [
        {
          "name": "",
          "type": "uint256"
        }
      ],
      "name": "idToConstituency",
      "outputs": [
        {
          "name": "_id",
          "type": "uint256"
        },
        {
          "name": "_startTime",
          "type": "uint256"
        },
        {
          "name": "_duration",
          "type": "uint256"
        }
      ],
      "payable": false,
      "stateMutability": "view",
      "type": "function",
      "signature": "0x0f80dcb0"
    },
    {
      "constant": false,
      "inputs": [
        {
          "name": "_id",
          "type": "uint256"
        },
        {
          "name": "_constituencyId",
          "type": "uint256"
        },
        {
          "name": "_adminId",
          "type": "uint256"
        }
      ],
      "name": "assignCandidateToConstituency",
      "outputs": [],
      "payable": false,
      "stateMutability": "nonpayable",
      "type": "function",
      "signature": "0x12d51c72"
    },
    {
      "constant": true,
      "inputs": [
        {
          "name": "",
          "type": "uint256"
        }
      ],
      "name": "candidateToConstituency",
      "outputs": [
        {
          "name": "",
          "type": "uint256"
        }
      ],
      "payable": false,
      "stateMutability": "view",
      "type": "function",
      "signature": "0x1471e0ab"
    },
    {
      "constant": true,
      "inputs": [
        {
          "name": "",
          "type": "uint256"
        }
      ],
      "name": "admins",
      "outputs": [
        {
          "name": "",
          "type": "uint256"
        }
      ],
      "payable": false,
      "stateMutability": "view",
      "type": "function",
      "signature": "0x14bfd6d0"
    },
    {
      "constant": false,
      "inputs": [
        {
          "name": "_adminId",
          "type": "uint256"
        }
      ],
      "name": "declareResults",
      "outputs": [],
      "payable": false,
      "stateMutability": "nonpayable",
      "type": "function",
      "signature": "0x23dc5c6e"
    },
    {
      "constant": false,
      "inputs": [
        {
          "name": "_adminId",
          "type": "uint256"
        }
      ],
      "name": "getConstituencies",
      "outputs": [
        {
          "components": [
            {
              "name": "_id",
              "type": "uint256"
            },
            {
              "name": "_startTime",
              "type": "uint256"
            },
            {
              "name": "_duration",
              "type": "uint256"
            }
          ],
          "name": "",
          "type": "tuple[]"
        }
      ],
      "payable": false,
      "stateMutability": "nonpayable",
      "type": "function",
      "signature": "0x28975210"
    },
    {
      "constant": false,
      "inputs": [
        {
          "name": "_id",
          "type": "uint256"
        },
        {
          "name": "_userId",
          "type": "uint256"
        }
      ],
      "name": "getConstituencyDetails",
      "outputs": [
        {
          "components": [
            {
              "name": "_id",
              "type": "uint256"
            },
            {
              "name": "_startTime",
              "type": "uint256"
            },
            {
              "name": "_duration",
              "type": "uint256"
            }
          ],
          "name": "",
          "type": "tuple"
        }
      ],
      "payable": false,
      "stateMutability": "nonpayable",
      "type": "function",
      "signature": "0x2fd23a3f"
    },
    {
      "constant": true,
      "inputs": [
        {
          "name": "",
          "type": "uint256"
        }
      ],
      "name": "candidates",
      "outputs": [
        {
          "name": "_id",
          "type": "uint256"
        }
      ],
      "payable": false,
      "stateMutability": "view",
      "type": "function",
      "signature": "0x3477ee2e"
    },
    {
      "constant": false,
      "inputs": [
        {
          "name": "_id",
          "type": "uint256"
        },
        {
          "name": "_adminId",
          "type": "uint256"
        }
      ],
      "name": "registerConstituency",
      "outputs": [],
      "payable": false,
      "stateMutability": "nonpayable",
      "type": "function",
      "signature": "0x3acab52f"
    },
    {
      "constant": true,
      "inputs": [
        {
          "name": "",
          "type": "uint256"
        }
      ],
      "name": "constituencyCandidateCount",
      "outputs": [
        {
          "name": "",
          "type": "uint256"
        }
      ],
      "payable": false,
      "stateMutability": "view",
      "type": "function",
      "signature": "0x3b04a6c9"
    },
    {
      "constant": false,
      "inputs": [
        {
          "name": "from",
          "type": "uint256"
        },
        {
          "name": "to",
          "type": "uint256"
        },
        {
          "name": "tokenId",
          "type": "bytes32"
        }
      ],
      "name": "transferFrom",
      "outputs": [],
      "payable": false,
      "stateMutability": "nonpayable",
      "type": "function",
      "signature": "0x3ba8b3ff"
    },
    {
      "constant": true,
      "inputs": [
        {
          "name": "_constituencyId",
          "type": "uint256"
        },
        {
          "name": "_userId",
          "type": "uint256"
        }
      ],
      "name": "retreiveConstituencyVoteCount",
      "outputs": [
        {
          "name": "",
          "type": "uint32"
        }
      ],
      "payable": false,
      "stateMutability": "view",
      "type": "function",
      "signature": "0x45dc9ad7"
    },
    {
      "constant": true,
      "inputs": [
        {
          "name": "",
          "type": "uint256"
        }
      ],
      "name": "voteToCandidate",
      "outputs": [
        {
          "name": "",
          "type": "uint256"
        }
      ],
      "payable": false,
      "stateMutability": "view",
      "type": "function",
      "signature": "0x56be1658"
    },
    {
      "constant": true,
      "inputs": [
        {
          "name": "",
          "type": "uint256"
        }
      ],
      "name": "idToCandidate",
      "outputs": [
        {
          "name": "_id",
          "type": "uint256"
        }
      ],
      "payable": false,
      "stateMutability": "view",
      "type": "function",
      "signature": "0x57e2ef10"
    },
    {
      "constant": false,
      "inputs": [
        {
          "name": "_id",
          "type": "uint256"
        },
        {
          "name": "_adminId",
          "type": "uint256"
        }
      ],
      "name": "registerCandidate",
      "outputs": [],
      "payable": false,
      "stateMutability": "nonpayable",
      "type": "function",
      "signature": "0x5d6e5052"
    },
    {
      "constant": false,
      "inputs": [],
      "name": "renounceOwnership",
      "outputs": [],
      "payable": false,
      "stateMutability": "nonpayable",
      "type": "function",
      "signature": "0x715018a6"
    },
    {
      "constant": true,
      "inputs": [],
      "name": "owner",
      "outputs": [
        {
          "name": "",
          "type": "address"
        }
      ],
      "payable": false,
      "stateMutability": "view",
      "type": "function",
      "signature": "0x8da5cb5b"
    },
    {
      "constant": true,
      "inputs": [],
      "name": "isOwner",
      "outputs": [
        {
          "name": "",
          "type": "bool"
        }
      ],
      "payable": false,
      "stateMutability": "view",
      "type": "function",
      "signature": "0x8f32d59b"
    },
    {
      "constant": true,
      "inputs": [
        {
          "name": "",
          "type": "uint256"
        }
      ],
      "name": "constituencies",
      "outputs": [
        {
          "name": "_id",
          "type": "uint256"
        },
        {
          "name": "_startTime",
          "type": "uint256"
        },
        {
          "name": "_duration",
          "type": "uint256"
        }
      ],
      "payable": false,
      "stateMutability": "view",
      "type": "function",
      "signature": "0x9209416a"
    },
    {
      "constant": false,
      "inputs": [
        {
          "name": "_id",
          "type": "uint256"
        }
      ],
      "name": "registerAdmin",
      "outputs": [],
      "payable": false,
      "stateMutability": "nonpayable",
      "type": "function",
      "signature": "0x94845254"
    },
    {
      "constant": true,
      "inputs": [],
      "name": "ResultsDeclared",
      "outputs": [
        {
          "name": "",
          "type": "bool"
        }
      ],
      "payable": false,
      "stateMutability": "view",
      "type": "function",
      "signature": "0xaa3e4e1c"
    },
    {
      "constant": true,
      "inputs": [
        {
          "name": "_constituencyId",
          "type": "uint256"
        },
        {
          "name": "_userId",
          "type": "uint256"
        }
      ],
      "name": "getCandidatesByConstituency",
      "outputs": [
        {
          "components": [
            {
              "name": "_id",
              "type": "uint256"
            }
          ],
          "name": "",
          "type": "tuple[]"
        }
      ],
      "payable": false,
      "stateMutability": "view",
      "type": "function",
      "signature": "0xbbc893a3"
    },
    {
      "constant": true,
      "inputs": [
        {
          "name": "",
          "type": "uint256"
        }
      ],
      "name": "voters",
      "outputs": [
        {
          "name": "_id",
          "type": "uint256"
        },
        {
          "name": "_constituencyId",
          "type": "uint256"
        },
        {
          "name": "_hasVoted",
          "type": "bool"
        },
        {
          "components": [
            {
              "name": "_voteId",
              "type": "uint256"
            },
            {
              "name": "_votedId",
              "type": "uint256"
            },
            {
              "name": "_voteTime",
              "type": "uint64"
            }
          ],
          "name": "_vote",
          "type": "tuple"
        }
      ],
      "payable": false,
      "stateMutability": "view",
      "type": "function",
      "signature": "0xda58c7d9"
    },
    {
      "constant": false,
      "inputs": [
        {
          "name": "newOwner",
          "type": "address"
        }
      ],
      "name": "transferOwnership",
      "outputs": [],
      "payable": false,
      "stateMutability": "nonpayable",
      "type": "function",
      "signature": "0xf2fde38b"
    },
    {
      "constant": false,
      "inputs": [
        {
          "name": "_id",
          "type": "uint256"
        },
        {
          "name": "_duration",
          "type": "uint256"
        },
        {
          "name": "_adminId",
          "type": "uint256"
        }
      ],
      "name": "generateElectionforConstituency",
      "outputs": [],
      "payable": false,
      "stateMutability": "nonpayable",
      "type": "function",
      "signature": "0xf7590065"
    },
    {
      "constant": true,
      "inputs": [
        {
          "name": "",
          "type": "uint256"
        }
      ],
      "name": "idToVoter",
      "outputs": [
        {
          "name": "_id",
          "type": "uint256"
        },
        {
          "name": "_constituencyId",
          "type": "uint256"
        },
        {
          "name": "_hasVoted",
          "type": "bool"
        },
        {
          "components": [
            {
              "name": "_voteId",
              "type": "uint256"
            },
            {
              "name": "_votedId",
              "type": "uint256"
            },
            {
              "name": "_voteTime",
              "type": "uint64"
            }
          ],
          "name": "_vote",
          "type": "tuple"
        }
      ],
      "payable": false,
      "stateMutability": "view",
      "type": "function",
      "signature": "0xf8c70571"
    },
    {
      "anonymous": false,
      "inputs": [
        {
          "indexed": true,
          "name": "_from",
          "type": "uint256"
        },
        {
          "indexed": true,
          "name": "_to",
          "type": "uint256"
        },
        {
          "indexed": true,
          "name": "_tokenId",
          "type": "bytes32"
        }
      ],
      "name": "Transfer",
      "type": "event",
      "signature": "0x612c500cbd8f1ed8a4643cbf6b41fda92203645d7e4f7c3a237a1be69565ea2c"
    },
    {
      "anonymous": false,
      "inputs": [
        {
          "indexed": false,
          "name": "_id",
          "type": "uint256"
        },
        {
          "indexed": false,
          "name": "_constituencyId",
          "type": "uint256"
        }
      ],
      "name": "VoterCreated",
      "type": "event",
      "signature": "0xa3b64c0b425d624b0d6d9f67d76ababb5e56dc10ef01de027c343a09fefdfb5d"
    },
    {
      "anonymous": false,
      "inputs": [
        {
          "indexed": false,
          "name": "_id",
          "type": "uint256"
        }
      ],
      "name": "CandidateRegistered",
      "type": "event",
      "signature": "0x43dcee486fabffa2fb551555bfaa5bfcf6a42f2d014032ccef94bf09d83855eb"
    },
    {
      "anonymous": false,
      "inputs": [
        {
          "indexed": false,
          "name": "_id",
          "type": "uint256"
        }
      ],
      "name": "ConstituencyRegistered",
      "type": "event",
      "signature": "0x21db1a92fb8efb483c22a581ee7e282b6d79d9d43b559ee1affa341818867969"
    },
    {
      "anonymous": false,
      "inputs": [
        {
          "indexed": true,
          "name": "previousOwner",
          "type": "address"
        },
        {
          "indexed": true,
          "name": "newOwner",
          "type": "address"
        }
      ],
      "name": "OwnershipTransferred",
      "type": "event",
      "signature": "0x8be0079c531659141344cd1fd0a4f28419497f9722a3daafe3b4186f6b6457e0"
    },
    {
      "constant": false,
      "inputs": [
        {
          "name": "_id",
          "type": "uint256"
        },
        {
          "name": "_constituencyId",
          "type": "uint256"
        },
        {
          "name": "_adminId",
          "type": "uint256"
        }
      ],
      "name": "registerVoter",
      "outputs": [],
      "payable": false,
      "stateMutability": "nonpayable",
      "type": "function",
      "signature": "0x2ed58701"
    },
    {
      "constant": false,
      "inputs": [
        {
          "name": "_id",
          "type": "uint256"
        }
      ],
      "name": "loginVoter",
      "outputs": [
        {
          "components": [
            {
              "name": "_id",
              "type": "uint256"
            },
            {
              "name": "_constituencyId",
              "type": "uint256"
            },
            {
              "name": "_hasVoted",
              "type": "bool"
            },
            {
              "components": [
                {
                  "name": "_voteId",
                  "type": "uint256"
                },
                {
                  "name": "_votedId",
                  "type": "uint256"
                },
                {
                  "name": "_voteTime",
                  "type": "uint64"
                }
              ],
              "name": "_vote",
              "type": "tuple"
            }
          ],
          "name": "",
          "type": "tuple"
        }
      ],
      "payable": false,
      "stateMutability": "nonpayable",
      "type": "function",
      "signature": "0x52d2ec93"
    }
  ],
  "bytecode": "0x608060405260008060146101000a81548160ff021916908315150217905550336000806101000a81548173ffffffffffffffffffffffffffffffffffffffff021916908373ffffffffffffffffffffffffffffffffffffffff1602179055506000809054906101000a900473ffffffffffffffffffffffffffffffffffffffff1673ffffffffffffffffffffffffffffffffffffffff16600073ffffffffffffffffffffffffffffffffffffffff167f8be0079c531659141344cd1fd0a4f28419497f9722a3daafe3b4186f6b6457e060405160405180910390a360008060146101000a81548160ff02191690831515021790555061206b806101036000396000f3fe608060405260043610610175576000357c0100000000000000000000000000000000000000000000000000000000900463ffffffff16806301aa2e031461017a5780630f80dcb0146101b757806312d51c72146101f65780631471e0ab1461021f57806314bfd6d01461025c57806323dc5c6e1461029957806328975210146102c25780632ed58701146102ff5780632fd23a3f146103285780633477ee2e146103655780633acab52f146103a25780633b04a6c9146103cb5780633ba8b3ff1461040857806345dc9ad71461043157806352d2ec931461046e57806356be1658146104ab57806357e2ef10146104e85780635d6e505214610525578063715018a61461054e5780638da5cb5b146105655780638f32d59b146105905780639209416a146105bb57806394845254146105fa578063aa3e4e1c14610623578063bbc893a31461064e578063da58c7d91461068b578063f2fde38b146106cb578063f7590065146106f4578063f8c705711461071d575b600080fd5b34801561018657600080fd5b506101a1600480360361019c9190810190611a8f565b61075d565b6040516101ae9190611e7a565b60405180910390f35b3480156101c357600080fd5b506101de60048036036101d99190810190611a8f565b610775565b6040516101ed93929190611f03565b60405180910390f35b34801561020257600080fd5b5061021d60048036036102189190810190611b43565b61079f565b005b34801561022b57600080fd5b5061024660048036036102419190810190611a8f565b61082e565b6040516102539190611e7a565b60405180910390f35b34801561026857600080fd5b50610283600480360361027e9190810190611a8f565b610846565b6040516102909190611e7a565b60405180910390f35b3480156102a557600080fd5b506102c060048036036102bb9190810190611a8f565b610869565b005b3480156102ce57600080fd5b506102e960048036036102e49190810190611a8f565b6108d6565b6040516102f69190611e07565b60405180910390f35b34801561030b57600080fd5b5061032660048036036103219190810190611b43565b610a05565b005b34801561033457600080fd5b5061034f600480360361034a9190810190611ab8565b610a63565b60405161035c9190611e44565b60405180910390f35b34801561037157600080fd5b5061038c60048036036103879190810190611a8f565b610ae4565b6040516103999190611e7a565b60405180910390f35b3480156103ae57600080fd5b506103c960048036036103c49190810190611ab8565b610b0d565b005b3480156103d757600080fd5b506103f260048036036103ed9190810190611a8f565b610c5b565b6040516103ff9190611e7a565b60405180910390f35b34801561041457600080fd5b5061042f600480360361042a9190810190611af4565b610c73565b005b34801561043d57600080fd5b5061045860048036036104539190810190611ab8565b610e0e565b6040516104659190611f3a565b60405180910390f35b34801561047a57600080fd5b5061049560048036036104909190810190611a8f565b610ec5565b6040516104a29190611e5f565b60405180910390f35b3480156104b757600080fd5b506104d260048036036104cd9190810190611a8f565b610fb1565b6040516104df9190611e7a565b60405180910390f35b3480156104f457600080fd5b5061050f600480360361050a9190810190611a8f565b610fc9565b60405161051c9190611e7a565b60405180910390f35b34801561053157600080fd5b5061054c60048036036105479190810190611ab8565b610fe7565b005b34801561055a57600080fd5b506105636110f7565b005b34801561057157600080fd5b5061057a6111c9565b6040516105879190611dca565b60405180910390f35b34801561059c57600080fd5b506105a56111f2565b6040516105b29190611e29565b60405180910390f35b3480156105c757600080fd5b506105e260048036036105dd9190810190611a8f565b611249565b6040516105f193929190611f03565b60405180910390f35b34801561060657600080fd5b50610621600480360361061c9190810190611a8f565b611282565b005b34801561062f57600080fd5b506106386112c4565b6040516106459190611e29565b60405180910390f35b34801561065a57600080fd5b5061067560048036036106709190810190611ab8565b6112d7565b6040516106829190611de5565b60405180910390f35b34801561069757600080fd5b506106b260048036036106ad9190810190611a8f565b61140e565b6040516106c29493929190611ebe565b60405180910390f35b3480156106d757600080fd5b506106f260048036036106ed9190810190611a66565b6114ab565b005b34801561070057600080fd5b5061071b60048036036107169190810190611b43565b6114ca565b005b34801561072957600080fd5b50610744600480360361073f9190810190611a8f565b61157a565b6040516107549493929190611ebe565b60405180910390f35b60076020528060005260406000206000915090505481565b60036020528060005260406000206000915090508060000154908060010154908060020154905083565b8060008090505b600b805490508110156108275781600b828154811015156107c357fe5b90600052602060002001541415610814578360056000878152602001908152602001600020819055506006600085815260200190815260200160002060008154809291906001019190505550610819565b61081a565b5b80806001019150506107a6565b5050505050565b60056020528060005260406000206000915090505481565b600b8181548110151561085557fe5b906000526020600020016000915090505481565b8060008090505b600b805490508110156108d15781600b8281548110151561088d57fe5b906000526020600020015414156108be576001600060146101000a81548160ff0219169083151502179055506108c3565b6108c4565b5b8080600101915050610870565b505050565b60608160008090505b600b805490508110156109fe5781600b828154811015156108fc57fe5b906000526020600020015414156109eb576060600a8054905060405190808252806020026020018201604052801561094e57816020015b61093b611949565b8152602001906001900390816109335790505b509050600080905060008090505b600a805490508110156109e057600a8181548110151561097857fe5b906000526020600020906003020160606040519081016040529081600082015481526020016001820154815260200160028201548152505083838151811015156109be57fe5b906020019060200201819052508180600101925050808060010191505061095c565b5081945050506109f0565b6109f1565b5b80806001019150506108df565b5050919050565b8060008090505b600b80549050811015610a5c5781600b82815481101515610a2957fe5b90600052602060002001541415610a4957610a448585611608565b610a4e565b610a4f565b5b8080600101915050610a0c565b5050505050565b610a6b61196b565b816000600160008381526020019081526020016000206000015414151515610a9257600080fd5b610a9a61196b565b600360008681526020019081526020016000206060604051908101604052908160008201548152602001600182015481526020016002820154815250509050809250505092915050565b600981815481101515610af357fe5b906000526020600020016000915090508060000154905081565b8060008090505b600b80549050811015610c555781600b82815481101515610b3157fe5b90600052602060002001541415610c425760006001600a606060405190810160405280888152602001600081526020016000815250908060018154018082558091505090600182039060005260206000209060030201600090919290919091506000820151816000015560208201518160010155604082015181600201555050039050600a81815481101515610bc357fe5b9060005260206000209060030201600360008781526020019081526020016000206000820154816000015560018201548160010155600282015481600201559050507f21db1a92fb8efb483c22a581ee7e282b6d79d9d43b559ee1affa34181886796985604051610c349190611e7a565b60405180910390a150610c47565b610c48565b5b8080600101915050610b14565b50505050565b60066020528060005260406000206000915090505481565b826000600160008381526020019081526020016000206000015414151515610c9a57600080fd5b60056000848152602001908152602001600020546001600086815260200190815260200160002060010154141515610cd157600080fd5b610cd961198d565b600160008681526020019081526020016000206080604051908101604052908160008201548152602001600182015481526020016002820160009054906101000a900460ff16151515158152602001600382016060604051908101604052908160008201548152602001600182015481526020016002820160009054906101000a900467ffffffffffffffff1667ffffffffffffffff1667ffffffffffffffff16815250508152505090506001816040019015159081151581525050836004600083606001516000015181526020019081526020016000208190555060076000858152602001908152602001600020600081548092919060010191905055508284867f612c500cbd8f1ed8a4643cbf6b41fda92203645d7e4f7c3a237a1be69565ea2c60405160405180910390a45050505050565b600060011515600060149054906101000a900460ff161515141515610e3257600080fd5b816000600160008381526020019081526020016000206000015414151515610e5957600080fd5b6060610e6585856112d7565b9050600080600090505b8251811015610eb857600760008483815181101515610e8a57fe5b9060200190602002015160000151815260200190815260200160002054820191508080600101915050610e6f565b5080935050505092915050565b610ecd61198d565b816000600160008381526020019081526020016000206000015414151515610ef457600080fd5b610efc61198d565b600160008581526020019081526020016000206080604051908101604052908160008201548152602001600182015481526020016002820160009054906101000a900460ff16151515158152602001600382016060604051908101604052908160008201548152602001600182015481526020016002820160009054906101000a900467ffffffffffffffff1667ffffffffffffffff1667ffffffffffffffff16815250508152505090508092505050919050565b60046020528060005260406000206000915090505481565b60026020528060005260406000206000915090508060000154905081565b8060008090505b600b805490508110156110f15781600b8281548110151561100b57fe5b906000526020600020015414156110de576000600160096020604051908101604052808881525090806001815401808255809150509060018203906000526020600020016000909192909190915060008201518160000155505003905060098181548110151561107757fe5b9060005260206000200160026000878152602001908152602001600020600082015481600001559050507f43dcee486fabffa2fb551555bfaa5bfcf6a42f2d014032ccef94bf09d83855eb856040516110d09190611e7a565b60405180910390a1506110e3565b6110e4565b5b8080600101915050610fee565b50505050565b6110ff6111f2565b151561110a57600080fd5b600073ffffffffffffffffffffffffffffffffffffffff166000809054906101000a900473ffffffffffffffffffffffffffffffffffffffff1673ffffffffffffffffffffffffffffffffffffffff167f8be0079c531659141344cd1fd0a4f28419497f9722a3daafe3b4186f6b6457e060405160405180910390a360008060006101000a81548173ffffffffffffffffffffffffffffffffffffffff021916908373ffffffffffffffffffffffffffffffffffffffff160217905550565b60008060009054906101000a900473ffffffffffffffffffffffffffffffffffffffff16905090565b60008060009054906101000a900473ffffffffffffffffffffffffffffffffffffffff1673ffffffffffffffffffffffffffffffffffffffff163373ffffffffffffffffffffffffffffffffffffffff1614905090565b600a8181548110151561125857fe5b90600052602060002090600302016000915090508060000154908060010154908060020154905083565b61128a6111f2565b151561129557600080fd5b600b81908060018154018082558091505090600182039060005260206000200160009091929091909150555050565b600060149054906101000a900460ff1681565b606081600060016000838152602001908152602001600020600001541415151561130057600080fd5b6060600660008681526020019081526020016000205460405190808252806020026020018201604052801561134f57816020015b61133c6119be565b8152602001906001900390816113345790505b509050600080905060008090505b60098054905081101561140157866005600060098481548110151561137e57fe5b906000526020600020016000015481526020019081526020016000205414156113f4576009818154811015156113b057fe5b906000526020600020016020604051908101604052908160008201548152505083838151811015156113de57fe5b9060200190602002018190525081806001019250505b808060010191505061135d565b5081935050505092915050565b60088181548110151561141d57fe5b90600052602060002090600602016000915090508060000154908060010154908060020160009054906101000a900460ff1690806003016060604051908101604052908160008201548152602001600182015481526020016002820160009054906101000a900467ffffffffffffffff1667ffffffffffffffff1667ffffffffffffffff1681525050905084565b6114b36111f2565b15156114be57600080fd5b6114c78161180c565b50565b8060008090505b600b805490508110156115735781600b828154811015156114ee57fe5b906000526020600020015414156115605761150761196b565b600360008781526020019081526020016000206060604051908101604052908160008201548152602001600182015481526020016002820154815250509050428160200181815250508481604001818152505050611565565b611566565b5b80806001019150506114d1565b5050505050565b60016020528060005260406000206000915090508060000154908060010154908060020160009054906101000a900460ff1690806003016060604051908101604052908160008201548152602001600182015481526020016002820160009054906101000a900467ffffffffffffffff1667ffffffffffffffff1667ffffffffffffffff1681525050905084565b6116106119d2565b61161983611906565b90506000600160086080604051908101604052808781526020018681526020016000151581526020018581525090806001815401808255809150509060018203906000526020600020906006020160009091929091909150600082015181600001556020820151816001015560408201518160020160006101000a81548160ff021916908315150217905550606082015181600301600082015181600001556020820151816001015560408201518160020160006101000a81548167ffffffffffffffff021916908367ffffffffffffffff1602179055505050505003905060088181548110151561170757fe5b90600052602060002090600602016001600086815260200190815260200160002060008201548160000155600182015481600101556002820160009054906101000a900460ff168160020160006101000a81548160ff021916908315150217905550600382018160030160008201548160000155600182015481600101556002820160009054906101000a900467ffffffffffffffff168160020160006101000a81548167ffffffffffffffff021916908367ffffffffffffffff16021790555050509050507fa3b64c0b425d624b0d6d9f67d76ababb5e56dc10ef01de027c343a09fefdfb5d84846040516117fe929190611e95565b60405180910390a150505050565b600073ffffffffffffffffffffffffffffffffffffffff168173ffffffffffffffffffffffffffffffffffffffff161415151561184857600080fd5b8073ffffffffffffffffffffffffffffffffffffffff166000809054906101000a900473ffffffffffffffffffffffffffffffffffffffff1673ffffffffffffffffffffffffffffffffffffffff167f8be0079c531659141344cd1fd0a4f28419497f9722a3daafe3b4186f6b6457e060405160405180910390a3806000806101000a81548173ffffffffffffffffffffffffffffffffffffffff021916908373ffffffffffffffffffffffffffffffffffffffff16021790555050565b61190e6119d2565b6119166119d2565b60606040519081016040528084815260200160008152602001600067ffffffffffffffff16815250905080915050919050565b6060604051908101604052806000815260200160008152602001600081525090565b6060604051908101604052806000815260200160008152602001600081525090565b60c06040519081016040528060008152602001600081526020016000151581526020016119b86119fe565b81525090565b602060405190810160405280600081525090565b6060604051908101604052806000815260200160008152602001600067ffffffffffffffff1681525090565b6060604051908101604052806000815260200160008152602001600067ffffffffffffffff1681525090565b6000611a36823561200b565b905092915050565b6000611a4a823561201d565b905092915050565b6000611a5e8235612027565b905092915050565b600060208284031215611a7857600080fd5b6000611a8684828501611a2a565b91505092915050565b600060208284031215611aa157600080fd5b6000611aaf84828501611a52565b91505092915050565b60008060408385031215611acb57600080fd5b6000611ad985828601611a52565b9250506020611aea85828601611a52565b9150509250929050565b600080600060608486031215611b0957600080fd5b6000611b1786828701611a52565b9350506020611b2886828701611a52565b9250506040611b3986828701611a3e565b9150509250925092565b600080600060608486031215611b5857600080fd5b6000611b6686828701611a52565b9350506020611b7786828701611a52565b9250506040611b8886828701611a52565b9150509250925092565b611b9b81611f9f565b82525050565b6000611bac82611f6f565b808452602084019350611bbe83611f55565b60005b82811015611bf057611bd4868351611c66565b611bdd82611f85565b9150602086019550600181019050611bc1565b50849250505092915050565b6000611c0782611f7a565b808452602084019350611c1983611f62565b60005b82811015611c4b57611c2f868351611cc4565b611c3882611f92565b9150606086019550600181019050611c1c565b50849250505092915050565b611c6081611fb1565b82525050565b602082016000820151611c7c6000850182611d9d565b50505050565b606082016000820151611c986000850182611d9d565b506020820151611cab6020850182611d9d565b506040820151611cbe6040850182611d9d565b50505050565b606082016000820151611cda6000850182611d9d565b506020820151611ced6020850182611d9d565b506040820151611d006040850182611d9d565b50505050565b606082016000820151611d1c6000850182611d9d565b506020820151611d2f6020850182611d9d565b506040820151611d426040850182611dbb565b50505050565b60c082016000820151611d5e6000850182611d9d565b506020820151611d716020850182611d9d565b506040820151611d846040850182611c57565b506060820151611d976060850182611d06565b50505050565b611da681611fdd565b82525050565b611db581611fe7565b82525050565b611dc481611ff7565b82525050565b6000602082019050611ddf6000830184611b92565b92915050565b60006020820190508181036000830152611dff8184611ba1565b905092915050565b60006020820190508181036000830152611e218184611bfc565b905092915050565b6000602082019050611e3e6000830184611c57565b92915050565b6000606082019050611e596000830184611c82565b92915050565b600060c082019050611e746000830184611d48565b92915050565b6000602082019050611e8f6000830184611d9d565b92915050565b6000604082019050611eaa6000830185611d9d565b611eb76020830184611d9d565b9392505050565b600060c082019050611ed36000830187611d9d565b611ee06020830186611d9d565b611eed6040830185611c57565b611efa6060830184611d06565b95945050505050565b6000606082019050611f186000830186611d9d565b611f256020830185611d9d565b611f326040830184611d9d565b949350505050565b6000602082019050611f4f6000830184611dac565b92915050565b6000602082019050919050565b6000602082019050919050565b600081519050919050565b600081519050919050565b6000602082019050919050565b6000602082019050919050565b6000611faa82611fbd565b9050919050565b60008115159050919050565b600073ffffffffffffffffffffffffffffffffffffffff82169050919050565b6000819050919050565b600063ffffffff82169050919050565b600067ffffffffffffffff82169050919050565b600061201682611fbd565b9050919050565b6000819050919050565b600081905091905056fea265627a7a72305820c1423692abe7a2510f38619a58f1f6d2cba6b9d1565480a3742807531f0b4ab76c6578706572696d656e74616cf50037",
  "source": "pragma solidity ^0.5.0;\npragma experimental ABIEncoderV2;\nimport './ResultHelper.sol';\n\ncontract Authorizer is ResultHelper {\n    function registerVoter(uint256 _id, uint256 _constituencyId, uint256 _adminId) external onlyAdmin(_adminId) {\n        createVoter(_id, _constituencyId);\n    }\n\n    function loginVoter(uint256 _id) external onlyUser(_id) returns(Voter memory) {\n        Voter memory _voter = idToVoter[_id];\n        return _voter;\n    }\n}",
  "sourcePath": "/home/d3mon/Projects/sudo-rm--rf/contracts/Authorizer.sol",
  "compiler": {
    "name": "solc",
    "version": "0.5.0+commit.1d4f565a.Emscripten.clang"
  },
  "schemaVersion": "3.0.2",
  "updatedAt": "2020-01-25T17:50:37.048Z",
  "devdoc": {
    "methods": {
      "isOwner()": {
        "return": "true if `msg.sender` is the owner of the contract."
      },
      "owner()": {
        "return": "the address of the owner."
      },
      "renounceOwnership()": {
        "details": "Allows the current owner to relinquish control of the contract."
      },
      "transferOwnership(address)": {
        "details": "Allows the current owner to transfer control of the contract to a newOwner.",
        "params": {
          "newOwner": "The address to transfer ownership to."
        }
      }
    }
  },
  "userdoc": {
    "methods": {
      "renounceOwnership()": {
        "notice": "Renouncing to ownership will leave the contract without an owner. It will not be possible to call the functions with the `onlyOwner` modifier anymore."
      }
    }
  }
}