{
  "contractName": "Authorizer",
  "abi": [
    {
      "constant": false,
      "inputs": [
        {
          "name": "_id",
          "type": "uint256"
        }
      ],
      "name": "registerCandidate",
      "outputs": [],
      "payable": false,
      "stateMutability": "nonpayable",
      "type": "function"
    },
    {
      "constant": false,
      "inputs": [
        {
          "name": "_id",
          "type": "uint256"
        }
      ],
      "name": "registerConstituency",
      "outputs": [],
      "payable": false,
      "stateMutability": "nonpayable",
      "type": "function"
    },
    {
      "constant": true,
      "inputs": [
        {
          "name": "",
          "type": "uint256"
        }
      ],
      "name": "candidates",
      "outputs": [
        {
          "name": "_id",
          "type": "uint256"
        }
      ],
      "payable": false,
      "stateMutability": "view",
      "type": "function"
    },
    {
      "constant": false,
      "inputs": [
        {
          "name": "from",
          "type": "uint256"
        },
        {
          "name": "to",
          "type": "uint256"
        },
        {
          "name": "tokenId",
          "type": "bytes32"
        }
      ],
      "name": "transferFrom",
      "outputs": [],
      "payable": false,
      "stateMutability": "nonpayable",
      "type": "function"
    },
    {
      "constant": true,
      "inputs": [
        {
          "name": "",
          "type": "uint256"
        }
      ],
      "name": "constituencies",
      "outputs": [
        {
          "name": "_id",
          "type": "uint256"
        },
        {
          "name": "_startTime",
          "type": "uint256"
        },
        {
          "name": "_duration",
          "type": "uint256"
        }
      ],
      "payable": false,
      "stateMutability": "view",
      "type": "function"
    },
    {
      "constant": true,
      "inputs": [
        {
          "name": "_constituencyId",
          "type": "uint256"
        }
      ],
      "name": "retreiveConstituencyVoteCount",
      "outputs": [
        {
          "name": "",
          "type": "uint32"
        }
      ],
      "payable": false,
      "stateMutability": "view",
      "type": "function"
    },
    {
      "constant": false,
      "inputs": [
        {
          "name": "_id",
          "type": "uint256"
        },
        {
          "name": "_constituencyId",
          "type": "uint256"
        }
      ],
      "name": "assignCandidateToConstituency",
      "outputs": [],
      "payable": false,
      "stateMutability": "nonpayable",
      "type": "function"
    },
    {
      "constant": false,
      "inputs": [
        {
          "name": "_id",
          "type": "uint256"
        },
        {
          "name": "_duration",
          "type": "uint256"
        }
      ],
      "name": "generateElectionforConstituency",
      "outputs": [],
      "payable": false,
      "stateMutability": "nonpayable",
      "type": "function"
    },
    {
      "constant": true,
      "inputs": [
        {
          "name": "",
          "type": "uint256"
        }
      ],
      "name": "voters",
      "outputs": [
        {
          "name": "_id",
          "type": "uint256"
        },
        {
          "name": "_constituencyId",
          "type": "uint256"
        },
        {
          "name": "_hasVoted",
          "type": "bool"
        },
        {
          "components": [
            {
              "name": "_voteId",
              "type": "bytes32"
            },
            {
              "name": "_votedId",
              "type": "uint256"
            },
            {
              "name": "_voteTime",
              "type": "uint64"
            }
          ],
          "name": "_vote",
          "type": "tuple"
        }
      ],
      "payable": false,
      "stateMutability": "view",
      "type": "function"
    },
    {
      "constant": true,
      "inputs": [
        {
          "name": "_constituencyId",
          "type": "uint256"
        }
      ],
      "name": "getCandidatesByConstituency",
      "outputs": [
        {
          "components": [
            {
              "name": "_id",
              "type": "uint256"
            }
          ],
          "name": "",
          "type": "tuple[]"
        }
      ],
      "payable": false,
      "stateMutability": "view",
      "type": "function"
    },
    {
      "anonymous": false,
      "inputs": [
        {
          "indexed": true,
          "name": "_from",
          "type": "uint256"
        },
        {
          "indexed": true,
          "name": "_to",
          "type": "uint256"
        },
        {
          "indexed": true,
          "name": "_tokenId",
          "type": "bytes32"
        }
      ],
      "name": "Transfer",
      "type": "event"
    },
    {
      "anonymous": false,
      "inputs": [
        {
          "indexed": false,
          "name": "_id",
          "type": "uint256"
        },
        {
          "indexed": false,
          "name": "_voterId",
          "type": "uint256"
        }
      ],
      "name": "VoterCreated",
      "type": "event"
    },
    {
      "anonymous": false,
      "inputs": [
        {
          "indexed": false,
          "name": "_id",
          "type": "uint256"
        }
      ],
      "name": "CandidateRegistered",
      "type": "event"
    },
    {
      "anonymous": false,
      "inputs": [
        {
          "indexed": false,
          "name": "_id",
          "type": "uint256"
        }
      ],
      "name": "ConstituencyRegistered",
      "type": "event"
    },
    {
      "constant": false,
      "inputs": [
        {
          "name": "_id",
          "type": "uint256"
        },
        {
          "name": "_constituencyId",
          "type": "uint256"
        }
      ],
      "name": "register",
      "outputs": [],
      "payable": false,
      "stateMutability": "nonpayable",
      "type": "function"
    },
    {
      "constant": false,
      "inputs": [
        {
          "name": "_id",
          "type": "uint256"
        }
      ],
      "name": "login",
      "outputs": [
        {
          "components": [
            {
              "name": "_id",
              "type": "uint256"
            },
            {
              "name": "_constituencyId",
              "type": "uint256"
            },
            {
              "name": "_hasVoted",
              "type": "bool"
            },
            {
              "components": [
                {
                  "name": "_voteId",
                  "type": "bytes32"
                },
                {
                  "name": "_votedId",
                  "type": "uint256"
                },
                {
                  "name": "_voteTime",
                  "type": "uint64"
                }
              ],
              "name": "_vote",
              "type": "tuple"
            }
          ],
          "name": "",
          "type": "tuple"
        }
      ],
      "payable": false,
      "stateMutability": "nonpayable",
      "type": "function"
    }
  ],
  "bytecode": "0x608060405260405180606001604052806000801b815260200160008152602001600067ffffffffffffffff1681525060008082015181600001556020820151816001015560408201518160020160006101000a81548167ffffffffffffffff021916908367ffffffffffffffff160217905550505034801561008057600080fd5b506110fb806100906000396000f3fe608060405234801561001057600080fd5b50600436106100b45760003560e01c8063c1c5c5d811610071578063c1c5c5d81461019f578063c50eff0c146101cf578063d59d48d4146101eb578063d66d6c1014610207578063da58c7d914610223578063f9ed806714610256576100b4565b80630b2a85ea146100b9578063233f0114146100d55780633477ee2e146100f15780633ba8b3ff146101215780633dbfd97c1461013d5780639209416a1461016d575b600080fd5b6100d360048036036100ce9190810190610c79565b610286565b005b6100ef60048036036100ea9190810190610c79565b610343565b005b61010b60048036036101069190810190610c79565b61043e565b6040516101189190610f3e565b60405180910390f35b61013b60048036036101369190810190610cde565b610465565b005b61015760048036036101529190810190610c79565b6105d4565b6040516101649190610f23565b60405180910390f35b61018760048036036101829190810190610c79565b610696565b60405161019693929190610fc7565b60405180910390f35b6101b960048036036101b49190810190610c79565b6106cd565b6040516101c69190610ffe565b60405180910390f35b6101e960048036036101e49190810190610ca2565b610734565b005b61020560048036036102009190810190610ca2565b610773565b005b610221600480360361021c9190810190610ca2565b6107d2565b005b61023d60048036036102389190810190610c79565b6107e0565b60405161024d9493929190610f82565b60405180910390f35b610270600480360361026b9190810190610c79565b61087a565b60405161027d9190610f01565b60405180910390f35b60006001600b604051806020016040528085815250908060018154018082558091505090600182039060005260206000200160009091929091909150600082015181600001555050039050600b81815481106102de57fe5b9060005260206000200160046000848152602001908152602001600020600082015481600001559050507f43dcee486fabffa2fb551555bfaa5bfcf6a42f2d014032ccef94bf09d83855eb826040516103379190610f3e565b60405180910390a15050565b60006001600c6040518060600160405280858152602001600081526020016000815250908060018154018082558091505090600182039060005260206000209060030201600090919290919091506000820151816000015560208201518160010155604082015181600201555050039050600c81815481106103c157fe5b9060005260206000209060030201600560008481526020019081526020016000206000820154816000015560018201548160010155600282015481600201559050507f21db1a92fb8efb483c22a581ee7e282b6d79d9d43b559ee1affa341818867969826040516104329190610f3e565b60405180910390a15050565b600b818154811061044b57fe5b906000526020600020016000915090508060000154905081565b600760008381526020019081526020016000205460036000858152602001908152602001600020600101541461049a57600080fd5b6104a2610bbd565b6003600085815260200190815260200160002060405180608001604052908160008201548152602001600182015481526020016002820160009054906101000a900460ff161515151581526020016003820160405180606001604052908160008201548152602001600182015481526020016002820160009054906101000a900467ffffffffffffffff1667ffffffffffffffff1667ffffffffffffffff16815250508152505090506001816040019015159081151581525050826006600083606001516000015181526020019081526020016000208190555060096000848152602001908152602001600020600081548092919060010191905055508183857f612c500cbd8f1ed8a4643cbf6b41fda92203645d7e4f7c3a237a1be69565ea2c60405160405180910390a450505050565b6105dc610bbd565b6105e4610bbd565b6003600084815260200190815260200160002060405180608001604052908160008201548152602001600182015481526020016002820160009054906101000a900460ff161515151581526020016003820160405180606001604052908160008201548152602001600182015481526020016002820160009054906101000a900467ffffffffffffffff1667ffffffffffffffff1667ffffffffffffffff168152505081525050905080915050919050565b600c81815481106106a357fe5b90600052602060002090600302016000915090508060000154908060010154908060020154905083565b600060606106da8361087a565b9050600080600090505b825181101561072957600960008483815181106106fd57fe5b6020026020010151600001518152602001908152602001600020548201915080806001019150506106e4565b508092505050919050565b80600760008481526020019081526020016000208190555060086000828152602001908152602001600020600081548092919060010191905055505050565b61077b610bed565b60056000848152602001908152602001600020604051806060016040529081600082015481526020016001820154815260200160028201548152505090504281602001818152505081816040018181525050505050565b6107dc828261097e565b5050565b600a81815481106107ed57fe5b90600052602060002090600602016000915090508060000154908060010154908060020160009054906101000a900460ff16908060030160405180606001604052908160008201548152602001600182015481526020016002820160009054906101000a900467ffffffffffffffff1667ffffffffffffffff1667ffffffffffffffff1681525050905084565b60608060086000848152602001908152602001600020546040519080825280602002602001820160405280156108ca57816020015b6108b7610c0e565b8152602001906001900390816108af5790505b509050600080905060008090505b600b80549050811015610973578460076000600b84815481106108f757fe5b9060005260206000200160000154815260200190815260200160002054141561096657600b818154811061092757fe5b9060005260206000200160405180602001604052908160008201548152505083838151811061095257fe5b602002602001018190525081806001019250505b80806001019150506108d8565b508192505050919050565b60006001600a6040518060800160405280868152602001858152602001600015158152602001600060405180606001604052908160008201548152602001600182015481526020016002820160009054906101000a900467ffffffffffffffff1667ffffffffffffffff1667ffffffffffffffff168152505081525090806001815401808255809150509060018203906000526020600020906006020160009091929091909150600082015181600001556020820151816001015560408201518160020160006101000a81548160ff021916908315150217905550606082015181600301600082015181600001556020820151816001015560408201518160020160006101000a81548167ffffffffffffffff021916908367ffffffffffffffff16021790555050505050039050600a8181548110610ab957fe5b90600052602060002090600602016003600085815260200190815260200160002060008201548160000155600182015481600101556002820160009054906101000a900460ff168160020160006101000a81548160ff021916908315150217905550600382018160030160008201548160000155600182015481600101556002820160009054906101000a900467ffffffffffffffff168160020160006101000a81548167ffffffffffffffff021916908367ffffffffffffffff16021790555050509050507fa3b64c0b425d624b0d6d9f67d76ababb5e56dc10ef01de027c343a09fefdfb5d8383604051610bb0929190610f59565b60405180910390a1505050565b6040518060c001604052806000815260200160008152602001600015158152602001610be7610c21565b81525090565b60405180606001604052806000815260200160008152602001600081525090565b6040518060200160405280600081525090565b60405180606001604052806000801916815260200160008152602001600067ffffffffffffffff1681525090565b600081359050610c5e81611093565b92915050565b600081359050610c73816110aa565b92915050565b600060208284031215610c8b57600080fd5b6000610c9984828501610c64565b91505092915050565b60008060408385031215610cb557600080fd5b6000610cc385828601610c64565b9250506020610cd485828601610c64565b9150509250929050565b600080600060608486031215610cf357600080fd5b6000610d0186828701610c64565b9350506020610d1286828701610c64565b9250506040610d2386828701610c4f565b9150509250925092565b6000610d398383610dd0565b60208301905092915050565b6000610d5082611026565b610d5a818561103e565b9350610d6583611019565b8060005b83811015610d96578151610d7d8882610d2d565b9750610d8883611031565b925050600181019050610d69565b5085935050505092915050565b610dac8161104f565b82525050565b610dbb8161104f565b82525050565b610dca8161105b565b82525050565b602082016000820151610de66000850182610ec5565b50505050565b606082016000820151610e026000850182610dc1565b506020820151610e156020850182610ec5565b506040820151610e286040850182610ef2565b50505050565b606082016000820151610e446000850182610dc1565b506020820151610e576020850182610ec5565b506040820151610e6a6040850182610ef2565b50505050565b60c082016000820151610e866000850182610ec5565b506020820151610e996020850182610ec5565b506040820151610eac6040850182610da3565b506060820151610ebf6060850182610dec565b50505050565b610ece81611065565b82525050565b610edd81611065565b82525050565b610eec8161106f565b82525050565b610efb8161107f565b82525050565b60006020820190508181036000830152610f1b8184610d45565b905092915050565b600060c082019050610f386000830184610e70565b92915050565b6000602082019050610f536000830184610ed4565b92915050565b6000604082019050610f6e6000830185610ed4565b610f7b6020830184610ed4565b9392505050565b600060c082019050610f976000830187610ed4565b610fa46020830186610ed4565b610fb16040830185610db2565b610fbe6060830184610e2e565b95945050505050565b6000606082019050610fdc6000830186610ed4565b610fe96020830185610ed4565b610ff66040830184610ed4565b949350505050565b60006020820190506110136000830184610ee3565b92915050565b6000602082019050919050565b600081519050919050565b6000602082019050919050565b600082825260208201905092915050565b60008115159050919050565b6000819050919050565b6000819050919050565b600063ffffffff82169050919050565b600067ffffffffffffffff82169050919050565b61109c8161105b565b81146110a757600080fd5b50565b6110b381611065565b81146110be57600080fd5b5056fea265627a7a723058202c9c0ab54ac1f4e2db8d1a6d3ac9842b899356fc7013af35b2e02e46085572f96c6578706572696d656e74616cf50037",
  "source": "pragma solidity ^0.5.0;\npragma experimental ABIEncoderV2;\nimport './ResultHelper.sol';\n\ncontract Authorizer is ResultHelper {\n    function register(uint256 _id, uint256 _constituencyId) external {\n        createVoter(_id, _constituencyId);\n    }\n\n    function login(uint256 _id) public returns(Voter memory) {\n        Voter memory _voter = idToVoter[_id];\n        return _voter;\n    }\n}",
  "sourcePath": "/home/d3mon/Projects/sudo-rm--rf/contracts/Authorizer.sol",
  "compiler": {
    "name": "solc",
    "version": "0.5.8+commit.23d335f2.Emscripten.clang"
  },
  "schemaVersion": "3.0.11",
  "updatedAt": "2019-08-19T12:21:06.304Z",
  "devdoc": {
    "methods": {}
  },
  "userdoc": {
    "methods": {}
  }
}