{
  "contractName": "Authorizer",
  "abi": [
    {
      "constant": false,
      "inputs": [
        {
          "name": "_id",
          "type": "uint256"
        }
      ],
      "name": "registerCandidate",
      "outputs": [],
      "payable": false,
      "stateMutability": "nonpayable",
      "type": "function"
    },
    {
      "constant": false,
      "inputs": [
        {
          "name": "_id",
          "type": "uint256"
        }
      ],
      "name": "registerConstituency",
      "outputs": [],
      "payable": false,
      "stateMutability": "nonpayable",
      "type": "function"
    },
    {
      "constant": true,
      "inputs": [
        {
          "name": "",
          "type": "uint256"
        }
      ],
      "name": "candidates",
      "outputs": [
        {
          "name": "_id",
          "type": "uint256"
        }
      ],
      "payable": false,
      "stateMutability": "view",
      "type": "function"
    },
    {
      "constant": true,
      "inputs": [
        {
          "name": "",
          "type": "uint256"
        }
      ],
      "name": "constituencies",
      "outputs": [
        {
          "name": "_id",
          "type": "uint256"
        },
        {
          "name": "_startTime",
          "type": "uint256"
        },
        {
          "name": "_duration",
          "type": "uint256"
        }
      ],
      "payable": false,
      "stateMutability": "view",
      "type": "function"
    },
    {
      "constant": true,
      "inputs": [
        {
          "name": "",
          "type": "uint256"
        }
      ],
      "name": "voters",
      "outputs": [
        {
          "name": "_id",
          "type": "uint256"
        },
        {
          "name": "_constituencyId",
          "type": "uint256"
        },
        {
          "name": "_hasVoted",
          "type": "bool"
        },
        {
          "components": [
            {
              "name": "_voteId",
              "type": "bytes32"
            },
            {
              "name": "_votedId",
              "type": "uint256"
            },
            {
              "name": "_voteTime",
              "type": "uint64"
            }
          ],
          "name": "_vote",
          "type": "tuple"
        }
      ],
      "payable": false,
      "stateMutability": "view",
      "type": "function"
    },
    {
      "anonymous": false,
      "inputs": [
        {
          "indexed": false,
          "name": "_id",
          "type": "uint256"
        },
        {
          "indexed": false,
          "name": "_voterId",
          "type": "uint256"
        }
      ],
      "name": "VoterCreated",
      "type": "event"
    },
    {
      "anonymous": false,
      "inputs": [
        {
          "indexed": false,
          "name": "_id",
          "type": "uint256"
        }
      ],
      "name": "CandidateRegistered",
      "type": "event"
    },
    {
      "anonymous": false,
      "inputs": [
        {
          "indexed": false,
          "name": "_id",
          "type": "uint256"
        }
      ],
      "name": "ConstituencyRegistered",
      "type": "event"
    },
    {
      "constant": false,
      "inputs": [
        {
          "name": "_id",
          "type": "uint256"
        },
        {
          "name": "_constituencyId",
          "type": "uint256"
        }
      ],
      "name": "register",
      "outputs": [],
      "payable": false,
      "stateMutability": "nonpayable",
      "type": "function"
    },
    {
      "constant": false,
      "inputs": [
        {
          "name": "_id",
          "type": "uint256"
        }
      ],
      "name": "login",
      "outputs": [
        {
          "components": [
            {
              "name": "_id",
              "type": "uint256"
            },
            {
              "name": "_constituencyId",
              "type": "uint256"
            },
            {
              "name": "_hasVoted",
              "type": "bool"
            },
            {
              "components": [
                {
                  "name": "_voteId",
                  "type": "bytes32"
                },
                {
                  "name": "_votedId",
                  "type": "uint256"
                },
                {
                  "name": "_voteTime",
                  "type": "uint64"
                }
              ],
              "name": "_vote",
              "type": "tuple"
            }
          ],
          "name": "",
          "type": "tuple"
        }
      ],
      "payable": false,
      "stateMutability": "nonpayable",
      "type": "function"
    }
  ],
  "bytecode": "0x608060405260405180606001604052806000801b815260200160008152602001600067ffffffffffffffff1681525060008082015181600001556020820151816001015560408201518160020160006101000a81548167ffffffffffffffff021916908367ffffffffffffffff160217905550505034801561008057600080fd5b5061085c806100906000396000f3fe608060405234801561001057600080fd5b506004361061007d5760003560e01c80633dbfd97c1161005b5780633dbfd97c146100ea5780639209416a1461011a578063d66d6c101461014c578063da58c7d9146101685761007d565b80630b2a85ea14610082578063233f01141461009e5780633477ee2e146100ba575b600080fd5b61009c6004803603610097919081019061058d565b61019b565b005b6100b860048036036100b3919081019061058d565b610258565b005b6100d460048036036100cf919081019061058d565b610353565b6040516100e19190610740565b60405180910390f35b61010460048036036100ff919081019061058d565b61037a565b6040516101119190610725565b60405180910390f35b610134600480360361012f919081019061058d565b61043c565b604051610143939291906107a0565b60405180910390f35b610166600480360361016191908101906105b6565b610473565b005b610182600480360361017d919081019061058d565b610480565b604051610192949392919061075b565b60405180910390f35b60006001600b604051806020016040528085815250908060018154018082558091505090600182039060005260206000200160009091929091909150600082015181600001555050039050600b81815481106101f357fe5b9060005260206000200160046000848152602001908152602001600020600082015481600001559050507f43dcee486fabffa2fb551555bfaa5bfcf6a42f2d014032ccef94bf09d83855eb8260405161024c9190610740565b60405180910390a15050565b60006001600c6040518060600160405280858152602001600081526020016000815250908060018154018082558091505090600182039060005260206000209060030201600090919290919091506000820151816000015560208201518160010155604082015181600201555050039050600c81815481106102d657fe5b9060005260206000209060030201600560008481526020019081526020016000206000820154816000015560018201548160010155600282015481600201559050507f21db1a92fb8efb483c22a581ee7e282b6d79d9d43b559ee1affa341818867969826040516103479190610740565b60405180910390a15050565b600b818154811061036057fe5b906000526020600020016000915090508060000154905081565b61038261051a565b61038a61051a565b6003600084815260200190815260200160002060405180608001604052908160008201548152602001600182015481526020016002820160009054906101000a900460ff161515151581526020016003820160405180606001604052908160008201548152602001600182015481526020016002820160009054906101000a900467ffffffffffffffff1667ffffffffffffffff1667ffffffffffffffff168152505081525050905080915050919050565b600c818154811061044957fe5b90600052602060002090600302016000915090508060000154908060010154908060020154905083565b61047c8261019b565b5050565b600a818154811061048d57fe5b90600052602060002090600602016000915090508060000154908060010154908060020160009054906101000a900460ff16908060030160405180606001604052908160008201548152602001600182015481526020016002820160009054906101000a900467ffffffffffffffff1667ffffffffffffffff1667ffffffffffffffff1681525050905084565b6040518060c00160405280600081526020016000815260200160001515815260200161054461054a565b81525090565b60405180606001604052806000801916815260200160008152602001600067ffffffffffffffff1681525090565b6000813590506105878161080b565b92915050565b60006020828403121561059f57600080fd5b60006105ad84828501610578565b91505092915050565b600080604083850312156105c957600080fd5b60006105d785828601610578565b92505060206105e885828601610578565b9150509250929050565b6105fb816107d7565b82525050565b61060a816107d7565b82525050565b610619816107e3565b82525050565b6060820160008201516106356000850182610610565b50602082015161064860208501826106f8565b50604082015161065b6040850182610716565b50505050565b6060820160008201516106776000850182610610565b50602082015161068a60208501826106f8565b50604082015161069d6040850182610716565b50505050565b60c0820160008201516106b960008501826106f8565b5060208201516106cc60208501826106f8565b5060408201516106df60408501826105f2565b5060608201516106f2606085018261061f565b50505050565b610701816107ed565b82525050565b610710816107ed565b82525050565b61071f816107f7565b82525050565b600060c08201905061073a60008301846106a3565b92915050565b60006020820190506107556000830184610707565b92915050565b600060c0820190506107706000830187610707565b61077d6020830186610707565b61078a6040830185610601565b6107976060830184610661565b95945050505050565b60006060820190506107b56000830186610707565b6107c26020830185610707565b6107cf6040830184610707565b949350505050565b60008115159050919050565b6000819050919050565b6000819050919050565b600067ffffffffffffffff82169050919050565b610814816107ed565b811461081f57600080fd5b5056fea265627a7a72305820acb80f7c0cbd3b29d0d2cf63e47ac3a7e60d431b7a8debe6889807321d0b60aa6c6578706572696d656e74616cf50037",
  "source": "pragma solidity ^0.5.0;\npragma experimental ABIEncoderV2;\nimport './Election.sol';\n\ncontract Authorizer is Election {\n    function register(uint256 _id, uint256 _constituencyId) external {\n        // createVoter(_id, _constituencyId);\n        registerCandidate(_id);\n    }\n\n    function login(uint256 _id) public returns(Voter memory) {\n        Voter memory _voter = idToVoter[_id];\n        return _voter;\n    }\n}",
  "sourcePath": "/home/d3mon/Projects/sudo-rm--rf/contracts/Authorizer.sol",
  "compiler": {
    "name": "solc",
    "version": "0.5.8+commit.23d335f2.Emscripten.clang"
  },
  "schemaVersion": "3.0.11",
  "updatedAt": "2019-08-16T12:39:53.912Z",
  "devdoc": {
    "methods": {}
  },
  "userdoc": {
    "methods": {}
  }
}