{
  "contractName": "Ballot",
  "abi": [
    {
      "constant": true,
      "inputs": [
        {
          "name": "",
          "type": "uint256"
        }
      ],
      "name": "candidates",
      "outputs": [
        {
          "name": "name",
          "type": "bytes32"
        },
        {
          "name": "voteCount",
          "type": "uint256"
        },
        {
          "name": "creationDate",
          "type": "uint256"
        },
        {
          "name": "expirationDate",
          "type": "uint256"
        }
      ],
      "payable": false,
      "stateMutability": "view",
      "type": "function"
    },
    {
      "constant": true,
      "inputs": [],
      "name": "manager",
      "outputs": [
        {
          "name": "",
          "type": "address"
        }
      ],
      "payable": false,
      "stateMutability": "view",
      "type": "function"
    },
    {
      "constant": true,
      "inputs": [],
      "name": "votingDistrict",
      "outputs": [
        {
          "name": "",
          "type": "bytes32"
        }
      ],
      "payable": false,
      "stateMutability": "view",
      "type": "function"
    },
    {
      "constant": true,
      "inputs": [
        {
          "name": "",
          "type": "address"
        }
      ],
      "name": "voters",
      "outputs": [
        {
          "name": "",
          "type": "bool"
        }
      ],
      "payable": false,
      "stateMutability": "view",
      "type": "function"
    },
    {
      "inputs": [
        {
          "name": "candidateNames",
          "type": "bytes32[2]"
        },
        {
          "name": "district",
          "type": "bytes32"
        },
        {
          "name": "creator",
          "type": "address"
        },
        {
          "name": "amountOfHours",
          "type": "uint256"
        }
      ],
      "payable": false,
      "stateMutability": "nonpayable",
      "type": "constructor"
    },
    {
      "constant": false,
      "inputs": [
        {
          "name": "candidate",
          "type": "uint256"
        }
      ],
      "name": "vote",
      "outputs": [],
      "payable": false,
      "stateMutability": "nonpayable",
      "type": "function"
    },
    {
      "constant": true,
      "inputs": [
        {
          "name": "index",
          "type": "uint256"
        }
      ],
      "name": "getCandidateName",
      "outputs": [
        {
          "name": "",
          "type": "bytes32"
        }
      ],
      "payable": false,
      "stateMutability": "view",
      "type": "function"
    },
    {
      "constant": true,
      "inputs": [
        {
          "name": "index",
          "type": "uint256"
        }
      ],
      "name": "getVoteCount",
      "outputs": [
        {
          "name": "",
          "type": "uint256"
        }
      ],
      "payable": false,
      "stateMutability": "view",
      "type": "function"
    }
  ],
  "bytecode": "0x60806040523480156200001157600080fd5b5060405160a080620009ae8339810180604052620000339190810190620001f4565b81600160006101000a81548173ffffffffffffffffffffffffffffffffffffffff021916908373ffffffffffffffffffffffffffffffffffffffff1602179055508260028190555060008090505b6002811015620001265760006040518060800160405280878460028110620000a557fe5b60200201518152602001600081526020014281526020018442018152509080600181540180825580915050906001820390600052602060002090600402016000909192909190915060008201518160000155602082015181600101556040820151816002015560608201518160030155505050808060010191505062000081565b505050505062000347565b6000815190506200014281620002f9565b92915050565b600082601f8301126200015a57600080fd5b6002620001716200016b826200028e565b62000260565b915081838560208402820111156200018857600080fd5b60005b83811015620001bc5781620001a18882620001c6565b8452602084019350602083019250506001810190506200018b565b5050505092915050565b600081519050620001d78162000313565b92915050565b600081519050620001ee816200032d565b92915050565b60008060008060a085870312156200020b57600080fd5b60006200021b8782880162000148565b94505060406200022e87828801620001c6565b9350506060620002418782880162000131565b92505060806200025487828801620001dd565b91505092959194509250565b6000604051905081810181811067ffffffffffffffff821117156200028457600080fd5b8060405250919050565b600067ffffffffffffffff821115620002a657600080fd5b602082029050919050565b6000620002be82620002cf565b9050919050565b6000819050919050565b600073ffffffffffffffffffffffffffffffffffffffff82169050919050565b6000819050919050565b6200030481620002b1565b81146200031057600080fd5b50565b6200031e81620002c5565b81146200032a57600080fd5b50565b6200033881620002ef565b81146200034457600080fd5b50565b61065780620003576000396000f3fe608060405234801561001057600080fd5b506004361061007d5760003560e01c8063716c424e1161005b578063716c424e146100ef578063a3ec138d1461010d578063b2c2f2e81461013d578063e13804a71461016d5761007d565b80630121b93f146100825780633477ee2e1461009e578063481c6a75146100d1575b600080fd5b61009c60048036036100979190810190610487565b61019d565b005b6100b860048036036100b39190810190610487565b6102a7565b6040516100c8949392919061053d565b60405180910390f35b6100d96102e4565b6040516100e691906104ec565b60405180910390f35b6100f761030a565b6040516101049190610522565b60405180910390f35b6101276004803603610122919081019061045e565b610310565b6040516101349190610507565b60405180910390f35b61015760048036036101529190810190610487565b610330565b6040516101649190610582565b60405180910390f35b61018760048036036101829190810190610487565b6103b2565b6040516101949190610522565b60405180910390f35b600360003373ffffffffffffffffffffffffffffffffffffffff1673ffffffffffffffffffffffffffffffffffffffff16815260200190815260200160002060009054906101000a900460ff16156101f457600080fd5b6000818154811061020157fe5b90600052602060002090600402016003015442111561021f57600080fd5b60016000828154811061022e57fe5b9060005260206000209060040201600101600082825401925050819055506001600360003373ffffffffffffffffffffffffffffffffffffffff1673ffffffffffffffffffffffffffffffffffffffff16815260200190815260200160002060006101000a81548160ff02191690831515021790555050565b600081815481106102b457fe5b90600052602060002090600402016000915090508060000154908060010154908060020154908060030154905084565b600160009054906101000a900473ffffffffffffffffffffffffffffffffffffffff1681565b60025481565b60036020528060005260406000206000915054906101000a900460ff1681565b6000600160009054906101000a900473ffffffffffffffffffffffffffffffffffffffff1673ffffffffffffffffffffffffffffffffffffffff163373ffffffffffffffffffffffffffffffffffffffff161461038c57600080fd5b6000828154811061039957fe5b9060005260206000209060040201600101549050919050565b6000600160009054906101000a900473ffffffffffffffffffffffffffffffffffffffff1673ffffffffffffffffffffffffffffffffffffffff163373ffffffffffffffffffffffffffffffffffffffff161461040e57600080fd5b6000828154811061041b57fe5b9060005260206000209060040201600001549050919050565b600081359050610443816105ef565b92915050565b60008135905061045881610606565b92915050565b60006020828403121561047057600080fd5b600061047e84828501610434565b91505092915050565b60006020828403121561049957600080fd5b60006104a784828501610449565b91505092915050565b6104b98161059d565b82525050565b6104c8816105af565b82525050565b6104d7816105bb565b82525050565b6104e6816105e5565b82525050565b600060208201905061050160008301846104b0565b92915050565b600060208201905061051c60008301846104bf565b92915050565b600060208201905061053760008301846104ce565b92915050565b600060808201905061055260008301876104ce565b61055f60208301866104dd565b61056c60408301856104dd565b61057960608301846104dd565b95945050505050565b600060208201905061059760008301846104dd565b92915050565b60006105a8826105c5565b9050919050565b60008115159050919050565b6000819050919050565b600073ffffffffffffffffffffffffffffffffffffffff82169050919050565b6000819050919050565b6105f88161059d565b811461060357600080fd5b50565b61060f816105e5565b811461061a57600080fd5b5056fea265627a7a723058206d6fa6e11acca13ea2f76d8ed774cdd1bda6e4b633dd12c0efeaedf5f88ff58c6c6578706572696d656e74616cf50037",
  "source": "pragma solidity ^0.5.0;\npragma experimental ABIEncoderV2;\n\ncontract Election{\n\n  event VoterCreated(uint256 _id, uint256 _voterId);\n  event CandidateRegistered(uint256 _id);\n\n  struct Vote {\n    bytes32 _voteId;\n    uint256 _votedId;\n    uint64 _voteTime;\n  }\n\n  struct Voter {\n    uint256 _id;\n    uint256 _constituencyId;\n    bool _hasVoted;\n    Vote _vote;\n  }\n\n  struct Candidate {\n    uint256 _id;\n  }\n\n  Vote InitialVoteState = Vote(0, 0, 0);\n  uint256 StartTime = 0;\n  uint256 ElectionDuration = 0; \n\n  mapping(uint256 => Voter) internal idToVoter;\n  mapping(uint256 => Candidate) internal idToCandidate;\n  mapping(bytes32 => uint256) internal voteToCandidate;\n  mapping(uint256 => uint256) internal candidateToConstituency;\n  mapping(uint256 => uint256) internal constituencyCandidateCount;\n  mapping(uint256 => uint256) internal candidateVoteCount;\n\n  Voter[] public voters;\n  Candidate[] public candidates;\n\n  function createVoter(uint256 _id, uint256 _voterId) external {\n    uint id = voters.push(Voter(_id, _voterId, false, InitialVoteState)) - 1;\n    idToVoter[_id] = voters[id];\n    emit VoterCreated(_id, _voterId);\n  }\n\n  function registerCandidate(uint256 _id) external {\n    uint id = candidates.push(Candidate(_id)) - 1;\n    idToCandidate[_id] = candidates[id];\n    emit CandidateRegistered(_id);\n  }\n}\n\ncontract Ballot {\n  struct Candidates {\n    bytes32 name;\n    uint voteCount;\n    uint creationDate;\n    uint expirationDate;\n  }\n  Candidates[] public candidates;\n  address public manager;\n  bytes32 public votingDistrict;\n  mapping(address => bool) public voters;\n  modifier restricted() {\n    require(msg.sender == manager);\n    _;\n  }\n  constructor (bytes32[2] memory candidateNames, bytes32 district, address creator, uint amountOfHours) public {\n    manager = creator;\n    votingDistrict = district;\n    for (uint i = 0; i < candidateNames.length; i++) {\n      candidates.push(Candidates({ name: candidateNames[i],\n                                   voteCount: 0,\n                                   creationDate: now,\n                                   expirationDate: now + amountOfHours\n      }));\n    }\n  }\n\n  function vote(uint candidate) public{\n    require(!voters[msg.sender]);\n    if(now > candidates[candidate].expirationDate){\n      revert();\n    }\n    candidates[candidate].voteCount += 1;\n    voters[msg.sender] = true;\n  }\n\n  function getCandidateName(uint index) public restricted view returns (bytes32) {\n    // require(now > candidates[candidate].expirationDate);\n    return candidates[index].name;\n  }\n  function getVoteCount(uint index) public restricted view returns (uint) {\n    // require(now > candidates[candidate].expirationDate);\n    return candidates[index].voteCount;\n  }\n}",
  "sourcePath": "/home/d3mon/Projects/sudo-rm--rf/contracts/Election.sol",
  "compiler": {
    "name": "solc",
    "version": "0.5.8+commit.23d335f2.Emscripten.clang"
  },
  "schemaVersion": "3.0.11",
  "updatedAt": "2019-07-27T14:08:20.141Z",
  "devdoc": {
    "methods": {}
  },
  "userdoc": {
    "methods": {}
  }
}