{
  "contractName": "ElectionHelper",
  "abi": [
    {
      "constant": false,
      "inputs": [
        {
          "name": "_id",
          "type": "uint256"
        }
      ],
      "name": "registerCandidate",
      "outputs": [],
      "payable": false,
      "stateMutability": "nonpayable",
      "type": "function"
    },
    {
      "constant": false,
      "inputs": [
        {
          "name": "_id",
          "type": "uint256"
        }
      ],
      "name": "registerConstituency",
      "outputs": [],
      "payable": false,
      "stateMutability": "nonpayable",
      "type": "function"
    },
    {
      "anonymous": false,
      "inputs": [
        {
          "indexed": false,
          "name": "_id",
          "type": "uint256"
        },
        {
          "indexed": false,
          "name": "_voterId",
          "type": "uint256"
        }
      ],
      "name": "VoterCreated",
      "type": "event"
    },
    {
      "anonymous": false,
      "inputs": [
        {
          "indexed": false,
          "name": "_id",
          "type": "uint256"
        }
      ],
      "name": "CandidateRegistered",
      "type": "event"
    },
    {
      "anonymous": false,
      "inputs": [
        {
          "indexed": false,
          "name": "_id",
          "type": "uint256"
        }
      ],
      "name": "ConstituencyRegistered",
      "type": "event"
    },
    {
      "constant": false,
      "inputs": [
        {
          "name": "_id",
          "type": "uint256"
        },
        {
          "name": "_duration",
          "type": "uint256"
        }
      ],
      "name": "generateElectionforConstituency",
      "outputs": [],
      "payable": false,
      "stateMutability": "nonpayable",
      "type": "function"
    },
    {
      "constant": true,
      "inputs": [
        {
          "name": "_constituencyId",
          "type": "uint256"
        }
      ],
      "name": "getCandidatesByConstituency",
      "outputs": [
        {
          "components": [
            {
              "name": "_id",
              "type": "uint256"
            }
          ],
          "name": "",
          "type": "tuple[]"
        }
      ],
      "payable": false,
      "stateMutability": "view",
      "type": "function"
    }
  ],
  "bytecode": "0x608060405260405180606001604052806000801b815260200160008152602001600067ffffffffffffffff1681525060008082015181600001556020820151816001015560408201518160020160006101000a81548167ffffffffffffffff021916908367ffffffffffffffff160217905550505034801561008057600080fd5b5061061c806100906000396000f3fe608060405234801561001057600080fd5b506004361061004c5760003560e01c80630b2a85ea14610051578063233f01141461006d578063d59d48d414610089578063f9ed8067146100a5575b600080fd5b61006b60048036036100669190810190610439565b6100d5565b005b61008760048036036100829190810190610439565b610192565b005b6100a3600480360361009e9190810190610462565b61028d565b005b6100bf60048036036100ba9190810190610439565b6102ec565b6040516100cc919061054e565b60405180910390f35b60006001600b604051806020016040528085815250908060018154018082558091505090600182039060005260206000200160009091929091909150600082015181600001555050039050600b818154811061012d57fe5b9060005260206000200160046000848152602001908152602001600020600082015481600001559050507f43dcee486fabffa2fb551555bfaa5bfcf6a42f2d014032ccef94bf09d83855eb826040516101869190610570565b60405180910390a15050565b60006001600c6040518060600160405280858152602001600081526020016000815250908060018154018082558091505090600182039060005260206000209060030201600090919290919091506000820151816000015560208201518160010155604082015181600201555050039050600c818154811061021057fe5b9060005260206000209060030201600560008481526020019081526020016000206000820154816000015560018201548160010155600282015481600201559050507f21db1a92fb8efb483c22a581ee7e282b6d79d9d43b559ee1affa341818867969826040516102819190610570565b60405180910390a15050565b6102956103f0565b60056000848152602001908152602001600020604051806060016040529081600082015481526020016001820154815260200160028201548152505090504281602001818152505081816040018181525050505050565b606080600860008481526020019081526020016000205460405190808252806020026020018201604052801561033c57816020015b610329610411565b8152602001906001900390816103215790505b509050600080905060008090505b600b805490508110156103e5578460076000600b848154811061036957fe5b906000526020600020016000015481526020019081526020016000205414156103d857600b818154811061039957fe5b906000526020600020016040518060200160405290816000820154815250508383815181106103c457fe5b602002602001018190525081806001019250505b808060010191505061034a565b508192505050919050565b60405180606001604052806000815260200160008152602001600081525090565b6040518060200160405280600081525090565b600081359050610433816105cb565b92915050565b60006020828403121561044b57600080fd5b600061045984828501610424565b91505092915050565b6000806040838503121561047557600080fd5b600061048385828601610424565b925050602061049485828601610424565b9150509250929050565b60006104aa8383610514565b60208301905092915050565b60006104c182610598565b6104cb81856105b0565b93506104d68361058b565b8060005b838110156105075781516104ee888261049e565b97506104f9836105a3565b9250506001810190506104da565b5085935050505092915050565b60208201600082015161052a6000850182610530565b50505050565b610539816105c1565b82525050565b610548816105c1565b82525050565b6000602082019050818103600083015261056881846104b6565b905092915050565b6000602082019050610585600083018461053f565b92915050565b6000602082019050919050565b600081519050919050565b6000602082019050919050565b600082825260208201905092915050565b6000819050919050565b6105d4816105c1565b81146105df57600080fd5b5056fea265627a7a723058204e984ecf0d6e92ccfacbe61beeaf41411b01ba9bf374e58ba0158499528071116c6578706572696d656e74616cf50037",
  "source": "pragma solidity ^0.5.0;\npragma experimental ABIEncoderV2;\nimport \"./Election.sol\";\n\ncontract ElectionHelper is Election {\n\n    function generateElectionforConstituency(uint256 _id, uint256 _duration) external {\n        Constituency memory _constituency = idToConstituency[_id];\n        _constituency._startTime = block.timestamp;\n        _constituency._duration = _duration;\n    }\n\n    function assignCandidateToConstituency(uint256 _id, uint256 _constituencyId) private {\n        candidateToConstituency[_id] = _constituencyId;\n        constituencyCandidateCount[_constituencyId]++;\n    }\n\n    function getCandidatesByConstituency(uint256 _constituencyId) public view returns(Candidate[] memory) {\n        Candidate[] memory _candidates = new Candidate[](constituencyCandidateCount[_constituencyId]);\n        uint counter = 0;\n        for(uint i = 0; i < candidates.length; i++) {\n            if(candidateToConstituency[candidates[i]._id] == _constituencyId) {\n            _candidates[counter] = candidates[i];\n            counter++;\n        }\n    }\n\n        return _candidates;\n    }\n}",
  "sourcePath": "/home/d3mon/Projects/sudo-rm--rf/contracts/ElectionHelper.sol",
  "compiler": {
    "name": "solc",
    "version": "0.5.8+commit.23d335f2.Emscripten.clang"
  },
  "schemaVersion": "3.0.11",
  "updatedAt": "2019-08-12T08:16:19.431Z",
  "devdoc": {
    "methods": {}
  },
  "userdoc": {
    "methods": {}
  }
}