{
  "contractName": "Election",
  "abi": [
    {
      "constant": true,
      "inputs": [
        {
          "name": "",
          "type": "uint256"
        }
      ],
      "name": "deployedBallots",
      "outputs": [
        {
          "name": "",
          "type": "address"
        }
      ],
      "payable": false,
      "stateMutability": "view",
      "type": "function"
    },
    {
      "inputs": [],
      "payable": false,
      "stateMutability": "nonpayable",
      "type": "constructor"
    },
    {
      "constant": true,
      "inputs": [],
      "name": "getDeployedBallots",
      "outputs": [
        {
          "name": "",
          "type": "address[]"
        }
      ],
      "payable": false,
      "stateMutability": "view",
      "type": "function"
    }
  ],
  "bytecode": "0x608060405234801561001057600080fd5b50610019610215565b60405180604001604052807f737562680000000000000000000000000000000000000000000000000000000081526020017f616d6d6d000000000000000000000000000000000000000000000000000000008152509050610078610215565b60405180604001604052807f616d69746869000000000000000000000000000000000000000000000000000081526020017f726169626172656c690000000000000000000000000000000000000000000000815250905060006001905060008090505b600281101561020c576000848483600281106100f357fe5b6020020151338560405161010690610237565b8085600260200280838360005b8381101561012e578082015181840152602081019050610113565b505050509050018481526020018373ffffffffffffffffffffffffffffffffffffffff1673ffffffffffffffffffffffffffffffffffffffff168152602001828152602001945050505050604051809103906000f080158015610195573d6000803e3d6000fd5b50905060008190806001815401808255809150509060018203906000526020600020016000909192909190916101000a81548173ffffffffffffffffffffffffffffffffffffffff021916908373ffffffffffffffffffffffffffffffffffffffff160217905550505080806001019150506100db565b50505050610244565b6040518060400160405280600290602082028038833980820191505090505090565b6106718061045183390190565b6101fe806102536000396000f3fe608060405234801561001057600080fd5b50600436106100365760003560e01c80639b935abf1461003b578063cdf74c3e1461009a575b600080fd5b610043610108565b6040518080602001828103825283818151815260200191508051906020019060200280838360005b8381101561008657808201518184015260208101905061006b565b505050509050019250505060405180910390f35b6100c6600480360360208110156100b057600080fd5b8101908080359060200190929190505050610196565b604051808273ffffffffffffffffffffffffffffffffffffffff1673ffffffffffffffffffffffffffffffffffffffff16815260200191505060405180910390f35b6060600080548060200260200160405190810160405280929190818152602001828054801561018c57602002820191906000526020600020905b8160009054906101000a900473ffffffffffffffffffffffffffffffffffffffff1673ffffffffffffffffffffffffffffffffffffffff1681526020019060010190808311610142575b5050505050905090565b600081815481106101a357fe5b906000526020600020016000915054906101000a900473ffffffffffffffffffffffffffffffffffffffff168156fea165627a7a72305820421621c7477686f91063e76056103c568bb619986f9754890bf603a3a2ea3fc00029608060405234801561001057600080fd5b5060405160a080610671833981018060405260a081101561003057600080fd5b8101908091908260400180519060200190929190805190602001909291908051906020019092919050505081600160006101000a81548173ffffffffffffffffffffffffffffffffffffffff021916908373ffffffffffffffffffffffffffffffffffffffff1602179055508260028190555060008090505b600281101561014b57600060405180608001604052808784600281106100cb57fe5b6020020151815260200160008152602001428152602001844201815250908060018154018082558091505090600182039060005260206000209060040201600090919290919091506000820151816000015560208201518160010155604082015181600201556060820151816003015550505080806001019150506100a9565b50505050506105128061015f6000396000f3fe608060405234801561001057600080fd5b506004361061007d5760003560e01c8063716c424e1161005b578063716c424e14610151578063a3ec138d1461016f578063b2c2f2e8146101cb578063e13804a71461020d5761007d565b80630121b93f146100825780633477ee2e146100b0578063481c6a7514610107575b600080fd5b6100ae6004803603602081101561009857600080fd5b810190808035906020019092919050505061024f565b005b6100dc600480360360208110156100c657600080fd5b8101908080359060200190929190505050610359565b6040518085815260200184815260200183815260200182815260200194505050505060405180910390f35b61010f610396565b604051808273ffffffffffffffffffffffffffffffffffffffff1673ffffffffffffffffffffffffffffffffffffffff16815260200191505060405180910390f35b6101596103bc565b6040518082815260200191505060405180910390f35b6101b16004803603602081101561018557600080fd5b81019080803573ffffffffffffffffffffffffffffffffffffffff1690602001909291905050506103c2565b604051808215151515815260200191505060405180910390f35b6101f7600480360360208110156101e157600080fd5b81019080803590602001909291905050506103e2565b6040518082815260200191505060405180910390f35b6102396004803603602081101561022357600080fd5b8101908080359060200190929190505050610464565b6040518082815260200191505060405180910390f35b600360003373ffffffffffffffffffffffffffffffffffffffff1673ffffffffffffffffffffffffffffffffffffffff16815260200190815260200160002060009054906101000a900460ff16156102a657600080fd5b600081815481106102b357fe5b9060005260206000209060040201600301544211156102d157600080fd5b6001600082815481106102e057fe5b9060005260206000209060040201600101600082825401925050819055506001600360003373ffffffffffffffffffffffffffffffffffffffff1673ffffffffffffffffffffffffffffffffffffffff16815260200190815260200160002060006101000a81548160ff02191690831515021790555050565b6000818154811061036657fe5b90600052602060002090600402016000915090508060000154908060010154908060020154908060030154905084565b600160009054906101000a900473ffffffffffffffffffffffffffffffffffffffff1681565b60025481565b60036020528060005260406000206000915054906101000a900460ff1681565b6000600160009054906101000a900473ffffffffffffffffffffffffffffffffffffffff1673ffffffffffffffffffffffffffffffffffffffff163373ffffffffffffffffffffffffffffffffffffffff161461043e57600080fd5b6000828154811061044b57fe5b9060005260206000209060040201600101549050919050565b6000600160009054906101000a900473ffffffffffffffffffffffffffffffffffffffff1673ffffffffffffffffffffffffffffffffffffffff163373ffffffffffffffffffffffffffffffffffffffff16146104c057600080fd5b600082815481106104cd57fe5b906000526020600020906004020160000154905091905056fea165627a7a72305820609ec4c5179a44eafaa4ca111e15f04d0bc4548c149ec26b36367f7385a65c800029",
  "source": "pragma solidity ^0.5.0;\n\ncontract Election{\n\n  address[] public deployedBallots;\n  // constructor (bytes32[] memory candidates, bytes32[] memory district, uint hour) public {\n  constructor () public {\n    bytes32[2] memory candidates = [bytes32(\"subh\"), bytes32(\"ammm\")];\n    bytes32[2] memory district = [bytes32(\"amithi\"), bytes32(\"raibareli\")];\n    uint hour = uint(1);\n    for(uint i = 0; i < district.length; i++){\n      address ballot = address(new Ballot(candidates,district[i], msg.sender, hour));\n      deployedBallots.push(ballot);\n    }\n  }\n  function getDeployedBallots() public view returns(address[] memory) {\n    return deployedBallots;\n  }\n}\n\ncontract Ballot {\n  struct Candidates {\n    bytes32 name;\n    uint voteCount;\n    uint creationDate;\n    uint expirationDate;\n  }\n  Candidates[] public candidates;\n  address public manager;\n  bytes32 public votingDistrict;\n  mapping(address => bool) public voters;\n  modifier restricted() {\n    require(msg.sender == manager);\n    _;\n  }\n  constructor (bytes32[2] memory candidateNames, bytes32 district, address creator, uint amountOfHours) public {\n    manager = creator;\n    votingDistrict = district;\n    for (uint i = 0; i < candidateNames.length; i++) {\n      candidates.push(Candidates({ name: candidateNames[i],\n                                   voteCount: 0,\n                                   creationDate: now,\n                                   expirationDate: now + amountOfHours\n      }));\n    }\n  }\n\n  function vote(uint candidate) public{\n    require(!voters[msg.sender]);\n    if(now > candidates[candidate].expirationDate){\n      revert();\n    }\n    candidates[candidate].voteCount += 1;\n    voters[msg.sender] = true;\n  }\n\n  function getCandidateName(uint index) public restricted view returns (bytes32) {\n    // require(now > candidates[candidate].expirationDate);\n    return candidates[index].name;\n  }\n  function getVoteCount(uint index) public restricted view returns (uint) {\n    // require(now > candidates[candidate].expirationDate);\n    return candidates[index].voteCount;\n  }\n}",
  "sourcePath": "/home/d3mon/Projects/sudo-rm--rf/contracts/Election.sol",
  "compiler": {
    "name": "solc",
    "version": "0.5.8+commit.23d335f2.Emscripten.clang"
  },
  "schemaVersion": "3.0.11",
  "updatedAt": "2019-07-26T08:14:08.556Z",
  "devdoc": {
    "methods": {}
  },
  "userdoc": {
    "methods": {}
  }
}