{
  "contractName": "ElectionHelper",
  "abi": [
    {
      "constant": false,
      "inputs": [
        {
          "name": "_id",
          "type": "uint256"
        }
      ],
      "name": "registerCandidate",
      "outputs": [],
      "payable": false,
      "stateMutability": "nonpayable",
      "type": "function"
    },
    {
      "constant": false,
      "inputs": [
        {
          "name": "_id",
          "type": "uint256"
        }
      ],
      "name": "registerConstituency",
      "outputs": [],
      "payable": false,
      "stateMutability": "nonpayable",
      "type": "function"
    },
    {
      "constant": true,
      "inputs": [
        {
          "name": "",
          "type": "uint256"
        }
      ],
      "name": "candidates",
      "outputs": [
        {
          "name": "_id",
          "type": "uint256"
        }
      ],
      "payable": false,
      "stateMutability": "view",
      "type": "function"
    },
    {
      "constant": true,
      "inputs": [
        {
          "name": "",
          "type": "uint256"
        }
      ],
      "name": "constituencies",
      "outputs": [
        {
          "name": "_id",
          "type": "uint256"
        },
        {
          "name": "_startTime",
          "type": "uint256"
        },
        {
          "name": "_duration",
          "type": "uint256"
        }
      ],
      "payable": false,
      "stateMutability": "view",
      "type": "function"
    },
    {
      "constant": true,
      "inputs": [
        {
          "name": "",
          "type": "uint256"
        }
      ],
      "name": "voters",
      "outputs": [
        {
          "name": "_id",
          "type": "uint256"
        },
        {
          "name": "_constituencyId",
          "type": "uint256"
        },
        {
          "name": "_hasVoted",
          "type": "bool"
        },
        {
          "components": [
            {
              "name": "_voteId",
              "type": "bytes32"
            },
            {
              "name": "_votedId",
              "type": "uint256"
            },
            {
              "name": "_voteTime",
              "type": "uint64"
            }
          ],
          "name": "_vote",
          "type": "tuple"
        }
      ],
      "payable": false,
      "stateMutability": "view",
      "type": "function"
    },
    {
      "anonymous": false,
      "inputs": [
        {
          "indexed": false,
          "name": "_id",
          "type": "uint256"
        },
        {
          "indexed": false,
          "name": "_voterId",
          "type": "uint256"
        }
      ],
      "name": "VoterCreated",
      "type": "event"
    },
    {
      "anonymous": false,
      "inputs": [
        {
          "indexed": false,
          "name": "_id",
          "type": "uint256"
        }
      ],
      "name": "CandidateRegistered",
      "type": "event"
    },
    {
      "anonymous": false,
      "inputs": [
        {
          "indexed": false,
          "name": "_id",
          "type": "uint256"
        }
      ],
      "name": "ConstituencyRegistered",
      "type": "event"
    },
    {
      "constant": false,
      "inputs": [
        {
          "name": "_id",
          "type": "uint256"
        },
        {
          "name": "_duration",
          "type": "uint256"
        }
      ],
      "name": "generateElectionforConstituency",
      "outputs": [],
      "payable": false,
      "stateMutability": "nonpayable",
      "type": "function"
    },
    {
      "constant": true,
      "inputs": [
        {
          "name": "_constituencyId",
          "type": "uint256"
        }
      ],
      "name": "getCandidatesByConstituency",
      "outputs": [
        {
          "components": [
            {
              "name": "_id",
              "type": "uint256"
            }
          ],
          "name": "",
          "type": "tuple[]"
        }
      ],
      "payable": false,
      "stateMutability": "view",
      "type": "function"
    }
  ],
  "bytecode": "0x608060405260405180606001604052806000801b815260200160008152602001600067ffffffffffffffff1681525060008082015181600001556020820151816001015560408201518160020160006101000a81548167ffffffffffffffff021916908367ffffffffffffffff160217905550505034801561008057600080fd5b506108ef806100906000396000f3fe608060405234801561001057600080fd5b506004361061007d5760003560e01c80639209416a1161005b5780639209416a146100ea578063d59d48d41461011c578063da58c7d914610138578063f9ed80671461016b5761007d565b80630b2a85ea14610082578063233f01141461009e5780633477ee2e146100ba575b600080fd5b61009c600480360361009791908101906105f7565b61019b565b005b6100b860048036036100b391908101906105f7565b610258565b005b6100d460048036036100cf91908101906105f7565b610353565b6040516100e1919061079d565b60405180910390f35b61010460048036036100ff91908101906105f7565b61037a565b604051610113939291906107fd565b60405180910390f35b61013660048036036101319190810190610620565b6103b1565b005b610152600480360361014d91908101906105f7565b610410565b60405161016294939291906107b8565b60405180910390f35b610185600480360361018091908101906105f7565b6104aa565b604051610192919061077b565b60405180910390f35b60006001600b604051806020016040528085815250908060018154018082558091505090600182039060005260206000200160009091929091909150600082015181600001555050039050600b81815481106101f357fe5b9060005260206000200160046000848152602001908152602001600020600082015481600001559050507f43dcee486fabffa2fb551555bfaa5bfcf6a42f2d014032ccef94bf09d83855eb8260405161024c919061079d565b60405180910390a15050565b60006001600c6040518060600160405280858152602001600081526020016000815250908060018154018082558091505090600182039060005260206000209060030201600090919290919091506000820151816000015560208201518160010155604082015181600201555050039050600c81815481106102d657fe5b9060005260206000209060030201600560008481526020019081526020016000206000820154816000015560018201548160010155600282015481600201559050507f21db1a92fb8efb483c22a581ee7e282b6d79d9d43b559ee1affa34181886796982604051610347919061079d565b60405180910390a15050565b600b818154811061036057fe5b906000526020600020016000915090508060000154905081565b600c818154811061038757fe5b90600052602060002090600302016000915090508060000154908060010154908060020154905083565b6103b96105ae565b60056000848152602001908152602001600020604051806060016040529081600082015481526020016001820154815260200160028201548152505090504281602001818152505081816040018181525050505050565b600a818154811061041d57fe5b90600052602060002090600602016000915090508060000154908060010154908060020160009054906101000a900460ff16908060030160405180606001604052908160008201548152602001600182015481526020016002820160009054906101000a900467ffffffffffffffff1667ffffffffffffffff1667ffffffffffffffff1681525050905084565b60608060086000848152602001908152602001600020546040519080825280602002602001820160405280156104fa57816020015b6104e76105cf565b8152602001906001900390816104df5790505b509050600080905060008090505b600b805490508110156105a3578460076000600b848154811061052757fe5b9060005260206000200160000154815260200190815260200160002054141561059657600b818154811061055757fe5b9060005260206000200160405180602001604052908160008201548152505083838151811061058257fe5b602002602001018190525081806001019250505b8080600101915050610508565b508192505050919050565b60405180606001604052806000815260200160008152602001600081525090565b6040518060200160405280600081525090565b6000813590506105f18161089e565b92915050565b60006020828403121561060957600080fd5b6000610617848285016105e2565b91505092915050565b6000806040838503121561063357600080fd5b6000610641858286016105e2565b9250506020610652858286016105e2565b9150509250929050565b600061066883836106f0565b60208301905092915050565b600061067f82610841565b6106898185610859565b935061069483610834565b8060005b838110156106c55781516106ac888261065c565b97506106b78361084c565b925050600181019050610698565b5085935050505092915050565b6106db8161086a565b82525050565b6106ea81610876565b82525050565b602082016000820151610706600085018261074e565b50505050565b60608201600082015161072260008501826106e1565b506020820151610735602085018261074e565b506040820151610748604085018261076c565b50505050565b61075781610880565b82525050565b61076681610880565b82525050565b6107758161088a565b82525050565b600060208201905081810360008301526107958184610674565b905092915050565b60006020820190506107b2600083018461075d565b92915050565b600060c0820190506107cd600083018761075d565b6107da602083018661075d565b6107e760408301856106d2565b6107f4606083018461070c565b95945050505050565b6000606082019050610812600083018661075d565b61081f602083018561075d565b61082c604083018461075d565b949350505050565b6000602082019050919050565b600081519050919050565b6000602082019050919050565b600082825260208201905092915050565b60008115159050919050565b6000819050919050565b6000819050919050565b600067ffffffffffffffff82169050919050565b6108a781610880565b81146108b257600080fd5b5056fea265627a7a72305820fbef3f3c8025558e17c27c308bf36f2d72f800f2b5d8e70bcf1ef11692b65b326c6578706572696d656e74616cf50037",
  "source": "pragma solidity ^0.5.0;\npragma experimental ABIEncoderV2;\nimport \"./Election.sol\";\n\ncontract ElectionHelper is Election {\n\n    function generateElectionforConstituency(uint256 _id, uint256 _duration) external {\n        Constituency memory _constituency = idToConstituency[_id];\n        _constituency._startTime = block.timestamp;\n        _constituency._duration = _duration;\n    }\n\n    function assignCandidateToConstituency(uint256 _id, uint256 _constituencyId) private {\n        candidateToConstituency[_id] = _constituencyId;\n        constituencyCandidateCount[_constituencyId]++;\n    }\n\n    function getCandidatesByConstituency(uint256 _constituencyId) public view returns(Candidate[] memory) {\n        Candidate[] memory _candidates = new Candidate[](constituencyCandidateCount[_constituencyId]);\n        uint counter = 0;\n        for(uint i = 0; i < candidates.length; i++) {\n            if(candidateToConstituency[candidates[i]._id] == _constituencyId) {\n            _candidates[counter] = candidates[i];\n            counter++;\n        }\n    }\n\n        return _candidates;\n    }\n}",
  "sourcePath": "/home/d3mon/Projects/sudo-rm--rf/contracts/ElectionHelper.sol",
  "compiler": {
    "name": "solc",
    "version": "0.5.8+commit.23d335f2.Emscripten.clang"
  },
  "schemaVersion": "3.0.11",
  "updatedAt": "2019-08-13T11:40:17.056Z",
  "devdoc": {
    "methods": {}
  },
  "userdoc": {
    "methods": {}
  }
}