{
  "contractName": "ElectionHelper",
  "abi": [
    {
      "constant": false,
      "inputs": [
        {
          "name": "_id",
          "type": "uint256"
        }
      ],
      "name": "registerCandidate",
      "outputs": [],
      "payable": false,
      "stateMutability": "nonpayable",
      "type": "function"
    },
    {
      "constant": true,
      "inputs": [
        {
          "name": "",
          "type": "uint256"
        }
      ],
      "name": "candidates",
      "outputs": [
        {
          "name": "_id",
          "type": "uint256"
        }
      ],
      "payable": false,
      "stateMutability": "view",
      "type": "function"
    },
    {
      "constant": true,
      "inputs": [
        {
          "name": "",
          "type": "uint256"
        }
      ],
      "name": "voters",
      "outputs": [
        {
          "name": "_id",
          "type": "uint256"
        },
        {
          "name": "_constituencyId",
          "type": "uint256"
        },
        {
          "name": "_hasVoted",
          "type": "bool"
        },
        {
          "components": [
            {
              "name": "_voteId",
              "type": "bytes32"
            },
            {
              "name": "_votedId",
              "type": "uint256"
            },
            {
              "name": "_voteTime",
              "type": "uint64"
            }
          ],
          "name": "_vote",
          "type": "tuple"
        }
      ],
      "payable": false,
      "stateMutability": "view",
      "type": "function"
    },
    {
      "constant": false,
      "inputs": [
        {
          "name": "_id",
          "type": "uint256"
        },
        {
          "name": "_voterId",
          "type": "uint256"
        }
      ],
      "name": "createVoter",
      "outputs": [],
      "payable": false,
      "stateMutability": "nonpayable",
      "type": "function"
    },
    {
      "anonymous": false,
      "inputs": [
        {
          "indexed": false,
          "name": "_id",
          "type": "uint256"
        },
        {
          "indexed": false,
          "name": "_voterId",
          "type": "uint256"
        }
      ],
      "name": "VoterCreated",
      "type": "event"
    },
    {
      "anonymous": false,
      "inputs": [
        {
          "indexed": false,
          "name": "_id",
          "type": "uint256"
        }
      ],
      "name": "CandidateRegistered",
      "type": "event"
    },
    {
      "constant": false,
      "inputs": [
        {
          "name": "_duration",
          "type": "uint256"
        }
      ],
      "name": "generateElection",
      "outputs": [],
      "payable": false,
      "stateMutability": "nonpayable",
      "type": "function"
    },
    {
      "constant": true,
      "inputs": [
        {
          "name": "_constituencyId",
          "type": "uint256"
        }
      ],
      "name": "getCandidatesByConstituency",
      "outputs": [
        {
          "components": [
            {
              "name": "_id",
              "type": "uint256"
            }
          ],
          "name": "",
          "type": "tuple[]"
        }
      ],
      "payable": false,
      "stateMutability": "view",
      "type": "function"
    }
  ],
  "bytecode": "0x608060405260405180606001604052806000801b815260200160008152602001600067ffffffffffffffff1681525060008082015181600001556020820151816001015560408201518160020160006101000a81548167ffffffffffffffff021916908367ffffffffffffffff16021790555050506000600355600060045534801561008a57600080fd5b506109328061009a6000396000f3fe608060405234801561001057600080fd5b50600436106100625760003560e01c80630b2a85ea146100675780633477ee2e1461008357806374e46c6e146100b3578063da58c7d9146100cf578063f4d0567114610102578063f9ed80671461011e575b600080fd5b610081600480360361007c9190810190610648565b61014e565b005b61009d60048036036100989190810190610648565b61020b565b6040516100aa91906107ee565b60405180910390f35b6100cd60048036036100c89190810190610648565b610232565b005b6100e960048036036100e49190810190610648565b610243565b6040516100f99493929190610832565b60405180910390f35b61011c60048036036101179190810190610671565b6102dd565b005b61013860048036036101339190810190610648565b61051c565b60405161014591906107cc565b60405180910390f35b60006001600c604051806020016040528085815250908060018154018082558091505090600182039060005260206000200160009091929091909150600082015181600001555050039050600c81815481106101a657fe5b9060005260206000200160066000848152602001908152602001600020600082015481600001559050507f43dcee486fabffa2fb551555bfaa5bfcf6a42f2d014032ccef94bf09d83855eb826040516101ff91906107ee565b60405180910390a15050565b600c818154811061021857fe5b906000526020600020016000915090508060000154905081565b426003819055508060048190555050565b600b818154811061025057fe5b90600052602060002090600602016000915090508060000154908060010154908060020160009054906101000a900460ff16908060030160405180606001604052908160008201548152602001600182015481526020016002820160009054906101000a900467ffffffffffffffff1667ffffffffffffffff1667ffffffffffffffff1681525050905084565b60006001600b6040518060800160405280868152602001858152602001600015158152602001600060405180606001604052908160008201548152602001600182015481526020016002820160009054906101000a900467ffffffffffffffff1667ffffffffffffffff1667ffffffffffffffff168152505081525090806001815401808255809150509060018203906000526020600020906006020160009091929091909150600082015181600001556020820151816001015560408201518160020160006101000a81548160ff021916908315150217905550606082015181600301600082015181600001556020820151816001015560408201518160020160006101000a81548167ffffffffffffffff021916908367ffffffffffffffff16021790555050505050039050600b818154811061041857fe5b90600052602060002090600602016005600085815260200190815260200160002060008201548160000155600182015481600101556002820160009054906101000a900460ff168160020160006101000a81548160ff021916908315150217905550600382018160030160008201548160000155600182015481600101556002820160009054906101000a900467ffffffffffffffff168160020160006101000a81548167ffffffffffffffff021916908367ffffffffffffffff16021790555050509050507fa3b64c0b425d624b0d6d9f67d76ababb5e56dc10ef01de027c343a09fefdfb5d838360405161050f929190610809565b60405180910390a1505050565b606080600960008481526020019081526020016000205460405190808252806020026020018201604052801561056c57816020015b610559610620565b8152602001906001900390816105515790505b509050600080905060008090505b600c80549050811015610615578460086000600c848154811061059957fe5b9060005260206000200160000154815260200190815260200160002054141561060857600c81815481106105c957fe5b906000526020600020016040518060200160405290816000820154815250508383815181106105f457fe5b602002602001018190525081806001019250505b808060010191505061057a565b508192505050919050565b6040518060200160405280600081525090565b600081359050610642816108e1565b92915050565b60006020828403121561065a57600080fd5b600061066884828501610633565b91505092915050565b6000806040838503121561068457600080fd5b600061069285828601610633565b92505060206106a385828601610633565b9150509250929050565b60006106b98383610741565b60208301905092915050565b60006106d082610884565b6106da818561089c565b93506106e583610877565b8060005b838110156107165781516106fd88826106ad565b97506107088361088f565b9250506001810190506106e9565b5085935050505092915050565b61072c816108ad565b82525050565b61073b816108b9565b82525050565b602082016000820151610757600085018261079f565b50505050565b6060820160008201516107736000850182610732565b506020820151610786602085018261079f565b50604082015161079960408501826107bd565b50505050565b6107a8816108c3565b82525050565b6107b7816108c3565b82525050565b6107c6816108cd565b82525050565b600060208201905081810360008301526107e681846106c5565b905092915050565b600060208201905061080360008301846107ae565b92915050565b600060408201905061081e60008301856107ae565b61082b60208301846107ae565b9392505050565b600060c08201905061084760008301876107ae565b61085460208301866107ae565b6108616040830185610723565b61086e606083018461075d565b95945050505050565b6000602082019050919050565b600081519050919050565b6000602082019050919050565b600082825260208201905092915050565b60008115159050919050565b6000819050919050565b6000819050919050565b600067ffffffffffffffff82169050919050565b6108ea816108c3565b81146108f557600080fd5b5056fea265627a7a72305820af0d6ca75535c45142c208aeaba860c287d7dedece7ceb464db4bbdc43bfd83c6c6578706572696d656e74616cf50037",
  "source": "pragma solidity ^0.5.0;\npragma experimental ABIEncoderV2;\nimport \"./Election.sol\";\n\ncontract ElectionHelper is Election {\n\n    function generateElection(uint256 _duration) external {\n        StartTime = block.timestamp;\n        ElectionDuration = _duration;\n    }\n\n    function assignCandidateToConstituency(uint256 _id, uint256 _constituencyId) private {\n        candidateToConstituency[_id] = _constituencyId;\n        constituencyCandidateCount[_constituencyId]++;\n    }\n\n    function getCandidatesByConstituency(uint256 _constituencyId) public view returns(Candidate[] memory) {\n        Candidate[] memory _candidates = new Candidate[](constituencyCandidateCount[_constituencyId]);\n        uint counter = 0;\n        for(uint i = 0; i < candidates.length; i++) {\n            if(candidateToConstituency[candidates[i]._id] == _constituencyId) {\n            _candidates[counter] = candidates[i];\n            counter++;\n        }\n    }\n\n        return _candidates;\n    }\n}",
  "sourcePath": "/home/d3mon/Projects/sudo-rm--rf/contracts/ElectionHelper.sol",
  "compiler": {
    "name": "solc",
    "version": "0.5.8+commit.23d335f2.Emscripten.clang"
  },
  "schemaVersion": "3.0.11",
  "updatedAt": "2019-07-27T14:08:20.146Z",
  "devdoc": {
    "methods": {}
  },
  "userdoc": {
    "methods": {}
  }
}