{
  "contractName": "Election",
  "abi": [
    {
      "constant": true,
      "inputs": [
        {
          "name": "",
          "type": "uint256"
        }
      ],
      "name": "candidates",
      "outputs": [
        {
          "name": "_id",
          "type": "uint256"
        }
      ],
      "payable": false,
      "stateMutability": "view",
      "type": "function"
    },
    {
      "constant": true,
      "inputs": [
        {
          "name": "",
          "type": "uint256"
        }
      ],
      "name": "voters",
      "outputs": [
        {
          "name": "_id",
          "type": "uint256"
        },
        {
          "name": "_constituencyId",
          "type": "uint256"
        },
        {
          "name": "_hasVoted",
          "type": "bool"
        },
        {
          "components": [
            {
              "name": "_voteId",
              "type": "bytes32"
            },
            {
              "name": "_votedId",
              "type": "uint256"
            },
            {
              "name": "_voteTime",
              "type": "uint64"
            }
          ],
          "name": "_vote",
          "type": "tuple"
        }
      ],
      "payable": false,
      "stateMutability": "view",
      "type": "function"
    },
    {
      "anonymous": false,
      "inputs": [
        {
          "indexed": false,
          "name": "_id",
          "type": "uint256"
        },
        {
          "indexed": false,
          "name": "_voterId",
          "type": "uint256"
        }
      ],
      "name": "VoterCreated",
      "type": "event"
    },
    {
      "anonymous": false,
      "inputs": [
        {
          "indexed": false,
          "name": "_id",
          "type": "uint256"
        }
      ],
      "name": "CandidateRegistered",
      "type": "event"
    },
    {
      "constant": false,
      "inputs": [
        {
          "name": "_id",
          "type": "uint256"
        },
        {
          "name": "_voterId",
          "type": "uint256"
        }
      ],
      "name": "createVoter",
      "outputs": [],
      "payable": false,
      "stateMutability": "nonpayable",
      "type": "function"
    },
    {
      "constant": false,
      "inputs": [
        {
          "name": "_id",
          "type": "uint256"
        }
      ],
      "name": "registerCandidate",
      "outputs": [],
      "payable": false,
      "stateMutability": "nonpayable",
      "type": "function"
    }
  ],
  "bytecode": "0x608060405260405180606001604052806000801b815260200160008152602001600067ffffffffffffffff1681525060008082015181600001556020820151816001015560408201518160020160006101000a81548167ffffffffffffffff021916908367ffffffffffffffff16021790555050506000600355600060045534801561008a57600080fd5b506106be8061009a6000396000f3fe608060405234801561001057600080fd5b506004361061004c5760003560e01c80630b2a85ea146100515780633477ee2e1461006d578063da58c7d91461009d578063f4d05671146100d0575b600080fd5b61006b600480360361006691908101906104be565b6100ec565b005b610087600480360361008291908101906104be565b6101a9565b60405161009491906105b0565b60405180910390f35b6100b760048036036100b291908101906104be565b6101d0565b6040516100c794939291906105f4565b60405180910390f35b6100ea60048036036100e591908101906104e7565b61026a565b005b60006001600c604051806020016040528085815250908060018154018082558091505090600182039060005260206000200160009091929091909150600082015181600001555050039050600c818154811061014457fe5b9060005260206000200160066000848152602001908152602001600020600082015481600001559050507f43dcee486fabffa2fb551555bfaa5bfcf6a42f2d014032ccef94bf09d83855eb8260405161019d91906105b0565b60405180910390a15050565b600c81815481106101b657fe5b906000526020600020016000915090508060000154905081565b600b81815481106101dd57fe5b90600052602060002090600602016000915090508060000154908060010154908060020160009054906101000a900460ff16908060030160405180606001604052908160008201548152602001600182015481526020016002820160009054906101000a900467ffffffffffffffff1667ffffffffffffffff1667ffffffffffffffff1681525050905084565b60006001600b6040518060800160405280868152602001858152602001600015158152602001600060405180606001604052908160008201548152602001600182015481526020016002820160009054906101000a900467ffffffffffffffff1667ffffffffffffffff1667ffffffffffffffff168152505081525090806001815401808255809150509060018203906000526020600020906006020160009091929091909150600082015181600001556020820151816001015560408201518160020160006101000a81548160ff021916908315150217905550606082015181600301600082015181600001556020820151816001015560408201518160020160006101000a81548167ffffffffffffffff021916908367ffffffffffffffff16021790555050505050039050600b81815481106103a557fe5b90600052602060002090600602016005600085815260200190815260200160002060008201548160000155600182015481600101556002820160009054906101000a900460ff168160020160006101000a81548160ff021916908315150217905550600382018160030160008201548160000155600182015481600101556002820160009054906101000a900467ffffffffffffffff168160020160006101000a81548167ffffffffffffffff021916908367ffffffffffffffff16021790555050509050507fa3b64c0b425d624b0d6d9f67d76ababb5e56dc10ef01de027c343a09fefdfb5d838360405161049c9291906105cb565b60405180910390a1505050565b6000813590506104b88161066d565b92915050565b6000602082840312156104d057600080fd5b60006104de848285016104a9565b91505092915050565b600080604083850312156104fa57600080fd5b6000610508858286016104a9565b9250506020610519858286016104a9565b9150509250929050565b61052c81610639565b82525050565b61053b81610645565b82525050565b6060820160008201516105576000850182610532565b50602082015161056a6020850182610583565b50604082015161057d60408501826105a1565b50505050565b61058c8161064f565b82525050565b61059b8161064f565b82525050565b6105aa81610659565b82525050565b60006020820190506105c56000830184610592565b92915050565b60006040820190506105e06000830185610592565b6105ed6020830184610592565b9392505050565b600060c0820190506106096000830187610592565b6106166020830186610592565b6106236040830185610523565b6106306060830184610541565b95945050505050565b60008115159050919050565b6000819050919050565b6000819050919050565b600067ffffffffffffffff82169050919050565b6106768161064f565b811461068157600080fd5b5056fea265627a7a72305820fabdbc9ff9cea7dca8c82578ec058ca82e4be31037102f5d3963a1a2f5d315e66c6578706572696d656e74616cf50037",
  "source": "pragma solidity ^0.5.0;\npragma experimental ABIEncoderV2;\n\ncontract Election{\n\n  event VoterCreated(uint256 _id, uint256 _voterId);\n  event CandidateRegistered(uint256 _id);\n\n  struct Vote {\n    bytes32 _voteId;\n    uint256 _votedId;\n    uint64 _voteTime;\n  }\n\n  struct Voter {\n    uint256 _id;\n    uint256 _constituencyId;\n    bool _hasVoted;\n    Vote _vote;\n  }\n\n  struct Candidate {\n    uint256 _id;\n  }\n\n  Vote InitialVoteState = Vote(0, 0, 0);\n  uint256 StartTime = 0;\n  uint256 ElectionDuration = 0; \n\n  mapping(uint256 => Voter) internal idToVoter;\n  mapping(uint256 => Candidate) internal idToCandidate;\n  mapping(bytes32 => uint256) internal voteToCandidate;\n  mapping(uint256 => uint256) internal candidateToConstituency;\n  mapping(uint256 => uint256) internal constituencyCandidateCount;\n  mapping(uint256 => uint256) internal candidateVoteCount;\n\n  Voter[] public voters;\n  Candidate[] public candidates;\n\n  function createVoter(uint256 _id, uint256 _voterId) external {\n    uint id = voters.push(Voter(_id, _voterId, false, InitialVoteState)) - 1;\n    idToVoter[_id] = voters[id];\n    emit VoterCreated(_id, _voterId);\n  }\n\n  function registerCandidate(uint256 _id) external {\n    uint id = candidates.push(Candidate(_id)) - 1;\n    idToCandidate[_id] = candidates[id];\n    emit CandidateRegistered(_id);\n  }\n}\n\ncontract Ballot {\n  struct Candidates {\n    bytes32 name;\n    uint voteCount;\n    uint creationDate;\n    uint expirationDate;\n  }\n  Candidates[] public candidates;\n  address public manager;\n  bytes32 public votingDistrict;\n  mapping(address => bool) public voters;\n  modifier restricted() {\n    require(msg.sender == manager);\n    _;\n  }\n  constructor (bytes32[2] memory candidateNames, bytes32 district, address creator, uint amountOfHours) public {\n    manager = creator;\n    votingDistrict = district;\n    for (uint i = 0; i < candidateNames.length; i++) {\n      candidates.push(Candidates({ name: candidateNames[i],\n                                   voteCount: 0,\n                                   creationDate: now,\n                                   expirationDate: now + amountOfHours\n      }));\n    }\n  }\n\n  function vote(uint candidate) public{\n    require(!voters[msg.sender]);\n    if(now > candidates[candidate].expirationDate){\n      revert();\n    }\n    candidates[candidate].voteCount += 1;\n    voters[msg.sender] = true;\n  }\n\n  function getCandidateName(uint index) public restricted view returns (bytes32) {\n    // require(now > candidates[candidate].expirationDate);\n    return candidates[index].name;\n  }\n  function getVoteCount(uint index) public restricted view returns (uint) {\n    // require(now > candidates[candidate].expirationDate);\n    return candidates[index].voteCount;\n  }\n}",
  "sourcePath": "/home/d3mon/Projects/sudo-rm--rf/contracts/Election.sol",
  "compiler": {
    "name": "solc",
    "version": "0.5.8+commit.23d335f2.Emscripten.clang"
  },
  "schemaVersion": "3.0.11",
  "updatedAt": "2019-07-27T14:08:20.145Z",
  "devdoc": {
    "methods": {}
  },
  "userdoc": {
    "methods": {}
  }
}