{
  "contractName": "Election",
  "abi": [
    {
      "anonymous": false,
      "inputs": [
        {
          "indexed": false,
          "name": "_id",
          "type": "uint256"
        },
        {
          "indexed": false,
          "name": "_voterId",
          "type": "uint256"
        }
      ],
      "name": "VoterCreated",
      "type": "event"
    },
    {
      "anonymous": false,
      "inputs": [
        {
          "indexed": false,
          "name": "_id",
          "type": "uint256"
        }
      ],
      "name": "CandidateRegistered",
      "type": "event"
    },
    {
      "anonymous": false,
      "inputs": [
        {
          "indexed": false,
          "name": "_id",
          "type": "uint256"
        }
      ],
      "name": "ConstituencyRegistered",
      "type": "event"
    },
    {
      "constant": false,
      "inputs": [
        {
          "name": "_id",
          "type": "uint256"
        }
      ],
      "name": "registerCandidate",
      "outputs": [],
      "payable": false,
      "stateMutability": "nonpayable",
      "type": "function"
    },
    {
      "constant": false,
      "inputs": [
        {
          "name": "_id",
          "type": "uint256"
        }
      ],
      "name": "registerConstituency",
      "outputs": [],
      "payable": false,
      "stateMutability": "nonpayable",
      "type": "function"
    }
  ],
  "bytecode": "0x608060405260405180606001604052806000801b815260200160008152602001600067ffffffffffffffff1681525060008082015181600001556020820151816001015560408201518160020160006101000a81548167ffffffffffffffff021916908367ffffffffffffffff160217905550505034801561008057600080fd5b506102ee806100906000396000f3fe608060405234801561001057600080fd5b50600436106100365760003560e01c80630b2a85ea1461003b578063233f011414610057575b600080fd5b61005560048036036100509190810190610240565b610073565b005b610071600480360361006c9190810190610240565b610130565b005b60006001600b604051806020016040528085815250908060018154018082558091505090600182039060005260206000200160009091929091909150600082015181600001555050039050600b81815481106100cb57fe5b9060005260206000200160046000848152602001908152602001600020600082015481600001559050507f43dcee486fabffa2fb551555bfaa5bfcf6a42f2d014032ccef94bf09d83855eb826040516101249190610278565b60405180910390a15050565b60006001600c6040518060600160405280858152602001600081526020016000815250908060018154018082558091505090600182039060005260206000209060030201600090919290919091506000820151816000015560208201518160010155604082015181600201555050039050600c81815481106101ae57fe5b9060005260206000209060030201600560008481526020019081526020016000206000820154816000015560018201548160010155600282015481600201559050507f21db1a92fb8efb483c22a581ee7e282b6d79d9d43b559ee1affa3418188679698260405161021f9190610278565b60405180910390a15050565b60008135905061023a8161029d565b92915050565b60006020828403121561025257600080fd5b60006102608482850161022b565b91505092915050565b61027281610293565b82525050565b600060208201905061028d6000830184610269565b92915050565b6000819050919050565b6102a681610293565b81146102b157600080fd5b5056fea265627a7a7230582050c2e7437f8eed79a199cb83ed250568afcee03a9429c7c284bd23f70656ca346c6578706572696d656e74616cf50037",
  "source": "pragma solidity ^0.5.0;\npragma experimental ABIEncoderV2;\n\ncontract Election{\n\n  event VoterCreated(uint256 _id, uint256 _voterId);\n  event CandidateRegistered(uint256 _id);\n  event ConstituencyRegistered(uint256 _id);\n\n  struct Vote {\n    bytes32 _voteId;\n    uint256 _votedId;\n    uint64 _voteTime;\n  }\n\n  struct Voter {\n    uint256 _id;\n    uint256 _constituencyId;\n    bool _hasVoted;\n    Vote _vote;\n  }\n\n  struct Candidate {\n    uint256 _id;\n  }\n\n  struct Constituency {\n    uint256 _id;\n    uint256 _startTime;\n    uint256 _duration;\n  }\n\n  Vote InitialVoteState = Vote(0, 0, 0);\n\n  mapping(uint256 => Voter) internal idToVoter;\n  mapping(uint256 => Candidate) internal idToCandidate;\n  mapping(uint256 => Constituency) internal idToConstituency;\n  mapping(bytes32 => uint256) internal voteToCandidate;\n  mapping(uint256 => uint256) internal candidateToConstituency;\n  mapping(uint256 => uint256) internal constituencyCandidateCount;\n  mapping(uint256 => uint256) internal candidateVoteCount;\n\n  Voter[] internal voters;\n  Candidate[] internal candidates;\n  Constituency[] internal constituencies;\n\n  function createVoter(uint256 _id, uint256 _constituencyId) internal {\n    uint id = voters.push(Voter(_id, _constituencyId, false, InitialVoteState)) - 1;\n    idToVoter[_id] = voters[id];\n    emit VoterCreated(_id, _constituencyId);\n  }\n\n  function registerCandidate(uint256 _id) external {\n    uint id = candidates.push(Candidate(_id)) - 1;\n    idToCandidate[_id] = candidates[id];\n    emit CandidateRegistered(_id);\n  }\n\n  function registerConstituency(uint256 _id) external {\n    uint id = constituencies.push(Constituency(_id, 0, 0)) - 1;\n    idToConstituency[_id] = constituencies[id];\n    emit ConstituencyRegistered(_id);\n  }\n\n}\n\ncontract Ballot {\n  struct Candidates {\n    bytes32 name;\n    uint voteCount;\n    uint creationDate;\n    uint expirationDate;\n  }\n  Candidates[] public candidates;\n  address public manager;\n  bytes32 public votingDistrict;\n  mapping(address => bool) public voters;\n  modifier restricted() {\n    require(msg.sender == manager);\n    _;\n  }\n  constructor (bytes32[2] memory candidateNames, bytes32 district, address creator, uint amountOfHours) public {\n    manager = creator;\n    votingDistrict = district;\n    for (uint i = 0; i < candidateNames.length; i++) {\n      candidates.push(Candidates({ name: candidateNames[i],\n                                   voteCount: 0,\n                                   creationDate: now,\n                                   expirationDate: now + amountOfHours\n      }));\n    }\n  }\n\n  function vote(uint candidate) public{\n    require(!voters[msg.sender]);\n    if(now > candidates[candidate].expirationDate){\n      revert();\n    }\n    candidates[candidate].voteCount += 1;\n    voters[msg.sender] = true;\n  }\n\n  function getCandidateName(uint index) public restricted view returns (bytes32) {\n    // require(now > candidates[candidate].expirationDate);\n    return candidates[index].name;\n  }\n  function getVoteCount(uint index) public restricted view returns (uint) {\n    // require(now > candidates[candidate].expirationDate);\n    return candidates[index].voteCount;\n  }\n}",
  "sourcePath": "/home/d3mon/Projects/sudo-rm--rf/contracts/Election.sol",
  "compiler": {
    "name": "solc",
    "version": "0.5.8+commit.23d335f2.Emscripten.clang"
  },
  "schemaVersion": "3.0.11",
  "updatedAt": "2019-08-12T08:16:19.425Z",
  "devdoc": {
    "methods": {}
  },
  "userdoc": {
    "methods": {}
  }
}