{
  "contractName": "ResultHelper",
  "abi": [
    {
      "constant": false,
      "inputs": [
        {
          "name": "_id",
          "type": "uint256"
        }
      ],
      "name": "registerCandidate",
      "outputs": [],
      "payable": false,
      "stateMutability": "nonpayable",
      "type": "function"
    },
    {
      "constant": true,
      "inputs": [
        {
          "name": "",
          "type": "uint256"
        }
      ],
      "name": "candidates",
      "outputs": [
        {
          "name": "_id",
          "type": "uint256"
        }
      ],
      "payable": false,
      "stateMutability": "view",
      "type": "function"
    },
    {
      "constant": false,
      "inputs": [
        {
          "name": "from",
          "type": "uint256"
        },
        {
          "name": "to",
          "type": "uint256"
        },
        {
          "name": "tokenId",
          "type": "bytes32"
        }
      ],
      "name": "transferFrom",
      "outputs": [],
      "payable": false,
      "stateMutability": "nonpayable",
      "type": "function"
    },
    {
      "constant": false,
      "inputs": [
        {
          "name": "_duration",
          "type": "uint256"
        }
      ],
      "name": "generateElection",
      "outputs": [],
      "payable": false,
      "stateMutability": "nonpayable",
      "type": "function"
    },
    {
      "constant": true,
      "inputs": [
        {
          "name": "",
          "type": "uint256"
        }
      ],
      "name": "voters",
      "outputs": [
        {
          "name": "_id",
          "type": "uint256"
        },
        {
          "name": "_constituencyId",
          "type": "uint256"
        },
        {
          "name": "_hasVoted",
          "type": "bool"
        },
        {
          "components": [
            {
              "name": "_voteId",
              "type": "bytes32"
            },
            {
              "name": "_votedId",
              "type": "uint256"
            },
            {
              "name": "_voteTime",
              "type": "uint64"
            }
          ],
          "name": "_vote",
          "type": "tuple"
        }
      ],
      "payable": false,
      "stateMutability": "view",
      "type": "function"
    },
    {
      "constant": false,
      "inputs": [
        {
          "name": "_id",
          "type": "uint256"
        },
        {
          "name": "_voterId",
          "type": "uint256"
        }
      ],
      "name": "createVoter",
      "outputs": [],
      "payable": false,
      "stateMutability": "nonpayable",
      "type": "function"
    },
    {
      "constant": true,
      "inputs": [
        {
          "name": "_constituencyId",
          "type": "uint256"
        }
      ],
      "name": "getCandidatesByConstituency",
      "outputs": [
        {
          "components": [
            {
              "name": "_id",
              "type": "uint256"
            }
          ],
          "name": "",
          "type": "tuple[]"
        }
      ],
      "payable": false,
      "stateMutability": "view",
      "type": "function"
    },
    {
      "anonymous": false,
      "inputs": [
        {
          "indexed": true,
          "name": "_from",
          "type": "uint256"
        },
        {
          "indexed": true,
          "name": "_to",
          "type": "uint256"
        },
        {
          "indexed": true,
          "name": "_tokenId",
          "type": "bytes32"
        }
      ],
      "name": "Transfer",
      "type": "event"
    },
    {
      "anonymous": false,
      "inputs": [
        {
          "indexed": false,
          "name": "_id",
          "type": "uint256"
        },
        {
          "indexed": false,
          "name": "_voterId",
          "type": "uint256"
        }
      ],
      "name": "VoterCreated",
      "type": "event"
    },
    {
      "anonymous": false,
      "inputs": [
        {
          "indexed": false,
          "name": "_id",
          "type": "uint256"
        }
      ],
      "name": "CandidateRegistered",
      "type": "event"
    },
    {
      "constant": true,
      "inputs": [
        {
          "name": "_constituencyId",
          "type": "uint256"
        }
      ],
      "name": "retreiveConstituencyVoteCount",
      "outputs": [
        {
          "name": "",
          "type": "uint32"
        }
      ],
      "payable": false,
      "stateMutability": "view",
      "type": "function"
    }
  ],
  "bytecode": "0x608060405260405180606001604052806000801b815260200160008152602001600067ffffffffffffffff1681525060008082015181600001556020820151816001015560408201518160020160006101000a81548167ffffffffffffffff021916908367ffffffffffffffff16021790555050506000600355600060045534801561008a57600080fd5b50610c6a8061009a6000396000f3fe608060405234801561001057600080fd5b50600436106100885760003560e01c8063c1c5c5d81161005b578063c1c5c5d814610111578063da58c7d914610141578063f4d0567114610174578063f9ed80671461019057610088565b80630b2a85ea1461008d5780633477ee2e146100a95780633ba8b3ff146100d957806374e46c6e146100f5575b600080fd5b6100a760048036036100a291908101906108e0565b6101c0565b005b6100c360048036036100be91908101906108e0565b61027d565b6040516100d09190610ae4565b60405180910390f35b6100f360048036036100ee9190810190610945565b6102a4565b005b61010f600480360361010a91908101906108e0565b6103f0565b005b61012b600480360361012691908101906108e0565b610401565b6040516101389190610b6d565b60405180910390f35b61015b600480360361015691908101906108e0565b610468565b60405161016b9493929190610b28565b60405180910390f35b61018e60048036036101899190810190610909565b610502565b005b6101aa60048036036101a591908101906108e0565b610741565b6040516101b79190610ac2565b60405180910390f35b60006001600c604051806020016040528085815250908060018154018082558091505090600182039060005260206000200160009091929091909150600082015181600001555050039050600c818154811061021857fe5b9060005260206000200160066000848152602001908152602001600020600082015481600001559050507f43dcee486fabffa2fb551555bfaa5bfcf6a42f2d014032ccef94bf09d83855eb826040516102719190610ae4565b60405180910390a15050565b600c818154811061028a57fe5b906000526020600020016000915090508060000154905081565b60086000838152602001908152602001600020546005600085815260200190815260200160002060010154146102d957600080fd5b6102e1610845565b6005600085815260200190815260200160002060405180608001604052908160008201548152602001600182015481526020016002820160009054906101000a900460ff161515151581526020016003820160405180606001604052908160008201548152602001600182015481526020016002820160009054906101000a900467ffffffffffffffff1667ffffffffffffffff1667ffffffffffffffff1681525050815250509050600181604001901515908115158152505082600760008360600151600001518152602001908152602001600020819055508183857f612c500cbd8f1ed8a4643cbf6b41fda92203645d7e4f7c3a237a1be69565ea2c60405160405180910390a450505050565b426003819055508060048190555050565b6000606061040e83610741565b9050600080600090505b825181101561045d57600a600084838151811061043157fe5b602002602001015160000151815260200190815260200160002054820191508080600101915050610418565b508092505050919050565b600b818154811061047557fe5b90600052602060002090600602016000915090508060000154908060010154908060020160009054906101000a900460ff16908060030160405180606001604052908160008201548152602001600182015481526020016002820160009054906101000a900467ffffffffffffffff1667ffffffffffffffff1667ffffffffffffffff1681525050905084565b60006001600b6040518060800160405280868152602001858152602001600015158152602001600060405180606001604052908160008201548152602001600182015481526020016002820160009054906101000a900467ffffffffffffffff1667ffffffffffffffff1667ffffffffffffffff168152505081525090806001815401808255809150509060018203906000526020600020906006020160009091929091909150600082015181600001556020820151816001015560408201518160020160006101000a81548160ff021916908315150217905550606082015181600301600082015181600001556020820151816001015560408201518160020160006101000a81548167ffffffffffffffff021916908367ffffffffffffffff16021790555050505050039050600b818154811061063d57fe5b90600052602060002090600602016005600085815260200190815260200160002060008201548160000155600182015481600101556002820160009054906101000a900460ff168160020160006101000a81548160ff021916908315150217905550600382018160030160008201548160000155600182015481600101556002820160009054906101000a900467ffffffffffffffff168160020160006101000a81548167ffffffffffffffff021916908367ffffffffffffffff16021790555050509050507fa3b64c0b425d624b0d6d9f67d76ababb5e56dc10ef01de027c343a09fefdfb5d8383604051610734929190610aff565b60405180910390a1505050565b606080600960008481526020019081526020016000205460405190808252806020026020018201604052801561079157816020015b61077e610875565b8152602001906001900390816107765790505b509050600080905060008090505b600c8054905081101561083a578460086000600c84815481106107be57fe5b9060005260206000200160000154815260200190815260200160002054141561082d57600c81815481106107ee57fe5b9060005260206000200160405180602001604052908160008201548152505083838151811061081957fe5b602002602001018190525081806001019250505b808060010191505061079f565b508192505050919050565b6040518060c00160405280600081526020016000815260200160001515815260200161086f610888565b81525090565b6040518060200160405280600081525090565b60405180606001604052806000801916815260200160008152602001600067ffffffffffffffff1681525090565b6000813590506108c581610c02565b92915050565b6000813590506108da81610c19565b92915050565b6000602082840312156108f257600080fd5b6000610900848285016108cb565b91505092915050565b6000806040838503121561091c57600080fd5b600061092a858286016108cb565b925050602061093b858286016108cb565b9150509250929050565b60008060006060848603121561095a57600080fd5b6000610968868287016108cb565b9350506020610979868287016108cb565b925050604061098a868287016108b6565b9150509250925092565b60006109a08383610a28565b60208301905092915050565b60006109b782610b95565b6109c18185610bad565b93506109cc83610b88565b8060005b838110156109fd5781516109e48882610994565b97506109ef83610ba0565b9250506001810190506109d0565b5085935050505092915050565b610a1381610bbe565b82525050565b610a2281610bca565b82525050565b602082016000820151610a3e6000850182610a86565b50505050565b606082016000820151610a5a6000850182610a19565b506020820151610a6d6020850182610a86565b506040820151610a806040850182610ab3565b50505050565b610a8f81610bd4565b82525050565b610a9e81610bd4565b82525050565b610aad81610bde565b82525050565b610abc81610bee565b82525050565b60006020820190508181036000830152610adc81846109ac565b905092915050565b6000602082019050610af96000830184610a95565b92915050565b6000604082019050610b146000830185610a95565b610b216020830184610a95565b9392505050565b600060c082019050610b3d6000830187610a95565b610b4a6020830186610a95565b610b576040830185610a0a565b610b646060830184610a44565b95945050505050565b6000602082019050610b826000830184610aa4565b92915050565b6000602082019050919050565b600081519050919050565b6000602082019050919050565b600082825260208201905092915050565b60008115159050919050565b6000819050919050565b6000819050919050565b600063ffffffff82169050919050565b600067ffffffffffffffff82169050919050565b610c0b81610bca565b8114610c1657600080fd5b50565b610c2281610bd4565b8114610c2d57600080fd5b5056fea265627a7a72305820ad5a031ae17d2058ac61a566c57ea05df3fe7b6c65814f92eba3c5bf6c9d1b906c6578706572696d656e74616cf50037",
  "source": "pragma solidity ^0.5.0;\npragma experimental ABIEncoderV2;\n\nimport \"./VotingTransactions.sol\";\n\ncontract ResultHelper is VotingTransactions{\n\n    function retreiveConstituencyVoteCount(uint256 _constituencyId) external view returns(uint32) {\n        Candidate[] memory _candidates = getCandidatesByConstituency(_constituencyId);\n        uint32 _votes;\n        for (uint i = 0; i < _candidates.length; i++) {\n            _votes = _votes + uint32(candidateVoteCount[_candidates[i]._id]);\n        }\n\n        return _votes;\n    }\n}",
  "sourcePath": "/home/d3mon/Projects/sudo-rm--rf/contracts/ResultHelper.sol",
  "compiler": {
    "name": "solc",
    "version": "0.5.8+commit.23d335f2.Emscripten.clang"
  },
  "schemaVersion": "3.0.11",
  "updatedAt": "2019-07-27T14:08:20.149Z",
  "devdoc": {
    "methods": {}
  },
  "userdoc": {
    "methods": {}
  }
}