{
  "contractName": "ResultHelper",
  "abi": [
    {
      "constant": false,
      "inputs": [
        {
          "name": "_id",
          "type": "uint256"
        }
      ],
      "name": "registerCandidate",
      "outputs": [],
      "payable": false,
      "stateMutability": "nonpayable",
      "type": "function"
    },
    {
      "constant": false,
      "inputs": [
        {
          "name": "_id",
          "type": "uint256"
        }
      ],
      "name": "registerConstituency",
      "outputs": [],
      "payable": false,
      "stateMutability": "nonpayable",
      "type": "function"
    },
    {
      "constant": false,
      "inputs": [
        {
          "name": "from",
          "type": "uint256"
        },
        {
          "name": "to",
          "type": "uint256"
        },
        {
          "name": "tokenId",
          "type": "bytes32"
        }
      ],
      "name": "transferFrom",
      "outputs": [],
      "payable": false,
      "stateMutability": "nonpayable",
      "type": "function"
    },
    {
      "constant": false,
      "inputs": [
        {
          "name": "_id",
          "type": "uint256"
        },
        {
          "name": "_duration",
          "type": "uint256"
        }
      ],
      "name": "generateElectionforConstituency",
      "outputs": [],
      "payable": false,
      "stateMutability": "nonpayable",
      "type": "function"
    },
    {
      "constant": true,
      "inputs": [
        {
          "name": "_constituencyId",
          "type": "uint256"
        }
      ],
      "name": "getCandidatesByConstituency",
      "outputs": [
        {
          "components": [
            {
              "name": "_id",
              "type": "uint256"
            }
          ],
          "name": "",
          "type": "tuple[]"
        }
      ],
      "payable": false,
      "stateMutability": "view",
      "type": "function"
    },
    {
      "anonymous": false,
      "inputs": [
        {
          "indexed": true,
          "name": "_from",
          "type": "uint256"
        },
        {
          "indexed": true,
          "name": "_to",
          "type": "uint256"
        },
        {
          "indexed": true,
          "name": "_tokenId",
          "type": "bytes32"
        }
      ],
      "name": "Transfer",
      "type": "event"
    },
    {
      "anonymous": false,
      "inputs": [
        {
          "indexed": false,
          "name": "_id",
          "type": "uint256"
        },
        {
          "indexed": false,
          "name": "_voterId",
          "type": "uint256"
        }
      ],
      "name": "VoterCreated",
      "type": "event"
    },
    {
      "anonymous": false,
      "inputs": [
        {
          "indexed": false,
          "name": "_id",
          "type": "uint256"
        }
      ],
      "name": "CandidateRegistered",
      "type": "event"
    },
    {
      "anonymous": false,
      "inputs": [
        {
          "indexed": false,
          "name": "_id",
          "type": "uint256"
        }
      ],
      "name": "ConstituencyRegistered",
      "type": "event"
    },
    {
      "constant": true,
      "inputs": [
        {
          "name": "_constituencyId",
          "type": "uint256"
        }
      ],
      "name": "retreiveConstituencyVoteCount",
      "outputs": [
        {
          "name": "",
          "type": "uint32"
        }
      ],
      "payable": false,
      "stateMutability": "view",
      "type": "function"
    }
  ],
  "bytecode": "0x608060405260405180606001604052806000801b815260200160008152602001600067ffffffffffffffff1681525060008082015181600001556020820151816001015560408201518160020160006101000a81548167ffffffffffffffff021916908367ffffffffffffffff160217905550505034801561008057600080fd5b50610971806100906000396000f3fe608060405234801561001057600080fd5b50600436106100625760003560e01c80630b2a85ea14610067578063233f0114146100835780633ba8b3ff1461009f578063c1c5c5d8146100bb578063d59d48d4146100eb578063f9ed806714610107575b600080fd5b610081600480360361007c91908101906106e4565b610137565b005b61009d600480360361009891908101906106e4565b6101f4565b005b6100b960048036036100b49190810190610749565b6102ef565b005b6100d560048036036100d091908101906106e4565b61045e565b6040516100e29190610894565b60405180910390f35b6101056004803603610100919081019061070d565b6104c5565b005b610121600480360361011c91908101906106e4565b610524565b60405161012e9190610857565b60405180910390f35b60006001600b604051806020016040528085815250908060018154018082558091505090600182039060005260206000200160009091929091909150600082015181600001555050039050600b818154811061018f57fe5b9060005260206000200160046000848152602001908152602001600020600082015481600001559050507f43dcee486fabffa2fb551555bfaa5bfcf6a42f2d014032ccef94bf09d83855eb826040516101e89190610879565b60405180910390a15050565b60006001600c6040518060600160405280858152602001600081526020016000815250908060018154018082558091505090600182039060005260206000209060030201600090919290919091506000820151816000015560208201518160010155604082015181600201555050039050600c818154811061027257fe5b9060005260206000209060030201600560008481526020019081526020016000206000820154816000015560018201548160010155600282015481600201559050507f21db1a92fb8efb483c22a581ee7e282b6d79d9d43b559ee1affa341818867969826040516102e39190610879565b60405180910390a15050565b600760008381526020019081526020016000205460036000858152602001908152602001600020600101541461032457600080fd5b61032c610628565b6003600085815260200190815260200160002060405180608001604052908160008201548152602001600182015481526020016002820160009054906101000a900460ff161515151581526020016003820160405180606001604052908160008201548152602001600182015481526020016002820160009054906101000a900467ffffffffffffffff1667ffffffffffffffff1667ffffffffffffffff16815250508152505090506001816040019015159081151581525050826006600083606001516000015181526020019081526020016000208190555060096000848152602001908152602001600020600081548092919060010191905055508183857f612c500cbd8f1ed8a4643cbf6b41fda92203645d7e4f7c3a237a1be69565ea2c60405160405180910390a450505050565b6000606061046b83610524565b9050600080600090505b82518110156104ba576009600084838151811061048e57fe5b602002602001015160000151815260200190815260200160002054820191508080600101915050610475565b508092505050919050565b6104cd610658565b60056000848152602001908152602001600020604051806060016040529081600082015481526020016001820154815260200160028201548152505090504281602001818152505081816040018181525050505050565b606080600860008481526020019081526020016000205460405190808252806020026020018201604052801561057457816020015b610561610679565b8152602001906001900390816105595790505b509050600080905060008090505b600b8054905081101561061d578460076000600b84815481106105a157fe5b9060005260206000200160000154815260200190815260200160002054141561061057600b81815481106105d157fe5b906000526020600020016040518060200160405290816000820154815250508383815181106105fc57fe5b602002602001018190525081806001019250505b8080600101915050610582565b508192505050919050565b6040518060c00160405280600081526020016000815260200160001515815260200161065261068c565b81525090565b60405180606001604052806000815260200160008152602001600081525090565b6040518060200160405280600081525090565b60405180606001604052806000801916815260200160008152602001600067ffffffffffffffff1681525090565b6000813590506106c981610909565b92915050565b6000813590506106de81610920565b92915050565b6000602082840312156106f657600080fd5b6000610704848285016106cf565b91505092915050565b6000806040838503121561072057600080fd5b600061072e858286016106cf565b925050602061073f858286016106cf565b9150509250929050565b60008060006060848603121561075e57600080fd5b600061076c868287016106cf565b935050602061077d868287016106cf565b925050604061078e868287016106ba565b9150509250925092565b60006107a4838361080e565b60208301905092915050565b60006107bb826108bc565b6107c581856108d4565b93506107d0836108af565b8060005b838110156108015781516107e88882610798565b97506107f3836108c7565b9250506001810190506107d4565b5085935050505092915050565b602082016000820151610824600085018261082a565b50505050565b610833816108ef565b82525050565b610842816108ef565b82525050565b610851816108f9565b82525050565b6000602082019050818103600083015261087181846107b0565b905092915050565b600060208201905061088e6000830184610839565b92915050565b60006020820190506108a96000830184610848565b92915050565b6000602082019050919050565b600081519050919050565b6000602082019050919050565b600082825260208201905092915050565b6000819050919050565b6000819050919050565b600063ffffffff82169050919050565b610912816108e5565b811461091d57600080fd5b50565b610929816108ef565b811461093457600080fd5b5056fea265627a7a7230582078392d7d58020554e70e9b6b55f5722e9a1fb27bf33004bde23d7596bff1d6156c6578706572696d656e74616cf50037",
  "source": "pragma solidity ^0.5.0;\npragma experimental ABIEncoderV2;\n\nimport \"./VotingTransactions.sol\";\n\ncontract ResultHelper is VotingTransactions{\n\n    function retreiveConstituencyVoteCount(uint256 _constituencyId) external view returns(uint32) {\n        Candidate[] memory _candidates = getCandidatesByConstituency(_constituencyId);\n        uint32 _votes;\n        for (uint i = 0; i < _candidates.length; i++) {\n            _votes = _votes + uint32(candidateVoteCount[_candidates[i]._id]);\n        }\n\n        return _votes;\n    }\n}",
  "sourcePath": "/home/d3mon/Projects/sudo-rm--rf/contracts/ResultHelper.sol",
  "compiler": {
    "name": "solc",
    "version": "0.5.8+commit.23d335f2.Emscripten.clang"
  },
  "schemaVersion": "3.0.11",
  "updatedAt": "2019-08-12T08:16:19.433Z",
  "devdoc": {
    "methods": {}
  },
  "userdoc": {
    "methods": {}
  }
}