{
  "contractName": "VotingTransactions",
  "abi": [
    {
      "constant": false,
      "inputs": [
        {
          "name": "_id",
          "type": "uint256"
        }
      ],
      "name": "registerCandidate",
      "outputs": [],
      "payable": false,
      "stateMutability": "nonpayable",
      "type": "function"
    },
    {
      "constant": false,
      "inputs": [
        {
          "name": "_id",
          "type": "uint256"
        }
      ],
      "name": "registerConstituency",
      "outputs": [],
      "payable": false,
      "stateMutability": "nonpayable",
      "type": "function"
    },
    {
      "constant": true,
      "inputs": [
        {
          "name": "",
          "type": "uint256"
        }
      ],
      "name": "candidates",
      "outputs": [
        {
          "name": "_id",
          "type": "uint256"
        }
      ],
      "payable": false,
      "stateMutability": "view",
      "type": "function"
    },
    {
      "constant": true,
      "inputs": [
        {
          "name": "",
          "type": "uint256"
        }
      ],
      "name": "constituencies",
      "outputs": [
        {
          "name": "_id",
          "type": "uint256"
        },
        {
          "name": "_startTime",
          "type": "uint256"
        },
        {
          "name": "_duration",
          "type": "uint256"
        }
      ],
      "payable": false,
      "stateMutability": "view",
      "type": "function"
    },
    {
      "constant": false,
      "inputs": [
        {
          "name": "_id",
          "type": "uint256"
        },
        {
          "name": "_duration",
          "type": "uint256"
        }
      ],
      "name": "generateElectionforConstituency",
      "outputs": [],
      "payable": false,
      "stateMutability": "nonpayable",
      "type": "function"
    },
    {
      "constant": true,
      "inputs": [
        {
          "name": "",
          "type": "uint256"
        }
      ],
      "name": "voters",
      "outputs": [
        {
          "name": "_id",
          "type": "uint256"
        },
        {
          "name": "_constituencyId",
          "type": "uint256"
        },
        {
          "name": "_hasVoted",
          "type": "bool"
        },
        {
          "components": [
            {
              "name": "_voteId",
              "type": "bytes32"
            },
            {
              "name": "_votedId",
              "type": "uint256"
            },
            {
              "name": "_voteTime",
              "type": "uint64"
            }
          ],
          "name": "_vote",
          "type": "tuple"
        }
      ],
      "payable": false,
      "stateMutability": "view",
      "type": "function"
    },
    {
      "constant": true,
      "inputs": [
        {
          "name": "_constituencyId",
          "type": "uint256"
        }
      ],
      "name": "getCandidatesByConstituency",
      "outputs": [
        {
          "components": [
            {
              "name": "_id",
              "type": "uint256"
            }
          ],
          "name": "",
          "type": "tuple[]"
        }
      ],
      "payable": false,
      "stateMutability": "view",
      "type": "function"
    },
    {
      "anonymous": false,
      "inputs": [
        {
          "indexed": true,
          "name": "_from",
          "type": "uint256"
        },
        {
          "indexed": true,
          "name": "_to",
          "type": "uint256"
        },
        {
          "indexed": true,
          "name": "_tokenId",
          "type": "bytes32"
        }
      ],
      "name": "Transfer",
      "type": "event"
    },
    {
      "anonymous": false,
      "inputs": [
        {
          "indexed": false,
          "name": "_id",
          "type": "uint256"
        },
        {
          "indexed": false,
          "name": "_voterId",
          "type": "uint256"
        }
      ],
      "name": "VoterCreated",
      "type": "event"
    },
    {
      "anonymous": false,
      "inputs": [
        {
          "indexed": false,
          "name": "_id",
          "type": "uint256"
        }
      ],
      "name": "CandidateRegistered",
      "type": "event"
    },
    {
      "anonymous": false,
      "inputs": [
        {
          "indexed": false,
          "name": "_id",
          "type": "uint256"
        }
      ],
      "name": "ConstituencyRegistered",
      "type": "event"
    },
    {
      "constant": false,
      "inputs": [
        {
          "name": "from",
          "type": "uint256"
        },
        {
          "name": "to",
          "type": "uint256"
        },
        {
          "name": "tokenId",
          "type": "bytes32"
        }
      ],
      "name": "transferFrom",
      "outputs": [],
      "payable": false,
      "stateMutability": "nonpayable",
      "type": "function"
    }
  ],
  "bytecode": "0x608060405260405180606001604052806000801b815260200160008152602001600067ffffffffffffffff1681525060008082015181600001556020820151816001015560408201518160020160006101000a81548167ffffffffffffffff021916908367ffffffffffffffff160217905550505034801561008057600080fd5b50610b5e806100906000396000f3fe608060405234801561001057600080fd5b50600436106100885760003560e01c80639209416a1161005b5780639209416a14610111578063d59d48d414610143578063da58c7d91461015f578063f9ed80671461019257610088565b80630b2a85ea1461008d578063233f0114146100a95780633477ee2e146100c55780633ba8b3ff146100f5575b600080fd5b6100a760048036036100a29190810190610800565b6101c2565b005b6100c360048036036100be9190810190610800565b61027f565b005b6100df60048036036100da9190810190610800565b61037a565b6040516100ec91906109f5565b60405180910390f35b61010f600480360361010a9190810190610865565b6103a1565b005b61012b60048036036101269190810190610800565b610510565b60405161013a93929190610a55565b60405180910390f35b61015d60048036036101589190810190610829565b610547565b005b61017960048036036101749190810190610800565b6105a6565b6040516101899493929190610a10565b60405180910390f35b6101ac60048036036101a79190810190610800565b610640565b6040516101b991906109d3565b60405180910390f35b60006001600b604051806020016040528085815250908060018154018082558091505090600182039060005260206000200160009091929091909150600082015181600001555050039050600b818154811061021a57fe5b9060005260206000200160046000848152602001908152602001600020600082015481600001559050507f43dcee486fabffa2fb551555bfaa5bfcf6a42f2d014032ccef94bf09d83855eb8260405161027391906109f5565b60405180910390a15050565b60006001600c6040518060600160405280858152602001600081526020016000815250908060018154018082558091505090600182039060005260206000209060030201600090919290919091506000820151816000015560208201518160010155604082015181600201555050039050600c81815481106102fd57fe5b9060005260206000209060030201600560008481526020019081526020016000206000820154816000015560018201548160010155600282015481600201559050507f21db1a92fb8efb483c22a581ee7e282b6d79d9d43b559ee1affa3418188679698260405161036e91906109f5565b60405180910390a15050565b600b818154811061038757fe5b906000526020600020016000915090508060000154905081565b60076000838152602001908152602001600020546003600085815260200190815260200160002060010154146103d657600080fd5b6103de610744565b6003600085815260200190815260200160002060405180608001604052908160008201548152602001600182015481526020016002820160009054906101000a900460ff161515151581526020016003820160405180606001604052908160008201548152602001600182015481526020016002820160009054906101000a900467ffffffffffffffff1667ffffffffffffffff1667ffffffffffffffff16815250508152505090506001816040019015159081151581525050826006600083606001516000015181526020019081526020016000208190555060096000848152602001908152602001600020600081548092919060010191905055508183857f612c500cbd8f1ed8a4643cbf6b41fda92203645d7e4f7c3a237a1be69565ea2c60405160405180910390a450505050565b600c818154811061051d57fe5b90600052602060002090600302016000915090508060000154908060010154908060020154905083565b61054f610774565b60056000848152602001908152602001600020604051806060016040529081600082015481526020016001820154815260200160028201548152505090504281602001818152505081816040018181525050505050565b600a81815481106105b357fe5b90600052602060002090600602016000915090508060000154908060010154908060020160009054906101000a900460ff16908060030160405180606001604052908160008201548152602001600182015481526020016002820160009054906101000a900467ffffffffffffffff1667ffffffffffffffff1667ffffffffffffffff1681525050905084565b606080600860008481526020019081526020016000205460405190808252806020026020018201604052801561069057816020015b61067d610795565b8152602001906001900390816106755790505b509050600080905060008090505b600b80549050811015610739578460076000600b84815481106106bd57fe5b9060005260206000200160000154815260200190815260200160002054141561072c57600b81815481106106ed57fe5b9060005260206000200160405180602001604052908160008201548152505083838151811061071857fe5b602002602001018190525081806001019250505b808060010191505061069e565b508192505050919050565b6040518060c00160405280600081526020016000815260200160001515815260200161076e6107a8565b81525090565b60405180606001604052806000815260200160008152602001600081525090565b6040518060200160405280600081525090565b60405180606001604052806000801916815260200160008152602001600067ffffffffffffffff1681525090565b6000813590506107e581610af6565b92915050565b6000813590506107fa81610b0d565b92915050565b60006020828403121561081257600080fd5b6000610820848285016107eb565b91505092915050565b6000806040838503121561083c57600080fd5b600061084a858286016107eb565b925050602061085b858286016107eb565b9150509250929050565b60008060006060848603121561087a57600080fd5b6000610888868287016107eb565b9350506020610899868287016107eb565b92505060406108aa868287016107d6565b9150509250925092565b60006108c08383610948565b60208301905092915050565b60006108d782610a99565b6108e18185610ab1565b93506108ec83610a8c565b8060005b8381101561091d57815161090488826108b4565b975061090f83610aa4565b9250506001810190506108f0565b5085935050505092915050565b61093381610ac2565b82525050565b61094281610ace565b82525050565b60208201600082015161095e60008501826109a6565b50505050565b60608201600082015161097a6000850182610939565b50602082015161098d60208501826109a6565b5060408201516109a060408501826109c4565b50505050565b6109af81610ad8565b82525050565b6109be81610ad8565b82525050565b6109cd81610ae2565b82525050565b600060208201905081810360008301526109ed81846108cc565b905092915050565b6000602082019050610a0a60008301846109b5565b92915050565b600060c082019050610a2560008301876109b5565b610a3260208301866109b5565b610a3f604083018561092a565b610a4c6060830184610964565b95945050505050565b6000606082019050610a6a60008301866109b5565b610a7760208301856109b5565b610a8460408301846109b5565b949350505050565b6000602082019050919050565b600081519050919050565b6000602082019050919050565b600082825260208201905092915050565b60008115159050919050565b6000819050919050565b6000819050919050565b600067ffffffffffffffff82169050919050565b610aff81610ace565b8114610b0a57600080fd5b50565b610b1681610ad8565b8114610b2157600080fd5b5056fea265627a7a723058205b6da0ece1d144ec132046ff6a8130c7739936d3a96d5fe6c894e444fc9e70f76c6578706572696d656e74616cf50037",
  "source": "pragma solidity ^0.5.0;\npragma experimental ABIEncoderV2;\nimport \"./ElectionHelper.sol\";\n\ncontract VotingTransactions is ElectionHelper {\n    event Transfer(uint256 indexed _from, uint256 indexed _to, bytes32 indexed _tokenId);\n\n    // function ownerOf(uint256 tokenId) public view returns (address) {\n    //     address owner = _tokenOwner[tokenId];\n    //     require(owner != address(0), \"ERC721: owner query for nonexistent token\");\n\n    //     return owner;\n    // }\n\n    function transferFrom(uint256 from, uint256 to, bytes32 tokenId) public {\n        require(idToVoter[from]._constituencyId == candidateToConstituency[to]);\n        Voter memory voter = idToVoter[from];\n        voter._hasVoted = true;\n        voteToCandidate[voter._vote._voteId] = to;\n        candidateVoteCount[to]++;\n        emit Transfer(from, to, tokenId);\n    }\n\n    function _transferredTo(bytes32 _id) private view returns (Candidate memory) {\n        uint256 candidateId = voteToCandidate[_id];\n        Candidate memory candidate = idToCandidate[candidateId];\n        return candidate;\n    }\n}",
  "sourcePath": "/home/d3mon/Projects/sudo-rm--rf/contracts/VotingTransactions.sol",
  "compiler": {
    "name": "solc",
    "version": "0.5.8+commit.23d335f2.Emscripten.clang"
  },
  "schemaVersion": "3.0.11",
  "updatedAt": "2019-08-10T07:06:20.772Z",
  "devdoc": {
    "methods": {}
  },
  "userdoc": {
    "methods": {}
  }
}