{
  "contractName": "VotingTransactions",
  "abi": [
    {
      "constant": false,
      "inputs": [
        {
          "name": "_id",
          "type": "uint256"
        }
      ],
      "name": "registerCandidate",
      "outputs": [],
      "payable": false,
      "stateMutability": "nonpayable",
      "type": "function"
    },
    {
      "constant": true,
      "inputs": [
        {
          "name": "",
          "type": "uint256"
        }
      ],
      "name": "candidates",
      "outputs": [
        {
          "name": "_id",
          "type": "uint256"
        }
      ],
      "payable": false,
      "stateMutability": "view",
      "type": "function"
    },
    {
      "constant": false,
      "inputs": [
        {
          "name": "_duration",
          "type": "uint256"
        }
      ],
      "name": "generateElection",
      "outputs": [],
      "payable": false,
      "stateMutability": "nonpayable",
      "type": "function"
    },
    {
      "constant": true,
      "inputs": [
        {
          "name": "",
          "type": "uint256"
        }
      ],
      "name": "voters",
      "outputs": [
        {
          "name": "_id",
          "type": "uint256"
        },
        {
          "name": "_constituencyId",
          "type": "uint256"
        },
        {
          "name": "_hasVoted",
          "type": "bool"
        },
        {
          "components": [
            {
              "name": "_voteId",
              "type": "bytes32"
            },
            {
              "name": "_votedId",
              "type": "uint256"
            },
            {
              "name": "_voteTime",
              "type": "uint64"
            }
          ],
          "name": "_vote",
          "type": "tuple"
        }
      ],
      "payable": false,
      "stateMutability": "view",
      "type": "function"
    },
    {
      "constant": false,
      "inputs": [
        {
          "name": "_id",
          "type": "uint256"
        },
        {
          "name": "_voterId",
          "type": "uint256"
        }
      ],
      "name": "createVoter",
      "outputs": [],
      "payable": false,
      "stateMutability": "nonpayable",
      "type": "function"
    },
    {
      "constant": true,
      "inputs": [
        {
          "name": "_constituencyId",
          "type": "uint256"
        }
      ],
      "name": "getCandidatesByConstituency",
      "outputs": [
        {
          "components": [
            {
              "name": "_id",
              "type": "uint256"
            }
          ],
          "name": "",
          "type": "tuple[]"
        }
      ],
      "payable": false,
      "stateMutability": "view",
      "type": "function"
    },
    {
      "anonymous": false,
      "inputs": [
        {
          "indexed": true,
          "name": "_from",
          "type": "uint256"
        },
        {
          "indexed": true,
          "name": "_to",
          "type": "uint256"
        },
        {
          "indexed": true,
          "name": "_tokenId",
          "type": "bytes32"
        }
      ],
      "name": "Transfer",
      "type": "event"
    },
    {
      "anonymous": false,
      "inputs": [
        {
          "indexed": false,
          "name": "_id",
          "type": "uint256"
        },
        {
          "indexed": false,
          "name": "_voterId",
          "type": "uint256"
        }
      ],
      "name": "VoterCreated",
      "type": "event"
    },
    {
      "anonymous": false,
      "inputs": [
        {
          "indexed": false,
          "name": "_id",
          "type": "uint256"
        }
      ],
      "name": "CandidateRegistered",
      "type": "event"
    },
    {
      "constant": false,
      "inputs": [
        {
          "name": "from",
          "type": "uint256"
        },
        {
          "name": "to",
          "type": "uint256"
        },
        {
          "name": "tokenId",
          "type": "bytes32"
        }
      ],
      "name": "transferFrom",
      "outputs": [],
      "payable": false,
      "stateMutability": "nonpayable",
      "type": "function"
    }
  ],
  "bytecode": "0x608060405260405180606001604052806000801b815260200160008152602001600067ffffffffffffffff1681525060008082015181600001556020820151816001015560408201518160020160006101000a81548167ffffffffffffffff021916908367ffffffffffffffff16021790555050506000600355600060045534801561008a57600080fd5b50610b8e8061009a6000396000f3fe608060405234801561001057600080fd5b506004361061007d5760003560e01c806374e46c6e1161005b57806374e46c6e146100ea578063da58c7d914610106578063f4d0567114610139578063f9ed8067146101555761007d565b80630b2a85ea146100825780633477ee2e1461009e5780633ba8b3ff146100ce575b600080fd5b61009c6004803603610097919081019061083e565b610185565b005b6100b860048036036100b3919081019061083e565b610242565b6040516100c59190610a33565b60405180910390f35b6100e860048036036100e391908101906108a3565b610269565b005b61010460048036036100ff919081019061083e565b6103b5565b005b610120600480360361011b919081019061083e565b6103c6565b6040516101309493929190610a77565b60405180910390f35b610153600480360361014e9190810190610867565b610460565b005b61016f600480360361016a919081019061083e565b61069f565b60405161017c9190610a11565b60405180910390f35b60006001600c604051806020016040528085815250908060018154018082558091505090600182039060005260206000200160009091929091909150600082015181600001555050039050600c81815481106101dd57fe5b9060005260206000200160066000848152602001908152602001600020600082015481600001559050507f43dcee486fabffa2fb551555bfaa5bfcf6a42f2d014032ccef94bf09d83855eb826040516102369190610a33565b60405180910390a15050565b600c818154811061024f57fe5b906000526020600020016000915090508060000154905081565b600860008381526020019081526020016000205460056000858152602001908152602001600020600101541461029e57600080fd5b6102a66107a3565b6005600085815260200190815260200160002060405180608001604052908160008201548152602001600182015481526020016002820160009054906101000a900460ff161515151581526020016003820160405180606001604052908160008201548152602001600182015481526020016002820160009054906101000a900467ffffffffffffffff1667ffffffffffffffff1667ffffffffffffffff1681525050815250509050600181604001901515908115158152505082600760008360600151600001518152602001908152602001600020819055508183857f612c500cbd8f1ed8a4643cbf6b41fda92203645d7e4f7c3a237a1be69565ea2c60405160405180910390a450505050565b426003819055508060048190555050565b600b81815481106103d357fe5b90600052602060002090600602016000915090508060000154908060010154908060020160009054906101000a900460ff16908060030160405180606001604052908160008201548152602001600182015481526020016002820160009054906101000a900467ffffffffffffffff1667ffffffffffffffff1667ffffffffffffffff1681525050905084565b60006001600b6040518060800160405280868152602001858152602001600015158152602001600060405180606001604052908160008201548152602001600182015481526020016002820160009054906101000a900467ffffffffffffffff1667ffffffffffffffff1667ffffffffffffffff168152505081525090806001815401808255809150509060018203906000526020600020906006020160009091929091909150600082015181600001556020820151816001015560408201518160020160006101000a81548160ff021916908315150217905550606082015181600301600082015181600001556020820151816001015560408201518160020160006101000a81548167ffffffffffffffff021916908367ffffffffffffffff16021790555050505050039050600b818154811061059b57fe5b90600052602060002090600602016005600085815260200190815260200160002060008201548160000155600182015481600101556002820160009054906101000a900460ff168160020160006101000a81548160ff021916908315150217905550600382018160030160008201548160000155600182015481600101556002820160009054906101000a900467ffffffffffffffff168160020160006101000a81548167ffffffffffffffff021916908367ffffffffffffffff16021790555050509050507fa3b64c0b425d624b0d6d9f67d76ababb5e56dc10ef01de027c343a09fefdfb5d8383604051610692929190610a4e565b60405180910390a1505050565b60608060096000848152602001908152602001600020546040519080825280602002602001820160405280156106ef57816020015b6106dc6107d3565b8152602001906001900390816106d45790505b509050600080905060008090505b600c80549050811015610798578460086000600c848154811061071c57fe5b9060005260206000200160000154815260200190815260200160002054141561078b57600c818154811061074c57fe5b9060005260206000200160405180602001604052908160008201548152505083838151811061077757fe5b602002602001018190525081806001019250505b80806001019150506106fd565b508192505050919050565b6040518060c0016040528060008152602001600081526020016000151581526020016107cd6107e6565b81525090565b6040518060200160405280600081525090565b60405180606001604052806000801916815260200160008152602001600067ffffffffffffffff1681525090565b60008135905061082381610b26565b92915050565b60008135905061083881610b3d565b92915050565b60006020828403121561085057600080fd5b600061085e84828501610829565b91505092915050565b6000806040838503121561087a57600080fd5b600061088885828601610829565b925050602061089985828601610829565b9150509250929050565b6000806000606084860312156108b857600080fd5b60006108c686828701610829565b93505060206108d786828701610829565b92505060406108e886828701610814565b9150509250925092565b60006108fe8383610986565b60208301905092915050565b600061091582610ac9565b61091f8185610ae1565b935061092a83610abc565b8060005b8381101561095b57815161094288826108f2565b975061094d83610ad4565b92505060018101905061092e565b5085935050505092915050565b61097181610af2565b82525050565b61098081610afe565b82525050565b60208201600082015161099c60008501826109e4565b50505050565b6060820160008201516109b86000850182610977565b5060208201516109cb60208501826109e4565b5060408201516109de6040850182610a02565b50505050565b6109ed81610b08565b82525050565b6109fc81610b08565b82525050565b610a0b81610b12565b82525050565b60006020820190508181036000830152610a2b818461090a565b905092915050565b6000602082019050610a4860008301846109f3565b92915050565b6000604082019050610a6360008301856109f3565b610a7060208301846109f3565b9392505050565b600060c082019050610a8c60008301876109f3565b610a9960208301866109f3565b610aa66040830185610968565b610ab360608301846109a2565b95945050505050565b6000602082019050919050565b600081519050919050565b6000602082019050919050565b600082825260208201905092915050565b60008115159050919050565b6000819050919050565b6000819050919050565b600067ffffffffffffffff82169050919050565b610b2f81610afe565b8114610b3a57600080fd5b50565b610b4681610b08565b8114610b5157600080fd5b5056fea265627a7a72305820e07acbedb7fca7ee8d3b0c7ffb1772a482f3a0bd6e0173271900a87e4f040f166c6578706572696d656e74616cf50037",
  "source": "pragma solidity ^0.5.0;\npragma experimental ABIEncoderV2;\nimport \"./ElectionHelper.sol\";\n\ncontract VotingTransactions is ElectionHelper {\n    event Transfer(uint256 indexed _from, uint256 indexed _to, bytes32 indexed _tokenId);\n\n    // function ownerOf(uint256 tokenId) public view returns (address) {\n    //     address owner = _tokenOwner[tokenId];\n    //     require(owner != address(0), \"ERC721: owner query for nonexistent token\");\n\n    //     return owner;\n    // }\n\n    function transferFrom(uint256 from, uint256 to, bytes32 tokenId) public {\n        require(idToVoter[from]._constituencyId == candidateToConstituency[to]);\n        Voter memory voter = idToVoter[from];\n        voter._hasVoted = true;\n        voteToCandidate[voter._vote._voteId] = to;\n        emit Transfer(from, to, tokenId);\n    }\n\n    function _transferredTo(bytes32 _id) private view returns (Candidate memory) {\n        uint256 candidateId = voteToCandidate[_id];\n        Candidate memory candidate = idToCandidate[candidateId];\n        return candidate;\n    }\n}",
  "sourcePath": "/home/d3mon/Projects/sudo-rm--rf/contracts/VotingTransactions.sol",
  "compiler": {
    "name": "solc",
    "version": "0.5.8+commit.23d335f2.Emscripten.clang"
  },
  "schemaVersion": "3.0.11",
  "updatedAt": "2019-07-27T14:08:20.150Z",
  "devdoc": {
    "methods": {}
  },
  "userdoc": {
    "methods": {}
  }
}