{
  "contractName": "Authorizer",
  "abi": [
    {
      "constant": true,
      "inputs": [
        {
          "name": "",
          "type": "uint256"
        }
      ],
      "name": "candidateVoteCount",
      "outputs": [
        {
          "name": "",
          "type": "uint256"
        }
      ],
      "payable": false,
      "stateMutability": "view",
      "type": "function",
      "signature": "0x01aa2e03"
    },
    {
      "constant": true,
      "inputs": [
        {
          "name": "",
          "type": "uint256"
        }
      ],
      "name": "idToConstituency",
      "outputs": [
        {
          "name": "_id",
          "type": "uint256"
        },
        {
          "name": "_startTime",
          "type": "uint256"
        },
        {
          "name": "_duration",
          "type": "uint256"
        }
      ],
      "payable": false,
      "stateMutability": "view",
      "type": "function",
      "signature": "0x0f80dcb0"
    },
    {
      "constant": false,
      "inputs": [
        {
          "name": "_id",
          "type": "uint256"
        },
        {
          "name": "_constituencyId",
          "type": "uint256"
        },
        {
          "name": "_adminId",
          "type": "uint256"
        }
      ],
      "name": "assignCandidateToConstituency",
      "outputs": [],
      "payable": false,
      "stateMutability": "nonpayable",
      "type": "function",
      "signature": "0x12d51c72"
    },
    {
      "constant": true,
      "inputs": [
        {
          "name": "",
          "type": "uint256"
        }
      ],
      "name": "candidateToConstituency",
      "outputs": [
        {
          "name": "",
          "type": "uint256"
        }
      ],
      "payable": false,
      "stateMutability": "view",
      "type": "function",
      "signature": "0x1471e0ab"
    },
    {
      "constant": true,
      "inputs": [
        {
          "name": "",
          "type": "uint256"
        }
      ],
      "name": "admins",
      "outputs": [
        {
          "name": "",
          "type": "uint256"
        }
      ],
      "payable": false,
      "stateMutability": "view",
      "type": "function",
      "signature": "0x14bfd6d0"
    },
    {
      "constant": false,
      "inputs": [
        {
          "name": "_adminId",
          "type": "uint256"
        }
      ],
      "name": "declareResults",
      "outputs": [],
      "payable": false,
      "stateMutability": "nonpayable",
      "type": "function",
      "signature": "0x23dc5c6e"
    },
    {
      "constant": false,
      "inputs": [
        {
          "name": "_adminId",
          "type": "uint256"
        }
      ],
      "name": "getConstituencies",
      "outputs": [
        {
          "components": [
            {
              "name": "_id",
              "type": "uint256"
            },
            {
              "name": "_startTime",
              "type": "uint256"
            },
            {
              "name": "_duration",
              "type": "uint256"
            }
          ],
          "name": "",
          "type": "tuple[]"
        }
      ],
      "payable": false,
      "stateMutability": "nonpayable",
      "type": "function",
      "signature": "0x28975210"
    },
    {
      "constant": false,
      "inputs": [
        {
          "name": "_id",
          "type": "uint256"
        },
        {
          "name": "_userId",
          "type": "uint256"
        }
      ],
      "name": "getConstituencyDetails",
      "outputs": [
        {
          "components": [
            {
              "name": "_id",
              "type": "uint256"
            },
            {
              "name": "_startTime",
              "type": "uint256"
            },
            {
              "name": "_duration",
              "type": "uint256"
            }
          ],
          "name": "",
          "type": "tuple"
        }
      ],
      "payable": false,
      "stateMutability": "nonpayable",
      "type": "function",
      "signature": "0x2fd23a3f"
    },
    {
      "constant": false,
      "inputs": [
        {
          "name": "from",
          "type": "uint256"
        },
        {
          "name": "to",
          "type": "uint256"
        },
        {
          "name": "tokenId",
          "type": "uint256"
        }
      ],
      "name": "transferFrom",
      "outputs": [],
      "payable": false,
      "stateMutability": "nonpayable",
      "type": "function",
      "signature": "0x310ed7f0"
    },
    {
      "constant": true,
      "inputs": [
        {
          "name": "",
          "type": "uint256"
        }
      ],
      "name": "candidates",
      "outputs": [
        {
          "name": "_id",
          "type": "uint256"
        }
      ],
      "payable": false,
      "stateMutability": "view",
      "type": "function",
      "signature": "0x3477ee2e"
    },
    {
      "constant": false,
      "inputs": [
        {
          "name": "_id",
          "type": "uint256"
        },
        {
          "name": "_adminId",
          "type": "uint256"
        }
      ],
      "name": "registerConstituency",
      "outputs": [],
      "payable": false,
      "stateMutability": "nonpayable",
      "type": "function",
      "signature": "0x3acab52f"
    },
    {
      "constant": true,
      "inputs": [
        {
          "name": "",
          "type": "uint256"
        }
      ],
      "name": "constituencyCandidateCount",
      "outputs": [
        {
          "name": "",
          "type": "uint256"
        }
      ],
      "payable": false,
      "stateMutability": "view",
      "type": "function",
      "signature": "0x3b04a6c9"
    },
    {
      "constant": true,
      "inputs": [
        {
          "name": "_constituencyId",
          "type": "uint256"
        },
        {
          "name": "_userId",
          "type": "uint256"
        }
      ],
      "name": "retreiveConstituencyVoteCount",
      "outputs": [
        {
          "name": "",
          "type": "uint32"
        }
      ],
      "payable": false,
      "stateMutability": "view",
      "type": "function",
      "signature": "0x45dc9ad7"
    },
    {
      "constant": true,
      "inputs": [
        {
          "name": "",
          "type": "uint256"
        }
      ],
      "name": "voteToCandidate",
      "outputs": [
        {
          "name": "",
          "type": "uint256"
        }
      ],
      "payable": false,
      "stateMutability": "view",
      "type": "function",
      "signature": "0x56be1658"
    },
    {
      "constant": true,
      "inputs": [
        {
          "name": "",
          "type": "uint256"
        }
      ],
      "name": "idToCandidate",
      "outputs": [
        {
          "name": "_id",
          "type": "uint256"
        }
      ],
      "payable": false,
      "stateMutability": "view",
      "type": "function",
      "signature": "0x57e2ef10"
    },
    {
      "constant": false,
      "inputs": [
        {
          "name": "_id",
          "type": "uint256"
        },
        {
          "name": "_adminId",
          "type": "uint256"
        }
      ],
      "name": "registerCandidate",
      "outputs": [],
      "payable": false,
      "stateMutability": "nonpayable",
      "type": "function",
      "signature": "0x5d6e5052"
    },
    {
      "constant": false,
      "inputs": [],
      "name": "renounceOwnership",
      "outputs": [],
      "payable": false,
      "stateMutability": "nonpayable",
      "type": "function",
      "signature": "0x715018a6"
    },
    {
      "constant": true,
      "inputs": [],
      "name": "owner",
      "outputs": [
        {
          "name": "",
          "type": "address"
        }
      ],
      "payable": false,
      "stateMutability": "view",
      "type": "function",
      "signature": "0x8da5cb5b"
    },
    {
      "constant": true,
      "inputs": [],
      "name": "isOwner",
      "outputs": [
        {
          "name": "",
          "type": "bool"
        }
      ],
      "payable": false,
      "stateMutability": "view",
      "type": "function",
      "signature": "0x8f32d59b"
    },
    {
      "constant": true,
      "inputs": [
        {
          "name": "",
          "type": "uint256"
        }
      ],
      "name": "constituencies",
      "outputs": [
        {
          "name": "_id",
          "type": "uint256"
        },
        {
          "name": "_startTime",
          "type": "uint256"
        },
        {
          "name": "_duration",
          "type": "uint256"
        }
      ],
      "payable": false,
      "stateMutability": "view",
      "type": "function",
      "signature": "0x9209416a"
    },
    {
      "constant": false,
      "inputs": [
        {
          "name": "_id",
          "type": "uint256"
        }
      ],
      "name": "registerAdmin",
      "outputs": [],
      "payable": false,
      "stateMutability": "nonpayable",
      "type": "function",
      "signature": "0x94845254"
    },
    {
      "constant": true,
      "inputs": [],
      "name": "ResultsDeclared",
      "outputs": [
        {
          "name": "",
          "type": "bool"
        }
      ],
      "payable": false,
      "stateMutability": "view",
      "type": "function",
      "signature": "0xaa3e4e1c"
    },
    {
      "constant": true,
      "inputs": [
        {
          "name": "_constituencyId",
          "type": "uint256"
        },
        {
          "name": "_userId",
          "type": "uint256"
        }
      ],
      "name": "getCandidatesByConstituency",
      "outputs": [
        {
          "components": [
            {
              "name": "_id",
              "type": "uint256"
            }
          ],
          "name": "",
          "type": "tuple[]"
        }
      ],
      "payable": false,
      "stateMutability": "view",
      "type": "function",
      "signature": "0xbbc893a3"
    },
    {
      "constant": true,
      "inputs": [
        {
          "name": "",
          "type": "uint256"
        }
      ],
      "name": "voters",
      "outputs": [
        {
          "name": "_id",
          "type": "uint256"
        },
        {
          "name": "_constituencyId",
          "type": "uint256"
        },
        {
          "name": "_hasVoted",
          "type": "bool"
        },
        {
          "name": "_voteTime",
          "type": "uint256"
        },
        {
          "components": [
            {
              "name": "_voteId",
              "type": "uint256"
            }
          ],
          "name": "_vote",
          "type": "tuple"
        }
      ],
      "payable": false,
      "stateMutability": "view",
      "type": "function",
      "signature": "0xda58c7d9"
    },
    {
      "constant": false,
      "inputs": [
        {
          "name": "newOwner",
          "type": "address"
        }
      ],
      "name": "transferOwnership",
      "outputs": [],
      "payable": false,
      "stateMutability": "nonpayable",
      "type": "function",
      "signature": "0xf2fde38b"
    },
    {
      "constant": false,
      "inputs": [
        {
          "name": "_id",
          "type": "uint256"
        },
        {
          "name": "_duration",
          "type": "uint256"
        },
        {
          "name": "_adminId",
          "type": "uint256"
        }
      ],
      "name": "generateElectionforConstituency",
      "outputs": [],
      "payable": false,
      "stateMutability": "nonpayable",
      "type": "function",
      "signature": "0xf7590065"
    },
    {
      "constant": true,
      "inputs": [
        {
          "name": "",
          "type": "uint256"
        }
      ],
      "name": "idToVoter",
      "outputs": [
        {
          "name": "_id",
          "type": "uint256"
        },
        {
          "name": "_constituencyId",
          "type": "uint256"
        },
        {
          "name": "_hasVoted",
          "type": "bool"
        },
        {
          "name": "_voteTime",
          "type": "uint256"
        },
        {
          "components": [
            {
              "name": "_voteId",
              "type": "uint256"
            }
          ],
          "name": "_vote",
          "type": "tuple"
        }
      ],
      "payable": false,
      "stateMutability": "view",
      "type": "function",
      "signature": "0xf8c70571"
    },
    {
      "anonymous": false,
      "inputs": [
        {
          "components": [
            {
              "name": "_id",
              "type": "uint256"
            },
            {
              "name": "_constituencyId",
              "type": "uint256"
            },
            {
              "name": "_hasVoted",
              "type": "bool"
            },
            {
              "name": "_voteTime",
              "type": "uint256"
            },
            {
              "components": [
                {
                  "name": "_voteId",
                  "type": "uint256"
                }
              ],
              "name": "_vote",
              "type": "tuple"
            }
          ],
          "indexed": false,
          "name": "_voter",
          "type": "tuple"
        }
      ],
      "name": "loginVoterInfo",
      "type": "event",
      "signature": "0x9936d23931256a4366149b8144968f95deb7e4c4cd50694a7c4691ce8d560415"
    },
    {
      "anonymous": false,
      "inputs": [
        {
          "indexed": true,
          "name": "_from",
          "type": "uint256"
        },
        {
          "indexed": true,
          "name": "_to",
          "type": "uint256"
        },
        {
          "indexed": true,
          "name": "_tokenId",
          "type": "uint256"
        }
      ],
      "name": "Transfer",
      "type": "event",
      "signature": "0xaf6151f5085accf2d57e1e7bf7601d3b3982e0de7e9a90f032f8554de9c104f6"
    },
    {
      "anonymous": false,
      "inputs": [
        {
          "indexed": false,
          "name": "_id",
          "type": "uint256"
        },
        {
          "indexed": false,
          "name": "_constituencyId",
          "type": "uint256"
        }
      ],
      "name": "VoterCreated",
      "type": "event",
      "signature": "0xa3b64c0b425d624b0d6d9f67d76ababb5e56dc10ef01de027c343a09fefdfb5d"
    },
    {
      "anonymous": false,
      "inputs": [
        {
          "indexed": false,
          "name": "_id",
          "type": "uint256"
        }
      ],
      "name": "CandidateRegistered",
      "type": "event",
      "signature": "0x43dcee486fabffa2fb551555bfaa5bfcf6a42f2d014032ccef94bf09d83855eb"
    },
    {
      "anonymous": false,
      "inputs": [
        {
          "indexed": false,
          "name": "_id",
          "type": "uint256"
        }
      ],
      "name": "ConstituencyRegistered",
      "type": "event",
      "signature": "0x21db1a92fb8efb483c22a581ee7e282b6d79d9d43b559ee1affa341818867969"
    },
    {
      "anonymous": false,
      "inputs": [
        {
          "indexed": true,
          "name": "previousOwner",
          "type": "address"
        },
        {
          "indexed": true,
          "name": "newOwner",
          "type": "address"
        }
      ],
      "name": "OwnershipTransferred",
      "type": "event",
      "signature": "0x8be0079c531659141344cd1fd0a4f28419497f9722a3daafe3b4186f6b6457e0"
    },
    {
      "constant": false,
      "inputs": [
        {
          "name": "_id",
          "type": "uint256"
        },
        {
          "name": "_constituencyId",
          "type": "uint256"
        },
        {
          "name": "_adminId",
          "type": "uint256"
        }
      ],
      "name": "registerVoter",
      "outputs": [],
      "payable": false,
      "stateMutability": "nonpayable",
      "type": "function",
      "signature": "0x2ed58701"
    },
    {
      "constant": false,
      "inputs": [
        {
          "name": "_id",
          "type": "uint256"
        }
      ],
      "name": "loginVoter",
      "outputs": [
        {
          "components": [
            {
              "name": "_id",
              "type": "uint256"
            },
            {
              "name": "_constituencyId",
              "type": "uint256"
            },
            {
              "name": "_hasVoted",
              "type": "bool"
            },
            {
              "name": "_voteTime",
              "type": "uint256"
            },
            {
              "components": [
                {
                  "name": "_voteId",
                  "type": "uint256"
                }
              ],
              "name": "_vote",
              "type": "tuple"
            }
          ],
          "name": "",
          "type": "tuple"
        }
      ],
      "payable": false,
      "stateMutability": "nonpayable",
      "type": "function",
      "signature": "0x52d2ec93"
    }
  ],
  "bytecode": "0x608060405260008060146101000a81548160ff021916908315150217905550336000806101000a81548173ffffffffffffffffffffffffffffffffffffffff021916908373ffffffffffffffffffffffffffffffffffffffff1602179055506000809054906101000a900473ffffffffffffffffffffffffffffffffffffffff1673ffffffffffffffffffffffffffffffffffffffff16600073ffffffffffffffffffffffffffffffffffffffff167f8be0079c531659141344cd1fd0a4f28419497f9722a3daafe3b4186f6b6457e060405160405180910390a360008060146101000a81548160ff021916908315150217905550611e04806101036000396000f3fe608060405260043610610175576000357c0100000000000000000000000000000000000000000000000000000000900463ffffffff16806301aa2e031461017a5780630f80dcb0146101b757806312d51c72146101f65780631471e0ab1461021f57806314bfd6d01461025c57806323dc5c6e1461029957806328975210146102c25780632ed58701146102ff5780632fd23a3f14610328578063310ed7f0146103655780633477ee2e1461038e5780633acab52f146103cb5780633b04a6c9146103f457806345dc9ad71461043157806352d2ec931461046e57806356be1658146104ab57806357e2ef10146104e85780635d6e505214610525578063715018a61461054e5780638da5cb5b146105655780638f32d59b146105905780639209416a146105bb57806394845254146105fa578063aa3e4e1c14610623578063bbc893a31461064e578063da58c7d91461068b578063f2fde38b146106cc578063f7590065146106f5578063f8c705711461071e575b600080fd5b34801561018657600080fd5b506101a1600480360361019c91908101906118a9565b61075f565b6040516101ae9190611c23565b60405180910390f35b3480156101c357600080fd5b506101de60048036036101d991908101906118a9565b610777565b6040516101ed93929190611cba565b60405180910390f35b34801561020257600080fd5b5061021d6004803603610218919081019061190e565b6107a1565b005b34801561022b57600080fd5b50610246600480360361024191908101906118a9565b610830565b6040516102539190611c23565b60405180910390f35b34801561026857600080fd5b50610283600480360361027e91908101906118a9565b610848565b6040516102909190611c23565b60405180910390f35b3480156102a557600080fd5b506102c060048036036102bb91908101906118a9565b61086b565b005b3480156102ce57600080fd5b506102e960048036036102e491908101906118a9565b6108d8565b6040516102f69190611bb0565b60405180910390f35b34801561030b57600080fd5b506103266004803603610321919081019061190e565b610a07565b005b34801561033457600080fd5b5061034f600480360361034a91908101906118d2565b610a65565b60405161035c9190611bed565b60405180910390f35b34801561037157600080fd5b5061038c6004803603610387919081019061190e565b610ae6565b005b34801561039a57600080fd5b506103b560048036036103b091908101906118a9565b610bf2565b6040516103c29190611c23565b60405180910390f35b3480156103d757600080fd5b506103f260048036036103ed91908101906118d2565b610c1b565b005b34801561040057600080fd5b5061041b600480360361041691908101906118a9565b610d69565b6040516104289190611c23565b60405180910390f35b34801561043d57600080fd5b50610458600480360361045391908101906118d2565b610d81565b6040516104659190611cf1565b60405180910390f35b34801561047a57600080fd5b50610495600480360361049091908101906118a9565b610e38565b6040516104a29190611c08565b60405180910390f35b3480156104b757600080fd5b506104d260048036036104cd91908101906118a9565b610f29565b6040516104df9190611c23565b60405180910390f35b3480156104f457600080fd5b5061050f600480360361050a91908101906118a9565b610f41565b60405161051c9190611c23565b60405180910390f35b34801561053157600080fd5b5061054c600480360361054791908101906118d2565b610f5f565b005b34801561055a57600080fd5b5061056361106f565b005b34801561057157600080fd5b5061057a611141565b6040516105879190611b73565b60405180910390f35b34801561059c57600080fd5b506105a561116a565b6040516105b29190611bd2565b60405180910390f35b3480156105c757600080fd5b506105e260048036036105dd91908101906118a9565b6111c1565b6040516105f193929190611cba565b60405180910390f35b34801561060657600080fd5b50610621600480360361061c91908101906118a9565b6111fa565b005b34801561062f57600080fd5b5061063861123c565b6040516106459190611bd2565b60405180910390f35b34801561065a57600080fd5b50610675600480360361067091908101906118d2565b61124f565b6040516106829190611b8e565b60405180910390f35b34801561069757600080fd5b506106b260048036036106ad91908101906118a9565b611386565b6040516106c3959493929190611c67565b60405180910390f35b3480156106d857600080fd5b506106f360048036036106ee9190810190611880565b6113ed565b005b34801561070157600080fd5b5061071c6004803603610717919081019061190e565b61140c565b005b34801561072a57600080fd5b50610745600480360361074091908101906118a9565b61148a565b604051610756959493929190611c67565b60405180910390f35b60076020528060005260406000206000915090505481565b60036020528060005260406000206000915090508060000154908060010154908060020154905083565b8060008090505b600b805490508110156108295781600b828154811015156107c557fe5b9060005260206000200154141561081657836005600087815260200190815260200160002081905550600660008581526020019081526020016000206000815480929190600101919050555061081b565b61081c565b5b80806001019150506107a8565b5050505050565b60056020528060005260406000206000915090505481565b600b8181548110151561085757fe5b906000526020600020016000915090505481565b8060008090505b600b805490508110156108d35781600b8281548110151561088f57fe5b906000526020600020015414156108c0576001600060146101000a81548160ff0219169083151502179055506108c5565b6108c6565b5b8080600101915050610872565b505050565b60608160008090505b600b80549050811015610a005781600b828154811015156108fe57fe5b906000526020600020015414156109ed576060600a8054905060405190808252806020026020018201604052801561095057816020015b61093d6117a0565b8152602001906001900390816109355790505b509050600080905060008090505b600a805490508110156109e257600a8181548110151561097a57fe5b906000526020600020906003020160606040519081016040529081600082015481526020016001820154815260200160028201548152505083838151811015156109c057fe5b906020019060200201819052508180600101925050808060010191505061095e565b5081945050506109f2565b6109f3565b5b80806001019150506108e1565b5050919050565b8060008090505b600b80549050811015610a5e5781600b82815481101515610a2b57fe5b90600052602060002001541415610a4b57610a4685856114e2565b610a50565b610a51565b5b8080600101915050610a0e565b5050505050565b610a6d6117c2565b816000600160008381526020019081526020016000206000015414151515610a9457600080fd5b610a9c6117c2565b600360008681526020019081526020016000206060604051908101604052908160008201548152602001600182015481526020016002820154815250509050809250505092915050565b826000600160008381526020019081526020016000206000015414151515610b0d57600080fd5b60056000848152602001908152602001600020546001600086815260200190815260200160002060010154141515610b4457600080fd5b600060016000868152602001908152602001600020905060018160020160006101000a81548160ff02191690831515021790555042816003018190555083600460008781526020019081526020016000208190555060076000858152602001908152602001600020600081548092919060010191905055508284867faf6151f5085accf2d57e1e7bf7601d3b3982e0de7e9a90f032f8554de9c104f660405160405180910390a45050505050565b600981815481101515610c0157fe5b906000526020600020016000915090508060000154905081565b8060008090505b600b80549050811015610d635781600b82815481101515610c3f57fe5b90600052602060002001541415610d505760006001600a606060405190810160405280888152602001600081526020016000815250908060018154018082558091505090600182039060005260206000209060030201600090919290919091506000820151816000015560208201518160010155604082015181600201555050039050600a81815481101515610cd157fe5b9060005260206000209060030201600360008781526020019081526020016000206000820154816000015560018201548160010155600282015481600201559050507f21db1a92fb8efb483c22a581ee7e282b6d79d9d43b559ee1affa34181886796985604051610d429190611c23565b60405180910390a150610d55565b610d56565b5b8080600101915050610c22565b50505050565b60066020528060005260406000206000915090505481565b600060011515600060149054906101000a900460ff161515141515610da557600080fd5b816000600160008381526020019081526020016000206000015414151515610dcc57600080fd5b6060610dd8858561124f565b9050600080600090505b8251811015610e2b57600760008483815181101515610dfd57fe5b9060200190602002015160000151815260200190815260200160002054820191508080600101915050610de2565b5080935050505092915050565b610e406117e4565b816000600160008381526020019081526020016000206000015414151515610e6757600080fd5b610e6f6117e4565b6001600085815260200190815260200160002060a0604051908101604052908160008201548152602001600182015481526020016002820160009054906101000a900460ff161515151581526020016003820154815260200160048201602060405190810160405290816000820154815250508152505090507f9936d23931256a4366149b8144968f95deb7e4c4cd50694a7c4691ce8d56041581604051610f179190611c08565b60405180910390a18092505050919050565b60046020528060005260406000206000915090505481565b60026020528060005260406000206000915090508060000154905081565b8060008090505b600b805490508110156110695781600b82815481101515610f8357fe5b906000526020600020015414156110565760006001600960206040519081016040528088815250908060018154018082558091505090600182039060005260206000200160009091929091909150600082015181600001555050039050600981815481101515610fef57fe5b9060005260206000200160026000878152602001908152602001600020600082015481600001559050507f43dcee486fabffa2fb551555bfaa5bfcf6a42f2d014032ccef94bf09d83855eb856040516110489190611c23565b60405180910390a15061105b565b61105c565b5b8080600101915050610f66565b50505050565b61107761116a565b151561108257600080fd5b600073ffffffffffffffffffffffffffffffffffffffff166000809054906101000a900473ffffffffffffffffffffffffffffffffffffffff1673ffffffffffffffffffffffffffffffffffffffff167f8be0079c531659141344cd1fd0a4f28419497f9722a3daafe3b4186f6b6457e060405160405180910390a360008060006101000a81548173ffffffffffffffffffffffffffffffffffffffff021916908373ffffffffffffffffffffffffffffffffffffffff160217905550565b60008060009054906101000a900473ffffffffffffffffffffffffffffffffffffffff16905090565b60008060009054906101000a900473ffffffffffffffffffffffffffffffffffffffff1673ffffffffffffffffffffffffffffffffffffffff163373ffffffffffffffffffffffffffffffffffffffff1614905090565b600a818154811015156111d057fe5b90600052602060002090600302016000915090508060000154908060010154908060020154905083565b61120261116a565b151561120d57600080fd5b600b81908060018154018082558091505090600182039060005260206000200160009091929091909150555050565b600060149054906101000a900460ff1681565b606081600060016000838152602001908152602001600020600001541415151561127857600080fd5b606060066000868152602001908152602001600020546040519080825280602002602001820160405280156112c757816020015b6112b461181c565b8152602001906001900390816112ac5790505b509050600080905060008090505b6009805490508110156113795786600560006009848154811015156112f657fe5b9060005260206000200160000154815260200190815260200160002054141561136c5760098181548110151561132857fe5b9060005260206000200160206040519081016040529081600082015481525050838381518110151561135657fe5b9060200190602002018190525081806001019250505b80806001019150506112d5565b5081935050505092915050565b60088181548110151561139557fe5b90600052602060002090600502016000915090508060000154908060010154908060020160009054906101000a900460ff16908060030154908060040160206040519081016040529081600082015481525050905085565b6113f561116a565b151561140057600080fd5b6114098161167b565b50565b8060008090505b600b805490508110156114835781600b8281548110151561143057fe5b9060005260206000200154141561147057600060036000878152602001908152602001600020905042816001018190555084816002018190555050611475565b611476565b5b8080600101915050611413565b5050505050565b60016020528060005260406000206000915090508060000154908060010154908060020160009054906101000a900460ff16908060030154908060040160206040519081016040529081600082015481525050905085565b6114ea611830565b6114f383611775565b905060006001600860a060405190810160405280878152602001868152602001600015158152602001600081526020018581525090806001815401808255809150509060018203906000526020600020906005020160009091929091909150600082015181600001556020820151816001015560408201518160020160006101000a81548160ff0219169083151502179055506060820151816003015560808201518160040160008201518160000155505050500390506008818154811015156115b957fe5b90600052602060002090600502016001600086815260200190815260200160002060008201548160000155600182015481600101556002820160009054906101000a900460ff168160020160006101000a81548160ff0219169083151502179055506003820154816003015560048201816004016000820154816000015550509050507fa3b64c0b425d624b0d6d9f67d76ababb5e56dc10ef01de027c343a09fefdfb5d848460405161166d929190611c3e565b60405180910390a150505050565b600073ffffffffffffffffffffffffffffffffffffffff168173ffffffffffffffffffffffffffffffffffffffff16141515156116b757600080fd5b8073ffffffffffffffffffffffffffffffffffffffff166000809054906101000a900473ffffffffffffffffffffffffffffffffffffffff1673ffffffffffffffffffffffffffffffffffffffff167f8be0079c531659141344cd1fd0a4f28419497f9722a3daafe3b4186f6b6457e060405160405180910390a3806000806101000a81548173ffffffffffffffffffffffffffffffffffffffff021916908373ffffffffffffffffffffffffffffffffffffffff16021790555050565b61177d611830565b611785611830565b60206040519081016040528084815250905080915050919050565b6060604051908101604052806000815260200160008152602001600081525090565b6060604051908101604052806000815260200160008152602001600081525090565b60a060405190810160405280600081526020016000815260200160001515815260200160008152602001611816611844565b81525090565b602060405190810160405280600081525090565b602060405190810160405280600081525090565b602060405190810160405280600081525090565b60006118648235611dae565b905092915050565b60006118788235611dc0565b905092915050565b60006020828403121561189257600080fd5b60006118a084828501611858565b91505092915050565b6000602082840312156118bb57600080fd5b60006118c98482850161186c565b91505092915050565b600080604083850312156118e557600080fd5b60006118f38582860161186c565b92505060206119048582860161186c565b9150509250929050565b60008060006060848603121561192357600080fd5b60006119318682870161186c565b93505060206119428682870161186c565b92505060406119538682870161186c565b9150509250925092565b61196681611d56565b82525050565b600061197782611d26565b80845260208401935061198983611d0c565b60005b828110156119bb5761199f868351611a31565b6119a882611d3c565b915060208601955060018101905061198c565b50849250505092915050565b60006119d282611d31565b8084526020840193506119e483611d19565b60005b82811015611a16576119fa868351611a8f565b611a0382611d49565b91506060860195506001810190506119e7565b50849250505092915050565b611a2b81611d68565b82525050565b602082016000820151611a476000850182611b55565b50505050565b606082016000820151611a636000850182611b55565b506020820151611a766020850182611b55565b506040820151611a896040850182611b55565b50505050565b606082016000820151611aa56000850182611b55565b506020820151611ab86020850182611b55565b506040820151611acb6040850182611b55565b50505050565b602082016000820151611ae76000850182611b55565b50505050565b60a082016000820151611b036000850182611b55565b506020820151611b166020850182611b55565b506040820151611b296040850182611a22565b506060820151611b3c6060850182611b55565b506080820151611b4f6080850182611ad1565b50505050565b611b5e81611d94565b82525050565b611b6d81611d9e565b82525050565b6000602082019050611b88600083018461195d565b92915050565b60006020820190508181036000830152611ba8818461196c565b905092915050565b60006020820190508181036000830152611bca81846119c7565b905092915050565b6000602082019050611be76000830184611a22565b92915050565b6000606082019050611c026000830184611a4d565b92915050565b600060a082019050611c1d6000830184611aed565b92915050565b6000602082019050611c386000830184611b55565b92915050565b6000604082019050611c536000830185611b55565b611c606020830184611b55565b9392505050565b600060a082019050611c7c6000830188611b55565b611c896020830187611b55565b611c966040830186611a22565b611ca36060830185611b55565b611cb06080830184611ad1565b9695505050505050565b6000606082019050611ccf6000830186611b55565b611cdc6020830185611b55565b611ce96040830184611b55565b949350505050565b6000602082019050611d066000830184611b64565b92915050565b6000602082019050919050565b6000602082019050919050565b600081519050919050565b600081519050919050565b6000602082019050919050565b6000602082019050919050565b6000611d6182611d74565b9050919050565b60008115159050919050565b600073ffffffffffffffffffffffffffffffffffffffff82169050919050565b6000819050919050565b600063ffffffff82169050919050565b6000611db982611d74565b9050919050565b600081905091905056fea265627a7a7230582082a0c66deb73e300ab3a820b20ce8168de08cfe7af551d15f108942bdca943be6c6578706572696d656e74616cf50037",
  "source": "pragma solidity ^0.5.0;\npragma experimental ABIEncoderV2;\nimport './ResultHelper.sol';\n\ncontract Authorizer is ResultHelper {\n    event loginVoterInfo(Voter _voter);\n\n    function registerVoter(uint256 _id, uint256 _constituencyId, uint256 _adminId) external onlyAdmin(_adminId) {\n        createVoter(_id, _constituencyId);\n    }\n\n    function loginVoter(uint256 _id) external onlyUser(_id) returns(Voter memory) {\n        Voter memory _voter = idToVoter[_id];\n        emit loginVoterInfo(_voter);\n        return _voter;\n    }\n}",
  "sourcePath": "/home/d3mon/Projects/sudo-rm--rf/contracts/Authorizer.sol",
  "compiler": {
    "name": "solc",
    "version": "0.5.0+commit.1d4f565a.Emscripten.clang"
  },
  "schemaVersion": "3.0.2",
  "updatedAt": "2020-01-30T16:34:05.976Z",
  "devdoc": {
    "methods": {
      "isOwner()": {
        "return": "true if `msg.sender` is the owner of the contract."
      },
      "owner()": {
        "return": "the address of the owner."
      },
      "renounceOwnership()": {
        "details": "Allows the current owner to relinquish control of the contract."
      },
      "transferOwnership(address)": {
        "details": "Allows the current owner to transfer control of the contract to a newOwner.",
        "params": {
          "newOwner": "The address to transfer ownership to."
        }
      }
    }
  },
  "userdoc": {
    "methods": {
      "renounceOwnership()": {
        "notice": "Renouncing to ownership will leave the contract without an owner. It will not be possible to call the functions with the `onlyOwner` modifier anymore."
      }
    }
  }
}