{
  "contractName": "Authorizer",
  "abi": [
    {
      "constant": true,
      "inputs": [
        {
          "name": "",
          "type": "uint256"
        }
      ],
      "name": "candidateVoteCount",
      "outputs": [
        {
          "name": "",
          "type": "uint256"
        }
      ],
      "payable": false,
      "stateMutability": "view",
      "type": "function",
      "signature": "0x01aa2e03"
    },
    {
      "constant": true,
      "inputs": [
        {
          "name": "",
          "type": "uint256"
        }
      ],
      "name": "idToConstituency",
      "outputs": [
        {
          "name": "_id",
          "type": "uint256"
        },
        {
          "name": "_startTime",
          "type": "uint256"
        },
        {
          "name": "_duration",
          "type": "uint256"
        }
      ],
      "payable": false,
      "stateMutability": "view",
      "type": "function",
      "signature": "0x0f80dcb0"
    },
    {
      "constant": false,
      "inputs": [
        {
          "name": "_id",
          "type": "uint256"
        },
        {
          "name": "_constituencyId",
          "type": "uint256"
        },
        {
          "name": "_adminId",
          "type": "uint256"
        }
      ],
      "name": "assignCandidateToConstituency",
      "outputs": [],
      "payable": false,
      "stateMutability": "nonpayable",
      "type": "function",
      "signature": "0x12d51c72"
    },
    {
      "constant": true,
      "inputs": [
        {
          "name": "",
          "type": "uint256"
        }
      ],
      "name": "candidateToConstituency",
      "outputs": [
        {
          "name": "",
          "type": "uint256"
        }
      ],
      "payable": false,
      "stateMutability": "view",
      "type": "function",
      "signature": "0x1471e0ab"
    },
    {
      "constant": true,
      "inputs": [
        {
          "name": "",
          "type": "uint256"
        }
      ],
      "name": "admins",
      "outputs": [
        {
          "name": "",
          "type": "uint256"
        }
      ],
      "payable": false,
      "stateMutability": "view",
      "type": "function",
      "signature": "0x14bfd6d0"
    },
    {
      "constant": false,
      "inputs": [
        {
          "name": "_adminId",
          "type": "uint256"
        }
      ],
      "name": "declareResults",
      "outputs": [],
      "payable": false,
      "stateMutability": "nonpayable",
      "type": "function",
      "signature": "0x23dc5c6e"
    },
    {
      "constant": false,
      "inputs": [
        {
          "name": "_adminId",
          "type": "uint256"
        }
      ],
      "name": "getConstituencies",
      "outputs": [
        {
          "components": [
            {
              "name": "_id",
              "type": "uint256"
            },
            {
              "name": "_startTime",
              "type": "uint256"
            },
            {
              "name": "_duration",
              "type": "uint256"
            }
          ],
          "name": "",
          "type": "tuple[]"
        }
      ],
      "payable": false,
      "stateMutability": "nonpayable",
      "type": "function",
      "signature": "0x28975210"
    },
    {
      "constant": false,
      "inputs": [
        {
          "name": "_id",
          "type": "uint256"
        },
        {
          "name": "_userId",
          "type": "uint256"
        }
      ],
      "name": "getConstituencyDetails",
      "outputs": [
        {
          "components": [
            {
              "name": "_id",
              "type": "uint256"
            },
            {
              "name": "_startTime",
              "type": "uint256"
            },
            {
              "name": "_duration",
              "type": "uint256"
            }
          ],
          "name": "",
          "type": "tuple"
        }
      ],
      "payable": false,
      "stateMutability": "nonpayable",
      "type": "function",
      "signature": "0x2fd23a3f"
    },
    {
      "constant": true,
      "inputs": [
        {
          "name": "",
          "type": "uint256"
        }
      ],
      "name": "candidates",
      "outputs": [
        {
          "name": "_id",
          "type": "uint256"
        }
      ],
      "payable": false,
      "stateMutability": "view",
      "type": "function",
      "signature": "0x3477ee2e"
    },
    {
      "constant": false,
      "inputs": [
        {
          "name": "_id",
          "type": "uint256"
        },
        {
          "name": "_adminId",
          "type": "uint256"
        }
      ],
      "name": "registerConstituency",
      "outputs": [],
      "payable": false,
      "stateMutability": "nonpayable",
      "type": "function",
      "signature": "0x3acab52f"
    },
    {
      "constant": true,
      "inputs": [
        {
          "name": "",
          "type": "uint256"
        }
      ],
      "name": "constituencyCandidateCount",
      "outputs": [
        {
          "name": "",
          "type": "uint256"
        }
      ],
      "payable": false,
      "stateMutability": "view",
      "type": "function",
      "signature": "0x3b04a6c9"
    },
    {
      "constant": false,
      "inputs": [
        {
          "name": "from",
          "type": "uint256"
        },
        {
          "name": "to",
          "type": "uint256"
        },
        {
          "name": "tokenId",
          "type": "bytes32"
        }
      ],
      "name": "transferFrom",
      "outputs": [],
      "payable": false,
      "stateMutability": "nonpayable",
      "type": "function",
      "signature": "0x3ba8b3ff"
    },
    {
      "constant": true,
      "inputs": [
        {
          "name": "_constituencyId",
          "type": "uint256"
        },
        {
          "name": "_userId",
          "type": "uint256"
        }
      ],
      "name": "retreiveConstituencyVoteCount",
      "outputs": [
        {
          "name": "",
          "type": "uint32"
        }
      ],
      "payable": false,
      "stateMutability": "view",
      "type": "function",
      "signature": "0x45dc9ad7"
    },
    {
      "constant": true,
      "inputs": [
        {
          "name": "",
          "type": "uint256"
        }
      ],
      "name": "voteToCandidate",
      "outputs": [
        {
          "name": "",
          "type": "uint256"
        }
      ],
      "payable": false,
      "stateMutability": "view",
      "type": "function",
      "signature": "0x56be1658"
    },
    {
      "constant": true,
      "inputs": [
        {
          "name": "",
          "type": "uint256"
        }
      ],
      "name": "idToCandidate",
      "outputs": [
        {
          "name": "_id",
          "type": "uint256"
        }
      ],
      "payable": false,
      "stateMutability": "view",
      "type": "function",
      "signature": "0x57e2ef10"
    },
    {
      "constant": false,
      "inputs": [
        {
          "name": "_id",
          "type": "uint256"
        },
        {
          "name": "_adminId",
          "type": "uint256"
        }
      ],
      "name": "registerCandidate",
      "outputs": [],
      "payable": false,
      "stateMutability": "nonpayable",
      "type": "function",
      "signature": "0x5d6e5052"
    },
    {
      "constant": false,
      "inputs": [],
      "name": "renounceOwnership",
      "outputs": [],
      "payable": false,
      "stateMutability": "nonpayable",
      "type": "function",
      "signature": "0x715018a6"
    },
    {
      "constant": true,
      "inputs": [],
      "name": "owner",
      "outputs": [
        {
          "name": "",
          "type": "address"
        }
      ],
      "payable": false,
      "stateMutability": "view",
      "type": "function",
      "signature": "0x8da5cb5b"
    },
    {
      "constant": true,
      "inputs": [],
      "name": "isOwner",
      "outputs": [
        {
          "name": "",
          "type": "bool"
        }
      ],
      "payable": false,
      "stateMutability": "view",
      "type": "function",
      "signature": "0x8f32d59b"
    },
    {
      "constant": true,
      "inputs": [
        {
          "name": "",
          "type": "uint256"
        }
      ],
      "name": "constituencies",
      "outputs": [
        {
          "name": "_id",
          "type": "uint256"
        },
        {
          "name": "_startTime",
          "type": "uint256"
        },
        {
          "name": "_duration",
          "type": "uint256"
        }
      ],
      "payable": false,
      "stateMutability": "view",
      "type": "function",
      "signature": "0x9209416a"
    },
    {
      "constant": false,
      "inputs": [
        {
          "name": "_id",
          "type": "uint256"
        }
      ],
      "name": "registerAdmin",
      "outputs": [],
      "payable": false,
      "stateMutability": "nonpayable",
      "type": "function",
      "signature": "0x94845254"
    },
    {
      "constant": true,
      "inputs": [
        {
          "name": "_constituencyId",
          "type": "uint256"
        },
        {
          "name": "_userId",
          "type": "uint256"
        }
      ],
      "name": "getCandidatesByConstituency",
      "outputs": [
        {
          "components": [
            {
              "name": "_id",
              "type": "uint256"
            }
          ],
          "name": "",
          "type": "tuple[]"
        }
      ],
      "payable": false,
      "stateMutability": "view",
      "type": "function",
      "signature": "0xbbc893a3"
    },
    {
      "constant": true,
      "inputs": [
        {
          "name": "",
          "type": "uint256"
        }
      ],
      "name": "voters",
      "outputs": [
        {
          "name": "_id",
          "type": "uint256"
        },
        {
          "name": "_constituencyId",
          "type": "uint256"
        },
        {
          "name": "_hasVoted",
          "type": "bool"
        },
        {
          "components": [
            {
              "name": "_voteId",
              "type": "uint256"
            },
            {
              "name": "_votedId",
              "type": "uint256"
            },
            {
              "name": "_voteTime",
              "type": "uint64"
            }
          ],
          "name": "_vote",
          "type": "tuple"
        }
      ],
      "payable": false,
      "stateMutability": "view",
      "type": "function",
      "signature": "0xda58c7d9"
    },
    {
      "constant": false,
      "inputs": [
        {
          "name": "newOwner",
          "type": "address"
        }
      ],
      "name": "transferOwnership",
      "outputs": [],
      "payable": false,
      "stateMutability": "nonpayable",
      "type": "function",
      "signature": "0xf2fde38b"
    },
    {
      "constant": false,
      "inputs": [
        {
          "name": "_id",
          "type": "uint256"
        },
        {
          "name": "_duration",
          "type": "uint256"
        },
        {
          "name": "_adminId",
          "type": "uint256"
        }
      ],
      "name": "generateElectionforConstituency",
      "outputs": [],
      "payable": false,
      "stateMutability": "nonpayable",
      "type": "function",
      "signature": "0xf7590065"
    },
    {
      "constant": true,
      "inputs": [
        {
          "name": "",
          "type": "uint256"
        }
      ],
      "name": "idToVoter",
      "outputs": [
        {
          "name": "_id",
          "type": "uint256"
        },
        {
          "name": "_constituencyId",
          "type": "uint256"
        },
        {
          "name": "_hasVoted",
          "type": "bool"
        },
        {
          "components": [
            {
              "name": "_voteId",
              "type": "uint256"
            },
            {
              "name": "_votedId",
              "type": "uint256"
            },
            {
              "name": "_voteTime",
              "type": "uint64"
            }
          ],
          "name": "_vote",
          "type": "tuple"
        }
      ],
      "payable": false,
      "stateMutability": "view",
      "type": "function",
      "signature": "0xf8c70571"
    },
    {
      "anonymous": false,
      "inputs": [
        {
          "indexed": true,
          "name": "_from",
          "type": "uint256"
        },
        {
          "indexed": true,
          "name": "_to",
          "type": "uint256"
        },
        {
          "indexed": true,
          "name": "_tokenId",
          "type": "bytes32"
        }
      ],
      "name": "Transfer",
      "type": "event",
      "signature": "0x612c500cbd8f1ed8a4643cbf6b41fda92203645d7e4f7c3a237a1be69565ea2c"
    },
    {
      "anonymous": false,
      "inputs": [
        {
          "indexed": false,
          "name": "_id",
          "type": "uint256"
        },
        {
          "indexed": false,
          "name": "_constituencyId",
          "type": "uint256"
        }
      ],
      "name": "VoterCreated",
      "type": "event",
      "signature": "0xa3b64c0b425d624b0d6d9f67d76ababb5e56dc10ef01de027c343a09fefdfb5d"
    },
    {
      "anonymous": false,
      "inputs": [
        {
          "indexed": false,
          "name": "_id",
          "type": "uint256"
        }
      ],
      "name": "CandidateRegistered",
      "type": "event",
      "signature": "0x43dcee486fabffa2fb551555bfaa5bfcf6a42f2d014032ccef94bf09d83855eb"
    },
    {
      "anonymous": false,
      "inputs": [
        {
          "indexed": false,
          "name": "_id",
          "type": "uint256"
        }
      ],
      "name": "ConstituencyRegistered",
      "type": "event",
      "signature": "0x21db1a92fb8efb483c22a581ee7e282b6d79d9d43b559ee1affa341818867969"
    },
    {
      "anonymous": false,
      "inputs": [
        {
          "indexed": true,
          "name": "previousOwner",
          "type": "address"
        },
        {
          "indexed": true,
          "name": "newOwner",
          "type": "address"
        }
      ],
      "name": "OwnershipTransferred",
      "type": "event",
      "signature": "0x8be0079c531659141344cd1fd0a4f28419497f9722a3daafe3b4186f6b6457e0"
    },
    {
      "constant": false,
      "inputs": [
        {
          "name": "_id",
          "type": "uint256"
        },
        {
          "name": "_constituencyId",
          "type": "uint256"
        },
        {
          "name": "_adminId",
          "type": "uint256"
        }
      ],
      "name": "registerVoter",
      "outputs": [],
      "payable": false,
      "stateMutability": "nonpayable",
      "type": "function",
      "signature": "0x2ed58701"
    },
    {
      "constant": false,
      "inputs": [
        {
          "name": "_id",
          "type": "uint256"
        }
      ],
      "name": "loginVoter",
      "outputs": [
        {
          "components": [
            {
              "name": "_id",
              "type": "uint256"
            },
            {
              "name": "_constituencyId",
              "type": "uint256"
            },
            {
              "name": "_hasVoted",
              "type": "bool"
            },
            {
              "components": [
                {
                  "name": "_voteId",
                  "type": "uint256"
                },
                {
                  "name": "_votedId",
                  "type": "uint256"
                },
                {
                  "name": "_voteTime",
                  "type": "uint64"
                }
              ],
              "name": "_vote",
              "type": "tuple"
            }
          ],
          "name": "",
          "type": "tuple"
        }
      ],
      "payable": false,
      "stateMutability": "nonpayable",
      "type": "function",
      "signature": "0x52d2ec93"
    }
  ],
  "bytecode": "0x6080604052336000806101000a81548173ffffffffffffffffffffffffffffffffffffffff021916908373ffffffffffffffffffffffffffffffffffffffff1602179055506000809054906101000a900473ffffffffffffffffffffffffffffffffffffffff1673ffffffffffffffffffffffffffffffffffffffff16600073ffffffffffffffffffffffffffffffffffffffff167f8be0079c531659141344cd1fd0a4f28419497f9722a3daafe3b4186f6b6457e060405160405180910390a360008060146101000a81548160ff021916908315150217905550612022806100e96000396000f3fe60806040526004361061016a576000357c0100000000000000000000000000000000000000000000000000000000900463ffffffff16806301aa2e031461016f5780630f80dcb0146101ac57806312d51c72146101eb5780631471e0ab1461021457806314bfd6d01461025157806323dc5c6e1461028e57806328975210146102b75780632ed58701146102f45780632fd23a3f1461031d5780633477ee2e1461035a5780633acab52f146103975780633b04a6c9146103c05780633ba8b3ff146103fd57806345dc9ad71461042657806352d2ec931461046357806356be1658146104a057806357e2ef10146104dd5780635d6e50521461051a578063715018a6146105435780638da5cb5b1461055a5780638f32d59b146105855780639209416a146105b057806394845254146105ef578063bbc893a314610618578063da58c7d914610655578063f2fde38b14610695578063f7590065146106be578063f8c70571146106e7575b600080fd5b34801561017b57600080fd5b5061019660048036036101919190810190611a46565b610727565b6040516101a39190611e31565b60405180910390f35b3480156101b857600080fd5b506101d360048036036101ce9190810190611a46565b61073f565b6040516101e293929190611eba565b60405180910390f35b3480156101f757600080fd5b50610212600480360361020d9190810190611afa565b610769565b005b34801561022057600080fd5b5061023b60048036036102369190810190611a46565b6107f8565b6040516102489190611e31565b60405180910390f35b34801561025d57600080fd5b5061027860048036036102739190810190611a46565b610810565b6040516102859190611e31565b60405180910390f35b34801561029a57600080fd5b506102b560048036036102b09190810190611a46565b610833565b005b3480156102c357600080fd5b506102de60048036036102d99190810190611a46565b6108a0565b6040516102eb9190611dbe565b60405180910390f35b34801561030057600080fd5b5061031b60048036036103169190810190611afa565b6109cf565b005b34801561032957600080fd5b50610344600480360361033f9190810190611a6f565b610a2d565b6040516103519190611dfb565b60405180910390f35b34801561036657600080fd5b50610381600480360361037c9190810190611a46565b610aae565b60405161038e9190611e31565b60405180910390f35b3480156103a357600080fd5b506103be60048036036103b99190810190611a6f565b610ad7565b005b3480156103cc57600080fd5b506103e760048036036103e29190810190611a46565b610c25565b6040516103f49190611e31565b60405180910390f35b34801561040957600080fd5b50610424600480360361041f9190810190611aab565b610c3d565b005b34801561043257600080fd5b5061044d60048036036104489190810190611a6f565b610dd8565b60405161045a9190611ef1565b60405180910390f35b34801561046f57600080fd5b5061048a60048036036104859190810190611a46565b610e8f565b6040516104979190611e16565b60405180910390f35b3480156104ac57600080fd5b506104c760048036036104c29190810190611a46565b610f7b565b6040516104d49190611e31565b60405180910390f35b3480156104e957600080fd5b5061050460048036036104ff9190810190611a46565b610f93565b6040516105119190611e31565b60405180910390f35b34801561052657600080fd5b50610541600480360361053c9190810190611a6f565b610fb1565b005b34801561054f57600080fd5b506105586110c1565b005b34801561056657600080fd5b5061056f611193565b60405161057c9190611d81565b60405180910390f35b34801561059157600080fd5b5061059a6111bc565b6040516105a79190611de0565b60405180910390f35b3480156105bc57600080fd5b506105d760048036036105d29190810190611a46565b611213565b6040516105e693929190611eba565b60405180910390f35b3480156105fb57600080fd5b5061061660048036036106119190810190611a46565b61124c565b005b34801561062457600080fd5b5061063f600480360361063a9190810190611a6f565b61128e565b60405161064c9190611d9c565b60405180910390f35b34801561066157600080fd5b5061067c60048036036106779190810190611a46565b6113c5565b60405161068c9493929190611e75565b60405180910390f35b3480156106a157600080fd5b506106bc60048036036106b79190810190611a1d565b611462565b005b3480156106ca57600080fd5b506106e560048036036106e09190810190611afa565b611481565b005b3480156106f357600080fd5b5061070e60048036036107099190810190611a46565b611531565b60405161071e9493929190611e75565b60405180910390f35b60076020528060005260406000206000915090505481565b60036020528060005260406000206000915090508060000154908060010154908060020154905083565b8060008090505b600b805490508110156107f15781600b8281548110151561078d57fe5b906000526020600020015414156107de5783600560008781526020019081526020016000208190555060066000858152602001908152602001600020600081548092919060010191905055506107e3565b6107e4565b5b8080600101915050610770565b5050505050565b60056020528060005260406000206000915090505481565b600b8181548110151561081f57fe5b906000526020600020016000915090505481565b8060008090505b600b8054905081101561089b5781600b8281548110151561085757fe5b90600052602060002001541415610888576001600060146101000a81548160ff02191690831515021790555061088d565b61088e565b5b808060010191505061083a565b505050565b60608160008090505b600b805490508110156109c85781600b828154811015156108c657fe5b906000526020600020015414156109b5576060600a8054905060405190808252806020026020018201604052801561091857816020015b610905611900565b8152602001906001900390816108fd5790505b509050600080905060008090505b600a805490508110156109aa57600a8181548110151561094257fe5b9060005260206000209060030201606060405190810160405290816000820154815260200160018201548152602001600282015481525050838381518110151561098857fe5b9060200190602002018190525081806001019250508080600101915050610926565b5081945050506109ba565b6109bb565b5b80806001019150506108a9565b5050919050565b8060008090505b600b80549050811015610a265781600b828154811015156109f357fe5b90600052602060002001541415610a1357610a0e85856115bf565b610a18565b610a19565b5b80806001019150506109d6565b5050505050565b610a35611922565b816000600160008381526020019081526020016000206000015414151515610a5c57600080fd5b610a64611922565b600360008681526020019081526020016000206060604051908101604052908160008201548152602001600182015481526020016002820154815250509050809250505092915050565b600981815481101515610abd57fe5b906000526020600020016000915090508060000154905081565b8060008090505b600b80549050811015610c1f5781600b82815481101515610afb57fe5b90600052602060002001541415610c0c5760006001600a606060405190810160405280888152602001600081526020016000815250908060018154018082558091505090600182039060005260206000209060030201600090919290919091506000820151816000015560208201518160010155604082015181600201555050039050600a81815481101515610b8d57fe5b9060005260206000209060030201600360008781526020019081526020016000206000820154816000015560018201548160010155600282015481600201559050507f21db1a92fb8efb483c22a581ee7e282b6d79d9d43b559ee1affa34181886796985604051610bfe9190611e31565b60405180910390a150610c11565b610c12565b5b8080600101915050610ade565b50505050565b60066020528060005260406000206000915090505481565b826000600160008381526020019081526020016000206000015414151515610c6457600080fd5b60056000848152602001908152602001600020546001600086815260200190815260200160002060010154141515610c9b57600080fd5b610ca3611944565b600160008681526020019081526020016000206080604051908101604052908160008201548152602001600182015481526020016002820160009054906101000a900460ff16151515158152602001600382016060604051908101604052908160008201548152602001600182015481526020016002820160009054906101000a900467ffffffffffffffff1667ffffffffffffffff1667ffffffffffffffff16815250508152505090506001816040019015159081151581525050836004600083606001516000015181526020019081526020016000208190555060076000858152602001908152602001600020600081548092919060010191905055508284867f612c500cbd8f1ed8a4643cbf6b41fda92203645d7e4f7c3a237a1be69565ea2c60405160405180910390a45050505050565b600060011515600060149054906101000a900460ff161515141515610dfc57600080fd5b816000600160008381526020019081526020016000206000015414151515610e2357600080fd5b6060610e2f858561128e565b9050600080600090505b8251811015610e8257600760008483815181101515610e5457fe5b9060200190602002015160000151815260200190815260200160002054820191508080600101915050610e39565b5080935050505092915050565b610e97611944565b816000600160008381526020019081526020016000206000015414151515610ebe57600080fd5b610ec6611944565b600160008581526020019081526020016000206080604051908101604052908160008201548152602001600182015481526020016002820160009054906101000a900460ff16151515158152602001600382016060604051908101604052908160008201548152602001600182015481526020016002820160009054906101000a900467ffffffffffffffff1667ffffffffffffffff1667ffffffffffffffff16815250508152505090508092505050919050565b60046020528060005260406000206000915090505481565b60026020528060005260406000206000915090508060000154905081565b8060008090505b600b805490508110156110bb5781600b82815481101515610fd557fe5b906000526020600020015414156110a8576000600160096020604051908101604052808881525090806001815401808255809150509060018203906000526020600020016000909192909190915060008201518160000155505003905060098181548110151561104157fe5b9060005260206000200160026000878152602001908152602001600020600082015481600001559050507f43dcee486fabffa2fb551555bfaa5bfcf6a42f2d014032ccef94bf09d83855eb8560405161109a9190611e31565b60405180910390a1506110ad565b6110ae565b5b8080600101915050610fb8565b50505050565b6110c96111bc565b15156110d457600080fd5b600073ffffffffffffffffffffffffffffffffffffffff166000809054906101000a900473ffffffffffffffffffffffffffffffffffffffff1673ffffffffffffffffffffffffffffffffffffffff167f8be0079c531659141344cd1fd0a4f28419497f9722a3daafe3b4186f6b6457e060405160405180910390a360008060006101000a81548173ffffffffffffffffffffffffffffffffffffffff021916908373ffffffffffffffffffffffffffffffffffffffff160217905550565b60008060009054906101000a900473ffffffffffffffffffffffffffffffffffffffff16905090565b60008060009054906101000a900473ffffffffffffffffffffffffffffffffffffffff1673ffffffffffffffffffffffffffffffffffffffff163373ffffffffffffffffffffffffffffffffffffffff1614905090565b600a8181548110151561122257fe5b90600052602060002090600302016000915090508060000154908060010154908060020154905083565b6112546111bc565b151561125f57600080fd5b600b81908060018154018082558091505090600182039060005260206000200160009091929091909150555050565b60608160006001600083815260200190815260200160002060000154141515156112b757600080fd5b6060600660008681526020019081526020016000205460405190808252806020026020018201604052801561130657816020015b6112f3611975565b8152602001906001900390816112eb5790505b509050600080905060008090505b6009805490508110156113b857866005600060098481548110151561133557fe5b906000526020600020016000015481526020019081526020016000205414156113ab5760098181548110151561136757fe5b9060005260206000200160206040519081016040529081600082015481525050838381518110151561139557fe5b9060200190602002018190525081806001019250505b8080600101915050611314565b5081935050505092915050565b6008818154811015156113d457fe5b90600052602060002090600602016000915090508060000154908060010154908060020160009054906101000a900460ff1690806003016060604051908101604052908160008201548152602001600182015481526020016002820160009054906101000a900467ffffffffffffffff1667ffffffffffffffff1667ffffffffffffffff1681525050905084565b61146a6111bc565b151561147557600080fd5b61147e816117c3565b50565b8060008090505b600b8054905081101561152a5781600b828154811015156114a557fe5b90600052602060002001541415611517576114be611922565b60036000878152602001908152602001600020606060405190810160405290816000820154815260200160018201548152602001600282015481525050905042816020018181525050848160400181815250505061151c565b61151d565b5b8080600101915050611488565b5050505050565b60016020528060005260406000206000915090508060000154908060010154908060020160009054906101000a900460ff1690806003016060604051908101604052908160008201548152602001600182015481526020016002820160009054906101000a900467ffffffffffffffff1667ffffffffffffffff1667ffffffffffffffff1681525050905084565b6115c7611989565b6115d0836118bd565b90506000600160086080604051908101604052808781526020018681526020016000151581526020018581525090806001815401808255809150509060018203906000526020600020906006020160009091929091909150600082015181600001556020820151816001015560408201518160020160006101000a81548160ff021916908315150217905550606082015181600301600082015181600001556020820151816001015560408201518160020160006101000a81548167ffffffffffffffff021916908367ffffffffffffffff160217905550505050500390506008818154811015156116be57fe5b90600052602060002090600602016001600086815260200190815260200160002060008201548160000155600182015481600101556002820160009054906101000a900460ff168160020160006101000a81548160ff021916908315150217905550600382018160030160008201548160000155600182015481600101556002820160009054906101000a900467ffffffffffffffff168160020160006101000a81548167ffffffffffffffff021916908367ffffffffffffffff16021790555050509050507fa3b64c0b425d624b0d6d9f67d76ababb5e56dc10ef01de027c343a09fefdfb5d84846040516117b5929190611e4c565b60405180910390a150505050565b600073ffffffffffffffffffffffffffffffffffffffff168173ffffffffffffffffffffffffffffffffffffffff16141515156117ff57600080fd5b8073ffffffffffffffffffffffffffffffffffffffff166000809054906101000a900473ffffffffffffffffffffffffffffffffffffffff1673ffffffffffffffffffffffffffffffffffffffff167f8be0079c531659141344cd1fd0a4f28419497f9722a3daafe3b4186f6b6457e060405160405180910390a3806000806101000a81548173ffffffffffffffffffffffffffffffffffffffff021916908373ffffffffffffffffffffffffffffffffffffffff16021790555050565b6118c5611989565b6118cd611989565b60606040519081016040528084815260200160008152602001600067ffffffffffffffff16815250905080915050919050565b6060604051908101604052806000815260200160008152602001600081525090565b6060604051908101604052806000815260200160008152602001600081525090565b60c060405190810160405280600081526020016000815260200160001515815260200161196f6119b5565b81525090565b602060405190810160405280600081525090565b6060604051908101604052806000815260200160008152602001600067ffffffffffffffff1681525090565b6060604051908101604052806000815260200160008152602001600067ffffffffffffffff1681525090565b60006119ed8235611fc2565b905092915050565b6000611a018235611fd4565b905092915050565b6000611a158235611fde565b905092915050565b600060208284031215611a2f57600080fd5b6000611a3d848285016119e1565b91505092915050565b600060208284031215611a5857600080fd5b6000611a6684828501611a09565b91505092915050565b60008060408385031215611a8257600080fd5b6000611a9085828601611a09565b9250506020611aa185828601611a09565b9150509250929050565b600080600060608486031215611ac057600080fd5b6000611ace86828701611a09565b9350506020611adf86828701611a09565b9250506040611af0868287016119f5565b9150509250925092565b600080600060608486031215611b0f57600080fd5b6000611b1d86828701611a09565b9350506020611b2e86828701611a09565b9250506040611b3f86828701611a09565b9150509250925092565b611b5281611f56565b82525050565b6000611b6382611f26565b808452602084019350611b7583611f0c565b60005b82811015611ba757611b8b868351611c1d565b611b9482611f3c565b9150602086019550600181019050611b78565b50849250505092915050565b6000611bbe82611f31565b808452602084019350611bd083611f19565b60005b82811015611c0257611be6868351611c7b565b611bef82611f49565b9150606086019550600181019050611bd3565b50849250505092915050565b611c1781611f68565b82525050565b602082016000820151611c336000850182611d54565b50505050565b606082016000820151611c4f6000850182611d54565b506020820151611c626020850182611d54565b506040820151611c756040850182611d54565b50505050565b606082016000820151611c916000850182611d54565b506020820151611ca46020850182611d54565b506040820151611cb76040850182611d54565b50505050565b606082016000820151611cd36000850182611d54565b506020820151611ce66020850182611d54565b506040820151611cf96040850182611d72565b50505050565b60c082016000820151611d156000850182611d54565b506020820151611d286020850182611d54565b506040820151611d3b6040850182611c0e565b506060820151611d4e6060850182611cbd565b50505050565b611d5d81611f94565b82525050565b611d6c81611f9e565b82525050565b611d7b81611fae565b82525050565b6000602082019050611d966000830184611b49565b92915050565b60006020820190508181036000830152611db68184611b58565b905092915050565b60006020820190508181036000830152611dd88184611bb3565b905092915050565b6000602082019050611df56000830184611c0e565b92915050565b6000606082019050611e106000830184611c39565b92915050565b600060c082019050611e2b6000830184611cff565b92915050565b6000602082019050611e466000830184611d54565b92915050565b6000604082019050611e616000830185611d54565b611e6e6020830184611d54565b9392505050565b600060c082019050611e8a6000830187611d54565b611e976020830186611d54565b611ea46040830185611c0e565b611eb16060830184611cbd565b95945050505050565b6000606082019050611ecf6000830186611d54565b611edc6020830185611d54565b611ee96040830184611d54565b949350505050565b6000602082019050611f066000830184611d63565b92915050565b6000602082019050919050565b6000602082019050919050565b600081519050919050565b600081519050919050565b6000602082019050919050565b6000602082019050919050565b6000611f6182611f74565b9050919050565b60008115159050919050565b600073ffffffffffffffffffffffffffffffffffffffff82169050919050565b6000819050919050565b600063ffffffff82169050919050565b600067ffffffffffffffff82169050919050565b6000611fcd82611f74565b9050919050565b6000819050919050565b600081905091905056fea265627a7a72305820e662330f176f716feaed58c046e8afa42773d1434135f6ccbdd010b525fe30656c6578706572696d656e74616cf50037",
  "source": "pragma solidity ^0.5.0;\npragma experimental ABIEncoderV2;\nimport './ResultHelper.sol';\n\ncontract Authorizer is ResultHelper {\n    function registerVoter(uint256 _id, uint256 _constituencyId, uint256 _adminId) external onlyAdmin(_adminId) {\n        createVoter(_id, _constituencyId);\n    }\n\n    function loginVoter(uint256 _id) external onlyUser(_id) returns(Voter memory) {\n        Voter memory _voter = idToVoter[_id];\n        return _voter;\n    }\n}",
  "sourcePath": "/home/d3mon/Projects/sudo-rm--rf/contracts/Authorizer.sol",
  "compiler": {
    "name": "solc",
    "version": "0.5.0+commit.1d4f565a.Emscripten.clang"
  },
  "schemaVersion": "3.0.2",
  "updatedAt": "2019-12-24T14:11:07.098Z",
  "devdoc": {
    "methods": {
      "isOwner()": {
        "return": "true if `msg.sender` is the owner of the contract."
      },
      "owner()": {
        "return": "the address of the owner."
      },
      "renounceOwnership()": {
        "details": "Allows the current owner to relinquish control of the contract."
      },
      "transferOwnership(address)": {
        "details": "Allows the current owner to transfer control of the contract to a newOwner.",
        "params": {
          "newOwner": "The address to transfer ownership to."
        }
      }
    }
  },
  "userdoc": {
    "methods": {
      "renounceOwnership()": {
        "notice": "Renouncing to ownership will leave the contract without an owner. It will not be possible to call the functions with the `onlyOwner` modifier anymore."
      }
    }
  }
}