{
  "contractName": "Authorizer",
  "abi": [
    {
      "constant": true,
      "inputs": [
        {
          "name": "",
          "type": "uint256"
        }
      ],
      "name": "candidateVoteCount",
      "outputs": [
        {
          "name": "",
          "type": "uint256"
        }
      ],
      "payable": false,
      "stateMutability": "view",
      "type": "function",
      "signature": "0x01aa2e03"
    },
    {
      "constant": true,
      "inputs": [
        {
          "name": "",
          "type": "uint256"
        }
      ],
      "name": "idToConstituency",
      "outputs": [
        {
          "name": "_id",
          "type": "uint256"
        },
        {
          "name": "_startTime",
          "type": "uint256"
        },
        {
          "name": "_duration",
          "type": "uint256"
        }
      ],
      "payable": false,
      "stateMutability": "view",
      "type": "function",
      "signature": "0x0f80dcb0"
    },
    {
      "constant": false,
      "inputs": [
        {
          "name": "_id",
          "type": "uint256"
        },
        {
          "name": "_constituencyId",
          "type": "uint256"
        },
        {
          "name": "_adminId",
          "type": "uint256"
        }
      ],
      "name": "assignCandidateToConstituency",
      "outputs": [],
      "payable": false,
      "stateMutability": "nonpayable",
      "type": "function",
      "signature": "0x12d51c72"
    },
    {
      "constant": true,
      "inputs": [
        {
          "name": "",
          "type": "uint256"
        }
      ],
      "name": "candidateToConstituency",
      "outputs": [
        {
          "name": "",
          "type": "uint256"
        }
      ],
      "payable": false,
      "stateMutability": "view",
      "type": "function",
      "signature": "0x1471e0ab"
    },
    {
      "constant": true,
      "inputs": [
        {
          "name": "",
          "type": "uint256"
        }
      ],
      "name": "admins",
      "outputs": [
        {
          "name": "",
          "type": "uint256"
        }
      ],
      "payable": false,
      "stateMutability": "view",
      "type": "function",
      "signature": "0x14bfd6d0"
    },
    {
      "constant": false,
      "inputs": [
        {
          "name": "_adminId",
          "type": "uint256"
        }
      ],
      "name": "declareResults",
      "outputs": [],
      "payable": false,
      "stateMutability": "nonpayable",
      "type": "function",
      "signature": "0x23dc5c6e"
    },
    {
      "constant": false,
      "inputs": [
        {
          "name": "_adminId",
          "type": "uint256"
        }
      ],
      "name": "getConstituencies",
      "outputs": [
        {
          "components": [
            {
              "name": "_id",
              "type": "uint256"
            },
            {
              "name": "_startTime",
              "type": "uint256"
            },
            {
              "name": "_duration",
              "type": "uint256"
            }
          ],
          "name": "",
          "type": "tuple[]"
        }
      ],
      "payable": false,
      "stateMutability": "nonpayable",
      "type": "function",
      "signature": "0x28975210"
    },
    {
      "constant": false,
      "inputs": [
        {
          "name": "_id",
          "type": "uint256"
        },
        {
          "name": "_userId",
          "type": "uint256"
        }
      ],
      "name": "getConstituencyDetails",
      "outputs": [
        {
          "components": [
            {
              "name": "_id",
              "type": "uint256"
            },
            {
              "name": "_startTime",
              "type": "uint256"
            },
            {
              "name": "_duration",
              "type": "uint256"
            }
          ],
          "name": "",
          "type": "tuple"
        }
      ],
      "payable": false,
      "stateMutability": "nonpayable",
      "type": "function",
      "signature": "0x2fd23a3f"
    },
    {
      "constant": false,
      "inputs": [
        {
          "name": "from",
          "type": "uint256"
        },
        {
          "name": "to",
          "type": "uint256"
        },
        {
          "name": "tokenId",
          "type": "uint256"
        }
      ],
      "name": "transferFrom",
      "outputs": [],
      "payable": false,
      "stateMutability": "nonpayable",
      "type": "function",
      "signature": "0x310ed7f0"
    },
    {
      "constant": true,
      "inputs": [
        {
          "name": "",
          "type": "uint256"
        }
      ],
      "name": "candidates",
      "outputs": [
        {
          "name": "_id",
          "type": "uint256"
        }
      ],
      "payable": false,
      "stateMutability": "view",
      "type": "function",
      "signature": "0x3477ee2e"
    },
    {
      "constant": true,
      "inputs": [
        {
          "name": "",
          "type": "uint256"
        }
      ],
      "name": "constituencyCandidateCount",
      "outputs": [
        {
          "name": "",
          "type": "uint256"
        }
      ],
      "payable": false,
      "stateMutability": "view",
      "type": "function",
      "signature": "0x3b04a6c9"
    },
    {
      "constant": true,
      "inputs": [
        {
          "name": "_constituencyId",
          "type": "uint256"
        },
        {
          "name": "_userId",
          "type": "uint256"
        }
      ],
      "name": "retreiveConstituencyVoteCount",
      "outputs": [
        {
          "name": "",
          "type": "uint32"
        }
      ],
      "payable": false,
      "stateMutability": "view",
      "type": "function",
      "signature": "0x45dc9ad7"
    },
    {
      "constant": true,
      "inputs": [
        {
          "name": "",
          "type": "uint256"
        }
      ],
      "name": "voteToCandidate",
      "outputs": [
        {
          "name": "",
          "type": "uint256"
        }
      ],
      "payable": false,
      "stateMutability": "view",
      "type": "function",
      "signature": "0x56be1658"
    },
    {
      "constant": true,
      "inputs": [
        {
          "name": "",
          "type": "uint256"
        }
      ],
      "name": "idToCandidate",
      "outputs": [
        {
          "name": "_id",
          "type": "uint256"
        }
      ],
      "payable": false,
      "stateMutability": "view",
      "type": "function",
      "signature": "0x57e2ef10"
    },
    {
      "constant": false,
      "inputs": [],
      "name": "renounceOwnership",
      "outputs": [],
      "payable": false,
      "stateMutability": "nonpayable",
      "type": "function",
      "signature": "0x715018a6"
    },
    {
      "constant": false,
      "inputs": [
        {
          "name": "_constituencies",
          "type": "uint256[]"
        },
        {
          "name": "_adminId",
          "type": "uint256"
        }
      ],
      "name": "registerConstituencies",
      "outputs": [],
      "payable": false,
      "stateMutability": "nonpayable",
      "type": "function",
      "signature": "0x7b013b94"
    },
    {
      "constant": true,
      "inputs": [],
      "name": "owner",
      "outputs": [
        {
          "name": "",
          "type": "address"
        }
      ],
      "payable": false,
      "stateMutability": "view",
      "type": "function",
      "signature": "0x8da5cb5b"
    },
    {
      "constant": true,
      "inputs": [],
      "name": "isOwner",
      "outputs": [
        {
          "name": "",
          "type": "bool"
        }
      ],
      "payable": false,
      "stateMutability": "view",
      "type": "function",
      "signature": "0x8f32d59b"
    },
    {
      "constant": true,
      "inputs": [
        {
          "name": "",
          "type": "uint256"
        }
      ],
      "name": "constituencies",
      "outputs": [
        {
          "name": "_id",
          "type": "uint256"
        },
        {
          "name": "_startTime",
          "type": "uint256"
        },
        {
          "name": "_duration",
          "type": "uint256"
        }
      ],
      "payable": false,
      "stateMutability": "view",
      "type": "function",
      "signature": "0x9209416a"
    },
    {
      "constant": false,
      "inputs": [
        {
          "name": "_id",
          "type": "uint256"
        }
      ],
      "name": "registerAdmin",
      "outputs": [],
      "payable": false,
      "stateMutability": "nonpayable",
      "type": "function",
      "signature": "0x94845254"
    },
    {
      "constant": true,
      "inputs": [],
      "name": "ResultsDeclared",
      "outputs": [
        {
          "name": "",
          "type": "bool"
        }
      ],
      "payable": false,
      "stateMutability": "view",
      "type": "function",
      "signature": "0xaa3e4e1c"
    },
    {
      "constant": true,
      "inputs": [
        {
          "name": "",
          "type": "uint256"
        }
      ],
      "name": "constituencyVoterCount",
      "outputs": [
        {
          "name": "",
          "type": "uint256"
        }
      ],
      "payable": false,
      "stateMutability": "view",
      "type": "function",
      "signature": "0xb9a285de"
    },
    {
      "constant": true,
      "inputs": [
        {
          "name": "_constituencyId",
          "type": "uint256"
        },
        {
          "name": "_userId",
          "type": "uint256"
        }
      ],
      "name": "getCandidatesByConstituency",
      "outputs": [
        {
          "components": [
            {
              "name": "_id",
              "type": "uint256"
            }
          ],
          "name": "",
          "type": "tuple[]"
        }
      ],
      "payable": false,
      "stateMutability": "view",
      "type": "function",
      "signature": "0xbbc893a3"
    },
    {
      "constant": true,
      "inputs": [
        {
          "name": "",
          "type": "uint256"
        }
      ],
      "name": "voters",
      "outputs": [
        {
          "name": "_id",
          "type": "uint256"
        },
        {
          "name": "_constituencyId",
          "type": "uint256"
        },
        {
          "name": "_hasVoted",
          "type": "bool"
        },
        {
          "name": "_voteTime",
          "type": "uint256"
        },
        {
          "components": [
            {
              "name": "_voteId",
              "type": "uint256"
            }
          ],
          "name": "_vote",
          "type": "tuple"
        }
      ],
      "payable": false,
      "stateMutability": "view",
      "type": "function",
      "signature": "0xda58c7d9"
    },
    {
      "constant": false,
      "inputs": [
        {
          "name": "newOwner",
          "type": "address"
        }
      ],
      "name": "transferOwnership",
      "outputs": [],
      "payable": false,
      "stateMutability": "nonpayable",
      "type": "function",
      "signature": "0xf2fde38b"
    },
    {
      "constant": false,
      "inputs": [
        {
          "name": "_id",
          "type": "uint256"
        },
        {
          "name": "_duration",
          "type": "uint256"
        },
        {
          "name": "_adminId",
          "type": "uint256"
        }
      ],
      "name": "generateElectionforConstituency",
      "outputs": [],
      "payable": false,
      "stateMutability": "nonpayable",
      "type": "function",
      "signature": "0xf7590065"
    },
    {
      "constant": true,
      "inputs": [
        {
          "name": "",
          "type": "uint256"
        }
      ],
      "name": "idToVoter",
      "outputs": [
        {
          "name": "_id",
          "type": "uint256"
        },
        {
          "name": "_constituencyId",
          "type": "uint256"
        },
        {
          "name": "_hasVoted",
          "type": "bool"
        },
        {
          "name": "_voteTime",
          "type": "uint256"
        },
        {
          "components": [
            {
              "name": "_voteId",
              "type": "uint256"
            }
          ],
          "name": "_vote",
          "type": "tuple"
        }
      ],
      "payable": false,
      "stateMutability": "view",
      "type": "function",
      "signature": "0xf8c70571"
    },
    {
      "anonymous": false,
      "inputs": [
        {
          "indexed": true,
          "name": "_from",
          "type": "uint256"
        },
        {
          "indexed": true,
          "name": "_to",
          "type": "uint256"
        },
        {
          "indexed": true,
          "name": "_tokenId",
          "type": "uint256"
        }
      ],
      "name": "Transfer",
      "type": "event",
      "signature": "0xaf6151f5085accf2d57e1e7bf7601d3b3982e0de7e9a90f032f8554de9c104f6"
    },
    {
      "anonymous": false,
      "inputs": [
        {
          "indexed": false,
          "name": "_id",
          "type": "uint256"
        },
        {
          "indexed": false,
          "name": "_constituencyId",
          "type": "uint256"
        }
      ],
      "name": "VoterCreated",
      "type": "event",
      "signature": "0xa3b64c0b425d624b0d6d9f67d76ababb5e56dc10ef01de027c343a09fefdfb5d"
    },
    {
      "anonymous": false,
      "inputs": [
        {
          "indexed": false,
          "name": "_id",
          "type": "uint256"
        }
      ],
      "name": "CandidateRegistered",
      "type": "event",
      "signature": "0x43dcee486fabffa2fb551555bfaa5bfcf6a42f2d014032ccef94bf09d83855eb"
    },
    {
      "anonymous": false,
      "inputs": [
        {
          "indexed": false,
          "name": "_id",
          "type": "uint256"
        }
      ],
      "name": "ConstituencyRegistered",
      "type": "event",
      "signature": "0x21db1a92fb8efb483c22a581ee7e282b6d79d9d43b559ee1affa341818867969"
    },
    {
      "anonymous": false,
      "inputs": [
        {
          "indexed": true,
          "name": "previousOwner",
          "type": "address"
        },
        {
          "indexed": true,
          "name": "newOwner",
          "type": "address"
        }
      ],
      "name": "OwnershipTransferred",
      "type": "event",
      "signature": "0x8be0079c531659141344cd1fd0a4f28419497f9722a3daafe3b4186f6b6457e0"
    },
    {
      "constant": false,
      "inputs": [
        {
          "name": "_id",
          "type": "uint256"
        },
        {
          "name": "_constituencyId",
          "type": "uint256"
        },
        {
          "name": "_adminId",
          "type": "uint256"
        }
      ],
      "name": "registerVoter",
      "outputs": [],
      "payable": false,
      "stateMutability": "nonpayable",
      "type": "function",
      "signature": "0x2ed58701"
    }
  ],
  "bytecode": "0x608060405260008060146101000a81548160ff021916908315150217905550336000806101000a81548173ffffffffffffffffffffffffffffffffffffffff021916908373ffffffffffffffffffffffffffffffffffffffff1602179055506000809054906101000a900473ffffffffffffffffffffffffffffffffffffffff1673ffffffffffffffffffffffffffffffffffffffff16600073ffffffffffffffffffffffffffffffffffffffff167f8be0079c531659141344cd1fd0a4f28419497f9722a3daafe3b4186f6b6457e060405160405180910390a360008060146101000a81548160ff021916908315150217905550611d8a806101036000396000f3fe60806040526004361061016a576000357c0100000000000000000000000000000000000000000000000000000000900463ffffffff16806301aa2e031461016f5780630f80dcb0146101ac57806312d51c72146101eb5780631471e0ab1461021457806314bfd6d01461025157806323dc5c6e1461028e57806328975210146102b75780632ed58701146102f45780632fd23a3f1461031d578063310ed7f01461035a5780633477ee2e146103835780633b04a6c9146103c057806345dc9ad7146103fd57806356be16581461043a57806357e2ef1014610477578063715018a6146104b45780637b013b94146104cb5780638da5cb5b146104f45780638f32d59b1461051f5780639209416a1461054a5780639484525414610589578063aa3e4e1c146105b2578063b9a285de146105dd578063bbc893a31461061a578063da58c7d914610657578063f2fde38b14610698578063f7590065146106c1578063f8c70571146106ea575b600080fd5b34801561017b57600080fd5b50610196600480360361019191908101906118b2565b61072b565b6040516101a39190611ba9565b60405180910390f35b3480156101b857600080fd5b506101d360048036036101ce91908101906118b2565b610743565b6040516101e293929190611c40565b60405180910390f35b3480156101f757600080fd5b50610212600480360361020d9190810190611917565b61076d565b005b34801561022057600080fd5b5061023b600480360361023691908101906118b2565b610806565b6040516102489190611ba9565b60405180910390f35b34801561025d57600080fd5b50610278600480360361027391908101906118b2565b61081e565b6040516102859190611ba9565b60405180910390f35b34801561029a57600080fd5b506102b560048036036102b091908101906118b2565b610841565b005b3480156102c357600080fd5b506102de60048036036102d991908101906118b2565b6108ae565b6040516102eb9190611b51565b60405180910390f35b34801561030057600080fd5b5061031b60048036036103169190810190611917565b6109dd565b005b34801561032957600080fd5b50610344600480360361033f91908101906118db565b610a3b565b6040516103519190611b8e565b60405180910390f35b34801561036657600080fd5b50610381600480360361037c9190810190611917565b610abc565b005b34801561038f57600080fd5b506103aa60048036036103a591908101906118b2565b610bc8565b6040516103b79190611ba9565b60405180910390f35b3480156103cc57600080fd5b506103e760048036036103e291908101906118b2565b610bf1565b6040516103f49190611ba9565b60405180910390f35b34801561040957600080fd5b50610424600480360361041f91908101906118db565b610c09565b6040516104319190611c77565b60405180910390f35b34801561044657600080fd5b50610461600480360361045c91908101906118b2565b610cc0565b60405161046e9190611ba9565b60405180910390f35b34801561048357600080fd5b5061049e600480360361049991908101906118b2565b610cd8565b6040516104ab9190611ba9565b60405180910390f35b3480156104c057600080fd5b506104c9610cf6565b005b3480156104d757600080fd5b506104f260048036036104ed919081019061185a565b610dc8565b005b34801561050057600080fd5b50610509610e59565b6040516105169190611b14565b60405180910390f35b34801561052b57600080fd5b50610534610e82565b6040516105419190611b73565b60405180910390f35b34801561055657600080fd5b50610571600480360361056c91908101906118b2565b610ed9565b60405161058093929190611c40565b60405180910390f35b34801561059557600080fd5b506105b060048036036105ab91908101906118b2565b610f12565b005b3480156105be57600080fd5b506105c7610f54565b6040516105d49190611b73565b60405180910390f35b3480156105e957600080fd5b5061060460048036036105ff91908101906118b2565b610f67565b6040516106119190611ba9565b60405180910390f35b34801561062657600080fd5b50610641600480360361063c91908101906118db565b610f7f565b60405161064e9190611b2f565b60405180910390f35b34801561066357600080fd5b5061067e600480360361067991908101906118b2565b6110b6565b60405161068f959493929190611bed565b60405180910390f35b3480156106a457600080fd5b506106bf60048036036106ba9190810190611831565b61111d565b005b3480156106cd57600080fd5b506106e860048036036106e39190810190611917565b61113c565b005b3480156106f657600080fd5b50610711600480360361070c91908101906118b2565b6111ba565b604051610722959493929190611bed565b60405180910390f35b60086020528060005260406000206000915090505481565b60036020528060005260406000206000915090508060000154908060010154908060020154905083565b8060008090505b600c805490508110156107ff5781600c8281548110151561079157fe5b906000526020600020015414156107ec576107ac8584611212565b83600560008781526020019081526020016000208190555060066000858152602001908152602001600020600081548092919060010191905055506107f1565b6107f2565b5b8080600101915050610774565b5050505050565b60056020528060005260406000206000915090505481565b600c8181548110151561082d57fe5b906000526020600020016000915090505481565b8060008090505b600c805490508110156108a95781600c8281548110151561086557fe5b90600052602060002001541415610896576001600060146101000a81548160ff02191690831515021790555061089b565b61089c565b5b8080600101915050610848565b505050565b60608160008090505b600c805490508110156109d65781600c828154811015156108d457fe5b906000526020600020015414156109c3576060600b8054905060405190808252806020026020018201604052801561092657816020015b610913611751565b81526020019060019003908161090b5790505b509050600080905060008090505b600b805490508110156109b857600b8181548110151561095057fe5b9060005260206000209060030201606060405190810160405290816000820154815260200160018201548152602001600282015481525050838381518110151561099657fe5b9060200190602002018190525081806001019250508080600101915050610934565b5081945050506109c8565b6109c9565b5b80806001019150506108b7565b5050919050565b8060008090505b600c80549050811015610a345781600c82815481101515610a0157fe5b90600052602060002001541415610a2157610a1c8585611322565b610a26565b610a27565b5b80806001019150506109e4565b5050505050565b610a43611773565b816000600160008381526020019081526020016000206000015414151515610a6a57600080fd5b610a72611773565b600360008681526020019081526020016000206060604051908101604052908160008201548152602001600182015481526020016002820154815250509050809250505092915050565b826000600160008381526020019081526020016000206000015414151515610ae357600080fd5b60056000848152602001908152602001600020546001600086815260200190815260200160002060010154141515610b1a57600080fd5b600060016000868152602001908152602001600020905060018160020160006101000a81548160ff02191690831515021790555042816003018190555083600460008781526020019081526020016000208190555060086000858152602001908152602001600020600081548092919060010191905055508284867faf6151f5085accf2d57e1e7bf7601d3b3982e0de7e9a90f032f8554de9c104f660405160405180910390a45050505050565b600a81815481101515610bd757fe5b906000526020600020016000915090508060000154905081565b60066020528060005260406000206000915090505481565b600060011515600060149054906101000a900460ff161515141515610c2d57600080fd5b816000600160008381526020019081526020016000206000015414151515610c5457600080fd5b6060610c608585610f7f565b9050600080600090505b8251811015610cb357600860008483815181101515610c8557fe5b9060200190602002015160000151815260200190815260200160002054820191508080600101915050610c6a565b5080935050505092915050565b60046020528060005260406000206000915090505481565b60026020528060005260406000206000915090508060000154905081565b610cfe610e82565b1515610d0957600080fd5b600073ffffffffffffffffffffffffffffffffffffffff166000809054906101000a900473ffffffffffffffffffffffffffffffffffffffff1673ffffffffffffffffffffffffffffffffffffffff167f8be0079c531659141344cd1fd0a4f28419497f9722a3daafe3b4186f6b6457e060405160405180910390a360008060006101000a81548173ffffffffffffffffffffffffffffffffffffffff021916908373ffffffffffffffffffffffffffffffffffffffff160217905550565b8060008090505b600c80549050811015610e525781600c82815481101515610dec57fe5b90600052602060002001541415610e3f5760008090505b85859050811015610e3957610e2c8686838181101515610e1f57fe5b90506020020135856114de565b8080600101915050610e03565b50610e44565b610e45565b5b8080600101915050610dcf565b5050505050565b60008060009054906101000a900473ffffffffffffffffffffffffffffffffffffffff16905090565b60008060009054906101000a900473ffffffffffffffffffffffffffffffffffffffff1673ffffffffffffffffffffffffffffffffffffffff163373ffffffffffffffffffffffffffffffffffffffff1614905090565b600b81815481101515610ee857fe5b90600052602060002090600302016000915090508060000154908060010154908060020154905083565b610f1a610e82565b1515610f2557600080fd5b600c81908060018154018082558091505090600182039060005260206000200160009091929091909150555050565b600060149054906101000a900460ff1681565b60076020528060005260406000206000915090505481565b6060816000600160008381526020019081526020016000206000015414151515610fa857600080fd5b60606006600086815260200190815260200160002054604051908082528060200260200182016040528015610ff757816020015b610fe4611795565b815260200190600190039081610fdc5790505b509050600080905060008090505b600a805490508110156110a9578660056000600a8481548110151561102657fe5b9060005260206000200160000154815260200190815260200160002054141561109c57600a8181548110151561105857fe5b9060005260206000200160206040519081016040529081600082015481525050838381518110151561108657fe5b9060200190602002018190525081806001019250505b8080600101915050611005565b5081935050505092915050565b6009818154811015156110c557fe5b90600052602060002090600502016000915090508060000154908060010154908060020160009054906101000a900460ff16908060030154908060040160206040519081016040529081600082015481525050905085565b611125610e82565b151561113057600080fd5b6111398161162c565b50565b8060008090505b600c805490508110156111b35781600c8281548110151561116057fe5b906000526020600020015414156111a0576000600360008781526020019081526020016000209050428160010181905550848160020181905550506111a5565b6111a6565b5b8080600101915050611143565b5050505050565b60016020528060005260406000206000915090508060000154908060010154908060020160009054906101000a900460ff16908060030154908060040160206040519081016040529081600082015481525050905085565b8060008090505b600c8054905081101561131c5781600c8281548110151561123657fe5b906000526020600020015414156113095760006001600a60206040519081016040528088815250908060018154018082558091505090600182039060005260206000200160009091929091909150600082015181600001555050039050600a818154811015156112a257fe5b9060005260206000200160026000878152602001908152602001600020600082015481600001559050507f43dcee486fabffa2fb551555bfaa5bfcf6a42f2d014032ccef94bf09d83855eb856040516112fb9190611ba9565b60405180910390a15061130e565b61130f565b5b8080600101915050611219565b50505050565b61132a6117a9565b61133383611726565b905060006001600960a060405190810160405280878152602001868152602001600015158152602001600081526020018581525090806001815401808255809150509060018203906000526020600020906005020160009091929091909150600082015181600001556020820151816001015560408201518160020160006101000a81548160ff0219169083151502179055506060820151816003015560808201518160040160008201518160000155505050500390506009818154811015156113f957fe5b90600052602060002090600502016001600086815260200190815260200160002060008201548160000155600182015481600101556002820160009054906101000a900460ff168160020160006101000a81548160ff02191690831515021790555060038201548160030155600482018160040160008201548160000155505090505060076000848152602001908152602001600020600081548092919060010191905055507fa3b64c0b425d624b0d6d9f67d76ababb5e56dc10ef01de027c343a09fefdfb5d84846040516114d0929190611bc4565b60405180910390a150505050565b8060008090505b600c805490508110156116265781600c8281548110151561150257fe5b906000526020600020015414156116135760006001600b606060405190810160405280888152602001600081526020016000815250908060018154018082558091505090600182039060005260206000209060030201600090919290919091506000820151816000015560208201518160010155604082015181600201555050039050600b8181548110151561159457fe5b9060005260206000209060030201600360008781526020019081526020016000206000820154816000015560018201548160010155600282015481600201559050507f21db1a92fb8efb483c22a581ee7e282b6d79d9d43b559ee1affa341818867969856040516116059190611ba9565b60405180910390a150611618565b611619565b5b80806001019150506114e5565b50505050565b600073ffffffffffffffffffffffffffffffffffffffff168173ffffffffffffffffffffffffffffffffffffffff161415151561166857600080fd5b8073ffffffffffffffffffffffffffffffffffffffff166000809054906101000a900473ffffffffffffffffffffffffffffffffffffffff1673ffffffffffffffffffffffffffffffffffffffff167f8be0079c531659141344cd1fd0a4f28419497f9722a3daafe3b4186f6b6457e060405160405180910390a3806000806101000a81548173ffffffffffffffffffffffffffffffffffffffff021916908373ffffffffffffffffffffffffffffffffffffffff16021790555050565b61172e6117a9565b6117366117a9565b60206040519081016040528084815250905080915050919050565b6060604051908101604052806000815260200160008152602001600081525090565b6060604051908101604052806000815260200160008152602001600081525090565b602060405190810160405280600081525090565b602060405190810160405280600081525090565b60006117c98235611d34565b905092915050565b60008083601f84011215156117e557600080fd5b8235905067ffffffffffffffff8111156117fe57600080fd5b60208301915083602082028301111561181657600080fd5b9250929050565b60006118298235611d46565b905092915050565b60006020828403121561184357600080fd5b6000611851848285016117bd565b91505092915050565b60008060006040848603121561186f57600080fd5b600084013567ffffffffffffffff81111561188957600080fd5b611895868287016117d1565b935093505060206118a88682870161181d565b9150509250925092565b6000602082840312156118c457600080fd5b60006118d28482850161181d565b91505092915050565b600080604083850312156118ee57600080fd5b60006118fc8582860161181d565b925050602061190d8582860161181d565b9150509250929050565b60008060006060848603121561192c57600080fd5b600061193a8682870161181d565b935050602061194b8682870161181d565b925050604061195c8682870161181d565b9150509250925092565b61196f81611cdc565b82525050565b600061198082611cac565b80845260208401935061199283611c92565b60005b828110156119c4576119a8868351611a3a565b6119b182611cc2565b9150602086019550600181019050611995565b50849250505092915050565b60006119db82611cb7565b8084526020840193506119ed83611c9f565b60005b82811015611a1f57611a03868351611a98565b611a0c82611ccf565b91506060860195506001810190506119f0565b50849250505092915050565b611a3481611cee565b82525050565b602082016000820151611a506000850182611af6565b50505050565b606082016000820151611a6c6000850182611af6565b506020820151611a7f6020850182611af6565b506040820151611a926040850182611af6565b50505050565b606082016000820151611aae6000850182611af6565b506020820151611ac16020850182611af6565b506040820151611ad46040850182611af6565b50505050565b602082016000820151611af06000850182611af6565b50505050565b611aff81611d1a565b82525050565b611b0e81611d24565b82525050565b6000602082019050611b296000830184611966565b92915050565b60006020820190508181036000830152611b498184611975565b905092915050565b60006020820190508181036000830152611b6b81846119d0565b905092915050565b6000602082019050611b886000830184611a2b565b92915050565b6000606082019050611ba36000830184611a56565b92915050565b6000602082019050611bbe6000830184611af6565b92915050565b6000604082019050611bd96000830185611af6565b611be66020830184611af6565b9392505050565b600060a082019050611c026000830188611af6565b611c0f6020830187611af6565b611c1c6040830186611a2b565b611c296060830185611af6565b611c366080830184611ada565b9695505050505050565b6000606082019050611c556000830186611af6565b611c626020830185611af6565b611c6f6040830184611af6565b949350505050565b6000602082019050611c8c6000830184611b05565b92915050565b6000602082019050919050565b6000602082019050919050565b600081519050919050565b600081519050919050565b6000602082019050919050565b6000602082019050919050565b6000611ce782611cfa565b9050919050565b60008115159050919050565b600073ffffffffffffffffffffffffffffffffffffffff82169050919050565b6000819050919050565b600063ffffffff82169050919050565b6000611d3f82611cfa565b9050919050565b600081905091905056fea265627a7a723058209015ba43cc75ecf931682eebb81e7955197f9fd18ac71a21cb6fb9bbf671c4866c6578706572696d656e74616cf50037",
  "source": "pragma solidity ^0.5.0;\npragma experimental ABIEncoderV2;\nimport './ResultHelper.sol';\n\ncontract Authorizer is ResultHelper {\n    \n    function registerVoter(uint256 _id, uint256 _constituencyId, uint256 _adminId) external onlyAdmin(_adminId) {\n        createVoter(_id, _constituencyId);\n    }\n}",
  "sourcePath": "/home/d3mon/Projects/sudo-rm--rf/contracts/Authorizer.sol",
  "compiler": {
    "name": "solc",
    "version": "0.5.0+commit.1d4f565a.Emscripten.clang"
  },
  "schemaVersion": "3.0.2",
  "updatedAt": "2020-02-06T16:35:33.464Z",
  "devdoc": {
    "methods": {
      "isOwner()": {
        "return": "true if `msg.sender` is the owner of the contract."
      },
      "owner()": {
        "return": "the address of the owner."
      },
      "renounceOwnership()": {
        "details": "Allows the current owner to relinquish control of the contract."
      },
      "transferOwnership(address)": {
        "details": "Allows the current owner to transfer control of the contract to a newOwner.",
        "params": {
          "newOwner": "The address to transfer ownership to."
        }
      }
    }
  },
  "userdoc": {
    "methods": {
      "renounceOwnership()": {
        "notice": "Renouncing to ownership will leave the contract without an owner. It will not be possible to call the functions with the `onlyOwner` modifier anymore."
      }
    }
  }
}