{
  "contractName": "Authorizer",
  "abi": [
    {
      "constant": true,
      "inputs": [
        {
          "name": "",
          "type": "uint256"
        }
      ],
      "name": "candidateVoteCount",
      "outputs": [
        {
          "name": "",
          "type": "uint256"
        }
      ],
      "payable": false,
      "stateMutability": "view",
      "type": "function",
      "signature": "0x01aa2e03"
    },
    {
      "constant": true,
      "inputs": [
        {
          "name": "",
          "type": "uint256"
        }
      ],
      "name": "idToConstituency",
      "outputs": [
        {
          "name": "_id",
          "type": "uint256"
        },
        {
          "name": "_startTime",
          "type": "uint256"
        },
        {
          "name": "_duration",
          "type": "uint256"
        }
      ],
      "payable": false,
      "stateMutability": "view",
      "type": "function",
      "signature": "0x0f80dcb0"
    },
    {
      "constant": false,
      "inputs": [
        {
          "name": "_id",
          "type": "uint256"
        },
        {
          "name": "_constituencyId",
          "type": "uint256"
        },
        {
          "name": "_adminId",
          "type": "uint256"
        }
      ],
      "name": "assignCandidateToConstituency",
      "outputs": [],
      "payable": false,
      "stateMutability": "nonpayable",
      "type": "function",
      "signature": "0x12d51c72"
    },
    {
      "constant": true,
      "inputs": [
        {
          "name": "",
          "type": "uint256"
        }
      ],
      "name": "candidateToConstituency",
      "outputs": [
        {
          "name": "",
          "type": "uint256"
        }
      ],
      "payable": false,
      "stateMutability": "view",
      "type": "function",
      "signature": "0x1471e0ab"
    },
    {
      "constant": true,
      "inputs": [
        {
          "name": "",
          "type": "uint256"
        }
      ],
      "name": "admins",
      "outputs": [
        {
          "name": "",
          "type": "uint256"
        }
      ],
      "payable": false,
      "stateMutability": "view",
      "type": "function",
      "signature": "0x14bfd6d0"
    },
    {
      "constant": false,
      "inputs": [
        {
          "name": "_adminId",
          "type": "uint256"
        }
      ],
      "name": "declareResults",
      "outputs": [],
      "payable": false,
      "stateMutability": "nonpayable",
      "type": "function",
      "signature": "0x23dc5c6e"
    },
    {
      "constant": false,
      "inputs": [
        {
          "name": "_adminId",
          "type": "uint256"
        }
      ],
      "name": "getConstituencies",
      "outputs": [
        {
          "components": [
            {
              "name": "_id",
              "type": "uint256"
            },
            {
              "name": "_startTime",
              "type": "uint256"
            },
            {
              "name": "_duration",
              "type": "uint256"
            }
          ],
          "name": "",
          "type": "tuple[]"
        }
      ],
      "payable": false,
      "stateMutability": "nonpayable",
      "type": "function",
      "signature": "0x28975210"
    },
    {
      "constant": false,
      "inputs": [
        {
          "name": "_id",
          "type": "uint256"
        },
        {
          "name": "_userId",
          "type": "uint256"
        }
      ],
      "name": "getConstituencyDetails",
      "outputs": [
        {
          "components": [
            {
              "name": "_id",
              "type": "uint256"
            },
            {
              "name": "_startTime",
              "type": "uint256"
            },
            {
              "name": "_duration",
              "type": "uint256"
            }
          ],
          "name": "",
          "type": "tuple"
        }
      ],
      "payable": false,
      "stateMutability": "nonpayable",
      "type": "function",
      "signature": "0x2fd23a3f"
    },
    {
      "constant": true,
      "inputs": [
        {
          "name": "",
          "type": "uint256"
        }
      ],
      "name": "candidates",
      "outputs": [
        {
          "name": "_id",
          "type": "uint256"
        }
      ],
      "payable": false,
      "stateMutability": "view",
      "type": "function",
      "signature": "0x3477ee2e"
    },
    {
      "constant": false,
      "inputs": [
        {
          "name": "_id",
          "type": "uint256"
        },
        {
          "name": "_adminId",
          "type": "uint256"
        }
      ],
      "name": "registerConstituency",
      "outputs": [],
      "payable": false,
      "stateMutability": "nonpayable",
      "type": "function",
      "signature": "0x3acab52f"
    },
    {
      "constant": true,
      "inputs": [
        {
          "name": "",
          "type": "uint256"
        }
      ],
      "name": "constituencyCandidateCount",
      "outputs": [
        {
          "name": "",
          "type": "uint256"
        }
      ],
      "payable": false,
      "stateMutability": "view",
      "type": "function",
      "signature": "0x3b04a6c9"
    },
    {
      "constant": false,
      "inputs": [
        {
          "name": "from",
          "type": "uint256"
        },
        {
          "name": "to",
          "type": "uint256"
        },
        {
          "name": "tokenId",
          "type": "bytes32"
        }
      ],
      "name": "transferFrom",
      "outputs": [],
      "payable": false,
      "stateMutability": "nonpayable",
      "type": "function",
      "signature": "0x3ba8b3ff"
    },
    {
      "constant": true,
      "inputs": [
        {
          "name": "_constituencyId",
          "type": "uint256"
        },
        {
          "name": "_userId",
          "type": "uint256"
        }
      ],
      "name": "retreiveConstituencyVoteCount",
      "outputs": [
        {
          "name": "",
          "type": "uint32"
        }
      ],
      "payable": false,
      "stateMutability": "view",
      "type": "function",
      "signature": "0x45dc9ad7"
    },
    {
      "constant": true,
      "inputs": [
        {
          "name": "",
          "type": "uint256"
        }
      ],
      "name": "voteToCandidate",
      "outputs": [
        {
          "name": "",
          "type": "uint256"
        }
      ],
      "payable": false,
      "stateMutability": "view",
      "type": "function",
      "signature": "0x56be1658"
    },
    {
      "constant": true,
      "inputs": [
        {
          "name": "",
          "type": "uint256"
        }
      ],
      "name": "idToCandidate",
      "outputs": [
        {
          "name": "_id",
          "type": "uint256"
        }
      ],
      "payable": false,
      "stateMutability": "view",
      "type": "function",
      "signature": "0x57e2ef10"
    },
    {
      "constant": false,
      "inputs": [
        {
          "name": "_id",
          "type": "uint256"
        },
        {
          "name": "_adminId",
          "type": "uint256"
        }
      ],
      "name": "registerCandidate",
      "outputs": [],
      "payable": false,
      "stateMutability": "nonpayable",
      "type": "function",
      "signature": "0x5d6e5052"
    },
    {
      "constant": false,
      "inputs": [],
      "name": "renounceOwnership",
      "outputs": [],
      "payable": false,
      "stateMutability": "nonpayable",
      "type": "function",
      "signature": "0x715018a6"
    },
    {
      "constant": true,
      "inputs": [],
      "name": "owner",
      "outputs": [
        {
          "name": "",
          "type": "address"
        }
      ],
      "payable": false,
      "stateMutability": "view",
      "type": "function",
      "signature": "0x8da5cb5b"
    },
    {
      "constant": true,
      "inputs": [],
      "name": "isOwner",
      "outputs": [
        {
          "name": "",
          "type": "bool"
        }
      ],
      "payable": false,
      "stateMutability": "view",
      "type": "function",
      "signature": "0x8f32d59b"
    },
    {
      "constant": true,
      "inputs": [
        {
          "name": "",
          "type": "uint256"
        }
      ],
      "name": "constituencies",
      "outputs": [
        {
          "name": "_id",
          "type": "uint256"
        },
        {
          "name": "_startTime",
          "type": "uint256"
        },
        {
          "name": "_duration",
          "type": "uint256"
        }
      ],
      "payable": false,
      "stateMutability": "view",
      "type": "function",
      "signature": "0x9209416a"
    },
    {
      "constant": false,
      "inputs": [
        {
          "name": "_id",
          "type": "uint256"
        }
      ],
      "name": "registerAdmin",
      "outputs": [],
      "payable": false,
      "stateMutability": "nonpayable",
      "type": "function",
      "signature": "0x94845254"
    },
    {
      "constant": true,
      "inputs": [
        {
          "name": "_constituencyId",
          "type": "uint256"
        },
        {
          "name": "_userId",
          "type": "uint256"
        }
      ],
      "name": "getCandidatesByConstituency",
      "outputs": [
        {
          "components": [
            {
              "name": "_id",
              "type": "uint256"
            }
          ],
          "name": "",
          "type": "tuple[]"
        }
      ],
      "payable": false,
      "stateMutability": "view",
      "type": "function",
      "signature": "0xbbc893a3"
    },
    {
      "constant": true,
      "inputs": [
        {
          "name": "",
          "type": "uint256"
        }
      ],
      "name": "voters",
      "outputs": [
        {
          "name": "_id",
          "type": "uint256"
        },
        {
          "name": "_constituencyId",
          "type": "uint256"
        },
        {
          "name": "_hasVoted",
          "type": "bool"
        },
        {
          "components": [
            {
              "name": "_voteId",
              "type": "uint256"
            },
            {
              "name": "_votedId",
              "type": "uint256"
            },
            {
              "name": "_voteTime",
              "type": "uint64"
            }
          ],
          "name": "_vote",
          "type": "tuple"
        }
      ],
      "payable": false,
      "stateMutability": "view",
      "type": "function",
      "signature": "0xda58c7d9"
    },
    {
      "constant": false,
      "inputs": [
        {
          "name": "newOwner",
          "type": "address"
        }
      ],
      "name": "transferOwnership",
      "outputs": [],
      "payable": false,
      "stateMutability": "nonpayable",
      "type": "function",
      "signature": "0xf2fde38b"
    },
    {
      "constant": false,
      "inputs": [
        {
          "name": "_id",
          "type": "uint256"
        },
        {
          "name": "_duration",
          "type": "uint256"
        },
        {
          "name": "_adminId",
          "type": "uint256"
        }
      ],
      "name": "generateElectionforConstituency",
      "outputs": [],
      "payable": false,
      "stateMutability": "nonpayable",
      "type": "function",
      "signature": "0xf7590065"
    },
    {
      "constant": true,
      "inputs": [
        {
          "name": "",
          "type": "uint256"
        }
      ],
      "name": "idToVoter",
      "outputs": [
        {
          "name": "_id",
          "type": "uint256"
        },
        {
          "name": "_constituencyId",
          "type": "uint256"
        },
        {
          "name": "_hasVoted",
          "type": "bool"
        },
        {
          "components": [
            {
              "name": "_voteId",
              "type": "uint256"
            },
            {
              "name": "_votedId",
              "type": "uint256"
            },
            {
              "name": "_voteTime",
              "type": "uint64"
            }
          ],
          "name": "_vote",
          "type": "tuple"
        }
      ],
      "payable": false,
      "stateMutability": "view",
      "type": "function",
      "signature": "0xf8c70571"
    },
    {
      "anonymous": false,
      "inputs": [
        {
          "indexed": true,
          "name": "_from",
          "type": "uint256"
        },
        {
          "indexed": true,
          "name": "_to",
          "type": "uint256"
        },
        {
          "indexed": true,
          "name": "_tokenId",
          "type": "bytes32"
        }
      ],
      "name": "Transfer",
      "type": "event",
      "signature": "0x612c500cbd8f1ed8a4643cbf6b41fda92203645d7e4f7c3a237a1be69565ea2c"
    },
    {
      "anonymous": false,
      "inputs": [
        {
          "indexed": false,
          "name": "_id",
          "type": "uint256"
        },
        {
          "indexed": false,
          "name": "_constituencyId",
          "type": "uint256"
        }
      ],
      "name": "VoterCreated",
      "type": "event",
      "signature": "0xa3b64c0b425d624b0d6d9f67d76ababb5e56dc10ef01de027c343a09fefdfb5d"
    },
    {
      "anonymous": false,
      "inputs": [
        {
          "indexed": false,
          "name": "_id",
          "type": "uint256"
        }
      ],
      "name": "CandidateRegistered",
      "type": "event",
      "signature": "0x43dcee486fabffa2fb551555bfaa5bfcf6a42f2d014032ccef94bf09d83855eb"
    },
    {
      "anonymous": false,
      "inputs": [
        {
          "indexed": false,
          "name": "_id",
          "type": "uint256"
        }
      ],
      "name": "ConstituencyRegistered",
      "type": "event",
      "signature": "0x21db1a92fb8efb483c22a581ee7e282b6d79d9d43b559ee1affa341818867969"
    },
    {
      "anonymous": false,
      "inputs": [
        {
          "indexed": true,
          "name": "previousOwner",
          "type": "address"
        },
        {
          "indexed": true,
          "name": "newOwner",
          "type": "address"
        }
      ],
      "name": "OwnershipTransferred",
      "type": "event",
      "signature": "0x8be0079c531659141344cd1fd0a4f28419497f9722a3daafe3b4186f6b6457e0"
    },
    {
      "constant": false,
      "inputs": [
        {
          "name": "_id",
          "type": "uint256"
        },
        {
          "name": "_constituencyId",
          "type": "uint256"
        },
        {
          "name": "_adminId",
          "type": "uint256"
        }
      ],
      "name": "registerVoter",
      "outputs": [],
      "payable": false,
      "stateMutability": "nonpayable",
      "type": "function",
      "signature": "0x2ed58701"
    },
    {
      "constant": false,
      "inputs": [
        {
          "name": "_id",
          "type": "uint256"
        }
      ],
      "name": "loginVoter",
      "outputs": [
        {
          "components": [
            {
              "name": "_id",
              "type": "uint256"
            },
            {
              "name": "_constituencyId",
              "type": "uint256"
            },
            {
              "name": "_hasVoted",
              "type": "bool"
            },
            {
              "components": [
                {
                  "name": "_voteId",
                  "type": "uint256"
                },
                {
                  "name": "_votedId",
                  "type": "uint256"
                },
                {
                  "name": "_voteTime",
                  "type": "uint64"
                }
              ],
              "name": "_vote",
              "type": "tuple"
            }
          ],
          "name": "",
          "type": "tuple"
        }
      ],
      "payable": false,
      "stateMutability": "nonpayable",
      "type": "function",
      "signature": "0x52d2ec93"
    }
  ],
  "bytecode": "0x6080604052336000806101000a81548173ffffffffffffffffffffffffffffffffffffffff021916908373ffffffffffffffffffffffffffffffffffffffff1602179055506000809054906101000a900473ffffffffffffffffffffffffffffffffffffffff1673ffffffffffffffffffffffffffffffffffffffff16600073ffffffffffffffffffffffffffffffffffffffff167f8be0079c531659141344cd1fd0a4f28419497f9722a3daafe3b4186f6b6457e060405160405180910390a360008060146101000a81548160ff021916908315150217905550611fa0806100e96000396000f3fe60806040526004361061016a576000357c0100000000000000000000000000000000000000000000000000000000900463ffffffff16806301aa2e031461016f5780630f80dcb0146101ac57806312d51c72146101eb5780631471e0ab1461021457806314bfd6d01461025157806323dc5c6e1461028e57806328975210146102b75780632ed58701146102f45780632fd23a3f1461031d5780633477ee2e1461035a5780633acab52f146103975780633b04a6c9146103c05780633ba8b3ff146103fd57806345dc9ad71461042657806352d2ec931461046357806356be1658146104a057806357e2ef10146104dd5780635d6e50521461051a578063715018a6146105435780638da5cb5b1461055a5780638f32d59b146105855780639209416a146105b057806394845254146105ef578063bbc893a314610618578063da58c7d914610655578063f2fde38b14610695578063f7590065146106be578063f8c70571146106e7575b600080fd5b34801561017b57600080fd5b50610196600480360361019191908101906119c4565b610727565b6040516101a39190611daf565b60405180910390f35b3480156101b857600080fd5b506101d360048036036101ce91908101906119c4565b61073f565b6040516101e293929190611e38565b60405180910390f35b3480156101f757600080fd5b50610212600480360361020d9190810190611a78565b610769565b005b34801561022057600080fd5b5061023b600480360361023691908101906119c4565b6107f8565b6040516102489190611daf565b60405180910390f35b34801561025d57600080fd5b50610278600480360361027391908101906119c4565b610810565b6040516102859190611daf565b60405180910390f35b34801561029a57600080fd5b506102b560048036036102b091908101906119c4565b610833565b005b3480156102c357600080fd5b506102de60048036036102d991908101906119c4565b6108a0565b6040516102eb9190611d3c565b60405180910390f35b34801561030057600080fd5b5061031b60048036036103169190810190611a78565b61096f565b005b34801561032957600080fd5b50610344600480360361033f91908101906119ed565b6109cd565b6040516103519190611d79565b60405180910390f35b34801561036657600080fd5b50610381600480360361037c91908101906119c4565b610a4e565b60405161038e9190611daf565b60405180910390f35b3480156103a357600080fd5b506103be60048036036103b991908101906119ed565b610a77565b005b3480156103cc57600080fd5b506103e760048036036103e291908101906119c4565b610bc5565b6040516103f49190611daf565b60405180910390f35b34801561040957600080fd5b50610424600480360361041f9190810190611a29565b610bdd565b005b34801561043257600080fd5b5061044d600480360361044891908101906119ed565b610d78565b60405161045a9190611e6f565b60405180910390f35b34801561046f57600080fd5b5061048a600480360361048591908101906119c4565b610e2f565b6040516104979190611d94565b60405180910390f35b3480156104ac57600080fd5b506104c760048036036104c291908101906119c4565b610f1b565b6040516104d49190611daf565b60405180910390f35b3480156104e957600080fd5b5061050460048036036104ff91908101906119c4565b610f33565b6040516105119190611daf565b60405180910390f35b34801561052657600080fd5b50610541600480360361053c91908101906119ed565b610f51565b005b34801561054f57600080fd5b50610558611061565b005b34801561056657600080fd5b5061056f611133565b60405161057c9190611cff565b60405180910390f35b34801561059157600080fd5b5061059a61115c565b6040516105a79190611d5e565b60405180910390f35b3480156105bc57600080fd5b506105d760048036036105d291908101906119c4565b6111b3565b6040516105e693929190611e38565b60405180910390f35b3480156105fb57600080fd5b50610616600480360361061191908101906119c4565b6111ec565b005b34801561062457600080fd5b5061063f600480360361063a91908101906119ed565b61122e565b60405161064c9190611d1a565b60405180910390f35b34801561066157600080fd5b5061067c600480360361067791908101906119c4565b611365565b60405161068c9493929190611df3565b60405180910390f35b3480156106a157600080fd5b506106bc60048036036106b7919081019061199b565b611402565b005b3480156106ca57600080fd5b506106e560048036036106e09190810190611a78565b611421565b005b3480156106f357600080fd5b5061070e600480360361070991908101906119c4565b6114d1565b60405161071e9493929190611df3565b60405180910390f35b60076020528060005260406000206000915090505481565b60036020528060005260406000206000915090508060000154908060010154908060020154905083565b8060008090505b600b805490508110156107f15781600b8281548110151561078d57fe5b906000526020600020015414156107de5783600560008781526020019081526020016000208190555060066000858152602001908152602001600020600081548092919060010191905055506107e3565b6107e4565b5b8080600101915050610770565b5050505050565b60056020528060005260406000206000915090505481565b600b8181548110151561081f57fe5b906000526020600020016000915090505481565b8060008090505b600b8054905081101561089b5781600b8281548110151561085757fe5b90600052602060002001541415610888576001600060146101000a81548160ff02191690831515021790555061088d565b61088e565b5b808060010191505061083a565b505050565b60608160008090505b600b805490508110156109685781600b828154811015156108c657fe5b9060005260206000200154141561095557600a805480602002602001604051908101604052809291908181526020016000905b8282101561094a5783829060005260206000209060030201606060405190810160405290816000820154815260200160018201548152602001600282015481525050815260200190600101906108f9565b50505050925061095a565b61095b565b5b80806001019150506108a9565b5050919050565b8060008090505b600b805490508110156109c65781600b8281548110151561099357fe5b906000526020600020015414156109b3576109ae858561155f565b6109b8565b6109b9565b5b8080600101915050610976565b5050505050565b6109d56118a0565b8160006001600083815260200190815260200160002060000154141515156109fc57600080fd5b610a046118a0565b600360008681526020019081526020016000206060604051908101604052908160008201548152602001600182015481526020016002820154815250509050809250505092915050565b600981815481101515610a5d57fe5b906000526020600020016000915090508060000154905081565b8060008090505b600b80549050811015610bbf5781600b82815481101515610a9b57fe5b90600052602060002001541415610bac5760006001600a606060405190810160405280888152602001600081526020016000815250908060018154018082558091505090600182039060005260206000209060030201600090919290919091506000820151816000015560208201518160010155604082015181600201555050039050600a81815481101515610b2d57fe5b9060005260206000209060030201600360008781526020019081526020016000206000820154816000015560018201548160010155600282015481600201559050507f21db1a92fb8efb483c22a581ee7e282b6d79d9d43b559ee1affa34181886796985604051610b9e9190611daf565b60405180910390a150610bb1565b610bb2565b5b8080600101915050610a7e565b50505050565b60066020528060005260406000206000915090505481565b826000600160008381526020019081526020016000206000015414151515610c0457600080fd5b60056000848152602001908152602001600020546001600086815260200190815260200160002060010154141515610c3b57600080fd5b610c436118c2565b600160008681526020019081526020016000206080604051908101604052908160008201548152602001600182015481526020016002820160009054906101000a900460ff16151515158152602001600382016060604051908101604052908160008201548152602001600182015481526020016002820160009054906101000a900467ffffffffffffffff1667ffffffffffffffff1667ffffffffffffffff16815250508152505090506001816040019015159081151581525050836004600083606001516000015181526020019081526020016000208190555060076000858152602001908152602001600020600081548092919060010191905055508284867f612c500cbd8f1ed8a4643cbf6b41fda92203645d7e4f7c3a237a1be69565ea2c60405160405180910390a45050505050565b600060011515600060149054906101000a900460ff161515141515610d9c57600080fd5b816000600160008381526020019081526020016000206000015414151515610dc357600080fd5b6060610dcf858561122e565b9050600080600090505b8251811015610e2257600760008483815181101515610df457fe5b9060200190602002015160000151815260200190815260200160002054820191508080600101915050610dd9565b5080935050505092915050565b610e376118c2565b816000600160008381526020019081526020016000206000015414151515610e5e57600080fd5b610e666118c2565b600160008581526020019081526020016000206080604051908101604052908160008201548152602001600182015481526020016002820160009054906101000a900460ff16151515158152602001600382016060604051908101604052908160008201548152602001600182015481526020016002820160009054906101000a900467ffffffffffffffff1667ffffffffffffffff1667ffffffffffffffff16815250508152505090508092505050919050565b60046020528060005260406000206000915090505481565b60026020528060005260406000206000915090508060000154905081565b8060008090505b600b8054905081101561105b5781600b82815481101515610f7557fe5b906000526020600020015414156110485760006001600960206040519081016040528088815250908060018154018082558091505090600182039060005260206000200160009091929091909150600082015181600001555050039050600981815481101515610fe157fe5b9060005260206000200160026000878152602001908152602001600020600082015481600001559050507f43dcee486fabffa2fb551555bfaa5bfcf6a42f2d014032ccef94bf09d83855eb8560405161103a9190611daf565b60405180910390a15061104d565b61104e565b5b8080600101915050610f58565b50505050565b61106961115c565b151561107457600080fd5b600073ffffffffffffffffffffffffffffffffffffffff166000809054906101000a900473ffffffffffffffffffffffffffffffffffffffff1673ffffffffffffffffffffffffffffffffffffffff167f8be0079c531659141344cd1fd0a4f28419497f9722a3daafe3b4186f6b6457e060405160405180910390a360008060006101000a81548173ffffffffffffffffffffffffffffffffffffffff021916908373ffffffffffffffffffffffffffffffffffffffff160217905550565b60008060009054906101000a900473ffffffffffffffffffffffffffffffffffffffff16905090565b60008060009054906101000a900473ffffffffffffffffffffffffffffffffffffffff1673ffffffffffffffffffffffffffffffffffffffff163373ffffffffffffffffffffffffffffffffffffffff1614905090565b600a818154811015156111c257fe5b90600052602060002090600302016000915090508060000154908060010154908060020154905083565b6111f461115c565b15156111ff57600080fd5b600b81908060018154018082558091505090600182039060005260206000200160009091929091909150555050565b606081600060016000838152602001908152602001600020600001541415151561125757600080fd5b606060066000868152602001908152602001600020546040519080825280602002602001820160405280156112a657816020015b6112936118f3565b81526020019060019003908161128b5790505b509050600080905060008090505b6009805490508110156113585786600560006009848154811015156112d557fe5b9060005260206000200160000154815260200190815260200160002054141561134b5760098181548110151561130757fe5b9060005260206000200160206040519081016040529081600082015481525050838381518110151561133557fe5b9060200190602002018190525081806001019250505b80806001019150506112b4565b5081935050505092915050565b60088181548110151561137457fe5b90600052602060002090600602016000915090508060000154908060010154908060020160009054906101000a900460ff1690806003016060604051908101604052908160008201548152602001600182015481526020016002820160009054906101000a900467ffffffffffffffff1667ffffffffffffffff1667ffffffffffffffff1681525050905084565b61140a61115c565b151561141557600080fd5b61141e81611763565b50565b8060008090505b600b805490508110156114ca5781600b8281548110151561144557fe5b906000526020600020015414156114b75761145e6118a0565b6003600087815260200190815260200160002060606040519081016040529081600082015481526020016001820154815260200160028201548152505090504281602001818152505084816040018181525050506114bc565b6114bd565b5b8080600101915050611428565b5050505050565b60016020528060005260406000206000915090508060000154908060010154908060020160009054906101000a900460ff1690806003016060604051908101604052908160008201548152602001600182015481526020016002820160009054906101000a900467ffffffffffffffff1667ffffffffffffffff1667ffffffffffffffff1681525050905084565b611567611907565b6115708361185d565b90506000600160086080604051908101604052808781526020018681526020016000151581526020018581525090806001815401808255809150509060018203906000526020600020906006020160009091929091909150600082015181600001556020820151816001015560408201518160020160006101000a81548160ff021916908315150217905550606082015181600301600082015181600001556020820151816001015560408201518160020160006101000a81548167ffffffffffffffff021916908367ffffffffffffffff1602179055505050505003905060088181548110151561165e57fe5b90600052602060002090600602016001600086815260200190815260200160002060008201548160000155600182015481600101556002820160009054906101000a900460ff168160020160006101000a81548160ff021916908315150217905550600382018160030160008201548160000155600182015481600101556002820160009054906101000a900467ffffffffffffffff168160020160006101000a81548167ffffffffffffffff021916908367ffffffffffffffff16021790555050509050507fa3b64c0b425d624b0d6d9f67d76ababb5e56dc10ef01de027c343a09fefdfb5d8484604051611755929190611dca565b60405180910390a150505050565b600073ffffffffffffffffffffffffffffffffffffffff168173ffffffffffffffffffffffffffffffffffffffff161415151561179f57600080fd5b8073ffffffffffffffffffffffffffffffffffffffff166000809054906101000a900473ffffffffffffffffffffffffffffffffffffffff1673ffffffffffffffffffffffffffffffffffffffff167f8be0079c531659141344cd1fd0a4f28419497f9722a3daafe3b4186f6b6457e060405160405180910390a3806000806101000a81548173ffffffffffffffffffffffffffffffffffffffff021916908373ffffffffffffffffffffffffffffffffffffffff16021790555050565b611865611907565b61186d611907565b60606040519081016040528084815260200160008152602001600067ffffffffffffffff16815250905080915050919050565b6060604051908101604052806000815260200160008152602001600081525090565b60c06040519081016040528060008152602001600081526020016000151581526020016118ed611933565b81525090565b602060405190810160405280600081525090565b6060604051908101604052806000815260200160008152602001600067ffffffffffffffff1681525090565b6060604051908101604052806000815260200160008152602001600067ffffffffffffffff1681525090565b600061196b8235611f40565b905092915050565b600061197f8235611f52565b905092915050565b60006119938235611f5c565b905092915050565b6000602082840312156119ad57600080fd5b60006119bb8482850161195f565b91505092915050565b6000602082840312156119d657600080fd5b60006119e484828501611987565b91505092915050565b60008060408385031215611a0057600080fd5b6000611a0e85828601611987565b9250506020611a1f85828601611987565b9150509250929050565b600080600060608486031215611a3e57600080fd5b6000611a4c86828701611987565b9350506020611a5d86828701611987565b9250506040611a6e86828701611973565b9150509250925092565b600080600060608486031215611a8d57600080fd5b6000611a9b86828701611987565b9350506020611aac86828701611987565b9250506040611abd86828701611987565b9150509250925092565b611ad081611ed4565b82525050565b6000611ae182611ea4565b808452602084019350611af383611e8a565b60005b82811015611b2557611b09868351611b9b565b611b1282611eba565b9150602086019550600181019050611af6565b50849250505092915050565b6000611b3c82611eaf565b808452602084019350611b4e83611e97565b60005b82811015611b8057611b64868351611bf9565b611b6d82611ec7565b9150606086019550600181019050611b51565b50849250505092915050565b611b9581611ee6565b82525050565b602082016000820151611bb16000850182611cd2565b50505050565b606082016000820151611bcd6000850182611cd2565b506020820151611be06020850182611cd2565b506040820151611bf36040850182611cd2565b50505050565b606082016000820151611c0f6000850182611cd2565b506020820151611c226020850182611cd2565b506040820151611c356040850182611cd2565b50505050565b606082016000820151611c516000850182611cd2565b506020820151611c646020850182611cd2565b506040820151611c776040850182611cf0565b50505050565b60c082016000820151611c936000850182611cd2565b506020820151611ca66020850182611cd2565b506040820151611cb96040850182611b8c565b506060820151611ccc6060850182611c3b565b50505050565b611cdb81611f12565b82525050565b611cea81611f1c565b82525050565b611cf981611f2c565b82525050565b6000602082019050611d146000830184611ac7565b92915050565b60006020820190508181036000830152611d348184611ad6565b905092915050565b60006020820190508181036000830152611d568184611b31565b905092915050565b6000602082019050611d736000830184611b8c565b92915050565b6000606082019050611d8e6000830184611bb7565b92915050565b600060c082019050611da96000830184611c7d565b92915050565b6000602082019050611dc46000830184611cd2565b92915050565b6000604082019050611ddf6000830185611cd2565b611dec6020830184611cd2565b9392505050565b600060c082019050611e086000830187611cd2565b611e156020830186611cd2565b611e226040830185611b8c565b611e2f6060830184611c3b565b95945050505050565b6000606082019050611e4d6000830186611cd2565b611e5a6020830185611cd2565b611e676040830184611cd2565b949350505050565b6000602082019050611e846000830184611ce1565b92915050565b6000602082019050919050565b6000602082019050919050565b600081519050919050565b600081519050919050565b6000602082019050919050565b6000602082019050919050565b6000611edf82611ef2565b9050919050565b60008115159050919050565b600073ffffffffffffffffffffffffffffffffffffffff82169050919050565b6000819050919050565b600063ffffffff82169050919050565b600067ffffffffffffffff82169050919050565b6000611f4b82611ef2565b9050919050565b6000819050919050565b600081905091905056fea265627a7a723058203a68b30e1669b8e7a0babfea144af9081e9ebf11cf91fc8cb94fac24b58d3eac6c6578706572696d656e74616cf50037",
  "source": "pragma solidity ^0.5.0;\npragma experimental ABIEncoderV2;\nimport './ResultHelper.sol';\n\ncontract Authorizer is ResultHelper {\n    function registerVoter(uint256 _id, uint256 _constituencyId, uint256 _adminId) external onlyAdmin(_adminId) {\n        createVoter(_id, _constituencyId);\n    }\n\n    function loginVoter(uint256 _id) external onlyUser(_id) returns(Voter memory) {\n        Voter memory _voter = idToVoter[_id];\n        return _voter;\n    }\n}",
  "sourcePath": "/home/d3mon/Projects/sudo-rm--rf/contracts/Authorizer.sol",
  "compiler": {
    "name": "solc",
    "version": "0.5.0+commit.1d4f565a.Emscripten.clang"
  },
  "schemaVersion": "3.0.2",
  "updatedAt": "2019-12-24T13:41:30.195Z",
  "devdoc": {
    "methods": {
      "isOwner()": {
        "return": "true if `msg.sender` is the owner of the contract."
      },
      "owner()": {
        "return": "the address of the owner."
      },
      "renounceOwnership()": {
        "details": "Allows the current owner to relinquish control of the contract."
      },
      "transferOwnership(address)": {
        "details": "Allows the current owner to transfer control of the contract to a newOwner.",
        "params": {
          "newOwner": "The address to transfer ownership to."
        }
      }
    }
  },
  "userdoc": {
    "methods": {
      "renounceOwnership()": {
        "notice": "Renouncing to ownership will leave the contract without an owner. It will not be possible to call the functions with the `onlyOwner` modifier anymore."
      }
    }
  }
}