{
  "contractName": "ElectionHelper",
  "abi": [
    {
      "constant": true,
      "inputs": [
        {
          "name": "",
          "type": "uint256"
        }
      ],
      "name": "admins",
      "outputs": [
        {
          "name": "",
          "type": "uint256"
        }
      ],
      "payable": false,
      "stateMutability": "view",
      "type": "function"
    },
    {
      "constant": true,
      "inputs": [
        {
          "name": "",
          "type": "uint256"
        }
      ],
      "name": "candidates",
      "outputs": [
        {
          "name": "_id",
          "type": "uint256"
        }
      ],
      "payable": false,
      "stateMutability": "view",
      "type": "function"
    },
    {
      "constant": false,
      "inputs": [
        {
          "name": "_id",
          "type": "uint256"
        },
        {
          "name": "_adminId",
          "type": "uint256"
        }
      ],
      "name": "registerConstituency",
      "outputs": [],
      "payable": false,
      "stateMutability": "nonpayable",
      "type": "function"
    },
    {
      "constant": false,
      "inputs": [
        {
          "name": "_id",
          "type": "uint256"
        },
        {
          "name": "_adminId",
          "type": "uint256"
        }
      ],
      "name": "registerCandidate",
      "outputs": [],
      "payable": false,
      "stateMutability": "nonpayable",
      "type": "function"
    },
    {
      "constant": false,
      "inputs": [],
      "name": "renounceOwnership",
      "outputs": [],
      "payable": false,
      "stateMutability": "nonpayable",
      "type": "function"
    },
    {
      "constant": true,
      "inputs": [],
      "name": "owner",
      "outputs": [
        {
          "name": "",
          "type": "address"
        }
      ],
      "payable": false,
      "stateMutability": "view",
      "type": "function"
    },
    {
      "constant": true,
      "inputs": [],
      "name": "isOwner",
      "outputs": [
        {
          "name": "",
          "type": "bool"
        }
      ],
      "payable": false,
      "stateMutability": "view",
      "type": "function"
    },
    {
      "constant": true,
      "inputs": [
        {
          "name": "",
          "type": "uint256"
        }
      ],
      "name": "constituencies",
      "outputs": [
        {
          "name": "_id",
          "type": "uint256"
        },
        {
          "name": "_startTime",
          "type": "uint256"
        },
        {
          "name": "_duration",
          "type": "uint256"
        }
      ],
      "payable": false,
      "stateMutability": "view",
      "type": "function"
    },
    {
      "constant": false,
      "inputs": [
        {
          "name": "_id",
          "type": "uint256"
        }
      ],
      "name": "registerAdmin",
      "outputs": [],
      "payable": false,
      "stateMutability": "nonpayable",
      "type": "function"
    },
    {
      "constant": true,
      "inputs": [
        {
          "name": "",
          "type": "uint256"
        }
      ],
      "name": "voters",
      "outputs": [
        {
          "name": "_id",
          "type": "uint256"
        },
        {
          "name": "_constituencyId",
          "type": "uint256"
        },
        {
          "name": "_hasVoted",
          "type": "bool"
        },
        {
          "components": [
            {
              "name": "_voteId",
              "type": "bytes32"
            },
            {
              "name": "_votedId",
              "type": "uint256"
            },
            {
              "name": "_voteTime",
              "type": "uint64"
            }
          ],
          "name": "_vote",
          "type": "tuple"
        }
      ],
      "payable": false,
      "stateMutability": "view",
      "type": "function"
    },
    {
      "constant": false,
      "inputs": [
        {
          "name": "newOwner",
          "type": "address"
        }
      ],
      "name": "transferOwnership",
      "outputs": [],
      "payable": false,
      "stateMutability": "nonpayable",
      "type": "function"
    },
    {
      "anonymous": false,
      "inputs": [
        {
          "indexed": false,
          "name": "_id",
          "type": "uint256"
        },
        {
          "indexed": false,
          "name": "_voterId",
          "type": "uint256"
        }
      ],
      "name": "VoterCreated",
      "type": "event"
    },
    {
      "anonymous": false,
      "inputs": [
        {
          "indexed": false,
          "name": "_id",
          "type": "uint256"
        }
      ],
      "name": "CandidateRegistered",
      "type": "event"
    },
    {
      "anonymous": false,
      "inputs": [
        {
          "indexed": false,
          "name": "_id",
          "type": "uint256"
        }
      ],
      "name": "ConstituencyRegistered",
      "type": "event"
    },
    {
      "anonymous": false,
      "inputs": [
        {
          "indexed": true,
          "name": "previousOwner",
          "type": "address"
        },
        {
          "indexed": true,
          "name": "newOwner",
          "type": "address"
        }
      ],
      "name": "OwnershipTransferred",
      "type": "event"
    },
    {
      "constant": false,
      "inputs": [
        {
          "name": "_adminId",
          "type": "uint256"
        }
      ],
      "name": "getConstituencies",
      "outputs": [
        {
          "components": [
            {
              "name": "_id",
              "type": "uint256"
            },
            {
              "name": "_startTime",
              "type": "uint256"
            },
            {
              "name": "_duration",
              "type": "uint256"
            }
          ],
          "name": "",
          "type": "tuple[]"
        }
      ],
      "payable": false,
      "stateMutability": "nonpayable",
      "type": "function"
    },
    {
      "constant": false,
      "inputs": [
        {
          "name": "_id",
          "type": "uint256"
        },
        {
          "name": "_duration",
          "type": "uint256"
        },
        {
          "name": "_adminId",
          "type": "uint256"
        }
      ],
      "name": "generateElectionforConstituency",
      "outputs": [],
      "payable": false,
      "stateMutability": "nonpayable",
      "type": "function"
    },
    {
      "constant": false,
      "inputs": [
        {
          "name": "_id",
          "type": "uint256"
        },
        {
          "name": "_userId",
          "type": "uint256"
        }
      ],
      "name": "getConstituencyDetails",
      "outputs": [
        {
          "components": [
            {
              "name": "_id",
              "type": "uint256"
            },
            {
              "name": "_startTime",
              "type": "uint256"
            },
            {
              "name": "_duration",
              "type": "uint256"
            }
          ],
          "name": "",
          "type": "tuple"
        }
      ],
      "payable": false,
      "stateMutability": "nonpayable",
      "type": "function"
    },
    {
      "constant": false,
      "inputs": [
        {
          "name": "_id",
          "type": "uint256"
        },
        {
          "name": "_constituencyId",
          "type": "uint256"
        },
        {
          "name": "_adminId",
          "type": "uint256"
        }
      ],
      "name": "assignCandidateToConstituency",
      "outputs": [],
      "payable": false,
      "stateMutability": "nonpayable",
      "type": "function"
    },
    {
      "constant": true,
      "inputs": [
        {
          "name": "_constituencyId",
          "type": "uint256"
        },
        {
          "name": "_userId",
          "type": "uint256"
        }
      ],
      "name": "getCandidatesByConstituency",
      "outputs": [
        {
          "components": [
            {
              "name": "_id",
              "type": "uint256"
            }
          ],
          "name": "",
          "type": "tuple[]"
        }
      ],
      "payable": false,
      "stateMutability": "view",
      "type": "function"
    }
  ],
  "bytecode": "0x608060405260405180606001604052806000801b815260200160008152602001600067ffffffffffffffff168152506001600082015181600001556020820151816001015560408201518160020160006101000a81548167ffffffffffffffff021916908367ffffffffffffffff16021790555050506000600460006101000a81548160ff021916908315150217905550336000806101000a81548173ffffffffffffffffffffffffffffffffffffffff021916908373ffffffffffffffffffffffffffffffffffffffff1602179055506000809054906101000a900473ffffffffffffffffffffffffffffffffffffffff1673ffffffffffffffffffffffffffffffffffffffff16600073ffffffffffffffffffffffffffffffffffffffff167f8be0079c531659141344cd1fd0a4f28419497f9722a3daafe3b4186f6b6457e060405160405180910390a36112d38061015b6000396000f3fe608060405234801561001057600080fd5b50600436106101005760003560e01c80638da5cb5b11610097578063bbc893a311610066578063bbc893a3146102ad578063da58c7d9146102dd578063f2fde38b14610310578063f75900651461032c57610100565b80638da5cb5b146102235780638f32d59b146102415780639209416a1461025f578063948452541461029157610100565b80633477ee2e116100d35780633477ee2e146101b15780633acab52f146101e15780635d6e5052146101fd578063715018a61461021957610100565b806312d51c721461010557806314bfd6d01461012157806328975210146101515780632fd23a3f14610181575b600080fd5b61011f600480360361011a9190810190610df6565b610348565b005b61013b60048036036101369190810190610d91565b6103d5565b6040516101489190611102565b60405180910390f35b61016b60048036036101669190810190610d91565b6103f6565b60405161017891906110aa565b60405180910390f35b61019b60048036036101969190810190610dba565b6104c2565b6040516101a891906110e7565b60405180910390f35b6101cb60048036036101c69190810190610d91565b610540565b6040516101d89190611102565b60405180910390f35b6101fb60048036036101f69190810190610dba565b610567565b005b61021760048036036102129190810190610dba565b6106b0565b005b6102216107bb565b005b61022b61088b565b604051610238919061106d565b60405180910390f35b6102496108b4565b60405161025691906110cc565b60405180910390f35b61027960048036036102749190810190610d91565b61090b565b60405161028893929190611162565b60405180910390f35b6102ab60048036036102a69190810190610d91565b610942565b005b6102c760048036036102c29190810190610dba565b610982565b6040516102d49190611088565b60405180910390f35b6102f760048036036102f29190810190610d91565b610aae565b604051610307949392919061111d565b60405180910390f35b61032a60048036036103259190810190610d68565b610b48565b005b61034660048036036103419190810190610df6565b610b65565b005b8060008090505b600f805490508110156103ce5781600f828154811061036a57fe5b906000526020600020015414156103bb57836009600087815260200190815260200160002081905550600a6000858152602001908152602001600020600081548092919060010191905055506103c0565b6103c1565b5b808060010191505061034f565b5050505050565b600f81815481106103e257fe5b906000526020600020016000915090505481565b60608160008090505b600f805490508110156104bb5781600f828154811061041a57fe5b906000526020600020015414156104a857600e805480602002602001604051908101604052809291908181526020016000905b8282101561049d578382906000526020600020906003020160405180606001604052908160008201548152602001600182015481526020016002820154815250508152602001906001019061044d565b5050505092506104ad565b6104ae565b5b80806001019150506103ff565b5050919050565b6104ca610d0a565b816000600560008381526020019081526020016000206000015414156104ef57600080fd5b6104f7610d0a565b6007600086815260200190815260200160002060405180606001604052908160008201548152602001600182015481526020016002820154815250509050809250505092915050565b600d818154811061054d57fe5b906000526020600020016000915090508060000154905081565b8060008090505b600f805490508110156106aa5781600f828154811061058957fe5b906000526020600020015414156106975760006001600e6040518060600160405280888152602001600081526020016000815250908060018154018082558091505090600182039060005260206000209060030201600090919290919091506000820151816000015560208201518160010155604082015181600201555050039050600e818154811061061857fe5b9060005260206000209060030201600760008781526020019081526020016000206000820154816000015560018201548160010155600282015481600201559050507f21db1a92fb8efb483c22a581ee7e282b6d79d9d43b559ee1affa341818867969856040516106899190611102565b60405180910390a15061069c565b61069d565b5b808060010191505061056e565b50505050565b8060008090505b600f805490508110156107b55781600f82815481106106d257fe5b906000526020600020015414156107a25760006001600d604051806020016040528088815250908060018154018082558091505090600182039060005260206000200160009091929091909150600082015181600001555050039050600d818154811061073b57fe5b9060005260206000200160066000878152602001908152602001600020600082015481600001559050507f43dcee486fabffa2fb551555bfaa5bfcf6a42f2d014032ccef94bf09d83855eb856040516107949190611102565b60405180910390a1506107a7565b6107a8565b5b80806001019150506106b7565b50505050565b6107c36108b4565b6107cc57600080fd5b600073ffffffffffffffffffffffffffffffffffffffff166000809054906101000a900473ffffffffffffffffffffffffffffffffffffffff1673ffffffffffffffffffffffffffffffffffffffff167f8be0079c531659141344cd1fd0a4f28419497f9722a3daafe3b4186f6b6457e060405160405180910390a360008060006101000a81548173ffffffffffffffffffffffffffffffffffffffff021916908373ffffffffffffffffffffffffffffffffffffffff160217905550565b60008060009054906101000a900473ffffffffffffffffffffffffffffffffffffffff16905090565b60008060009054906101000a900473ffffffffffffffffffffffffffffffffffffffff1673ffffffffffffffffffffffffffffffffffffffff163373ffffffffffffffffffffffffffffffffffffffff1614905090565b600e818154811061091857fe5b90600052602060002090600302016000915090508060000154908060010154908060020154905083565b61094a6108b4565b61095357600080fd5b600f81908060018154018082558091505090600182039060005260206000200160009091929091909150555050565b6060816000600560008381526020019081526020016000206000015414156109a957600080fd5b6060600a6000868152602001908152602001600020546040519080825280602002602001820160405280156109f857816020015b6109e5610d2b565b8152602001906001900390816109dd5790505b509050600080905060008090505b600d80549050811015610aa1578660096000600d8481548110610a2557fe5b90600052602060002001600001548152602001908152602001600020541415610a9457600d8181548110610a5557fe5b90600052602060002001604051806020016040529081600082015481525050838381518110610a8057fe5b602002602001018190525081806001019250505b8080600101915050610a06565b5081935050505092915050565b600c8181548110610abb57fe5b90600052602060002090600602016000915090508060000154908060010154908060020160009054906101000a900460ff16908060030160405180606001604052908160008201548152602001600182015481526020016002820160009054906101000a900467ffffffffffffffff1667ffffffffffffffff1667ffffffffffffffff1681525050905084565b610b506108b4565b610b5957600080fd5b610b6281610c12565b50565b8060008090505b600f80549050811015610c0b5781600f8281548110610b8757fe5b90600052602060002001541415610bf857610ba0610d0a565b6007600087815260200190815260200160002060405180606001604052908160008201548152602001600182015481526020016002820154815250509050428160200181815250508481604001818152505050610bfd565b610bfe565b5b8080600101915050610b6c565b5050505050565b600073ffffffffffffffffffffffffffffffffffffffff168173ffffffffffffffffffffffffffffffffffffffff161415610c4c57600080fd5b8073ffffffffffffffffffffffffffffffffffffffff166000809054906101000a900473ffffffffffffffffffffffffffffffffffffffff1673ffffffffffffffffffffffffffffffffffffffff167f8be0079c531659141344cd1fd0a4f28419497f9722a3daafe3b4186f6b6457e060405160405180910390a3806000806101000a81548173ffffffffffffffffffffffffffffffffffffffff021916908373ffffffffffffffffffffffffffffffffffffffff16021790555050565b60405180606001604052806000815260200160008152602001600081525090565b6040518060200160405280600081525090565b600081359050610d4d8161126b565b92915050565b600081359050610d6281611282565b92915050565b600060208284031215610d7a57600080fd5b6000610d8884828501610d3e565b91505092915050565b600060208284031215610da357600080fd5b6000610db184828501610d53565b91505092915050565b60008060408385031215610dcd57600080fd5b6000610ddb85828601610d53565b9250506020610dec85828601610d53565b9150509250929050565b600080600060608486031215610e0b57600080fd5b6000610e1986828701610d53565b9350506020610e2a86828701610d53565b9250506040610e3b86828701610d53565b9150509250925092565b6000610e518383610f5e565b60208301905092915050565b6000610e698383610fbc565b60608301905092915050565b610e7e81611205565b82525050565b6000610e8f826111b3565b610e9981856111e3565b9350610ea483611199565b8060005b83811015610ed5578151610ebc8882610e45565b9750610ec7836111c9565b925050600181019050610ea8565b5085935050505092915050565b6000610eed826111be565b610ef781856111f4565b9350610f02836111a6565b8060005b83811015610f33578151610f1a8882610e5d565b9750610f25836111d6565b925050600181019050610f06565b5085935050505092915050565b610f4981611217565b82525050565b610f5881611223565b82525050565b602082016000820151610f746000850182611040565b50505050565b606082016000820151610f906000850182611040565b506020820151610fa36020850182611040565b506040820151610fb66040850182611040565b50505050565b606082016000820151610fd26000850182611040565b506020820151610fe56020850182611040565b506040820151610ff86040850182611040565b50505050565b6060820160008201516110146000850182610f4f565b5060208201516110276020850182611040565b50604082015161103a604085018261105e565b50505050565b6110498161124d565b82525050565b6110588161124d565b82525050565b61106781611257565b82525050565b60006020820190506110826000830184610e75565b92915050565b600060208201905081810360008301526110a28184610e84565b905092915050565b600060208201905081810360008301526110c48184610ee2565b905092915050565b60006020820190506110e16000830184610f40565b92915050565b60006060820190506110fc6000830184610f7a565b92915050565b6000602082019050611117600083018461104f565b92915050565b600060c082019050611132600083018761104f565b61113f602083018661104f565b61114c6040830185610f40565b6111596060830184610ffe565b95945050505050565b6000606082019050611177600083018661104f565b611184602083018561104f565b611191604083018461104f565b949350505050565b6000602082019050919050565b6000602082019050919050565b600081519050919050565b600081519050919050565b6000602082019050919050565b6000602082019050919050565b600082825260208201905092915050565b600082825260208201905092915050565b60006112108261122d565b9050919050565b60008115159050919050565b6000819050919050565b600073ffffffffffffffffffffffffffffffffffffffff82169050919050565b6000819050919050565b600067ffffffffffffffff82169050919050565b61127481611205565b811461127f57600080fd5b50565b61128b8161124d565b811461129657600080fd5b5056fea265627a7a723058205c8da4bea616b01a4b2e8fe7a31136f0e515f03b5ee9ca981cc3f1887ff2a87c6c6578706572696d656e74616cf50037",
  "source": "pragma solidity ^0.5.0;\npragma experimental ABIEncoderV2;\nimport \"./Election.sol\";\n\ncontract ElectionHelper is Election {\n\n    function getConstituencies(uint256 _adminId) external onlyAdmin(_adminId) returns(Constituency[] memory) {\n        return constituencies;\n    }\n\n    function generateElectionforConstituency(uint256 _id, uint256 _duration, uint256 _adminId) external onlyAdmin(_adminId) {\n        Constituency memory _constituency = idToConstituency[_id];\n        _constituency._startTime = block.timestamp;\n        _constituency._duration = _duration;\n    }\n\n    function getConstituencyDetails(uint256 _id, uint256 _userId) external onlyUser(_userId) returns(Constituency memory) {\n        Constituency memory _constituency = idToConstituency[_id];\n        return _constituency;\n    }\n\n    function assignCandidateToConstituency(uint256 _id, uint256 _constituencyId, uint256 _adminId) public onlyAdmin(_adminId) {\n        candidateToConstituency[_id] = _constituencyId;\n        constituencyCandidateCount[_constituencyId]++;\n    }\n\n    function getCandidatesByConstituency(uint256 _constituencyId, uint256 _userId) public view onlyUser(_userId) returns(Candidate[] memory) {\n        Candidate[] memory _candidates = new Candidate[](constituencyCandidateCount[_constituencyId]);\n        uint counter = 0;\n        for(uint i = 0; i < candidates.length; i++) {\n            if(candidateToConstituency[candidates[i]._id] == _constituencyId) {\n            _candidates[counter] = candidates[i];\n            counter++;\n        }\n    }\n\n        return _candidates;\n    }\n}",
  "sourcePath": "/home/d3mon/Projects/sudo-rm--rf/contracts/ElectionHelper.sol",
  "compiler": {
    "name": "solc",
    "version": "0.5.8+commit.23d335f2.Emscripten.clang"
  },
  "schemaVersion": "3.0.11",
  "updatedAt": "2019-08-21T02:47:24.932Z",
  "devdoc": {
    "methods": {
      "isOwner()": {
        "return": "true if `msg.sender` is the owner of the contract."
      },
      "owner()": {
        "return": "the address of the owner."
      },
      "renounceOwnership()": {
        "details": "Allows the current owner to relinquish control of the contract."
      },
      "transferOwnership(address)": {
        "details": "Allows the current owner to transfer control of the contract to a newOwner.",
        "params": {
          "newOwner": "The address to transfer ownership to."
        }
      }
    }
  },
  "userdoc": {
    "methods": {
      "renounceOwnership()": {
        "notice": "Renouncing to ownership will leave the contract without an owner. It will not be possible to call the functions with the `onlyOwner` modifier anymore."
      }
    }
  }
}