{
  "contractName": "ElectionHelper",
  "abi": [
    {
      "constant": true,
      "inputs": [
        {
          "name": "",
          "type": "uint256"
        }
      ],
      "name": "admins",
      "outputs": [
        {
          "name": "",
          "type": "uint256"
        }
      ],
      "payable": false,
      "stateMutability": "view",
      "type": "function"
    },
    {
      "constant": true,
      "inputs": [
        {
          "name": "",
          "type": "uint256"
        }
      ],
      "name": "candidates",
      "outputs": [
        {
          "name": "_id",
          "type": "uint256"
        }
      ],
      "payable": false,
      "stateMutability": "view",
      "type": "function"
    },
    {
      "constant": false,
      "inputs": [
        {
          "name": "_id",
          "type": "uint256"
        },
        {
          "name": "_adminId",
          "type": "uint256"
        }
      ],
      "name": "registerConstituency",
      "outputs": [],
      "payable": false,
      "stateMutability": "nonpayable",
      "type": "function"
    },
    {
      "constant": false,
      "inputs": [
        {
          "name": "_id",
          "type": "uint256"
        },
        {
          "name": "_adminId",
          "type": "uint256"
        }
      ],
      "name": "registerCandidate",
      "outputs": [],
      "payable": false,
      "stateMutability": "nonpayable",
      "type": "function"
    },
    {
      "constant": false,
      "inputs": [],
      "name": "renounceOwnership",
      "outputs": [],
      "payable": false,
      "stateMutability": "nonpayable",
      "type": "function"
    },
    {
      "constant": true,
      "inputs": [],
      "name": "owner",
      "outputs": [
        {
          "name": "",
          "type": "address"
        }
      ],
      "payable": false,
      "stateMutability": "view",
      "type": "function"
    },
    {
      "constant": true,
      "inputs": [],
      "name": "isOwner",
      "outputs": [
        {
          "name": "",
          "type": "bool"
        }
      ],
      "payable": false,
      "stateMutability": "view",
      "type": "function"
    },
    {
      "constant": true,
      "inputs": [
        {
          "name": "",
          "type": "uint256"
        }
      ],
      "name": "constituencies",
      "outputs": [
        {
          "name": "_id",
          "type": "uint256"
        },
        {
          "name": "_startTime",
          "type": "uint256"
        },
        {
          "name": "_duration",
          "type": "uint256"
        }
      ],
      "payable": false,
      "stateMutability": "view",
      "type": "function"
    },
    {
      "constant": false,
      "inputs": [
        {
          "name": "_id",
          "type": "uint256"
        }
      ],
      "name": "registerAdmin",
      "outputs": [],
      "payable": false,
      "stateMutability": "nonpayable",
      "type": "function"
    },
    {
      "constant": true,
      "inputs": [
        {
          "name": "",
          "type": "uint256"
        }
      ],
      "name": "voters",
      "outputs": [
        {
          "name": "_id",
          "type": "uint256"
        },
        {
          "name": "_constituencyId",
          "type": "uint256"
        },
        {
          "name": "_hasVoted",
          "type": "bool"
        },
        {
          "components": [
            {
              "name": "_voteId",
              "type": "bytes32"
            },
            {
              "name": "_votedId",
              "type": "uint256"
            },
            {
              "name": "_voteTime",
              "type": "uint64"
            }
          ],
          "name": "_vote",
          "type": "tuple"
        }
      ],
      "payable": false,
      "stateMutability": "view",
      "type": "function"
    },
    {
      "constant": false,
      "inputs": [
        {
          "name": "newOwner",
          "type": "address"
        }
      ],
      "name": "transferOwnership",
      "outputs": [],
      "payable": false,
      "stateMutability": "nonpayable",
      "type": "function"
    },
    {
      "anonymous": false,
      "inputs": [
        {
          "indexed": false,
          "name": "_id",
          "type": "uint256"
        },
        {
          "indexed": false,
          "name": "_voterId",
          "type": "uint256"
        }
      ],
      "name": "VoterCreated",
      "type": "event"
    },
    {
      "anonymous": false,
      "inputs": [
        {
          "indexed": false,
          "name": "_id",
          "type": "uint256"
        }
      ],
      "name": "CandidateRegistered",
      "type": "event"
    },
    {
      "anonymous": false,
      "inputs": [
        {
          "indexed": false,
          "name": "_id",
          "type": "uint256"
        }
      ],
      "name": "ConstituencyRegistered",
      "type": "event"
    },
    {
      "anonymous": false,
      "inputs": [
        {
          "indexed": true,
          "name": "previousOwner",
          "type": "address"
        },
        {
          "indexed": true,
          "name": "newOwner",
          "type": "address"
        }
      ],
      "name": "OwnershipTransferred",
      "type": "event"
    },
    {
      "constant": false,
      "inputs": [
        {
          "name": "_adminId",
          "type": "uint256"
        }
      ],
      "name": "getConstituencies",
      "outputs": [
        {
          "components": [
            {
              "name": "_id",
              "type": "uint256"
            },
            {
              "name": "_startTime",
              "type": "uint256"
            },
            {
              "name": "_duration",
              "type": "uint256"
            }
          ],
          "name": "",
          "type": "tuple[]"
        }
      ],
      "payable": false,
      "stateMutability": "nonpayable",
      "type": "function"
    },
    {
      "constant": false,
      "inputs": [
        {
          "name": "_id",
          "type": "uint256"
        },
        {
          "name": "_duration",
          "type": "uint256"
        },
        {
          "name": "_adminId",
          "type": "uint256"
        }
      ],
      "name": "generateElectionforConstituency",
      "outputs": [],
      "payable": false,
      "stateMutability": "nonpayable",
      "type": "function"
    },
    {
      "constant": false,
      "inputs": [
        {
          "name": "_id",
          "type": "uint256"
        },
        {
          "name": "_userId",
          "type": "uint256"
        }
      ],
      "name": "getConstituencyDetails",
      "outputs": [
        {
          "components": [
            {
              "name": "_id",
              "type": "uint256"
            },
            {
              "name": "_startTime",
              "type": "uint256"
            },
            {
              "name": "_duration",
              "type": "uint256"
            }
          ],
          "name": "",
          "type": "tuple"
        }
      ],
      "payable": false,
      "stateMutability": "nonpayable",
      "type": "function"
    },
    {
      "constant": false,
      "inputs": [
        {
          "name": "_id",
          "type": "uint256"
        },
        {
          "name": "_constituencyId",
          "type": "uint256"
        },
        {
          "name": "_adminId",
          "type": "uint256"
        }
      ],
      "name": "assignCandidateToConstituency",
      "outputs": [],
      "payable": false,
      "stateMutability": "nonpayable",
      "type": "function"
    },
    {
      "constant": true,
      "inputs": [
        {
          "name": "_constituencyId",
          "type": "uint256"
        },
        {
          "name": "_userId",
          "type": "uint256"
        }
      ],
      "name": "getCandidatesByConstituency",
      "outputs": [
        {
          "components": [
            {
              "name": "_id",
              "type": "uint256"
            }
          ],
          "name": "",
          "type": "tuple[]"
        }
      ],
      "payable": false,
      "stateMutability": "view",
      "type": "function"
    }
  ],
  "bytecode": "0x60806040526060604051908101604052806000600102815260200160008152602001600067ffffffffffffffff168152506001600082015181600001556020820151816001015560408201518160020160006101000a81548167ffffffffffffffff021916908367ffffffffffffffff16021790555050506000600460006101000a81548160ff021916908315150217905550336000806101000a81548173ffffffffffffffffffffffffffffffffffffffff021916908373ffffffffffffffffffffffffffffffffffffffff1602179055506000809054906101000a900473ffffffffffffffffffffffffffffffffffffffff1673ffffffffffffffffffffffffffffffffffffffff16600073ffffffffffffffffffffffffffffffffffffffff167f8be0079c531659141344cd1fd0a4f28419497f9722a3daafe3b4186f6b6457e060405160405180910390a36113418061015d6000396000f3fe6080604052600436106100e6576000357c0100000000000000000000000000000000000000000000000000000000900463ffffffff16806312d51c72146100eb57806314bfd6d01461011457806328975210146101515780632fd23a3f1461018e5780633477ee2e146101cb5780633acab52f146102085780635d6e505214610231578063715018a61461025a5780638da5cb5b146102715780638f32d59b1461029c5780639209416a146102c75780639484525414610306578063bbc893a31461032f578063da58c7d91461036c578063f2fde38b146103ac578063f7590065146103d5575b600080fd5b3480156100f757600080fd5b50610112600480360361010d9190810190610edd565b6103fe565b005b34801561012057600080fd5b5061013b60048036036101369190810190610e78565b61048d565b60405161014891906111a4565b60405180910390f35b34801561015d57600080fd5b5061017860048036036101739190810190610e78565b6104b0565b604051610185919061114c565b60405180910390f35b34801561019a57600080fd5b506101b560048036036101b09190810190610ea1565b61057f565b6040516101c29190611189565b60405180910390f35b3480156101d757600080fd5b506101f260048036036101ed9190810190610e78565b610600565b6040516101ff91906111a4565b60405180910390f35b34801561021457600080fd5b5061022f600480360361022a9190810190610ea1565b610629565b005b34801561023d57600080fd5b5061025860048036036102539190810190610ea1565b610777565b005b34801561026657600080fd5b5061026f610887565b005b34801561027d57600080fd5b50610286610959565b604051610293919061110f565b60405180910390f35b3480156102a857600080fd5b506102b1610982565b6040516102be919061116e565b60405180910390f35b3480156102d357600080fd5b506102ee60048036036102e99190810190610e78565b6109d9565b6040516102fd93929190611204565b60405180910390f35b34801561031257600080fd5b5061032d60048036036103289190810190610e78565b610a12565b005b34801561033b57600080fd5b5061035660048036036103519190810190610ea1565b610a54565b604051610363919061112a565b60405180910390f35b34801561037857600080fd5b50610393600480360361038e9190810190610e78565b610b8b565b6040516103a394939291906111bf565b60405180910390f35b3480156103b857600080fd5b506103d360048036036103ce9190810190610e4f565b610c28565b005b3480156103e157600080fd5b506103fc60048036036103f79190810190610edd565b610c47565b005b8060008090505b600f805490508110156104865781600f8281548110151561042257fe5b9060005260206000200154141561047357836009600087815260200190815260200160002081905550600a600085815260200190815260200160002060008154809291906001019190505550610478565b610479565b5b8080600101915050610405565b5050505050565b600f8181548110151561049c57fe5b906000526020600020016000915090505481565b60608160008090505b600f805490508110156105785781600f828154811015156104d657fe5b9060005260206000200154141561056557600e805480602002602001604051908101604052809291908181526020016000905b8282101561055a578382906000526020600020906003020160606040519081016040529081600082015481526020016001820154815260200160028201548152505081526020019060010190610509565b50505050925061056a565b61056b565b5b80806001019150506104b9565b5050919050565b610587610df1565b8160006005600083815260200190815260200160002060000154141515156105ae57600080fd5b6105b6610df1565b600760008681526020019081526020016000206060604051908101604052908160008201548152602001600182015481526020016002820154815250509050809250505092915050565b600d8181548110151561060f57fe5b906000526020600020016000915090508060000154905081565b8060008090505b600f805490508110156107715781600f8281548110151561064d57fe5b9060005260206000200154141561075e5760006001600e606060405190810160405280888152602001600081526020016000815250908060018154018082558091505090600182039060005260206000209060030201600090919290919091506000820151816000015560208201518160010155604082015181600201555050039050600e818154811015156106df57fe5b9060005260206000209060030201600760008781526020019081526020016000206000820154816000015560018201548160010155600282015481600201559050507f21db1a92fb8efb483c22a581ee7e282b6d79d9d43b559ee1affa3418188679698560405161075091906111a4565b60405180910390a150610763565b610764565b5b8080600101915050610630565b50505050565b8060008090505b600f805490508110156108815781600f8281548110151561079b57fe5b9060005260206000200154141561086e5760006001600d60206040519081016040528088815250908060018154018082558091505090600182039060005260206000200160009091929091909150600082015181600001555050039050600d8181548110151561080757fe5b9060005260206000200160066000878152602001908152602001600020600082015481600001559050507f43dcee486fabffa2fb551555bfaa5bfcf6a42f2d014032ccef94bf09d83855eb8560405161086091906111a4565b60405180910390a150610873565b610874565b5b808060010191505061077e565b50505050565b61088f610982565b151561089a57600080fd5b600073ffffffffffffffffffffffffffffffffffffffff166000809054906101000a900473ffffffffffffffffffffffffffffffffffffffff1673ffffffffffffffffffffffffffffffffffffffff167f8be0079c531659141344cd1fd0a4f28419497f9722a3daafe3b4186f6b6457e060405160405180910390a360008060006101000a81548173ffffffffffffffffffffffffffffffffffffffff021916908373ffffffffffffffffffffffffffffffffffffffff160217905550565b60008060009054906101000a900473ffffffffffffffffffffffffffffffffffffffff16905090565b60008060009054906101000a900473ffffffffffffffffffffffffffffffffffffffff1673ffffffffffffffffffffffffffffffffffffffff163373ffffffffffffffffffffffffffffffffffffffff1614905090565b600e818154811015156109e857fe5b90600052602060002090600302016000915090508060000154908060010154908060020154905083565b610a1a610982565b1515610a2557600080fd5b600f81908060018154018082558091505090600182039060005260206000200160009091929091909150555050565b6060816000600560008381526020019081526020016000206000015414151515610a7d57600080fd5b6060600a600086815260200190815260200160002054604051908082528060200260200182016040528015610acc57816020015b610ab9610e13565b815260200190600190039081610ab15790505b509050600080905060008090505b600d80549050811015610b7e578660096000600d84815481101515610afb57fe5b90600052602060002001600001548152602001908152602001600020541415610b7157600d81815481101515610b2d57fe5b90600052602060002001602060405190810160405290816000820154815250508383815181101515610b5b57fe5b9060200190602002018190525081806001019250505b8080600101915050610ada565b5081935050505092915050565b600c81815481101515610b9a57fe5b90600052602060002090600602016000915090508060000154908060010154908060020160009054906101000a900460ff1690806003016060604051908101604052908160008201548152602001600182015481526020016002820160009054906101000a900467ffffffffffffffff1667ffffffffffffffff1667ffffffffffffffff1681525050905084565b610c30610982565b1515610c3b57600080fd5b610c4481610cf7565b50565b8060008090505b600f80549050811015610cf05781600f82815481101515610c6b57fe5b90600052602060002001541415610cdd57610c84610df1565b600760008781526020019081526020016000206060604051908101604052908160008201548152602001600182015481526020016002820154815250509050428160200181815250508481604001818152505050610ce2565b610ce3565b5b8080600101915050610c4e565b5050505050565b600073ffffffffffffffffffffffffffffffffffffffff168173ffffffffffffffffffffffffffffffffffffffff1614151515610d3357600080fd5b8073ffffffffffffffffffffffffffffffffffffffff166000809054906101000a900473ffffffffffffffffffffffffffffffffffffffff1673ffffffffffffffffffffffffffffffffffffffff167f8be0079c531659141344cd1fd0a4f28419497f9722a3daafe3b4186f6b6457e060405160405180910390a3806000806101000a81548173ffffffffffffffffffffffffffffffffffffffff021916908373ffffffffffffffffffffffffffffffffffffffff16021790555050565b6060604051908101604052806000815260200160008152602001600081525090565b602060405190810160405280600081525090565b6000610e3382356112eb565b905092915050565b6000610e4782356112fd565b905092915050565b600060208284031215610e6157600080fd5b6000610e6f84828501610e27565b91505092915050565b600060208284031215610e8a57600080fd5b6000610e9884828501610e3b565b91505092915050565b60008060408385031215610eb457600080fd5b6000610ec285828601610e3b565b9250506020610ed385828601610e3b565b9150509250929050565b600080600060608486031215610ef257600080fd5b6000610f0086828701610e3b565b9350506020610f1186828701610e3b565b9250506040610f2286828701610e3b565b9150509250925092565b610f3581611285565b82525050565b6000610f4682611255565b808452602084019350610f588361123b565b60005b82811015610f8a57610f6e86835161100f565b610f778261126b565b9150602086019550600181019050610f5b565b50849250505092915050565b6000610fa182611260565b808452602084019350610fb383611248565b60005b82811015610fe557610fc986835161106d565b610fd282611278565b9150606086019550600181019050610fb6565b50849250505092915050565b610ffa81611297565b82525050565b611009816112a3565b82525050565b60208201600082015161102560008501826110f1565b50505050565b60608201600082015161104160008501826110f1565b50602082015161105460208501826110f1565b50604082015161106760408501826110f1565b50505050565b60608201600082015161108360008501826110f1565b50602082015161109660208501826110f1565b5060408201516110a960408501826110f1565b50505050565b6060820160008201516110c56000850182611000565b5060208201516110d860208501826110f1565b5060408201516110eb6040850182611100565b50505050565b6110fa816112cd565b82525050565b611109816112d7565b82525050565b60006020820190506111246000830184610f2c565b92915050565b600060208201905081810360008301526111448184610f3b565b905092915050565b600060208201905081810360008301526111668184610f96565b905092915050565b60006020820190506111836000830184610ff1565b92915050565b600060608201905061119e600083018461102b565b92915050565b60006020820190506111b960008301846110f1565b92915050565b600060c0820190506111d460008301876110f1565b6111e160208301866110f1565b6111ee6040830185610ff1565b6111fb60608301846110af565b95945050505050565b600060608201905061121960008301866110f1565b61122660208301856110f1565b61123360408301846110f1565b949350505050565b6000602082019050919050565b6000602082019050919050565b600081519050919050565b600081519050919050565b6000602082019050919050565b6000602082019050919050565b6000611290826112ad565b9050919050565b60008115159050919050565b6000819050919050565b600073ffffffffffffffffffffffffffffffffffffffff82169050919050565b6000819050919050565b600067ffffffffffffffff82169050919050565b60006112f6826112ad565b9050919050565b600081905091905056fea265627a7a7230582075f1f70ef14805a1d29d62877810510205e55648b9f546414a060549ac0059146c6578706572696d656e74616cf50037",
  "source": "pragma solidity ^0.5.0;\npragma experimental ABIEncoderV2;\nimport \"./Election.sol\";\n\ncontract ElectionHelper is Election {\n\n    function getConstituencies(uint256 _adminId) external onlyAdmin(_adminId) returns(Constituency[] memory) {\n        return constituencies;\n    }\n\n    function generateElectionforConstituency(uint256 _id, uint256 _duration, uint256 _adminId) external onlyAdmin(_adminId) {\n        Constituency memory _constituency = idToConstituency[_id];\n        _constituency._startTime = block.timestamp;\n        _constituency._duration = _duration;\n    }\n\n    function getConstituencyDetails(uint256 _id, uint256 _userId) external onlyUser(_userId) returns(Constituency memory) {\n        Constituency memory _constituency = idToConstituency[_id];\n        return _constituency;\n    }\n\n    function assignCandidateToConstituency(uint256 _id, uint256 _constituencyId, uint256 _adminId) public onlyAdmin(_adminId) {\n        candidateToConstituency[_id] = _constituencyId;\n        constituencyCandidateCount[_constituencyId]++;\n    }\n\n    function getCandidatesByConstituency(uint256 _constituencyId, uint256 _userId) public view onlyUser(_userId) returns(Candidate[] memory) {\n        Candidate[] memory _candidates = new Candidate[](constituencyCandidateCount[_constituencyId]);\n        uint counter = 0;\n        for(uint i = 0; i < candidates.length; i++) {\n            if(candidateToConstituency[candidates[i]._id] == _constituencyId) {\n            _candidates[counter] = candidates[i];\n            counter++;\n        }\n    }\n\n        return _candidates;\n    }\n}",
  "sourcePath": "/home/d3mon/Projects/sudo-rm--rf/contracts/ElectionHelper.sol",
  "compiler": {
    "name": "solc",
    "version": "0.5.0+commit.1d4f565a.Emscripten.clang"
  },
  "schemaVersion": "3.0.2",
  "updatedAt": "2019-12-21T10:19:28.238Z",
  "devdoc": {
    "methods": {
      "isOwner()": {
        "return": "true if `msg.sender` is the owner of the contract."
      },
      "owner()": {
        "return": "the address of the owner."
      },
      "renounceOwnership()": {
        "details": "Allows the current owner to relinquish control of the contract."
      },
      "transferOwnership(address)": {
        "details": "Allows the current owner to transfer control of the contract to a newOwner.",
        "params": {
          "newOwner": "The address to transfer ownership to."
        }
      }
    }
  },
  "userdoc": {
    "methods": {
      "renounceOwnership()": {
        "notice": "Renouncing to ownership will leave the contract without an owner. It will not be possible to call the functions with the `onlyOwner` modifier anymore."
      }
    }
  }
}