{
  "contractName": "ElectionHelper",
  "abi": [
    {
      "constant": true,
      "inputs": [
        {
          "name": "",
          "type": "uint256"
        }
      ],
      "name": "candidateVoteCount",
      "outputs": [
        {
          "name": "",
          "type": "uint256"
        }
      ],
      "payable": false,
      "stateMutability": "view",
      "type": "function"
    },
    {
      "constant": true,
      "inputs": [
        {
          "name": "",
          "type": "uint256"
        }
      ],
      "name": "idToConstituency",
      "outputs": [
        {
          "name": "_id",
          "type": "uint256"
        },
        {
          "name": "_startTime",
          "type": "uint256"
        },
        {
          "name": "_duration",
          "type": "uint256"
        }
      ],
      "payable": false,
      "stateMutability": "view",
      "type": "function"
    },
    {
      "constant": true,
      "inputs": [
        {
          "name": "",
          "type": "uint256"
        }
      ],
      "name": "candidateToConstituency",
      "outputs": [
        {
          "name": "",
          "type": "uint256"
        }
      ],
      "payable": false,
      "stateMutability": "view",
      "type": "function"
    },
    {
      "constant": true,
      "inputs": [
        {
          "name": "",
          "type": "uint256"
        }
      ],
      "name": "admins",
      "outputs": [
        {
          "name": "",
          "type": "uint256"
        }
      ],
      "payable": false,
      "stateMutability": "view",
      "type": "function"
    },
    {
      "constant": true,
      "inputs": [
        {
          "name": "",
          "type": "uint256"
        }
      ],
      "name": "candidates",
      "outputs": [
        {
          "name": "_id",
          "type": "uint256"
        }
      ],
      "payable": false,
      "stateMutability": "view",
      "type": "function"
    },
    {
      "constant": false,
      "inputs": [
        {
          "name": "_id",
          "type": "uint256"
        },
        {
          "name": "_adminId",
          "type": "uint256"
        }
      ],
      "name": "registerConstituency",
      "outputs": [],
      "payable": false,
      "stateMutability": "nonpayable",
      "type": "function"
    },
    {
      "constant": true,
      "inputs": [
        {
          "name": "",
          "type": "uint256"
        }
      ],
      "name": "constituencyCandidateCount",
      "outputs": [
        {
          "name": "",
          "type": "uint256"
        }
      ],
      "payable": false,
      "stateMutability": "view",
      "type": "function"
    },
    {
      "constant": true,
      "inputs": [
        {
          "name": "",
          "type": "uint256"
        }
      ],
      "name": "voteToCandidate",
      "outputs": [
        {
          "name": "",
          "type": "uint256"
        }
      ],
      "payable": false,
      "stateMutability": "view",
      "type": "function"
    },
    {
      "constant": true,
      "inputs": [
        {
          "name": "",
          "type": "uint256"
        }
      ],
      "name": "idToCandidate",
      "outputs": [
        {
          "name": "_id",
          "type": "uint256"
        }
      ],
      "payable": false,
      "stateMutability": "view",
      "type": "function"
    },
    {
      "constant": false,
      "inputs": [
        {
          "name": "_id",
          "type": "uint256"
        },
        {
          "name": "_adminId",
          "type": "uint256"
        }
      ],
      "name": "registerCandidate",
      "outputs": [],
      "payable": false,
      "stateMutability": "nonpayable",
      "type": "function"
    },
    {
      "constant": false,
      "inputs": [],
      "name": "renounceOwnership",
      "outputs": [],
      "payable": false,
      "stateMutability": "nonpayable",
      "type": "function"
    },
    {
      "constant": false,
      "inputs": [
        {
          "name": "_constituencies",
          "type": "uint256[]"
        },
        {
          "name": "_adminId",
          "type": "uint256"
        }
      ],
      "name": "registerConstituencies",
      "outputs": [],
      "payable": false,
      "stateMutability": "nonpayable",
      "type": "function"
    },
    {
      "constant": true,
      "inputs": [],
      "name": "owner",
      "outputs": [
        {
          "name": "",
          "type": "address"
        }
      ],
      "payable": false,
      "stateMutability": "view",
      "type": "function"
    },
    {
      "constant": true,
      "inputs": [],
      "name": "isOwner",
      "outputs": [
        {
          "name": "",
          "type": "bool"
        }
      ],
      "payable": false,
      "stateMutability": "view",
      "type": "function"
    },
    {
      "constant": true,
      "inputs": [
        {
          "name": "",
          "type": "uint256"
        }
      ],
      "name": "constituencies",
      "outputs": [
        {
          "name": "_id",
          "type": "uint256"
        },
        {
          "name": "_startTime",
          "type": "uint256"
        },
        {
          "name": "_duration",
          "type": "uint256"
        }
      ],
      "payable": false,
      "stateMutability": "view",
      "type": "function"
    },
    {
      "constant": false,
      "inputs": [
        {
          "name": "_id",
          "type": "uint256"
        }
      ],
      "name": "registerAdmin",
      "outputs": [],
      "payable": false,
      "stateMutability": "nonpayable",
      "type": "function"
    },
    {
      "constant": true,
      "inputs": [],
      "name": "ResultsDeclared",
      "outputs": [
        {
          "name": "",
          "type": "bool"
        }
      ],
      "payable": false,
      "stateMutability": "view",
      "type": "function"
    },
    {
      "constant": true,
      "inputs": [
        {
          "name": "",
          "type": "uint256"
        }
      ],
      "name": "voters",
      "outputs": [
        {
          "name": "_id",
          "type": "uint256"
        },
        {
          "name": "_constituencyId",
          "type": "uint256"
        },
        {
          "name": "_hasVoted",
          "type": "bool"
        },
        {
          "name": "_voteTime",
          "type": "uint256"
        },
        {
          "components": [
            {
              "name": "_voteId",
              "type": "uint256"
            }
          ],
          "name": "_vote",
          "type": "tuple"
        }
      ],
      "payable": false,
      "stateMutability": "view",
      "type": "function"
    },
    {
      "constant": false,
      "inputs": [
        {
          "name": "newOwner",
          "type": "address"
        }
      ],
      "name": "transferOwnership",
      "outputs": [],
      "payable": false,
      "stateMutability": "nonpayable",
      "type": "function"
    },
    {
      "constant": true,
      "inputs": [
        {
          "name": "",
          "type": "uint256"
        }
      ],
      "name": "idToVoter",
      "outputs": [
        {
          "name": "_id",
          "type": "uint256"
        },
        {
          "name": "_constituencyId",
          "type": "uint256"
        },
        {
          "name": "_hasVoted",
          "type": "bool"
        },
        {
          "name": "_voteTime",
          "type": "uint256"
        },
        {
          "components": [
            {
              "name": "_voteId",
              "type": "uint256"
            }
          ],
          "name": "_vote",
          "type": "tuple"
        }
      ],
      "payable": false,
      "stateMutability": "view",
      "type": "function"
    },
    {
      "anonymous": false,
      "inputs": [
        {
          "indexed": false,
          "name": "_id",
          "type": "uint256"
        },
        {
          "indexed": false,
          "name": "_constituencyId",
          "type": "uint256"
        }
      ],
      "name": "VoterCreated",
      "type": "event"
    },
    {
      "anonymous": false,
      "inputs": [
        {
          "indexed": false,
          "name": "_id",
          "type": "uint256"
        }
      ],
      "name": "CandidateRegistered",
      "type": "event"
    },
    {
      "anonymous": false,
      "inputs": [
        {
          "indexed": false,
          "name": "_id",
          "type": "uint256"
        }
      ],
      "name": "ConstituencyRegistered",
      "type": "event"
    },
    {
      "anonymous": false,
      "inputs": [
        {
          "indexed": true,
          "name": "previousOwner",
          "type": "address"
        },
        {
          "indexed": true,
          "name": "newOwner",
          "type": "address"
        }
      ],
      "name": "OwnershipTransferred",
      "type": "event"
    },
    {
      "constant": false,
      "inputs": [
        {
          "name": "_adminId",
          "type": "uint256"
        }
      ],
      "name": "getConstituencies",
      "outputs": [
        {
          "components": [
            {
              "name": "_id",
              "type": "uint256"
            },
            {
              "name": "_startTime",
              "type": "uint256"
            },
            {
              "name": "_duration",
              "type": "uint256"
            }
          ],
          "name": "",
          "type": "tuple[]"
        }
      ],
      "payable": false,
      "stateMutability": "nonpayable",
      "type": "function"
    },
    {
      "constant": false,
      "inputs": [
        {
          "name": "_id",
          "type": "uint256"
        },
        {
          "name": "_duration",
          "type": "uint256"
        },
        {
          "name": "_adminId",
          "type": "uint256"
        }
      ],
      "name": "generateElectionforConstituency",
      "outputs": [],
      "payable": false,
      "stateMutability": "nonpayable",
      "type": "function"
    },
    {
      "constant": false,
      "inputs": [
        {
          "name": "_id",
          "type": "uint256"
        },
        {
          "name": "_userId",
          "type": "uint256"
        }
      ],
      "name": "getConstituencyDetails",
      "outputs": [
        {
          "components": [
            {
              "name": "_id",
              "type": "uint256"
            },
            {
              "name": "_startTime",
              "type": "uint256"
            },
            {
              "name": "_duration",
              "type": "uint256"
            }
          ],
          "name": "",
          "type": "tuple"
        }
      ],
      "payable": false,
      "stateMutability": "nonpayable",
      "type": "function"
    },
    {
      "constant": false,
      "inputs": [
        {
          "name": "_id",
          "type": "uint256"
        },
        {
          "name": "_constituencyId",
          "type": "uint256"
        },
        {
          "name": "_adminId",
          "type": "uint256"
        }
      ],
      "name": "assignCandidateToConstituency",
      "outputs": [],
      "payable": false,
      "stateMutability": "nonpayable",
      "type": "function"
    },
    {
      "constant": true,
      "inputs": [
        {
          "name": "_constituencyId",
          "type": "uint256"
        },
        {
          "name": "_userId",
          "type": "uint256"
        }
      ],
      "name": "getCandidatesByConstituency",
      "outputs": [
        {
          "components": [
            {
              "name": "_id",
              "type": "uint256"
            }
          ],
          "name": "",
          "type": "tuple[]"
        }
      ],
      "payable": false,
      "stateMutability": "view",
      "type": "function"
    }
  ],
  "bytecode": "0x608060405260008060146101000a81548160ff021916908315150217905550336000806101000a81548173ffffffffffffffffffffffffffffffffffffffff021916908373ffffffffffffffffffffffffffffffffffffffff1602179055506000809054906101000a900473ffffffffffffffffffffffffffffffffffffffff1673ffffffffffffffffffffffffffffffffffffffff16600073ffffffffffffffffffffffffffffffffffffffff167f8be0079c531659141344cd1fd0a4f28419497f9722a3daafe3b4186f6b6457e060405160405180910390a360008060146101000a81548160ff0219169083151502179055506117b8806101036000396000f3fe608060405260043610610149576000357c0100000000000000000000000000000000000000000000000000000000900463ffffffff16806301aa2e031461014e5780630f80dcb01461018b57806312d51c72146101ca5780631471e0ab146101f357806314bfd6d014610230578063289752101461026d5780632fd23a3f146102aa5780633477ee2e146102e75780633acab52f146103245780633b04a6c91461034d57806356be16581461038a57806357e2ef10146103c75780635d6e505214610404578063715018a61461042d5780637b013b94146104445780638da5cb5b1461046d5780638f32d59b146104985780639209416a146104c35780639484525414610502578063aa3e4e1c1461052b578063bbc893a314610556578063da58c7d914610593578063f2fde38b146105d4578063f7590065146105fd578063f8c7057114610626575b600080fd5b34801561015a57600080fd5b5061017560048036036101709190810190611343565b610667565b604051610182919061162b565b60405180910390f35b34801561019757600080fd5b506101b260048036036101ad9190810190611343565b61067f565b6040516101c193929190611699565b60405180910390f35b3480156101d657600080fd5b506101f160048036036101ec91908101906113a8565b6106a9565b005b3480156101ff57600080fd5b5061021a60048036036102159190810190611343565b610738565b604051610227919061162b565b60405180910390f35b34801561023c57600080fd5b5061025760048036036102529190810190611343565b610750565b604051610264919061162b565b60405180910390f35b34801561027957600080fd5b50610294600480360361028f9190810190611343565b610773565b6040516102a191906115d3565b60405180910390f35b3480156102b657600080fd5b506102d160048036036102cc919081019061136c565b6108a2565b6040516102de9190611610565b60405180910390f35b3480156102f357600080fd5b5061030e60048036036103099190810190611343565b610923565b60405161031b919061162b565b60405180910390f35b34801561033057600080fd5b5061034b6004803603610346919081019061136c565b61094c565b005b34801561035957600080fd5b50610374600480360361036f9190810190611343565b610a9a565b604051610381919061162b565b60405180910390f35b34801561039657600080fd5b506103b160048036036103ac9190810190611343565b610ab2565b6040516103be919061162b565b60405180910390f35b3480156103d357600080fd5b506103ee60048036036103e99190810190611343565b610aca565b6040516103fb919061162b565b60405180910390f35b34801561041057600080fd5b5061042b6004803603610426919081019061136c565b610ae8565b005b34801561043957600080fd5b50610442610bf8565b005b34801561045057600080fd5b5061046b600480360361046691908101906112eb565b610cca565b005b34801561047957600080fd5b50610482610d5b565b60405161048f9190611596565b60405180910390f35b3480156104a457600080fd5b506104ad610d84565b6040516104ba91906115f5565b60405180910390f35b3480156104cf57600080fd5b506104ea60048036036104e59190810190611343565b610ddb565b6040516104f993929190611699565b60405180910390f35b34801561050e57600080fd5b5061052960048036036105249190810190611343565b610e14565b005b34801561053757600080fd5b50610540610e56565b60405161054d91906115f5565b60405180910390f35b34801561056257600080fd5b5061057d6004803603610578919081019061136c565b610e69565b60405161058a91906115b1565b60405180910390f35b34801561059f57600080fd5b506105ba60048036036105b59190810190611343565b610fa0565b6040516105cb959493929190611646565b60405180910390f35b3480156105e057600080fd5b506105fb60048036036105f691908101906112c2565b611007565b005b34801561060957600080fd5b50610624600480360361061f91908101906113a8565b611026565b005b34801561063257600080fd5b5061064d60048036036106489190810190611343565b6110a4565b60405161065e959493929190611646565b60405180910390f35b60076020528060005260406000206000915090505481565b60036020528060005260406000206000915090508060000154908060010154908060020154905083565b8060008090505b600b805490508110156107315781600b828154811015156106cd57fe5b9060005260206000200154141561071e578360056000878152602001908152602001600020819055506006600085815260200190815260200160002060008154809291906001019190505550610723565b610724565b5b80806001019150506106b0565b5050505050565b60056020528060005260406000206000915090505481565b600b8181548110151561075f57fe5b906000526020600020016000915090505481565b60608160008090505b600b8054905081101561089b5781600b8281548110151561079957fe5b90600052602060002001541415610888576060600a805490506040519080825280602002602001820160405280156107eb57816020015b6107d86111f6565b8152602001906001900390816107d05790505b509050600080905060008090505b600a8054905081101561087d57600a8181548110151561081557fe5b9060005260206000209060030201606060405190810160405290816000820154815260200160018201548152602001600282015481525050838381518110151561085b57fe5b90602001906020020181905250818060010192505080806001019150506107f9565b50819450505061088d565b61088e565b5b808060010191505061077c565b5050919050565b6108aa611218565b8160006001600083815260200190815260200160002060000154141515156108d157600080fd5b6108d9611218565b600360008681526020019081526020016000206060604051908101604052908160008201548152602001600182015481526020016002820154815250509050809250505092915050565b60098181548110151561093257fe5b906000526020600020016000915090508060000154905081565b8060008090505b600b80549050811015610a945781600b8281548110151561097057fe5b90600052602060002001541415610a815760006001600a606060405190810160405280888152602001600081526020016000815250908060018154018082558091505090600182039060005260206000209060030201600090919290919091506000820151816000015560208201518160010155604082015181600201555050039050600a81815481101515610a0257fe5b9060005260206000209060030201600360008781526020019081526020016000206000820154816000015560018201548160010155600282015481600201559050507f21db1a92fb8efb483c22a581ee7e282b6d79d9d43b559ee1affa34181886796985604051610a73919061162b565b60405180910390a150610a86565b610a87565b5b8080600101915050610953565b50505050565b60066020528060005260406000206000915090505481565b60046020528060005260406000206000915090505481565b60026020528060005260406000206000915090508060000154905081565b8060008090505b600b80549050811015610bf25781600b82815481101515610b0c57fe5b90600052602060002001541415610bdf5760006001600960206040519081016040528088815250908060018154018082558091505090600182039060005260206000200160009091929091909150600082015181600001555050039050600981815481101515610b7857fe5b9060005260206000200160026000878152602001908152602001600020600082015481600001559050507f43dcee486fabffa2fb551555bfaa5bfcf6a42f2d014032ccef94bf09d83855eb85604051610bd1919061162b565b60405180910390a150610be4565b610be5565b5b8080600101915050610aef565b50505050565b610c00610d84565b1515610c0b57600080fd5b600073ffffffffffffffffffffffffffffffffffffffff166000809054906101000a900473ffffffffffffffffffffffffffffffffffffffff1673ffffffffffffffffffffffffffffffffffffffff167f8be0079c531659141344cd1fd0a4f28419497f9722a3daafe3b4186f6b6457e060405160405180910390a360008060006101000a81548173ffffffffffffffffffffffffffffffffffffffff021916908373ffffffffffffffffffffffffffffffffffffffff160217905550565b8060008090505b600b80549050811015610d545781600b82815481101515610cee57fe5b90600052602060002001541415610d415760008090505b85859050811015610d3b57610d2e8686838181101515610d2157fe5b905060200201358561094c565b8080600101915050610d05565b50610d46565b610d47565b5b8080600101915050610cd1565b5050505050565b60008060009054906101000a900473ffffffffffffffffffffffffffffffffffffffff16905090565b60008060009054906101000a900473ffffffffffffffffffffffffffffffffffffffff1673ffffffffffffffffffffffffffffffffffffffff163373ffffffffffffffffffffffffffffffffffffffff1614905090565b600a81815481101515610dea57fe5b90600052602060002090600302016000915090508060000154908060010154908060020154905083565b610e1c610d84565b1515610e2757600080fd5b600b81908060018154018082558091505090600182039060005260206000200160009091929091909150555050565b600060149054906101000a900460ff1681565b6060816000600160008381526020019081526020016000206000015414151515610e9257600080fd5b60606006600086815260200190815260200160002054604051908082528060200260200182016040528015610ee157816020015b610ece61123a565b815260200190600190039081610ec65790505b509050600080905060008090505b600980549050811015610f93578660056000600984815481101515610f1057fe5b90600052602060002001600001548152602001908152602001600020541415610f8657600981815481101515610f4257fe5b90600052602060002001602060405190810160405290816000820154815250508383815181101515610f7057fe5b9060200190602002018190525081806001019250505b8080600101915050610eef565b5081935050505092915050565b600881815481101515610faf57fe5b90600052602060002090600502016000915090508060000154908060010154908060020160009054906101000a900460ff16908060030154908060040160206040519081016040529081600082015481525050905085565b61100f610d84565b151561101a57600080fd5b611023816110fc565b50565b8060008090505b600b8054905081101561109d5781600b8281548110151561104a57fe5b9060005260206000200154141561108a5760006003600087815260200190815260200160002090504281600101819055508481600201819055505061108f565b611090565b5b808060010191505061102d565b5050505050565b60016020528060005260406000206000915090508060000154908060010154908060020160009054906101000a900460ff16908060030154908060040160206040519081016040529081600082015481525050905085565b600073ffffffffffffffffffffffffffffffffffffffff168173ffffffffffffffffffffffffffffffffffffffff161415151561113857600080fd5b8073ffffffffffffffffffffffffffffffffffffffff166000809054906101000a900473ffffffffffffffffffffffffffffffffffffffff1673ffffffffffffffffffffffffffffffffffffffff167f8be0079c531659141344cd1fd0a4f28419497f9722a3daafe3b4186f6b6457e060405160405180910390a3806000806101000a81548173ffffffffffffffffffffffffffffffffffffffff021916908373ffffffffffffffffffffffffffffffffffffffff16021790555050565b6060604051908101604052806000815260200160008152602001600081525090565b6060604051908101604052806000815260200160008152602001600081525090565b602060405190810160405280600081525090565b600061125a8235611762565b905092915050565b60008083601f840112151561127657600080fd5b8235905067ffffffffffffffff81111561128f57600080fd5b6020830191508360208202830111156112a757600080fd5b9250929050565b60006112ba8235611774565b905092915050565b6000602082840312156112d457600080fd5b60006112e28482850161124e565b91505092915050565b60008060006040848603121561130057600080fd5b600084013567ffffffffffffffff81111561131a57600080fd5b61132686828701611262565b93509350506020611339868287016112ae565b9150509250925092565b60006020828403121561135557600080fd5b6000611363848285016112ae565b91505092915050565b6000806040838503121561137f57600080fd5b600061138d858286016112ae565b925050602061139e858286016112ae565b9150509250929050565b6000806000606084860312156113bd57600080fd5b60006113cb868287016112ae565b93505060206113dc868287016112ae565b92505060406113ed868287016112ae565b9150509250925092565b6114008161171a565b82525050565b6000611411826116ea565b808452602084019350611423836116d0565b60005b82811015611455576114398683516114cb565b61144282611700565b9150602086019550600181019050611426565b50849250505092915050565b600061146c826116f5565b80845260208401935061147e836116dd565b60005b828110156114b057611494868351611529565b61149d8261170d565b9150606086019550600181019050611481565b50849250505092915050565b6114c58161172c565b82525050565b6020820160008201516114e16000850182611587565b50505050565b6060820160008201516114fd6000850182611587565b5060208201516115106020850182611587565b5060408201516115236040850182611587565b50505050565b60608201600082015161153f6000850182611587565b5060208201516115526020850182611587565b5060408201516115656040850182611587565b50505050565b6020820160008201516115816000850182611587565b50505050565b61159081611758565b82525050565b60006020820190506115ab60008301846113f7565b92915050565b600060208201905081810360008301526115cb8184611406565b905092915050565b600060208201905081810360008301526115ed8184611461565b905092915050565b600060208201905061160a60008301846114bc565b92915050565b600060608201905061162560008301846114e7565b92915050565b60006020820190506116406000830184611587565b92915050565b600060a08201905061165b6000830188611587565b6116686020830187611587565b61167560408301866114bc565b6116826060830185611587565b61168f608083018461156b565b9695505050505050565b60006060820190506116ae6000830186611587565b6116bb6020830185611587565b6116c86040830184611587565b949350505050565b6000602082019050919050565b6000602082019050919050565b600081519050919050565b600081519050919050565b6000602082019050919050565b6000602082019050919050565b600061172582611738565b9050919050565b60008115159050919050565b600073ffffffffffffffffffffffffffffffffffffffff82169050919050565b6000819050919050565b600061176d82611738565b9050919050565b600081905091905056fea265627a7a723058206b966030a58a8c158d8ab9cfe0f9c8a8878aeb1c1a1706576f012816287a2cdb6c6578706572696d656e74616cf50037",
  "source": "pragma solidity ^0.5.0;\npragma experimental ABIEncoderV2;\nimport \"./Election.sol\";\n\ncontract ElectionHelper is Election {\n\n    function getConstituencies(uint256 _adminId) external onlyAdmin(_adminId) returns(Constituency[] memory) {\n        Constituency[] memory _constituencies = new Constituency[](constituencies.length);\n        uint counter = 0;\n        for(uint i = 0; i < constituencies.length; i++) {\n            _constituencies[counter] = constituencies[i];\n            counter++;\n        }\n        return _constituencies;\n    }\n\n    function generateElectionforConstituency(uint256 _id, uint256 _duration, uint256 _adminId) external onlyAdmin(_adminId) {\n        Constituency storage _constituency = idToConstituency[_id];\n        _constituency._startTime = block.timestamp;\n        _constituency._duration = _duration;\n    }\n\n    function getConstituencyDetails(uint256 _id, uint256 _userId) external onlyUser(_userId) returns(Constituency memory) {\n        Constituency memory _constituency = idToConstituency[_id];\n        return _constituency;\n    }\n\n    function assignCandidateToConstituency(uint256 _id, uint256 _constituencyId, uint256 _adminId) public onlyAdmin(_adminId) {\n        candidateToConstituency[_id] = _constituencyId;\n        constituencyCandidateCount[_constituencyId]++;\n    }\n\n    function getCandidatesByConstituency(uint256 _constituencyId, uint256 _userId) public view onlyUser(_userId) returns(Candidate[] memory) {\n        Candidate[] memory _candidates = new Candidate[](constituencyCandidateCount[_constituencyId]);\n        uint counter = 0;\n        for(uint i = 0; i < candidates.length; i++) {\n            if(candidateToConstituency[candidates[i]._id] == _constituencyId) {\n            _candidates[counter] = candidates[i];\n            counter++;\n        }\n    }\n        return _candidates;\n    }\n}",
  "sourcePath": "/home/d3mon/Projects/sudo-rm--rf/contracts/ElectionHelper.sol",
  "compiler": {
    "name": "solc",
    "version": "0.5.0+commit.1d4f565a.Emscripten.clang"
  },
  "schemaVersion": "3.0.2",
  "updatedAt": "2020-02-04T08:01:47.501Z",
  "devdoc": {
    "methods": {
      "isOwner()": {
        "return": "true if `msg.sender` is the owner of the contract."
      },
      "owner()": {
        "return": "the address of the owner."
      },
      "renounceOwnership()": {
        "details": "Allows the current owner to relinquish control of the contract."
      },
      "transferOwnership(address)": {
        "details": "Allows the current owner to transfer control of the contract to a newOwner.",
        "params": {
          "newOwner": "The address to transfer ownership to."
        }
      }
    }
  },
  "userdoc": {
    "methods": {
      "renounceOwnership()": {
        "notice": "Renouncing to ownership will leave the contract without an owner. It will not be possible to call the functions with the `onlyOwner` modifier anymore."
      }
    }
  }
}