{
  "contractName": "ElectionHelper",
  "abi": [
    {
      "constant": true,
      "inputs": [
        {
          "name": "",
          "type": "uint256"
        }
      ],
      "name": "candidateVoteCount",
      "outputs": [
        {
          "name": "",
          "type": "uint256"
        }
      ],
      "payable": false,
      "stateMutability": "view",
      "type": "function"
    },
    {
      "constant": true,
      "inputs": [
        {
          "name": "",
          "type": "uint256"
        }
      ],
      "name": "idToConstituency",
      "outputs": [
        {
          "name": "_id",
          "type": "uint256"
        },
        {
          "name": "_startTime",
          "type": "uint256"
        },
        {
          "name": "_duration",
          "type": "uint256"
        }
      ],
      "payable": false,
      "stateMutability": "view",
      "type": "function"
    },
    {
      "constant": true,
      "inputs": [
        {
          "name": "",
          "type": "uint256"
        }
      ],
      "name": "candidateToConstituency",
      "outputs": [
        {
          "name": "",
          "type": "uint256"
        }
      ],
      "payable": false,
      "stateMutability": "view",
      "type": "function"
    },
    {
      "constant": true,
      "inputs": [
        {
          "name": "",
          "type": "uint256"
        }
      ],
      "name": "admins",
      "outputs": [
        {
          "name": "",
          "type": "uint256"
        }
      ],
      "payable": false,
      "stateMutability": "view",
      "type": "function"
    },
    {
      "constant": true,
      "inputs": [
        {
          "name": "",
          "type": "uint256"
        }
      ],
      "name": "candidates",
      "outputs": [
        {
          "name": "_id",
          "type": "uint256"
        }
      ],
      "payable": false,
      "stateMutability": "view",
      "type": "function"
    },
    {
      "constant": false,
      "inputs": [
        {
          "name": "_id",
          "type": "uint256"
        },
        {
          "name": "_adminId",
          "type": "uint256"
        }
      ],
      "name": "registerConstituency",
      "outputs": [],
      "payable": false,
      "stateMutability": "nonpayable",
      "type": "function"
    },
    {
      "constant": true,
      "inputs": [
        {
          "name": "",
          "type": "uint256"
        }
      ],
      "name": "constituencyCandidateCount",
      "outputs": [
        {
          "name": "",
          "type": "uint256"
        }
      ],
      "payable": false,
      "stateMutability": "view",
      "type": "function"
    },
    {
      "constant": true,
      "inputs": [
        {
          "name": "",
          "type": "uint256"
        }
      ],
      "name": "voteToCandidate",
      "outputs": [
        {
          "name": "",
          "type": "uint256"
        }
      ],
      "payable": false,
      "stateMutability": "view",
      "type": "function"
    },
    {
      "constant": true,
      "inputs": [
        {
          "name": "",
          "type": "uint256"
        }
      ],
      "name": "idToCandidate",
      "outputs": [
        {
          "name": "_id",
          "type": "uint256"
        }
      ],
      "payable": false,
      "stateMutability": "view",
      "type": "function"
    },
    {
      "constant": false,
      "inputs": [
        {
          "name": "_id",
          "type": "uint256"
        },
        {
          "name": "_adminId",
          "type": "uint256"
        }
      ],
      "name": "registerCandidate",
      "outputs": [],
      "payable": false,
      "stateMutability": "nonpayable",
      "type": "function"
    },
    {
      "constant": false,
      "inputs": [],
      "name": "renounceOwnership",
      "outputs": [],
      "payable": false,
      "stateMutability": "nonpayable",
      "type": "function"
    },
    {
      "constant": true,
      "inputs": [],
      "name": "owner",
      "outputs": [
        {
          "name": "",
          "type": "address"
        }
      ],
      "payable": false,
      "stateMutability": "view",
      "type": "function"
    },
    {
      "constant": true,
      "inputs": [],
      "name": "isOwner",
      "outputs": [
        {
          "name": "",
          "type": "bool"
        }
      ],
      "payable": false,
      "stateMutability": "view",
      "type": "function"
    },
    {
      "constant": true,
      "inputs": [
        {
          "name": "",
          "type": "uint256"
        }
      ],
      "name": "constituencies",
      "outputs": [
        {
          "name": "_id",
          "type": "uint256"
        },
        {
          "name": "_startTime",
          "type": "uint256"
        },
        {
          "name": "_duration",
          "type": "uint256"
        }
      ],
      "payable": false,
      "stateMutability": "view",
      "type": "function"
    },
    {
      "constant": false,
      "inputs": [
        {
          "name": "_id",
          "type": "uint256"
        }
      ],
      "name": "registerAdmin",
      "outputs": [],
      "payable": false,
      "stateMutability": "nonpayable",
      "type": "function"
    },
    {
      "constant": true,
      "inputs": [
        {
          "name": "",
          "type": "uint256"
        }
      ],
      "name": "voters",
      "outputs": [
        {
          "name": "_id",
          "type": "uint256"
        },
        {
          "name": "_constituencyId",
          "type": "uint256"
        },
        {
          "name": "_hasVoted",
          "type": "bool"
        },
        {
          "components": [
            {
              "name": "_voteId",
              "type": "uint256"
            },
            {
              "name": "_votedId",
              "type": "uint256"
            },
            {
              "name": "_voteTime",
              "type": "uint64"
            }
          ],
          "name": "_vote",
          "type": "tuple"
        }
      ],
      "payable": false,
      "stateMutability": "view",
      "type": "function"
    },
    {
      "constant": false,
      "inputs": [
        {
          "name": "newOwner",
          "type": "address"
        }
      ],
      "name": "transferOwnership",
      "outputs": [],
      "payable": false,
      "stateMutability": "nonpayable",
      "type": "function"
    },
    {
      "constant": true,
      "inputs": [
        {
          "name": "",
          "type": "uint256"
        }
      ],
      "name": "idToVoter",
      "outputs": [
        {
          "name": "_id",
          "type": "uint256"
        },
        {
          "name": "_constituencyId",
          "type": "uint256"
        },
        {
          "name": "_hasVoted",
          "type": "bool"
        },
        {
          "components": [
            {
              "name": "_voteId",
              "type": "uint256"
            },
            {
              "name": "_votedId",
              "type": "uint256"
            },
            {
              "name": "_voteTime",
              "type": "uint64"
            }
          ],
          "name": "_vote",
          "type": "tuple"
        }
      ],
      "payable": false,
      "stateMutability": "view",
      "type": "function"
    },
    {
      "anonymous": false,
      "inputs": [
        {
          "indexed": false,
          "name": "_id",
          "type": "uint256"
        },
        {
          "indexed": false,
          "name": "_constituencyId",
          "type": "uint256"
        }
      ],
      "name": "VoterCreated",
      "type": "event"
    },
    {
      "anonymous": false,
      "inputs": [
        {
          "indexed": false,
          "name": "_id",
          "type": "uint256"
        }
      ],
      "name": "CandidateRegistered",
      "type": "event"
    },
    {
      "anonymous": false,
      "inputs": [
        {
          "indexed": false,
          "name": "_id",
          "type": "uint256"
        }
      ],
      "name": "ConstituencyRegistered",
      "type": "event"
    },
    {
      "anonymous": false,
      "inputs": [
        {
          "indexed": true,
          "name": "previousOwner",
          "type": "address"
        },
        {
          "indexed": true,
          "name": "newOwner",
          "type": "address"
        }
      ],
      "name": "OwnershipTransferred",
      "type": "event"
    },
    {
      "constant": false,
      "inputs": [
        {
          "name": "_adminId",
          "type": "uint256"
        }
      ],
      "name": "getConstituencies",
      "outputs": [
        {
          "components": [
            {
              "name": "_id",
              "type": "uint256"
            },
            {
              "name": "_startTime",
              "type": "uint256"
            },
            {
              "name": "_duration",
              "type": "uint256"
            }
          ],
          "name": "",
          "type": "tuple[]"
        }
      ],
      "payable": false,
      "stateMutability": "nonpayable",
      "type": "function"
    },
    {
      "constant": false,
      "inputs": [
        {
          "name": "_id",
          "type": "uint256"
        },
        {
          "name": "_duration",
          "type": "uint256"
        },
        {
          "name": "_adminId",
          "type": "uint256"
        }
      ],
      "name": "generateElectionforConstituency",
      "outputs": [],
      "payable": false,
      "stateMutability": "nonpayable",
      "type": "function"
    },
    {
      "constant": false,
      "inputs": [
        {
          "name": "_id",
          "type": "uint256"
        },
        {
          "name": "_userId",
          "type": "uint256"
        }
      ],
      "name": "getConstituencyDetails",
      "outputs": [
        {
          "components": [
            {
              "name": "_id",
              "type": "uint256"
            },
            {
              "name": "_startTime",
              "type": "uint256"
            },
            {
              "name": "_duration",
              "type": "uint256"
            }
          ],
          "name": "",
          "type": "tuple"
        }
      ],
      "payable": false,
      "stateMutability": "nonpayable",
      "type": "function"
    },
    {
      "constant": false,
      "inputs": [
        {
          "name": "_id",
          "type": "uint256"
        },
        {
          "name": "_constituencyId",
          "type": "uint256"
        },
        {
          "name": "_adminId",
          "type": "uint256"
        }
      ],
      "name": "assignCandidateToConstituency",
      "outputs": [],
      "payable": false,
      "stateMutability": "nonpayable",
      "type": "function"
    },
    {
      "constant": true,
      "inputs": [
        {
          "name": "_constituencyId",
          "type": "uint256"
        },
        {
          "name": "_userId",
          "type": "uint256"
        }
      ],
      "name": "getCandidatesByConstituency",
      "outputs": [
        {
          "components": [
            {
              "name": "_id",
              "type": "uint256"
            }
          ],
          "name": "",
          "type": "tuple[]"
        }
      ],
      "payable": false,
      "stateMutability": "view",
      "type": "function"
    }
  ],
  "bytecode": "0x6080604052336000806101000a81548173ffffffffffffffffffffffffffffffffffffffff021916908373ffffffffffffffffffffffffffffffffffffffff1602179055506000809054906101000a900473ffffffffffffffffffffffffffffffffffffffff1673ffffffffffffffffffffffffffffffffffffffff16600073ffffffffffffffffffffffffffffffffffffffff167f8be0079c531659141344cd1fd0a4f28419497f9722a3daafe3b4186f6b6457e060405160405180910390a360008060146101000a81548160ff02191690831515021790555061165b806100e96000396000f3fe608060405260043610610133576000357c0100000000000000000000000000000000000000000000000000000000900463ffffffff16806301aa2e03146101385780630f80dcb01461017557806312d51c72146101b45780631471e0ab146101dd57806314bfd6d01461021a57806328975210146102575780632fd23a3f146102945780633477ee2e146102d15780633acab52f1461030e5780633b04a6c91461033757806356be16581461037457806357e2ef10146103b15780635d6e5052146103ee578063715018a6146104175780638da5cb5b1461042e5780638f32d59b146104595780639209416a1461048457806394845254146104c3578063bbc893a3146104ec578063da58c7d914610529578063f2fde38b14610569578063f759006514610592578063f8c70571146105bb575b600080fd5b34801561014457600080fd5b5061015f600480360361015a91908101906111ab565b6105fb565b60405161016c91906114c8565b60405180910390f35b34801561018157600080fd5b5061019c600480360361019791908101906111ab565b610613565b6040516101ab93929190611528565b60405180910390f35b3480156101c057600080fd5b506101db60048036036101d69190810190611210565b61063d565b005b3480156101e957600080fd5b5061020460048036036101ff91908101906111ab565b6106cc565b60405161021191906114c8565b60405180910390f35b34801561022657600080fd5b50610241600480360361023c91908101906111ab565b6106e4565b60405161024e91906114c8565b60405180910390f35b34801561026357600080fd5b5061027e600480360361027991908101906111ab565b610707565b60405161028b9190611470565b60405180910390f35b3480156102a057600080fd5b506102bb60048036036102b691908101906111d4565b6107d6565b6040516102c891906114ad565b60405180910390f35b3480156102dd57600080fd5b506102f860048036036102f391908101906111ab565b610857565b60405161030591906114c8565b60405180910390f35b34801561031a57600080fd5b50610335600480360361033091908101906111d4565b610880565b005b34801561034357600080fd5b5061035e600480360361035991908101906111ab565b6109ce565b60405161036b91906114c8565b60405180910390f35b34801561038057600080fd5b5061039b600480360361039691908101906111ab565b6109e6565b6040516103a891906114c8565b60405180910390f35b3480156103bd57600080fd5b506103d860048036036103d391908101906111ab565b6109fe565b6040516103e591906114c8565b60405180910390f35b3480156103fa57600080fd5b50610415600480360361041091908101906111d4565b610a1c565b005b34801561042357600080fd5b5061042c610b2c565b005b34801561043a57600080fd5b50610443610bfe565b6040516104509190611433565b60405180910390f35b34801561046557600080fd5b5061046e610c27565b60405161047b9190611492565b60405180910390f35b34801561049057600080fd5b506104ab60048036036104a691908101906111ab565b610c7e565b6040516104ba93929190611528565b60405180910390f35b3480156104cf57600080fd5b506104ea60048036036104e591908101906111ab565b610cb7565b005b3480156104f857600080fd5b50610513600480360361050e91908101906111d4565b610cf9565b604051610520919061144e565b60405180910390f35b34801561053557600080fd5b50610550600480360361054b91908101906111ab565b610e30565b60405161056094939291906114e3565b60405180910390f35b34801561057557600080fd5b50610590600480360361058b9190810190611182565b610ecd565b005b34801561059e57600080fd5b506105b960048036036105b49190810190611210565b610eec565b005b3480156105c757600080fd5b506105e260048036036105dd91908101906111ab565b610f9c565b6040516105f294939291906114e3565b60405180910390f35b60076020528060005260406000206000915090505481565b60036020528060005260406000206000915090508060000154908060010154908060020154905083565b8060008090505b600b805490508110156106c55781600b8281548110151561066157fe5b906000526020600020015414156106b25783600560008781526020019081526020016000208190555060066000858152602001908152602001600020600081548092919060010191905055506106b7565b6106b8565b5b8080600101915050610644565b5050505050565b60056020528060005260406000206000915090505481565b600b818154811015156106f357fe5b906000526020600020016000915090505481565b60608160008090505b600b805490508110156107cf5781600b8281548110151561072d57fe5b906000526020600020015414156107bc57600a805480602002602001604051908101604052809291908181526020016000905b828210156107b1578382906000526020600020906003020160606040519081016040529081600082015481526020016001820154815260200160028201548152505081526020019060010190610760565b5050505092506107c1565b6107c2565b5b8080600101915050610710565b5050919050565b6107de611124565b81600060016000838152602001908152602001600020600001541415151561080557600080fd5b61080d611124565b600360008681526020019081526020016000206060604051908101604052908160008201548152602001600182015481526020016002820154815250509050809250505092915050565b60098181548110151561086657fe5b906000526020600020016000915090508060000154905081565b8060008090505b600b805490508110156109c85781600b828154811015156108a457fe5b906000526020600020015414156109b55760006001600a606060405190810160405280888152602001600081526020016000815250908060018154018082558091505090600182039060005260206000209060030201600090919290919091506000820151816000015560208201518160010155604082015181600201555050039050600a8181548110151561093657fe5b9060005260206000209060030201600360008781526020019081526020016000206000820154816000015560018201548160010155600282015481600201559050507f21db1a92fb8efb483c22a581ee7e282b6d79d9d43b559ee1affa341818867969856040516109a791906114c8565b60405180910390a1506109ba565b6109bb565b5b8080600101915050610887565b50505050565b60066020528060005260406000206000915090505481565b60046020528060005260406000206000915090505481565b60026020528060005260406000206000915090508060000154905081565b8060008090505b600b80549050811015610b265781600b82815481101515610a4057fe5b90600052602060002001541415610b135760006001600960206040519081016040528088815250908060018154018082558091505090600182039060005260206000200160009091929091909150600082015181600001555050039050600981815481101515610aac57fe5b9060005260206000200160026000878152602001908152602001600020600082015481600001559050507f43dcee486fabffa2fb551555bfaa5bfcf6a42f2d014032ccef94bf09d83855eb85604051610b0591906114c8565b60405180910390a150610b18565b610b19565b5b8080600101915050610a23565b50505050565b610b34610c27565b1515610b3f57600080fd5b600073ffffffffffffffffffffffffffffffffffffffff166000809054906101000a900473ffffffffffffffffffffffffffffffffffffffff1673ffffffffffffffffffffffffffffffffffffffff167f8be0079c531659141344cd1fd0a4f28419497f9722a3daafe3b4186f6b6457e060405160405180910390a360008060006101000a81548173ffffffffffffffffffffffffffffffffffffffff021916908373ffffffffffffffffffffffffffffffffffffffff160217905550565b60008060009054906101000a900473ffffffffffffffffffffffffffffffffffffffff16905090565b60008060009054906101000a900473ffffffffffffffffffffffffffffffffffffffff1673ffffffffffffffffffffffffffffffffffffffff163373ffffffffffffffffffffffffffffffffffffffff1614905090565b600a81815481101515610c8d57fe5b90600052602060002090600302016000915090508060000154908060010154908060020154905083565b610cbf610c27565b1515610cca57600080fd5b600b81908060018154018082558091505090600182039060005260206000200160009091929091909150555050565b6060816000600160008381526020019081526020016000206000015414151515610d2257600080fd5b60606006600086815260200190815260200160002054604051908082528060200260200182016040528015610d7157816020015b610d5e611146565b815260200190600190039081610d565790505b509050600080905060008090505b600980549050811015610e23578660056000600984815481101515610da057fe5b90600052602060002001600001548152602001908152602001600020541415610e1657600981815481101515610dd257fe5b90600052602060002001602060405190810160405290816000820154815250508383815181101515610e0057fe5b9060200190602002018190525081806001019250505b8080600101915050610d7f565b5081935050505092915050565b600881815481101515610e3f57fe5b90600052602060002090600602016000915090508060000154908060010154908060020160009054906101000a900460ff1690806003016060604051908101604052908160008201548152602001600182015481526020016002820160009054906101000a900467ffffffffffffffff1667ffffffffffffffff1667ffffffffffffffff1681525050905084565b610ed5610c27565b1515610ee057600080fd5b610ee98161102a565b50565b8060008090505b600b80549050811015610f955781600b82815481101515610f1057fe5b90600052602060002001541415610f8257610f29611124565b600360008781526020019081526020016000206060604051908101604052908160008201548152602001600182015481526020016002820154815250509050428160200181815250508481604001818152505050610f87565b610f88565b5b8080600101915050610ef3565b5050505050565b60016020528060005260406000206000915090508060000154908060010154908060020160009054906101000a900460ff1690806003016060604051908101604052908160008201548152602001600182015481526020016002820160009054906101000a900467ffffffffffffffff1667ffffffffffffffff1667ffffffffffffffff1681525050905084565b600073ffffffffffffffffffffffffffffffffffffffff168173ffffffffffffffffffffffffffffffffffffffff161415151561106657600080fd5b8073ffffffffffffffffffffffffffffffffffffffff166000809054906101000a900473ffffffffffffffffffffffffffffffffffffffff1673ffffffffffffffffffffffffffffffffffffffff167f8be0079c531659141344cd1fd0a4f28419497f9722a3daafe3b4186f6b6457e060405160405180910390a3806000806101000a81548173ffffffffffffffffffffffffffffffffffffffff021916908373ffffffffffffffffffffffffffffffffffffffff16021790555050565b6060604051908101604052806000815260200160008152602001600081525090565b602060405190810160405280600081525090565b60006111668235611605565b905092915050565b600061117a8235611617565b905092915050565b60006020828403121561119457600080fd5b60006111a28482850161115a565b91505092915050565b6000602082840312156111bd57600080fd5b60006111cb8482850161116e565b91505092915050565b600080604083850312156111e757600080fd5b60006111f58582860161116e565b92505060206112068582860161116e565b9150509250929050565b60008060006060848603121561122557600080fd5b60006112338682870161116e565b93505060206112448682870161116e565b92505060406112558682870161116e565b9150509250925092565b611268816115a9565b82525050565b600061127982611579565b80845260208401935061128b8361155f565b60005b828110156112bd576112a1868351611333565b6112aa8261158f565b915060208601955060018101905061128e565b50849250505092915050565b60006112d482611584565b8084526020840193506112e68361156c565b60005b82811015611318576112fc868351611391565b6113058261159c565b91506060860195506001810190506112e9565b50849250505092915050565b61132d816115bb565b82525050565b6020820160008201516113496000850182611415565b50505050565b6060820160008201516113656000850182611415565b5060208201516113786020850182611415565b50604082015161138b6040850182611415565b50505050565b6060820160008201516113a76000850182611415565b5060208201516113ba6020850182611415565b5060408201516113cd6040850182611415565b50505050565b6060820160008201516113e96000850182611415565b5060208201516113fc6020850182611415565b50604082015161140f6040850182611424565b50505050565b61141e816115e7565b82525050565b61142d816115f1565b82525050565b6000602082019050611448600083018461125f565b92915050565b60006020820190508181036000830152611468818461126e565b905092915050565b6000602082019050818103600083015261148a81846112c9565b905092915050565b60006020820190506114a76000830184611324565b92915050565b60006060820190506114c2600083018461134f565b92915050565b60006020820190506114dd6000830184611415565b92915050565b600060c0820190506114f86000830187611415565b6115056020830186611415565b6115126040830185611324565b61151f60608301846113d3565b95945050505050565b600060608201905061153d6000830186611415565b61154a6020830185611415565b6115576040830184611415565b949350505050565b6000602082019050919050565b6000602082019050919050565b600081519050919050565b600081519050919050565b6000602082019050919050565b6000602082019050919050565b60006115b4826115c7565b9050919050565b60008115159050919050565b600073ffffffffffffffffffffffffffffffffffffffff82169050919050565b6000819050919050565b600067ffffffffffffffff82169050919050565b6000611610826115c7565b9050919050565b600081905091905056fea265627a7a72305820d3cc45906a641942784b98fb528d574d2236a115d06b2c67f6691a7c629634366c6578706572696d656e74616cf50037",
  "source": "pragma solidity ^0.5.0;\npragma experimental ABIEncoderV2;\nimport \"./Election.sol\";\n\ncontract ElectionHelper is Election {\n\n    function getConstituencies(uint256 _adminId) external onlyAdmin(_adminId) returns(Constituency[] memory) {\n        return constituencies;\n    }\n\n    function generateElectionforConstituency(uint256 _id, uint256 _duration, uint256 _adminId) external onlyAdmin(_adminId) {\n        Constituency memory _constituency = idToConstituency[_id];\n        _constituency._startTime = block.timestamp;\n        _constituency._duration = _duration;\n    }\n\n    function getConstituencyDetails(uint256 _id, uint256 _userId) external onlyUser(_userId) returns(Constituency memory) {\n        Constituency memory _constituency = idToConstituency[_id];\n        return _constituency;\n    }\n\n    function assignCandidateToConstituency(uint256 _id, uint256 _constituencyId, uint256 _adminId) public onlyAdmin(_adminId) {\n        candidateToConstituency[_id] = _constituencyId;\n        constituencyCandidateCount[_constituencyId]++;\n    }\n\n    function getCandidatesByConstituency(uint256 _constituencyId, uint256 _userId) public view onlyUser(_userId) returns(Candidate[] memory) {\n        Candidate[] memory _candidates = new Candidate[](constituencyCandidateCount[_constituencyId]);\n        uint counter = 0;\n        for(uint i = 0; i < candidates.length; i++) {\n            if(candidateToConstituency[candidates[i]._id] == _constituencyId) {\n            _candidates[counter] = candidates[i];\n            counter++;\n        }\n    }\n\n        return _candidates;\n    }\n}",
  "sourcePath": "/home/d3mon/Projects/sudo-rm--rf/contracts/ElectionHelper.sol",
  "compiler": {
    "name": "solc",
    "version": "0.5.0+commit.1d4f565a.Emscripten.clang"
  },
  "schemaVersion": "3.0.2",
  "updatedAt": "2019-12-24T13:41:29.573Z",
  "devdoc": {
    "methods": {
      "isOwner()": {
        "return": "true if `msg.sender` is the owner of the contract."
      },
      "owner()": {
        "return": "the address of the owner."
      },
      "renounceOwnership()": {
        "details": "Allows the current owner to relinquish control of the contract."
      },
      "transferOwnership(address)": {
        "details": "Allows the current owner to transfer control of the contract to a newOwner.",
        "params": {
          "newOwner": "The address to transfer ownership to."
        }
      }
    }
  },
  "userdoc": {
    "methods": {
      "renounceOwnership()": {
        "notice": "Renouncing to ownership will leave the contract without an owner. It will not be possible to call the functions with the `onlyOwner` modifier anymore."
      }
    }
  }
}