{
  "contractName": "Election",
  "abi": [
    {
      "constant": true,
      "inputs": [
        {
          "name": "",
          "type": "uint256"
        }
      ],
      "name": "admins",
      "outputs": [
        {
          "name": "",
          "type": "uint256"
        }
      ],
      "payable": false,
      "stateMutability": "view",
      "type": "function"
    },
    {
      "constant": true,
      "inputs": [
        {
          "name": "",
          "type": "uint256"
        }
      ],
      "name": "candidates",
      "outputs": [
        {
          "name": "_id",
          "type": "uint256"
        }
      ],
      "payable": false,
      "stateMutability": "view",
      "type": "function"
    },
    {
      "constant": false,
      "inputs": [],
      "name": "renounceOwnership",
      "outputs": [],
      "payable": false,
      "stateMutability": "nonpayable",
      "type": "function"
    },
    {
      "constant": true,
      "inputs": [],
      "name": "owner",
      "outputs": [
        {
          "name": "",
          "type": "address"
        }
      ],
      "payable": false,
      "stateMutability": "view",
      "type": "function"
    },
    {
      "constant": true,
      "inputs": [],
      "name": "isOwner",
      "outputs": [
        {
          "name": "",
          "type": "bool"
        }
      ],
      "payable": false,
      "stateMutability": "view",
      "type": "function"
    },
    {
      "constant": true,
      "inputs": [
        {
          "name": "",
          "type": "uint256"
        }
      ],
      "name": "constituencies",
      "outputs": [
        {
          "name": "_id",
          "type": "uint256"
        },
        {
          "name": "_startTime",
          "type": "uint256"
        },
        {
          "name": "_duration",
          "type": "uint256"
        }
      ],
      "payable": false,
      "stateMutability": "view",
      "type": "function"
    },
    {
      "constant": true,
      "inputs": [
        {
          "name": "",
          "type": "uint256"
        }
      ],
      "name": "voters",
      "outputs": [
        {
          "name": "_id",
          "type": "uint256"
        },
        {
          "name": "_constituencyId",
          "type": "uint256"
        },
        {
          "name": "_hasVoted",
          "type": "bool"
        },
        {
          "components": [
            {
              "name": "_voteId",
              "type": "bytes32"
            },
            {
              "name": "_votedId",
              "type": "uint256"
            },
            {
              "name": "_voteTime",
              "type": "uint64"
            }
          ],
          "name": "_vote",
          "type": "tuple"
        }
      ],
      "payable": false,
      "stateMutability": "view",
      "type": "function"
    },
    {
      "constant": false,
      "inputs": [
        {
          "name": "newOwner",
          "type": "address"
        }
      ],
      "name": "transferOwnership",
      "outputs": [],
      "payable": false,
      "stateMutability": "nonpayable",
      "type": "function"
    },
    {
      "anonymous": false,
      "inputs": [
        {
          "indexed": false,
          "name": "_id",
          "type": "uint256"
        },
        {
          "indexed": false,
          "name": "_voterId",
          "type": "uint256"
        }
      ],
      "name": "VoterCreated",
      "type": "event"
    },
    {
      "anonymous": false,
      "inputs": [
        {
          "indexed": false,
          "name": "_id",
          "type": "uint256"
        }
      ],
      "name": "CandidateRegistered",
      "type": "event"
    },
    {
      "anonymous": false,
      "inputs": [
        {
          "indexed": false,
          "name": "_id",
          "type": "uint256"
        }
      ],
      "name": "ConstituencyRegistered",
      "type": "event"
    },
    {
      "anonymous": false,
      "inputs": [
        {
          "indexed": true,
          "name": "previousOwner",
          "type": "address"
        },
        {
          "indexed": true,
          "name": "newOwner",
          "type": "address"
        }
      ],
      "name": "OwnershipTransferred",
      "type": "event"
    },
    {
      "constant": false,
      "inputs": [
        {
          "name": "_id",
          "type": "uint256"
        },
        {
          "name": "_adminId",
          "type": "uint256"
        }
      ],
      "name": "registerCandidate",
      "outputs": [],
      "payable": false,
      "stateMutability": "nonpayable",
      "type": "function"
    },
    {
      "constant": false,
      "inputs": [
        {
          "name": "_id",
          "type": "uint256"
        },
        {
          "name": "_adminId",
          "type": "uint256"
        }
      ],
      "name": "registerConstituency",
      "outputs": [],
      "payable": false,
      "stateMutability": "nonpayable",
      "type": "function"
    },
    {
      "constant": false,
      "inputs": [
        {
          "name": "_id",
          "type": "uint256"
        }
      ],
      "name": "registerAdmin",
      "outputs": [],
      "payable": false,
      "stateMutability": "nonpayable",
      "type": "function"
    }
  ],
  "bytecode": "0x608060405260405180606001604052806000801b815260200160008152602001600067ffffffffffffffff168152506001600082015181600001556020820151816001015560408201518160020160006101000a81548167ffffffffffffffff021916908367ffffffffffffffff1602179055505050336000806101000a81548173ffffffffffffffffffffffffffffffffffffffff021916908373ffffffffffffffffffffffffffffffffffffffff1602179055506000809054906101000a900473ffffffffffffffffffffffffffffffffffffffff1673ffffffffffffffffffffffffffffffffffffffff16600073ffffffffffffffffffffffffffffffffffffffff167f8be0079c531659141344cd1fd0a4f28419497f9722a3daafe3b4186f6b6457e060405160405180910390a3610b2a806101406000396000f3fe608060405234801561001057600080fd5b50600436106100a95760003560e01c80638da5cb5b116100715780638da5cb5b146101505780638f32d59b1461016e5780639209416a1461018c57806394845254146101be578063da58c7d9146101da578063f2fde38b1461020d576100a9565b806314bfd6d0146100ae5780633477ee2e146100de5780633acab52f1461010e5780635d6e50521461012a578063715018a614610146575b600080fd5b6100c860048036036100c3919081019061088e565b610229565b6040516100d591906109c5565b60405180910390f35b6100f860048036036100f3919081019061088e565b61024a565b60405161010591906109c5565b60405180910390f35b610128600480360361012391908101906108b7565b610271565b005b610144600480360361013f91908101906108b7565b6103ba565b005b61014e6104c5565b005b610158610595565b604051610165919061098f565b60405180910390f35b6101766105be565b60405161018391906109aa565b60405180910390f35b6101a660048036036101a1919081019061088e565b610615565b6040516101b593929190610a25565b60405180910390f35b6101d860048036036101d3919081019061088e565b61064c565b005b6101f460048036036101ef919081019061088e565b61068c565b60405161020494939291906109e0565b60405180910390f35b61022760048036036102229190810190610865565b610726565b005b600e818154811061023657fe5b906000526020600020016000915090505481565b600c818154811061025757fe5b906000526020600020016000915090508060000154905081565b8060008090505b600e805490508110156103b45781600e828154811061029357fe5b906000526020600020015414156103a15760006001600d6040518060600160405280888152602001600081526020016000815250908060018154018082558091505090600182039060005260206000209060030201600090919290919091506000820151816000015560208201518160010155604082015181600201555050039050600d818154811061032257fe5b9060005260206000209060030201600660008781526020019081526020016000206000820154816000015560018201548160010155600282015481600201559050507f21db1a92fb8efb483c22a581ee7e282b6d79d9d43b559ee1affa3418188679698560405161039391906109c5565b60405180910390a1506103a6565b6103a7565b5b8080600101915050610278565b50505050565b8060008090505b600e805490508110156104bf5781600e82815481106103dc57fe5b906000526020600020015414156104ac5760006001600c604051806020016040528088815250908060018154018082558091505090600182039060005260206000200160009091929091909150600082015181600001555050039050600c818154811061044557fe5b9060005260206000200160056000878152602001908152602001600020600082015481600001559050507f43dcee486fabffa2fb551555bfaa5bfcf6a42f2d014032ccef94bf09d83855eb8560405161049e91906109c5565b60405180910390a1506104b1565b6104b2565b5b80806001019150506103c1565b50505050565b6104cd6105be565b6104d657600080fd5b600073ffffffffffffffffffffffffffffffffffffffff166000809054906101000a900473ffffffffffffffffffffffffffffffffffffffff1673ffffffffffffffffffffffffffffffffffffffff167f8be0079c531659141344cd1fd0a4f28419497f9722a3daafe3b4186f6b6457e060405160405180910390a360008060006101000a81548173ffffffffffffffffffffffffffffffffffffffff021916908373ffffffffffffffffffffffffffffffffffffffff160217905550565b60008060009054906101000a900473ffffffffffffffffffffffffffffffffffffffff16905090565b60008060009054906101000a900473ffffffffffffffffffffffffffffffffffffffff1673ffffffffffffffffffffffffffffffffffffffff163373ffffffffffffffffffffffffffffffffffffffff1614905090565b600d818154811061062257fe5b90600052602060002090600302016000915090508060000154908060010154908060020154905083565b6106546105be565b61065d57600080fd5b600e81908060018154018082558091505090600182039060005260206000200160009091929091909150555050565b600b818154811061069957fe5b90600052602060002090600602016000915090508060000154908060010154908060020160009054906101000a900460ff16908060030160405180606001604052908160008201548152602001600182015481526020016002820160009054906101000a900467ffffffffffffffff1667ffffffffffffffff1667ffffffffffffffff1681525050905084565b61072e6105be565b61073757600080fd5b61074081610743565b50565b600073ffffffffffffffffffffffffffffffffffffffff168173ffffffffffffffffffffffffffffffffffffffff16141561077d57600080fd5b8073ffffffffffffffffffffffffffffffffffffffff166000809054906101000a900473ffffffffffffffffffffffffffffffffffffffff1673ffffffffffffffffffffffffffffffffffffffff167f8be0079c531659141344cd1fd0a4f28419497f9722a3daafe3b4186f6b6457e060405160405180910390a3806000806101000a81548173ffffffffffffffffffffffffffffffffffffffff021916908373ffffffffffffffffffffffffffffffffffffffff16021790555050565b60008135905061084a81610ac2565b92915050565b60008135905061085f81610ad9565b92915050565b60006020828403121561087757600080fd5b60006108858482850161083b565b91505092915050565b6000602082840312156108a057600080fd5b60006108ae84828501610850565b91505092915050565b600080604083850312156108ca57600080fd5b60006108d885828601610850565b92505060206108e985828601610850565b9150509250929050565b6108fc81610a5c565b82525050565b61090b81610a6e565b82525050565b61091a81610a7a565b82525050565b6060820160008201516109366000850182610911565b5060208201516109496020850182610962565b50604082015161095c6040850182610980565b50505050565b61096b81610aa4565b82525050565b61097a81610aa4565b82525050565b61098981610aae565b82525050565b60006020820190506109a460008301846108f3565b92915050565b60006020820190506109bf6000830184610902565b92915050565b60006020820190506109da6000830184610971565b92915050565b600060c0820190506109f56000830187610971565b610a026020830186610971565b610a0f6040830185610902565b610a1c6060830184610920565b95945050505050565b6000606082019050610a3a6000830186610971565b610a476020830185610971565b610a546040830184610971565b949350505050565b6000610a6782610a84565b9050919050565b60008115159050919050565b6000819050919050565b600073ffffffffffffffffffffffffffffffffffffffff82169050919050565b6000819050919050565b600067ffffffffffffffff82169050919050565b610acb81610a5c565b8114610ad657600080fd5b50565b610ae281610aa4565b8114610aed57600080fd5b5056fea265627a7a723058203d2812b5c941d26930d0817e56c3e5928f4b7185e18bacc5e671ffb0f0e7e1576c6578706572696d656e74616cf50037",
  "source": "pragma solidity ^0.5.0;\npragma experimental ABIEncoderV2;\nimport './Ownable.sol';\n\ncontract Election is Ownable{\n\n  event VoterCreated(uint256 _id, uint256 _voterId);\n  event CandidateRegistered(uint256 _id);\n  event ConstituencyRegistered(uint256 _id);\n\n  struct Vote {\n    bytes32 _voteId;\n    uint256 _votedId;\n    uint64 _voteTime;\n  }\n\n  struct Voter {\n    uint256 _id;\n    uint256 _constituencyId;\n    bool _hasVoted;\n    Vote _vote;\n  }\n\n  struct Candidate {\n    uint256 _id;\n  }\n\n  struct Constituency {\n    uint256 _id;\n    uint256 _startTime;\n    uint256 _duration;\n  }\n\n  Vote InitialVoteState = Vote(0, 0, 0);\n\n  mapping(uint256 => Voter) internal idToVoter;\n  mapping(uint256 => Candidate) internal idToCandidate;\n  mapping(uint256 => Constituency) internal idToConstituency;\n  mapping(bytes32 => uint256) internal voteToCandidate;\n  mapping(uint256 => uint256) internal candidateToConstituency;\n  mapping(uint256 => uint256) internal constituencyCandidateCount;\n  mapping(uint256 => uint256) internal candidateVoteCount;\n\n  Voter[] public voters;\n  Candidate[] public candidates;\n  Constituency[] public constituencies;\n  uint256[] public admins;\n\n  modifier onlyUser(uint256 _id) {\n    require(idToVoter[_id]._id != 0);\n    _;\n  }\n\n  modifier onlyAdmin(uint256 _id) {\n    for(uint i = 0; i < admins.length; i++) {\n      if(admins[i] == _id) {\n        _;\n        }\n      else {\n        continue;\n      }\n    }\n  }\n\n  function createVoter(uint256 _id, uint256 _constituencyId) internal {\n    uint id = voters.push(Voter(_id, _constituencyId, false, InitialVoteState)) - 1;\n    idToVoter[_id] = voters[id];\n    emit VoterCreated(_id, _constituencyId);\n  }\n\n  function registerCandidate(uint256 _id, uint256 _adminId) external onlyAdmin(_adminId) {\n    uint id = candidates.push(Candidate(_id)) - 1;\n    idToCandidate[_id] = candidates[id];\n    emit CandidateRegistered(_id);\n  }\n\n  function registerConstituency(uint256 _id, uint256 _adminId) external onlyAdmin(_adminId) {\n    uint id = constituencies.push(Constituency(_id, 0, 0)) - 1;\n    idToConstituency[_id] = constituencies[id];\n    emit ConstituencyRegistered(_id);\n  }\n\n  function registerAdmin(uint256 _id) external onlyOwner {\n    admins.push(_id);\n  }\n\n}",
  "sourcePath": "/home/d3mon/Projects/sudo-rm--rf/contracts/Election.sol",
  "compiler": {
    "name": "solc",
    "version": "0.5.8+commit.23d335f2.Emscripten.clang"
  },
  "schemaVersion": "3.0.11",
  "updatedAt": "2019-08-20T16:14:39.146Z",
  "devdoc": {
    "methods": {
      "isOwner()": {
        "return": "true if `msg.sender` is the owner of the contract."
      },
      "owner()": {
        "return": "the address of the owner."
      },
      "renounceOwnership()": {
        "details": "Allows the current owner to relinquish control of the contract."
      },
      "transferOwnership(address)": {
        "details": "Allows the current owner to transfer control of the contract to a newOwner.",
        "params": {
          "newOwner": "The address to transfer ownership to."
        }
      }
    }
  },
  "userdoc": {
    "methods": {
      "renounceOwnership()": {
        "notice": "Renouncing to ownership will leave the contract without an owner. It will not be possible to call the functions with the `onlyOwner` modifier anymore."
      }
    }
  }
}