{
  "contractName": "Election",
  "abi": [
    {
      "constant": true,
      "inputs": [
        {
          "name": "",
          "type": "uint256"
        }
      ],
      "name": "candidates",
      "outputs": [
        {
          "name": "_id",
          "type": "uint256"
        }
      ],
      "payable": false,
      "stateMutability": "view",
      "type": "function"
    },
    {
      "constant": true,
      "inputs": [
        {
          "name": "",
          "type": "uint256"
        }
      ],
      "name": "deployedBallots",
      "outputs": [
        {
          "name": "",
          "type": "address"
        }
      ],
      "payable": false,
      "stateMutability": "view",
      "type": "function"
    },
    {
      "constant": true,
      "inputs": [
        {
          "name": "",
          "type": "uint256"
        }
      ],
      "name": "voters",
      "outputs": [
        {
          "name": "_id",
          "type": "uint256"
        },
        {
          "name": "_constituencyId",
          "type": "uint256"
        },
        {
          "name": "_hasVoted",
          "type": "bool"
        }
      ],
      "payable": false,
      "stateMutability": "view",
      "type": "function"
    },
    {
      "inputs": [],
      "payable": false,
      "stateMutability": "nonpayable",
      "type": "constructor"
    },
    {
      "constant": true,
      "inputs": [
        {
          "name": "_constituencyId",
          "type": "uint256"
        }
      ],
      "name": "getCandidatesByConstituency",
      "outputs": [
        {
          "components": [
            {
              "name": "_id",
              "type": "uint256"
            }
          ],
          "name": "",
          "type": "tuple[]"
        }
      ],
      "payable": false,
      "stateMutability": "view",
      "type": "function"
    },
    {
      "constant": true,
      "inputs": [],
      "name": "getDeployedBallots",
      "outputs": [
        {
          "name": "",
          "type": "address[]"
        }
      ],
      "payable": false,
      "stateMutability": "view",
      "type": "function"
    }
  ],
  "bytecode": "0x60806040523480156200001157600080fd5b506200001c620001bd565b60405180604001604052807f737562680000000000000000000000000000000000000000000000000000000081526020017f616d6d6d0000000000000000000000000000000000000000000000000000000081525090506200007d620001bd565b60405180604001604052807f616d69746869000000000000000000000000000000000000000000000000000081526020017f726169626172656c690000000000000000000000000000000000000000000000815250905060006001905060008090505b6002811015620001b357600084848360028110620000fa57fe5b602002015133856040516200010f90620001df565b6200011e9493929190620002ae565b604051809103906000f0801580156200013b573d6000803e3d6000fd5b50905060068190806001815401808255809150509060018203906000526020600020016000909192909190916101000a81548173ffffffffffffffffffffffffffffffffffffffff021916908373ffffffffffffffffffffffffffffffffffffffff16021790555050508080600101915050620000e0565b5050505062000398565b6040518060400160405280600290602082028038833980820191505090505090565b6109ae8062000a7783390190565b6000620001fb83836200027b565b60208301905092915050565b62000212816200035c565b82525050565b620002238162000305565b6200022f81846200031d565b92506200023c82620002fb565b8060005b8381101562000273578151620002578782620001ed565b9650620002648362000310565b92505060018101905062000240565b505050505050565b620002868162000328565b82525050565b620002978162000328565b82525050565b620002a88162000352565b82525050565b600060a082019050620002c5600083018762000218565b620002d460408301866200028c565b620002e3606083018562000207565b620002f260808301846200029d565b95945050505050565b6000819050919050565b600060029050919050565b6000602082019050919050565b600081905092915050565b6000819050919050565b600073ffffffffffffffffffffffffffffffffffffffff82169050919050565b6000819050919050565b6000620003698262000370565b9050919050565b60006200037d8262000384565b9050919050565b6000620003918262000332565b9050919050565b6106cf80620003a86000396000f3fe608060405234801561001057600080fd5b50600436106100575760003560e01c80633477ee2e1461005c5780639b935abf1461008c578063cdf74c3e146100aa578063da58c7d9146100da578063f9ed80671461010c575b600080fd5b6100766004803603610071919081019061039d565b61013c565b6040516100839190610578565b60405180910390f35b610094610163565b6040516100a19190610534565b60405180910390f35b6100c460048036036100bf919081019061039d565b6101f1565b6040516100d19190610519565b60405180910390f35b6100f460048036036100ef919081019061039d565b61022d565b60405161010393929190610593565b60405180910390f35b6101266004803603610121919081019061039d565b610271565b6040516101339190610556565b60405180910390f35b6005818154811061014957fe5b906000526020600020016000915090508060000154905081565b606060068054806020026020016040519081016040528092919081815260200182805480156101e757602002820191906000526020600020905b8160009054906101000a900473ffffffffffffffffffffffffffffffffffffffff1673ffffffffffffffffffffffffffffffffffffffff168152602001906001019080831161019d575b5050505050905090565b600681815481106101fe57fe5b906000526020600020016000915054906101000a900473ffffffffffffffffffffffffffffffffffffffff1681565b6004818154811061023a57fe5b90600052602060002090600302016000915090508060000154908060010154908060020160009054906101000a900460ff16905083565b60608060036000848152602001908152602001600020546040519080825280602002602001820160405280156102c157816020015b6102ae610375565b8152602001906001900390816102a65790505b509050600080905060008090505b60058054905081101561036a578460026000600584815481106102ee57fe5b9060005260206000200160000154815260200190815260200160002054141561035d576005818154811061031e57fe5b9060005260206000200160405180602001604052908160008201548152505083838151811061034957fe5b602002602001018190525081806001019250505b80806001019150506102cf565b508192505050919050565b6040518060200160405280600081525090565b6000813590506103978161067e565b92915050565b6000602082840312156103af57600080fd5b60006103bd84828501610388565b91505092915050565b60006103d283836103f6565b60208301905092915050565b60006103ea83836104df565b60208301905092915050565b6103ff81610636565b82525050565b61040e81610636565b82525050565b600061041f826105e4565b6104298185610614565b9350610434836105ca565b8060005b8381101561046557815161044c88826103c6565b9750610457836105fa565b925050600181019050610438565b5085935050505092915050565b600061047d826105ef565b6104878185610625565b9350610492836105d7565b8060005b838110156104c35781516104aa88826103de565b97506104b583610607565b925050600181019050610496565b5085935050505092915050565b6104d981610648565b82525050565b6020820160008201516104f560008501826104fb565b50505050565b61050481610674565b82525050565b61051381610674565b82525050565b600060208201905061052e6000830184610405565b92915050565b6000602082019050818103600083015261054e8184610414565b905092915050565b600060208201905081810360008301526105708184610472565b905092915050565b600060208201905061058d600083018461050a565b92915050565b60006060820190506105a8600083018661050a565b6105b5602083018561050a565b6105c260408301846104d0565b949350505050565b6000602082019050919050565b6000602082019050919050565b600081519050919050565b600081519050919050565b6000602082019050919050565b6000602082019050919050565b600082825260208201905092915050565b600082825260208201905092915050565b600061064182610654565b9050919050565b60008115159050919050565b600073ffffffffffffffffffffffffffffffffffffffff82169050919050565b6000819050919050565b61068781610674565b811461069257600080fd5b5056fea265627a7a723058207f53f731c65c935662c9fccec2a83f626a2f82a3330894b1bd117ddb86b2dc996c6578706572696d656e74616cf5003760806040523480156200001157600080fd5b5060405160a080620009ae8339810180604052620000339190810190620001f4565b81600160006101000a81548173ffffffffffffffffffffffffffffffffffffffff021916908373ffffffffffffffffffffffffffffffffffffffff1602179055508260028190555060008090505b6002811015620001265760006040518060800160405280878460028110620000a557fe5b60200201518152602001600081526020014281526020018442018152509080600181540180825580915050906001820390600052602060002090600402016000909192909190915060008201518160000155602082015181600101556040820151816002015560608201518160030155505050808060010191505062000081565b505050505062000347565b6000815190506200014281620002f9565b92915050565b600082601f8301126200015a57600080fd5b6002620001716200016b826200028e565b62000260565b915081838560208402820111156200018857600080fd5b60005b83811015620001bc5781620001a18882620001c6565b8452602084019350602083019250506001810190506200018b565b5050505092915050565b600081519050620001d78162000313565b92915050565b600081519050620001ee816200032d565b92915050565b60008060008060a085870312156200020b57600080fd5b60006200021b8782880162000148565b94505060406200022e87828801620001c6565b9350506060620002418782880162000131565b92505060806200025487828801620001dd565b91505092959194509250565b6000604051905081810181811067ffffffffffffffff821117156200028457600080fd5b8060405250919050565b600067ffffffffffffffff821115620002a657600080fd5b602082029050919050565b6000620002be82620002cf565b9050919050565b6000819050919050565b600073ffffffffffffffffffffffffffffffffffffffff82169050919050565b6000819050919050565b6200030481620002b1565b81146200031057600080fd5b50565b6200031e81620002c5565b81146200032a57600080fd5b50565b6200033881620002ef565b81146200034457600080fd5b50565b61065780620003576000396000f3fe608060405234801561001057600080fd5b506004361061007d5760003560e01c8063716c424e1161005b578063716c424e146100ef578063a3ec138d1461010d578063b2c2f2e81461013d578063e13804a71461016d5761007d565b80630121b93f146100825780633477ee2e1461009e578063481c6a75146100d1575b600080fd5b61009c60048036036100979190810190610487565b61019d565b005b6100b860048036036100b39190810190610487565b6102a7565b6040516100c8949392919061053d565b60405180910390f35b6100d96102e4565b6040516100e691906104ec565b60405180910390f35b6100f761030a565b6040516101049190610522565b60405180910390f35b6101276004803603610122919081019061045e565b610310565b6040516101349190610507565b60405180910390f35b61015760048036036101529190810190610487565b610330565b6040516101649190610582565b60405180910390f35b61018760048036036101829190810190610487565b6103b2565b6040516101949190610522565b60405180910390f35b600360003373ffffffffffffffffffffffffffffffffffffffff1673ffffffffffffffffffffffffffffffffffffffff16815260200190815260200160002060009054906101000a900460ff16156101f457600080fd5b6000818154811061020157fe5b90600052602060002090600402016003015442111561021f57600080fd5b60016000828154811061022e57fe5b9060005260206000209060040201600101600082825401925050819055506001600360003373ffffffffffffffffffffffffffffffffffffffff1673ffffffffffffffffffffffffffffffffffffffff16815260200190815260200160002060006101000a81548160ff02191690831515021790555050565b600081815481106102b457fe5b90600052602060002090600402016000915090508060000154908060010154908060020154908060030154905084565b600160009054906101000a900473ffffffffffffffffffffffffffffffffffffffff1681565b60025481565b60036020528060005260406000206000915054906101000a900460ff1681565b6000600160009054906101000a900473ffffffffffffffffffffffffffffffffffffffff1673ffffffffffffffffffffffffffffffffffffffff163373ffffffffffffffffffffffffffffffffffffffff161461038c57600080fd5b6000828154811061039957fe5b9060005260206000209060040201600101549050919050565b6000600160009054906101000a900473ffffffffffffffffffffffffffffffffffffffff1673ffffffffffffffffffffffffffffffffffffffff163373ffffffffffffffffffffffffffffffffffffffff161461040e57600080fd5b6000828154811061041b57fe5b9060005260206000209060040201600001549050919050565b600081359050610443816105ef565b92915050565b60008135905061045881610606565b92915050565b60006020828403121561047057600080fd5b600061047e84828501610434565b91505092915050565b60006020828403121561049957600080fd5b60006104a784828501610449565b91505092915050565b6104b98161059d565b82525050565b6104c8816105af565b82525050565b6104d7816105bb565b82525050565b6104e6816105e5565b82525050565b600060208201905061050160008301846104b0565b92915050565b600060208201905061051c60008301846104bf565b92915050565b600060208201905061053760008301846104ce565b92915050565b600060808201905061055260008301876104ce565b61055f60208301866104dd565b61056c60408301856104dd565b61057960608301846104dd565b95945050505050565b600060208201905061059760008301846104dd565b92915050565b60006105a8826105c5565b9050919050565b60008115159050919050565b6000819050919050565b600073ffffffffffffffffffffffffffffffffffffffff82169050919050565b6000819050919050565b6105f88161059d565b811461060357600080fd5b50565b61060f816105e5565b811461061a57600080fd5b5056fea265627a7a72305820a63643d43a3d3fa26a01980bd0e9fb9c49067a96e2fff3f705df7e05b47752d26c6578706572696d656e74616cf50037",
  "source": "pragma solidity ^0.5.0;\npragma experimental ABIEncoderV2;\n\ncontract Election{\n\n  // event VoterCreated(uint256 _id, uint256 _voterId);\n\n  struct Vote {\n    bytes32 _voteId;\n    uint256 _votedId;\n    uint64 _voteTime;\n  }\n\n  struct Voter {\n    uint256 _id;\n    uint256 _constituencyId;\n    bool _hasVoted;\n  }\n\n  struct Candidate {\n    uint256 _id;\n  }\n\n  mapping(uint256 => Voter) private idToVoter;\n  mapping(bytes32 => uint256) private voteToCandidate;\n  mapping(uint256 => uint256) private candidateToConstituency;\n  mapping(uint256 => uint256) private constituencyCandidateCount;\n\n  Voter[] public voters;\n  Candidate[] public candidates;\n\n  function createVoter(uint256 _id, uint256 _voterId) private {\n    uint id = voters.push(Voter(_id, _voterId, false)) - 1;\n    idToVoter[_id] = voters[id];\n    // emit VoterCreated(_id, _voterId);\n  }\n\n  function assignCandidateToConstituency(uint256 _id, uint256 _constituencyId) private {\n    candidateToConstituency[_id] = _constituencyId;\n    constituencyCandidateCount[_constituencyId]++;\n  }\n\n  function getCandidatesByConstituency(uint256 _constituencyId) external view returns(Candidate[] memory) {\n    Candidate[] memory _candidates = new Candidate[](constituencyCandidateCount[_constituencyId]);\n    uint counter = 0;\n    for(uint i = 0; i < candidates.length; i++) {\n      if(candidateToConstituency[candidates[i]._id] == _constituencyId) {\n        _candidates[counter] = candidates[i];\n        counter++;\n      }\n    }\n\n    return _candidates;\n  }\n\n  address[] public deployedBallots;\n  // constructor (bytes32[] memory candidates, bytes32[] memory district, uint hour) public {\n  constructor () public {\n    bytes32[2] memory candidates = [bytes32(\"subh\"), bytes32(\"ammm\")];\n    bytes32[2] memory district = [bytes32(\"amithi\"), bytes32(\"raibareli\")];\n    uint hour = uint(1);\n    for(uint i = 0; i < district.length; i++){\n      address ballot = address(new Ballot(candidates,district[i], msg.sender, hour));\n      deployedBallots.push(ballot);\n    }\n  }\n  function getDeployedBallots() public view returns(address[] memory) {\n    return deployedBallots;\n  }\n}\n\ncontract Ballot {\n  struct Candidates {\n    bytes32 name;\n    uint voteCount;\n    uint creationDate;\n    uint expirationDate;\n  }\n  Candidates[] public candidates;\n  address public manager;\n  bytes32 public votingDistrict;\n  mapping(address => bool) public voters;\n  modifier restricted() {\n    require(msg.sender == manager);\n    _;\n  }\n  constructor (bytes32[2] memory candidateNames, bytes32 district, address creator, uint amountOfHours) public {\n    manager = creator;\n    votingDistrict = district;\n    for (uint i = 0; i < candidateNames.length; i++) {\n      candidates.push(Candidates({ name: candidateNames[i],\n                                   voteCount: 0,\n                                   creationDate: now,\n                                   expirationDate: now + amountOfHours\n      }));\n    }\n  }\n\n  function vote(uint candidate) public{\n    require(!voters[msg.sender]);\n    if(now > candidates[candidate].expirationDate){\n      revert();\n    }\n    candidates[candidate].voteCount += 1;\n    voters[msg.sender] = true;\n  }\n\n  function getCandidateName(uint index) public restricted view returns (bytes32) {\n    // require(now > candidates[candidate].expirationDate);\n    return candidates[index].name;\n  }\n  function getVoteCount(uint index) public restricted view returns (uint) {\n    // require(now > candidates[candidate].expirationDate);\n    return candidates[index].voteCount;\n  }\n}",
  "sourcePath": "/home/d3mon/Projects/sudo-rm--rf/contracts/Election.sol",
  "compiler": {
    "name": "solc",
    "version": "0.5.8+commit.23d335f2.Emscripten.clang"
  },
  "schemaVersion": "3.0.11",
  "updatedAt": "2019-07-26T07:40:09.838Z",
  "devdoc": {
    "methods": {}
  },
  "userdoc": {
    "methods": {}
  }
}