{
  "contractName": "Election",
  "abi": [
    {
      "constant": true,
      "inputs": [
        {
          "name": "",
          "type": "uint256"
        }
      ],
      "name": "candidateVoteCount",
      "outputs": [
        {
          "name": "",
          "type": "uint256"
        }
      ],
      "payable": false,
      "stateMutability": "view",
      "type": "function"
    },
    {
      "constant": true,
      "inputs": [
        {
          "name": "",
          "type": "uint256"
        }
      ],
      "name": "idToConstituency",
      "outputs": [
        {
          "name": "_id",
          "type": "uint256"
        },
        {
          "name": "_startTime",
          "type": "uint256"
        },
        {
          "name": "_duration",
          "type": "uint256"
        }
      ],
      "payable": false,
      "stateMutability": "view",
      "type": "function"
    },
    {
      "constant": true,
      "inputs": [
        {
          "name": "",
          "type": "uint256"
        }
      ],
      "name": "candidateToConstituency",
      "outputs": [
        {
          "name": "",
          "type": "uint256"
        }
      ],
      "payable": false,
      "stateMutability": "view",
      "type": "function"
    },
    {
      "constant": true,
      "inputs": [
        {
          "name": "",
          "type": "uint256"
        }
      ],
      "name": "admins",
      "outputs": [
        {
          "name": "",
          "type": "uint256"
        }
      ],
      "payable": false,
      "stateMutability": "view",
      "type": "function"
    },
    {
      "constant": true,
      "inputs": [
        {
          "name": "",
          "type": "uint256"
        }
      ],
      "name": "candidates",
      "outputs": [
        {
          "name": "_id",
          "type": "uint256"
        }
      ],
      "payable": false,
      "stateMutability": "view",
      "type": "function"
    },
    {
      "constant": true,
      "inputs": [
        {
          "name": "",
          "type": "uint256"
        }
      ],
      "name": "constituencyCandidateCount",
      "outputs": [
        {
          "name": "",
          "type": "uint256"
        }
      ],
      "payable": false,
      "stateMutability": "view",
      "type": "function"
    },
    {
      "constant": true,
      "inputs": [
        {
          "name": "",
          "type": "uint256"
        }
      ],
      "name": "voteToCandidate",
      "outputs": [
        {
          "name": "",
          "type": "uint256"
        }
      ],
      "payable": false,
      "stateMutability": "view",
      "type": "function"
    },
    {
      "constant": true,
      "inputs": [
        {
          "name": "",
          "type": "uint256"
        }
      ],
      "name": "idToCandidate",
      "outputs": [
        {
          "name": "_id",
          "type": "uint256"
        }
      ],
      "payable": false,
      "stateMutability": "view",
      "type": "function"
    },
    {
      "constant": false,
      "inputs": [],
      "name": "renounceOwnership",
      "outputs": [],
      "payable": false,
      "stateMutability": "nonpayable",
      "type": "function"
    },
    {
      "constant": true,
      "inputs": [],
      "name": "owner",
      "outputs": [
        {
          "name": "",
          "type": "address"
        }
      ],
      "payable": false,
      "stateMutability": "view",
      "type": "function"
    },
    {
      "constant": true,
      "inputs": [],
      "name": "isOwner",
      "outputs": [
        {
          "name": "",
          "type": "bool"
        }
      ],
      "payable": false,
      "stateMutability": "view",
      "type": "function"
    },
    {
      "constant": true,
      "inputs": [
        {
          "name": "",
          "type": "uint256"
        }
      ],
      "name": "constituencies",
      "outputs": [
        {
          "name": "_id",
          "type": "uint256"
        },
        {
          "name": "_startTime",
          "type": "uint256"
        },
        {
          "name": "_duration",
          "type": "uint256"
        }
      ],
      "payable": false,
      "stateMutability": "view",
      "type": "function"
    },
    {
      "constant": true,
      "inputs": [],
      "name": "ResultsDeclared",
      "outputs": [
        {
          "name": "",
          "type": "bool"
        }
      ],
      "payable": false,
      "stateMutability": "view",
      "type": "function"
    },
    {
      "constant": true,
      "inputs": [
        {
          "name": "",
          "type": "uint256"
        }
      ],
      "name": "voters",
      "outputs": [
        {
          "name": "_id",
          "type": "uint256"
        },
        {
          "name": "_constituencyId",
          "type": "uint256"
        },
        {
          "name": "_hasVoted",
          "type": "bool"
        },
        {
          "components": [
            {
              "name": "_voteId",
              "type": "uint256"
            },
            {
              "name": "_votedId",
              "type": "uint256"
            },
            {
              "name": "_voteTime",
              "type": "uint64"
            }
          ],
          "name": "_vote",
          "type": "tuple"
        }
      ],
      "payable": false,
      "stateMutability": "view",
      "type": "function"
    },
    {
      "constant": false,
      "inputs": [
        {
          "name": "newOwner",
          "type": "address"
        }
      ],
      "name": "transferOwnership",
      "outputs": [],
      "payable": false,
      "stateMutability": "nonpayable",
      "type": "function"
    },
    {
      "constant": true,
      "inputs": [
        {
          "name": "",
          "type": "uint256"
        }
      ],
      "name": "idToVoter",
      "outputs": [
        {
          "name": "_id",
          "type": "uint256"
        },
        {
          "name": "_constituencyId",
          "type": "uint256"
        },
        {
          "name": "_hasVoted",
          "type": "bool"
        },
        {
          "components": [
            {
              "name": "_voteId",
              "type": "uint256"
            },
            {
              "name": "_votedId",
              "type": "uint256"
            },
            {
              "name": "_voteTime",
              "type": "uint64"
            }
          ],
          "name": "_vote",
          "type": "tuple"
        }
      ],
      "payable": false,
      "stateMutability": "view",
      "type": "function"
    },
    {
      "inputs": [],
      "payable": false,
      "stateMutability": "nonpayable",
      "type": "constructor"
    },
    {
      "anonymous": false,
      "inputs": [
        {
          "indexed": false,
          "name": "_id",
          "type": "uint256"
        },
        {
          "indexed": false,
          "name": "_constituencyId",
          "type": "uint256"
        }
      ],
      "name": "VoterCreated",
      "type": "event"
    },
    {
      "anonymous": false,
      "inputs": [
        {
          "indexed": false,
          "name": "_id",
          "type": "uint256"
        }
      ],
      "name": "CandidateRegistered",
      "type": "event"
    },
    {
      "anonymous": false,
      "inputs": [
        {
          "indexed": false,
          "name": "_id",
          "type": "uint256"
        }
      ],
      "name": "ConstituencyRegistered",
      "type": "event"
    },
    {
      "anonymous": false,
      "inputs": [
        {
          "indexed": true,
          "name": "previousOwner",
          "type": "address"
        },
        {
          "indexed": true,
          "name": "newOwner",
          "type": "address"
        }
      ],
      "name": "OwnershipTransferred",
      "type": "event"
    },
    {
      "constant": false,
      "inputs": [
        {
          "name": "_id",
          "type": "uint256"
        },
        {
          "name": "_adminId",
          "type": "uint256"
        }
      ],
      "name": "registerCandidate",
      "outputs": [],
      "payable": false,
      "stateMutability": "nonpayable",
      "type": "function"
    },
    {
      "constant": false,
      "inputs": [
        {
          "name": "_id",
          "type": "uint256"
        },
        {
          "name": "_adminId",
          "type": "uint256"
        }
      ],
      "name": "registerConstituency",
      "outputs": [],
      "payable": false,
      "stateMutability": "nonpayable",
      "type": "function"
    },
    {
      "constant": false,
      "inputs": [
        {
          "name": "_id",
          "type": "uint256"
        }
      ],
      "name": "registerAdmin",
      "outputs": [],
      "payable": false,
      "stateMutability": "nonpayable",
      "type": "function"
    }
  ],
  "bytecode": "0x608060405260008060146101000a81548160ff02191690831515021790555034801561002a57600080fd5b50336000806101000a81548173ffffffffffffffffffffffffffffffffffffffff021916908373ffffffffffffffffffffffffffffffffffffffff1602179055506000809054906101000a900473ffffffffffffffffffffffffffffffffffffffff1673ffffffffffffffffffffffffffffffffffffffff16600073ffffffffffffffffffffffffffffffffffffffff167f8be0079c531659141344cd1fd0a4f28419497f9722a3daafe3b4186f6b6457e060405160405180910390a360008060146101000a81548160ff021916908315150217905550610f1a806101106000396000f3fe608060405260043610610107576000357c0100000000000000000000000000000000000000000000000000000000900463ffffffff16806301aa2e031461010c5780630f80dcb0146101495780631471e0ab1461018857806314bfd6d0146101c55780633477ee2e146102025780633acab52f1461023f5780633b04a6c91461026857806356be1658146102a557806357e2ef10146102e25780635d6e50521461031f578063715018a6146103485780638da5cb5b1461035f5780638f32d59b1461038a5780639209416a146103b557806394845254146103f4578063aa3e4e1c1461041d578063da58c7d914610448578063f2fde38b14610488578063f8c70571146104b1575b600080fd5b34801561011857600080fd5b50610133600480360361012e9190810190610cb8565b6104f1565b6040516101409190610dd1565b60405180910390f35b34801561015557600080fd5b50610170600480360361016b9190810190610cb8565b610509565b60405161017f93929190610e31565b60405180910390f35b34801561019457600080fd5b506101af60048036036101aa9190810190610cb8565b610533565b6040516101bc9190610dd1565b60405180910390f35b3480156101d157600080fd5b506101ec60048036036101e79190810190610cb8565b61054b565b6040516101f99190610dd1565b60405180910390f35b34801561020e57600080fd5b5061022960048036036102249190810190610cb8565b61056e565b6040516102369190610dd1565b60405180910390f35b34801561024b57600080fd5b5061026660048036036102619190810190610ce1565b610597565b005b34801561027457600080fd5b5061028f600480360361028a9190810190610cb8565b6106e5565b60405161029c9190610dd1565b60405180910390f35b3480156102b157600080fd5b506102cc60048036036102c79190810190610cb8565b6106fd565b6040516102d99190610dd1565b60405180910390f35b3480156102ee57600080fd5b5061030960048036036103049190810190610cb8565b610715565b6040516103169190610dd1565b60405180910390f35b34801561032b57600080fd5b5061034660048036036103419190810190610ce1565b610733565b005b34801561035457600080fd5b5061035d610843565b005b34801561036b57600080fd5b50610374610915565b6040516103819190610d9b565b60405180910390f35b34801561039657600080fd5b5061039f61093e565b6040516103ac9190610db6565b60405180910390f35b3480156103c157600080fd5b506103dc60048036036103d79190810190610cb8565b610995565b6040516103eb93929190610e31565b60405180910390f35b34801561040057600080fd5b5061041b60048036036104169190810190610cb8565b6109ce565b005b34801561042957600080fd5b50610432610a10565b60405161043f9190610db6565b60405180910390f35b34801561045457600080fd5b5061046f600480360361046a9190810190610cb8565b610a23565b60405161047f9493929190610dec565b60405180910390f35b34801561049457600080fd5b506104af60048036036104aa9190810190610c8f565b610ac0565b005b3480156104bd57600080fd5b506104d860048036036104d39190810190610cb8565b610adf565b6040516104e89493929190610dec565b60405180910390f35b60076020528060005260406000206000915090505481565b60036020528060005260406000206000915090508060000154908060010154908060020154905083565b60056020528060005260406000206000915090505481565b600b8181548110151561055a57fe5b906000526020600020016000915090505481565b60098181548110151561057d57fe5b906000526020600020016000915090508060000154905081565b8060008090505b600b805490508110156106df5781600b828154811015156105bb57fe5b906000526020600020015414156106cc5760006001600a606060405190810160405280888152602001600081526020016000815250908060018154018082558091505090600182039060005260206000209060030201600090919290919091506000820151816000015560208201518160010155604082015181600201555050039050600a8181548110151561064d57fe5b9060005260206000209060030201600360008781526020019081526020016000206000820154816000015560018201548160010155600282015481600201559050507f21db1a92fb8efb483c22a581ee7e282b6d79d9d43b559ee1affa341818867969856040516106be9190610dd1565b60405180910390a1506106d1565b6106d2565b5b808060010191505061059e565b50505050565b60066020528060005260406000206000915090505481565b60046020528060005260406000206000915090505481565b60026020528060005260406000206000915090508060000154905081565b8060008090505b600b8054905081101561083d5781600b8281548110151561075757fe5b9060005260206000200154141561082a57600060016009602060405190810160405280888152509080600181540180825580915050906001820390600052602060002001600090919290919091506000820151816000015550500390506009818154811015156107c357fe5b9060005260206000200160026000878152602001908152602001600020600082015481600001559050507f43dcee486fabffa2fb551555bfaa5bfcf6a42f2d014032ccef94bf09d83855eb8560405161081c9190610dd1565b60405180910390a15061082f565b610830565b5b808060010191505061073a565b50505050565b61084b61093e565b151561085657600080fd5b600073ffffffffffffffffffffffffffffffffffffffff166000809054906101000a900473ffffffffffffffffffffffffffffffffffffffff1673ffffffffffffffffffffffffffffffffffffffff167f8be0079c531659141344cd1fd0a4f28419497f9722a3daafe3b4186f6b6457e060405160405180910390a360008060006101000a81548173ffffffffffffffffffffffffffffffffffffffff021916908373ffffffffffffffffffffffffffffffffffffffff160217905550565b60008060009054906101000a900473ffffffffffffffffffffffffffffffffffffffff16905090565b60008060009054906101000a900473ffffffffffffffffffffffffffffffffffffffff1673ffffffffffffffffffffffffffffffffffffffff163373ffffffffffffffffffffffffffffffffffffffff1614905090565b600a818154811015156109a457fe5b90600052602060002090600302016000915090508060000154908060010154908060020154905083565b6109d661093e565b15156109e157600080fd5b600b81908060018154018082558091505090600182039060005260206000200160009091929091909150555050565b600060149054906101000a900460ff1681565b600881815481101515610a3257fe5b90600052602060002090600602016000915090508060000154908060010154908060020160009054906101000a900460ff1690806003016060604051908101604052908160008201548152602001600182015481526020016002820160009054906101000a900467ffffffffffffffff1667ffffffffffffffff1667ffffffffffffffff1681525050905084565b610ac861093e565b1515610ad357600080fd5b610adc81610b6d565b50565b60016020528060005260406000206000915090508060000154908060010154908060020160009054906101000a900460ff1690806003016060604051908101604052908160008201548152602001600182015481526020016002820160009054906101000a900467ffffffffffffffff1667ffffffffffffffff1667ffffffffffffffff1681525050905084565b600073ffffffffffffffffffffffffffffffffffffffff168173ffffffffffffffffffffffffffffffffffffffff1614151515610ba957600080fd5b8073ffffffffffffffffffffffffffffffffffffffff166000809054906101000a900473ffffffffffffffffffffffffffffffffffffffff1673ffffffffffffffffffffffffffffffffffffffff167f8be0079c531659141344cd1fd0a4f28419497f9722a3daafe3b4186f6b6457e060405160405180910390a3806000806101000a81548173ffffffffffffffffffffffffffffffffffffffff021916908373ffffffffffffffffffffffffffffffffffffffff16021790555050565b6000610c738235610ec4565b905092915050565b6000610c878235610ed6565b905092915050565b600060208284031215610ca157600080fd5b6000610caf84828501610c67565b91505092915050565b600060208284031215610cca57600080fd5b6000610cd884828501610c7b565b91505092915050565b60008060408385031215610cf457600080fd5b6000610d0285828601610c7b565b9250506020610d1385828601610c7b565b9150509250929050565b610d2681610e68565b82525050565b610d3581610e7a565b82525050565b606082016000820151610d516000850182610d7d565b506020820151610d646020850182610d7d565b506040820151610d776040850182610d8c565b50505050565b610d8681610ea6565b82525050565b610d9581610eb0565b82525050565b6000602082019050610db06000830184610d1d565b92915050565b6000602082019050610dcb6000830184610d2c565b92915050565b6000602082019050610de66000830184610d7d565b92915050565b600060c082019050610e016000830187610d7d565b610e0e6020830186610d7d565b610e1b6040830185610d2c565b610e286060830184610d3b565b95945050505050565b6000606082019050610e466000830186610d7d565b610e536020830185610d7d565b610e606040830184610d7d565b949350505050565b6000610e7382610e86565b9050919050565b60008115159050919050565b600073ffffffffffffffffffffffffffffffffffffffff82169050919050565b6000819050919050565b600067ffffffffffffffff82169050919050565b6000610ecf82610e86565b9050919050565b600081905091905056fea265627a7a723058202301532ff7b93b94a3b065338a7d827d20b0eba21192ebc7b2a6925116d230126c6578706572696d656e74616cf50037",
  "source": "pragma solidity ^0.5.0;\npragma experimental ABIEncoderV2;\nimport './Ownable.sol';\n\ncontract Election is Ownable{\n  bool public ResultsDeclared = false;\n\n  event VoterCreated(uint256 _id, uint256 _constituencyId);\n  event CandidateRegistered(uint256 _id);\n  event ConstituencyRegistered(uint256 _id);\n\n  struct Vote {\n    uint256 _voteId;\n    uint256 _votedId;\n    uint64 _voteTime;\n  }\n\n  struct Voter {\n    uint256 _id;\n    uint256 _constituencyId;\n    bool _hasVoted;\n    Vote _vote;\n  }\n\n  struct Candidate {\n    uint256 _id;\n  }\n\n  struct Constituency {\n    uint256 _id;\n    uint256 _startTime;\n    uint256 _duration;\n  }\n\n  mapping(uint256 => Voter) public idToVoter;\n  mapping(uint256 => Candidate) public idToCandidate;\n  mapping(uint256 => Constituency) public idToConstituency;\n  mapping(uint256 => uint256) public voteToCandidate;\n  mapping(uint256 => uint256) public candidateToConstituency;\n  mapping(uint256 => uint256) public constituencyCandidateCount;\n  mapping(uint256 => uint256) public candidateVoteCount;\n\n  Voter[] public voters;\n  Candidate[] public candidates;\n  Constituency[] public constituencies;\n  uint256[] public admins;\n\n  modifier onlyUser(uint256 _id) {\n    require(idToVoter[_id]._id != 0);\n    _;\n  }\n\n  modifier onlyAdmin(uint256 _id) {\n    for(uint i = 0; i < admins.length; i++) {\n      if(admins[i] == _id) {\n        _;\n        }\n      else {\n        continue;\n      }\n    }\n  }\n\n  modifier declaredResults() {\n    require(ResultsDeclared == true);\n    _;\n  }\n\n  constructor() public {\n    ResultsDeclared = false;\n  }\n\n  function initializeVote(uint256 _id) internal returns(Vote memory) {\n    Vote memory vote = Vote(_id,0,0);\n    return vote;\n  }\n\n  function createVoter(uint256 _id, uint256 _constituencyId) internal {\n    Vote memory vote = initializeVote(_id);\n    uint id = voters.push(Voter(_id, _constituencyId, false, vote)) - 1;\n    idToVoter[_id] = voters[id];\n    emit VoterCreated(_id, _constituencyId);\n  }\n\n  function registerCandidate(uint256 _id, uint256 _adminId) external onlyAdmin(_adminId) {\n    uint id = candidates.push(Candidate(_id)) - 1;\n    idToCandidate[_id] = candidates[id];\n    emit CandidateRegistered(_id);\n  }\n\n  function registerConstituency(uint256 _id, uint256 _adminId) external onlyAdmin(_adminId) {\n    uint id = constituencies.push(Constituency(_id, 0, 0)) - 1;\n    idToConstituency[_id] = constituencies[id];\n    emit ConstituencyRegistered(_id);\n  }\n\n  function registerAdmin(uint256 _id) external onlyOwner {\n    admins.push(_id);\n  }\n\n}",
  "sourcePath": "/home/d3mon/Projects/sudo-rm--rf/contracts/Election.sol",
  "compiler": {
    "name": "solc",
    "version": "0.5.0+commit.1d4f565a.Emscripten.clang"
  },
  "schemaVersion": "3.0.2",
  "updatedAt": "2020-01-25T17:50:33.271Z",
  "devdoc": {
    "methods": {
      "isOwner()": {
        "return": "true if `msg.sender` is the owner of the contract."
      },
      "owner()": {
        "return": "the address of the owner."
      },
      "renounceOwnership()": {
        "details": "Allows the current owner to relinquish control of the contract."
      },
      "transferOwnership(address)": {
        "details": "Allows the current owner to transfer control of the contract to a newOwner.",
        "params": {
          "newOwner": "The address to transfer ownership to."
        }
      }
    }
  },
  "userdoc": {
    "methods": {
      "renounceOwnership()": {
        "notice": "Renouncing to ownership will leave the contract without an owner. It will not be possible to call the functions with the `onlyOwner` modifier anymore."
      }
    }
  }
}