{
  "contractName": "ElectionHelper",
  "abi": [
    {
      "constant": true,
      "inputs": [
        {
          "name": "",
          "type": "uint256"
        }
      ],
      "name": "candidateVoteCount",
      "outputs": [
        {
          "name": "",
          "type": "uint256"
        }
      ],
      "payable": false,
      "stateMutability": "view",
      "type": "function"
    },
    {
      "constant": true,
      "inputs": [
        {
          "name": "",
          "type": "uint256"
        }
      ],
      "name": "idToConstituency",
      "outputs": [
        {
          "name": "_id",
          "type": "uint256"
        },
        {
          "name": "_startTime",
          "type": "uint256"
        },
        {
          "name": "_duration",
          "type": "uint256"
        }
      ],
      "payable": false,
      "stateMutability": "view",
      "type": "function"
    },
    {
      "constant": false,
      "inputs": [
        {
          "name": "_id",
          "type": "uint256"
        },
        {
          "name": "_constituencyId",
          "type": "uint256"
        },
        {
          "name": "_adminId",
          "type": "uint256"
        }
      ],
      "name": "assignCandidateToConstituency",
      "outputs": [],
      "payable": false,
      "stateMutability": "nonpayable",
      "type": "function"
    },
    {
      "constant": true,
      "inputs": [
        {
          "name": "",
          "type": "uint256"
        }
      ],
      "name": "candidateToConstituency",
      "outputs": [
        {
          "name": "",
          "type": "uint256"
        }
      ],
      "payable": false,
      "stateMutability": "view",
      "type": "function"
    },
    {
      "constant": true,
      "inputs": [
        {
          "name": "",
          "type": "uint256"
        }
      ],
      "name": "admins",
      "outputs": [
        {
          "name": "",
          "type": "uint256"
        }
      ],
      "payable": false,
      "stateMutability": "view",
      "type": "function"
    },
    {
      "constant": true,
      "inputs": [
        {
          "name": "",
          "type": "uint256"
        }
      ],
      "name": "candidates",
      "outputs": [
        {
          "name": "_id",
          "type": "uint256"
        }
      ],
      "payable": false,
      "stateMutability": "view",
      "type": "function"
    },
    {
      "constant": true,
      "inputs": [
        {
          "name": "",
          "type": "uint256"
        }
      ],
      "name": "constituencyCandidateCount",
      "outputs": [
        {
          "name": "",
          "type": "uint256"
        }
      ],
      "payable": false,
      "stateMutability": "view",
      "type": "function"
    },
    {
      "constant": true,
      "inputs": [
        {
          "name": "",
          "type": "uint256"
        }
      ],
      "name": "voteToCandidate",
      "outputs": [
        {
          "name": "",
          "type": "uint256"
        }
      ],
      "payable": false,
      "stateMutability": "view",
      "type": "function"
    },
    {
      "constant": true,
      "inputs": [
        {
          "name": "",
          "type": "uint256"
        }
      ],
      "name": "idToCandidate",
      "outputs": [
        {
          "name": "_id",
          "type": "uint256"
        }
      ],
      "payable": false,
      "stateMutability": "view",
      "type": "function"
    },
    {
      "constant": false,
      "inputs": [],
      "name": "renounceOwnership",
      "outputs": [],
      "payable": false,
      "stateMutability": "nonpayable",
      "type": "function"
    },
    {
      "constant": false,
      "inputs": [
        {
          "name": "_constituencies",
          "type": "uint256[]"
        },
        {
          "name": "_adminId",
          "type": "uint256"
        }
      ],
      "name": "registerConstituencies",
      "outputs": [],
      "payable": false,
      "stateMutability": "nonpayable",
      "type": "function"
    },
    {
      "constant": true,
      "inputs": [],
      "name": "owner",
      "outputs": [
        {
          "name": "",
          "type": "address"
        }
      ],
      "payable": false,
      "stateMutability": "view",
      "type": "function"
    },
    {
      "constant": true,
      "inputs": [],
      "name": "isOwner",
      "outputs": [
        {
          "name": "",
          "type": "bool"
        }
      ],
      "payable": false,
      "stateMutability": "view",
      "type": "function"
    },
    {
      "constant": true,
      "inputs": [
        {
          "name": "",
          "type": "uint256"
        }
      ],
      "name": "constituencies",
      "outputs": [
        {
          "name": "_id",
          "type": "uint256"
        },
        {
          "name": "_startTime",
          "type": "uint256"
        },
        {
          "name": "_duration",
          "type": "uint256"
        }
      ],
      "payable": false,
      "stateMutability": "view",
      "type": "function"
    },
    {
      "constant": false,
      "inputs": [
        {
          "name": "_id",
          "type": "uint256"
        }
      ],
      "name": "registerAdmin",
      "outputs": [],
      "payable": false,
      "stateMutability": "nonpayable",
      "type": "function"
    },
    {
      "constant": true,
      "inputs": [],
      "name": "ResultsDeclared",
      "outputs": [
        {
          "name": "",
          "type": "bool"
        }
      ],
      "payable": false,
      "stateMutability": "view",
      "type": "function"
    },
    {
      "constant": true,
      "inputs": [
        {
          "name": "",
          "type": "uint256"
        }
      ],
      "name": "constituencyVoterCount",
      "outputs": [
        {
          "name": "",
          "type": "uint256"
        }
      ],
      "payable": false,
      "stateMutability": "view",
      "type": "function"
    },
    {
      "constant": true,
      "inputs": [
        {
          "name": "",
          "type": "uint256"
        }
      ],
      "name": "voters",
      "outputs": [
        {
          "name": "_id",
          "type": "uint256"
        },
        {
          "name": "_constituencyId",
          "type": "uint256"
        },
        {
          "name": "_hasVoted",
          "type": "bool"
        },
        {
          "name": "_voteTime",
          "type": "uint256"
        },
        {
          "components": [
            {
              "name": "_voteId",
              "type": "uint256"
            }
          ],
          "name": "_vote",
          "type": "tuple"
        }
      ],
      "payable": false,
      "stateMutability": "view",
      "type": "function"
    },
    {
      "constant": false,
      "inputs": [
        {
          "name": "newOwner",
          "type": "address"
        }
      ],
      "name": "transferOwnership",
      "outputs": [],
      "payable": false,
      "stateMutability": "nonpayable",
      "type": "function"
    },
    {
      "constant": true,
      "inputs": [
        {
          "name": "",
          "type": "uint256"
        }
      ],
      "name": "idToVoter",
      "outputs": [
        {
          "name": "_id",
          "type": "uint256"
        },
        {
          "name": "_constituencyId",
          "type": "uint256"
        },
        {
          "name": "_hasVoted",
          "type": "bool"
        },
        {
          "name": "_voteTime",
          "type": "uint256"
        },
        {
          "components": [
            {
              "name": "_voteId",
              "type": "uint256"
            }
          ],
          "name": "_vote",
          "type": "tuple"
        }
      ],
      "payable": false,
      "stateMutability": "view",
      "type": "function"
    },
    {
      "anonymous": false,
      "inputs": [
        {
          "indexed": false,
          "name": "_id",
          "type": "uint256"
        },
        {
          "indexed": false,
          "name": "_constituencyId",
          "type": "uint256"
        }
      ],
      "name": "VoterCreated",
      "type": "event"
    },
    {
      "anonymous": false,
      "inputs": [
        {
          "indexed": false,
          "name": "_id",
          "type": "uint256"
        }
      ],
      "name": "CandidateRegistered",
      "type": "event"
    },
    {
      "anonymous": false,
      "inputs": [
        {
          "indexed": false,
          "name": "_id",
          "type": "uint256"
        }
      ],
      "name": "ConstituencyRegistered",
      "type": "event"
    },
    {
      "anonymous": false,
      "inputs": [
        {
          "indexed": true,
          "name": "previousOwner",
          "type": "address"
        },
        {
          "indexed": true,
          "name": "newOwner",
          "type": "address"
        }
      ],
      "name": "OwnershipTransferred",
      "type": "event"
    },
    {
      "constant": false,
      "inputs": [
        {
          "name": "_adminId",
          "type": "uint256"
        }
      ],
      "name": "getConstituencies",
      "outputs": [
        {
          "components": [
            {
              "name": "_id",
              "type": "uint256"
            },
            {
              "name": "_startTime",
              "type": "uint256"
            },
            {
              "name": "_duration",
              "type": "uint256"
            }
          ],
          "name": "",
          "type": "tuple[]"
        }
      ],
      "payable": false,
      "stateMutability": "nonpayable",
      "type": "function"
    },
    {
      "constant": false,
      "inputs": [
        {
          "name": "_id",
          "type": "uint256"
        },
        {
          "name": "_duration",
          "type": "uint256"
        },
        {
          "name": "_adminId",
          "type": "uint256"
        }
      ],
      "name": "generateElectionforConstituency",
      "outputs": [],
      "payable": false,
      "stateMutability": "nonpayable",
      "type": "function"
    },
    {
      "constant": false,
      "inputs": [
        {
          "name": "_id",
          "type": "uint256"
        },
        {
          "name": "_userId",
          "type": "uint256"
        }
      ],
      "name": "getConstituencyDetails",
      "outputs": [
        {
          "components": [
            {
              "name": "_id",
              "type": "uint256"
            },
            {
              "name": "_startTime",
              "type": "uint256"
            },
            {
              "name": "_duration",
              "type": "uint256"
            }
          ],
          "name": "",
          "type": "tuple"
        }
      ],
      "payable": false,
      "stateMutability": "nonpayable",
      "type": "function"
    },
    {
      "constant": true,
      "inputs": [
        {
          "name": "_constituencyId",
          "type": "uint256"
        },
        {
          "name": "_userId",
          "type": "uint256"
        }
      ],
      "name": "getCandidatesByConstituency",
      "outputs": [
        {
          "components": [
            {
              "name": "_id",
              "type": "uint256"
            }
          ],
          "name": "",
          "type": "tuple[]"
        }
      ],
      "payable": false,
      "stateMutability": "view",
      "type": "function"
    }
  ],
  "bytecode": "0x608060405260008060146101000a81548160ff021916908315150217905550336000806101000a81548173ffffffffffffffffffffffffffffffffffffffff021916908373ffffffffffffffffffffffffffffffffffffffff1602179055506000809054906101000a900473ffffffffffffffffffffffffffffffffffffffff1673ffffffffffffffffffffffffffffffffffffffff16600073ffffffffffffffffffffffffffffffffffffffff167f8be0079c531659141344cd1fd0a4f28419497f9722a3daafe3b4186f6b6457e060405160405180910390a360008060146101000a81548160ff0219169083151502179055506117ba806101036000396000f3fe60806040526004361061013e576000357c0100000000000000000000000000000000000000000000000000000000900463ffffffff16806301aa2e03146101435780630f80dcb01461018057806312d51c72146101bf5780631471e0ab146101e857806314bfd6d01461022557806328975210146102625780632fd23a3f1461029f5780633477ee2e146102dc5780633b04a6c91461031957806356be16581461035657806357e2ef1014610393578063715018a6146103d05780637b013b94146103e75780638da5cb5b146104105780638f32d59b1461043b5780639209416a1461046657806394845254146104a5578063aa3e4e1c146104ce578063b9a285de146104f9578063bbc893a314610536578063da58c7d914610573578063f2fde38b146105b4578063f7590065146105dd578063f8c7057114610606575b600080fd5b34801561014f57600080fd5b5061016a60048036036101659190810190611345565b610647565b604051610177919061162d565b60405180910390f35b34801561018c57600080fd5b506101a760048036036101a29190810190611345565b61065f565b6040516101b69392919061169b565b60405180910390f35b3480156101cb57600080fd5b506101e660048036036101e191908101906113aa565b610689565b005b3480156101f457600080fd5b5061020f600480360361020a9190810190611345565b610722565b60405161021c919061162d565b60405180910390f35b34801561023157600080fd5b5061024c60048036036102479190810190611345565b61073a565b604051610259919061162d565b60405180910390f35b34801561026e57600080fd5b5061028960048036036102849190810190611345565b61075d565b60405161029691906115d5565b60405180910390f35b3480156102ab57600080fd5b506102c660048036036102c1919081019061136e565b61088c565b6040516102d39190611612565b60405180910390f35b3480156102e857600080fd5b5061030360048036036102fe9190810190611345565b61090d565b604051610310919061162d565b60405180910390f35b34801561032557600080fd5b50610340600480360361033b9190810190611345565b610936565b60405161034d919061162d565b60405180910390f35b34801561036257600080fd5b5061037d60048036036103789190810190611345565b61094e565b60405161038a919061162d565b60405180910390f35b34801561039f57600080fd5b506103ba60048036036103b59190810190611345565b610966565b6040516103c7919061162d565b60405180910390f35b3480156103dc57600080fd5b506103e5610984565b005b3480156103f357600080fd5b5061040e600480360361040991908101906112ed565b610a56565b005b34801561041c57600080fd5b50610425610ae7565b6040516104329190611598565b60405180910390f35b34801561044757600080fd5b50610450610b10565b60405161045d91906115f7565b60405180910390f35b34801561047257600080fd5b5061048d60048036036104889190810190611345565b610b67565b60405161049c9392919061169b565b60405180910390f35b3480156104b157600080fd5b506104cc60048036036104c79190810190611345565b610ba0565b005b3480156104da57600080fd5b506104e3610be2565b6040516104f091906115f7565b60405180910390f35b34801561050557600080fd5b50610520600480360361051b9190810190611345565b610bf5565b60405161052d919061162d565b60405180910390f35b34801561054257600080fd5b5061055d6004803603610558919081019061136e565b610c0d565b60405161056a91906115b3565b60405180910390f35b34801561057f57600080fd5b5061059a60048036036105959190810190611345565b610d44565b6040516105ab959493929190611648565b60405180910390f35b3480156105c057600080fd5b506105db60048036036105d691908101906112c4565b610dab565b005b3480156105e957600080fd5b5061060460048036036105ff91908101906113aa565b610dca565b005b34801561061257600080fd5b5061062d60048036036106289190810190611345565b610e48565b60405161063e959493929190611648565b60405180910390f35b60086020528060005260406000206000915090505481565b60036020528060005260406000206000915090508060000154908060010154908060020154905083565b8060008090505b600c8054905081101561071b5781600c828154811015156106ad57fe5b90600052602060002001541415610708576106c88584610ea0565b836005600087815260200190815260200160002081905550600660008581526020019081526020016000206000815480929190600101919050555061070d565b61070e565b5b8080600101915050610690565b5050505050565b60056020528060005260406000206000915090505481565b600c8181548110151561074957fe5b906000526020600020016000915090505481565b60608160008090505b600c805490508110156108855781600c8281548110151561078357fe5b90600052602060002001541415610872576060600b805490506040519080825280602002602001820160405280156107d557816020015b6107c26111f8565b8152602001906001900390816107ba5790505b509050600080905060008090505b600b8054905081101561086757600b818154811015156107ff57fe5b9060005260206000209060030201606060405190810160405290816000820154815260200160018201548152602001600282015481525050838381518110151561084557fe5b90602001906020020181905250818060010192505080806001019150506107e3565b508194505050610877565b610878565b5b8080600101915050610766565b5050919050565b61089461121a565b8160006001600083815260200190815260200160002060000154141515156108bb57600080fd5b6108c361121a565b600360008681526020019081526020016000206060604051908101604052908160008201548152602001600182015481526020016002820154815250509050809250505092915050565b600a8181548110151561091c57fe5b906000526020600020016000915090508060000154905081565b60066020528060005260406000206000915090505481565b60046020528060005260406000206000915090505481565b60026020528060005260406000206000915090508060000154905081565b61098c610b10565b151561099757600080fd5b600073ffffffffffffffffffffffffffffffffffffffff166000809054906101000a900473ffffffffffffffffffffffffffffffffffffffff1673ffffffffffffffffffffffffffffffffffffffff167f8be0079c531659141344cd1fd0a4f28419497f9722a3daafe3b4186f6b6457e060405160405180910390a360008060006101000a81548173ffffffffffffffffffffffffffffffffffffffff021916908373ffffffffffffffffffffffffffffffffffffffff160217905550565b8060008090505b600c80549050811015610ae05781600c82815481101515610a7a57fe5b90600052602060002001541415610acd5760008090505b85859050811015610ac757610aba8686838181101515610aad57fe5b9050602002013585610fb0565b8080600101915050610a91565b50610ad2565b610ad3565b5b8080600101915050610a5d565b5050505050565b60008060009054906101000a900473ffffffffffffffffffffffffffffffffffffffff16905090565b60008060009054906101000a900473ffffffffffffffffffffffffffffffffffffffff1673ffffffffffffffffffffffffffffffffffffffff163373ffffffffffffffffffffffffffffffffffffffff1614905090565b600b81815481101515610b7657fe5b90600052602060002090600302016000915090508060000154908060010154908060020154905083565b610ba8610b10565b1515610bb357600080fd5b600c81908060018154018082558091505090600182039060005260206000200160009091929091909150555050565b600060149054906101000a900460ff1681565b60076020528060005260406000206000915090505481565b6060816000600160008381526020019081526020016000206000015414151515610c3657600080fd5b60606006600086815260200190815260200160002054604051908082528060200260200182016040528015610c8557816020015b610c7261123c565b815260200190600190039081610c6a5790505b509050600080905060008090505b600a80549050811015610d37578660056000600a84815481101515610cb457fe5b90600052602060002001600001548152602001908152602001600020541415610d2a57600a81815481101515610ce657fe5b90600052602060002001602060405190810160405290816000820154815250508383815181101515610d1457fe5b9060200190602002018190525081806001019250505b8080600101915050610c93565b5081935050505092915050565b600981815481101515610d5357fe5b90600052602060002090600502016000915090508060000154908060010154908060020160009054906101000a900460ff16908060030154908060040160206040519081016040529081600082015481525050905085565b610db3610b10565b1515610dbe57600080fd5b610dc7816110fe565b50565b8060008090505b600c80549050811015610e415781600c82815481101515610dee57fe5b90600052602060002001541415610e2e57600060036000878152602001908152602001600020905042816001018190555084816002018190555050610e33565b610e34565b5b8080600101915050610dd1565b5050505050565b60016020528060005260406000206000915090508060000154908060010154908060020160009054906101000a900460ff16908060030154908060040160206040519081016040529081600082015481525050905085565b8060008090505b600c80549050811015610faa5781600c82815481101515610ec457fe5b90600052602060002001541415610f975760006001600a60206040519081016040528088815250908060018154018082558091505090600182039060005260206000200160009091929091909150600082015181600001555050039050600a81815481101515610f3057fe5b9060005260206000200160026000878152602001908152602001600020600082015481600001559050507f43dcee486fabffa2fb551555bfaa5bfcf6a42f2d014032ccef94bf09d83855eb85604051610f89919061162d565b60405180910390a150610f9c565b610f9d565b5b8080600101915050610ea7565b50505050565b8060008090505b600c805490508110156110f85781600c82815481101515610fd457fe5b906000526020600020015414156110e55760006001600b606060405190810160405280888152602001600081526020016000815250908060018154018082558091505090600182039060005260206000209060030201600090919290919091506000820151816000015560208201518160010155604082015181600201555050039050600b8181548110151561106657fe5b9060005260206000209060030201600360008781526020019081526020016000206000820154816000015560018201548160010155600282015481600201559050507f21db1a92fb8efb483c22a581ee7e282b6d79d9d43b559ee1affa341818867969856040516110d7919061162d565b60405180910390a1506110ea565b6110eb565b5b8080600101915050610fb7565b50505050565b600073ffffffffffffffffffffffffffffffffffffffff168173ffffffffffffffffffffffffffffffffffffffff161415151561113a57600080fd5b8073ffffffffffffffffffffffffffffffffffffffff166000809054906101000a900473ffffffffffffffffffffffffffffffffffffffff1673ffffffffffffffffffffffffffffffffffffffff167f8be0079c531659141344cd1fd0a4f28419497f9722a3daafe3b4186f6b6457e060405160405180910390a3806000806101000a81548173ffffffffffffffffffffffffffffffffffffffff021916908373ffffffffffffffffffffffffffffffffffffffff16021790555050565b6060604051908101604052806000815260200160008152602001600081525090565b6060604051908101604052806000815260200160008152602001600081525090565b602060405190810160405280600081525090565b600061125c8235611764565b905092915050565b60008083601f840112151561127857600080fd5b8235905067ffffffffffffffff81111561129157600080fd5b6020830191508360208202830111156112a957600080fd5b9250929050565b60006112bc8235611776565b905092915050565b6000602082840312156112d657600080fd5b60006112e484828501611250565b91505092915050565b60008060006040848603121561130257600080fd5b600084013567ffffffffffffffff81111561131c57600080fd5b61132886828701611264565b9350935050602061133b868287016112b0565b9150509250925092565b60006020828403121561135757600080fd5b6000611365848285016112b0565b91505092915050565b6000806040838503121561138157600080fd5b600061138f858286016112b0565b92505060206113a0858286016112b0565b9150509250929050565b6000806000606084860312156113bf57600080fd5b60006113cd868287016112b0565b93505060206113de868287016112b0565b92505060406113ef868287016112b0565b9150509250925092565b6114028161171c565b82525050565b6000611413826116ec565b808452602084019350611425836116d2565b60005b828110156114575761143b8683516114cd565b61144482611702565b9150602086019550600181019050611428565b50849250505092915050565b600061146e826116f7565b808452602084019350611480836116df565b60005b828110156114b25761149686835161152b565b61149f8261170f565b9150606086019550600181019050611483565b50849250505092915050565b6114c78161172e565b82525050565b6020820160008201516114e36000850182611589565b50505050565b6060820160008201516114ff6000850182611589565b5060208201516115126020850182611589565b5060408201516115256040850182611589565b50505050565b6060820160008201516115416000850182611589565b5060208201516115546020850182611589565b5060408201516115676040850182611589565b50505050565b6020820160008201516115836000850182611589565b50505050565b6115928161175a565b82525050565b60006020820190506115ad60008301846113f9565b92915050565b600060208201905081810360008301526115cd8184611408565b905092915050565b600060208201905081810360008301526115ef8184611463565b905092915050565b600060208201905061160c60008301846114be565b92915050565b600060608201905061162760008301846114e9565b92915050565b60006020820190506116426000830184611589565b92915050565b600060a08201905061165d6000830188611589565b61166a6020830187611589565b61167760408301866114be565b6116846060830185611589565b611691608083018461156d565b9695505050505050565b60006060820190506116b06000830186611589565b6116bd6020830185611589565b6116ca6040830184611589565b949350505050565b6000602082019050919050565b6000602082019050919050565b600081519050919050565b600081519050919050565b6000602082019050919050565b6000602082019050919050565b60006117278261173a565b9050919050565b60008115159050919050565b600073ffffffffffffffffffffffffffffffffffffffff82169050919050565b6000819050919050565b600061176f8261173a565b9050919050565b600081905091905056fea265627a7a723058200cbe38856885be01e2f639812411cdfeb70aa72eeef340a0de866431740b400b6c6578706572696d656e74616cf50037",
  "source": "pragma solidity ^0.5.0;\npragma experimental ABIEncoderV2;\nimport \"./Election.sol\";\n\ncontract ElectionHelper is Election {\n\n    function getConstituencies(uint256 _adminId) external onlyAdmin(_adminId) returns(Constituency[] memory) {\n        Constituency[] memory _constituencies = new Constituency[](constituencies.length);\n        uint counter = 0;\n        for(uint i = 0; i < constituencies.length; i++) {\n            _constituencies[counter] = constituencies[i];\n            counter++;\n        }\n        return _constituencies;\n    }\n\n    function generateElectionforConstituency(uint256 _id, uint256 _duration, uint256 _adminId) external onlyAdmin(_adminId) {\n        Constituency storage _constituency = idToConstituency[_id];\n        _constituency._startTime = block.timestamp;\n        _constituency._duration = _duration;\n    }\n\n    function getConstituencyDetails(uint256 _id, uint256 _userId) external onlyUser(_userId) returns(Constituency memory) {\n        Constituency memory _constituency = idToConstituency[_id];\n        return _constituency;\n    }\n\n    function getCandidatesByConstituency(uint256 _constituencyId, uint256 _userId) public view onlyUser(_userId) returns(Candidate[] memory) {\n        Candidate[] memory _candidates = new Candidate[](constituencyCandidateCount[_constituencyId]);\n        uint counter = 0;\n        for(uint i = 0; i < candidates.length; i++) {\n            if(candidateToConstituency[candidates[i]._id] == _constituencyId) {\n            _candidates[counter] = candidates[i];\n            counter++;\n        }\n    }\n        return _candidates;\n    }\n}",
  "sourcePath": "/home/d3mon/Projects/sudo-rm--rf/contracts/ElectionHelper.sol",
  "compiler": {
    "name": "solc",
    "version": "0.5.0+commit.1d4f565a.Emscripten.clang"
  },
  "schemaVersion": "3.0.2",
  "updatedAt": "2020-02-06T16:35:32.880Z",
  "devdoc": {
    "methods": {
      "isOwner()": {
        "return": "true if `msg.sender` is the owner of the contract."
      },
      "owner()": {
        "return": "the address of the owner."
      },
      "renounceOwnership()": {
        "details": "Allows the current owner to relinquish control of the contract."
      },
      "transferOwnership(address)": {
        "details": "Allows the current owner to transfer control of the contract to a newOwner.",
        "params": {
          "newOwner": "The address to transfer ownership to."
        }
      }
    }
  },
  "userdoc": {
    "methods": {
      "renounceOwnership()": {
        "notice": "Renouncing to ownership will leave the contract without an owner. It will not be possible to call the functions with the `onlyOwner` modifier anymore."
      }
    }
  }
}