{
  "contractName": "ElectionHelper",
  "abi": [
    {
      "constant": false,
      "inputs": [
        {
          "name": "_id",
          "type": "uint256"
        }
      ],
      "name": "registerCandidate",
      "outputs": [],
      "payable": false,
      "stateMutability": "nonpayable",
      "type": "function"
    },
    {
      "constant": false,
      "inputs": [
        {
          "name": "_id",
          "type": "uint256"
        }
      ],
      "name": "registerConstituency",
      "outputs": [],
      "payable": false,
      "stateMutability": "nonpayable",
      "type": "function"
    },
    {
      "constant": true,
      "inputs": [
        {
          "name": "",
          "type": "uint256"
        }
      ],
      "name": "candidates",
      "outputs": [
        {
          "name": "_id",
          "type": "uint256"
        }
      ],
      "payable": false,
      "stateMutability": "view",
      "type": "function"
    },
    {
      "constant": true,
      "inputs": [
        {
          "name": "",
          "type": "uint256"
        }
      ],
      "name": "constituencies",
      "outputs": [
        {
          "name": "_id",
          "type": "uint256"
        },
        {
          "name": "_startTime",
          "type": "uint256"
        },
        {
          "name": "_duration",
          "type": "uint256"
        }
      ],
      "payable": false,
      "stateMutability": "view",
      "type": "function"
    },
    {
      "constant": true,
      "inputs": [
        {
          "name": "",
          "type": "uint256"
        }
      ],
      "name": "voters",
      "outputs": [
        {
          "name": "_id",
          "type": "uint256"
        },
        {
          "name": "_constituencyId",
          "type": "uint256"
        },
        {
          "name": "_hasVoted",
          "type": "bool"
        },
        {
          "components": [
            {
              "name": "_voteId",
              "type": "bytes32"
            },
            {
              "name": "_votedId",
              "type": "uint256"
            },
            {
              "name": "_voteTime",
              "type": "uint64"
            }
          ],
          "name": "_vote",
          "type": "tuple"
        }
      ],
      "payable": false,
      "stateMutability": "view",
      "type": "function"
    },
    {
      "anonymous": false,
      "inputs": [
        {
          "indexed": false,
          "name": "_id",
          "type": "uint256"
        },
        {
          "indexed": false,
          "name": "_voterId",
          "type": "uint256"
        }
      ],
      "name": "VoterCreated",
      "type": "event"
    },
    {
      "anonymous": false,
      "inputs": [
        {
          "indexed": false,
          "name": "_id",
          "type": "uint256"
        }
      ],
      "name": "CandidateRegistered",
      "type": "event"
    },
    {
      "anonymous": false,
      "inputs": [
        {
          "indexed": false,
          "name": "_id",
          "type": "uint256"
        }
      ],
      "name": "ConstituencyRegistered",
      "type": "event"
    },
    {
      "constant": false,
      "inputs": [
        {
          "name": "_id",
          "type": "uint256"
        },
        {
          "name": "_duration",
          "type": "uint256"
        }
      ],
      "name": "generateElectionforConstituency",
      "outputs": [],
      "payable": false,
      "stateMutability": "nonpayable",
      "type": "function"
    },
    {
      "constant": false,
      "inputs": [
        {
          "name": "_id",
          "type": "uint256"
        },
        {
          "name": "_constituencyId",
          "type": "uint256"
        }
      ],
      "name": "assignCandidateToConstituency",
      "outputs": [],
      "payable": false,
      "stateMutability": "nonpayable",
      "type": "function"
    },
    {
      "constant": true,
      "inputs": [
        {
          "name": "_constituencyId",
          "type": "uint256"
        }
      ],
      "name": "getCandidatesByConstituency",
      "outputs": [
        {
          "components": [
            {
              "name": "_id",
              "type": "uint256"
            }
          ],
          "name": "",
          "type": "tuple[]"
        }
      ],
      "payable": false,
      "stateMutability": "view",
      "type": "function"
    }
  ],
  "bytecode": "0x608060405260405180606001604052806000801b815260200160008152602001600067ffffffffffffffff1681525060008082015181600001556020820151816001015560408201518160020160006101000a81548167ffffffffffffffff021916908367ffffffffffffffff160217905550505034801561008057600080fd5b50610955806100906000396000f3fe608060405234801561001057600080fd5b50600436106100885760003560e01c8063c50eff0c1161005b578063c50eff0c14610127578063d59d48d414610143578063da58c7d91461015f578063f9ed80671461019257610088565b80630b2a85ea1461008d578063233f0114146100a95780633477ee2e146100c55780639209416a146100f5575b600080fd5b6100a760048036036100a2919081019061065d565b6101c2565b005b6100c360048036036100be919081019061065d565b61027f565b005b6100df60048036036100da919081019061065d565b61037a565b6040516100ec9190610803565b60405180910390f35b61010f600480360361010a919081019061065d565b6103a1565b60405161011e93929190610863565b60405180910390f35b610141600480360361013c9190810190610686565b6103d8565b005b61015d60048036036101589190810190610686565b610417565b005b6101796004803603610174919081019061065d565b610476565b604051610189949392919061081e565b60405180910390f35b6101ac60048036036101a7919081019061065d565b610510565b6040516101b991906107e1565b60405180910390f35b60006001600b604051806020016040528085815250908060018154018082558091505090600182039060005260206000200160009091929091909150600082015181600001555050039050600b818154811061021a57fe5b9060005260206000200160046000848152602001908152602001600020600082015481600001559050507f43dcee486fabffa2fb551555bfaa5bfcf6a42f2d014032ccef94bf09d83855eb826040516102739190610803565b60405180910390a15050565b60006001600c6040518060600160405280858152602001600081526020016000815250908060018154018082558091505090600182039060005260206000209060030201600090919290919091506000820151816000015560208201518160010155604082015181600201555050039050600c81815481106102fd57fe5b9060005260206000209060030201600560008481526020019081526020016000206000820154816000015560018201548160010155600282015481600201559050507f21db1a92fb8efb483c22a581ee7e282b6d79d9d43b559ee1affa3418188679698260405161036e9190610803565b60405180910390a15050565b600b818154811061038757fe5b906000526020600020016000915090508060000154905081565b600c81815481106103ae57fe5b90600052602060002090600302016000915090508060000154908060010154908060020154905083565b80600760008481526020019081526020016000208190555060086000828152602001908152602001600020600081548092919060010191905055505050565b61041f610614565b60056000848152602001908152602001600020604051806060016040529081600082015481526020016001820154815260200160028201548152505090504281602001818152505081816040018181525050505050565b600a818154811061048357fe5b90600052602060002090600602016000915090508060000154908060010154908060020160009054906101000a900460ff16908060030160405180606001604052908160008201548152602001600182015481526020016002820160009054906101000a900467ffffffffffffffff1667ffffffffffffffff1667ffffffffffffffff1681525050905084565b606080600860008481526020019081526020016000205460405190808252806020026020018201604052801561056057816020015b61054d610635565b8152602001906001900390816105455790505b509050600080905060008090505b600b80549050811015610609578460076000600b848154811061058d57fe5b906000526020600020016000015481526020019081526020016000205414156105fc57600b81815481106105bd57fe5b906000526020600020016040518060200160405290816000820154815250508383815181106105e857fe5b602002602001018190525081806001019250505b808060010191505061056e565b508192505050919050565b60405180606001604052806000815260200160008152602001600081525090565b6040518060200160405280600081525090565b60008135905061065781610904565b92915050565b60006020828403121561066f57600080fd5b600061067d84828501610648565b91505092915050565b6000806040838503121561069957600080fd5b60006106a785828601610648565b92505060206106b885828601610648565b9150509250929050565b60006106ce8383610756565b60208301905092915050565b60006106e5826108a7565b6106ef81856108bf565b93506106fa8361089a565b8060005b8381101561072b57815161071288826106c2565b975061071d836108b2565b9250506001810190506106fe565b5085935050505092915050565b610741816108d0565b82525050565b610750816108dc565b82525050565b60208201600082015161076c60008501826107b4565b50505050565b6060820160008201516107886000850182610747565b50602082015161079b60208501826107b4565b5060408201516107ae60408501826107d2565b50505050565b6107bd816108e6565b82525050565b6107cc816108e6565b82525050565b6107db816108f0565b82525050565b600060208201905081810360008301526107fb81846106da565b905092915050565b600060208201905061081860008301846107c3565b92915050565b600060c08201905061083360008301876107c3565b61084060208301866107c3565b61084d6040830185610738565b61085a6060830184610772565b95945050505050565b600060608201905061087860008301866107c3565b61088560208301856107c3565b61089260408301846107c3565b949350505050565b6000602082019050919050565b600081519050919050565b6000602082019050919050565b600082825260208201905092915050565b60008115159050919050565b6000819050919050565b6000819050919050565b600067ffffffffffffffff82169050919050565b61090d816108e6565b811461091857600080fd5b5056fea265627a7a72305820b8fb37314c590033123c8efbdfd59123baca48a7a9787344a4f4d441666ae6ce6c6578706572696d656e74616cf50037",
  "source": "pragma solidity ^0.5.0;\npragma experimental ABIEncoderV2;\nimport \"./Election.sol\";\n\ncontract ElectionHelper is Election {\n\n    function generateElectionforConstituency(uint256 _id, uint256 _duration) external {\n        Constituency memory _constituency = idToConstituency[_id];\n        _constituency._startTime = block.timestamp;\n        _constituency._duration = _duration;\n    }\n\n    function assignCandidateToConstituency(uint256 _id, uint256 _constituencyId) public {\n        candidateToConstituency[_id] = _constituencyId;\n        constituencyCandidateCount[_constituencyId]++;\n    }\n\n    function getCandidatesByConstituency(uint256 _constituencyId) public view returns(Candidate[] memory) {\n        Candidate[] memory _candidates = new Candidate[](constituencyCandidateCount[_constituencyId]);\n        uint counter = 0;\n        for(uint i = 0; i < candidates.length; i++) {\n            if(candidateToConstituency[candidates[i]._id] == _constituencyId) {\n            _candidates[counter] = candidates[i];\n            counter++;\n        }\n    }\n\n        return _candidates;\n    }\n}",
  "sourcePath": "/home/d3mon/Projects/sudo-rm--rf/contracts/ElectionHelper.sol",
  "compiler": {
    "name": "solc",
    "version": "0.5.8+commit.23d335f2.Emscripten.clang"
  },
  "schemaVersion": "3.0.11",
  "updatedAt": "2019-08-18T10:40:24.912Z",
  "devdoc": {
    "methods": {}
  },
  "userdoc": {
    "methods": {}
  }
}