{
  "contractName": "ElectionHelper",
  "abi": [
    {
      "constant": true,
      "inputs": [
        {
          "name": "",
          "type": "uint256"
        }
      ],
      "name": "candidateVoteCount",
      "outputs": [
        {
          "name": "",
          "type": "uint256"
        }
      ],
      "payable": false,
      "stateMutability": "view",
      "type": "function"
    },
    {
      "constant": true,
      "inputs": [
        {
          "name": "",
          "type": "uint256"
        }
      ],
      "name": "idToConstituency",
      "outputs": [
        {
          "name": "_id",
          "type": "uint256"
        },
        {
          "name": "_startTime",
          "type": "uint256"
        },
        {
          "name": "_duration",
          "type": "uint256"
        }
      ],
      "payable": false,
      "stateMutability": "view",
      "type": "function"
    },
    {
      "constant": false,
      "inputs": [
        {
          "name": "_id",
          "type": "uint256"
        },
        {
          "name": "_constituencyId",
          "type": "uint256"
        },
        {
          "name": "_adminId",
          "type": "uint256"
        }
      ],
      "name": "assignCandidateToConstituency",
      "outputs": [],
      "payable": false,
      "stateMutability": "nonpayable",
      "type": "function"
    },
    {
      "constant": true,
      "inputs": [
        {
          "name": "",
          "type": "uint256"
        }
      ],
      "name": "candidateToConstituency",
      "outputs": [
        {
          "name": "",
          "type": "uint256"
        }
      ],
      "payable": false,
      "stateMutability": "view",
      "type": "function"
    },
    {
      "constant": true,
      "inputs": [
        {
          "name": "",
          "type": "uint256"
        }
      ],
      "name": "admins",
      "outputs": [
        {
          "name": "",
          "type": "uint256"
        }
      ],
      "payable": false,
      "stateMutability": "view",
      "type": "function"
    },
    {
      "constant": true,
      "inputs": [
        {
          "name": "",
          "type": "uint256"
        }
      ],
      "name": "candidates",
      "outputs": [
        {
          "name": "_id",
          "type": "uint256"
        }
      ],
      "payable": false,
      "stateMutability": "view",
      "type": "function"
    },
    {
      "constant": true,
      "inputs": [
        {
          "name": "",
          "type": "uint256"
        }
      ],
      "name": "constituencyCandidateCount",
      "outputs": [
        {
          "name": "",
          "type": "uint256"
        }
      ],
      "payable": false,
      "stateMutability": "view",
      "type": "function"
    },
    {
      "constant": true,
      "inputs": [
        {
          "name": "",
          "type": "uint256"
        }
      ],
      "name": "voteToCandidate",
      "outputs": [
        {
          "name": "",
          "type": "uint256"
        }
      ],
      "payable": false,
      "stateMutability": "view",
      "type": "function"
    },
    {
      "constant": true,
      "inputs": [
        {
          "name": "",
          "type": "uint256"
        }
      ],
      "name": "idToCandidate",
      "outputs": [
        {
          "name": "_id",
          "type": "uint256"
        }
      ],
      "payable": false,
      "stateMutability": "view",
      "type": "function"
    },
    {
      "constant": false,
      "inputs": [],
      "name": "renounceOwnership",
      "outputs": [],
      "payable": false,
      "stateMutability": "nonpayable",
      "type": "function"
    },
    {
      "constant": false,
      "inputs": [
        {
          "name": "_constituencies",
          "type": "uint256[]"
        },
        {
          "name": "_adminId",
          "type": "uint256"
        }
      ],
      "name": "registerConstituencies",
      "outputs": [],
      "payable": false,
      "stateMutability": "nonpayable",
      "type": "function"
    },
    {
      "constant": true,
      "inputs": [],
      "name": "owner",
      "outputs": [
        {
          "name": "",
          "type": "address"
        }
      ],
      "payable": false,
      "stateMutability": "view",
      "type": "function"
    },
    {
      "constant": true,
      "inputs": [],
      "name": "isOwner",
      "outputs": [
        {
          "name": "",
          "type": "bool"
        }
      ],
      "payable": false,
      "stateMutability": "view",
      "type": "function"
    },
    {
      "constant": true,
      "inputs": [
        {
          "name": "",
          "type": "uint256"
        }
      ],
      "name": "constituencies",
      "outputs": [
        {
          "name": "_id",
          "type": "uint256"
        },
        {
          "name": "_startTime",
          "type": "uint256"
        },
        {
          "name": "_duration",
          "type": "uint256"
        }
      ],
      "payable": false,
      "stateMutability": "view",
      "type": "function"
    },
    {
      "constant": false,
      "inputs": [
        {
          "name": "_id",
          "type": "uint256"
        }
      ],
      "name": "registerAdmin",
      "outputs": [],
      "payable": false,
      "stateMutability": "nonpayable",
      "type": "function"
    },
    {
      "constant": true,
      "inputs": [],
      "name": "ResultsDeclared",
      "outputs": [
        {
          "name": "",
          "type": "bool"
        }
      ],
      "payable": false,
      "stateMutability": "view",
      "type": "function"
    },
    {
      "constant": true,
      "inputs": [
        {
          "name": "",
          "type": "uint256"
        }
      ],
      "name": "voters",
      "outputs": [
        {
          "name": "_id",
          "type": "uint256"
        },
        {
          "name": "_constituencyId",
          "type": "uint256"
        },
        {
          "name": "_hasVoted",
          "type": "bool"
        },
        {
          "name": "_voteTime",
          "type": "uint256"
        },
        {
          "components": [
            {
              "name": "_voteId",
              "type": "uint256"
            }
          ],
          "name": "_vote",
          "type": "tuple"
        }
      ],
      "payable": false,
      "stateMutability": "view",
      "type": "function"
    },
    {
      "constant": false,
      "inputs": [
        {
          "name": "newOwner",
          "type": "address"
        }
      ],
      "name": "transferOwnership",
      "outputs": [],
      "payable": false,
      "stateMutability": "nonpayable",
      "type": "function"
    },
    {
      "constant": true,
      "inputs": [
        {
          "name": "",
          "type": "uint256"
        }
      ],
      "name": "idToVoter",
      "outputs": [
        {
          "name": "_id",
          "type": "uint256"
        },
        {
          "name": "_constituencyId",
          "type": "uint256"
        },
        {
          "name": "_hasVoted",
          "type": "bool"
        },
        {
          "name": "_voteTime",
          "type": "uint256"
        },
        {
          "components": [
            {
              "name": "_voteId",
              "type": "uint256"
            }
          ],
          "name": "_vote",
          "type": "tuple"
        }
      ],
      "payable": false,
      "stateMutability": "view",
      "type": "function"
    },
    {
      "anonymous": false,
      "inputs": [
        {
          "indexed": false,
          "name": "_id",
          "type": "uint256"
        },
        {
          "indexed": false,
          "name": "_constituencyId",
          "type": "uint256"
        }
      ],
      "name": "VoterCreated",
      "type": "event"
    },
    {
      "anonymous": false,
      "inputs": [
        {
          "indexed": false,
          "name": "_id",
          "type": "uint256"
        }
      ],
      "name": "CandidateRegistered",
      "type": "event"
    },
    {
      "anonymous": false,
      "inputs": [
        {
          "indexed": false,
          "name": "_id",
          "type": "uint256"
        }
      ],
      "name": "ConstituencyRegistered",
      "type": "event"
    },
    {
      "anonymous": false,
      "inputs": [
        {
          "indexed": true,
          "name": "previousOwner",
          "type": "address"
        },
        {
          "indexed": true,
          "name": "newOwner",
          "type": "address"
        }
      ],
      "name": "OwnershipTransferred",
      "type": "event"
    },
    {
      "constant": false,
      "inputs": [
        {
          "name": "_adminId",
          "type": "uint256"
        }
      ],
      "name": "getConstituencies",
      "outputs": [
        {
          "components": [
            {
              "name": "_id",
              "type": "uint256"
            },
            {
              "name": "_startTime",
              "type": "uint256"
            },
            {
              "name": "_duration",
              "type": "uint256"
            }
          ],
          "name": "",
          "type": "tuple[]"
        }
      ],
      "payable": false,
      "stateMutability": "nonpayable",
      "type": "function"
    },
    {
      "constant": false,
      "inputs": [
        {
          "name": "_id",
          "type": "uint256"
        },
        {
          "name": "_duration",
          "type": "uint256"
        },
        {
          "name": "_adminId",
          "type": "uint256"
        }
      ],
      "name": "generateElectionforConstituency",
      "outputs": [],
      "payable": false,
      "stateMutability": "nonpayable",
      "type": "function"
    },
    {
      "constant": false,
      "inputs": [
        {
          "name": "_id",
          "type": "uint256"
        },
        {
          "name": "_userId",
          "type": "uint256"
        }
      ],
      "name": "getConstituencyDetails",
      "outputs": [
        {
          "components": [
            {
              "name": "_id",
              "type": "uint256"
            },
            {
              "name": "_startTime",
              "type": "uint256"
            },
            {
              "name": "_duration",
              "type": "uint256"
            }
          ],
          "name": "",
          "type": "tuple"
        }
      ],
      "payable": false,
      "stateMutability": "nonpayable",
      "type": "function"
    },
    {
      "constant": true,
      "inputs": [
        {
          "name": "_constituencyId",
          "type": "uint256"
        },
        {
          "name": "_userId",
          "type": "uint256"
        }
      ],
      "name": "getCandidatesByConstituency",
      "outputs": [
        {
          "components": [
            {
              "name": "_id",
              "type": "uint256"
            }
          ],
          "name": "",
          "type": "tuple[]"
        }
      ],
      "payable": false,
      "stateMutability": "view",
      "type": "function"
    }
  ],
  "bytecode": "0x608060405260008060146101000a81548160ff021916908315150217905550336000806101000a81548173ffffffffffffffffffffffffffffffffffffffff021916908373ffffffffffffffffffffffffffffffffffffffff1602179055506000809054906101000a900473ffffffffffffffffffffffffffffffffffffffff1673ffffffffffffffffffffffffffffffffffffffff16600073ffffffffffffffffffffffffffffffffffffffff167f8be0079c531659141344cd1fd0a4f28419497f9722a3daafe3b4186f6b6457e060405160405180910390a360008060146101000a81548160ff02191690831515021790555061175a806101036000396000f3fe608060405260043610610133576000357c0100000000000000000000000000000000000000000000000000000000900463ffffffff16806301aa2e03146101385780630f80dcb01461017557806312d51c72146101b45780631471e0ab146101dd57806314bfd6d01461021a57806328975210146102575780632fd23a3f146102945780633477ee2e146102d15780633b04a6c91461030e57806356be16581461034b57806357e2ef1014610388578063715018a6146103c55780637b013b94146103dc5780638da5cb5b146104055780638f32d59b146104305780639209416a1461045b578063948452541461049a578063aa3e4e1c146104c3578063bbc893a3146104ee578063da58c7d91461052b578063f2fde38b1461056c578063f759006514610595578063f8c70571146105be575b600080fd5b34801561014457600080fd5b5061015f600480360361015a91908101906112e5565b6105ff565b60405161016c91906115cd565b60405180910390f35b34801561018157600080fd5b5061019c600480360361019791908101906112e5565b610617565b6040516101ab9392919061163b565b60405180910390f35b3480156101c057600080fd5b506101db60048036036101d6919081019061134a565b610641565b005b3480156101e957600080fd5b5061020460048036036101ff91908101906112e5565b6106da565b60405161021191906115cd565b60405180910390f35b34801561022657600080fd5b50610241600480360361023c91908101906112e5565b6106f2565b60405161024e91906115cd565b60405180910390f35b34801561026357600080fd5b5061027e600480360361027991908101906112e5565b610715565b60405161028b9190611575565b60405180910390f35b3480156102a057600080fd5b506102bb60048036036102b6919081019061130e565b610844565b6040516102c891906115b2565b60405180910390f35b3480156102dd57600080fd5b506102f860048036036102f391908101906112e5565b6108c5565b60405161030591906115cd565b60405180910390f35b34801561031a57600080fd5b50610335600480360361033091908101906112e5565b6108ee565b60405161034291906115cd565b60405180910390f35b34801561035757600080fd5b50610372600480360361036d91908101906112e5565b610906565b60405161037f91906115cd565b60405180910390f35b34801561039457600080fd5b506103af60048036036103aa91908101906112e5565b61091e565b6040516103bc91906115cd565b60405180910390f35b3480156103d157600080fd5b506103da61093c565b005b3480156103e857600080fd5b5061040360048036036103fe919081019061128d565b610a0e565b005b34801561041157600080fd5b5061041a610a9f565b6040516104279190611538565b60405180910390f35b34801561043c57600080fd5b50610445610ac8565b6040516104529190611597565b60405180910390f35b34801561046757600080fd5b50610482600480360361047d91908101906112e5565b610b1f565b6040516104919392919061163b565b60405180910390f35b3480156104a657600080fd5b506104c160048036036104bc91908101906112e5565b610b58565b005b3480156104cf57600080fd5b506104d8610b9a565b6040516104e59190611597565b60405180910390f35b3480156104fa57600080fd5b506105156004803603610510919081019061130e565b610bad565b6040516105229190611553565b60405180910390f35b34801561053757600080fd5b50610552600480360361054d91908101906112e5565b610ce4565b6040516105639594939291906115e8565b60405180910390f35b34801561057857600080fd5b50610593600480360361058e9190810190611264565b610d4b565b005b3480156105a157600080fd5b506105bc60048036036105b7919081019061134a565b610d6a565b005b3480156105ca57600080fd5b506105e560048036036105e091908101906112e5565b610de8565b6040516105f69594939291906115e8565b60405180910390f35b60076020528060005260406000206000915090505481565b60036020528060005260406000206000915090508060000154908060010154908060020154905083565b8060008090505b600b805490508110156106d35781600b8281548110151561066557fe5b906000526020600020015414156106c0576106808584610e40565b83600560008781526020019081526020016000208190555060066000858152602001908152602001600020600081548092919060010191905055506106c5565b6106c6565b5b8080600101915050610648565b5050505050565b60056020528060005260406000206000915090505481565b600b8181548110151561070157fe5b906000526020600020016000915090505481565b60608160008090505b600b8054905081101561083d5781600b8281548110151561073b57fe5b9060005260206000200154141561082a576060600a8054905060405190808252806020026020018201604052801561078d57816020015b61077a611198565b8152602001906001900390816107725790505b509050600080905060008090505b600a8054905081101561081f57600a818154811015156107b757fe5b906000526020600020906003020160606040519081016040529081600082015481526020016001820154815260200160028201548152505083838151811015156107fd57fe5b906020019060200201819052508180600101925050808060010191505061079b565b50819450505061082f565b610830565b5b808060010191505061071e565b5050919050565b61084c6111ba565b81600060016000838152602001908152602001600020600001541415151561087357600080fd5b61087b6111ba565b600360008681526020019081526020016000206060604051908101604052908160008201548152602001600182015481526020016002820154815250509050809250505092915050565b6009818154811015156108d457fe5b906000526020600020016000915090508060000154905081565b60066020528060005260406000206000915090505481565b60046020528060005260406000206000915090505481565b60026020528060005260406000206000915090508060000154905081565b610944610ac8565b151561094f57600080fd5b600073ffffffffffffffffffffffffffffffffffffffff166000809054906101000a900473ffffffffffffffffffffffffffffffffffffffff1673ffffffffffffffffffffffffffffffffffffffff167f8be0079c531659141344cd1fd0a4f28419497f9722a3daafe3b4186f6b6457e060405160405180910390a360008060006101000a81548173ffffffffffffffffffffffffffffffffffffffff021916908373ffffffffffffffffffffffffffffffffffffffff160217905550565b8060008090505b600b80549050811015610a985781600b82815481101515610a3257fe5b90600052602060002001541415610a855760008090505b85859050811015610a7f57610a728686838181101515610a6557fe5b9050602002013585610f50565b8080600101915050610a49565b50610a8a565b610a8b565b5b8080600101915050610a15565b5050505050565b60008060009054906101000a900473ffffffffffffffffffffffffffffffffffffffff16905090565b60008060009054906101000a900473ffffffffffffffffffffffffffffffffffffffff1673ffffffffffffffffffffffffffffffffffffffff163373ffffffffffffffffffffffffffffffffffffffff1614905090565b600a81815481101515610b2e57fe5b90600052602060002090600302016000915090508060000154908060010154908060020154905083565b610b60610ac8565b1515610b6b57600080fd5b600b81908060018154018082558091505090600182039060005260206000200160009091929091909150555050565b600060149054906101000a900460ff1681565b6060816000600160008381526020019081526020016000206000015414151515610bd657600080fd5b60606006600086815260200190815260200160002054604051908082528060200260200182016040528015610c2557816020015b610c126111dc565b815260200190600190039081610c0a5790505b509050600080905060008090505b600980549050811015610cd7578660056000600984815481101515610c5457fe5b90600052602060002001600001548152602001908152602001600020541415610cca57600981815481101515610c8657fe5b90600052602060002001602060405190810160405290816000820154815250508383815181101515610cb457fe5b9060200190602002018190525081806001019250505b8080600101915050610c33565b5081935050505092915050565b600881815481101515610cf357fe5b90600052602060002090600502016000915090508060000154908060010154908060020160009054906101000a900460ff16908060030154908060040160206040519081016040529081600082015481525050905085565b610d53610ac8565b1515610d5e57600080fd5b610d678161109e565b50565b8060008090505b600b80549050811015610de15781600b82815481101515610d8e57fe5b90600052602060002001541415610dce57600060036000878152602001908152602001600020905042816001018190555084816002018190555050610dd3565b610dd4565b5b8080600101915050610d71565b5050505050565b60016020528060005260406000206000915090508060000154908060010154908060020160009054906101000a900460ff16908060030154908060040160206040519081016040529081600082015481525050905085565b8060008090505b600b80549050811015610f4a5781600b82815481101515610e6457fe5b90600052602060002001541415610f375760006001600960206040519081016040528088815250908060018154018082558091505090600182039060005260206000200160009091929091909150600082015181600001555050039050600981815481101515610ed057fe5b9060005260206000200160026000878152602001908152602001600020600082015481600001559050507f43dcee486fabffa2fb551555bfaa5bfcf6a42f2d014032ccef94bf09d83855eb85604051610f2991906115cd565b60405180910390a150610f3c565b610f3d565b5b8080600101915050610e47565b50505050565b8060008090505b600b805490508110156110985781600b82815481101515610f7457fe5b906000526020600020015414156110855760006001600a606060405190810160405280888152602001600081526020016000815250908060018154018082558091505090600182039060005260206000209060030201600090919290919091506000820151816000015560208201518160010155604082015181600201555050039050600a8181548110151561100657fe5b9060005260206000209060030201600360008781526020019081526020016000206000820154816000015560018201548160010155600282015481600201559050507f21db1a92fb8efb483c22a581ee7e282b6d79d9d43b559ee1affa3418188679698560405161107791906115cd565b60405180910390a15061108a565b61108b565b5b8080600101915050610f57565b50505050565b600073ffffffffffffffffffffffffffffffffffffffff168173ffffffffffffffffffffffffffffffffffffffff16141515156110da57600080fd5b8073ffffffffffffffffffffffffffffffffffffffff166000809054906101000a900473ffffffffffffffffffffffffffffffffffffffff1673ffffffffffffffffffffffffffffffffffffffff167f8be0079c531659141344cd1fd0a4f28419497f9722a3daafe3b4186f6b6457e060405160405180910390a3806000806101000a81548173ffffffffffffffffffffffffffffffffffffffff021916908373ffffffffffffffffffffffffffffffffffffffff16021790555050565b6060604051908101604052806000815260200160008152602001600081525090565b6060604051908101604052806000815260200160008152602001600081525090565b602060405190810160405280600081525090565b60006111fc8235611704565b905092915050565b60008083601f840112151561121857600080fd5b8235905067ffffffffffffffff81111561123157600080fd5b60208301915083602082028301111561124957600080fd5b9250929050565b600061125c8235611716565b905092915050565b60006020828403121561127657600080fd5b6000611284848285016111f0565b91505092915050565b6000806000604084860312156112a257600080fd5b600084013567ffffffffffffffff8111156112bc57600080fd5b6112c886828701611204565b935093505060206112db86828701611250565b9150509250925092565b6000602082840312156112f757600080fd5b600061130584828501611250565b91505092915050565b6000806040838503121561132157600080fd5b600061132f85828601611250565b925050602061134085828601611250565b9150509250929050565b60008060006060848603121561135f57600080fd5b600061136d86828701611250565b935050602061137e86828701611250565b925050604061138f86828701611250565b9150509250925092565b6113a2816116bc565b82525050565b60006113b38261168c565b8084526020840193506113c583611672565b60005b828110156113f7576113db86835161146d565b6113e4826116a2565b91506020860195506001810190506113c8565b50849250505092915050565b600061140e82611697565b8084526020840193506114208361167f565b60005b82811015611452576114368683516114cb565b61143f826116af565b9150606086019550600181019050611423565b50849250505092915050565b611467816116ce565b82525050565b6020820160008201516114836000850182611529565b50505050565b60608201600082015161149f6000850182611529565b5060208201516114b26020850182611529565b5060408201516114c56040850182611529565b50505050565b6060820160008201516114e16000850182611529565b5060208201516114f46020850182611529565b5060408201516115076040850182611529565b50505050565b6020820160008201516115236000850182611529565b50505050565b611532816116fa565b82525050565b600060208201905061154d6000830184611399565b92915050565b6000602082019050818103600083015261156d81846113a8565b905092915050565b6000602082019050818103600083015261158f8184611403565b905092915050565b60006020820190506115ac600083018461145e565b92915050565b60006060820190506115c76000830184611489565b92915050565b60006020820190506115e26000830184611529565b92915050565b600060a0820190506115fd6000830188611529565b61160a6020830187611529565b611617604083018661145e565b6116246060830185611529565b611631608083018461150d565b9695505050505050565b60006060820190506116506000830186611529565b61165d6020830185611529565b61166a6040830184611529565b949350505050565b6000602082019050919050565b6000602082019050919050565b600081519050919050565b600081519050919050565b6000602082019050919050565b6000602082019050919050565b60006116c7826116da565b9050919050565b60008115159050919050565b600073ffffffffffffffffffffffffffffffffffffffff82169050919050565b6000819050919050565b600061170f826116da565b9050919050565b600081905091905056fea265627a7a7230582070e36f5285198f04eaf0db2e9a1822a61f3e8d1882b54e02f8d6f99b03ebe1176c6578706572696d656e74616cf50037",
  "source": "pragma solidity ^0.5.0;\npragma experimental ABIEncoderV2;\nimport \"./Election.sol\";\n\ncontract ElectionHelper is Election {\n\n    function getConstituencies(uint256 _adminId) external onlyAdmin(_adminId) returns(Constituency[] memory) {\n        Constituency[] memory _constituencies = new Constituency[](constituencies.length);\n        uint counter = 0;\n        for(uint i = 0; i < constituencies.length; i++) {\n            _constituencies[counter] = constituencies[i];\n            counter++;\n        }\n        return _constituencies;\n    }\n\n    function generateElectionforConstituency(uint256 _id, uint256 _duration, uint256 _adminId) external onlyAdmin(_adminId) {\n        Constituency storage _constituency = idToConstituency[_id];\n        _constituency._startTime = block.timestamp;\n        _constituency._duration = _duration;\n    }\n\n    function getConstituencyDetails(uint256 _id, uint256 _userId) external onlyUser(_userId) returns(Constituency memory) {\n        Constituency memory _constituency = idToConstituency[_id];\n        return _constituency;\n    }\n\n    function getCandidatesByConstituency(uint256 _constituencyId, uint256 _userId) public view onlyUser(_userId) returns(Candidate[] memory) {\n        Candidate[] memory _candidates = new Candidate[](constituencyCandidateCount[_constituencyId]);\n        uint counter = 0;\n        for(uint i = 0; i < candidates.length; i++) {\n            if(candidateToConstituency[candidates[i]._id] == _constituencyId) {\n            _candidates[counter] = candidates[i];\n            counter++;\n        }\n    }\n        return _candidates;\n    }\n}",
  "sourcePath": "/home/d3mon/Projects/sudo-rm--rf/contracts/ElectionHelper.sol",
  "compiler": {
    "name": "solc",
    "version": "0.5.0+commit.1d4f565a.Emscripten.clang"
  },
  "schemaVersion": "3.0.2",
  "updatedAt": "2020-02-04T12:10:04.021Z",
  "devdoc": {
    "methods": {
      "isOwner()": {
        "return": "true if `msg.sender` is the owner of the contract."
      },
      "owner()": {
        "return": "the address of the owner."
      },
      "renounceOwnership()": {
        "details": "Allows the current owner to relinquish control of the contract."
      },
      "transferOwnership(address)": {
        "details": "Allows the current owner to transfer control of the contract to a newOwner.",
        "params": {
          "newOwner": "The address to transfer ownership to."
        }
      }
    }
  },
  "userdoc": {
    "methods": {
      "renounceOwnership()": {
        "notice": "Renouncing to ownership will leave the contract without an owner. It will not be possible to call the functions with the `onlyOwner` modifier anymore."
      }
    }
  }
}