{
  "contractName": "Election",
  "abi": [
    {
      "constant": true,
      "inputs": [
        {
          "name": "",
          "type": "uint256"
        }
      ],
      "name": "candidateVoteCount",
      "outputs": [
        {
          "name": "",
          "type": "uint256"
        }
      ],
      "payable": false,
      "stateMutability": "view",
      "type": "function"
    },
    {
      "constant": true,
      "inputs": [
        {
          "name": "",
          "type": "uint256"
        }
      ],
      "name": "idToConstituency",
      "outputs": [
        {
          "name": "_id",
          "type": "uint256"
        },
        {
          "name": "_startTime",
          "type": "uint256"
        },
        {
          "name": "_duration",
          "type": "uint256"
        }
      ],
      "payable": false,
      "stateMutability": "view",
      "type": "function"
    },
    {
      "constant": true,
      "inputs": [
        {
          "name": "",
          "type": "uint256"
        }
      ],
      "name": "candidateToConstituency",
      "outputs": [
        {
          "name": "",
          "type": "uint256"
        }
      ],
      "payable": false,
      "stateMutability": "view",
      "type": "function"
    },
    {
      "constant": true,
      "inputs": [
        {
          "name": "",
          "type": "uint256"
        }
      ],
      "name": "admins",
      "outputs": [
        {
          "name": "",
          "type": "uint256"
        }
      ],
      "payable": false,
      "stateMutability": "view",
      "type": "function"
    },
    {
      "constant": true,
      "inputs": [
        {
          "name": "",
          "type": "uint256"
        }
      ],
      "name": "candidates",
      "outputs": [
        {
          "name": "_id",
          "type": "uint256"
        }
      ],
      "payable": false,
      "stateMutability": "view",
      "type": "function"
    },
    {
      "constant": true,
      "inputs": [
        {
          "name": "",
          "type": "uint256"
        }
      ],
      "name": "constituencyCandidateCount",
      "outputs": [
        {
          "name": "",
          "type": "uint256"
        }
      ],
      "payable": false,
      "stateMutability": "view",
      "type": "function"
    },
    {
      "constant": true,
      "inputs": [
        {
          "name": "",
          "type": "uint256"
        }
      ],
      "name": "voteToCandidate",
      "outputs": [
        {
          "name": "",
          "type": "uint256"
        }
      ],
      "payable": false,
      "stateMutability": "view",
      "type": "function"
    },
    {
      "constant": true,
      "inputs": [
        {
          "name": "",
          "type": "uint256"
        }
      ],
      "name": "idToCandidate",
      "outputs": [
        {
          "name": "_id",
          "type": "uint256"
        }
      ],
      "payable": false,
      "stateMutability": "view",
      "type": "function"
    },
    {
      "constant": false,
      "inputs": [],
      "name": "renounceOwnership",
      "outputs": [],
      "payable": false,
      "stateMutability": "nonpayable",
      "type": "function"
    },
    {
      "constant": true,
      "inputs": [],
      "name": "owner",
      "outputs": [
        {
          "name": "",
          "type": "address"
        }
      ],
      "payable": false,
      "stateMutability": "view",
      "type": "function"
    },
    {
      "constant": true,
      "inputs": [],
      "name": "isOwner",
      "outputs": [
        {
          "name": "",
          "type": "bool"
        }
      ],
      "payable": false,
      "stateMutability": "view",
      "type": "function"
    },
    {
      "constant": true,
      "inputs": [
        {
          "name": "",
          "type": "uint256"
        }
      ],
      "name": "constituencies",
      "outputs": [
        {
          "name": "_id",
          "type": "uint256"
        },
        {
          "name": "_startTime",
          "type": "uint256"
        },
        {
          "name": "_duration",
          "type": "uint256"
        }
      ],
      "payable": false,
      "stateMutability": "view",
      "type": "function"
    },
    {
      "constant": true,
      "inputs": [],
      "name": "ResultsDeclared",
      "outputs": [
        {
          "name": "",
          "type": "bool"
        }
      ],
      "payable": false,
      "stateMutability": "view",
      "type": "function"
    },
    {
      "constant": true,
      "inputs": [
        {
          "name": "",
          "type": "uint256"
        }
      ],
      "name": "constituencyVoterCount",
      "outputs": [
        {
          "name": "",
          "type": "uint256"
        }
      ],
      "payable": false,
      "stateMutability": "view",
      "type": "function"
    },
    {
      "constant": true,
      "inputs": [
        {
          "name": "",
          "type": "uint256"
        }
      ],
      "name": "voters",
      "outputs": [
        {
          "name": "_id",
          "type": "uint256"
        },
        {
          "name": "_constituencyId",
          "type": "uint256"
        },
        {
          "name": "_hasVoted",
          "type": "bool"
        },
        {
          "name": "_voteTime",
          "type": "uint256"
        },
        {
          "components": [
            {
              "name": "_voteId",
              "type": "uint256"
            }
          ],
          "name": "_vote",
          "type": "tuple"
        }
      ],
      "payable": false,
      "stateMutability": "view",
      "type": "function"
    },
    {
      "constant": false,
      "inputs": [
        {
          "name": "newOwner",
          "type": "address"
        }
      ],
      "name": "transferOwnership",
      "outputs": [],
      "payable": false,
      "stateMutability": "nonpayable",
      "type": "function"
    },
    {
      "constant": true,
      "inputs": [
        {
          "name": "",
          "type": "uint256"
        }
      ],
      "name": "idToVoter",
      "outputs": [
        {
          "name": "_id",
          "type": "uint256"
        },
        {
          "name": "_constituencyId",
          "type": "uint256"
        },
        {
          "name": "_hasVoted",
          "type": "bool"
        },
        {
          "name": "_voteTime",
          "type": "uint256"
        },
        {
          "components": [
            {
              "name": "_voteId",
              "type": "uint256"
            }
          ],
          "name": "_vote",
          "type": "tuple"
        }
      ],
      "payable": false,
      "stateMutability": "view",
      "type": "function"
    },
    {
      "inputs": [],
      "payable": false,
      "stateMutability": "nonpayable",
      "type": "constructor"
    },
    {
      "anonymous": false,
      "inputs": [
        {
          "indexed": false,
          "name": "_id",
          "type": "uint256"
        },
        {
          "indexed": false,
          "name": "_constituencyId",
          "type": "uint256"
        }
      ],
      "name": "VoterCreated",
      "type": "event"
    },
    {
      "anonymous": false,
      "inputs": [
        {
          "indexed": false,
          "name": "_id",
          "type": "uint256"
        }
      ],
      "name": "CandidateRegistered",
      "type": "event"
    },
    {
      "anonymous": false,
      "inputs": [
        {
          "indexed": false,
          "name": "_id",
          "type": "uint256"
        }
      ],
      "name": "ConstituencyRegistered",
      "type": "event"
    },
    {
      "anonymous": false,
      "inputs": [
        {
          "indexed": true,
          "name": "previousOwner",
          "type": "address"
        },
        {
          "indexed": true,
          "name": "newOwner",
          "type": "address"
        }
      ],
      "name": "OwnershipTransferred",
      "type": "event"
    },
    {
      "constant": false,
      "inputs": [
        {
          "name": "_constituencies",
          "type": "uint256[]"
        },
        {
          "name": "_adminId",
          "type": "uint256"
        }
      ],
      "name": "registerConstituencies",
      "outputs": [],
      "payable": false,
      "stateMutability": "nonpayable",
      "type": "function"
    },
    {
      "constant": false,
      "inputs": [
        {
          "name": "_id",
          "type": "uint256"
        },
        {
          "name": "_constituencyId",
          "type": "uint256"
        },
        {
          "name": "_adminId",
          "type": "uint256"
        }
      ],
      "name": "assignCandidateToConstituency",
      "outputs": [],
      "payable": false,
      "stateMutability": "nonpayable",
      "type": "function"
    },
    {
      "constant": false,
      "inputs": [
        {
          "name": "_id",
          "type": "uint256"
        }
      ],
      "name": "registerAdmin",
      "outputs": [],
      "payable": false,
      "stateMutability": "nonpayable",
      "type": "function"
    }
  ],
  "bytecode": "0x608060405260008060146101000a81548160ff02191690831515021790555034801561002a57600080fd5b50336000806101000a81548173ffffffffffffffffffffffffffffffffffffffff021916908373ffffffffffffffffffffffffffffffffffffffff1602179055506000809054906101000a900473ffffffffffffffffffffffffffffffffffffffff1673ffffffffffffffffffffffffffffffffffffffff16600073ffffffffffffffffffffffffffffffffffffffff167f8be0079c531659141344cd1fd0a4f28419497f9722a3daafe3b4186f6b6457e060405160405180910390a360008060146101000a81548160ff0219169083151502179055506110b6806101106000396000f3fe608060405260043610610112576000357c0100000000000000000000000000000000000000000000000000000000900463ffffffff16806301aa2e03146101175780630f80dcb01461015457806312d51c72146101935780631471e0ab146101bc57806314bfd6d0146101f95780633477ee2e146102365780633b04a6c91461027357806356be1658146102b057806357e2ef10146102ed578063715018a61461032a5780637b013b94146103415780638da5cb5b1461036a5780638f32d59b146103955780639209416a146103c057806394845254146103ff578063aa3e4e1c14610428578063b9a285de14610453578063da58c7d914610490578063f2fde38b146104d1578063f8c70571146104fa575b600080fd5b34801561012357600080fd5b5061013e60048036036101399190810190610e7c565b61053b565b60405161014b9190610f73565b60405180910390f35b34801561016057600080fd5b5061017b60048036036101769190810190610e7c565b610553565b60405161018a93929190610fe1565b60405180910390f35b34801561019f57600080fd5b506101ba60048036036101b59190810190610ea5565b61057d565b005b3480156101c857600080fd5b506101e360048036036101de9190810190610e7c565b610616565b6040516101f09190610f73565b60405180910390f35b34801561020557600080fd5b50610220600480360361021b9190810190610e7c565b61062e565b60405161022d9190610f73565b60405180910390f35b34801561024257600080fd5b5061025d60048036036102589190810190610e7c565b610651565b60405161026a9190610f73565b60405180910390f35b34801561027f57600080fd5b5061029a60048036036102959190810190610e7c565b61067a565b6040516102a79190610f73565b60405180910390f35b3480156102bc57600080fd5b506102d760048036036102d29190810190610e7c565b610692565b6040516102e49190610f73565b60405180910390f35b3480156102f957600080fd5b50610314600480360361030f9190810190610e7c565b6106aa565b6040516103219190610f73565b60405180910390f35b34801561033657600080fd5b5061033f6106c8565b005b34801561034d57600080fd5b5061036860048036036103639190810190610e24565b61079a565b005b34801561037657600080fd5b5061037f61082b565b60405161038c9190610f3d565b60405180910390f35b3480156103a157600080fd5b506103aa610854565b6040516103b79190610f58565b60405180910390f35b3480156103cc57600080fd5b506103e760048036036103e29190810190610e7c565b6108ab565b6040516103f693929190610fe1565b60405180910390f35b34801561040b57600080fd5b5061042660048036036104219190810190610e7c565b6108e4565b005b34801561043457600080fd5b5061043d610926565b60405161044a9190610f58565b60405180910390f35b34801561045f57600080fd5b5061047a60048036036104759190810190610e7c565b610939565b6040516104879190610f73565b60405180910390f35b34801561049c57600080fd5b506104b760048036036104b29190810190610e7c565b610951565b6040516104c8959493929190610f8e565b60405180910390f35b3480156104dd57600080fd5b506104f860048036036104f39190810190610dfb565b6109b8565b005b34801561050657600080fd5b50610521600480360361051c9190810190610e7c565b6109d7565b604051610532959493929190610f8e565b60405180910390f35b60086020528060005260406000206000915090505481565b60036020528060005260406000206000915090508060000154908060010154908060020154905083565b8060008090505b600c8054905081101561060f5781600c828154811015156105a157fe5b906000526020600020015414156105fc576105bc8584610a2f565b8360056000878152602001908152602001600020819055506006600085815260200190815260200160002060008154809291906001019190505550610601565b610602565b5b8080600101915050610584565b5050505050565b60056020528060005260406000206000915090505481565b600c8181548110151561063d57fe5b906000526020600020016000915090505481565b600a8181548110151561066057fe5b906000526020600020016000915090508060000154905081565b60066020528060005260406000206000915090505481565b60046020528060005260406000206000915090505481565b60026020528060005260406000206000915090508060000154905081565b6106d0610854565b15156106db57600080fd5b600073ffffffffffffffffffffffffffffffffffffffff166000809054906101000a900473ffffffffffffffffffffffffffffffffffffffff1673ffffffffffffffffffffffffffffffffffffffff167f8be0079c531659141344cd1fd0a4f28419497f9722a3daafe3b4186f6b6457e060405160405180910390a360008060006101000a81548173ffffffffffffffffffffffffffffffffffffffff021916908373ffffffffffffffffffffffffffffffffffffffff160217905550565b8060008090505b600c805490508110156108245781600c828154811015156107be57fe5b906000526020600020015414156108115760008090505b8585905081101561080b576107fe86868381811015156107f157fe5b9050602002013585610b3f565b80806001019150506107d5565b50610816565b610817565b5b80806001019150506107a1565b5050505050565b60008060009054906101000a900473ffffffffffffffffffffffffffffffffffffffff16905090565b60008060009054906101000a900473ffffffffffffffffffffffffffffffffffffffff1673ffffffffffffffffffffffffffffffffffffffff163373ffffffffffffffffffffffffffffffffffffffff1614905090565b600b818154811015156108ba57fe5b90600052602060002090600302016000915090508060000154908060010154908060020154905083565b6108ec610854565b15156108f757600080fd5b600c81908060018154018082558091505090600182039060005260206000200160009091929091909150555050565b600060149054906101000a900460ff1681565b60076020528060005260406000206000915090505481565b60098181548110151561096057fe5b90600052602060002090600502016000915090508060000154908060010154908060020160009054906101000a900460ff16908060030154908060040160206040519081016040529081600082015481525050905085565b6109c0610854565b15156109cb57600080fd5b6109d481610c8d565b50565b60016020528060005260406000206000915090508060000154908060010154908060020160009054906101000a900460ff16908060030154908060040160206040519081016040529081600082015481525050905085565b8060008090505b600c80549050811015610b395781600c82815481101515610a5357fe5b90600052602060002001541415610b265760006001600a60206040519081016040528088815250908060018154018082558091505090600182039060005260206000200160009091929091909150600082015181600001555050039050600a81815481101515610abf57fe5b9060005260206000200160026000878152602001908152602001600020600082015481600001559050507f43dcee486fabffa2fb551555bfaa5bfcf6a42f2d014032ccef94bf09d83855eb85604051610b189190610f73565b60405180910390a150610b2b565b610b2c565b5b8080600101915050610a36565b50505050565b8060008090505b600c80549050811015610c875781600c82815481101515610b6357fe5b90600052602060002001541415610c745760006001600b606060405190810160405280888152602001600081526020016000815250908060018154018082558091505090600182039060005260206000209060030201600090919290919091506000820151816000015560208201518160010155604082015181600201555050039050600b81815481101515610bf557fe5b9060005260206000209060030201600360008781526020019081526020016000206000820154816000015560018201548160010155600282015481600201559050507f21db1a92fb8efb483c22a581ee7e282b6d79d9d43b559ee1affa34181886796985604051610c669190610f73565b60405180910390a150610c79565b610c7a565b5b8080600101915050610b46565b50505050565b600073ffffffffffffffffffffffffffffffffffffffff168173ffffffffffffffffffffffffffffffffffffffff1614151515610cc957600080fd5b8073ffffffffffffffffffffffffffffffffffffffff166000809054906101000a900473ffffffffffffffffffffffffffffffffffffffff1673ffffffffffffffffffffffffffffffffffffffff167f8be0079c531659141344cd1fd0a4f28419497f9722a3daafe3b4186f6b6457e060405160405180910390a3806000806101000a81548173ffffffffffffffffffffffffffffffffffffffff021916908373ffffffffffffffffffffffffffffffffffffffff16021790555050565b6000610d938235611060565b905092915050565b60008083601f8401121515610daf57600080fd5b8235905067ffffffffffffffff811115610dc857600080fd5b602083019150836020820283011115610de057600080fd5b9250929050565b6000610df38235611072565b905092915050565b600060208284031215610e0d57600080fd5b6000610e1b84828501610d87565b91505092915050565b600080600060408486031215610e3957600080fd5b600084013567ffffffffffffffff811115610e5357600080fd5b610e5f86828701610d9b565b93509350506020610e7286828701610de7565b9150509250925092565b600060208284031215610e8e57600080fd5b6000610e9c84828501610de7565b91505092915050565b600080600060608486031215610eba57600080fd5b6000610ec886828701610de7565b9350506020610ed986828701610de7565b9250506040610eea86828701610de7565b9150509250925092565b610efd81611018565b82525050565b610f0c8161102a565b82525050565b602082016000820151610f286000850182610f2e565b50505050565b610f3781611056565b82525050565b6000602082019050610f526000830184610ef4565b92915050565b6000602082019050610f6d6000830184610f03565b92915050565b6000602082019050610f886000830184610f2e565b92915050565b600060a082019050610fa36000830188610f2e565b610fb06020830187610f2e565b610fbd6040830186610f03565b610fca6060830185610f2e565b610fd76080830184610f12565b9695505050505050565b6000606082019050610ff66000830186610f2e565b6110036020830185610f2e565b6110106040830184610f2e565b949350505050565b600061102382611036565b9050919050565b60008115159050919050565b600073ffffffffffffffffffffffffffffffffffffffff82169050919050565b6000819050919050565b600061106b82611036565b9050919050565b600081905091905056fea265627a7a72305820169901f072a3b9340e552bc1cf571cec562e0784dd2a7928722d9d9f0c3d31976c6578706572696d656e74616cf50037",
  "source": "pragma solidity ^0.5.0;\npragma experimental ABIEncoderV2;\nimport './Ownable.sol';\n\ncontract Election is Ownable{\n  bool public ResultsDeclared = false;\n\n  event VoterCreated(uint256 _id, uint256 _constituencyId);\n  event CandidateRegistered(uint256 _id);\n  event ConstituencyRegistered(uint256 _id);\n\n  struct Vote {\n    uint256 _voteId;\n  }\n\n  struct Voter {\n    uint256 _id;\n    uint256 _constituencyId;\n    bool _hasVoted;\n    uint256 _voteTime;\n    Vote _vote;\n  }\n\n  struct Candidate {\n    uint256 _id;\n  }\n\n  struct Constituency {\n    uint256 _id;\n    uint256 _startTime;\n    uint256 _duration;\n  }\n\n  mapping(uint256 => Voter) public idToVoter;\n  mapping(uint256 => Candidate) public idToCandidate;\n  mapping(uint256 => Constituency) public idToConstituency;\n  mapping(uint256 => uint256) public voteToCandidate;\n  mapping(uint256 => uint256) public candidateToConstituency;\n  mapping(uint256 => uint256) public constituencyCandidateCount;\n  mapping(uint256 => uint256) public constituencyVoterCount;\n  mapping(uint256 => uint256) public candidateVoteCount;\n\n  Voter[] public voters;\n  Candidate[] public candidates;\n  Constituency[] public constituencies;\n  uint256[] public admins;\n\n  modifier onlyUser(uint256 _id) {\n    require(idToVoter[_id]._id != 0);\n    _;\n  }\n\n  modifier onlyAdmin(uint256 _id) {\n    for(uint i = 0; i < admins.length; i++) {\n      if(admins[i] == _id) {\n        _;\n        }\n      else {\n        continue;\n      }\n    }\n  }\n\n  modifier declaredResults() {\n    require(ResultsDeclared == true);\n    _;\n  }\n\n  constructor() public {\n    ResultsDeclared = false;\n  }\n\n  function initializeVote(uint256 _id) internal returns(Vote memory) {\n    Vote memory vote = Vote(_id);\n    return vote;\n  }\n\n  function createVoter(uint256 _id, uint256 _constituencyId) internal {\n    Vote memory vote = initializeVote(_id);\n    uint id = voters.push(Voter(_id, _constituencyId, false, 0, vote)) - 1;\n    idToVoter[_id] = voters[id];\n    constituencyVoterCount[_constituencyId]++;\n    emit VoterCreated(_id, _constituencyId);\n  }\n\n  function registerCandidate(uint256 _id, uint256 _adminId) internal onlyAdmin(_adminId) {\n    uint id = candidates.push(Candidate(_id)) - 1;\n    idToCandidate[_id] = candidates[id];\n    emit CandidateRegistered(_id);\n  }\n\n  function registerConstituency(uint256 _id, uint256 _adminId) internal onlyAdmin(_adminId) {\n    uint id = constituencies.push(Constituency(_id, 0, 0)) - 1;\n    idToConstituency[_id] = constituencies[id];\n    emit ConstituencyRegistered(_id);\n  }\n\n  function registerConstituencies(uint256[] calldata _constituencies, uint256 _adminId) external onlyAdmin(_adminId) {\n    for(uint i = 0; i < _constituencies.length; i++) {\n            registerConstituency(_constituencies[i], _adminId);\n        }\n  }\n\n  function assignCandidateToConstituency(uint256 _id, uint256 _constituencyId, uint256 _adminId) external onlyAdmin(_adminId) {\n    registerCandidate(_id,_adminId);\n    candidateToConstituency[_id] = _constituencyId;\n    constituencyCandidateCount[_constituencyId]++;\n  }\n\n  function registerAdmin(uint256 _id) external onlyOwner {\n    admins.push(_id);\n  }\n\n}",
  "sourcePath": "/home/d3mon/Projects/sudo-rm--rf/contracts/Election.sol",
  "compiler": {
    "name": "solc",
    "version": "0.5.0+commit.1d4f565a.Emscripten.clang"
  },
  "schemaVersion": "3.0.2",
  "updatedAt": "2020-02-06T16:35:32.884Z",
  "devdoc": {
    "methods": {
      "isOwner()": {
        "return": "true if `msg.sender` is the owner of the contract."
      },
      "owner()": {
        "return": "the address of the owner."
      },
      "renounceOwnership()": {
        "details": "Allows the current owner to relinquish control of the contract."
      },
      "transferOwnership(address)": {
        "details": "Allows the current owner to transfer control of the contract to a newOwner.",
        "params": {
          "newOwner": "The address to transfer ownership to."
        }
      }
    }
  },
  "userdoc": {
    "methods": {
      "renounceOwnership()": {
        "notice": "Renouncing to ownership will leave the contract without an owner. It will not be possible to call the functions with the `onlyOwner` modifier anymore."
      }
    }
  }
}