{
  "contractName": "Election",
  "abi": [
    {
      "constant": true,
      "inputs": [
        {
          "name": "",
          "type": "uint256"
        }
      ],
      "name": "candidateVoteCount",
      "outputs": [
        {
          "name": "",
          "type": "uint256"
        }
      ],
      "payable": false,
      "stateMutability": "view",
      "type": "function"
    },
    {
      "constant": true,
      "inputs": [
        {
          "name": "",
          "type": "uint256"
        }
      ],
      "name": "idToConstituency",
      "outputs": [
        {
          "name": "_id",
          "type": "uint256"
        },
        {
          "name": "_startTime",
          "type": "uint256"
        },
        {
          "name": "_duration",
          "type": "uint256"
        }
      ],
      "payable": false,
      "stateMutability": "view",
      "type": "function"
    },
    {
      "constant": true,
      "inputs": [
        {
          "name": "",
          "type": "uint256"
        }
      ],
      "name": "candidateToConstituency",
      "outputs": [
        {
          "name": "",
          "type": "uint256"
        }
      ],
      "payable": false,
      "stateMutability": "view",
      "type": "function"
    },
    {
      "constant": true,
      "inputs": [
        {
          "name": "",
          "type": "uint256"
        }
      ],
      "name": "admins",
      "outputs": [
        {
          "name": "",
          "type": "uint256"
        }
      ],
      "payable": false,
      "stateMutability": "view",
      "type": "function"
    },
    {
      "constant": true,
      "inputs": [
        {
          "name": "",
          "type": "uint256"
        }
      ],
      "name": "candidates",
      "outputs": [
        {
          "name": "_id",
          "type": "uint256"
        }
      ],
      "payable": false,
      "stateMutability": "view",
      "type": "function"
    },
    {
      "constant": true,
      "inputs": [
        {
          "name": "",
          "type": "uint256"
        }
      ],
      "name": "constituencyCandidateCount",
      "outputs": [
        {
          "name": "",
          "type": "uint256"
        }
      ],
      "payable": false,
      "stateMutability": "view",
      "type": "function"
    },
    {
      "constant": true,
      "inputs": [
        {
          "name": "",
          "type": "uint256"
        }
      ],
      "name": "voteToCandidate",
      "outputs": [
        {
          "name": "",
          "type": "uint256"
        }
      ],
      "payable": false,
      "stateMutability": "view",
      "type": "function"
    },
    {
      "constant": true,
      "inputs": [
        {
          "name": "",
          "type": "uint256"
        }
      ],
      "name": "idToCandidate",
      "outputs": [
        {
          "name": "_id",
          "type": "uint256"
        }
      ],
      "payable": false,
      "stateMutability": "view",
      "type": "function"
    },
    {
      "constant": false,
      "inputs": [],
      "name": "renounceOwnership",
      "outputs": [],
      "payable": false,
      "stateMutability": "nonpayable",
      "type": "function"
    },
    {
      "constant": true,
      "inputs": [],
      "name": "owner",
      "outputs": [
        {
          "name": "",
          "type": "address"
        }
      ],
      "payable": false,
      "stateMutability": "view",
      "type": "function"
    },
    {
      "constant": true,
      "inputs": [],
      "name": "isOwner",
      "outputs": [
        {
          "name": "",
          "type": "bool"
        }
      ],
      "payable": false,
      "stateMutability": "view",
      "type": "function"
    },
    {
      "constant": true,
      "inputs": [
        {
          "name": "",
          "type": "uint256"
        }
      ],
      "name": "constituencies",
      "outputs": [
        {
          "name": "_id",
          "type": "uint256"
        },
        {
          "name": "_startTime",
          "type": "uint256"
        },
        {
          "name": "_duration",
          "type": "uint256"
        }
      ],
      "payable": false,
      "stateMutability": "view",
      "type": "function"
    },
    {
      "constant": true,
      "inputs": [],
      "name": "ResultsDeclared",
      "outputs": [
        {
          "name": "",
          "type": "bool"
        }
      ],
      "payable": false,
      "stateMutability": "view",
      "type": "function"
    },
    {
      "constant": true,
      "inputs": [
        {
          "name": "",
          "type": "uint256"
        }
      ],
      "name": "voters",
      "outputs": [
        {
          "name": "_id",
          "type": "uint256"
        },
        {
          "name": "_constituencyId",
          "type": "uint256"
        },
        {
          "name": "_hasVoted",
          "type": "bool"
        },
        {
          "name": "_voteTime",
          "type": "uint256"
        },
        {
          "components": [
            {
              "name": "_voteId",
              "type": "uint256"
            }
          ],
          "name": "_vote",
          "type": "tuple"
        }
      ],
      "payable": false,
      "stateMutability": "view",
      "type": "function"
    },
    {
      "constant": false,
      "inputs": [
        {
          "name": "newOwner",
          "type": "address"
        }
      ],
      "name": "transferOwnership",
      "outputs": [],
      "payable": false,
      "stateMutability": "nonpayable",
      "type": "function"
    },
    {
      "constant": true,
      "inputs": [
        {
          "name": "",
          "type": "uint256"
        }
      ],
      "name": "idToVoter",
      "outputs": [
        {
          "name": "_id",
          "type": "uint256"
        },
        {
          "name": "_constituencyId",
          "type": "uint256"
        },
        {
          "name": "_hasVoted",
          "type": "bool"
        },
        {
          "name": "_voteTime",
          "type": "uint256"
        },
        {
          "components": [
            {
              "name": "_voteId",
              "type": "uint256"
            }
          ],
          "name": "_vote",
          "type": "tuple"
        }
      ],
      "payable": false,
      "stateMutability": "view",
      "type": "function"
    },
    {
      "inputs": [],
      "payable": false,
      "stateMutability": "nonpayable",
      "type": "constructor"
    },
    {
      "anonymous": false,
      "inputs": [
        {
          "indexed": false,
          "name": "_id",
          "type": "uint256"
        },
        {
          "indexed": false,
          "name": "_constituencyId",
          "type": "uint256"
        }
      ],
      "name": "VoterCreated",
      "type": "event"
    },
    {
      "anonymous": false,
      "inputs": [
        {
          "indexed": false,
          "name": "_id",
          "type": "uint256"
        }
      ],
      "name": "CandidateRegistered",
      "type": "event"
    },
    {
      "anonymous": false,
      "inputs": [
        {
          "indexed": false,
          "name": "_id",
          "type": "uint256"
        }
      ],
      "name": "ConstituencyRegistered",
      "type": "event"
    },
    {
      "anonymous": false,
      "inputs": [
        {
          "indexed": true,
          "name": "previousOwner",
          "type": "address"
        },
        {
          "indexed": true,
          "name": "newOwner",
          "type": "address"
        }
      ],
      "name": "OwnershipTransferred",
      "type": "event"
    },
    {
      "constant": false,
      "inputs": [
        {
          "name": "_id",
          "type": "uint256"
        },
        {
          "name": "_adminId",
          "type": "uint256"
        }
      ],
      "name": "registerCandidate",
      "outputs": [],
      "payable": false,
      "stateMutability": "nonpayable",
      "type": "function"
    },
    {
      "constant": false,
      "inputs": [
        {
          "name": "_id",
          "type": "uint256"
        },
        {
          "name": "_adminId",
          "type": "uint256"
        }
      ],
      "name": "registerConstituency",
      "outputs": [],
      "payable": false,
      "stateMutability": "nonpayable",
      "type": "function"
    },
    {
      "constant": false,
      "inputs": [
        {
          "name": "_constituencies",
          "type": "uint256[]"
        },
        {
          "name": "_adminId",
          "type": "uint256"
        }
      ],
      "name": "registerConstituencies",
      "outputs": [],
      "payable": false,
      "stateMutability": "nonpayable",
      "type": "function"
    },
    {
      "constant": false,
      "inputs": [
        {
          "name": "_id",
          "type": "uint256"
        }
      ],
      "name": "registerAdmin",
      "outputs": [],
      "payable": false,
      "stateMutability": "nonpayable",
      "type": "function"
    }
  ],
  "bytecode": "0x608060405260008060146101000a81548160ff02191690831515021790555034801561002a57600080fd5b50336000806101000a81548173ffffffffffffffffffffffffffffffffffffffff021916908373ffffffffffffffffffffffffffffffffffffffff1602179055506000809054906101000a900473ffffffffffffffffffffffffffffffffffffffff1673ffffffffffffffffffffffffffffffffffffffff16600073ffffffffffffffffffffffffffffffffffffffff167f8be0079c531659141344cd1fd0a4f28419497f9722a3daafe3b4186f6b6457e060405160405180910390a360008060146101000a81548160ff021916908315150217905550610fde806101106000396000f3fe608060405260043610610112576000357c0100000000000000000000000000000000000000000000000000000000900463ffffffff16806301aa2e03146101175780630f80dcb0146101545780631471e0ab1461019357806314bfd6d0146101d05780633477ee2e1461020d5780633acab52f1461024a5780633b04a6c91461027357806356be1658146102b057806357e2ef10146102ed5780635d6e50521461032a578063715018a6146103535780637b013b941461036a5780638da5cb5b146103935780638f32d59b146103be5780639209416a146103e95780639484525414610428578063aa3e4e1c14610451578063da58c7d91461047c578063f2fde38b146104bd578063f8c70571146104e6575b600080fd5b34801561012357600080fd5b5061013e60048036036101399190810190610db7565b610527565b60405161014b9190610e9b565b60405180910390f35b34801561016057600080fd5b5061017b60048036036101769190810190610db7565b61053f565b60405161018a93929190610f09565b60405180910390f35b34801561019f57600080fd5b506101ba60048036036101b59190810190610db7565b610569565b6040516101c79190610e9b565b60405180910390f35b3480156101dc57600080fd5b506101f760048036036101f29190810190610db7565b610581565b6040516102049190610e9b565b60405180910390f35b34801561021957600080fd5b50610234600480360361022f9190810190610db7565b6105a4565b6040516102419190610e9b565b60405180910390f35b34801561025657600080fd5b50610271600480360361026c9190810190610de0565b6105cd565b005b34801561027f57600080fd5b5061029a60048036036102959190810190610db7565b61071b565b6040516102a79190610e9b565b60405180910390f35b3480156102bc57600080fd5b506102d760048036036102d29190810190610db7565b610733565b6040516102e49190610e9b565b60405180910390f35b3480156102f957600080fd5b50610314600480360361030f9190810190610db7565b61074b565b6040516103219190610e9b565b60405180910390f35b34801561033657600080fd5b50610351600480360361034c9190810190610de0565b610769565b005b34801561035f57600080fd5b50610368610879565b005b34801561037657600080fd5b50610391600480360361038c9190810190610d5f565b61094b565b005b34801561039f57600080fd5b506103a86109dc565b6040516103b59190610e65565b60405180910390f35b3480156103ca57600080fd5b506103d3610a05565b6040516103e09190610e80565b60405180910390f35b3480156103f557600080fd5b50610410600480360361040b9190810190610db7565b610a5c565b60405161041f93929190610f09565b60405180910390f35b34801561043457600080fd5b5061044f600480360361044a9190810190610db7565b610a95565b005b34801561045d57600080fd5b50610466610ad7565b6040516104739190610e80565b60405180910390f35b34801561048857600080fd5b506104a3600480360361049e9190810190610db7565b610aea565b6040516104b4959493929190610eb6565b60405180910390f35b3480156104c957600080fd5b506104e460048036036104df9190810190610d36565b610b51565b005b3480156104f257600080fd5b5061050d60048036036105089190810190610db7565b610b70565b60405161051e959493929190610eb6565b60405180910390f35b60076020528060005260406000206000915090505481565b60036020528060005260406000206000915090508060000154908060010154908060020154905083565b60056020528060005260406000206000915090505481565b600b8181548110151561059057fe5b906000526020600020016000915090505481565b6009818154811015156105b357fe5b906000526020600020016000915090508060000154905081565b8060008090505b600b805490508110156107155781600b828154811015156105f157fe5b906000526020600020015414156107025760006001600a606060405190810160405280888152602001600081526020016000815250908060018154018082558091505090600182039060005260206000209060030201600090919290919091506000820151816000015560208201518160010155604082015181600201555050039050600a8181548110151561068357fe5b9060005260206000209060030201600360008781526020019081526020016000206000820154816000015560018201548160010155600282015481600201559050507f21db1a92fb8efb483c22a581ee7e282b6d79d9d43b559ee1affa341818867969856040516106f49190610e9b565b60405180910390a150610707565b610708565b5b80806001019150506105d4565b50505050565b60066020528060005260406000206000915090505481565b60046020528060005260406000206000915090505481565b60026020528060005260406000206000915090508060000154905081565b8060008090505b600b805490508110156108735781600b8281548110151561078d57fe5b9060005260206000200154141561086057600060016009602060405190810160405280888152509080600181540180825580915050906001820390600052602060002001600090919290919091506000820151816000015550500390506009818154811015156107f957fe5b9060005260206000200160026000878152602001908152602001600020600082015481600001559050507f43dcee486fabffa2fb551555bfaa5bfcf6a42f2d014032ccef94bf09d83855eb856040516108529190610e9b565b60405180910390a150610865565b610866565b5b8080600101915050610770565b50505050565b610881610a05565b151561088c57600080fd5b600073ffffffffffffffffffffffffffffffffffffffff166000809054906101000a900473ffffffffffffffffffffffffffffffffffffffff1673ffffffffffffffffffffffffffffffffffffffff167f8be0079c531659141344cd1fd0a4f28419497f9722a3daafe3b4186f6b6457e060405160405180910390a360008060006101000a81548173ffffffffffffffffffffffffffffffffffffffff021916908373ffffffffffffffffffffffffffffffffffffffff160217905550565b8060008090505b600b805490508110156109d55781600b8281548110151561096f57fe5b906000526020600020015414156109c25760008090505b858590508110156109bc576109af86868381811015156109a257fe5b90506020020135856105cd565b8080600101915050610986565b506109c7565b6109c8565b5b8080600101915050610952565b5050505050565b60008060009054906101000a900473ffffffffffffffffffffffffffffffffffffffff16905090565b60008060009054906101000a900473ffffffffffffffffffffffffffffffffffffffff1673ffffffffffffffffffffffffffffffffffffffff163373ffffffffffffffffffffffffffffffffffffffff1614905090565b600a81815481101515610a6b57fe5b90600052602060002090600302016000915090508060000154908060010154908060020154905083565b610a9d610a05565b1515610aa857600080fd5b600b81908060018154018082558091505090600182039060005260206000200160009091929091909150555050565b600060149054906101000a900460ff1681565b600881815481101515610af957fe5b90600052602060002090600502016000915090508060000154908060010154908060020160009054906101000a900460ff16908060030154908060040160206040519081016040529081600082015481525050905085565b610b59610a05565b1515610b6457600080fd5b610b6d81610bc8565b50565b60016020528060005260406000206000915090508060000154908060010154908060020160009054906101000a900460ff16908060030154908060040160206040519081016040529081600082015481525050905085565b600073ffffffffffffffffffffffffffffffffffffffff168173ffffffffffffffffffffffffffffffffffffffff1614151515610c0457600080fd5b8073ffffffffffffffffffffffffffffffffffffffff166000809054906101000a900473ffffffffffffffffffffffffffffffffffffffff1673ffffffffffffffffffffffffffffffffffffffff167f8be0079c531659141344cd1fd0a4f28419497f9722a3daafe3b4186f6b6457e060405160405180910390a3806000806101000a81548173ffffffffffffffffffffffffffffffffffffffff021916908373ffffffffffffffffffffffffffffffffffffffff16021790555050565b6000610cce8235610f88565b905092915050565b60008083601f8401121515610cea57600080fd5b8235905067ffffffffffffffff811115610d0357600080fd5b602083019150836020820283011115610d1b57600080fd5b9250929050565b6000610d2e8235610f9a565b905092915050565b600060208284031215610d4857600080fd5b6000610d5684828501610cc2565b91505092915050565b600080600060408486031215610d7457600080fd5b600084013567ffffffffffffffff811115610d8e57600080fd5b610d9a86828701610cd6565b93509350506020610dad86828701610d22565b9150509250925092565b600060208284031215610dc957600080fd5b6000610dd784828501610d22565b91505092915050565b60008060408385031215610df357600080fd5b6000610e0185828601610d22565b9250506020610e1285828601610d22565b9150509250929050565b610e2581610f40565b82525050565b610e3481610f52565b82525050565b602082016000820151610e506000850182610e56565b50505050565b610e5f81610f7e565b82525050565b6000602082019050610e7a6000830184610e1c565b92915050565b6000602082019050610e956000830184610e2b565b92915050565b6000602082019050610eb06000830184610e56565b92915050565b600060a082019050610ecb6000830188610e56565b610ed86020830187610e56565b610ee56040830186610e2b565b610ef26060830185610e56565b610eff6080830184610e3a565b9695505050505050565b6000606082019050610f1e6000830186610e56565b610f2b6020830185610e56565b610f386040830184610e56565b949350505050565b6000610f4b82610f5e565b9050919050565b60008115159050919050565b600073ffffffffffffffffffffffffffffffffffffffff82169050919050565b6000819050919050565b6000610f9382610f5e565b9050919050565b600081905091905056fea265627a7a723058201953cd79692e98eeeff3e74911991634aa8c447b616218316e5e8f697da510f56c6578706572696d656e74616cf50037",
  "source": "pragma solidity ^0.5.0;\npragma experimental ABIEncoderV2;\nimport './Ownable.sol';\n\ncontract Election is Ownable{\n  bool public ResultsDeclared = false;\n\n  event VoterCreated(uint256 _id, uint256 _constituencyId);\n  event CandidateRegistered(uint256 _id);\n  event ConstituencyRegistered(uint256 _id);\n\n  struct Vote {\n    uint256 _voteId;\n  }\n\n  struct Voter {\n    uint256 _id;\n    uint256 _constituencyId;\n    bool _hasVoted;\n    uint256 _voteTime;\n    Vote _vote;\n  }\n\n  struct Candidate {\n    uint256 _id;\n  }\n\n  struct Constituency {\n    uint256 _id;\n    uint256 _startTime;\n    uint256 _duration;\n  }\n\n  mapping(uint256 => Voter) public idToVoter;\n  mapping(uint256 => Candidate) public idToCandidate;\n  mapping(uint256 => Constituency) public idToConstituency;\n  mapping(uint256 => uint256) public voteToCandidate;\n  mapping(uint256 => uint256) public candidateToConstituency;\n  mapping(uint256 => uint256) public constituencyCandidateCount;\n  mapping(uint256 => uint256) public candidateVoteCount;\n\n  Voter[] public voters;\n  Candidate[] public candidates;\n  Constituency[] public constituencies;\n  uint256[] public admins;\n\n  modifier onlyUser(uint256 _id) {\n    require(idToVoter[_id]._id != 0);\n    _;\n  }\n\n  modifier onlyAdmin(uint256 _id) {\n    for(uint i = 0; i < admins.length; i++) {\n      if(admins[i] == _id) {\n        _;\n        }\n      else {\n        continue;\n      }\n    }\n  }\n\n  modifier declaredResults() {\n    require(ResultsDeclared == true);\n    _;\n  }\n\n  constructor() public {\n    ResultsDeclared = false;\n  }\n\n  function initializeVote(uint256 _id) internal returns(Vote memory) {\n    Vote memory vote = Vote(_id);\n    return vote;\n  }\n\n  function createVoter(uint256 _id, uint256 _constituencyId) internal {\n    Vote memory vote = initializeVote(_id);\n    uint id = voters.push(Voter(_id, _constituencyId, false, 0, vote)) - 1;\n    idToVoter[_id] = voters[id];\n    emit VoterCreated(_id, _constituencyId);\n  }\n\n  function registerCandidate(uint256 _id, uint256 _adminId) external onlyAdmin(_adminId) {\n    uint id = candidates.push(Candidate(_id)) - 1;\n    idToCandidate[_id] = candidates[id];\n    emit CandidateRegistered(_id);\n  }\n\n  function registerConstituency(uint256 _id, uint256 _adminId) public onlyAdmin(_adminId) {\n    uint id = constituencies.push(Constituency(_id, 0, 0)) - 1;\n    idToConstituency[_id] = constituencies[id];\n    emit ConstituencyRegistered(_id);\n  }\n\n  function registerConstituencies(uint256[] calldata _constituencies, uint256 _adminId) external onlyAdmin(_adminId) {\n    for(uint i = 0; i < _constituencies.length; i++) {\n            registerConstituency(_constituencies[i], _adminId);\n        }\n  }\n\n  function registerAdmin(uint256 _id) external onlyOwner {\n    admins.push(_id);\n  }\n\n}",
  "sourcePath": "/home/d3mon/Projects/sudo-rm--rf/contracts/Election.sol",
  "compiler": {
    "name": "solc",
    "version": "0.5.0+commit.1d4f565a.Emscripten.clang"
  },
  "schemaVersion": "3.0.2",
  "updatedAt": "2020-02-04T08:01:47.504Z",
  "devdoc": {
    "methods": {
      "isOwner()": {
        "return": "true if `msg.sender` is the owner of the contract."
      },
      "owner()": {
        "return": "the address of the owner."
      },
      "renounceOwnership()": {
        "details": "Allows the current owner to relinquish control of the contract."
      },
      "transferOwnership(address)": {
        "details": "Allows the current owner to transfer control of the contract to a newOwner.",
        "params": {
          "newOwner": "The address to transfer ownership to."
        }
      }
    }
  },
  "userdoc": {
    "methods": {
      "renounceOwnership()": {
        "notice": "Renouncing to ownership will leave the contract without an owner. It will not be possible to call the functions with the `onlyOwner` modifier anymore."
      }
    }
  }
}