{
  "contractName": "Election",
  "abi": [
    {
      "constant": true,
      "inputs": [
        {
          "name": "",
          "type": "uint256"
        }
      ],
      "name": "admins",
      "outputs": [
        {
          "name": "",
          "type": "uint256"
        }
      ],
      "payable": false,
      "stateMutability": "view",
      "type": "function"
    },
    {
      "constant": true,
      "inputs": [
        {
          "name": "",
          "type": "uint256"
        }
      ],
      "name": "candidates",
      "outputs": [
        {
          "name": "_id",
          "type": "uint256"
        }
      ],
      "payable": false,
      "stateMutability": "view",
      "type": "function"
    },
    {
      "constant": false,
      "inputs": [],
      "name": "renounceOwnership",
      "outputs": [],
      "payable": false,
      "stateMutability": "nonpayable",
      "type": "function"
    },
    {
      "constant": true,
      "inputs": [],
      "name": "owner",
      "outputs": [
        {
          "name": "",
          "type": "address"
        }
      ],
      "payable": false,
      "stateMutability": "view",
      "type": "function"
    },
    {
      "constant": true,
      "inputs": [],
      "name": "isOwner",
      "outputs": [
        {
          "name": "",
          "type": "bool"
        }
      ],
      "payable": false,
      "stateMutability": "view",
      "type": "function"
    },
    {
      "constant": true,
      "inputs": [
        {
          "name": "",
          "type": "uint256"
        }
      ],
      "name": "constituencies",
      "outputs": [
        {
          "name": "_id",
          "type": "uint256"
        },
        {
          "name": "_startTime",
          "type": "uint256"
        },
        {
          "name": "_duration",
          "type": "uint256"
        }
      ],
      "payable": false,
      "stateMutability": "view",
      "type": "function"
    },
    {
      "constant": true,
      "inputs": [
        {
          "name": "",
          "type": "uint256"
        }
      ],
      "name": "voters",
      "outputs": [
        {
          "name": "_id",
          "type": "uint256"
        },
        {
          "name": "_constituencyId",
          "type": "uint256"
        },
        {
          "name": "_hasVoted",
          "type": "bool"
        },
        {
          "components": [
            {
              "name": "_voteId",
              "type": "bytes32"
            },
            {
              "name": "_votedId",
              "type": "uint256"
            },
            {
              "name": "_voteTime",
              "type": "uint64"
            }
          ],
          "name": "_vote",
          "type": "tuple"
        }
      ],
      "payable": false,
      "stateMutability": "view",
      "type": "function"
    },
    {
      "constant": false,
      "inputs": [
        {
          "name": "newOwner",
          "type": "address"
        }
      ],
      "name": "transferOwnership",
      "outputs": [],
      "payable": false,
      "stateMutability": "nonpayable",
      "type": "function"
    },
    {
      "anonymous": false,
      "inputs": [
        {
          "indexed": false,
          "name": "_id",
          "type": "uint256"
        },
        {
          "indexed": false,
          "name": "_voterId",
          "type": "uint256"
        }
      ],
      "name": "VoterCreated",
      "type": "event"
    },
    {
      "anonymous": false,
      "inputs": [
        {
          "indexed": false,
          "name": "_id",
          "type": "uint256"
        }
      ],
      "name": "CandidateRegistered",
      "type": "event"
    },
    {
      "anonymous": false,
      "inputs": [
        {
          "indexed": false,
          "name": "_id",
          "type": "uint256"
        }
      ],
      "name": "ConstituencyRegistered",
      "type": "event"
    },
    {
      "anonymous": false,
      "inputs": [
        {
          "indexed": true,
          "name": "previousOwner",
          "type": "address"
        },
        {
          "indexed": true,
          "name": "newOwner",
          "type": "address"
        }
      ],
      "name": "OwnershipTransferred",
      "type": "event"
    },
    {
      "constant": false,
      "inputs": [
        {
          "name": "_id",
          "type": "uint256"
        },
        {
          "name": "_adminId",
          "type": "uint256"
        }
      ],
      "name": "registerCandidate",
      "outputs": [],
      "payable": false,
      "stateMutability": "nonpayable",
      "type": "function"
    },
    {
      "constant": false,
      "inputs": [
        {
          "name": "_id",
          "type": "uint256"
        },
        {
          "name": "_adminId",
          "type": "uint256"
        }
      ],
      "name": "registerConstituency",
      "outputs": [],
      "payable": false,
      "stateMutability": "nonpayable",
      "type": "function"
    },
    {
      "constant": false,
      "inputs": [
        {
          "name": "_id",
          "type": "uint256"
        }
      ],
      "name": "registerAdmin",
      "outputs": [],
      "payable": false,
      "stateMutability": "nonpayable",
      "type": "function"
    }
  ],
  "bytecode": "0x60806040526060604051908101604052806000600102815260200160008152602001600067ffffffffffffffff168152506001600082015181600001556020820151816001015560408201518160020160006101000a81548167ffffffffffffffff021916908367ffffffffffffffff16021790555050506000600460006101000a81548160ff021916908315150217905550336000806101000a81548173ffffffffffffffffffffffffffffffffffffffff021916908373ffffffffffffffffffffffffffffffffffffffff1602179055506000809054906101000a900473ffffffffffffffffffffffffffffffffffffffff1673ffffffffffffffffffffffffffffffffffffffff16600073ffffffffffffffffffffffffffffffffffffffff167f8be0079c531659141344cd1fd0a4f28419497f9722a3daafe3b4186f6b6457e060405160405180910390a3610bb78061015d6000396000f3fe6080604052600436106100af576000357c0100000000000000000000000000000000000000000000000000000000900463ffffffff16806314bfd6d0146100b45780633477ee2e146100f15780633acab52f1461012e5780635d6e505214610157578063715018a6146101805780638da5cb5b146101975780638f32d59b146101c25780639209416a146101ed578063948452541461022c578063da58c7d914610255578063f2fde38b14610295575b600080fd5b3480156100c057600080fd5b506100db60048036036100d6919081019061093c565b6102be565b6040516100e89190610a64565b60405180910390f35b3480156100fd57600080fd5b506101186004803603610113919081019061093c565b6102e1565b6040516101259190610a64565b60405180910390f35b34801561013a57600080fd5b5061015560048036036101509190810190610965565b61030a565b005b34801561016357600080fd5b5061017e60048036036101799190810190610965565b610458565b005b34801561018c57600080fd5b50610195610568565b005b3480156101a357600080fd5b506101ac61063a565b6040516101b99190610a2e565b60405180910390f35b3480156101ce57600080fd5b506101d7610663565b6040516101e49190610a49565b60405180910390f35b3480156101f957600080fd5b50610214600480360361020f919081019061093c565b6106ba565b60405161022393929190610ac4565b60405180910390f35b34801561023857600080fd5b50610253600480360361024e919081019061093c565b6106f3565b005b34801561026157600080fd5b5061027c6004803603610277919081019061093c565b610735565b60405161028c9493929190610a7f565b60405180910390f35b3480156102a157600080fd5b506102bc60048036036102b79190810190610913565b6107d2565b005b600f818154811015156102cd57fe5b906000526020600020016000915090505481565b600d818154811015156102f057fe5b906000526020600020016000915090508060000154905081565b8060008090505b600f805490508110156104525781600f8281548110151561032e57fe5b9060005260206000200154141561043f5760006001600e606060405190810160405280888152602001600081526020016000815250908060018154018082558091505090600182039060005260206000209060030201600090919290919091506000820151816000015560208201518160010155604082015181600201555050039050600e818154811015156103c057fe5b9060005260206000209060030201600760008781526020019081526020016000206000820154816000015560018201548160010155600282015481600201559050507f21db1a92fb8efb483c22a581ee7e282b6d79d9d43b559ee1affa341818867969856040516104319190610a64565b60405180910390a150610444565b610445565b5b8080600101915050610311565b50505050565b8060008090505b600f805490508110156105625781600f8281548110151561047c57fe5b9060005260206000200154141561054f5760006001600d60206040519081016040528088815250908060018154018082558091505090600182039060005260206000200160009091929091909150600082015181600001555050039050600d818154811015156104e857fe5b9060005260206000200160066000878152602001908152602001600020600082015481600001559050507f43dcee486fabffa2fb551555bfaa5bfcf6a42f2d014032ccef94bf09d83855eb856040516105419190610a64565b60405180910390a150610554565b610555565b5b808060010191505061045f565b50505050565b610570610663565b151561057b57600080fd5b600073ffffffffffffffffffffffffffffffffffffffff166000809054906101000a900473ffffffffffffffffffffffffffffffffffffffff1673ffffffffffffffffffffffffffffffffffffffff167f8be0079c531659141344cd1fd0a4f28419497f9722a3daafe3b4186f6b6457e060405160405180910390a360008060006101000a81548173ffffffffffffffffffffffffffffffffffffffff021916908373ffffffffffffffffffffffffffffffffffffffff160217905550565b60008060009054906101000a900473ffffffffffffffffffffffffffffffffffffffff16905090565b60008060009054906101000a900473ffffffffffffffffffffffffffffffffffffffff1673ffffffffffffffffffffffffffffffffffffffff163373ffffffffffffffffffffffffffffffffffffffff1614905090565b600e818154811015156106c957fe5b90600052602060002090600302016000915090508060000154908060010154908060020154905083565b6106fb610663565b151561070657600080fd5b600f81908060018154018082558091505090600182039060005260206000200160009091929091909150555050565b600c8181548110151561074457fe5b90600052602060002090600602016000915090508060000154908060010154908060020160009054906101000a900460ff1690806003016060604051908101604052908160008201548152602001600182015481526020016002820160009054906101000a900467ffffffffffffffff1667ffffffffffffffff1667ffffffffffffffff1681525050905084565b6107da610663565b15156107e557600080fd5b6107ee816107f1565b50565b600073ffffffffffffffffffffffffffffffffffffffff168173ffffffffffffffffffffffffffffffffffffffff161415151561082d57600080fd5b8073ffffffffffffffffffffffffffffffffffffffff166000809054906101000a900473ffffffffffffffffffffffffffffffffffffffff1673ffffffffffffffffffffffffffffffffffffffff167f8be0079c531659141344cd1fd0a4f28419497f9722a3daafe3b4186f6b6457e060405160405180910390a3806000806101000a81548173ffffffffffffffffffffffffffffffffffffffff021916908373ffffffffffffffffffffffffffffffffffffffff16021790555050565b60006108f78235610b61565b905092915050565b600061090b8235610b73565b905092915050565b60006020828403121561092557600080fd5b6000610933848285016108eb565b91505092915050565b60006020828403121561094e57600080fd5b600061095c848285016108ff565b91505092915050565b6000806040838503121561097857600080fd5b6000610986858286016108ff565b9250506020610997858286016108ff565b9150509250929050565b6109aa81610afb565b82525050565b6109b981610b0d565b82525050565b6109c881610b19565b82525050565b6060820160008201516109e460008501826109bf565b5060208201516109f76020850182610a10565b506040820151610a0a6040850182610a1f565b50505050565b610a1981610b43565b82525050565b610a2881610b4d565b82525050565b6000602082019050610a4360008301846109a1565b92915050565b6000602082019050610a5e60008301846109b0565b92915050565b6000602082019050610a796000830184610a10565b92915050565b600060c082019050610a946000830187610a10565b610aa16020830186610a10565b610aae60408301856109b0565b610abb60608301846109ce565b95945050505050565b6000606082019050610ad96000830186610a10565b610ae66020830185610a10565b610af36040830184610a10565b949350505050565b6000610b0682610b23565b9050919050565b60008115159050919050565b6000819050919050565b600073ffffffffffffffffffffffffffffffffffffffff82169050919050565b6000819050919050565b600067ffffffffffffffff82169050919050565b6000610b6c82610b23565b9050919050565b600081905091905056fea265627a7a7230582092b4cb15612a88cc66e45aa2673d28d5b15f9856f249caba3f7cc420f90aca966c6578706572696d656e74616cf50037",
  "source": "pragma solidity ^0.5.0;\npragma experimental ABIEncoderV2;\nimport './Ownable.sol';\n\ncontract Election is Ownable{\n\n  event VoterCreated(uint256 _id, uint256 _voterId);\n  event CandidateRegistered(uint256 _id);\n  event ConstituencyRegistered(uint256 _id);\n\n  struct Vote {\n    bytes32 _voteId;\n    uint256 _votedId;\n    uint64 _voteTime;\n  }\n\n  struct Voter {\n    uint256 _id;\n    uint256 _constituencyId;\n    bool _hasVoted;\n    Vote _vote;\n  }\n\n  struct Candidate {\n    uint256 _id;\n  }\n\n  struct Constituency {\n    uint256 _id;\n    uint256 _startTime;\n    uint256 _duration;\n  }\n\n  Vote InitialVoteState = Vote(0, 0, 0);\n  bool ResultsDeclared = false;\n\n  mapping(uint256 => Voter) internal idToVoter;\n  mapping(uint256 => Candidate) internal idToCandidate;\n  mapping(uint256 => Constituency) internal idToConstituency;\n  mapping(bytes32 => uint256) internal voteToCandidate;\n  mapping(uint256 => uint256) internal candidateToConstituency;\n  mapping(uint256 => uint256) internal constituencyCandidateCount;\n  mapping(uint256 => uint256) internal candidateVoteCount;\n\n  Voter[] public voters;\n  Candidate[] public candidates;\n  Constituency[] public constituencies;\n  uint256[] public admins;\n\n  modifier onlyUser(uint256 _id) {\n    require(idToVoter[_id]._id != 0);\n    _;\n  }\n\n  modifier onlyAdmin(uint256 _id) {\n    for(uint i = 0; i < admins.length; i++) {\n      if(admins[i] == _id) {\n        _;\n        }\n      else {\n        continue;\n      }\n    }\n  }\n\n  modifier declaredResults() {\n    require(ResultsDeclared == true);\n    _;\n  }\n\n  function createVoter(uint256 _id, uint256 _constituencyId) internal {\n    uint id = voters.push(Voter(_id, _constituencyId, false, InitialVoteState)) - 1;\n    idToVoter[_id] = voters[id];\n    emit VoterCreated(_id, _constituencyId);\n  }\n\n  function registerCandidate(uint256 _id, uint256 _adminId) external onlyAdmin(_adminId) {\n    uint id = candidates.push(Candidate(_id)) - 1;\n    idToCandidate[_id] = candidates[id];\n    emit CandidateRegistered(_id);\n  }\n\n  function registerConstituency(uint256 _id, uint256 _adminId) external onlyAdmin(_adminId) {\n    uint id = constituencies.push(Constituency(_id, 0, 0)) - 1;\n    idToConstituency[_id] = constituencies[id];\n    emit ConstituencyRegistered(_id);\n  }\n\n  function registerAdmin(uint256 _id) external onlyOwner {\n    admins.push(_id);\n  }\n\n}",
  "sourcePath": "/home/d3mon/Projects/sudo-rm--rf/contracts/Election.sol",
  "compiler": {
    "name": "solc",
    "version": "0.5.0+commit.1d4f565a.Emscripten.clang"
  },
  "schemaVersion": "3.0.2",
  "updatedAt": "2019-12-21T10:19:28.235Z",
  "devdoc": {
    "methods": {
      "isOwner()": {
        "return": "true if `msg.sender` is the owner of the contract."
      },
      "owner()": {
        "return": "the address of the owner."
      },
      "renounceOwnership()": {
        "details": "Allows the current owner to relinquish control of the contract."
      },
      "transferOwnership(address)": {
        "details": "Allows the current owner to transfer control of the contract to a newOwner.",
        "params": {
          "newOwner": "The address to transfer ownership to."
        }
      }
    }
  },
  "userdoc": {
    "methods": {
      "renounceOwnership()": {
        "notice": "Renouncing to ownership will leave the contract without an owner. It will not be possible to call the functions with the `onlyOwner` modifier anymore."
      }
    }
  }
}