{
  "contractName": "Election",
  "abi": [
    {
      "constant": true,
      "inputs": [
        {
          "name": "",
          "type": "uint256"
        }
      ],
      "name": "candidateVoteCount",
      "outputs": [
        {
          "name": "",
          "type": "uint256"
        }
      ],
      "payable": false,
      "stateMutability": "view",
      "type": "function"
    },
    {
      "constant": true,
      "inputs": [
        {
          "name": "",
          "type": "uint256"
        }
      ],
      "name": "idToConstituency",
      "outputs": [
        {
          "name": "_id",
          "type": "uint256"
        },
        {
          "name": "_startTime",
          "type": "uint256"
        },
        {
          "name": "_duration",
          "type": "uint256"
        }
      ],
      "payable": false,
      "stateMutability": "view",
      "type": "function"
    },
    {
      "constant": true,
      "inputs": [
        {
          "name": "",
          "type": "uint256"
        }
      ],
      "name": "candidateToConstituency",
      "outputs": [
        {
          "name": "",
          "type": "uint256"
        }
      ],
      "payable": false,
      "stateMutability": "view",
      "type": "function"
    },
    {
      "constant": true,
      "inputs": [
        {
          "name": "",
          "type": "uint256"
        }
      ],
      "name": "admins",
      "outputs": [
        {
          "name": "",
          "type": "uint256"
        }
      ],
      "payable": false,
      "stateMutability": "view",
      "type": "function"
    },
    {
      "constant": true,
      "inputs": [
        {
          "name": "",
          "type": "uint256"
        }
      ],
      "name": "candidates",
      "outputs": [
        {
          "name": "_id",
          "type": "uint256"
        }
      ],
      "payable": false,
      "stateMutability": "view",
      "type": "function"
    },
    {
      "constant": true,
      "inputs": [
        {
          "name": "",
          "type": "uint256"
        }
      ],
      "name": "constituencyCandidateCount",
      "outputs": [
        {
          "name": "",
          "type": "uint256"
        }
      ],
      "payable": false,
      "stateMutability": "view",
      "type": "function"
    },
    {
      "constant": true,
      "inputs": [
        {
          "name": "",
          "type": "uint256"
        }
      ],
      "name": "voteToCandidate",
      "outputs": [
        {
          "name": "",
          "type": "uint256"
        }
      ],
      "payable": false,
      "stateMutability": "view",
      "type": "function"
    },
    {
      "constant": true,
      "inputs": [
        {
          "name": "",
          "type": "uint256"
        }
      ],
      "name": "idToCandidate",
      "outputs": [
        {
          "name": "_id",
          "type": "uint256"
        }
      ],
      "payable": false,
      "stateMutability": "view",
      "type": "function"
    },
    {
      "constant": false,
      "inputs": [],
      "name": "renounceOwnership",
      "outputs": [],
      "payable": false,
      "stateMutability": "nonpayable",
      "type": "function"
    },
    {
      "constant": true,
      "inputs": [],
      "name": "owner",
      "outputs": [
        {
          "name": "",
          "type": "address"
        }
      ],
      "payable": false,
      "stateMutability": "view",
      "type": "function"
    },
    {
      "constant": true,
      "inputs": [],
      "name": "isOwner",
      "outputs": [
        {
          "name": "",
          "type": "bool"
        }
      ],
      "payable": false,
      "stateMutability": "view",
      "type": "function"
    },
    {
      "constant": true,
      "inputs": [
        {
          "name": "",
          "type": "uint256"
        }
      ],
      "name": "constituencies",
      "outputs": [
        {
          "name": "_id",
          "type": "uint256"
        },
        {
          "name": "_startTime",
          "type": "uint256"
        },
        {
          "name": "_duration",
          "type": "uint256"
        }
      ],
      "payable": false,
      "stateMutability": "view",
      "type": "function"
    },
    {
      "constant": true,
      "inputs": [],
      "name": "ResultsDeclared",
      "outputs": [
        {
          "name": "",
          "type": "bool"
        }
      ],
      "payable": false,
      "stateMutability": "view",
      "type": "function"
    },
    {
      "constant": true,
      "inputs": [
        {
          "name": "",
          "type": "uint256"
        }
      ],
      "name": "voters",
      "outputs": [
        {
          "name": "_id",
          "type": "uint256"
        },
        {
          "name": "_constituencyId",
          "type": "uint256"
        },
        {
          "name": "_hasVoted",
          "type": "bool"
        },
        {
          "name": "_voteTime",
          "type": "uint256"
        },
        {
          "components": [
            {
              "name": "_voteId",
              "type": "uint256"
            }
          ],
          "name": "_vote",
          "type": "tuple"
        }
      ],
      "payable": false,
      "stateMutability": "view",
      "type": "function"
    },
    {
      "constant": false,
      "inputs": [
        {
          "name": "newOwner",
          "type": "address"
        }
      ],
      "name": "transferOwnership",
      "outputs": [],
      "payable": false,
      "stateMutability": "nonpayable",
      "type": "function"
    },
    {
      "constant": true,
      "inputs": [
        {
          "name": "",
          "type": "uint256"
        }
      ],
      "name": "idToVoter",
      "outputs": [
        {
          "name": "_id",
          "type": "uint256"
        },
        {
          "name": "_constituencyId",
          "type": "uint256"
        },
        {
          "name": "_hasVoted",
          "type": "bool"
        },
        {
          "name": "_voteTime",
          "type": "uint256"
        },
        {
          "components": [
            {
              "name": "_voteId",
              "type": "uint256"
            }
          ],
          "name": "_vote",
          "type": "tuple"
        }
      ],
      "payable": false,
      "stateMutability": "view",
      "type": "function"
    },
    {
      "inputs": [],
      "payable": false,
      "stateMutability": "nonpayable",
      "type": "constructor"
    },
    {
      "anonymous": false,
      "inputs": [
        {
          "indexed": false,
          "name": "_id",
          "type": "uint256"
        },
        {
          "indexed": false,
          "name": "_constituencyId",
          "type": "uint256"
        }
      ],
      "name": "VoterCreated",
      "type": "event"
    },
    {
      "anonymous": false,
      "inputs": [
        {
          "indexed": false,
          "name": "_id",
          "type": "uint256"
        }
      ],
      "name": "CandidateRegistered",
      "type": "event"
    },
    {
      "anonymous": false,
      "inputs": [
        {
          "indexed": false,
          "name": "_id",
          "type": "uint256"
        }
      ],
      "name": "ConstituencyRegistered",
      "type": "event"
    },
    {
      "anonymous": false,
      "inputs": [
        {
          "indexed": true,
          "name": "previousOwner",
          "type": "address"
        },
        {
          "indexed": true,
          "name": "newOwner",
          "type": "address"
        }
      ],
      "name": "OwnershipTransferred",
      "type": "event"
    },
    {
      "constant": false,
      "inputs": [
        {
          "name": "_constituencies",
          "type": "uint256[]"
        },
        {
          "name": "_adminId",
          "type": "uint256"
        }
      ],
      "name": "registerConstituencies",
      "outputs": [],
      "payable": false,
      "stateMutability": "nonpayable",
      "type": "function"
    },
    {
      "constant": false,
      "inputs": [
        {
          "name": "_id",
          "type": "uint256"
        },
        {
          "name": "_constituencyId",
          "type": "uint256"
        },
        {
          "name": "_adminId",
          "type": "uint256"
        }
      ],
      "name": "assignCandidateToConstituency",
      "outputs": [],
      "payable": false,
      "stateMutability": "nonpayable",
      "type": "function"
    },
    {
      "constant": false,
      "inputs": [
        {
          "name": "_id",
          "type": "uint256"
        }
      ],
      "name": "registerAdmin",
      "outputs": [],
      "payable": false,
      "stateMutability": "nonpayable",
      "type": "function"
    }
  ],
  "bytecode": "0x608060405260008060146101000a81548160ff02191690831515021790555034801561002a57600080fd5b50336000806101000a81548173ffffffffffffffffffffffffffffffffffffffff021916908373ffffffffffffffffffffffffffffffffffffffff1602179055506000809054906101000a900473ffffffffffffffffffffffffffffffffffffffff1673ffffffffffffffffffffffffffffffffffffffff16600073ffffffffffffffffffffffffffffffffffffffff167f8be0079c531659141344cd1fd0a4f28419497f9722a3daafe3b4186f6b6457e060405160405180910390a360008060146101000a81548160ff021916908315150217905550611056806101106000396000f3fe608060405260043610610107576000357c0100000000000000000000000000000000000000000000000000000000900463ffffffff16806301aa2e031461010c5780630f80dcb01461014957806312d51c72146101885780631471e0ab146101b157806314bfd6d0146101ee5780633477ee2e1461022b5780633b04a6c91461026857806356be1658146102a557806357e2ef10146102e2578063715018a61461031f5780637b013b94146103365780638da5cb5b1461035f5780638f32d59b1461038a5780639209416a146103b557806394845254146103f4578063aa3e4e1c1461041d578063da58c7d914610448578063f2fde38b14610489578063f8c70571146104b2575b600080fd5b34801561011857600080fd5b50610133600480360361012e9190810190610e1c565b6104f3565b6040516101409190610f13565b60405180910390f35b34801561015557600080fd5b50610170600480360361016b9190810190610e1c565b61050b565b60405161017f93929190610f81565b60405180910390f35b34801561019457600080fd5b506101af60048036036101aa9190810190610e45565b610535565b005b3480156101bd57600080fd5b506101d860048036036101d39190810190610e1c565b6105ce565b6040516101e59190610f13565b60405180910390f35b3480156101fa57600080fd5b5061021560048036036102109190810190610e1c565b6105e6565b6040516102229190610f13565b60405180910390f35b34801561023757600080fd5b50610252600480360361024d9190810190610e1c565b610609565b60405161025f9190610f13565b60405180910390f35b34801561027457600080fd5b5061028f600480360361028a9190810190610e1c565b610632565b60405161029c9190610f13565b60405180910390f35b3480156102b157600080fd5b506102cc60048036036102c79190810190610e1c565b61064a565b6040516102d99190610f13565b60405180910390f35b3480156102ee57600080fd5b5061030960048036036103049190810190610e1c565b610662565b6040516103169190610f13565b60405180910390f35b34801561032b57600080fd5b50610334610680565b005b34801561034257600080fd5b5061035d60048036036103589190810190610dc4565b610752565b005b34801561036b57600080fd5b506103746107e3565b6040516103819190610edd565b60405180910390f35b34801561039657600080fd5b5061039f61080c565b6040516103ac9190610ef8565b60405180910390f35b3480156103c157600080fd5b506103dc60048036036103d79190810190610e1c565b610863565b6040516103eb93929190610f81565b60405180910390f35b34801561040057600080fd5b5061041b60048036036104169190810190610e1c565b61089c565b005b34801561042957600080fd5b506104326108de565b60405161043f9190610ef8565b60405180910390f35b34801561045457600080fd5b5061046f600480360361046a9190810190610e1c565b6108f1565b604051610480959493929190610f2e565b60405180910390f35b34801561049557600080fd5b506104b060048036036104ab9190810190610d9b565b610958565b005b3480156104be57600080fd5b506104d960048036036104d49190810190610e1c565b610977565b6040516104ea959493929190610f2e565b60405180910390f35b60076020528060005260406000206000915090505481565b60036020528060005260406000206000915090508060000154908060010154908060020154905083565b8060008090505b600b805490508110156105c75781600b8281548110151561055957fe5b906000526020600020015414156105b45761057485846109cf565b83600560008781526020019081526020016000208190555060066000858152602001908152602001600020600081548092919060010191905055506105b9565b6105ba565b5b808060010191505061053c565b5050505050565b60056020528060005260406000206000915090505481565b600b818154811015156105f557fe5b906000526020600020016000915090505481565b60098181548110151561061857fe5b906000526020600020016000915090508060000154905081565b60066020528060005260406000206000915090505481565b60046020528060005260406000206000915090505481565b60026020528060005260406000206000915090508060000154905081565b61068861080c565b151561069357600080fd5b600073ffffffffffffffffffffffffffffffffffffffff166000809054906101000a900473ffffffffffffffffffffffffffffffffffffffff1673ffffffffffffffffffffffffffffffffffffffff167f8be0079c531659141344cd1fd0a4f28419497f9722a3daafe3b4186f6b6457e060405160405180910390a360008060006101000a81548173ffffffffffffffffffffffffffffffffffffffff021916908373ffffffffffffffffffffffffffffffffffffffff160217905550565b8060008090505b600b805490508110156107dc5781600b8281548110151561077657fe5b906000526020600020015414156107c95760008090505b858590508110156107c3576107b686868381811015156107a957fe5b9050602002013585610adf565b808060010191505061078d565b506107ce565b6107cf565b5b8080600101915050610759565b5050505050565b60008060009054906101000a900473ffffffffffffffffffffffffffffffffffffffff16905090565b60008060009054906101000a900473ffffffffffffffffffffffffffffffffffffffff1673ffffffffffffffffffffffffffffffffffffffff163373ffffffffffffffffffffffffffffffffffffffff1614905090565b600a8181548110151561087257fe5b90600052602060002090600302016000915090508060000154908060010154908060020154905083565b6108a461080c565b15156108af57600080fd5b600b81908060018154018082558091505090600182039060005260206000200160009091929091909150555050565b600060149054906101000a900460ff1681565b60088181548110151561090057fe5b90600052602060002090600502016000915090508060000154908060010154908060020160009054906101000a900460ff16908060030154908060040160206040519081016040529081600082015481525050905085565b61096061080c565b151561096b57600080fd5b61097481610c2d565b50565b60016020528060005260406000206000915090508060000154908060010154908060020160009054906101000a900460ff16908060030154908060040160206040519081016040529081600082015481525050905085565b8060008090505b600b80549050811015610ad95781600b828154811015156109f357fe5b90600052602060002001541415610ac65760006001600960206040519081016040528088815250908060018154018082558091505090600182039060005260206000200160009091929091909150600082015181600001555050039050600981815481101515610a5f57fe5b9060005260206000200160026000878152602001908152602001600020600082015481600001559050507f43dcee486fabffa2fb551555bfaa5bfcf6a42f2d014032ccef94bf09d83855eb85604051610ab89190610f13565b60405180910390a150610acb565b610acc565b5b80806001019150506109d6565b50505050565b8060008090505b600b80549050811015610c275781600b82815481101515610b0357fe5b90600052602060002001541415610c145760006001600a606060405190810160405280888152602001600081526020016000815250908060018154018082558091505090600182039060005260206000209060030201600090919290919091506000820151816000015560208201518160010155604082015181600201555050039050600a81815481101515610b9557fe5b9060005260206000209060030201600360008781526020019081526020016000206000820154816000015560018201548160010155600282015481600201559050507f21db1a92fb8efb483c22a581ee7e282b6d79d9d43b559ee1affa34181886796985604051610c069190610f13565b60405180910390a150610c19565b610c1a565b5b8080600101915050610ae6565b50505050565b600073ffffffffffffffffffffffffffffffffffffffff168173ffffffffffffffffffffffffffffffffffffffff1614151515610c6957600080fd5b8073ffffffffffffffffffffffffffffffffffffffff166000809054906101000a900473ffffffffffffffffffffffffffffffffffffffff1673ffffffffffffffffffffffffffffffffffffffff167f8be0079c531659141344cd1fd0a4f28419497f9722a3daafe3b4186f6b6457e060405160405180910390a3806000806101000a81548173ffffffffffffffffffffffffffffffffffffffff021916908373ffffffffffffffffffffffffffffffffffffffff16021790555050565b6000610d338235611000565b905092915050565b60008083601f8401121515610d4f57600080fd5b8235905067ffffffffffffffff811115610d6857600080fd5b602083019150836020820283011115610d8057600080fd5b9250929050565b6000610d938235611012565b905092915050565b600060208284031215610dad57600080fd5b6000610dbb84828501610d27565b91505092915050565b600080600060408486031215610dd957600080fd5b600084013567ffffffffffffffff811115610df357600080fd5b610dff86828701610d3b565b93509350506020610e1286828701610d87565b9150509250925092565b600060208284031215610e2e57600080fd5b6000610e3c84828501610d87565b91505092915050565b600080600060608486031215610e5a57600080fd5b6000610e6886828701610d87565b9350506020610e7986828701610d87565b9250506040610e8a86828701610d87565b9150509250925092565b610e9d81610fb8565b82525050565b610eac81610fca565b82525050565b602082016000820151610ec86000850182610ece565b50505050565b610ed781610ff6565b82525050565b6000602082019050610ef26000830184610e94565b92915050565b6000602082019050610f0d6000830184610ea3565b92915050565b6000602082019050610f286000830184610ece565b92915050565b600060a082019050610f436000830188610ece565b610f506020830187610ece565b610f5d6040830186610ea3565b610f6a6060830185610ece565b610f776080830184610eb2565b9695505050505050565b6000606082019050610f966000830186610ece565b610fa36020830185610ece565b610fb06040830184610ece565b949350505050565b6000610fc382610fd6565b9050919050565b60008115159050919050565b600073ffffffffffffffffffffffffffffffffffffffff82169050919050565b6000819050919050565b600061100b82610fd6565b9050919050565b600081905091905056fea265627a7a72305820b56df24744b60782550b46a6dfa6f59c752f05c48d4d5fdaa6cad6c179cd938c6c6578706572696d656e74616cf50037",
  "source": "pragma solidity ^0.5.0;\npragma experimental ABIEncoderV2;\nimport './Ownable.sol';\n\ncontract Election is Ownable{\n  bool public ResultsDeclared = false;\n\n  event VoterCreated(uint256 _id, uint256 _constituencyId);\n  event CandidateRegistered(uint256 _id);\n  event ConstituencyRegistered(uint256 _id);\n\n  struct Vote {\n    uint256 _voteId;\n  }\n\n  struct Voter {\n    uint256 _id;\n    uint256 _constituencyId;\n    bool _hasVoted;\n    uint256 _voteTime;\n    Vote _vote;\n  }\n\n  struct Candidate {\n    uint256 _id;\n  }\n\n  struct Constituency {\n    uint256 _id;\n    uint256 _startTime;\n    uint256 _duration;\n  }\n\n  mapping(uint256 => Voter) public idToVoter;\n  mapping(uint256 => Candidate) public idToCandidate;\n  mapping(uint256 => Constituency) public idToConstituency;\n  mapping(uint256 => uint256) public voteToCandidate;\n  mapping(uint256 => uint256) public candidateToConstituency;\n  mapping(uint256 => uint256) public constituencyCandidateCount;\n  mapping(uint256 => uint256) public candidateVoteCount;\n\n  Voter[] public voters;\n  Candidate[] public candidates;\n  Constituency[] public constituencies;\n  uint256[] public admins;\n\n  modifier onlyUser(uint256 _id) {\n    require(idToVoter[_id]._id != 0);\n    _;\n  }\n\n  modifier onlyAdmin(uint256 _id) {\n    for(uint i = 0; i < admins.length; i++) {\n      if(admins[i] == _id) {\n        _;\n        }\n      else {\n        continue;\n      }\n    }\n  }\n\n  modifier declaredResults() {\n    require(ResultsDeclared == true);\n    _;\n  }\n\n  constructor() public {\n    ResultsDeclared = false;\n  }\n\n  function initializeVote(uint256 _id) internal returns(Vote memory) {\n    Vote memory vote = Vote(_id);\n    return vote;\n  }\n\n  function createVoter(uint256 _id, uint256 _constituencyId) internal {\n    Vote memory vote = initializeVote(_id);\n    uint id = voters.push(Voter(_id, _constituencyId, false, 0, vote)) - 1;\n    idToVoter[_id] = voters[id];\n    emit VoterCreated(_id, _constituencyId);\n  }\n\n  function registerCandidate(uint256 _id, uint256 _adminId) internal onlyAdmin(_adminId) {\n    uint id = candidates.push(Candidate(_id)) - 1;\n    idToCandidate[_id] = candidates[id];\n    emit CandidateRegistered(_id);\n  }\n\n  function registerConstituency(uint256 _id, uint256 _adminId) internal onlyAdmin(_adminId) {\n    uint id = constituencies.push(Constituency(_id, 0, 0)) - 1;\n    idToConstituency[_id] = constituencies[id];\n    emit ConstituencyRegistered(_id);\n  }\n\n  function registerConstituencies(uint256[] calldata _constituencies, uint256 _adminId) external onlyAdmin(_adminId) {\n    for(uint i = 0; i < _constituencies.length; i++) {\n            registerConstituency(_constituencies[i], _adminId);\n        }\n  }\n\n  function assignCandidateToConstituency(uint256 _id, uint256 _constituencyId, uint256 _adminId) external onlyAdmin(_adminId) {\n    registerCandidate(_id,_adminId);\n    candidateToConstituency[_id] = _constituencyId;\n    constituencyCandidateCount[_constituencyId]++;\n  }\n\n  function registerAdmin(uint256 _id) external onlyOwner {\n    admins.push(_id);\n  }\n\n}",
  "sourcePath": "/home/d3mon/Projects/sudo-rm--rf/contracts/Election.sol",
  "compiler": {
    "name": "solc",
    "version": "0.5.0+commit.1d4f565a.Emscripten.clang"
  },
  "schemaVersion": "3.0.2",
  "updatedAt": "2020-02-04T09:27:58.052Z",
  "devdoc": {
    "methods": {
      "isOwner()": {
        "return": "true if `msg.sender` is the owner of the contract."
      },
      "owner()": {
        "return": "the address of the owner."
      },
      "renounceOwnership()": {
        "details": "Allows the current owner to relinquish control of the contract."
      },
      "transferOwnership(address)": {
        "details": "Allows the current owner to transfer control of the contract to a newOwner.",
        "params": {
          "newOwner": "The address to transfer ownership to."
        }
      }
    }
  },
  "userdoc": {
    "methods": {
      "renounceOwnership()": {
        "notice": "Renouncing to ownership will leave the contract without an owner. It will not be possible to call the functions with the `onlyOwner` modifier anymore."
      }
    }
  }
}