{
  "contractName": "ElectionHelper",
  "abi": [
    {
      "constant": true,
      "inputs": [
        {
          "name": "",
          "type": "uint256"
        }
      ],
      "name": "admins",
      "outputs": [
        {
          "name": "",
          "type": "uint256"
        }
      ],
      "payable": false,
      "stateMutability": "view",
      "type": "function"
    },
    {
      "constant": true,
      "inputs": [
        {
          "name": "",
          "type": "uint256"
        }
      ],
      "name": "candidates",
      "outputs": [
        {
          "name": "_id",
          "type": "uint256"
        }
      ],
      "payable": false,
      "stateMutability": "view",
      "type": "function"
    },
    {
      "constant": false,
      "inputs": [
        {
          "name": "_id",
          "type": "uint256"
        },
        {
          "name": "_adminId",
          "type": "uint256"
        }
      ],
      "name": "registerConstituency",
      "outputs": [],
      "payable": false,
      "stateMutability": "nonpayable",
      "type": "function"
    },
    {
      "constant": false,
      "inputs": [
        {
          "name": "_id",
          "type": "uint256"
        },
        {
          "name": "_adminId",
          "type": "uint256"
        }
      ],
      "name": "registerCandidate",
      "outputs": [],
      "payable": false,
      "stateMutability": "nonpayable",
      "type": "function"
    },
    {
      "constant": false,
      "inputs": [],
      "name": "renounceOwnership",
      "outputs": [],
      "payable": false,
      "stateMutability": "nonpayable",
      "type": "function"
    },
    {
      "constant": true,
      "inputs": [],
      "name": "owner",
      "outputs": [
        {
          "name": "",
          "type": "address"
        }
      ],
      "payable": false,
      "stateMutability": "view",
      "type": "function"
    },
    {
      "constant": true,
      "inputs": [],
      "name": "isOwner",
      "outputs": [
        {
          "name": "",
          "type": "bool"
        }
      ],
      "payable": false,
      "stateMutability": "view",
      "type": "function"
    },
    {
      "constant": true,
      "inputs": [
        {
          "name": "",
          "type": "uint256"
        }
      ],
      "name": "constituencies",
      "outputs": [
        {
          "name": "_id",
          "type": "uint256"
        },
        {
          "name": "_startTime",
          "type": "uint256"
        },
        {
          "name": "_duration",
          "type": "uint256"
        }
      ],
      "payable": false,
      "stateMutability": "view",
      "type": "function"
    },
    {
      "constant": false,
      "inputs": [
        {
          "name": "_id",
          "type": "uint256"
        }
      ],
      "name": "registerAdmin",
      "outputs": [],
      "payable": false,
      "stateMutability": "nonpayable",
      "type": "function"
    },
    {
      "constant": true,
      "inputs": [
        {
          "name": "",
          "type": "uint256"
        }
      ],
      "name": "voters",
      "outputs": [
        {
          "name": "_id",
          "type": "uint256"
        },
        {
          "name": "_constituencyId",
          "type": "uint256"
        },
        {
          "name": "_hasVoted",
          "type": "bool"
        },
        {
          "components": [
            {
              "name": "_voteId",
              "type": "bytes32"
            },
            {
              "name": "_votedId",
              "type": "uint256"
            },
            {
              "name": "_voteTime",
              "type": "uint64"
            }
          ],
          "name": "_vote",
          "type": "tuple"
        }
      ],
      "payable": false,
      "stateMutability": "view",
      "type": "function"
    },
    {
      "constant": false,
      "inputs": [
        {
          "name": "newOwner",
          "type": "address"
        }
      ],
      "name": "transferOwnership",
      "outputs": [],
      "payable": false,
      "stateMutability": "nonpayable",
      "type": "function"
    },
    {
      "anonymous": false,
      "inputs": [
        {
          "indexed": false,
          "name": "_id",
          "type": "uint256"
        },
        {
          "indexed": false,
          "name": "_voterId",
          "type": "uint256"
        }
      ],
      "name": "VoterCreated",
      "type": "event"
    },
    {
      "anonymous": false,
      "inputs": [
        {
          "indexed": false,
          "name": "_id",
          "type": "uint256"
        }
      ],
      "name": "CandidateRegistered",
      "type": "event"
    },
    {
      "anonymous": false,
      "inputs": [
        {
          "indexed": false,
          "name": "_id",
          "type": "uint256"
        }
      ],
      "name": "ConstituencyRegistered",
      "type": "event"
    },
    {
      "anonymous": false,
      "inputs": [
        {
          "indexed": true,
          "name": "previousOwner",
          "type": "address"
        },
        {
          "indexed": true,
          "name": "newOwner",
          "type": "address"
        }
      ],
      "name": "OwnershipTransferred",
      "type": "event"
    },
    {
      "constant": false,
      "inputs": [
        {
          "name": "_adminId",
          "type": "uint256"
        }
      ],
      "name": "getConstituencies",
      "outputs": [
        {
          "components": [
            {
              "name": "_id",
              "type": "uint256"
            },
            {
              "name": "_startTime",
              "type": "uint256"
            },
            {
              "name": "_duration",
              "type": "uint256"
            }
          ],
          "name": "",
          "type": "tuple[]"
        }
      ],
      "payable": false,
      "stateMutability": "nonpayable",
      "type": "function"
    },
    {
      "constant": false,
      "inputs": [
        {
          "name": "_id",
          "type": "uint256"
        },
        {
          "name": "_duration",
          "type": "uint256"
        }
      ],
      "name": "generateElectionforConstituency",
      "outputs": [],
      "payable": false,
      "stateMutability": "nonpayable",
      "type": "function"
    },
    {
      "constant": false,
      "inputs": [
        {
          "name": "_id",
          "type": "uint256"
        },
        {
          "name": "_constituencyId",
          "type": "uint256"
        },
        {
          "name": "_adminId",
          "type": "uint256"
        }
      ],
      "name": "assignCandidateToConstituency",
      "outputs": [],
      "payable": false,
      "stateMutability": "nonpayable",
      "type": "function"
    },
    {
      "constant": true,
      "inputs": [
        {
          "name": "_constituencyId",
          "type": "uint256"
        }
      ],
      "name": "getCandidatesByConstituency",
      "outputs": [
        {
          "components": [
            {
              "name": "_id",
              "type": "uint256"
            }
          ],
          "name": "",
          "type": "tuple[]"
        }
      ],
      "payable": false,
      "stateMutability": "view",
      "type": "function"
    }
  ],
  "bytecode": "0x608060405260405180606001604052806000801b815260200160008152602001600067ffffffffffffffff168152506001600082015181600001556020820151816001015560408201518160020160006101000a81548167ffffffffffffffff021916908367ffffffffffffffff1602179055505050336000806101000a81548173ffffffffffffffffffffffffffffffffffffffff021916908373ffffffffffffffffffffffffffffffffffffffff1602179055506000809054906101000a900473ffffffffffffffffffffffffffffffffffffffff1673ffffffffffffffffffffffffffffffffffffffff16600073ffffffffffffffffffffffffffffffffffffffff167f8be0079c531659141344cd1fd0a4f28419497f9722a3daafe3b4186f6b6457e060405160405180910390a3611147806101406000396000f3fe608060405234801561001057600080fd5b50600436106100f55760003560e01c80638da5cb5b11610097578063d59d48d411610066578063d59d48d414610272578063da58c7d91461028e578063f2fde38b146102c1578063f9ed8067146102dd576100f5565b80638da5cb5b146101e85780638f32d59b146102065780639209416a146102245780639484525414610256576100f5565b80633477ee2e116100d35780633477ee2e146101765780633acab52f146101a65780635d6e5052146101c2578063715018a6146101de576100f5565b806312d51c72146100fa57806314bfd6d0146101165780632897521014610146575b600080fd5b610114600480360361010f9190810190610cc7565b61030d565b005b610130600480360361012b9190810190610c62565b61039a565b60405161013d9190610f76565b60405180910390f35b610160600480360361015b9190810190610c62565b6103bb565b60405161016d9190610f39565b60405180910390f35b610190600480360361018b9190810190610c62565b610487565b60405161019d9190610f76565b60405180910390f35b6101c060048036036101bb9190810190610c8b565b6104ae565b005b6101dc60048036036101d79190810190610c8b565b6105f7565b005b6101e6610702565b005b6101f06107d2565b6040516101fd9190610efc565b60405180910390f35b61020e6107fb565b60405161021b9190610f5b565b60405180910390f35b61023e60048036036102399190810190610c62565b610852565b60405161024d93929190610fd6565b60405180910390f35b610270600480360361026b9190810190610c62565b610889565b005b61028c60048036036102879190810190610c8b565b6108c9565b005b6102a860048036036102a39190810190610c62565b610928565b6040516102b89493929190610f91565b60405180910390f35b6102db60048036036102d69190810190610c39565b6109c2565b005b6102f760048036036102f29190810190610c62565b6109df565b6040516103049190610f17565b60405180910390f35b8060008090505b600e805490508110156103935781600e828154811061032f57fe5b90600052602060002001541415610380578360086000878152602001908152602001600020819055506009600085815260200190815260200160002060008154809291906001019190505550610385565b610386565b5b8080600101915050610314565b5050505050565b600e81815481106103a757fe5b906000526020600020016000915090505481565b60608160008090505b600e805490508110156104805781600e82815481106103df57fe5b9060005260206000200154141561046d57600d805480602002602001604051908101604052809291908181526020016000905b828210156104625783829060005260206000209060030201604051806060016040529081600082015481526020016001820154815260200160028201548152505081526020019060010190610412565b505050509250610472565b610473565b5b80806001019150506103c4565b5050919050565b600c818154811061049457fe5b906000526020600020016000915090508060000154905081565b8060008090505b600e805490508110156105f15781600e82815481106104d057fe5b906000526020600020015414156105de5760006001600d6040518060600160405280888152602001600081526020016000815250908060018154018082558091505090600182039060005260206000209060030201600090919290919091506000820151816000015560208201518160010155604082015181600201555050039050600d818154811061055f57fe5b9060005260206000209060030201600660008781526020019081526020016000206000820154816000015560018201548160010155600282015481600201559050507f21db1a92fb8efb483c22a581ee7e282b6d79d9d43b559ee1affa341818867969856040516105d09190610f76565b60405180910390a1506105e3565b6105e4565b5b80806001019150506104b5565b50505050565b8060008090505b600e805490508110156106fc5781600e828154811061061957fe5b906000526020600020015414156106e95760006001600c604051806020016040528088815250908060018154018082558091505090600182039060005260206000200160009091929091909150600082015181600001555050039050600c818154811061068257fe5b9060005260206000200160056000878152602001908152602001600020600082015481600001559050507f43dcee486fabffa2fb551555bfaa5bfcf6a42f2d014032ccef94bf09d83855eb856040516106db9190610f76565b60405180910390a1506106ee565b6106ef565b5b80806001019150506105fe565b50505050565b61070a6107fb565b61071357600080fd5b600073ffffffffffffffffffffffffffffffffffffffff166000809054906101000a900473ffffffffffffffffffffffffffffffffffffffff1673ffffffffffffffffffffffffffffffffffffffff167f8be0079c531659141344cd1fd0a4f28419497f9722a3daafe3b4186f6b6457e060405160405180910390a360008060006101000a81548173ffffffffffffffffffffffffffffffffffffffff021916908373ffffffffffffffffffffffffffffffffffffffff160217905550565b60008060009054906101000a900473ffffffffffffffffffffffffffffffffffffffff16905090565b60008060009054906101000a900473ffffffffffffffffffffffffffffffffffffffff1673ffffffffffffffffffffffffffffffffffffffff163373ffffffffffffffffffffffffffffffffffffffff1614905090565b600d818154811061085f57fe5b90600052602060002090600302016000915090508060000154908060010154908060020154905083565b6108916107fb565b61089a57600080fd5b600e81908060018154018082558091505090600182039060005260206000200160009091929091909150555050565b6108d1610bdb565b60066000848152602001908152602001600020604051806060016040529081600082015481526020016001820154815260200160028201548152505090504281602001818152505081816040018181525050505050565b600b818154811061093557fe5b90600052602060002090600602016000915090508060000154908060010154908060020160009054906101000a900460ff16908060030160405180606001604052908160008201548152602001600182015481526020016002820160009054906101000a900467ffffffffffffffff1667ffffffffffffffff1667ffffffffffffffff1681525050905084565b6109ca6107fb565b6109d357600080fd5b6109dc81610ae3565b50565b6060806009600084815260200190815260200160002054604051908082528060200260200182016040528015610a2f57816020015b610a1c610bfc565b815260200190600190039081610a145790505b509050600080905060008090505b600c80549050811015610ad8578460086000600c8481548110610a5c57fe5b90600052602060002001600001548152602001908152602001600020541415610acb57600c8181548110610a8c57fe5b90600052602060002001604051806020016040529081600082015481525050838381518110610ab757fe5b602002602001018190525081806001019250505b8080600101915050610a3d565b508192505050919050565b600073ffffffffffffffffffffffffffffffffffffffff168173ffffffffffffffffffffffffffffffffffffffff161415610b1d57600080fd5b8073ffffffffffffffffffffffffffffffffffffffff166000809054906101000a900473ffffffffffffffffffffffffffffffffffffffff1673ffffffffffffffffffffffffffffffffffffffff167f8be0079c531659141344cd1fd0a4f28419497f9722a3daafe3b4186f6b6457e060405160405180910390a3806000806101000a81548173ffffffffffffffffffffffffffffffffffffffff021916908373ffffffffffffffffffffffffffffffffffffffff16021790555050565b60405180606001604052806000815260200160008152602001600081525090565b6040518060200160405280600081525090565b600081359050610c1e816110df565b92915050565b600081359050610c33816110f6565b92915050565b600060208284031215610c4b57600080fd5b6000610c5984828501610c0f565b91505092915050565b600060208284031215610c7457600080fd5b6000610c8284828501610c24565b91505092915050565b60008060408385031215610c9e57600080fd5b6000610cac85828601610c24565b9250506020610cbd85828601610c24565b9150509250929050565b600080600060608486031215610cdc57600080fd5b6000610cea86828701610c24565b9350506020610cfb86828701610c24565b9250506040610d0c86828701610c24565b9150509250925092565b6000610d228383610e2f565b60208301905092915050565b6000610d3a8383610e4b565b60608301905092915050565b610d4f81611079565b82525050565b6000610d6082611027565b610d6a8185611057565b9350610d758361100d565b8060005b83811015610da6578151610d8d8882610d16565b9750610d988361103d565b925050600181019050610d79565b5085935050505092915050565b6000610dbe82611032565b610dc88185611068565b9350610dd38361101a565b8060005b83811015610e04578151610deb8882610d2e565b9750610df68361104a565b925050600181019050610dd7565b5085935050505092915050565b610e1a8161108b565b82525050565b610e2981611097565b82525050565b602082016000820151610e456000850182610ecf565b50505050565b606082016000820151610e616000850182610ecf565b506020820151610e746020850182610ecf565b506040820151610e876040850182610ecf565b50505050565b606082016000820151610ea36000850182610e20565b506020820151610eb66020850182610ecf565b506040820151610ec96040850182610eed565b50505050565b610ed8816110c1565b82525050565b610ee7816110c1565b82525050565b610ef6816110cb565b82525050565b6000602082019050610f116000830184610d46565b92915050565b60006020820190508181036000830152610f318184610d55565b905092915050565b60006020820190508181036000830152610f538184610db3565b905092915050565b6000602082019050610f706000830184610e11565b92915050565b6000602082019050610f8b6000830184610ede565b92915050565b600060c082019050610fa66000830187610ede565b610fb36020830186610ede565b610fc06040830185610e11565b610fcd6060830184610e8d565b95945050505050565b6000606082019050610feb6000830186610ede565b610ff86020830185610ede565b6110056040830184610ede565b949350505050565b6000602082019050919050565b6000602082019050919050565b600081519050919050565b600081519050919050565b6000602082019050919050565b6000602082019050919050565b600082825260208201905092915050565b600082825260208201905092915050565b6000611084826110a1565b9050919050565b60008115159050919050565b6000819050919050565b600073ffffffffffffffffffffffffffffffffffffffff82169050919050565b6000819050919050565b600067ffffffffffffffff82169050919050565b6110e881611079565b81146110f357600080fd5b50565b6110ff816110c1565b811461110a57600080fd5b5056fea265627a7a723058206350873d77427d959f0554c593546313080380768da86432722a9ad46bad871a6c6578706572696d656e74616cf50037",
  "source": "pragma solidity ^0.5.0;\npragma experimental ABIEncoderV2;\nimport \"./Election.sol\";\n\ncontract ElectionHelper is Election {\n\n    function getConstituencies(uint256 _adminId) external onlyAdmin(_adminId) returns(Constituency[] memory) {\n        return constituencies;\n    }\n\n    function generateElectionforConstituency(uint256 _id, uint256 _duration) external {\n        Constituency memory _constituency = idToConstituency[_id];\n        _constituency._startTime = block.timestamp;\n        _constituency._duration = _duration;\n    }\n\n    function assignCandidateToConstituency(uint256 _id, uint256 _constituencyId, uint256 _adminId) public onlyAdmin(_adminId) {\n        candidateToConstituency[_id] = _constituencyId;\n        constituencyCandidateCount[_constituencyId]++;\n    }\n\n    function getCandidatesByConstituency(uint256 _constituencyId) public view returns(Candidate[] memory) {\n        Candidate[] memory _candidates = new Candidate[](constituencyCandidateCount[_constituencyId]);\n        uint counter = 0;\n        for(uint i = 0; i < candidates.length; i++) {\n            if(candidateToConstituency[candidates[i]._id] == _constituencyId) {\n            _candidates[counter] = candidates[i];\n            counter++;\n        }\n    }\n\n        return _candidates;\n    }\n}",
  "sourcePath": "/home/d3mon/Projects/sudo-rm--rf/contracts/ElectionHelper.sol",
  "compiler": {
    "name": "solc",
    "version": "0.5.8+commit.23d335f2.Emscripten.clang"
  },
  "schemaVersion": "3.0.11",
  "updatedAt": "2019-08-20T16:17:50.070Z",
  "devdoc": {
    "methods": {
      "isOwner()": {
        "return": "true if `msg.sender` is the owner of the contract."
      },
      "owner()": {
        "return": "the address of the owner."
      },
      "renounceOwnership()": {
        "details": "Allows the current owner to relinquish control of the contract."
      },
      "transferOwnership(address)": {
        "details": "Allows the current owner to transfer control of the contract to a newOwner.",
        "params": {
          "newOwner": "The address to transfer ownership to."
        }
      }
    }
  },
  "userdoc": {
    "methods": {
      "renounceOwnership()": {
        "notice": "Renouncing to ownership will leave the contract without an owner. It will not be possible to call the functions with the `onlyOwner` modifier anymore."
      }
    }
  }
}