{
  "contractName": "ElectionHelper",
  "abi": [
    {
      "constant": true,
      "inputs": [
        {
          "name": "",
          "type": "uint256"
        }
      ],
      "name": "candidateVoteCount",
      "outputs": [
        {
          "name": "",
          "type": "uint256"
        }
      ],
      "payable": false,
      "stateMutability": "view",
      "type": "function"
    },
    {
      "constant": true,
      "inputs": [
        {
          "name": "",
          "type": "uint256"
        }
      ],
      "name": "idToConstituency",
      "outputs": [
        {
          "name": "_id",
          "type": "uint256"
        },
        {
          "name": "_startTime",
          "type": "uint256"
        },
        {
          "name": "_duration",
          "type": "uint256"
        }
      ],
      "payable": false,
      "stateMutability": "view",
      "type": "function"
    },
    {
      "constant": true,
      "inputs": [
        {
          "name": "",
          "type": "uint256"
        }
      ],
      "name": "candidateToConstituency",
      "outputs": [
        {
          "name": "",
          "type": "uint256"
        }
      ],
      "payable": false,
      "stateMutability": "view",
      "type": "function"
    },
    {
      "constant": true,
      "inputs": [
        {
          "name": "",
          "type": "uint256"
        }
      ],
      "name": "admins",
      "outputs": [
        {
          "name": "",
          "type": "uint256"
        }
      ],
      "payable": false,
      "stateMutability": "view",
      "type": "function"
    },
    {
      "constant": true,
      "inputs": [
        {
          "name": "",
          "type": "uint256"
        }
      ],
      "name": "candidates",
      "outputs": [
        {
          "name": "_id",
          "type": "uint256"
        }
      ],
      "payable": false,
      "stateMutability": "view",
      "type": "function"
    },
    {
      "constant": false,
      "inputs": [
        {
          "name": "_id",
          "type": "uint256"
        },
        {
          "name": "_adminId",
          "type": "uint256"
        }
      ],
      "name": "registerConstituency",
      "outputs": [],
      "payable": false,
      "stateMutability": "nonpayable",
      "type": "function"
    },
    {
      "constant": true,
      "inputs": [
        {
          "name": "",
          "type": "uint256"
        }
      ],
      "name": "constituencyCandidateCount",
      "outputs": [
        {
          "name": "",
          "type": "uint256"
        }
      ],
      "payable": false,
      "stateMutability": "view",
      "type": "function"
    },
    {
      "constant": true,
      "inputs": [
        {
          "name": "",
          "type": "uint256"
        }
      ],
      "name": "voteToCandidate",
      "outputs": [
        {
          "name": "",
          "type": "uint256"
        }
      ],
      "payable": false,
      "stateMutability": "view",
      "type": "function"
    },
    {
      "constant": true,
      "inputs": [
        {
          "name": "",
          "type": "uint256"
        }
      ],
      "name": "idToCandidate",
      "outputs": [
        {
          "name": "_id",
          "type": "uint256"
        }
      ],
      "payable": false,
      "stateMutability": "view",
      "type": "function"
    },
    {
      "constant": false,
      "inputs": [
        {
          "name": "_id",
          "type": "uint256"
        },
        {
          "name": "_adminId",
          "type": "uint256"
        }
      ],
      "name": "registerCandidate",
      "outputs": [],
      "payable": false,
      "stateMutability": "nonpayable",
      "type": "function"
    },
    {
      "constant": false,
      "inputs": [],
      "name": "renounceOwnership",
      "outputs": [],
      "payable": false,
      "stateMutability": "nonpayable",
      "type": "function"
    },
    {
      "constant": true,
      "inputs": [],
      "name": "owner",
      "outputs": [
        {
          "name": "",
          "type": "address"
        }
      ],
      "payable": false,
      "stateMutability": "view",
      "type": "function"
    },
    {
      "constant": true,
      "inputs": [],
      "name": "isOwner",
      "outputs": [
        {
          "name": "",
          "type": "bool"
        }
      ],
      "payable": false,
      "stateMutability": "view",
      "type": "function"
    },
    {
      "constant": true,
      "inputs": [
        {
          "name": "",
          "type": "uint256"
        }
      ],
      "name": "constituencies",
      "outputs": [
        {
          "name": "_id",
          "type": "uint256"
        },
        {
          "name": "_startTime",
          "type": "uint256"
        },
        {
          "name": "_duration",
          "type": "uint256"
        }
      ],
      "payable": false,
      "stateMutability": "view",
      "type": "function"
    },
    {
      "constant": false,
      "inputs": [
        {
          "name": "_id",
          "type": "uint256"
        }
      ],
      "name": "registerAdmin",
      "outputs": [],
      "payable": false,
      "stateMutability": "nonpayable",
      "type": "function"
    },
    {
      "constant": true,
      "inputs": [
        {
          "name": "",
          "type": "uint256"
        }
      ],
      "name": "voters",
      "outputs": [
        {
          "name": "_id",
          "type": "uint256"
        },
        {
          "name": "_constituencyId",
          "type": "uint256"
        },
        {
          "name": "_hasVoted",
          "type": "bool"
        },
        {
          "components": [
            {
              "name": "_voteId",
              "type": "uint256"
            },
            {
              "name": "_votedId",
              "type": "uint256"
            },
            {
              "name": "_voteTime",
              "type": "uint64"
            }
          ],
          "name": "_vote",
          "type": "tuple"
        }
      ],
      "payable": false,
      "stateMutability": "view",
      "type": "function"
    },
    {
      "constant": false,
      "inputs": [
        {
          "name": "newOwner",
          "type": "address"
        }
      ],
      "name": "transferOwnership",
      "outputs": [],
      "payable": false,
      "stateMutability": "nonpayable",
      "type": "function"
    },
    {
      "constant": true,
      "inputs": [
        {
          "name": "",
          "type": "uint256"
        }
      ],
      "name": "idToVoter",
      "outputs": [
        {
          "name": "_id",
          "type": "uint256"
        },
        {
          "name": "_constituencyId",
          "type": "uint256"
        },
        {
          "name": "_hasVoted",
          "type": "bool"
        },
        {
          "components": [
            {
              "name": "_voteId",
              "type": "uint256"
            },
            {
              "name": "_votedId",
              "type": "uint256"
            },
            {
              "name": "_voteTime",
              "type": "uint64"
            }
          ],
          "name": "_vote",
          "type": "tuple"
        }
      ],
      "payable": false,
      "stateMutability": "view",
      "type": "function"
    },
    {
      "anonymous": false,
      "inputs": [
        {
          "indexed": false,
          "name": "_id",
          "type": "uint256"
        },
        {
          "indexed": false,
          "name": "_constituencyId",
          "type": "uint256"
        }
      ],
      "name": "VoterCreated",
      "type": "event"
    },
    {
      "anonymous": false,
      "inputs": [
        {
          "indexed": false,
          "name": "_id",
          "type": "uint256"
        }
      ],
      "name": "CandidateRegistered",
      "type": "event"
    },
    {
      "anonymous": false,
      "inputs": [
        {
          "indexed": false,
          "name": "_id",
          "type": "uint256"
        }
      ],
      "name": "ConstituencyRegistered",
      "type": "event"
    },
    {
      "anonymous": false,
      "inputs": [
        {
          "indexed": true,
          "name": "previousOwner",
          "type": "address"
        },
        {
          "indexed": true,
          "name": "newOwner",
          "type": "address"
        }
      ],
      "name": "OwnershipTransferred",
      "type": "event"
    },
    {
      "constant": false,
      "inputs": [
        {
          "name": "_adminId",
          "type": "uint256"
        }
      ],
      "name": "getConstituencies",
      "outputs": [
        {
          "components": [
            {
              "name": "_id",
              "type": "uint256"
            },
            {
              "name": "_startTime",
              "type": "uint256"
            },
            {
              "name": "_duration",
              "type": "uint256"
            }
          ],
          "name": "",
          "type": "tuple[]"
        }
      ],
      "payable": false,
      "stateMutability": "nonpayable",
      "type": "function"
    },
    {
      "constant": false,
      "inputs": [
        {
          "name": "_id",
          "type": "uint256"
        },
        {
          "name": "_duration",
          "type": "uint256"
        },
        {
          "name": "_adminId",
          "type": "uint256"
        }
      ],
      "name": "generateElectionforConstituency",
      "outputs": [],
      "payable": false,
      "stateMutability": "nonpayable",
      "type": "function"
    },
    {
      "constant": false,
      "inputs": [
        {
          "name": "_id",
          "type": "uint256"
        },
        {
          "name": "_userId",
          "type": "uint256"
        }
      ],
      "name": "getConstituencyDetails",
      "outputs": [
        {
          "components": [
            {
              "name": "_id",
              "type": "uint256"
            },
            {
              "name": "_startTime",
              "type": "uint256"
            },
            {
              "name": "_duration",
              "type": "uint256"
            }
          ],
          "name": "",
          "type": "tuple"
        }
      ],
      "payable": false,
      "stateMutability": "nonpayable",
      "type": "function"
    },
    {
      "constant": false,
      "inputs": [
        {
          "name": "_id",
          "type": "uint256"
        },
        {
          "name": "_constituencyId",
          "type": "uint256"
        },
        {
          "name": "_adminId",
          "type": "uint256"
        }
      ],
      "name": "assignCandidateToConstituency",
      "outputs": [],
      "payable": false,
      "stateMutability": "nonpayable",
      "type": "function"
    },
    {
      "constant": true,
      "inputs": [
        {
          "name": "_constituencyId",
          "type": "uint256"
        },
        {
          "name": "_userId",
          "type": "uint256"
        }
      ],
      "name": "getCandidatesByConstituency",
      "outputs": [
        {
          "components": [
            {
              "name": "_id",
              "type": "uint256"
            }
          ],
          "name": "",
          "type": "tuple[]"
        }
      ],
      "payable": false,
      "stateMutability": "view",
      "type": "function"
    }
  ],
  "bytecode": "0x6080604052336000806101000a81548173ffffffffffffffffffffffffffffffffffffffff021916908373ffffffffffffffffffffffffffffffffffffffff1602179055506000809054906101000a900473ffffffffffffffffffffffffffffffffffffffff1673ffffffffffffffffffffffffffffffffffffffff16600073ffffffffffffffffffffffffffffffffffffffff167f8be0079c531659141344cd1fd0a4f28419497f9722a3daafe3b4186f6b6457e060405160405180910390a360008060146101000a81548160ff0219169083151502179055506116dd806100e96000396000f3fe608060405260043610610133576000357c0100000000000000000000000000000000000000000000000000000000900463ffffffff16806301aa2e03146101385780630f80dcb01461017557806312d51c72146101b45780631471e0ab146101dd57806314bfd6d01461021a57806328975210146102575780632fd23a3f146102945780633477ee2e146102d15780633acab52f1461030e5780633b04a6c91461033757806356be16581461037457806357e2ef10146103b15780635d6e5052146103ee578063715018a6146104175780638da5cb5b1461042e5780638f32d59b146104595780639209416a1461048457806394845254146104c3578063bbc893a3146104ec578063da58c7d914610529578063f2fde38b14610569578063f759006514610592578063f8c70571146105bb575b600080fd5b34801561014457600080fd5b5061015f600480360361015a919081019061122d565b6105fb565b60405161016c919061154a565b60405180910390f35b34801561018157600080fd5b5061019c6004803603610197919081019061122d565b610613565b6040516101ab939291906115aa565b60405180910390f35b3480156101c057600080fd5b506101db60048036036101d69190810190611292565b61063d565b005b3480156101e957600080fd5b5061020460048036036101ff919081019061122d565b6106cc565b604051610211919061154a565b60405180910390f35b34801561022657600080fd5b50610241600480360361023c919081019061122d565b6106e4565b60405161024e919061154a565b60405180910390f35b34801561026357600080fd5b5061027e6004803603610279919081019061122d565b610707565b60405161028b91906114f2565b60405180910390f35b3480156102a057600080fd5b506102bb60048036036102b69190810190611256565b610836565b6040516102c8919061152f565b60405180910390f35b3480156102dd57600080fd5b506102f860048036036102f3919081019061122d565b6108b7565b604051610305919061154a565b60405180910390f35b34801561031a57600080fd5b5061033560048036036103309190810190611256565b6108e0565b005b34801561034357600080fd5b5061035e6004803603610359919081019061122d565b610a2e565b60405161036b919061154a565b60405180910390f35b34801561038057600080fd5b5061039b6004803603610396919081019061122d565b610a46565b6040516103a8919061154a565b60405180910390f35b3480156103bd57600080fd5b506103d860048036036103d3919081019061122d565b610a5e565b6040516103e5919061154a565b60405180910390f35b3480156103fa57600080fd5b5061041560048036036104109190810190611256565b610a7c565b005b34801561042357600080fd5b5061042c610b8c565b005b34801561043a57600080fd5b50610443610c5e565b60405161045091906114b5565b60405180910390f35b34801561046557600080fd5b5061046e610c87565b60405161047b9190611514565b60405180910390f35b34801561049057600080fd5b506104ab60048036036104a6919081019061122d565b610cde565b6040516104ba939291906115aa565b60405180910390f35b3480156104cf57600080fd5b506104ea60048036036104e5919081019061122d565b610d17565b005b3480156104f857600080fd5b50610513600480360361050e9190810190611256565b610d59565b60405161052091906114d0565b60405180910390f35b34801561053557600080fd5b50610550600480360361054b919081019061122d565b610e90565b6040516105609493929190611565565b60405180910390f35b34801561057557600080fd5b50610590600480360361058b9190810190611204565b610f2d565b005b34801561059e57600080fd5b506105b960048036036105b49190810190611292565b610f4c565b005b3480156105c757600080fd5b506105e260048036036105dd919081019061122d565b610ffc565b6040516105f29493929190611565565b60405180910390f35b60076020528060005260406000206000915090505481565b60036020528060005260406000206000915090508060000154908060010154908060020154905083565b8060008090505b600b805490508110156106c55781600b8281548110151561066157fe5b906000526020600020015414156106b25783600560008781526020019081526020016000208190555060066000858152602001908152602001600020600081548092919060010191905055506106b7565b6106b8565b5b8080600101915050610644565b5050505050565b60056020528060005260406000206000915090505481565b600b818154811015156106f357fe5b906000526020600020016000915090505481565b60608160008090505b600b8054905081101561082f5781600b8281548110151561072d57fe5b9060005260206000200154141561081c576060600a8054905060405190808252806020026020018201604052801561077f57816020015b61076c611184565b8152602001906001900390816107645790505b509050600080905060008090505b600a8054905081101561081157600a818154811015156107a957fe5b906000526020600020906003020160606040519081016040529081600082015481526020016001820154815260200160028201548152505083838151811015156107ef57fe5b906020019060200201819052508180600101925050808060010191505061078d565b508194505050610821565b610822565b5b8080600101915050610710565b5050919050565b61083e6111a6565b81600060016000838152602001908152602001600020600001541415151561086557600080fd5b61086d6111a6565b600360008681526020019081526020016000206060604051908101604052908160008201548152602001600182015481526020016002820154815250509050809250505092915050565b6009818154811015156108c657fe5b906000526020600020016000915090508060000154905081565b8060008090505b600b80549050811015610a285781600b8281548110151561090457fe5b90600052602060002001541415610a155760006001600a606060405190810160405280888152602001600081526020016000815250908060018154018082558091505090600182039060005260206000209060030201600090919290919091506000820151816000015560208201518160010155604082015181600201555050039050600a8181548110151561099657fe5b9060005260206000209060030201600360008781526020019081526020016000206000820154816000015560018201548160010155600282015481600201559050507f21db1a92fb8efb483c22a581ee7e282b6d79d9d43b559ee1affa34181886796985604051610a07919061154a565b60405180910390a150610a1a565b610a1b565b5b80806001019150506108e7565b50505050565b60066020528060005260406000206000915090505481565b60046020528060005260406000206000915090505481565b60026020528060005260406000206000915090508060000154905081565b8060008090505b600b80549050811015610b865781600b82815481101515610aa057fe5b90600052602060002001541415610b735760006001600960206040519081016040528088815250908060018154018082558091505090600182039060005260206000200160009091929091909150600082015181600001555050039050600981815481101515610b0c57fe5b9060005260206000200160026000878152602001908152602001600020600082015481600001559050507f43dcee486fabffa2fb551555bfaa5bfcf6a42f2d014032ccef94bf09d83855eb85604051610b65919061154a565b60405180910390a150610b78565b610b79565b5b8080600101915050610a83565b50505050565b610b94610c87565b1515610b9f57600080fd5b600073ffffffffffffffffffffffffffffffffffffffff166000809054906101000a900473ffffffffffffffffffffffffffffffffffffffff1673ffffffffffffffffffffffffffffffffffffffff167f8be0079c531659141344cd1fd0a4f28419497f9722a3daafe3b4186f6b6457e060405160405180910390a360008060006101000a81548173ffffffffffffffffffffffffffffffffffffffff021916908373ffffffffffffffffffffffffffffffffffffffff160217905550565b60008060009054906101000a900473ffffffffffffffffffffffffffffffffffffffff16905090565b60008060009054906101000a900473ffffffffffffffffffffffffffffffffffffffff1673ffffffffffffffffffffffffffffffffffffffff163373ffffffffffffffffffffffffffffffffffffffff1614905090565b600a81815481101515610ced57fe5b90600052602060002090600302016000915090508060000154908060010154908060020154905083565b610d1f610c87565b1515610d2a57600080fd5b600b81908060018154018082558091505090600182039060005260206000200160009091929091909150555050565b6060816000600160008381526020019081526020016000206000015414151515610d8257600080fd5b60606006600086815260200190815260200160002054604051908082528060200260200182016040528015610dd157816020015b610dbe6111c8565b815260200190600190039081610db65790505b509050600080905060008090505b600980549050811015610e83578660056000600984815481101515610e0057fe5b90600052602060002001600001548152602001908152602001600020541415610e7657600981815481101515610e3257fe5b90600052602060002001602060405190810160405290816000820154815250508383815181101515610e6057fe5b9060200190602002018190525081806001019250505b8080600101915050610ddf565b5081935050505092915050565b600881815481101515610e9f57fe5b90600052602060002090600602016000915090508060000154908060010154908060020160009054906101000a900460ff1690806003016060604051908101604052908160008201548152602001600182015481526020016002820160009054906101000a900467ffffffffffffffff1667ffffffffffffffff1667ffffffffffffffff1681525050905084565b610f35610c87565b1515610f4057600080fd5b610f498161108a565b50565b8060008090505b600b80549050811015610ff55781600b82815481101515610f7057fe5b90600052602060002001541415610fe257610f896111a6565b600360008781526020019081526020016000206060604051908101604052908160008201548152602001600182015481526020016002820154815250509050428160200181815250508481604001818152505050610fe7565b610fe8565b5b8080600101915050610f53565b5050505050565b60016020528060005260406000206000915090508060000154908060010154908060020160009054906101000a900460ff1690806003016060604051908101604052908160008201548152602001600182015481526020016002820160009054906101000a900467ffffffffffffffff1667ffffffffffffffff1667ffffffffffffffff1681525050905084565b600073ffffffffffffffffffffffffffffffffffffffff168173ffffffffffffffffffffffffffffffffffffffff16141515156110c657600080fd5b8073ffffffffffffffffffffffffffffffffffffffff166000809054906101000a900473ffffffffffffffffffffffffffffffffffffffff1673ffffffffffffffffffffffffffffffffffffffff167f8be0079c531659141344cd1fd0a4f28419497f9722a3daafe3b4186f6b6457e060405160405180910390a3806000806101000a81548173ffffffffffffffffffffffffffffffffffffffff021916908373ffffffffffffffffffffffffffffffffffffffff16021790555050565b6060604051908101604052806000815260200160008152602001600081525090565b6060604051908101604052806000815260200160008152602001600081525090565b602060405190810160405280600081525090565b60006111e88235611687565b905092915050565b60006111fc8235611699565b905092915050565b60006020828403121561121657600080fd5b6000611224848285016111dc565b91505092915050565b60006020828403121561123f57600080fd5b600061124d848285016111f0565b91505092915050565b6000806040838503121561126957600080fd5b6000611277858286016111f0565b9250506020611288858286016111f0565b9150509250929050565b6000806000606084860312156112a757600080fd5b60006112b5868287016111f0565b93505060206112c6868287016111f0565b92505060406112d7868287016111f0565b9150509250925092565b6112ea8161162b565b82525050565b60006112fb826115fb565b80845260208401935061130d836115e1565b60005b8281101561133f576113238683516113b5565b61132c82611611565b9150602086019550600181019050611310565b50849250505092915050565b600061135682611606565b808452602084019350611368836115ee565b60005b8281101561139a5761137e868351611413565b6113878261161e565b915060608601955060018101905061136b565b50849250505092915050565b6113af8161163d565b82525050565b6020820160008201516113cb6000850182611497565b50505050565b6060820160008201516113e76000850182611497565b5060208201516113fa6020850182611497565b50604082015161140d6040850182611497565b50505050565b6060820160008201516114296000850182611497565b50602082015161143c6020850182611497565b50604082015161144f6040850182611497565b50505050565b60608201600082015161146b6000850182611497565b50602082015161147e6020850182611497565b50604082015161149160408501826114a6565b50505050565b6114a081611669565b82525050565b6114af81611673565b82525050565b60006020820190506114ca60008301846112e1565b92915050565b600060208201905081810360008301526114ea81846112f0565b905092915050565b6000602082019050818103600083015261150c818461134b565b905092915050565b600060208201905061152960008301846113a6565b92915050565b600060608201905061154460008301846113d1565b92915050565b600060208201905061155f6000830184611497565b92915050565b600060c08201905061157a6000830187611497565b6115876020830186611497565b61159460408301856113a6565b6115a16060830184611455565b95945050505050565b60006060820190506115bf6000830186611497565b6115cc6020830185611497565b6115d96040830184611497565b949350505050565b6000602082019050919050565b6000602082019050919050565b600081519050919050565b600081519050919050565b6000602082019050919050565b6000602082019050919050565b600061163682611649565b9050919050565b60008115159050919050565b600073ffffffffffffffffffffffffffffffffffffffff82169050919050565b6000819050919050565b600067ffffffffffffffff82169050919050565b600061169282611649565b9050919050565b600081905091905056fea265627a7a72305820bb722d45794049796cbcf4ee05578e028723c6bc801f9ec8c220356bae1295f26c6578706572696d656e74616cf50037",
  "source": "pragma solidity ^0.5.0;\npragma experimental ABIEncoderV2;\nimport \"./Election.sol\";\n\ncontract ElectionHelper is Election {\n\n    function getConstituencies(uint256 _adminId) external onlyAdmin(_adminId) returns(Constituency[] memory) {\n        Constituency[] memory _constituencies = new Constituency[](constituencies.length);\n        uint counter = 0;\n        for(uint i = 0; i < constituencies.length; i++) {\n            _constituencies[counter] = constituencies[i];\n            counter++;\n        }\n        return _constituencies;\n    }\n\n    function generateElectionforConstituency(uint256 _id, uint256 _duration, uint256 _adminId) external onlyAdmin(_adminId) {\n        Constituency memory _constituency = idToConstituency[_id];\n        _constituency._startTime = block.timestamp;\n        _constituency._duration = _duration;\n    }\n\n    function getConstituencyDetails(uint256 _id, uint256 _userId) external onlyUser(_userId) returns(Constituency memory) {\n        Constituency memory _constituency = idToConstituency[_id];\n        return _constituency;\n    }\n\n    function assignCandidateToConstituency(uint256 _id, uint256 _constituencyId, uint256 _adminId) public onlyAdmin(_adminId) {\n        candidateToConstituency[_id] = _constituencyId;\n        constituencyCandidateCount[_constituencyId]++;\n    }\n\n    function getCandidatesByConstituency(uint256 _constituencyId, uint256 _userId) public view onlyUser(_userId) returns(Candidate[] memory) {\n        Candidate[] memory _candidates = new Candidate[](constituencyCandidateCount[_constituencyId]);\n        uint counter = 0;\n        for(uint i = 0; i < candidates.length; i++) {\n            if(candidateToConstituency[candidates[i]._id] == _constituencyId) {\n            _candidates[counter] = candidates[i];\n            counter++;\n        }\n    }\n\n        return _candidates;\n    }\n}",
  "sourcePath": "/home/d3mon/Projects/sudo-rm--rf/contracts/ElectionHelper.sol",
  "compiler": {
    "name": "solc",
    "version": "0.5.0+commit.1d4f565a.Emscripten.clang"
  },
  "schemaVersion": "3.0.2",
  "updatedAt": "2020-01-25T14:01:48.948Z",
  "devdoc": {
    "methods": {
      "isOwner()": {
        "return": "true if `msg.sender` is the owner of the contract."
      },
      "owner()": {
        "return": "the address of the owner."
      },
      "renounceOwnership()": {
        "details": "Allows the current owner to relinquish control of the contract."
      },
      "transferOwnership(address)": {
        "details": "Allows the current owner to transfer control of the contract to a newOwner.",
        "params": {
          "newOwner": "The address to transfer ownership to."
        }
      }
    }
  },
  "userdoc": {
    "methods": {
      "renounceOwnership()": {
        "notice": "Renouncing to ownership will leave the contract without an owner. It will not be possible to call the functions with the `onlyOwner` modifier anymore."
      }
    }
  }
}