{
  "contractName": "ElectionHelper",
  "abi": [
    {
      "constant": true,
      "inputs": [
        {
          "name": "",
          "type": "uint256"
        }
      ],
      "name": "candidateVoteCount",
      "outputs": [
        {
          "name": "",
          "type": "uint256"
        }
      ],
      "payable": false,
      "stateMutability": "view",
      "type": "function"
    },
    {
      "constant": true,
      "inputs": [
        {
          "name": "",
          "type": "uint256"
        }
      ],
      "name": "idToConstituency",
      "outputs": [
        {
          "name": "_id",
          "type": "uint256"
        },
        {
          "name": "_startTime",
          "type": "uint256"
        },
        {
          "name": "_duration",
          "type": "uint256"
        }
      ],
      "payable": false,
      "stateMutability": "view",
      "type": "function"
    },
    {
      "constant": true,
      "inputs": [
        {
          "name": "",
          "type": "uint256"
        }
      ],
      "name": "candidateToConstituency",
      "outputs": [
        {
          "name": "",
          "type": "uint256"
        }
      ],
      "payable": false,
      "stateMutability": "view",
      "type": "function"
    },
    {
      "constant": true,
      "inputs": [
        {
          "name": "",
          "type": "uint256"
        }
      ],
      "name": "admins",
      "outputs": [
        {
          "name": "",
          "type": "uint256"
        }
      ],
      "payable": false,
      "stateMutability": "view",
      "type": "function"
    },
    {
      "constant": true,
      "inputs": [
        {
          "name": "",
          "type": "uint256"
        }
      ],
      "name": "candidates",
      "outputs": [
        {
          "name": "_id",
          "type": "uint256"
        }
      ],
      "payable": false,
      "stateMutability": "view",
      "type": "function"
    },
    {
      "constant": false,
      "inputs": [
        {
          "name": "_id",
          "type": "uint256"
        },
        {
          "name": "_adminId",
          "type": "uint256"
        }
      ],
      "name": "registerConstituency",
      "outputs": [],
      "payable": false,
      "stateMutability": "nonpayable",
      "type": "function"
    },
    {
      "constant": true,
      "inputs": [
        {
          "name": "",
          "type": "uint256"
        }
      ],
      "name": "constituencyCandidateCount",
      "outputs": [
        {
          "name": "",
          "type": "uint256"
        }
      ],
      "payable": false,
      "stateMutability": "view",
      "type": "function"
    },
    {
      "constant": true,
      "inputs": [
        {
          "name": "",
          "type": "uint256"
        }
      ],
      "name": "voteToCandidate",
      "outputs": [
        {
          "name": "",
          "type": "uint256"
        }
      ],
      "payable": false,
      "stateMutability": "view",
      "type": "function"
    },
    {
      "constant": true,
      "inputs": [
        {
          "name": "",
          "type": "uint256"
        }
      ],
      "name": "idToCandidate",
      "outputs": [
        {
          "name": "_id",
          "type": "uint256"
        }
      ],
      "payable": false,
      "stateMutability": "view",
      "type": "function"
    },
    {
      "constant": false,
      "inputs": [
        {
          "name": "_id",
          "type": "uint256"
        },
        {
          "name": "_adminId",
          "type": "uint256"
        }
      ],
      "name": "registerCandidate",
      "outputs": [],
      "payable": false,
      "stateMutability": "nonpayable",
      "type": "function"
    },
    {
      "constant": false,
      "inputs": [],
      "name": "renounceOwnership",
      "outputs": [],
      "payable": false,
      "stateMutability": "nonpayable",
      "type": "function"
    },
    {
      "constant": true,
      "inputs": [],
      "name": "owner",
      "outputs": [
        {
          "name": "",
          "type": "address"
        }
      ],
      "payable": false,
      "stateMutability": "view",
      "type": "function"
    },
    {
      "constant": true,
      "inputs": [],
      "name": "isOwner",
      "outputs": [
        {
          "name": "",
          "type": "bool"
        }
      ],
      "payable": false,
      "stateMutability": "view",
      "type": "function"
    },
    {
      "constant": true,
      "inputs": [
        {
          "name": "",
          "type": "uint256"
        }
      ],
      "name": "constituencies",
      "outputs": [
        {
          "name": "_id",
          "type": "uint256"
        },
        {
          "name": "_startTime",
          "type": "uint256"
        },
        {
          "name": "_duration",
          "type": "uint256"
        }
      ],
      "payable": false,
      "stateMutability": "view",
      "type": "function"
    },
    {
      "constant": false,
      "inputs": [
        {
          "name": "_id",
          "type": "uint256"
        }
      ],
      "name": "registerAdmin",
      "outputs": [],
      "payable": false,
      "stateMutability": "nonpayable",
      "type": "function"
    },
    {
      "constant": true,
      "inputs": [],
      "name": "ResultsDeclared",
      "outputs": [
        {
          "name": "",
          "type": "bool"
        }
      ],
      "payable": false,
      "stateMutability": "view",
      "type": "function"
    },
    {
      "constant": true,
      "inputs": [
        {
          "name": "",
          "type": "uint256"
        }
      ],
      "name": "voters",
      "outputs": [
        {
          "name": "_id",
          "type": "uint256"
        },
        {
          "name": "_constituencyId",
          "type": "uint256"
        },
        {
          "name": "_hasVoted",
          "type": "bool"
        },
        {
          "name": "_voteTime",
          "type": "uint256"
        },
        {
          "components": [
            {
              "name": "_voteId",
              "type": "uint256"
            }
          ],
          "name": "_vote",
          "type": "tuple"
        }
      ],
      "payable": false,
      "stateMutability": "view",
      "type": "function"
    },
    {
      "constant": false,
      "inputs": [
        {
          "name": "newOwner",
          "type": "address"
        }
      ],
      "name": "transferOwnership",
      "outputs": [],
      "payable": false,
      "stateMutability": "nonpayable",
      "type": "function"
    },
    {
      "constant": true,
      "inputs": [
        {
          "name": "",
          "type": "uint256"
        }
      ],
      "name": "idToVoter",
      "outputs": [
        {
          "name": "_id",
          "type": "uint256"
        },
        {
          "name": "_constituencyId",
          "type": "uint256"
        },
        {
          "name": "_hasVoted",
          "type": "bool"
        },
        {
          "name": "_voteTime",
          "type": "uint256"
        },
        {
          "components": [
            {
              "name": "_voteId",
              "type": "uint256"
            }
          ],
          "name": "_vote",
          "type": "tuple"
        }
      ],
      "payable": false,
      "stateMutability": "view",
      "type": "function"
    },
    {
      "anonymous": false,
      "inputs": [
        {
          "indexed": false,
          "name": "_id",
          "type": "uint256"
        },
        {
          "indexed": false,
          "name": "_constituencyId",
          "type": "uint256"
        }
      ],
      "name": "VoterCreated",
      "type": "event"
    },
    {
      "anonymous": false,
      "inputs": [
        {
          "indexed": false,
          "name": "_id",
          "type": "uint256"
        }
      ],
      "name": "CandidateRegistered",
      "type": "event"
    },
    {
      "anonymous": false,
      "inputs": [
        {
          "indexed": false,
          "name": "_id",
          "type": "uint256"
        }
      ],
      "name": "ConstituencyRegistered",
      "type": "event"
    },
    {
      "anonymous": false,
      "inputs": [
        {
          "indexed": true,
          "name": "previousOwner",
          "type": "address"
        },
        {
          "indexed": true,
          "name": "newOwner",
          "type": "address"
        }
      ],
      "name": "OwnershipTransferred",
      "type": "event"
    },
    {
      "constant": false,
      "inputs": [
        {
          "name": "_adminId",
          "type": "uint256"
        }
      ],
      "name": "getConstituencies",
      "outputs": [
        {
          "components": [
            {
              "name": "_id",
              "type": "uint256"
            },
            {
              "name": "_startTime",
              "type": "uint256"
            },
            {
              "name": "_duration",
              "type": "uint256"
            }
          ],
          "name": "",
          "type": "tuple[]"
        }
      ],
      "payable": false,
      "stateMutability": "nonpayable",
      "type": "function"
    },
    {
      "constant": false,
      "inputs": [
        {
          "name": "_id",
          "type": "uint256"
        },
        {
          "name": "_duration",
          "type": "uint256"
        },
        {
          "name": "_adminId",
          "type": "uint256"
        }
      ],
      "name": "generateElectionforConstituency",
      "outputs": [],
      "payable": false,
      "stateMutability": "nonpayable",
      "type": "function"
    },
    {
      "constant": false,
      "inputs": [
        {
          "name": "_id",
          "type": "uint256"
        },
        {
          "name": "_userId",
          "type": "uint256"
        }
      ],
      "name": "getConstituencyDetails",
      "outputs": [
        {
          "components": [
            {
              "name": "_id",
              "type": "uint256"
            },
            {
              "name": "_startTime",
              "type": "uint256"
            },
            {
              "name": "_duration",
              "type": "uint256"
            }
          ],
          "name": "",
          "type": "tuple"
        }
      ],
      "payable": false,
      "stateMutability": "nonpayable",
      "type": "function"
    },
    {
      "constant": false,
      "inputs": [
        {
          "name": "_id",
          "type": "uint256"
        },
        {
          "name": "_constituencyId",
          "type": "uint256"
        },
        {
          "name": "_adminId",
          "type": "uint256"
        }
      ],
      "name": "assignCandidateToConstituency",
      "outputs": [],
      "payable": false,
      "stateMutability": "nonpayable",
      "type": "function"
    },
    {
      "constant": true,
      "inputs": [
        {
          "name": "_constituencyId",
          "type": "uint256"
        },
        {
          "name": "_userId",
          "type": "uint256"
        }
      ],
      "name": "getCandidatesByConstituency",
      "outputs": [
        {
          "components": [
            {
              "name": "_id",
              "type": "uint256"
            }
          ],
          "name": "",
          "type": "tuple[]"
        }
      ],
      "payable": false,
      "stateMutability": "view",
      "type": "function"
    }
  ],
  "bytecode": "0x608060405260008060146101000a81548160ff021916908315150217905550336000806101000a81548173ffffffffffffffffffffffffffffffffffffffff021916908373ffffffffffffffffffffffffffffffffffffffff1602179055506000809054906101000a900473ffffffffffffffffffffffffffffffffffffffff1673ffffffffffffffffffffffffffffffffffffffff16600073ffffffffffffffffffffffffffffffffffffffff167f8be0079c531659141344cd1fd0a4f28419497f9722a3daafe3b4186f6b6457e060405160405180910390a360008060146101000a81548160ff021916908315150217905550611681806101036000396000f3fe60806040526004361061013e576000357c0100000000000000000000000000000000000000000000000000000000900463ffffffff16806301aa2e03146101435780630f80dcb01461018057806312d51c72146101bf5780631471e0ab146101e857806314bfd6d01461022557806328975210146102625780632fd23a3f1461029f5780633477ee2e146102dc5780633acab52f146103195780633b04a6c91461034257806356be16581461037f57806357e2ef10146103bc5780635d6e5052146103f9578063715018a6146104225780638da5cb5b146104395780638f32d59b146104645780639209416a1461048f57806394845254146104ce578063aa3e4e1c146104f7578063bbc893a314610522578063da58c7d91461055f578063f2fde38b146105a0578063f7590065146105c9578063f8c70571146105f2575b600080fd5b34801561014f57600080fd5b5061016a6004803603610165919081019061120c565b610633565b60405161017791906114f4565b60405180910390f35b34801561018c57600080fd5b506101a760048036036101a2919081019061120c565b61064b565b6040516101b693929190611562565b60405180910390f35b3480156101cb57600080fd5b506101e660048036036101e19190810190611271565b610675565b005b3480156101f457600080fd5b5061020f600480360361020a919081019061120c565b610704565b60405161021c91906114f4565b60405180910390f35b34801561023157600080fd5b5061024c6004803603610247919081019061120c565b61071c565b60405161025991906114f4565b60405180910390f35b34801561026e57600080fd5b506102896004803603610284919081019061120c565b61073f565b604051610296919061149c565b60405180910390f35b3480156102ab57600080fd5b506102c660048036036102c19190810190611235565b61086e565b6040516102d391906114d9565b60405180910390f35b3480156102e857600080fd5b5061030360048036036102fe919081019061120c565b6108ef565b60405161031091906114f4565b60405180910390f35b34801561032557600080fd5b50610340600480360361033b9190810190611235565b610918565b005b34801561034e57600080fd5b506103696004803603610364919081019061120c565b610a66565b60405161037691906114f4565b60405180910390f35b34801561038b57600080fd5b506103a660048036036103a1919081019061120c565b610a7e565b6040516103b391906114f4565b60405180910390f35b3480156103c857600080fd5b506103e360048036036103de919081019061120c565b610a96565b6040516103f091906114f4565b60405180910390f35b34801561040557600080fd5b50610420600480360361041b9190810190611235565b610ab4565b005b34801561042e57600080fd5b50610437610bc4565b005b34801561044557600080fd5b5061044e610c96565b60405161045b919061145f565b60405180910390f35b34801561047057600080fd5b50610479610cbf565b60405161048691906114be565b60405180910390f35b34801561049b57600080fd5b506104b660048036036104b1919081019061120c565b610d16565b6040516104c593929190611562565b60405180910390f35b3480156104da57600080fd5b506104f560048036036104f0919081019061120c565b610d4f565b005b34801561050357600080fd5b5061050c610d91565b60405161051991906114be565b60405180910390f35b34801561052e57600080fd5b5061054960048036036105449190810190611235565b610da4565b604051610556919061147a565b60405180910390f35b34801561056b57600080fd5b506105866004803603610581919081019061120c565b610edb565b60405161059795949392919061150f565b60405180910390f35b3480156105ac57600080fd5b506105c760048036036105c291908101906111e3565b610f42565b005b3480156105d557600080fd5b506105f060048036036105eb9190810190611271565b610f61565b005b3480156105fe57600080fd5b506106196004803603610614919081019061120c565b611011565b60405161062a95949392919061150f565b60405180910390f35b60076020528060005260406000206000915090505481565b60036020528060005260406000206000915090508060000154908060010154908060020154905083565b8060008090505b600b805490508110156106fd5781600b8281548110151561069957fe5b906000526020600020015414156106ea5783600560008781526020019081526020016000208190555060066000858152602001908152602001600020600081548092919060010191905055506106ef565b6106f0565b5b808060010191505061067c565b5050505050565b60056020528060005260406000206000915090505481565b600b8181548110151561072b57fe5b906000526020600020016000915090505481565b60608160008090505b600b805490508110156108675781600b8281548110151561076557fe5b90600052602060002001541415610854576060600a805490506040519080825280602002602001820160405280156107b757816020015b6107a4611163565b81526020019060019003908161079c5790505b509050600080905060008090505b600a8054905081101561084957600a818154811015156107e157fe5b9060005260206000209060030201606060405190810160405290816000820154815260200160018201548152602001600282015481525050838381518110151561082757fe5b90602001906020020181905250818060010192505080806001019150506107c5565b508194505050610859565b61085a565b5b8080600101915050610748565b5050919050565b610876611185565b81600060016000838152602001908152602001600020600001541415151561089d57600080fd5b6108a5611185565b600360008681526020019081526020016000206060604051908101604052908160008201548152602001600182015481526020016002820154815250509050809250505092915050565b6009818154811015156108fe57fe5b906000526020600020016000915090508060000154905081565b8060008090505b600b80549050811015610a605781600b8281548110151561093c57fe5b90600052602060002001541415610a4d5760006001600a606060405190810160405280888152602001600081526020016000815250908060018154018082558091505090600182039060005260206000209060030201600090919290919091506000820151816000015560208201518160010155604082015181600201555050039050600a818154811015156109ce57fe5b9060005260206000209060030201600360008781526020019081526020016000206000820154816000015560018201548160010155600282015481600201559050507f21db1a92fb8efb483c22a581ee7e282b6d79d9d43b559ee1affa34181886796985604051610a3f91906114f4565b60405180910390a150610a52565b610a53565b5b808060010191505061091f565b50505050565b60066020528060005260406000206000915090505481565b60046020528060005260406000206000915090505481565b60026020528060005260406000206000915090508060000154905081565b8060008090505b600b80549050811015610bbe5781600b82815481101515610ad857fe5b90600052602060002001541415610bab5760006001600960206040519081016040528088815250908060018154018082558091505090600182039060005260206000200160009091929091909150600082015181600001555050039050600981815481101515610b4457fe5b9060005260206000200160026000878152602001908152602001600020600082015481600001559050507f43dcee486fabffa2fb551555bfaa5bfcf6a42f2d014032ccef94bf09d83855eb85604051610b9d91906114f4565b60405180910390a150610bb0565b610bb1565b5b8080600101915050610abb565b50505050565b610bcc610cbf565b1515610bd757600080fd5b600073ffffffffffffffffffffffffffffffffffffffff166000809054906101000a900473ffffffffffffffffffffffffffffffffffffffff1673ffffffffffffffffffffffffffffffffffffffff167f8be0079c531659141344cd1fd0a4f28419497f9722a3daafe3b4186f6b6457e060405160405180910390a360008060006101000a81548173ffffffffffffffffffffffffffffffffffffffff021916908373ffffffffffffffffffffffffffffffffffffffff160217905550565b60008060009054906101000a900473ffffffffffffffffffffffffffffffffffffffff16905090565b60008060009054906101000a900473ffffffffffffffffffffffffffffffffffffffff1673ffffffffffffffffffffffffffffffffffffffff163373ffffffffffffffffffffffffffffffffffffffff1614905090565b600a81815481101515610d2557fe5b90600052602060002090600302016000915090508060000154908060010154908060020154905083565b610d57610cbf565b1515610d6257600080fd5b600b81908060018154018082558091505090600182039060005260206000200160009091929091909150555050565b600060149054906101000a900460ff1681565b6060816000600160008381526020019081526020016000206000015414151515610dcd57600080fd5b60606006600086815260200190815260200160002054604051908082528060200260200182016040528015610e1c57816020015b610e096111a7565b815260200190600190039081610e015790505b509050600080905060008090505b600980549050811015610ece578660056000600984815481101515610e4b57fe5b90600052602060002001600001548152602001908152602001600020541415610ec157600981815481101515610e7d57fe5b90600052602060002001602060405190810160405290816000820154815250508383815181101515610eab57fe5b9060200190602002018190525081806001019250505b8080600101915050610e2a565b5081935050505092915050565b600881815481101515610eea57fe5b90600052602060002090600502016000915090508060000154908060010154908060020160009054906101000a900460ff16908060030154908060040160206040519081016040529081600082015481525050905085565b610f4a610cbf565b1515610f5557600080fd5b610f5e81611069565b50565b8060008090505b600b8054905081101561100a5781600b82815481101515610f8557fe5b90600052602060002001541415610ff757610f9e611185565b600360008781526020019081526020016000206060604051908101604052908160008201548152602001600182015481526020016002820154815250509050428160200181815250508481604001818152505050610ffc565b610ffd565b5b8080600101915050610f68565b5050505050565b60016020528060005260406000206000915090508060000154908060010154908060020160009054906101000a900460ff16908060030154908060040160206040519081016040529081600082015481525050905085565b600073ffffffffffffffffffffffffffffffffffffffff168173ffffffffffffffffffffffffffffffffffffffff16141515156110a557600080fd5b8073ffffffffffffffffffffffffffffffffffffffff166000809054906101000a900473ffffffffffffffffffffffffffffffffffffffff1673ffffffffffffffffffffffffffffffffffffffff167f8be0079c531659141344cd1fd0a4f28419497f9722a3daafe3b4186f6b6457e060405160405180910390a3806000806101000a81548173ffffffffffffffffffffffffffffffffffffffff021916908373ffffffffffffffffffffffffffffffffffffffff16021790555050565b6060604051908101604052806000815260200160008152602001600081525090565b6060604051908101604052806000815260200160008152602001600081525090565b602060405190810160405280600081525090565b60006111c7823561162b565b905092915050565b60006111db823561163d565b905092915050565b6000602082840312156111f557600080fd5b6000611203848285016111bb565b91505092915050565b60006020828403121561121e57600080fd5b600061122c848285016111cf565b91505092915050565b6000806040838503121561124857600080fd5b6000611256858286016111cf565b9250506020611267858286016111cf565b9150509250929050565b60008060006060848603121561128657600080fd5b6000611294868287016111cf565b93505060206112a5868287016111cf565b92505060406112b6868287016111cf565b9150509250925092565b6112c9816115e3565b82525050565b60006112da826115b3565b8084526020840193506112ec83611599565b60005b8281101561131e57611302868351611394565b61130b826115c9565b91506020860195506001810190506112ef565b50849250505092915050565b6000611335826115be565b808452602084019350611347836115a6565b60005b828110156113795761135d8683516113f2565b611366826115d6565b915060608601955060018101905061134a565b50849250505092915050565b61138e816115f5565b82525050565b6020820160008201516113aa6000850182611450565b50505050565b6060820160008201516113c66000850182611450565b5060208201516113d96020850182611450565b5060408201516113ec6040850182611450565b50505050565b6060820160008201516114086000850182611450565b50602082015161141b6020850182611450565b50604082015161142e6040850182611450565b50505050565b60208201600082015161144a6000850182611450565b50505050565b61145981611621565b82525050565b600060208201905061147460008301846112c0565b92915050565b6000602082019050818103600083015261149481846112cf565b905092915050565b600060208201905081810360008301526114b6818461132a565b905092915050565b60006020820190506114d36000830184611385565b92915050565b60006060820190506114ee60008301846113b0565b92915050565b60006020820190506115096000830184611450565b92915050565b600060a0820190506115246000830188611450565b6115316020830187611450565b61153e6040830186611385565b61154b6060830185611450565b6115586080830184611434565b9695505050505050565b60006060820190506115776000830186611450565b6115846020830185611450565b6115916040830184611450565b949350505050565b6000602082019050919050565b6000602082019050919050565b600081519050919050565b600081519050919050565b6000602082019050919050565b6000602082019050919050565b60006115ee82611601565b9050919050565b60008115159050919050565b600073ffffffffffffffffffffffffffffffffffffffff82169050919050565b6000819050919050565b600061163682611601565b9050919050565b600081905091905056fea265627a7a72305820c0c3ff744a692b9979af9581a30270e09e5dea54f1f27fc75fc1bfc8311b6abd6c6578706572696d656e74616cf50037",
  "source": "pragma solidity ^0.5.0;\npragma experimental ABIEncoderV2;\nimport \"./Election.sol\";\n\ncontract ElectionHelper is Election {\n\n    function getConstituencies(uint256 _adminId) external onlyAdmin(_adminId) returns(Constituency[] memory) {\n        Constituency[] memory _constituencies = new Constituency[](constituencies.length);\n        uint counter = 0;\n        for(uint i = 0; i < constituencies.length; i++) {\n            _constituencies[counter] = constituencies[i];\n            counter++;\n        }\n        return _constituencies;\n    }\n\n    function generateElectionforConstituency(uint256 _id, uint256 _duration, uint256 _adminId) external onlyAdmin(_adminId) {\n        Constituency memory _constituency = idToConstituency[_id];\n        _constituency._startTime = block.timestamp;\n        _constituency._duration = _duration;\n    }\n\n    function getConstituencyDetails(uint256 _id, uint256 _userId) external onlyUser(_userId) returns(Constituency memory) {\n        Constituency memory _constituency = idToConstituency[_id];\n        return _constituency;\n    }\n\n    function assignCandidateToConstituency(uint256 _id, uint256 _constituencyId, uint256 _adminId) public onlyAdmin(_adminId) {\n        candidateToConstituency[_id] = _constituencyId;\n        constituencyCandidateCount[_constituencyId]++;\n    }\n\n    function getCandidatesByConstituency(uint256 _constituencyId, uint256 _userId) public view onlyUser(_userId) returns(Candidate[] memory) {\n        Candidate[] memory _candidates = new Candidate[](constituencyCandidateCount[_constituencyId]);\n        uint counter = 0;\n        for(uint i = 0; i < candidates.length; i++) {\n            if(candidateToConstituency[candidates[i]._id] == _constituencyId) {\n            _candidates[counter] = candidates[i];\n            counter++;\n        }\n    }\n\n        return _candidates;\n    }\n}",
  "sourcePath": "/home/d3mon/Projects/sudo-rm--rf/contracts/ElectionHelper.sol",
  "compiler": {
    "name": "solc",
    "version": "0.5.0+commit.1d4f565a.Emscripten.clang"
  },
  "schemaVersion": "3.0.2",
  "updatedAt": "2020-01-26T14:48:17.540Z",
  "devdoc": {
    "methods": {
      "isOwner()": {
        "return": "true if `msg.sender` is the owner of the contract."
      },
      "owner()": {
        "return": "the address of the owner."
      },
      "renounceOwnership()": {
        "details": "Allows the current owner to relinquish control of the contract."
      },
      "transferOwnership(address)": {
        "details": "Allows the current owner to transfer control of the contract to a newOwner.",
        "params": {
          "newOwner": "The address to transfer ownership to."
        }
      }
    }
  },
  "userdoc": {
    "methods": {
      "renounceOwnership()": {
        "notice": "Renouncing to ownership will leave the contract without an owner. It will not be possible to call the functions with the `onlyOwner` modifier anymore."
      }
    }
  }
}