{
  "contractName": "ResultHelper",
  "abi": [
    {
      "constant": true,
      "inputs": [
        {
          "name": "",
          "type": "uint256"
        }
      ],
      "name": "candidateVoteCount",
      "outputs": [
        {
          "name": "",
          "type": "uint256"
        }
      ],
      "payable": false,
      "stateMutability": "view",
      "type": "function"
    },
    {
      "constant": true,
      "inputs": [
        {
          "name": "",
          "type": "uint256"
        }
      ],
      "name": "idToConstituency",
      "outputs": [
        {
          "name": "_id",
          "type": "uint256"
        },
        {
          "name": "_startTime",
          "type": "uint256"
        },
        {
          "name": "_duration",
          "type": "uint256"
        }
      ],
      "payable": false,
      "stateMutability": "view",
      "type": "function"
    },
    {
      "constant": false,
      "inputs": [
        {
          "name": "_id",
          "type": "uint256"
        },
        {
          "name": "_constituencyId",
          "type": "uint256"
        },
        {
          "name": "_adminId",
          "type": "uint256"
        }
      ],
      "name": "assignCandidateToConstituency",
      "outputs": [],
      "payable": false,
      "stateMutability": "nonpayable",
      "type": "function"
    },
    {
      "constant": true,
      "inputs": [
        {
          "name": "",
          "type": "uint256"
        }
      ],
      "name": "candidateToConstituency",
      "outputs": [
        {
          "name": "",
          "type": "uint256"
        }
      ],
      "payable": false,
      "stateMutability": "view",
      "type": "function"
    },
    {
      "constant": true,
      "inputs": [
        {
          "name": "",
          "type": "uint256"
        }
      ],
      "name": "admins",
      "outputs": [
        {
          "name": "",
          "type": "uint256"
        }
      ],
      "payable": false,
      "stateMutability": "view",
      "type": "function"
    },
    {
      "constant": false,
      "inputs": [
        {
          "name": "_adminId",
          "type": "uint256"
        }
      ],
      "name": "getConstituencies",
      "outputs": [
        {
          "components": [
            {
              "name": "_id",
              "type": "uint256"
            },
            {
              "name": "_startTime",
              "type": "uint256"
            },
            {
              "name": "_duration",
              "type": "uint256"
            }
          ],
          "name": "",
          "type": "tuple[]"
        }
      ],
      "payable": false,
      "stateMutability": "nonpayable",
      "type": "function"
    },
    {
      "constant": false,
      "inputs": [
        {
          "name": "_id",
          "type": "uint256"
        },
        {
          "name": "_userId",
          "type": "uint256"
        }
      ],
      "name": "getConstituencyDetails",
      "outputs": [
        {
          "components": [
            {
              "name": "_id",
              "type": "uint256"
            },
            {
              "name": "_startTime",
              "type": "uint256"
            },
            {
              "name": "_duration",
              "type": "uint256"
            }
          ],
          "name": "",
          "type": "tuple"
        }
      ],
      "payable": false,
      "stateMutability": "nonpayable",
      "type": "function"
    },
    {
      "constant": false,
      "inputs": [
        {
          "name": "from",
          "type": "uint256"
        },
        {
          "name": "to",
          "type": "uint256"
        },
        {
          "name": "tokenId",
          "type": "uint256"
        }
      ],
      "name": "transferFrom",
      "outputs": [],
      "payable": false,
      "stateMutability": "nonpayable",
      "type": "function"
    },
    {
      "constant": true,
      "inputs": [
        {
          "name": "",
          "type": "uint256"
        }
      ],
      "name": "candidates",
      "outputs": [
        {
          "name": "_id",
          "type": "uint256"
        }
      ],
      "payable": false,
      "stateMutability": "view",
      "type": "function"
    },
    {
      "constant": false,
      "inputs": [
        {
          "name": "_id",
          "type": "uint256"
        },
        {
          "name": "_adminId",
          "type": "uint256"
        }
      ],
      "name": "registerConstituency",
      "outputs": [],
      "payable": false,
      "stateMutability": "nonpayable",
      "type": "function"
    },
    {
      "constant": true,
      "inputs": [
        {
          "name": "",
          "type": "uint256"
        }
      ],
      "name": "constituencyCandidateCount",
      "outputs": [
        {
          "name": "",
          "type": "uint256"
        }
      ],
      "payable": false,
      "stateMutability": "view",
      "type": "function"
    },
    {
      "constant": true,
      "inputs": [
        {
          "name": "",
          "type": "uint256"
        }
      ],
      "name": "voteToCandidate",
      "outputs": [
        {
          "name": "",
          "type": "uint256"
        }
      ],
      "payable": false,
      "stateMutability": "view",
      "type": "function"
    },
    {
      "constant": true,
      "inputs": [
        {
          "name": "",
          "type": "uint256"
        }
      ],
      "name": "idToCandidate",
      "outputs": [
        {
          "name": "_id",
          "type": "uint256"
        }
      ],
      "payable": false,
      "stateMutability": "view",
      "type": "function"
    },
    {
      "constant": false,
      "inputs": [
        {
          "name": "_id",
          "type": "uint256"
        },
        {
          "name": "_adminId",
          "type": "uint256"
        }
      ],
      "name": "registerCandidate",
      "outputs": [],
      "payable": false,
      "stateMutability": "nonpayable",
      "type": "function"
    },
    {
      "constant": false,
      "inputs": [],
      "name": "renounceOwnership",
      "outputs": [],
      "payable": false,
      "stateMutability": "nonpayable",
      "type": "function"
    },
    {
      "constant": true,
      "inputs": [],
      "name": "owner",
      "outputs": [
        {
          "name": "",
          "type": "address"
        }
      ],
      "payable": false,
      "stateMutability": "view",
      "type": "function"
    },
    {
      "constant": true,
      "inputs": [],
      "name": "isOwner",
      "outputs": [
        {
          "name": "",
          "type": "bool"
        }
      ],
      "payable": false,
      "stateMutability": "view",
      "type": "function"
    },
    {
      "constant": true,
      "inputs": [
        {
          "name": "",
          "type": "uint256"
        }
      ],
      "name": "constituencies",
      "outputs": [
        {
          "name": "_id",
          "type": "uint256"
        },
        {
          "name": "_startTime",
          "type": "uint256"
        },
        {
          "name": "_duration",
          "type": "uint256"
        }
      ],
      "payable": false,
      "stateMutability": "view",
      "type": "function"
    },
    {
      "constant": false,
      "inputs": [
        {
          "name": "_id",
          "type": "uint256"
        }
      ],
      "name": "registerAdmin",
      "outputs": [],
      "payable": false,
      "stateMutability": "nonpayable",
      "type": "function"
    },
    {
      "constant": true,
      "inputs": [],
      "name": "ResultsDeclared",
      "outputs": [
        {
          "name": "",
          "type": "bool"
        }
      ],
      "payable": false,
      "stateMutability": "view",
      "type": "function"
    },
    {
      "constant": true,
      "inputs": [
        {
          "name": "_constituencyId",
          "type": "uint256"
        },
        {
          "name": "_userId",
          "type": "uint256"
        }
      ],
      "name": "getCandidatesByConstituency",
      "outputs": [
        {
          "components": [
            {
              "name": "_id",
              "type": "uint256"
            }
          ],
          "name": "",
          "type": "tuple[]"
        }
      ],
      "payable": false,
      "stateMutability": "view",
      "type": "function"
    },
    {
      "constant": true,
      "inputs": [
        {
          "name": "",
          "type": "uint256"
        }
      ],
      "name": "voters",
      "outputs": [
        {
          "name": "_id",
          "type": "uint256"
        },
        {
          "name": "_constituencyId",
          "type": "uint256"
        },
        {
          "name": "_hasVoted",
          "type": "bool"
        },
        {
          "components": [
            {
              "name": "_voteId",
              "type": "uint256"
            },
            {
              "name": "_votedId",
              "type": "uint256"
            },
            {
              "name": "_voteTime",
              "type": "uint64"
            }
          ],
          "name": "_vote",
          "type": "tuple"
        }
      ],
      "payable": false,
      "stateMutability": "view",
      "type": "function"
    },
    {
      "constant": false,
      "inputs": [
        {
          "name": "newOwner",
          "type": "address"
        }
      ],
      "name": "transferOwnership",
      "outputs": [],
      "payable": false,
      "stateMutability": "nonpayable",
      "type": "function"
    },
    {
      "constant": false,
      "inputs": [
        {
          "name": "_id",
          "type": "uint256"
        },
        {
          "name": "_duration",
          "type": "uint256"
        },
        {
          "name": "_adminId",
          "type": "uint256"
        }
      ],
      "name": "generateElectionforConstituency",
      "outputs": [],
      "payable": false,
      "stateMutability": "nonpayable",
      "type": "function"
    },
    {
      "constant": true,
      "inputs": [
        {
          "name": "",
          "type": "uint256"
        }
      ],
      "name": "idToVoter",
      "outputs": [
        {
          "name": "_id",
          "type": "uint256"
        },
        {
          "name": "_constituencyId",
          "type": "uint256"
        },
        {
          "name": "_hasVoted",
          "type": "bool"
        },
        {
          "components": [
            {
              "name": "_voteId",
              "type": "uint256"
            },
            {
              "name": "_votedId",
              "type": "uint256"
            },
            {
              "name": "_voteTime",
              "type": "uint64"
            }
          ],
          "name": "_vote",
          "type": "tuple"
        }
      ],
      "payable": false,
      "stateMutability": "view",
      "type": "function"
    },
    {
      "anonymous": false,
      "inputs": [
        {
          "indexed": true,
          "name": "_from",
          "type": "uint256"
        },
        {
          "indexed": true,
          "name": "_to",
          "type": "uint256"
        },
        {
          "indexed": true,
          "name": "_tokenId",
          "type": "uint256"
        }
      ],
      "name": "Transfer",
      "type": "event"
    },
    {
      "anonymous": false,
      "inputs": [
        {
          "indexed": false,
          "name": "_id",
          "type": "uint256"
        },
        {
          "indexed": false,
          "name": "_constituencyId",
          "type": "uint256"
        }
      ],
      "name": "VoterCreated",
      "type": "event"
    },
    {
      "anonymous": false,
      "inputs": [
        {
          "indexed": false,
          "name": "_id",
          "type": "uint256"
        }
      ],
      "name": "CandidateRegistered",
      "type": "event"
    },
    {
      "anonymous": false,
      "inputs": [
        {
          "indexed": false,
          "name": "_id",
          "type": "uint256"
        }
      ],
      "name": "ConstituencyRegistered",
      "type": "event"
    },
    {
      "anonymous": false,
      "inputs": [
        {
          "indexed": true,
          "name": "previousOwner",
          "type": "address"
        },
        {
          "indexed": true,
          "name": "newOwner",
          "type": "address"
        }
      ],
      "name": "OwnershipTransferred",
      "type": "event"
    },
    {
      "constant": false,
      "inputs": [
        {
          "name": "_adminId",
          "type": "uint256"
        }
      ],
      "name": "declareResults",
      "outputs": [],
      "payable": false,
      "stateMutability": "nonpayable",
      "type": "function"
    },
    {
      "constant": true,
      "inputs": [
        {
          "name": "_constituencyId",
          "type": "uint256"
        },
        {
          "name": "_userId",
          "type": "uint256"
        }
      ],
      "name": "retreiveConstituencyVoteCount",
      "outputs": [
        {
          "name": "",
          "type": "uint32"
        }
      ],
      "payable": false,
      "stateMutability": "view",
      "type": "function"
    }
  ],
  "bytecode": "0x608060405260008060146101000a81548160ff021916908315150217905550336000806101000a81548173ffffffffffffffffffffffffffffffffffffffff021916908373ffffffffffffffffffffffffffffffffffffffff1602179055506000809054906101000a900473ffffffffffffffffffffffffffffffffffffffff1673ffffffffffffffffffffffffffffffffffffffff16600073ffffffffffffffffffffffffffffffffffffffff167f8be0079c531659141344cd1fd0a4f28419497f9722a3daafe3b4186f6b6457e060405160405180910390a360008060146101000a81548160ff021916908315150217905550611a3e806101036000396000f3fe60806040526004361061015f576000357c0100000000000000000000000000000000000000000000000000000000900463ffffffff16806301aa2e03146101645780630f80dcb0146101a157806312d51c72146101e05780631471e0ab1461020957806314bfd6d01461024657806323dc5c6e1461028357806328975210146102ac5780632fd23a3f146102e9578063310ed7f0146103265780633477ee2e1461034f5780633acab52f1461038c5780633b04a6c9146103b557806345dc9ad7146103f257806356be16581461042f57806357e2ef101461046c5780635d6e5052146104a9578063715018a6146104d25780638da5cb5b146104e95780638f32d59b146105145780639209416a1461053f578063948452541461057e578063aa3e4e1c146105a7578063bbc893a3146105d2578063da58c7d91461060f578063f2fde38b1461064f578063f759006514610678578063f8c70571146106a1575b600080fd5b34801561017057600080fd5b5061018b60048036036101869190810190611554565b6106e1565b6040516101989190611880565b60405180910390f35b3480156101ad57600080fd5b506101c860048036036101c39190810190611554565b6106f9565b6040516101d7939291906118e0565b60405180910390f35b3480156101ec57600080fd5b50610207600480360361020291908101906115b9565b610723565b005b34801561021557600080fd5b50610230600480360361022b9190810190611554565b6107b2565b60405161023d9190611880565b60405180910390f35b34801561025257600080fd5b5061026d60048036036102689190810190611554565b6107ca565b60405161027a9190611880565b60405180910390f35b34801561028f57600080fd5b506102aa60048036036102a59190810190611554565b6107ed565b005b3480156102b857600080fd5b506102d360048036036102ce9190810190611554565b61085a565b6040516102e09190611828565b60405180910390f35b3480156102f557600080fd5b50610310600480360361030b919081019061157d565b610989565b60405161031d9190611865565b60405180910390f35b34801561033257600080fd5b5061034d600480360361034891908101906115b9565b610a0a565b005b34801561035b57600080fd5b5061037660048036036103719190810190611554565b610b14565b6040516103839190611880565b60405180910390f35b34801561039857600080fd5b506103b360048036036103ae919081019061157d565b610b3d565b005b3480156103c157600080fd5b506103dc60048036036103d79190810190611554565b610c8b565b6040516103e99190611880565b60405180910390f35b3480156103fe57600080fd5b506104196004803603610414919081019061157d565b610ca3565b6040516104269190611917565b60405180910390f35b34801561043b57600080fd5b5061045660048036036104519190810190611554565b610d5a565b6040516104639190611880565b60405180910390f35b34801561047857600080fd5b50610493600480360361048e9190810190611554565b610d72565b6040516104a09190611880565b60405180910390f35b3480156104b557600080fd5b506104d060048036036104cb919081019061157d565b610d90565b005b3480156104de57600080fd5b506104e7610ea0565b005b3480156104f557600080fd5b506104fe610f72565b60405161050b91906117eb565b60405180910390f35b34801561052057600080fd5b50610529610f9b565b604051610536919061184a565b60405180910390f35b34801561054b57600080fd5b5061056660048036036105619190810190611554565b610ff2565b604051610575939291906118e0565b60405180910390f35b34801561058a57600080fd5b506105a560048036036105a09190810190611554565b61102b565b005b3480156105b357600080fd5b506105bc61106d565b6040516105c9919061184a565b60405180910390f35b3480156105de57600080fd5b506105f960048036036105f4919081019061157d565b611080565b6040516106069190611806565b60405180910390f35b34801561061b57600080fd5b5061063660048036036106319190810190611554565b6111b7565b604051610646949392919061189b565b60405180910390f35b34801561065b57600080fd5b506106766004803603610671919081019061152b565b611254565b005b34801561068457600080fd5b5061069f600480360361069a91908101906115b9565b611273565b005b3480156106ad57600080fd5b506106c860048036036106c39190810190611554565b611323565b6040516106d8949392919061189b565b60405180910390f35b60076020528060005260406000206000915090505481565b60036020528060005260406000206000915090508060000154908060010154908060020154905083565b8060008090505b600b805490508110156107ab5781600b8281548110151561074757fe5b9060005260206000200154141561079857836005600087815260200190815260200160002081905550600660008581526020019081526020016000206000815480929190600101919050555061079d565b61079e565b5b808060010191505061072a565b5050505050565b60056020528060005260406000206000915090505481565b600b818154811015156107d957fe5b906000526020600020016000915090505481565b8060008090505b600b805490508110156108555781600b8281548110151561081157fe5b90600052602060002001541415610842576001600060146101000a81548160ff021916908315150217905550610847565b610848565b5b80806001019150506107f4565b505050565b60608160008090505b600b805490508110156109825781600b8281548110151561088057fe5b9060005260206000200154141561096f576060600a805490506040519080825280602002602001820160405280156108d257816020015b6108bf6114ab565b8152602001906001900390816108b75790505b509050600080905060008090505b600a8054905081101561096457600a818154811015156108fc57fe5b9060005260206000209060030201606060405190810160405290816000820154815260200160018201548152602001600282015481525050838381518110151561094257fe5b90602001906020020181905250818060010192505080806001019150506108e0565b508194505050610974565b610975565b5b8080600101915050610863565b5050919050565b6109916114cd565b8160006001600083815260200190815260200160002060000154141515156109b857600080fd5b6109c06114cd565b600360008681526020019081526020016000206060604051908101604052908160008201548152602001600182015481526020016002820154815250509050809250505092915050565b826000600160008381526020019081526020016000206000015414151515610a3157600080fd5b60056000848152602001908152602001600020546001600086815260200190815260200160002060010154141515610a6857600080fd5b600060016000868152602001908152602001600020905060018160020160006101000a81548160ff0219169083151502179055508360046000836003016000015481526020019081526020016000208190555060076000858152602001908152602001600020600081548092919060010191905055508284867faf6151f5085accf2d57e1e7bf7601d3b3982e0de7e9a90f032f8554de9c104f660405160405180910390a45050505050565b600981815481101515610b2357fe5b906000526020600020016000915090508060000154905081565b8060008090505b600b80549050811015610c855781600b82815481101515610b6157fe5b90600052602060002001541415610c725760006001600a606060405190810160405280888152602001600081526020016000815250908060018154018082558091505090600182039060005260206000209060030201600090919290919091506000820151816000015560208201518160010155604082015181600201555050039050600a81815481101515610bf357fe5b9060005260206000209060030201600360008781526020019081526020016000206000820154816000015560018201548160010155600282015481600201559050507f21db1a92fb8efb483c22a581ee7e282b6d79d9d43b559ee1affa34181886796985604051610c649190611880565b60405180910390a150610c77565b610c78565b5b8080600101915050610b44565b50505050565b60066020528060005260406000206000915090505481565b600060011515600060149054906101000a900460ff161515141515610cc757600080fd5b816000600160008381526020019081526020016000206000015414151515610cee57600080fd5b6060610cfa8585611080565b9050600080600090505b8251811015610d4d57600760008483815181101515610d1f57fe5b9060200190602002015160000151815260200190815260200160002054820191508080600101915050610d04565b5080935050505092915050565b60046020528060005260406000206000915090505481565b60026020528060005260406000206000915090508060000154905081565b8060008090505b600b80549050811015610e9a5781600b82815481101515610db457fe5b90600052602060002001541415610e875760006001600960206040519081016040528088815250908060018154018082558091505090600182039060005260206000200160009091929091909150600082015181600001555050039050600981815481101515610e2057fe5b9060005260206000200160026000878152602001908152602001600020600082015481600001559050507f43dcee486fabffa2fb551555bfaa5bfcf6a42f2d014032ccef94bf09d83855eb85604051610e799190611880565b60405180910390a150610e8c565b610e8d565b5b8080600101915050610d97565b50505050565b610ea8610f9b565b1515610eb357600080fd5b600073ffffffffffffffffffffffffffffffffffffffff166000809054906101000a900473ffffffffffffffffffffffffffffffffffffffff1673ffffffffffffffffffffffffffffffffffffffff167f8be0079c531659141344cd1fd0a4f28419497f9722a3daafe3b4186f6b6457e060405160405180910390a360008060006101000a81548173ffffffffffffffffffffffffffffffffffffffff021916908373ffffffffffffffffffffffffffffffffffffffff160217905550565b60008060009054906101000a900473ffffffffffffffffffffffffffffffffffffffff16905090565b60008060009054906101000a900473ffffffffffffffffffffffffffffffffffffffff1673ffffffffffffffffffffffffffffffffffffffff163373ffffffffffffffffffffffffffffffffffffffff1614905090565b600a8181548110151561100157fe5b90600052602060002090600302016000915090508060000154908060010154908060020154905083565b611033610f9b565b151561103e57600080fd5b600b81908060018154018082558091505090600182039060005260206000200160009091929091909150555050565b600060149054906101000a900460ff1681565b60608160006001600083815260200190815260200160002060000154141515156110a957600080fd5b606060066000868152602001908152602001600020546040519080825280602002602001820160405280156110f857816020015b6110e56114ef565b8152602001906001900390816110dd5790505b509050600080905060008090505b6009805490508110156111aa57866005600060098481548110151561112757fe5b9060005260206000200160000154815260200190815260200160002054141561119d5760098181548110151561115957fe5b9060005260206000200160206040519081016040529081600082015481525050838381518110151561118757fe5b9060200190602002018190525081806001019250505b8080600101915050611106565b5081935050505092915050565b6008818154811015156111c657fe5b90600052602060002090600602016000915090508060000154908060010154908060020160009054906101000a900460ff1690806003016060604051908101604052908160008201548152602001600182015481526020016002820160009054906101000a900467ffffffffffffffff1667ffffffffffffffff1667ffffffffffffffff1681525050905084565b61125c610f9b565b151561126757600080fd5b611270816113b1565b50565b8060008090505b600b8054905081101561131c5781600b8281548110151561129757fe5b90600052602060002001541415611309576112b06114cd565b60036000878152602001908152602001600020606060405190810160405290816000820154815260200160018201548152602001600282015481525050905042816020018181525050848160400181815250505061130e565b61130f565b5b808060010191505061127a565b5050505050565b60016020528060005260406000206000915090508060000154908060010154908060020160009054906101000a900460ff1690806003016060604051908101604052908160008201548152602001600182015481526020016002820160009054906101000a900467ffffffffffffffff1667ffffffffffffffff1667ffffffffffffffff1681525050905084565b600073ffffffffffffffffffffffffffffffffffffffff168173ffffffffffffffffffffffffffffffffffffffff16141515156113ed57600080fd5b8073ffffffffffffffffffffffffffffffffffffffff166000809054906101000a900473ffffffffffffffffffffffffffffffffffffffff1673ffffffffffffffffffffffffffffffffffffffff167f8be0079c531659141344cd1fd0a4f28419497f9722a3daafe3b4186f6b6457e060405160405180910390a3806000806101000a81548173ffffffffffffffffffffffffffffffffffffffff021916908373ffffffffffffffffffffffffffffffffffffffff16021790555050565b6060604051908101604052806000815260200160008152602001600081525090565b6060604051908101604052806000815260200160008152602001600081525090565b602060405190810160405280600081525090565b600061150f82356119e8565b905092915050565b600061152382356119fa565b905092915050565b60006020828403121561153d57600080fd5b600061154b84828501611503565b91505092915050565b60006020828403121561156657600080fd5b600061157484828501611517565b91505092915050565b6000806040838503121561159057600080fd5b600061159e85828601611517565b92505060206115af85828601611517565b9150509250929050565b6000806000606084860312156115ce57600080fd5b60006115dc86828701611517565b93505060206115ed86828701611517565b92505060406115fe86828701611517565b9150509250925092565b6116118161197c565b82525050565b60006116228261194c565b80845260208401935061163483611932565b60005b828110156116665761164a8683516116dc565b61165382611962565b9150602086019550600181019050611637565b50849250505092915050565b600061167d82611957565b80845260208401935061168f8361193f565b60005b828110156116c1576116a586835161173a565b6116ae8261196f565b9150606086019550600181019050611692565b50849250505092915050565b6116d68161198e565b82525050565b6020820160008201516116f260008501826117be565b50505050565b60608201600082015161170e60008501826117be565b50602082015161172160208501826117be565b50604082015161173460408501826117be565b50505050565b60608201600082015161175060008501826117be565b50602082015161176360208501826117be565b50604082015161177660408501826117be565b50505050565b60608201600082015161179260008501826117be565b5060208201516117a560208501826117be565b5060408201516117b860408501826117dc565b50505050565b6117c7816119ba565b82525050565b6117d6816119c4565b82525050565b6117e5816119d4565b82525050565b60006020820190506118006000830184611608565b92915050565b600060208201905081810360008301526118208184611617565b905092915050565b600060208201905081810360008301526118428184611672565b905092915050565b600060208201905061185f60008301846116cd565b92915050565b600060608201905061187a60008301846116f8565b92915050565b600060208201905061189560008301846117be565b92915050565b600060c0820190506118b060008301876117be565b6118bd60208301866117be565b6118ca60408301856116cd565b6118d7606083018461177c565b95945050505050565b60006060820190506118f560008301866117be565b61190260208301856117be565b61190f60408301846117be565b949350505050565b600060208201905061192c60008301846117cd565b92915050565b6000602082019050919050565b6000602082019050919050565b600081519050919050565b600081519050919050565b6000602082019050919050565b6000602082019050919050565b60006119878261199a565b9050919050565b60008115159050919050565b600073ffffffffffffffffffffffffffffffffffffffff82169050919050565b6000819050919050565b600063ffffffff82169050919050565b600067ffffffffffffffff82169050919050565b60006119f38261199a565b9050919050565b600081905091905056fea265627a7a72305820ffbac3a8aa70600e032e256cfebda197bdbdc36aa8179effb9e1e51b88b593006c6578706572696d656e74616cf50037",
  "source": "pragma solidity ^0.5.0;\npragma experimental ABIEncoderV2;\n\nimport \"./VotingTransactions.sol\";\n\ncontract ResultHelper is VotingTransactions{\n\n    function declareResults(uint256 _adminId) external onlyAdmin(_adminId) {\n        ResultsDeclared = true;\n    }\n\n    function retreiveConstituencyVoteCount(uint256 _constituencyId, uint256 _userId) external view declaredResults onlyUser(_userId) returns(uint32) {\n        Candidate[] memory _candidates = getCandidatesByConstituency(_constituencyId,_userId);\n        uint32 _votes;\n        for (uint i = 0; i < _candidates.length; i++) {\n            _votes = _votes + uint32(candidateVoteCount[_candidates[i]._id]);\n        }\n\n        return _votes;\n    }\n}",
  "sourcePath": "/home/d3mon/Projects/sudo-rm--rf/contracts/ResultHelper.sol",
  "compiler": {
    "name": "solc",
    "version": "0.5.0+commit.1d4f565a.Emscripten.clang"
  },
  "schemaVersion": "3.0.2",
  "updatedAt": "2020-01-25T22:05:07.285Z",
  "devdoc": {
    "methods": {
      "isOwner()": {
        "return": "true if `msg.sender` is the owner of the contract."
      },
      "owner()": {
        "return": "the address of the owner."
      },
      "renounceOwnership()": {
        "details": "Allows the current owner to relinquish control of the contract."
      },
      "transferOwnership(address)": {
        "details": "Allows the current owner to transfer control of the contract to a newOwner.",
        "params": {
          "newOwner": "The address to transfer ownership to."
        }
      }
    }
  },
  "userdoc": {
    "methods": {
      "renounceOwnership()": {
        "notice": "Renouncing to ownership will leave the contract without an owner. It will not be possible to call the functions with the `onlyOwner` modifier anymore."
      }
    }
  }
}