{
  "contractName": "ResultHelper",
  "abi": [
    {
      "constant": true,
      "inputs": [
        {
          "name": "",
          "type": "uint256"
        }
      ],
      "name": "candidateVoteCount",
      "outputs": [
        {
          "name": "",
          "type": "uint256"
        }
      ],
      "payable": false,
      "stateMutability": "view",
      "type": "function"
    },
    {
      "constant": true,
      "inputs": [
        {
          "name": "",
          "type": "uint256"
        }
      ],
      "name": "idToConstituency",
      "outputs": [
        {
          "name": "_id",
          "type": "uint256"
        },
        {
          "name": "_startTime",
          "type": "uint256"
        },
        {
          "name": "_duration",
          "type": "uint256"
        }
      ],
      "payable": false,
      "stateMutability": "view",
      "type": "function"
    },
    {
      "constant": false,
      "inputs": [
        {
          "name": "_id",
          "type": "uint256"
        },
        {
          "name": "_constituencyId",
          "type": "uint256"
        },
        {
          "name": "_adminId",
          "type": "uint256"
        }
      ],
      "name": "assignCandidateToConstituency",
      "outputs": [],
      "payable": false,
      "stateMutability": "nonpayable",
      "type": "function"
    },
    {
      "constant": true,
      "inputs": [
        {
          "name": "",
          "type": "uint256"
        }
      ],
      "name": "candidateToConstituency",
      "outputs": [
        {
          "name": "",
          "type": "uint256"
        }
      ],
      "payable": false,
      "stateMutability": "view",
      "type": "function"
    },
    {
      "constant": true,
      "inputs": [
        {
          "name": "",
          "type": "uint256"
        }
      ],
      "name": "admins",
      "outputs": [
        {
          "name": "",
          "type": "uint256"
        }
      ],
      "payable": false,
      "stateMutability": "view",
      "type": "function"
    },
    {
      "constant": false,
      "inputs": [
        {
          "name": "_adminId",
          "type": "uint256"
        }
      ],
      "name": "getConstituencies",
      "outputs": [
        {
          "components": [
            {
              "name": "_id",
              "type": "uint256"
            },
            {
              "name": "_startTime",
              "type": "uint256"
            },
            {
              "name": "_duration",
              "type": "uint256"
            }
          ],
          "name": "",
          "type": "tuple[]"
        }
      ],
      "payable": false,
      "stateMutability": "nonpayable",
      "type": "function"
    },
    {
      "constant": false,
      "inputs": [
        {
          "name": "_id",
          "type": "uint256"
        },
        {
          "name": "_userId",
          "type": "uint256"
        }
      ],
      "name": "getConstituencyDetails",
      "outputs": [
        {
          "components": [
            {
              "name": "_id",
              "type": "uint256"
            },
            {
              "name": "_startTime",
              "type": "uint256"
            },
            {
              "name": "_duration",
              "type": "uint256"
            }
          ],
          "name": "",
          "type": "tuple"
        }
      ],
      "payable": false,
      "stateMutability": "nonpayable",
      "type": "function"
    },
    {
      "constant": true,
      "inputs": [
        {
          "name": "",
          "type": "uint256"
        }
      ],
      "name": "candidates",
      "outputs": [
        {
          "name": "_id",
          "type": "uint256"
        }
      ],
      "payable": false,
      "stateMutability": "view",
      "type": "function"
    },
    {
      "constant": false,
      "inputs": [
        {
          "name": "_id",
          "type": "uint256"
        },
        {
          "name": "_adminId",
          "type": "uint256"
        }
      ],
      "name": "registerConstituency",
      "outputs": [],
      "payable": false,
      "stateMutability": "nonpayable",
      "type": "function"
    },
    {
      "constant": true,
      "inputs": [
        {
          "name": "",
          "type": "uint256"
        }
      ],
      "name": "constituencyCandidateCount",
      "outputs": [
        {
          "name": "",
          "type": "uint256"
        }
      ],
      "payable": false,
      "stateMutability": "view",
      "type": "function"
    },
    {
      "constant": false,
      "inputs": [
        {
          "name": "from",
          "type": "uint256"
        },
        {
          "name": "to",
          "type": "uint256"
        },
        {
          "name": "tokenId",
          "type": "bytes32"
        }
      ],
      "name": "transferFrom",
      "outputs": [],
      "payable": false,
      "stateMutability": "nonpayable",
      "type": "function"
    },
    {
      "constant": true,
      "inputs": [
        {
          "name": "",
          "type": "uint256"
        }
      ],
      "name": "voteToCandidate",
      "outputs": [
        {
          "name": "",
          "type": "uint256"
        }
      ],
      "payable": false,
      "stateMutability": "view",
      "type": "function"
    },
    {
      "constant": true,
      "inputs": [
        {
          "name": "",
          "type": "uint256"
        }
      ],
      "name": "idToCandidate",
      "outputs": [
        {
          "name": "_id",
          "type": "uint256"
        }
      ],
      "payable": false,
      "stateMutability": "view",
      "type": "function"
    },
    {
      "constant": false,
      "inputs": [
        {
          "name": "_id",
          "type": "uint256"
        },
        {
          "name": "_adminId",
          "type": "uint256"
        }
      ],
      "name": "registerCandidate",
      "outputs": [],
      "payable": false,
      "stateMutability": "nonpayable",
      "type": "function"
    },
    {
      "constant": false,
      "inputs": [],
      "name": "renounceOwnership",
      "outputs": [],
      "payable": false,
      "stateMutability": "nonpayable",
      "type": "function"
    },
    {
      "constant": true,
      "inputs": [],
      "name": "owner",
      "outputs": [
        {
          "name": "",
          "type": "address"
        }
      ],
      "payable": false,
      "stateMutability": "view",
      "type": "function"
    },
    {
      "constant": true,
      "inputs": [],
      "name": "isOwner",
      "outputs": [
        {
          "name": "",
          "type": "bool"
        }
      ],
      "payable": false,
      "stateMutability": "view",
      "type": "function"
    },
    {
      "constant": true,
      "inputs": [
        {
          "name": "",
          "type": "uint256"
        }
      ],
      "name": "constituencies",
      "outputs": [
        {
          "name": "_id",
          "type": "uint256"
        },
        {
          "name": "_startTime",
          "type": "uint256"
        },
        {
          "name": "_duration",
          "type": "uint256"
        }
      ],
      "payable": false,
      "stateMutability": "view",
      "type": "function"
    },
    {
      "constant": false,
      "inputs": [
        {
          "name": "_id",
          "type": "uint256"
        }
      ],
      "name": "registerAdmin",
      "outputs": [],
      "payable": false,
      "stateMutability": "nonpayable",
      "type": "function"
    },
    {
      "constant": true,
      "inputs": [
        {
          "name": "_constituencyId",
          "type": "uint256"
        },
        {
          "name": "_userId",
          "type": "uint256"
        }
      ],
      "name": "getCandidatesByConstituency",
      "outputs": [
        {
          "components": [
            {
              "name": "_id",
              "type": "uint256"
            }
          ],
          "name": "",
          "type": "tuple[]"
        }
      ],
      "payable": false,
      "stateMutability": "view",
      "type": "function"
    },
    {
      "constant": true,
      "inputs": [
        {
          "name": "",
          "type": "uint256"
        }
      ],
      "name": "voters",
      "outputs": [
        {
          "name": "_id",
          "type": "uint256"
        },
        {
          "name": "_constituencyId",
          "type": "uint256"
        },
        {
          "name": "_hasVoted",
          "type": "bool"
        },
        {
          "components": [
            {
              "name": "_voteId",
              "type": "uint256"
            },
            {
              "name": "_votedId",
              "type": "uint256"
            },
            {
              "name": "_voteTime",
              "type": "uint64"
            }
          ],
          "name": "_vote",
          "type": "tuple"
        }
      ],
      "payable": false,
      "stateMutability": "view",
      "type": "function"
    },
    {
      "constant": false,
      "inputs": [
        {
          "name": "newOwner",
          "type": "address"
        }
      ],
      "name": "transferOwnership",
      "outputs": [],
      "payable": false,
      "stateMutability": "nonpayable",
      "type": "function"
    },
    {
      "constant": false,
      "inputs": [
        {
          "name": "_id",
          "type": "uint256"
        },
        {
          "name": "_duration",
          "type": "uint256"
        },
        {
          "name": "_adminId",
          "type": "uint256"
        }
      ],
      "name": "generateElectionforConstituency",
      "outputs": [],
      "payable": false,
      "stateMutability": "nonpayable",
      "type": "function"
    },
    {
      "constant": true,
      "inputs": [
        {
          "name": "",
          "type": "uint256"
        }
      ],
      "name": "idToVoter",
      "outputs": [
        {
          "name": "_id",
          "type": "uint256"
        },
        {
          "name": "_constituencyId",
          "type": "uint256"
        },
        {
          "name": "_hasVoted",
          "type": "bool"
        },
        {
          "components": [
            {
              "name": "_voteId",
              "type": "uint256"
            },
            {
              "name": "_votedId",
              "type": "uint256"
            },
            {
              "name": "_voteTime",
              "type": "uint64"
            }
          ],
          "name": "_vote",
          "type": "tuple"
        }
      ],
      "payable": false,
      "stateMutability": "view",
      "type": "function"
    },
    {
      "anonymous": false,
      "inputs": [
        {
          "indexed": true,
          "name": "_from",
          "type": "uint256"
        },
        {
          "indexed": true,
          "name": "_to",
          "type": "uint256"
        },
        {
          "indexed": true,
          "name": "_tokenId",
          "type": "bytes32"
        }
      ],
      "name": "Transfer",
      "type": "event"
    },
    {
      "anonymous": false,
      "inputs": [
        {
          "indexed": false,
          "name": "_id",
          "type": "uint256"
        },
        {
          "indexed": false,
          "name": "_constituencyId",
          "type": "uint256"
        }
      ],
      "name": "VoterCreated",
      "type": "event"
    },
    {
      "anonymous": false,
      "inputs": [
        {
          "indexed": false,
          "name": "_id",
          "type": "uint256"
        }
      ],
      "name": "CandidateRegistered",
      "type": "event"
    },
    {
      "anonymous": false,
      "inputs": [
        {
          "indexed": false,
          "name": "_id",
          "type": "uint256"
        }
      ],
      "name": "ConstituencyRegistered",
      "type": "event"
    },
    {
      "anonymous": false,
      "inputs": [
        {
          "indexed": true,
          "name": "previousOwner",
          "type": "address"
        },
        {
          "indexed": true,
          "name": "newOwner",
          "type": "address"
        }
      ],
      "name": "OwnershipTransferred",
      "type": "event"
    },
    {
      "constant": false,
      "inputs": [
        {
          "name": "_adminId",
          "type": "uint256"
        }
      ],
      "name": "declareResults",
      "outputs": [],
      "payable": false,
      "stateMutability": "nonpayable",
      "type": "function"
    },
    {
      "constant": true,
      "inputs": [
        {
          "name": "_constituencyId",
          "type": "uint256"
        },
        {
          "name": "_userId",
          "type": "uint256"
        }
      ],
      "name": "retreiveConstituencyVoteCount",
      "outputs": [
        {
          "name": "",
          "type": "uint32"
        }
      ],
      "payable": false,
      "stateMutability": "view",
      "type": "function"
    }
  ],
  "bytecode": "0x6080604052336000806101000a81548173ffffffffffffffffffffffffffffffffffffffff021916908373ffffffffffffffffffffffffffffffffffffffff1602179055506000809054906101000a900473ffffffffffffffffffffffffffffffffffffffff1673ffffffffffffffffffffffffffffffffffffffff16600073ffffffffffffffffffffffffffffffffffffffff167f8be0079c531659141344cd1fd0a4f28419497f9722a3daafe3b4186f6b6457e060405160405180910390a360008060146101000a81548160ff021916908315150217905550611ace806100e96000396000f3fe608060405260043610610154576000357c0100000000000000000000000000000000000000000000000000000000900463ffffffff16806301aa2e03146101595780630f80dcb01461019657806312d51c72146101d55780631471e0ab146101fe57806314bfd6d01461023b57806323dc5c6e1461027857806328975210146102a15780632fd23a3f146102de5780633477ee2e1461031b5780633acab52f146103585780633b04a6c9146103815780633ba8b3ff146103be57806345dc9ad7146103e757806356be16581461042457806357e2ef10146104615780635d6e50521461049e578063715018a6146104c75780638da5cb5b146104de5780638f32d59b146105095780639209416a146105345780639484525414610573578063bbc893a31461059c578063da58c7d9146105d9578063f2fde38b14610619578063f759006514610642578063f8c705711461066b575b600080fd5b34801561016557600080fd5b50610180600480360361017b919081019061158b565b6106ab565b60405161018d9190611906565b60405180910390f35b3480156101a257600080fd5b506101bd60048036036101b8919081019061158b565b6106c3565b6040516101cc93929190611966565b60405180910390f35b3480156101e157600080fd5b506101fc60048036036101f7919081019061163f565b6106ed565b005b34801561020a57600080fd5b506102256004803603610220919081019061158b565b61077c565b6040516102329190611906565b60405180910390f35b34801561024757600080fd5b50610262600480360361025d919081019061158b565b610794565b60405161026f9190611906565b60405180910390f35b34801561028457600080fd5b5061029f600480360361029a919081019061158b565b6107b7565b005b3480156102ad57600080fd5b506102c860048036036102c3919081019061158b565b610824565b6040516102d591906118ae565b60405180910390f35b3480156102ea57600080fd5b50610305600480360361030091908101906115b4565b6108f3565b60405161031291906118eb565b60405180910390f35b34801561032757600080fd5b50610342600480360361033d919081019061158b565b610974565b60405161034f9190611906565b60405180910390f35b34801561036457600080fd5b5061037f600480360361037a91908101906115b4565b61099d565b005b34801561038d57600080fd5b506103a860048036036103a3919081019061158b565b610aeb565b6040516103b59190611906565b60405180910390f35b3480156103ca57600080fd5b506103e560048036036103e091908101906115f0565b610b03565b005b3480156103f357600080fd5b5061040e600480360361040991908101906115b4565b610c9e565b60405161041b919061199d565b60405180910390f35b34801561043057600080fd5b5061044b6004803603610446919081019061158b565b610d55565b6040516104589190611906565b60405180910390f35b34801561046d57600080fd5b506104886004803603610483919081019061158b565b610d6d565b6040516104959190611906565b60405180910390f35b3480156104aa57600080fd5b506104c560048036036104c091908101906115b4565b610d8b565b005b3480156104d357600080fd5b506104dc610e9b565b005b3480156104ea57600080fd5b506104f3610f6d565b6040516105009190611871565b60405180910390f35b34801561051557600080fd5b5061051e610f96565b60405161052b91906118d0565b60405180910390f35b34801561054057600080fd5b5061055b6004803603610556919081019061158b565b610fed565b60405161056a93929190611966565b60405180910390f35b34801561057f57600080fd5b5061059a6004803603610595919081019061158b565b611026565b005b3480156105a857600080fd5b506105c360048036036105be91908101906115b4565b611068565b6040516105d0919061188c565b60405180910390f35b3480156105e557600080fd5b5061060060048036036105fb919081019061158b565b61119f565b6040516106109493929190611921565b60405180910390f35b34801561062557600080fd5b50610640600480360361063b9190810190611562565b61123c565b005b34801561064e57600080fd5b506106696004803603610664919081019061163f565b61125b565b005b34801561067757600080fd5b50610692600480360361068d919081019061158b565b61130b565b6040516106a29493929190611921565b60405180910390f35b60076020528060005260406000206000915090505481565b60036020528060005260406000206000915090508060000154908060010154908060020154905083565b8060008090505b600b805490508110156107755781600b8281548110151561071157fe5b90600052602060002001541415610762578360056000878152602001908152602001600020819055506006600085815260200190815260200160002060008154809291906001019190505550610767565b610768565b5b80806001019150506106f4565b5050505050565b60056020528060005260406000206000915090505481565b600b818154811015156107a357fe5b906000526020600020016000915090505481565b8060008090505b600b8054905081101561081f5781600b828154811015156107db57fe5b9060005260206000200154141561080c576001600060146101000a81548160ff021916908315150217905550610811565b610812565b5b80806001019150506107be565b505050565b60608160008090505b600b805490508110156108ec5781600b8281548110151561084a57fe5b906000526020600020015414156108d957600a805480602002602001604051908101604052809291908181526020016000905b828210156108ce57838290600052602060002090600302016060604051908101604052908160008201548152602001600182015481526020016002820154815250508152602001906001019061087d565b5050505092506108de565b6108df565b5b808060010191505061082d565b5050919050565b6108fb611493565b81600060016000838152602001908152602001600020600001541415151561092257600080fd5b61092a611493565b600360008681526020019081526020016000206060604051908101604052908160008201548152602001600182015481526020016002820154815250509050809250505092915050565b60098181548110151561098357fe5b906000526020600020016000915090508060000154905081565b8060008090505b600b80549050811015610ae55781600b828154811015156109c157fe5b90600052602060002001541415610ad25760006001600a606060405190810160405280888152602001600081526020016000815250908060018154018082558091505090600182039060005260206000209060030201600090919290919091506000820151816000015560208201518160010155604082015181600201555050039050600a81815481101515610a5357fe5b9060005260206000209060030201600360008781526020019081526020016000206000820154816000015560018201548160010155600282015481600201559050507f21db1a92fb8efb483c22a581ee7e282b6d79d9d43b559ee1affa34181886796985604051610ac49190611906565b60405180910390a150610ad7565b610ad8565b5b80806001019150506109a4565b50505050565b60066020528060005260406000206000915090505481565b826000600160008381526020019081526020016000206000015414151515610b2a57600080fd5b60056000848152602001908152602001600020546001600086815260200190815260200160002060010154141515610b6157600080fd5b610b696114b5565b600160008681526020019081526020016000206080604051908101604052908160008201548152602001600182015481526020016002820160009054906101000a900460ff16151515158152602001600382016060604051908101604052908160008201548152602001600182015481526020016002820160009054906101000a900467ffffffffffffffff1667ffffffffffffffff1667ffffffffffffffff16815250508152505090506001816040019015159081151581525050836004600083606001516000015181526020019081526020016000208190555060076000858152602001908152602001600020600081548092919060010191905055508284867f612c500cbd8f1ed8a4643cbf6b41fda92203645d7e4f7c3a237a1be69565ea2c60405160405180910390a45050505050565b600060011515600060149054906101000a900460ff161515141515610cc257600080fd5b816000600160008381526020019081526020016000206000015414151515610ce957600080fd5b6060610cf58585611068565b9050600080600090505b8251811015610d4857600760008483815181101515610d1a57fe5b9060200190602002015160000151815260200190815260200160002054820191508080600101915050610cff565b5080935050505092915050565b60046020528060005260406000206000915090505481565b60026020528060005260406000206000915090508060000154905081565b8060008090505b600b80549050811015610e955781600b82815481101515610daf57fe5b90600052602060002001541415610e825760006001600960206040519081016040528088815250908060018154018082558091505090600182039060005260206000200160009091929091909150600082015181600001555050039050600981815481101515610e1b57fe5b9060005260206000200160026000878152602001908152602001600020600082015481600001559050507f43dcee486fabffa2fb551555bfaa5bfcf6a42f2d014032ccef94bf09d83855eb85604051610e749190611906565b60405180910390a150610e87565b610e88565b5b8080600101915050610d92565b50505050565b610ea3610f96565b1515610eae57600080fd5b600073ffffffffffffffffffffffffffffffffffffffff166000809054906101000a900473ffffffffffffffffffffffffffffffffffffffff1673ffffffffffffffffffffffffffffffffffffffff167f8be0079c531659141344cd1fd0a4f28419497f9722a3daafe3b4186f6b6457e060405160405180910390a360008060006101000a81548173ffffffffffffffffffffffffffffffffffffffff021916908373ffffffffffffffffffffffffffffffffffffffff160217905550565b60008060009054906101000a900473ffffffffffffffffffffffffffffffffffffffff16905090565b60008060009054906101000a900473ffffffffffffffffffffffffffffffffffffffff1673ffffffffffffffffffffffffffffffffffffffff163373ffffffffffffffffffffffffffffffffffffffff1614905090565b600a81815481101515610ffc57fe5b90600052602060002090600302016000915090508060000154908060010154908060020154905083565b61102e610f96565b151561103957600080fd5b600b81908060018154018082558091505090600182039060005260206000200160009091929091909150555050565b606081600060016000838152602001908152602001600020600001541415151561109157600080fd5b606060066000868152602001908152602001600020546040519080825280602002602001820160405280156110e057816020015b6110cd6114e6565b8152602001906001900390816110c55790505b509050600080905060008090505b60098054905081101561119257866005600060098481548110151561110f57fe5b906000526020600020016000015481526020019081526020016000205414156111855760098181548110151561114157fe5b9060005260206000200160206040519081016040529081600082015481525050838381518110151561116f57fe5b9060200190602002018190525081806001019250505b80806001019150506110ee565b5081935050505092915050565b6008818154811015156111ae57fe5b90600052602060002090600602016000915090508060000154908060010154908060020160009054906101000a900460ff1690806003016060604051908101604052908160008201548152602001600182015481526020016002820160009054906101000a900467ffffffffffffffff1667ffffffffffffffff1667ffffffffffffffff1681525050905084565b611244610f96565b151561124f57600080fd5b61125881611399565b50565b8060008090505b600b805490508110156113045781600b8281548110151561127f57fe5b906000526020600020015414156112f157611298611493565b6003600087815260200190815260200160002060606040519081016040529081600082015481526020016001820154815260200160028201548152505090504281602001818152505084816040018181525050506112f6565b6112f7565b5b8080600101915050611262565b5050505050565b60016020528060005260406000206000915090508060000154908060010154908060020160009054906101000a900460ff1690806003016060604051908101604052908160008201548152602001600182015481526020016002820160009054906101000a900467ffffffffffffffff1667ffffffffffffffff1667ffffffffffffffff1681525050905084565b600073ffffffffffffffffffffffffffffffffffffffff168173ffffffffffffffffffffffffffffffffffffffff16141515156113d557600080fd5b8073ffffffffffffffffffffffffffffffffffffffff166000809054906101000a900473ffffffffffffffffffffffffffffffffffffffff1673ffffffffffffffffffffffffffffffffffffffff167f8be0079c531659141344cd1fd0a4f28419497f9722a3daafe3b4186f6b6457e060405160405180910390a3806000806101000a81548173ffffffffffffffffffffffffffffffffffffffff021916908373ffffffffffffffffffffffffffffffffffffffff16021790555050565b6060604051908101604052806000815260200160008152602001600081525090565b60c06040519081016040528060008152602001600081526020016000151581526020016114e06114fa565b81525090565b602060405190810160405280600081525090565b6060604051908101604052806000815260200160008152602001600067ffffffffffffffff1681525090565b60006115328235611a6e565b905092915050565b60006115468235611a80565b905092915050565b600061155a8235611a8a565b905092915050565b60006020828403121561157457600080fd5b600061158284828501611526565b91505092915050565b60006020828403121561159d57600080fd5b60006115ab8482850161154e565b91505092915050565b600080604083850312156115c757600080fd5b60006115d58582860161154e565b92505060206115e68582860161154e565b9150509250929050565b60008060006060848603121561160557600080fd5b60006116138682870161154e565b93505060206116248682870161154e565b92505060406116358682870161153a565b9150509250925092565b60008060006060848603121561165457600080fd5b60006116628682870161154e565b93505060206116738682870161154e565b92505060406116848682870161154e565b9150509250925092565b61169781611a02565b82525050565b60006116a8826119d2565b8084526020840193506116ba836119b8565b60005b828110156116ec576116d0868351611762565b6116d9826119e8565b91506020860195506001810190506116bd565b50849250505092915050565b6000611703826119dd565b808452602084019350611715836119c5565b60005b828110156117475761172b8683516117c0565b611734826119f5565b9150606086019550600181019050611718565b50849250505092915050565b61175c81611a14565b82525050565b6020820160008201516117786000850182611844565b50505050565b6060820160008201516117946000850182611844565b5060208201516117a76020850182611844565b5060408201516117ba6040850182611844565b50505050565b6060820160008201516117d66000850182611844565b5060208201516117e96020850182611844565b5060408201516117fc6040850182611844565b50505050565b6060820160008201516118186000850182611844565b50602082015161182b6020850182611844565b50604082015161183e6040850182611862565b50505050565b61184d81611a40565b82525050565b61185c81611a4a565b82525050565b61186b81611a5a565b82525050565b6000602082019050611886600083018461168e565b92915050565b600060208201905081810360008301526118a6818461169d565b905092915050565b600060208201905081810360008301526118c881846116f8565b905092915050565b60006020820190506118e56000830184611753565b92915050565b6000606082019050611900600083018461177e565b92915050565b600060208201905061191b6000830184611844565b92915050565b600060c0820190506119366000830187611844565b6119436020830186611844565b6119506040830185611753565b61195d6060830184611802565b95945050505050565b600060608201905061197b6000830186611844565b6119886020830185611844565b6119956040830184611844565b949350505050565b60006020820190506119b26000830184611853565b92915050565b6000602082019050919050565b6000602082019050919050565b600081519050919050565b600081519050919050565b6000602082019050919050565b6000602082019050919050565b6000611a0d82611a20565b9050919050565b60008115159050919050565b600073ffffffffffffffffffffffffffffffffffffffff82169050919050565b6000819050919050565b600063ffffffff82169050919050565b600067ffffffffffffffff82169050919050565b6000611a7982611a20565b9050919050565b6000819050919050565b600081905091905056fea265627a7a723058202d769e157daba6ea374c9112266389be2e36c890afbe1f2a59b4237c03815c5f6c6578706572696d656e74616cf50037",
  "source": "pragma solidity ^0.5.0;\npragma experimental ABIEncoderV2;\n\nimport \"./VotingTransactions.sol\";\n\ncontract ResultHelper is VotingTransactions{\n\n    function declareResults(uint256 _adminId) external onlyAdmin(_adminId) {\n        ResultsDeclared = true;\n    }\n\n    function retreiveConstituencyVoteCount(uint256 _constituencyId, uint256 _userId) external view declaredResults onlyUser(_userId) returns(uint32) {\n        Candidate[] memory _candidates = getCandidatesByConstituency(_constituencyId,_userId);\n        uint32 _votes;\n        for (uint i = 0; i < _candidates.length; i++) {\n            _votes = _votes + uint32(candidateVoteCount[_candidates[i]._id]);\n        }\n\n        return _votes;\n    }\n}",
  "sourcePath": "/home/d3mon/Projects/sudo-rm--rf/contracts/ResultHelper.sol",
  "compiler": {
    "name": "solc",
    "version": "0.5.0+commit.1d4f565a.Emscripten.clang"
  },
  "schemaVersion": "3.0.2",
  "updatedAt": "2019-12-24T13:41:29.571Z",
  "devdoc": {
    "methods": {
      "isOwner()": {
        "return": "true if `msg.sender` is the owner of the contract."
      },
      "owner()": {
        "return": "the address of the owner."
      },
      "renounceOwnership()": {
        "details": "Allows the current owner to relinquish control of the contract."
      },
      "transferOwnership(address)": {
        "details": "Allows the current owner to transfer control of the contract to a newOwner.",
        "params": {
          "newOwner": "The address to transfer ownership to."
        }
      }
    }
  },
  "userdoc": {
    "methods": {
      "renounceOwnership()": {
        "notice": "Renouncing to ownership will leave the contract without an owner. It will not be possible to call the functions with the `onlyOwner` modifier anymore."
      }
    }
  }
}