{
  "contractName": "ResultHelper",
  "abi": [
    {
      "constant": true,
      "inputs": [
        {
          "name": "",
          "type": "uint256"
        }
      ],
      "name": "candidateVoteCount",
      "outputs": [
        {
          "name": "",
          "type": "uint256"
        }
      ],
      "payable": false,
      "stateMutability": "view",
      "type": "function"
    },
    {
      "constant": true,
      "inputs": [
        {
          "name": "",
          "type": "uint256"
        }
      ],
      "name": "idToConstituency",
      "outputs": [
        {
          "name": "_id",
          "type": "uint256"
        },
        {
          "name": "_startTime",
          "type": "uint256"
        },
        {
          "name": "_duration",
          "type": "uint256"
        }
      ],
      "payable": false,
      "stateMutability": "view",
      "type": "function"
    },
    {
      "constant": false,
      "inputs": [
        {
          "name": "_id",
          "type": "uint256"
        },
        {
          "name": "_constituencyId",
          "type": "uint256"
        },
        {
          "name": "_adminId",
          "type": "uint256"
        }
      ],
      "name": "assignCandidateToConstituency",
      "outputs": [],
      "payable": false,
      "stateMutability": "nonpayable",
      "type": "function"
    },
    {
      "constant": true,
      "inputs": [
        {
          "name": "",
          "type": "uint256"
        }
      ],
      "name": "candidateToConstituency",
      "outputs": [
        {
          "name": "",
          "type": "uint256"
        }
      ],
      "payable": false,
      "stateMutability": "view",
      "type": "function"
    },
    {
      "constant": true,
      "inputs": [
        {
          "name": "",
          "type": "uint256"
        }
      ],
      "name": "admins",
      "outputs": [
        {
          "name": "",
          "type": "uint256"
        }
      ],
      "payable": false,
      "stateMutability": "view",
      "type": "function"
    },
    {
      "constant": false,
      "inputs": [
        {
          "name": "_adminId",
          "type": "uint256"
        }
      ],
      "name": "getConstituencies",
      "outputs": [
        {
          "components": [
            {
              "name": "_id",
              "type": "uint256"
            },
            {
              "name": "_startTime",
              "type": "uint256"
            },
            {
              "name": "_duration",
              "type": "uint256"
            }
          ],
          "name": "",
          "type": "tuple[]"
        }
      ],
      "payable": false,
      "stateMutability": "nonpayable",
      "type": "function"
    },
    {
      "constant": false,
      "inputs": [
        {
          "name": "_id",
          "type": "uint256"
        },
        {
          "name": "_userId",
          "type": "uint256"
        }
      ],
      "name": "getConstituencyDetails",
      "outputs": [
        {
          "components": [
            {
              "name": "_id",
              "type": "uint256"
            },
            {
              "name": "_startTime",
              "type": "uint256"
            },
            {
              "name": "_duration",
              "type": "uint256"
            }
          ],
          "name": "",
          "type": "tuple"
        }
      ],
      "payable": false,
      "stateMutability": "nonpayable",
      "type": "function"
    },
    {
      "constant": false,
      "inputs": [
        {
          "name": "from",
          "type": "uint256"
        },
        {
          "name": "to",
          "type": "uint256"
        },
        {
          "name": "tokenId",
          "type": "uint256"
        }
      ],
      "name": "transferFrom",
      "outputs": [],
      "payable": false,
      "stateMutability": "nonpayable",
      "type": "function"
    },
    {
      "constant": true,
      "inputs": [
        {
          "name": "",
          "type": "uint256"
        }
      ],
      "name": "candidates",
      "outputs": [
        {
          "name": "_id",
          "type": "uint256"
        }
      ],
      "payable": false,
      "stateMutability": "view",
      "type": "function"
    },
    {
      "constant": false,
      "inputs": [
        {
          "name": "_id",
          "type": "uint256"
        },
        {
          "name": "_adminId",
          "type": "uint256"
        }
      ],
      "name": "registerConstituency",
      "outputs": [],
      "payable": false,
      "stateMutability": "nonpayable",
      "type": "function"
    },
    {
      "constant": true,
      "inputs": [
        {
          "name": "",
          "type": "uint256"
        }
      ],
      "name": "constituencyCandidateCount",
      "outputs": [
        {
          "name": "",
          "type": "uint256"
        }
      ],
      "payable": false,
      "stateMutability": "view",
      "type": "function"
    },
    {
      "constant": true,
      "inputs": [
        {
          "name": "",
          "type": "uint256"
        }
      ],
      "name": "voteToCandidate",
      "outputs": [
        {
          "name": "",
          "type": "uint256"
        }
      ],
      "payable": false,
      "stateMutability": "view",
      "type": "function"
    },
    {
      "constant": true,
      "inputs": [
        {
          "name": "",
          "type": "uint256"
        }
      ],
      "name": "idToCandidate",
      "outputs": [
        {
          "name": "_id",
          "type": "uint256"
        }
      ],
      "payable": false,
      "stateMutability": "view",
      "type": "function"
    },
    {
      "constant": false,
      "inputs": [
        {
          "name": "_id",
          "type": "uint256"
        },
        {
          "name": "_adminId",
          "type": "uint256"
        }
      ],
      "name": "registerCandidate",
      "outputs": [],
      "payable": false,
      "stateMutability": "nonpayable",
      "type": "function"
    },
    {
      "constant": false,
      "inputs": [],
      "name": "renounceOwnership",
      "outputs": [],
      "payable": false,
      "stateMutability": "nonpayable",
      "type": "function"
    },
    {
      "constant": false,
      "inputs": [
        {
          "name": "_constituencies",
          "type": "uint256[]"
        },
        {
          "name": "_adminId",
          "type": "uint256"
        }
      ],
      "name": "registerConstituencies",
      "outputs": [],
      "payable": false,
      "stateMutability": "nonpayable",
      "type": "function"
    },
    {
      "constant": true,
      "inputs": [],
      "name": "owner",
      "outputs": [
        {
          "name": "",
          "type": "address"
        }
      ],
      "payable": false,
      "stateMutability": "view",
      "type": "function"
    },
    {
      "constant": true,
      "inputs": [],
      "name": "isOwner",
      "outputs": [
        {
          "name": "",
          "type": "bool"
        }
      ],
      "payable": false,
      "stateMutability": "view",
      "type": "function"
    },
    {
      "constant": true,
      "inputs": [
        {
          "name": "",
          "type": "uint256"
        }
      ],
      "name": "constituencies",
      "outputs": [
        {
          "name": "_id",
          "type": "uint256"
        },
        {
          "name": "_startTime",
          "type": "uint256"
        },
        {
          "name": "_duration",
          "type": "uint256"
        }
      ],
      "payable": false,
      "stateMutability": "view",
      "type": "function"
    },
    {
      "constant": false,
      "inputs": [
        {
          "name": "_id",
          "type": "uint256"
        }
      ],
      "name": "registerAdmin",
      "outputs": [],
      "payable": false,
      "stateMutability": "nonpayable",
      "type": "function"
    },
    {
      "constant": true,
      "inputs": [],
      "name": "ResultsDeclared",
      "outputs": [
        {
          "name": "",
          "type": "bool"
        }
      ],
      "payable": false,
      "stateMutability": "view",
      "type": "function"
    },
    {
      "constant": true,
      "inputs": [
        {
          "name": "_constituencyId",
          "type": "uint256"
        },
        {
          "name": "_userId",
          "type": "uint256"
        }
      ],
      "name": "getCandidatesByConstituency",
      "outputs": [
        {
          "components": [
            {
              "name": "_id",
              "type": "uint256"
            }
          ],
          "name": "",
          "type": "tuple[]"
        }
      ],
      "payable": false,
      "stateMutability": "view",
      "type": "function"
    },
    {
      "constant": true,
      "inputs": [
        {
          "name": "",
          "type": "uint256"
        }
      ],
      "name": "voters",
      "outputs": [
        {
          "name": "_id",
          "type": "uint256"
        },
        {
          "name": "_constituencyId",
          "type": "uint256"
        },
        {
          "name": "_hasVoted",
          "type": "bool"
        },
        {
          "name": "_voteTime",
          "type": "uint256"
        },
        {
          "components": [
            {
              "name": "_voteId",
              "type": "uint256"
            }
          ],
          "name": "_vote",
          "type": "tuple"
        }
      ],
      "payable": false,
      "stateMutability": "view",
      "type": "function"
    },
    {
      "constant": false,
      "inputs": [
        {
          "name": "newOwner",
          "type": "address"
        }
      ],
      "name": "transferOwnership",
      "outputs": [],
      "payable": false,
      "stateMutability": "nonpayable",
      "type": "function"
    },
    {
      "constant": false,
      "inputs": [
        {
          "name": "_id",
          "type": "uint256"
        },
        {
          "name": "_duration",
          "type": "uint256"
        },
        {
          "name": "_adminId",
          "type": "uint256"
        }
      ],
      "name": "generateElectionforConstituency",
      "outputs": [],
      "payable": false,
      "stateMutability": "nonpayable",
      "type": "function"
    },
    {
      "constant": true,
      "inputs": [
        {
          "name": "",
          "type": "uint256"
        }
      ],
      "name": "idToVoter",
      "outputs": [
        {
          "name": "_id",
          "type": "uint256"
        },
        {
          "name": "_constituencyId",
          "type": "uint256"
        },
        {
          "name": "_hasVoted",
          "type": "bool"
        },
        {
          "name": "_voteTime",
          "type": "uint256"
        },
        {
          "components": [
            {
              "name": "_voteId",
              "type": "uint256"
            }
          ],
          "name": "_vote",
          "type": "tuple"
        }
      ],
      "payable": false,
      "stateMutability": "view",
      "type": "function"
    },
    {
      "anonymous": false,
      "inputs": [
        {
          "indexed": true,
          "name": "_from",
          "type": "uint256"
        },
        {
          "indexed": true,
          "name": "_to",
          "type": "uint256"
        },
        {
          "indexed": true,
          "name": "_tokenId",
          "type": "uint256"
        }
      ],
      "name": "Transfer",
      "type": "event"
    },
    {
      "anonymous": false,
      "inputs": [
        {
          "indexed": false,
          "name": "_id",
          "type": "uint256"
        },
        {
          "indexed": false,
          "name": "_constituencyId",
          "type": "uint256"
        }
      ],
      "name": "VoterCreated",
      "type": "event"
    },
    {
      "anonymous": false,
      "inputs": [
        {
          "indexed": false,
          "name": "_id",
          "type": "uint256"
        }
      ],
      "name": "CandidateRegistered",
      "type": "event"
    },
    {
      "anonymous": false,
      "inputs": [
        {
          "indexed": false,
          "name": "_id",
          "type": "uint256"
        }
      ],
      "name": "ConstituencyRegistered",
      "type": "event"
    },
    {
      "anonymous": false,
      "inputs": [
        {
          "indexed": true,
          "name": "previousOwner",
          "type": "address"
        },
        {
          "indexed": true,
          "name": "newOwner",
          "type": "address"
        }
      ],
      "name": "OwnershipTransferred",
      "type": "event"
    },
    {
      "constant": false,
      "inputs": [
        {
          "name": "_adminId",
          "type": "uint256"
        }
      ],
      "name": "declareResults",
      "outputs": [],
      "payable": false,
      "stateMutability": "nonpayable",
      "type": "function"
    },
    {
      "constant": true,
      "inputs": [
        {
          "name": "_constituencyId",
          "type": "uint256"
        },
        {
          "name": "_userId",
          "type": "uint256"
        }
      ],
      "name": "retreiveConstituencyVoteCount",
      "outputs": [
        {
          "name": "",
          "type": "uint32"
        }
      ],
      "payable": false,
      "stateMutability": "view",
      "type": "function"
    }
  ],
  "bytecode": "0x608060405260008060146101000a81548160ff021916908315150217905550336000806101000a81548173ffffffffffffffffffffffffffffffffffffffff021916908373ffffffffffffffffffffffffffffffffffffffff1602179055506000809054906101000a900473ffffffffffffffffffffffffffffffffffffffff1673ffffffffffffffffffffffffffffffffffffffff16600073ffffffffffffffffffffffffffffffffffffffff167f8be0079c531659141344cd1fd0a4f28419497f9722a3daafe3b4186f6b6457e060405160405180910390a360008060146101000a81548160ff021916908315150217905550611ad2806101036000396000f3fe60806040526004361061016a576000357c0100000000000000000000000000000000000000000000000000000000900463ffffffff16806301aa2e031461016f5780630f80dcb0146101ac57806312d51c72146101eb5780631471e0ab1461021457806314bfd6d01461025157806323dc5c6e1461028e57806328975210146102b75780632fd23a3f146102f4578063310ed7f0146103315780633477ee2e1461035a5780633acab52f146103975780633b04a6c9146103c057806345dc9ad7146103fd57806356be16581461043a57806357e2ef10146104775780635d6e5052146104b4578063715018a6146104dd5780637b013b94146104f45780638da5cb5b1461051d5780638f32d59b146105485780639209416a1461057357806394845254146105b2578063aa3e4e1c146105db578063bbc893a314610606578063da58c7d914610643578063f2fde38b14610684578063f7590065146106ad578063f8c70571146106d6575b600080fd5b34801561017b57600080fd5b5061019660048036036101919190810190611623565b610717565b6040516101a3919061191a565b60405180910390f35b3480156101b857600080fd5b506101d360048036036101ce9190810190611623565b61072f565b6040516101e293929190611988565b60405180910390f35b3480156101f757600080fd5b50610212600480360361020d9190810190611688565b610759565b005b34801561022057600080fd5b5061023b60048036036102369190810190611623565b6107e8565b604051610248919061191a565b60405180910390f35b34801561025d57600080fd5b5061027860048036036102739190810190611623565b610800565b604051610285919061191a565b60405180910390f35b34801561029a57600080fd5b506102b560048036036102b09190810190611623565b610823565b005b3480156102c357600080fd5b506102de60048036036102d99190810190611623565b610890565b6040516102eb91906118c2565b60405180910390f35b34801561030057600080fd5b5061031b6004803603610316919081019061164c565b6109bf565b60405161032891906118ff565b60405180910390f35b34801561033d57600080fd5b5061035860048036036103539190810190611688565b610a40565b005b34801561036657600080fd5b50610381600480360361037c9190810190611623565b610b4c565b60405161038e919061191a565b60405180910390f35b3480156103a357600080fd5b506103be60048036036103b9919081019061164c565b610b75565b005b3480156103cc57600080fd5b506103e760048036036103e29190810190611623565b610cc3565b6040516103f4919061191a565b60405180910390f35b34801561040957600080fd5b50610424600480360361041f919081019061164c565b610cdb565b60405161043191906119bf565b60405180910390f35b34801561044657600080fd5b50610461600480360361045c9190810190611623565b610d92565b60405161046e919061191a565b60405180910390f35b34801561048357600080fd5b5061049e60048036036104999190810190611623565b610daa565b6040516104ab919061191a565b60405180910390f35b3480156104c057600080fd5b506104db60048036036104d6919081019061164c565b610dc8565b005b3480156104e957600080fd5b506104f2610ed8565b005b34801561050057600080fd5b5061051b600480360361051691908101906115cb565b610faa565b005b34801561052957600080fd5b5061053261103b565b60405161053f9190611885565b60405180910390f35b34801561055457600080fd5b5061055d611064565b60405161056a91906118e4565b60405180910390f35b34801561057f57600080fd5b5061059a60048036036105959190810190611623565b6110bb565b6040516105a993929190611988565b60405180910390f35b3480156105be57600080fd5b506105d960048036036105d49190810190611623565b6110f4565b005b3480156105e757600080fd5b506105f0611136565b6040516105fd91906118e4565b60405180910390f35b34801561061257600080fd5b5061062d6004803603610628919081019061164c565b611149565b60405161063a91906118a0565b60405180910390f35b34801561064f57600080fd5b5061066a60048036036106659190810190611623565b611280565b60405161067b959493929190611935565b60405180910390f35b34801561069057600080fd5b506106ab60048036036106a691908101906115a2565b6112e7565b005b3480156106b957600080fd5b506106d460048036036106cf9190810190611688565b611306565b005b3480156106e257600080fd5b506106fd60048036036106f89190810190611623565b611384565b60405161070e959493929190611935565b60405180910390f35b60076020528060005260406000206000915090505481565b60036020528060005260406000206000915090508060000154908060010154908060020154905083565b8060008090505b600b805490508110156107e15781600b8281548110151561077d57fe5b906000526020600020015414156107ce5783600560008781526020019081526020016000208190555060066000858152602001908152602001600020600081548092919060010191905055506107d3565b6107d4565b5b8080600101915050610760565b5050505050565b60056020528060005260406000206000915090505481565b600b8181548110151561080f57fe5b906000526020600020016000915090505481565b8060008090505b600b8054905081101561088b5781600b8281548110151561084757fe5b90600052602060002001541415610878576001600060146101000a81548160ff02191690831515021790555061087d565b61087e565b5b808060010191505061082a565b505050565b60608160008090505b600b805490508110156109b85781600b828154811015156108b657fe5b906000526020600020015414156109a5576060600a8054905060405190808252806020026020018201604052801561090857816020015b6108f56114d6565b8152602001906001900390816108ed5790505b509050600080905060008090505b600a8054905081101561099a57600a8181548110151561093257fe5b9060005260206000209060030201606060405190810160405290816000820154815260200160018201548152602001600282015481525050838381518110151561097857fe5b9060200190602002018190525081806001019250508080600101915050610916565b5081945050506109aa565b6109ab565b5b8080600101915050610899565b5050919050565b6109c76114f8565b8160006001600083815260200190815260200160002060000154141515156109ee57600080fd5b6109f66114f8565b600360008681526020019081526020016000206060604051908101604052908160008201548152602001600182015481526020016002820154815250509050809250505092915050565b826000600160008381526020019081526020016000206000015414151515610a6757600080fd5b60056000848152602001908152602001600020546001600086815260200190815260200160002060010154141515610a9e57600080fd5b600060016000868152602001908152602001600020905060018160020160006101000a81548160ff02191690831515021790555042816003018190555083600460008781526020019081526020016000208190555060076000858152602001908152602001600020600081548092919060010191905055508284867faf6151f5085accf2d57e1e7bf7601d3b3982e0de7e9a90f032f8554de9c104f660405160405180910390a45050505050565b600981815481101515610b5b57fe5b906000526020600020016000915090508060000154905081565b8060008090505b600b80549050811015610cbd5781600b82815481101515610b9957fe5b90600052602060002001541415610caa5760006001600a606060405190810160405280888152602001600081526020016000815250908060018154018082558091505090600182039060005260206000209060030201600090919290919091506000820151816000015560208201518160010155604082015181600201555050039050600a81815481101515610c2b57fe5b9060005260206000209060030201600360008781526020019081526020016000206000820154816000015560018201548160010155600282015481600201559050507f21db1a92fb8efb483c22a581ee7e282b6d79d9d43b559ee1affa34181886796985604051610c9c919061191a565b60405180910390a150610caf565b610cb0565b5b8080600101915050610b7c565b50505050565b60066020528060005260406000206000915090505481565b600060011515600060149054906101000a900460ff161515141515610cff57600080fd5b816000600160008381526020019081526020016000206000015414151515610d2657600080fd5b6060610d328585611149565b9050600080600090505b8251811015610d8557600760008483815181101515610d5757fe5b9060200190602002015160000151815260200190815260200160002054820191508080600101915050610d3c565b5080935050505092915050565b60046020528060005260406000206000915090505481565b60026020528060005260406000206000915090508060000154905081565b8060008090505b600b80549050811015610ed25781600b82815481101515610dec57fe5b90600052602060002001541415610ebf5760006001600960206040519081016040528088815250908060018154018082558091505090600182039060005260206000200160009091929091909150600082015181600001555050039050600981815481101515610e5857fe5b9060005260206000200160026000878152602001908152602001600020600082015481600001559050507f43dcee486fabffa2fb551555bfaa5bfcf6a42f2d014032ccef94bf09d83855eb85604051610eb1919061191a565b60405180910390a150610ec4565b610ec5565b5b8080600101915050610dcf565b50505050565b610ee0611064565b1515610eeb57600080fd5b600073ffffffffffffffffffffffffffffffffffffffff166000809054906101000a900473ffffffffffffffffffffffffffffffffffffffff1673ffffffffffffffffffffffffffffffffffffffff167f8be0079c531659141344cd1fd0a4f28419497f9722a3daafe3b4186f6b6457e060405160405180910390a360008060006101000a81548173ffffffffffffffffffffffffffffffffffffffff021916908373ffffffffffffffffffffffffffffffffffffffff160217905550565b8060008090505b600b805490508110156110345781600b82815481101515610fce57fe5b906000526020600020015414156110215760008090505b8585905081101561101b5761100e868683818110151561100157fe5b9050602002013585610b75565b8080600101915050610fe5565b50611026565b611027565b5b8080600101915050610fb1565b5050505050565b60008060009054906101000a900473ffffffffffffffffffffffffffffffffffffffff16905090565b60008060009054906101000a900473ffffffffffffffffffffffffffffffffffffffff1673ffffffffffffffffffffffffffffffffffffffff163373ffffffffffffffffffffffffffffffffffffffff1614905090565b600a818154811015156110ca57fe5b90600052602060002090600302016000915090508060000154908060010154908060020154905083565b6110fc611064565b151561110757600080fd5b600b81908060018154018082558091505090600182039060005260206000200160009091929091909150555050565b600060149054906101000a900460ff1681565b606081600060016000838152602001908152602001600020600001541415151561117257600080fd5b606060066000868152602001908152602001600020546040519080825280602002602001820160405280156111c157816020015b6111ae61151a565b8152602001906001900390816111a65790505b509050600080905060008090505b6009805490508110156112735786600560006009848154811015156111f057fe5b906000526020600020016000015481526020019081526020016000205414156112665760098181548110151561122257fe5b9060005260206000200160206040519081016040529081600082015481525050838381518110151561125057fe5b9060200190602002018190525081806001019250505b80806001019150506111cf565b5081935050505092915050565b60088181548110151561128f57fe5b90600052602060002090600502016000915090508060000154908060010154908060020160009054906101000a900460ff16908060030154908060040160206040519081016040529081600082015481525050905085565b6112ef611064565b15156112fa57600080fd5b611303816113dc565b50565b8060008090505b600b8054905081101561137d5781600b8281548110151561132a57fe5b9060005260206000200154141561136a5760006003600087815260200190815260200160002090504281600101819055508481600201819055505061136f565b611370565b5b808060010191505061130d565b5050505050565b60016020528060005260406000206000915090508060000154908060010154908060020160009054906101000a900460ff16908060030154908060040160206040519081016040529081600082015481525050905085565b600073ffffffffffffffffffffffffffffffffffffffff168173ffffffffffffffffffffffffffffffffffffffff161415151561141857600080fd5b8073ffffffffffffffffffffffffffffffffffffffff166000809054906101000a900473ffffffffffffffffffffffffffffffffffffffff1673ffffffffffffffffffffffffffffffffffffffff167f8be0079c531659141344cd1fd0a4f28419497f9722a3daafe3b4186f6b6457e060405160405180910390a3806000806101000a81548173ffffffffffffffffffffffffffffffffffffffff021916908373ffffffffffffffffffffffffffffffffffffffff16021790555050565b6060604051908101604052806000815260200160008152602001600081525090565b6060604051908101604052806000815260200160008152602001600081525090565b602060405190810160405280600081525090565b600061153a8235611a7c565b905092915050565b60008083601f840112151561155657600080fd5b8235905067ffffffffffffffff81111561156f57600080fd5b60208301915083602082028301111561158757600080fd5b9250929050565b600061159a8235611a8e565b905092915050565b6000602082840312156115b457600080fd5b60006115c28482850161152e565b91505092915050565b6000806000604084860312156115e057600080fd5b600084013567ffffffffffffffff8111156115fa57600080fd5b61160686828701611542565b935093505060206116198682870161158e565b9150509250925092565b60006020828403121561163557600080fd5b60006116438482850161158e565b91505092915050565b6000806040838503121561165f57600080fd5b600061166d8582860161158e565b925050602061167e8582860161158e565b9150509250929050565b60008060006060848603121561169d57600080fd5b60006116ab8682870161158e565b93505060206116bc8682870161158e565b92505060406116cd8682870161158e565b9150509250925092565b6116e081611a24565b82525050565b60006116f1826119f4565b808452602084019350611703836119da565b60005b82811015611735576117198683516117ab565b61172282611a0a565b9150602086019550600181019050611706565b50849250505092915050565b600061174c826119ff565b80845260208401935061175e836119e7565b60005b8281101561179057611774868351611809565b61177d82611a17565b9150606086019550600181019050611761565b50849250505092915050565b6117a581611a36565b82525050565b6020820160008201516117c16000850182611867565b50505050565b6060820160008201516117dd6000850182611867565b5060208201516117f06020850182611867565b5060408201516118036040850182611867565b50505050565b60608201600082015161181f6000850182611867565b5060208201516118326020850182611867565b5060408201516118456040850182611867565b50505050565b6020820160008201516118616000850182611867565b50505050565b61187081611a62565b82525050565b61187f81611a6c565b82525050565b600060208201905061189a60008301846116d7565b92915050565b600060208201905081810360008301526118ba81846116e6565b905092915050565b600060208201905081810360008301526118dc8184611741565b905092915050565b60006020820190506118f9600083018461179c565b92915050565b600060608201905061191460008301846117c7565b92915050565b600060208201905061192f6000830184611867565b92915050565b600060a08201905061194a6000830188611867565b6119576020830187611867565b611964604083018661179c565b6119716060830185611867565b61197e608083018461184b565b9695505050505050565b600060608201905061199d6000830186611867565b6119aa6020830185611867565b6119b76040830184611867565b949350505050565b60006020820190506119d46000830184611876565b92915050565b6000602082019050919050565b6000602082019050919050565b600081519050919050565b600081519050919050565b6000602082019050919050565b6000602082019050919050565b6000611a2f82611a42565b9050919050565b60008115159050919050565b600073ffffffffffffffffffffffffffffffffffffffff82169050919050565b6000819050919050565b600063ffffffff82169050919050565b6000611a8782611a42565b9050919050565b600081905091905056fea265627a7a72305820e919e75af12a0d9cb6505c0a08209ca78cae72c2fb0ba89b4f97b418d029b5296c6578706572696d656e74616cf50037",
  "source": "pragma solidity ^0.5.0;\npragma experimental ABIEncoderV2;\n\nimport \"./VotingTransactions.sol\";\n\ncontract ResultHelper is VotingTransactions{\n\n    function declareResults(uint256 _adminId) external onlyAdmin(_adminId) {\n        ResultsDeclared = true;\n    }\n\n    function retreiveConstituencyVoteCount(uint256 _constituencyId, uint256 _userId) external view declaredResults onlyUser(_userId) returns(uint32) {\n        Candidate[] memory _candidates = getCandidatesByConstituency(_constituencyId,_userId);\n        uint32 _votes;\n        for (uint i = 0; i < _candidates.length; i++) {\n            _votes = _votes + uint32(candidateVoteCount[_candidates[i]._id]);\n        }\n\n        return _votes;\n    }\n}",
  "sourcePath": "/home/d3mon/Projects/sudo-rm--rf/contracts/ResultHelper.sol",
  "compiler": {
    "name": "solc",
    "version": "0.5.0+commit.1d4f565a.Emscripten.clang"
  },
  "schemaVersion": "3.0.2",
  "updatedAt": "2020-02-04T08:01:47.500Z",
  "devdoc": {
    "methods": {
      "isOwner()": {
        "return": "true if `msg.sender` is the owner of the contract."
      },
      "owner()": {
        "return": "the address of the owner."
      },
      "renounceOwnership()": {
        "details": "Allows the current owner to relinquish control of the contract."
      },
      "transferOwnership(address)": {
        "details": "Allows the current owner to transfer control of the contract to a newOwner.",
        "params": {
          "newOwner": "The address to transfer ownership to."
        }
      }
    }
  },
  "userdoc": {
    "methods": {
      "renounceOwnership()": {
        "notice": "Renouncing to ownership will leave the contract without an owner. It will not be possible to call the functions with the `onlyOwner` modifier anymore."
      }
    }
  }
}