{
  "contractName": "ResultHelper",
  "abi": [
    {
      "constant": false,
      "inputs": [
        {
          "name": "_id",
          "type": "uint256"
        }
      ],
      "name": "registerCandidate",
      "outputs": [],
      "payable": false,
      "stateMutability": "nonpayable",
      "type": "function"
    },
    {
      "constant": false,
      "inputs": [
        {
          "name": "_id",
          "type": "uint256"
        }
      ],
      "name": "registerConstituency",
      "outputs": [],
      "payable": false,
      "stateMutability": "nonpayable",
      "type": "function"
    },
    {
      "constant": true,
      "inputs": [
        {
          "name": "",
          "type": "uint256"
        }
      ],
      "name": "candidates",
      "outputs": [
        {
          "name": "_id",
          "type": "uint256"
        }
      ],
      "payable": false,
      "stateMutability": "view",
      "type": "function"
    },
    {
      "constant": false,
      "inputs": [
        {
          "name": "from",
          "type": "uint256"
        },
        {
          "name": "to",
          "type": "uint256"
        },
        {
          "name": "tokenId",
          "type": "bytes32"
        }
      ],
      "name": "transferFrom",
      "outputs": [],
      "payable": false,
      "stateMutability": "nonpayable",
      "type": "function"
    },
    {
      "constant": true,
      "inputs": [
        {
          "name": "",
          "type": "uint256"
        }
      ],
      "name": "constituencies",
      "outputs": [
        {
          "name": "_id",
          "type": "uint256"
        },
        {
          "name": "_startTime",
          "type": "uint256"
        },
        {
          "name": "_duration",
          "type": "uint256"
        }
      ],
      "payable": false,
      "stateMutability": "view",
      "type": "function"
    },
    {
      "constant": false,
      "inputs": [
        {
          "name": "_id",
          "type": "uint256"
        },
        {
          "name": "_duration",
          "type": "uint256"
        }
      ],
      "name": "generateElectionforConstituency",
      "outputs": [],
      "payable": false,
      "stateMutability": "nonpayable",
      "type": "function"
    },
    {
      "constant": true,
      "inputs": [
        {
          "name": "",
          "type": "uint256"
        }
      ],
      "name": "voters",
      "outputs": [
        {
          "name": "_id",
          "type": "uint256"
        },
        {
          "name": "_constituencyId",
          "type": "uint256"
        },
        {
          "name": "_hasVoted",
          "type": "bool"
        },
        {
          "components": [
            {
              "name": "_voteId",
              "type": "bytes32"
            },
            {
              "name": "_votedId",
              "type": "uint256"
            },
            {
              "name": "_voteTime",
              "type": "uint64"
            }
          ],
          "name": "_vote",
          "type": "tuple"
        }
      ],
      "payable": false,
      "stateMutability": "view",
      "type": "function"
    },
    {
      "constant": true,
      "inputs": [
        {
          "name": "_constituencyId",
          "type": "uint256"
        }
      ],
      "name": "getCandidatesByConstituency",
      "outputs": [
        {
          "components": [
            {
              "name": "_id",
              "type": "uint256"
            }
          ],
          "name": "",
          "type": "tuple[]"
        }
      ],
      "payable": false,
      "stateMutability": "view",
      "type": "function"
    },
    {
      "anonymous": false,
      "inputs": [
        {
          "indexed": true,
          "name": "_from",
          "type": "uint256"
        },
        {
          "indexed": true,
          "name": "_to",
          "type": "uint256"
        },
        {
          "indexed": true,
          "name": "_tokenId",
          "type": "bytes32"
        }
      ],
      "name": "Transfer",
      "type": "event"
    },
    {
      "anonymous": false,
      "inputs": [
        {
          "indexed": false,
          "name": "_id",
          "type": "uint256"
        },
        {
          "indexed": false,
          "name": "_voterId",
          "type": "uint256"
        }
      ],
      "name": "VoterCreated",
      "type": "event"
    },
    {
      "anonymous": false,
      "inputs": [
        {
          "indexed": false,
          "name": "_id",
          "type": "uint256"
        }
      ],
      "name": "CandidateRegistered",
      "type": "event"
    },
    {
      "anonymous": false,
      "inputs": [
        {
          "indexed": false,
          "name": "_id",
          "type": "uint256"
        }
      ],
      "name": "ConstituencyRegistered",
      "type": "event"
    },
    {
      "constant": true,
      "inputs": [
        {
          "name": "_constituencyId",
          "type": "uint256"
        }
      ],
      "name": "retreiveConstituencyVoteCount",
      "outputs": [
        {
          "name": "",
          "type": "uint32"
        }
      ],
      "payable": false,
      "stateMutability": "view",
      "type": "function"
    }
  ],
  "bytecode": "0x608060405260405180606001604052806000801b815260200160008152602001600067ffffffffffffffff1681525060008082015181600001556020820151816001015560408201518160020160006101000a81548167ffffffffffffffff021916908367ffffffffffffffff160217905550505034801561008057600080fd5b50610c3a806100906000396000f3fe608060405234801561001057600080fd5b50600436106100935760003560e01c80639209416a116100665780639209416a1461011c578063c1c5c5d81461014e578063d59d48d41461017e578063da58c7d91461019a578063f9ed8067146101cd57610093565b80630b2a85ea14610098578063233f0114146100b45780633477ee2e146100d05780633ba8b3ff14610100575b600080fd5b6100b260048036036100ad91908101906108a2565b6101fd565b005b6100ce60048036036100c991908101906108a2565b6102ba565b005b6100ea60048036036100e591908101906108a2565b6103b5565b6040516100f79190610aa6565b60405180910390f35b61011a60048036036101159190810190610907565b6103dc565b005b610136600480360361013191908101906108a2565b61054b565b60405161014593929190610b06565b60405180910390f35b610168600480360361016391908101906108a2565b610582565b6040516101759190610b3d565b60405180910390f35b610198600480360361019391908101906108cb565b6105e9565b005b6101b460048036036101af91908101906108a2565b610648565b6040516101c49493929190610ac1565b60405180910390f35b6101e760048036036101e291908101906108a2565b6106e2565b6040516101f49190610a84565b60405180910390f35b60006001600b604051806020016040528085815250908060018154018082558091505090600182039060005260206000200160009091929091909150600082015181600001555050039050600b818154811061025557fe5b9060005260206000200160046000848152602001908152602001600020600082015481600001559050507f43dcee486fabffa2fb551555bfaa5bfcf6a42f2d014032ccef94bf09d83855eb826040516102ae9190610aa6565b60405180910390a15050565b60006001600c6040518060600160405280858152602001600081526020016000815250908060018154018082558091505090600182039060005260206000209060030201600090919290919091506000820151816000015560208201518160010155604082015181600201555050039050600c818154811061033857fe5b9060005260206000209060030201600560008481526020019081526020016000206000820154816000015560018201548160010155600282015481600201559050507f21db1a92fb8efb483c22a581ee7e282b6d79d9d43b559ee1affa341818867969826040516103a99190610aa6565b60405180910390a15050565b600b81815481106103c257fe5b906000526020600020016000915090508060000154905081565b600760008381526020019081526020016000205460036000858152602001908152602001600020600101541461041157600080fd5b6104196107e6565b6003600085815260200190815260200160002060405180608001604052908160008201548152602001600182015481526020016002820160009054906101000a900460ff161515151581526020016003820160405180606001604052908160008201548152602001600182015481526020016002820160009054906101000a900467ffffffffffffffff1667ffffffffffffffff1667ffffffffffffffff16815250508152505090506001816040019015159081151581525050826006600083606001516000015181526020019081526020016000208190555060096000848152602001908152602001600020600081548092919060010191905055508183857f612c500cbd8f1ed8a4643cbf6b41fda92203645d7e4f7c3a237a1be69565ea2c60405160405180910390a450505050565b600c818154811061055857fe5b90600052602060002090600302016000915090508060000154908060010154908060020154905083565b6000606061058f836106e2565b9050600080600090505b82518110156105de57600960008483815181106105b257fe5b602002602001015160000151815260200190815260200160002054820191508080600101915050610599565b508092505050919050565b6105f1610816565b60056000848152602001908152602001600020604051806060016040529081600082015481526020016001820154815260200160028201548152505090504281602001818152505081816040018181525050505050565b600a818154811061065557fe5b90600052602060002090600602016000915090508060000154908060010154908060020160009054906101000a900460ff16908060030160405180606001604052908160008201548152602001600182015481526020016002820160009054906101000a900467ffffffffffffffff1667ffffffffffffffff1667ffffffffffffffff1681525050905084565b606080600860008481526020019081526020016000205460405190808252806020026020018201604052801561073257816020015b61071f610837565b8152602001906001900390816107175790505b509050600080905060008090505b600b805490508110156107db578460076000600b848154811061075f57fe5b906000526020600020016000015481526020019081526020016000205414156107ce57600b818154811061078f57fe5b906000526020600020016040518060200160405290816000820154815250508383815181106107ba57fe5b602002602001018190525081806001019250505b8080600101915050610740565b508192505050919050565b6040518060c00160405280600081526020016000815260200160001515815260200161081061084a565b81525090565b60405180606001604052806000815260200160008152602001600081525090565b6040518060200160405280600081525090565b60405180606001604052806000801916815260200160008152602001600067ffffffffffffffff1681525090565b60008135905061088781610bd2565b92915050565b60008135905061089c81610be9565b92915050565b6000602082840312156108b457600080fd5b60006108c28482850161088d565b91505092915050565b600080604083850312156108de57600080fd5b60006108ec8582860161088d565b92505060206108fd8582860161088d565b9150509250929050565b60008060006060848603121561091c57600080fd5b600061092a8682870161088d565b935050602061093b8682870161088d565b925050604061094c86828701610878565b9150509250925092565b600061096283836109ea565b60208301905092915050565b600061097982610b65565b6109838185610b7d565b935061098e83610b58565b8060005b838110156109bf5781516109a68882610956565b97506109b183610b70565b925050600181019050610992565b5085935050505092915050565b6109d581610b8e565b82525050565b6109e481610b9a565b82525050565b602082016000820151610a006000850182610a48565b50505050565b606082016000820151610a1c60008501826109db565b506020820151610a2f6020850182610a48565b506040820151610a426040850182610a75565b50505050565b610a5181610ba4565b82525050565b610a6081610ba4565b82525050565b610a6f81610bae565b82525050565b610a7e81610bbe565b82525050565b60006020820190508181036000830152610a9e818461096e565b905092915050565b6000602082019050610abb6000830184610a57565b92915050565b600060c082019050610ad66000830187610a57565b610ae36020830186610a57565b610af060408301856109cc565b610afd6060830184610a06565b95945050505050565b6000606082019050610b1b6000830186610a57565b610b286020830185610a57565b610b356040830184610a57565b949350505050565b6000602082019050610b526000830184610a66565b92915050565b6000602082019050919050565b600081519050919050565b6000602082019050919050565b600082825260208201905092915050565b60008115159050919050565b6000819050919050565b6000819050919050565b600063ffffffff82169050919050565b600067ffffffffffffffff82169050919050565b610bdb81610b9a565b8114610be657600080fd5b50565b610bf281610ba4565b8114610bfd57600080fd5b5056fea265627a7a7230582000a9801059b94e54e6a03ea702023465f4062f666835e71264c458b9f1ed974e6c6578706572696d656e74616cf50037",
  "source": "pragma solidity ^0.5.0;\npragma experimental ABIEncoderV2;\n\nimport \"./VotingTransactions.sol\";\n\ncontract ResultHelper is VotingTransactions{\n\n    function retreiveConstituencyVoteCount(uint256 _constituencyId) external view returns(uint32) {\n        Candidate[] memory _candidates = getCandidatesByConstituency(_constituencyId);\n        uint32 _votes;\n        for (uint i = 0; i < _candidates.length; i++) {\n            _votes = _votes + uint32(candidateVoteCount[_candidates[i]._id]);\n        }\n\n        return _votes;\n    }\n}",
  "sourcePath": "/home/d3mon/Projects/sudo-rm--rf/contracts/ResultHelper.sol",
  "compiler": {
    "name": "solc",
    "version": "0.5.8+commit.23d335f2.Emscripten.clang"
  },
  "schemaVersion": "3.0.11",
  "updatedAt": "2019-08-17T15:06:42.870Z",
  "devdoc": {
    "methods": {}
  },
  "userdoc": {
    "methods": {}
  }
}