{
  "contractName": "ResultHelper",
  "abi": [
    {
      "constant": false,
      "inputs": [
        {
          "name": "_id",
          "type": "uint256"
        }
      ],
      "name": "registerCandidate",
      "outputs": [],
      "payable": false,
      "stateMutability": "nonpayable",
      "type": "function"
    },
    {
      "constant": false,
      "inputs": [
        {
          "name": "_id",
          "type": "uint256"
        }
      ],
      "name": "registerConstituency",
      "outputs": [],
      "payable": false,
      "stateMutability": "nonpayable",
      "type": "function"
    },
    {
      "constant": true,
      "inputs": [
        {
          "name": "",
          "type": "uint256"
        }
      ],
      "name": "candidates",
      "outputs": [
        {
          "name": "_id",
          "type": "uint256"
        }
      ],
      "payable": false,
      "stateMutability": "view",
      "type": "function"
    },
    {
      "constant": false,
      "inputs": [
        {
          "name": "from",
          "type": "uint256"
        },
        {
          "name": "to",
          "type": "uint256"
        },
        {
          "name": "tokenId",
          "type": "bytes32"
        }
      ],
      "name": "transferFrom",
      "outputs": [],
      "payable": false,
      "stateMutability": "nonpayable",
      "type": "function"
    },
    {
      "constant": true,
      "inputs": [
        {
          "name": "",
          "type": "uint256"
        }
      ],
      "name": "constituencies",
      "outputs": [
        {
          "name": "_id",
          "type": "uint256"
        },
        {
          "name": "_startTime",
          "type": "uint256"
        },
        {
          "name": "_duration",
          "type": "uint256"
        }
      ],
      "payable": false,
      "stateMutability": "view",
      "type": "function"
    },
    {
      "constant": false,
      "inputs": [
        {
          "name": "_id",
          "type": "uint256"
        },
        {
          "name": "_constituencyId",
          "type": "uint256"
        }
      ],
      "name": "assignCandidateToConstituency",
      "outputs": [],
      "payable": false,
      "stateMutability": "nonpayable",
      "type": "function"
    },
    {
      "constant": false,
      "inputs": [
        {
          "name": "_id",
          "type": "uint256"
        },
        {
          "name": "_duration",
          "type": "uint256"
        }
      ],
      "name": "generateElectionforConstituency",
      "outputs": [],
      "payable": false,
      "stateMutability": "nonpayable",
      "type": "function"
    },
    {
      "constant": true,
      "inputs": [
        {
          "name": "",
          "type": "uint256"
        }
      ],
      "name": "voters",
      "outputs": [
        {
          "name": "_id",
          "type": "uint256"
        },
        {
          "name": "_constituencyId",
          "type": "uint256"
        },
        {
          "name": "_hasVoted",
          "type": "bool"
        },
        {
          "components": [
            {
              "name": "_voteId",
              "type": "bytes32"
            },
            {
              "name": "_votedId",
              "type": "uint256"
            },
            {
              "name": "_voteTime",
              "type": "uint64"
            }
          ],
          "name": "_vote",
          "type": "tuple"
        }
      ],
      "payable": false,
      "stateMutability": "view",
      "type": "function"
    },
    {
      "constant": true,
      "inputs": [
        {
          "name": "_constituencyId",
          "type": "uint256"
        }
      ],
      "name": "getCandidatesByConstituency",
      "outputs": [
        {
          "components": [
            {
              "name": "_id",
              "type": "uint256"
            }
          ],
          "name": "",
          "type": "tuple[]"
        }
      ],
      "payable": false,
      "stateMutability": "view",
      "type": "function"
    },
    {
      "anonymous": false,
      "inputs": [
        {
          "indexed": true,
          "name": "_from",
          "type": "uint256"
        },
        {
          "indexed": true,
          "name": "_to",
          "type": "uint256"
        },
        {
          "indexed": true,
          "name": "_tokenId",
          "type": "bytes32"
        }
      ],
      "name": "Transfer",
      "type": "event"
    },
    {
      "anonymous": false,
      "inputs": [
        {
          "indexed": false,
          "name": "_id",
          "type": "uint256"
        },
        {
          "indexed": false,
          "name": "_voterId",
          "type": "uint256"
        }
      ],
      "name": "VoterCreated",
      "type": "event"
    },
    {
      "anonymous": false,
      "inputs": [
        {
          "indexed": false,
          "name": "_id",
          "type": "uint256"
        }
      ],
      "name": "CandidateRegistered",
      "type": "event"
    },
    {
      "anonymous": false,
      "inputs": [
        {
          "indexed": false,
          "name": "_id",
          "type": "uint256"
        }
      ],
      "name": "ConstituencyRegistered",
      "type": "event"
    },
    {
      "constant": true,
      "inputs": [
        {
          "name": "_constituencyId",
          "type": "uint256"
        }
      ],
      "name": "retreiveConstituencyVoteCount",
      "outputs": [
        {
          "name": "",
          "type": "uint32"
        }
      ],
      "payable": false,
      "stateMutability": "view",
      "type": "function"
    }
  ],
  "bytecode": "0x608060405260405180606001604052806000801b815260200160008152602001600067ffffffffffffffff1681525060008082015181600001556020820151816001015560408201518160020160006101000a81548167ffffffffffffffff021916908367ffffffffffffffff160217905550505034801561008057600080fd5b50610ca0806100906000396000f3fe608060405234801561001057600080fd5b506004361061009e5760003560e01c8063c1c5c5d811610066578063c1c5c5d814610159578063c50eff0c14610189578063d59d48d4146101a5578063da58c7d9146101c1578063f9ed8067146101f45761009e565b80630b2a85ea146100a3578063233f0114146100bf5780633477ee2e146100db5780633ba8b3ff1461010b5780639209416a14610127575b600080fd5b6100bd60048036036100b89190810190610908565b610224565b005b6100d960048036036100d49190810190610908565b6102e1565b005b6100f560048036036100f09190810190610908565b6103dc565b6040516101029190610b0c565b60405180910390f35b6101256004803603610120919081019061096d565b610403565b005b610141600480360361013c9190810190610908565b610572565b60405161015093929190610b6c565b60405180910390f35b610173600480360361016e9190810190610908565b6105a9565b6040516101809190610ba3565b60405180910390f35b6101a3600480360361019e9190810190610931565b610610565b005b6101bf60048036036101ba9190810190610931565b61064f565b005b6101db60048036036101d69190810190610908565b6106ae565b6040516101eb9493929190610b27565b60405180910390f35b61020e60048036036102099190810190610908565b610748565b60405161021b9190610aea565b60405180910390f35b60006001600b604051806020016040528085815250908060018154018082558091505090600182039060005260206000200160009091929091909150600082015181600001555050039050600b818154811061027c57fe5b9060005260206000200160046000848152602001908152602001600020600082015481600001559050507f43dcee486fabffa2fb551555bfaa5bfcf6a42f2d014032ccef94bf09d83855eb826040516102d59190610b0c565b60405180910390a15050565b60006001600c6040518060600160405280858152602001600081526020016000815250908060018154018082558091505090600182039060005260206000209060030201600090919290919091506000820151816000015560208201518160010155604082015181600201555050039050600c818154811061035f57fe5b9060005260206000209060030201600560008481526020019081526020016000206000820154816000015560018201548160010155600282015481600201559050507f21db1a92fb8efb483c22a581ee7e282b6d79d9d43b559ee1affa341818867969826040516103d09190610b0c565b60405180910390a15050565b600b81815481106103e957fe5b906000526020600020016000915090508060000154905081565b600760008381526020019081526020016000205460036000858152602001908152602001600020600101541461043857600080fd5b61044061084c565b6003600085815260200190815260200160002060405180608001604052908160008201548152602001600182015481526020016002820160009054906101000a900460ff161515151581526020016003820160405180606001604052908160008201548152602001600182015481526020016002820160009054906101000a900467ffffffffffffffff1667ffffffffffffffff1667ffffffffffffffff16815250508152505090506001816040019015159081151581525050826006600083606001516000015181526020019081526020016000208190555060096000848152602001908152602001600020600081548092919060010191905055508183857f612c500cbd8f1ed8a4643cbf6b41fda92203645d7e4f7c3a237a1be69565ea2c60405160405180910390a450505050565b600c818154811061057f57fe5b90600052602060002090600302016000915090508060000154908060010154908060020154905083565b600060606105b683610748565b9050600080600090505b825181101561060557600960008483815181106105d957fe5b6020026020010151600001518152602001908152602001600020548201915080806001019150506105c0565b508092505050919050565b80600760008481526020019081526020016000208190555060086000828152602001908152602001600020600081548092919060010191905055505050565b61065761087c565b60056000848152602001908152602001600020604051806060016040529081600082015481526020016001820154815260200160028201548152505090504281602001818152505081816040018181525050505050565b600a81815481106106bb57fe5b90600052602060002090600602016000915090508060000154908060010154908060020160009054906101000a900460ff16908060030160405180606001604052908160008201548152602001600182015481526020016002820160009054906101000a900467ffffffffffffffff1667ffffffffffffffff1667ffffffffffffffff1681525050905084565b606080600860008481526020019081526020016000205460405190808252806020026020018201604052801561079857816020015b61078561089d565b81526020019060019003908161077d5790505b509050600080905060008090505b600b80549050811015610841578460076000600b84815481106107c557fe5b9060005260206000200160000154815260200190815260200160002054141561083457600b81815481106107f557fe5b9060005260206000200160405180602001604052908160008201548152505083838151811061082057fe5b602002602001018190525081806001019250505b80806001019150506107a6565b508192505050919050565b6040518060c0016040528060008152602001600081526020016000151581526020016108766108b0565b81525090565b60405180606001604052806000815260200160008152602001600081525090565b6040518060200160405280600081525090565b60405180606001604052806000801916815260200160008152602001600067ffffffffffffffff1681525090565b6000813590506108ed81610c38565b92915050565b60008135905061090281610c4f565b92915050565b60006020828403121561091a57600080fd5b6000610928848285016108f3565b91505092915050565b6000806040838503121561094457600080fd5b6000610952858286016108f3565b9250506020610963858286016108f3565b9150509250929050565b60008060006060848603121561098257600080fd5b6000610990868287016108f3565b93505060206109a1868287016108f3565b92505060406109b2868287016108de565b9150509250925092565b60006109c88383610a50565b60208301905092915050565b60006109df82610bcb565b6109e98185610be3565b93506109f483610bbe565b8060005b83811015610a25578151610a0c88826109bc565b9750610a1783610bd6565b9250506001810190506109f8565b5085935050505092915050565b610a3b81610bf4565b82525050565b610a4a81610c00565b82525050565b602082016000820151610a666000850182610aae565b50505050565b606082016000820151610a826000850182610a41565b506020820151610a956020850182610aae565b506040820151610aa86040850182610adb565b50505050565b610ab781610c0a565b82525050565b610ac681610c0a565b82525050565b610ad581610c14565b82525050565b610ae481610c24565b82525050565b60006020820190508181036000830152610b0481846109d4565b905092915050565b6000602082019050610b216000830184610abd565b92915050565b600060c082019050610b3c6000830187610abd565b610b496020830186610abd565b610b566040830185610a32565b610b636060830184610a6c565b95945050505050565b6000606082019050610b816000830186610abd565b610b8e6020830185610abd565b610b9b6040830184610abd565b949350505050565b6000602082019050610bb86000830184610acc565b92915050565b6000602082019050919050565b600081519050919050565b6000602082019050919050565b600082825260208201905092915050565b60008115159050919050565b6000819050919050565b6000819050919050565b600063ffffffff82169050919050565b600067ffffffffffffffff82169050919050565b610c4181610c00565b8114610c4c57600080fd5b50565b610c5881610c0a565b8114610c6357600080fd5b5056fea265627a7a7230582051f62af2bb12287edf2c862e205a1e1dd6bb68d77da7b7a6f10cba8ec21422d76c6578706572696d656e74616cf50037",
  "source": "pragma solidity ^0.5.0;\npragma experimental ABIEncoderV2;\n\nimport \"./VotingTransactions.sol\";\n\ncontract ResultHelper is VotingTransactions{\n\n    function retreiveConstituencyVoteCount(uint256 _constituencyId) external view returns(uint32) {\n        Candidate[] memory _candidates = getCandidatesByConstituency(_constituencyId);\n        uint32 _votes;\n        for (uint i = 0; i < _candidates.length; i++) {\n            _votes = _votes + uint32(candidateVoteCount[_candidates[i]._id]);\n        }\n\n        return _votes;\n    }\n}",
  "sourcePath": "/home/d3mon/Projects/sudo-rm--rf/contracts/ResultHelper.sol",
  "compiler": {
    "name": "solc",
    "version": "0.5.8+commit.23d335f2.Emscripten.clang"
  },
  "schemaVersion": "3.0.11",
  "updatedAt": "2019-08-18T10:40:24.956Z",
  "devdoc": {
    "methods": {}
  },
  "userdoc": {
    "methods": {}
  }
}