{
  "contractName": "ResultHelper",
  "abi": [
    {
      "constant": false,
      "inputs": [
        {
          "name": "_id",
          "type": "uint256"
        },
        {
          "name": "_constituencyId",
          "type": "uint256"
        },
        {
          "name": "_adminId",
          "type": "uint256"
        }
      ],
      "name": "assignCandidateToConstituency",
      "outputs": [],
      "payable": false,
      "stateMutability": "nonpayable",
      "type": "function"
    },
    {
      "constant": true,
      "inputs": [
        {
          "name": "",
          "type": "uint256"
        }
      ],
      "name": "admins",
      "outputs": [
        {
          "name": "",
          "type": "uint256"
        }
      ],
      "payable": false,
      "stateMutability": "view",
      "type": "function"
    },
    {
      "constant": false,
      "inputs": [
        {
          "name": "_adminId",
          "type": "uint256"
        }
      ],
      "name": "getConstituencies",
      "outputs": [
        {
          "components": [
            {
              "name": "_id",
              "type": "uint256"
            },
            {
              "name": "_startTime",
              "type": "uint256"
            },
            {
              "name": "_duration",
              "type": "uint256"
            }
          ],
          "name": "",
          "type": "tuple[]"
        }
      ],
      "payable": false,
      "stateMutability": "nonpayable",
      "type": "function"
    },
    {
      "constant": false,
      "inputs": [
        {
          "name": "_id",
          "type": "uint256"
        },
        {
          "name": "_userId",
          "type": "uint256"
        }
      ],
      "name": "getConstituencyDetails",
      "outputs": [
        {
          "components": [
            {
              "name": "_id",
              "type": "uint256"
            },
            {
              "name": "_startTime",
              "type": "uint256"
            },
            {
              "name": "_duration",
              "type": "uint256"
            }
          ],
          "name": "",
          "type": "tuple"
        }
      ],
      "payable": false,
      "stateMutability": "nonpayable",
      "type": "function"
    },
    {
      "constant": true,
      "inputs": [
        {
          "name": "",
          "type": "uint256"
        }
      ],
      "name": "candidates",
      "outputs": [
        {
          "name": "_id",
          "type": "uint256"
        }
      ],
      "payable": false,
      "stateMutability": "view",
      "type": "function"
    },
    {
      "constant": false,
      "inputs": [
        {
          "name": "_id",
          "type": "uint256"
        },
        {
          "name": "_adminId",
          "type": "uint256"
        }
      ],
      "name": "registerConstituency",
      "outputs": [],
      "payable": false,
      "stateMutability": "nonpayable",
      "type": "function"
    },
    {
      "constant": false,
      "inputs": [
        {
          "name": "from",
          "type": "uint256"
        },
        {
          "name": "to",
          "type": "uint256"
        },
        {
          "name": "tokenId",
          "type": "bytes32"
        }
      ],
      "name": "transferFrom",
      "outputs": [],
      "payable": false,
      "stateMutability": "nonpayable",
      "type": "function"
    },
    {
      "constant": false,
      "inputs": [
        {
          "name": "_id",
          "type": "uint256"
        },
        {
          "name": "_adminId",
          "type": "uint256"
        }
      ],
      "name": "registerCandidate",
      "outputs": [],
      "payable": false,
      "stateMutability": "nonpayable",
      "type": "function"
    },
    {
      "constant": false,
      "inputs": [],
      "name": "renounceOwnership",
      "outputs": [],
      "payable": false,
      "stateMutability": "nonpayable",
      "type": "function"
    },
    {
      "constant": true,
      "inputs": [],
      "name": "owner",
      "outputs": [
        {
          "name": "",
          "type": "address"
        }
      ],
      "payable": false,
      "stateMutability": "view",
      "type": "function"
    },
    {
      "constant": true,
      "inputs": [],
      "name": "isOwner",
      "outputs": [
        {
          "name": "",
          "type": "bool"
        }
      ],
      "payable": false,
      "stateMutability": "view",
      "type": "function"
    },
    {
      "constant": true,
      "inputs": [
        {
          "name": "",
          "type": "uint256"
        }
      ],
      "name": "constituencies",
      "outputs": [
        {
          "name": "_id",
          "type": "uint256"
        },
        {
          "name": "_startTime",
          "type": "uint256"
        },
        {
          "name": "_duration",
          "type": "uint256"
        }
      ],
      "payable": false,
      "stateMutability": "view",
      "type": "function"
    },
    {
      "constant": false,
      "inputs": [
        {
          "name": "_id",
          "type": "uint256"
        }
      ],
      "name": "registerAdmin",
      "outputs": [],
      "payable": false,
      "stateMutability": "nonpayable",
      "type": "function"
    },
    {
      "constant": true,
      "inputs": [
        {
          "name": "_constituencyId",
          "type": "uint256"
        },
        {
          "name": "_userId",
          "type": "uint256"
        }
      ],
      "name": "getCandidatesByConstituency",
      "outputs": [
        {
          "components": [
            {
              "name": "_id",
              "type": "uint256"
            }
          ],
          "name": "",
          "type": "tuple[]"
        }
      ],
      "payable": false,
      "stateMutability": "view",
      "type": "function"
    },
    {
      "constant": true,
      "inputs": [
        {
          "name": "",
          "type": "uint256"
        }
      ],
      "name": "voters",
      "outputs": [
        {
          "name": "_id",
          "type": "uint256"
        },
        {
          "name": "_constituencyId",
          "type": "uint256"
        },
        {
          "name": "_hasVoted",
          "type": "bool"
        },
        {
          "components": [
            {
              "name": "_voteId",
              "type": "bytes32"
            },
            {
              "name": "_votedId",
              "type": "uint256"
            },
            {
              "name": "_voteTime",
              "type": "uint64"
            }
          ],
          "name": "_vote",
          "type": "tuple"
        }
      ],
      "payable": false,
      "stateMutability": "view",
      "type": "function"
    },
    {
      "constant": false,
      "inputs": [
        {
          "name": "newOwner",
          "type": "address"
        }
      ],
      "name": "transferOwnership",
      "outputs": [],
      "payable": false,
      "stateMutability": "nonpayable",
      "type": "function"
    },
    {
      "constant": false,
      "inputs": [
        {
          "name": "_id",
          "type": "uint256"
        },
        {
          "name": "_duration",
          "type": "uint256"
        },
        {
          "name": "_adminId",
          "type": "uint256"
        }
      ],
      "name": "generateElectionforConstituency",
      "outputs": [],
      "payable": false,
      "stateMutability": "nonpayable",
      "type": "function"
    },
    {
      "anonymous": false,
      "inputs": [
        {
          "indexed": true,
          "name": "_from",
          "type": "uint256"
        },
        {
          "indexed": true,
          "name": "_to",
          "type": "uint256"
        },
        {
          "indexed": true,
          "name": "_tokenId",
          "type": "bytes32"
        }
      ],
      "name": "Transfer",
      "type": "event"
    },
    {
      "anonymous": false,
      "inputs": [
        {
          "indexed": false,
          "name": "_id",
          "type": "uint256"
        },
        {
          "indexed": false,
          "name": "_voterId",
          "type": "uint256"
        }
      ],
      "name": "VoterCreated",
      "type": "event"
    },
    {
      "anonymous": false,
      "inputs": [
        {
          "indexed": false,
          "name": "_id",
          "type": "uint256"
        }
      ],
      "name": "CandidateRegistered",
      "type": "event"
    },
    {
      "anonymous": false,
      "inputs": [
        {
          "indexed": false,
          "name": "_id",
          "type": "uint256"
        }
      ],
      "name": "ConstituencyRegistered",
      "type": "event"
    },
    {
      "anonymous": false,
      "inputs": [
        {
          "indexed": true,
          "name": "previousOwner",
          "type": "address"
        },
        {
          "indexed": true,
          "name": "newOwner",
          "type": "address"
        }
      ],
      "name": "OwnershipTransferred",
      "type": "event"
    },
    {
      "constant": false,
      "inputs": [
        {
          "name": "_adminId",
          "type": "uint256"
        }
      ],
      "name": "declareResults",
      "outputs": [],
      "payable": false,
      "stateMutability": "nonpayable",
      "type": "function"
    },
    {
      "constant": true,
      "inputs": [
        {
          "name": "_constituencyId",
          "type": "uint256"
        },
        {
          "name": "_userId",
          "type": "uint256"
        }
      ],
      "name": "retreiveConstituencyVoteCount",
      "outputs": [
        {
          "name": "",
          "type": "uint32"
        }
      ],
      "payable": false,
      "stateMutability": "view",
      "type": "function"
    }
  ],
  "bytecode": "0x60806040526060604051908101604052806000600102815260200160008152602001600067ffffffffffffffff168152506001600082015181600001556020820151816001015560408201518160020160006101000a81548167ffffffffffffffff021916908367ffffffffffffffff16021790555050506000600460006101000a81548160ff021916908315150217905550336000806101000a81548173ffffffffffffffffffffffffffffffffffffffff021916908373ffffffffffffffffffffffffffffffffffffffff1602179055506000809054906101000a900473ffffffffffffffffffffffffffffffffffffffff1673ffffffffffffffffffffffffffffffffffffffff16600073ffffffffffffffffffffffffffffffffffffffff167f8be0079c531659141344cd1fd0a4f28419497f9722a3daafe3b4186f6b6457e060405160405180910390a36117b78061015d6000396000f3fe608060405260043610610107576000357c0100000000000000000000000000000000000000000000000000000000900463ffffffff16806312d51c721461010c57806314bfd6d01461013557806323dc5c6e14610172578063289752101461019b5780632fd23a3f146101d85780633477ee2e146102155780633acab52f146102525780633ba8b3ff1461027b57806345dc9ad7146102a45780635d6e5052146102e1578063715018a61461030a5780638da5cb5b146103215780638f32d59b1461034c5780639209416a1461037757806394845254146103b6578063bbc893a3146103df578063da58c7d91461041c578063f2fde38b1461045c578063f759006514610485575b600080fd5b34801561011857600080fd5b50610133600480360361012e919081019061130f565b6104ae565b005b34801561014157600080fd5b5061015c6004803603610157919081019061125b565b61053d565b60405161016991906115e5565b60405180910390f35b34801561017e57600080fd5b506101996004803603610194919081019061125b565b610560565b005b3480156101a757600080fd5b506101c260048036036101bd919081019061125b565b6105cd565b6040516101cf919061158d565b60405180910390f35b3480156101e457600080fd5b506101ff60048036036101fa9190810190611284565b61069c565b60405161020c91906115ca565b60405180910390f35b34801561022157600080fd5b5061023c6004803603610237919081019061125b565b61071d565b60405161024991906115e5565b60405180910390f35b34801561025e57600080fd5b5061027960048036036102749190810190611284565b610746565b005b34801561028757600080fd5b506102a2600480360361029d91908101906112c0565b610894565b005b3480156102b057600080fd5b506102cb60048036036102c69190810190611284565b610a2f565b6040516102d8919061167c565b60405180910390f35b3480156102ed57600080fd5b5061030860048036036103039190810190611284565b610ae6565b005b34801561031657600080fd5b5061031f610bf6565b005b34801561032d57600080fd5b50610336610cc8565b6040516103439190611550565b60405180910390f35b34801561035857600080fd5b50610361610cf1565b60405161036e91906115af565b60405180910390f35b34801561038357600080fd5b5061039e6004803603610399919081019061125b565b610d48565b6040516103ad93929190611645565b60405180910390f35b3480156103c257600080fd5b506103dd60048036036103d8919081019061125b565b610d81565b005b3480156103eb57600080fd5b5061040660048036036104019190810190611284565b610dc3565b604051610413919061156b565b60405180910390f35b34801561042857600080fd5b50610443600480360361043e919081019061125b565b610efa565b6040516104539493929190611600565b60405180910390f35b34801561046857600080fd5b50610483600480360361047e9190810190611232565b610f97565b005b34801561049157600080fd5b506104ac60048036036104a7919081019061130f565b610fb6565b005b8060008090505b600f805490508110156105365781600f828154811015156104d257fe5b9060005260206000200154141561052357836009600087815260200190815260200160002081905550600a600085815260200190815260200160002060008154809291906001019190505550610528565b610529565b5b80806001019150506104b5565b5050505050565b600f8181548110151561054c57fe5b906000526020600020016000915090505481565b8060008090505b600f805490508110156105c85781600f8281548110151561058457fe5b906000526020600020015414156105b5576001600460006101000a81548160ff0219169083151502179055506105ba565b6105bb565b5b8080600101915050610567565b505050565b60608160008090505b600f805490508110156106955781600f828154811015156105f357fe5b9060005260206000200154141561068257600e805480602002602001604051908101604052809291908181526020016000905b82821015610677578382906000526020600020906003020160606040519081016040529081600082015481526020016001820154815260200160028201548152505081526020019060010190610626565b505050509250610687565b610688565b5b80806001019150506105d6565b5050919050565b6106a4611160565b8160006005600083815260200190815260200160002060000154141515156106cb57600080fd5b6106d3611160565b600760008681526020019081526020016000206060604051908101604052908160008201548152602001600182015481526020016002820154815250509050809250505092915050565b600d8181548110151561072c57fe5b906000526020600020016000915090508060000154905081565b8060008090505b600f8054905081101561088e5781600f8281548110151561076a57fe5b9060005260206000200154141561087b5760006001600e606060405190810160405280888152602001600081526020016000815250908060018154018082558091505090600182039060005260206000209060030201600090919290919091506000820151816000015560208201518160010155604082015181600201555050039050600e818154811015156107fc57fe5b9060005260206000209060030201600760008781526020019081526020016000206000820154816000015560018201548160010155600282015481600201559050507f21db1a92fb8efb483c22a581ee7e282b6d79d9d43b559ee1affa3418188679698560405161086d91906115e5565b60405180910390a150610880565b610881565b5b808060010191505061074d565b50505050565b8260006005600083815260200190815260200160002060000154141515156108bb57600080fd5b600960008481526020019081526020016000205460056000868152602001908152602001600020600101541415156108f257600080fd5b6108fa611182565b600560008681526020019081526020016000206080604051908101604052908160008201548152602001600182015481526020016002820160009054906101000a900460ff16151515158152602001600382016060604051908101604052908160008201548152602001600182015481526020016002820160009054906101000a900467ffffffffffffffff1667ffffffffffffffff1667ffffffffffffffff168152505081525050905060018160400190151590811515815250508360086000836060015160000151815260200190815260200160002081905550600b6000858152602001908152602001600020600081548092919060010191905055508284867f612c500cbd8f1ed8a4643cbf6b41fda92203645d7e4f7c3a237a1be69565ea2c60405160405180910390a45050505050565b600060011515600460009054906101000a900460ff161515141515610a5357600080fd5b816000600560008381526020019081526020016000206000015414151515610a7a57600080fd5b6060610a868585610dc3565b9050600080600090505b8251811015610ad957600b60008483815181101515610aab57fe5b9060200190602002015160000151815260200190815260200160002054820191508080600101915050610a90565b5080935050505092915050565b8060008090505b600f80549050811015610bf05781600f82815481101515610b0a57fe5b90600052602060002001541415610bdd5760006001600d60206040519081016040528088815250908060018154018082558091505090600182039060005260206000200160009091929091909150600082015181600001555050039050600d81815481101515610b7657fe5b9060005260206000200160066000878152602001908152602001600020600082015481600001559050507f43dcee486fabffa2fb551555bfaa5bfcf6a42f2d014032ccef94bf09d83855eb85604051610bcf91906115e5565b60405180910390a150610be2565b610be3565b5b8080600101915050610aed565b50505050565b610bfe610cf1565b1515610c0957600080fd5b600073ffffffffffffffffffffffffffffffffffffffff166000809054906101000a900473ffffffffffffffffffffffffffffffffffffffff1673ffffffffffffffffffffffffffffffffffffffff167f8be0079c531659141344cd1fd0a4f28419497f9722a3daafe3b4186f6b6457e060405160405180910390a360008060006101000a81548173ffffffffffffffffffffffffffffffffffffffff021916908373ffffffffffffffffffffffffffffffffffffffff160217905550565b60008060009054906101000a900473ffffffffffffffffffffffffffffffffffffffff16905090565b60008060009054906101000a900473ffffffffffffffffffffffffffffffffffffffff1673ffffffffffffffffffffffffffffffffffffffff163373ffffffffffffffffffffffffffffffffffffffff1614905090565b600e81815481101515610d5757fe5b90600052602060002090600302016000915090508060000154908060010154908060020154905083565b610d89610cf1565b1515610d9457600080fd5b600f81908060018154018082558091505090600182039060005260206000200160009091929091909150555050565b6060816000600560008381526020019081526020016000206000015414151515610dec57600080fd5b6060600a600086815260200190815260200160002054604051908082528060200260200182016040528015610e3b57816020015b610e286111b3565b815260200190600190039081610e205790505b509050600080905060008090505b600d80549050811015610eed578660096000600d84815481101515610e6a57fe5b90600052602060002001600001548152602001908152602001600020541415610ee057600d81815481101515610e9c57fe5b90600052602060002001602060405190810160405290816000820154815250508383815181101515610eca57fe5b9060200190602002018190525081806001019250505b8080600101915050610e49565b5081935050505092915050565b600c81815481101515610f0957fe5b90600052602060002090600602016000915090508060000154908060010154908060020160009054906101000a900460ff1690806003016060604051908101604052908160008201548152602001600182015481526020016002820160009054906101000a900467ffffffffffffffff1667ffffffffffffffff1667ffffffffffffffff1681525050905084565b610f9f610cf1565b1515610faa57600080fd5b610fb381611066565b50565b8060008090505b600f8054905081101561105f5781600f82815481101515610fda57fe5b9060005260206000200154141561104c57610ff3611160565b600760008781526020019081526020016000206060604051908101604052908160008201548152602001600182015481526020016002820154815250509050428160200181815250508481604001818152505050611051565b611052565b5b8080600101915050610fbd565b5050505050565b600073ffffffffffffffffffffffffffffffffffffffff168173ffffffffffffffffffffffffffffffffffffffff16141515156110a257600080fd5b8073ffffffffffffffffffffffffffffffffffffffff166000809054906101000a900473ffffffffffffffffffffffffffffffffffffffff1673ffffffffffffffffffffffffffffffffffffffff167f8be0079c531659141344cd1fd0a4f28419497f9722a3daafe3b4186f6b6457e060405160405180910390a3806000806101000a81548173ffffffffffffffffffffffffffffffffffffffff021916908373ffffffffffffffffffffffffffffffffffffffff16021790555050565b6060604051908101604052806000815260200160008152602001600081525090565b60c06040519081016040528060008152602001600081526020016000151581526020016111ad6111c7565b81525090565b602060405190810160405280600081525090565b6060604051908101604052806000801916815260200160008152602001600067ffffffffffffffff1681525090565b60006112028235611757565b905092915050565b60006112168235611769565b905092915050565b600061122a8235611773565b905092915050565b60006020828403121561124457600080fd5b6000611252848285016111f6565b91505092915050565b60006020828403121561126d57600080fd5b600061127b8482850161121e565b91505092915050565b6000806040838503121561129757600080fd5b60006112a58582860161121e565b92505060206112b68582860161121e565b9150509250929050565b6000806000606084860312156112d557600080fd5b60006112e38682870161121e565b93505060206112f48682870161121e565b92505060406113058682870161120a565b9150509250925092565b60008060006060848603121561132457600080fd5b60006113328682870161121e565b93505060206113438682870161121e565b92505060406113548682870161121e565b9150509250925092565b611367816116e1565b82525050565b6000611378826116b1565b80845260208401935061138a83611697565b60005b828110156113bc576113a0868351611441565b6113a9826116c7565b915060208601955060018101905061138d565b50849250505092915050565b60006113d3826116bc565b8084526020840193506113e5836116a4565b60005b82811015611417576113fb86835161149f565b611404826116d4565b91506060860195506001810190506113e8565b50849250505092915050565b61142c816116f3565b82525050565b61143b816116ff565b82525050565b6020820160008201516114576000850182611523565b50505050565b6060820160008201516114736000850182611523565b5060208201516114866020850182611523565b5060408201516114996040850182611523565b50505050565b6060820160008201516114b56000850182611523565b5060208201516114c86020850182611523565b5060408201516114db6040850182611523565b50505050565b6060820160008201516114f76000850182611432565b50602082015161150a6020850182611523565b50604082015161151d6040850182611541565b50505050565b61152c81611729565b82525050565b61153b81611733565b82525050565b61154a81611743565b82525050565b6000602082019050611565600083018461135e565b92915050565b60006020820190508181036000830152611585818461136d565b905092915050565b600060208201905081810360008301526115a781846113c8565b905092915050565b60006020820190506115c46000830184611423565b92915050565b60006060820190506115df600083018461145d565b92915050565b60006020820190506115fa6000830184611523565b92915050565b600060c0820190506116156000830187611523565b6116226020830186611523565b61162f6040830185611423565b61163c60608301846114e1565b95945050505050565b600060608201905061165a6000830186611523565b6116676020830185611523565b6116746040830184611523565b949350505050565b60006020820190506116916000830184611532565b92915050565b6000602082019050919050565b6000602082019050919050565b600081519050919050565b600081519050919050565b6000602082019050919050565b6000602082019050919050565b60006116ec82611709565b9050919050565b60008115159050919050565b6000819050919050565b600073ffffffffffffffffffffffffffffffffffffffff82169050919050565b6000819050919050565b600063ffffffff82169050919050565b600067ffffffffffffffff82169050919050565b600061176282611709565b9050919050565b6000819050919050565b600081905091905056fea265627a7a72305820866494a9fabc468a197642f3cfb5d6a18ff25cde604976e301c4c82f68ae765d6c6578706572696d656e74616cf50037",
  "source": "pragma solidity ^0.5.0;\npragma experimental ABIEncoderV2;\n\nimport \"./VotingTransactions.sol\";\n\ncontract ResultHelper is VotingTransactions{\n\n    function declareResults(uint256 _adminId) external onlyAdmin(_adminId) {\n        ResultsDeclared = true;\n    }\n\n    function retreiveConstituencyVoteCount(uint256 _constituencyId, uint256 _userId) external view declaredResults onlyUser(_userId) returns(uint32) {\n        Candidate[] memory _candidates = getCandidatesByConstituency(_constituencyId,_userId);\n        uint32 _votes;\n        for (uint i = 0; i < _candidates.length; i++) {\n            _votes = _votes + uint32(candidateVoteCount[_candidates[i]._id]);\n        }\n\n        return _votes;\n    }\n}",
  "sourcePath": "/home/d3mon/Projects/sudo-rm--rf/contracts/ResultHelper.sol",
  "compiler": {
    "name": "solc",
    "version": "0.5.0+commit.1d4f565a.Emscripten.clang"
  },
  "schemaVersion": "3.0.2",
  "updatedAt": "2019-12-21T10:19:28.236Z",
  "devdoc": {
    "methods": {
      "isOwner()": {
        "return": "true if `msg.sender` is the owner of the contract."
      },
      "owner()": {
        "return": "the address of the owner."
      },
      "renounceOwnership()": {
        "details": "Allows the current owner to relinquish control of the contract."
      },
      "transferOwnership(address)": {
        "details": "Allows the current owner to transfer control of the contract to a newOwner.",
        "params": {
          "newOwner": "The address to transfer ownership to."
        }
      }
    }
  },
  "userdoc": {
    "methods": {
      "renounceOwnership()": {
        "notice": "Renouncing to ownership will leave the contract without an owner. It will not be possible to call the functions with the `onlyOwner` modifier anymore."
      }
    }
  }
}