{
  "contractName": "ResultHelper",
  "abi": [
    {
      "constant": true,
      "inputs": [
        {
          "name": "",
          "type": "uint256"
        }
      ],
      "name": "candidateVoteCount",
      "outputs": [
        {
          "name": "",
          "type": "uint256"
        }
      ],
      "payable": false,
      "stateMutability": "view",
      "type": "function"
    },
    {
      "constant": true,
      "inputs": [
        {
          "name": "",
          "type": "uint256"
        }
      ],
      "name": "idToConstituency",
      "outputs": [
        {
          "name": "_id",
          "type": "uint256"
        },
        {
          "name": "_startTime",
          "type": "uint256"
        },
        {
          "name": "_duration",
          "type": "uint256"
        }
      ],
      "payable": false,
      "stateMutability": "view",
      "type": "function"
    },
    {
      "constant": false,
      "inputs": [
        {
          "name": "_id",
          "type": "uint256"
        },
        {
          "name": "_constituencyId",
          "type": "uint256"
        },
        {
          "name": "_adminId",
          "type": "uint256"
        }
      ],
      "name": "assignCandidateToConstituency",
      "outputs": [],
      "payable": false,
      "stateMutability": "nonpayable",
      "type": "function"
    },
    {
      "constant": true,
      "inputs": [
        {
          "name": "",
          "type": "uint256"
        }
      ],
      "name": "candidateToConstituency",
      "outputs": [
        {
          "name": "",
          "type": "uint256"
        }
      ],
      "payable": false,
      "stateMutability": "view",
      "type": "function"
    },
    {
      "constant": true,
      "inputs": [
        {
          "name": "",
          "type": "uint256"
        }
      ],
      "name": "admins",
      "outputs": [
        {
          "name": "",
          "type": "uint256"
        }
      ],
      "payable": false,
      "stateMutability": "view",
      "type": "function"
    },
    {
      "constant": false,
      "inputs": [
        {
          "name": "_adminId",
          "type": "uint256"
        }
      ],
      "name": "getConstituencies",
      "outputs": [
        {
          "components": [
            {
              "name": "_id",
              "type": "uint256"
            },
            {
              "name": "_startTime",
              "type": "uint256"
            },
            {
              "name": "_duration",
              "type": "uint256"
            }
          ],
          "name": "",
          "type": "tuple[]"
        }
      ],
      "payable": false,
      "stateMutability": "nonpayable",
      "type": "function"
    },
    {
      "constant": false,
      "inputs": [
        {
          "name": "_id",
          "type": "uint256"
        },
        {
          "name": "_userId",
          "type": "uint256"
        }
      ],
      "name": "getConstituencyDetails",
      "outputs": [
        {
          "components": [
            {
              "name": "_id",
              "type": "uint256"
            },
            {
              "name": "_startTime",
              "type": "uint256"
            },
            {
              "name": "_duration",
              "type": "uint256"
            }
          ],
          "name": "",
          "type": "tuple"
        }
      ],
      "payable": false,
      "stateMutability": "nonpayable",
      "type": "function"
    },
    {
      "constant": false,
      "inputs": [
        {
          "name": "from",
          "type": "uint256"
        },
        {
          "name": "to",
          "type": "uint256"
        },
        {
          "name": "tokenId",
          "type": "uint256"
        }
      ],
      "name": "transferFrom",
      "outputs": [],
      "payable": false,
      "stateMutability": "nonpayable",
      "type": "function"
    },
    {
      "constant": true,
      "inputs": [
        {
          "name": "",
          "type": "uint256"
        }
      ],
      "name": "candidates",
      "outputs": [
        {
          "name": "_id",
          "type": "uint256"
        }
      ],
      "payable": false,
      "stateMutability": "view",
      "type": "function"
    },
    {
      "constant": true,
      "inputs": [
        {
          "name": "",
          "type": "uint256"
        }
      ],
      "name": "constituencyCandidateCount",
      "outputs": [
        {
          "name": "",
          "type": "uint256"
        }
      ],
      "payable": false,
      "stateMutability": "view",
      "type": "function"
    },
    {
      "constant": true,
      "inputs": [
        {
          "name": "",
          "type": "uint256"
        }
      ],
      "name": "voteToCandidate",
      "outputs": [
        {
          "name": "",
          "type": "uint256"
        }
      ],
      "payable": false,
      "stateMutability": "view",
      "type": "function"
    },
    {
      "constant": true,
      "inputs": [
        {
          "name": "",
          "type": "uint256"
        }
      ],
      "name": "idToCandidate",
      "outputs": [
        {
          "name": "_id",
          "type": "uint256"
        }
      ],
      "payable": false,
      "stateMutability": "view",
      "type": "function"
    },
    {
      "constant": false,
      "inputs": [],
      "name": "renounceOwnership",
      "outputs": [],
      "payable": false,
      "stateMutability": "nonpayable",
      "type": "function"
    },
    {
      "constant": false,
      "inputs": [
        {
          "name": "_constituencies",
          "type": "uint256[]"
        },
        {
          "name": "_adminId",
          "type": "uint256"
        }
      ],
      "name": "registerConstituencies",
      "outputs": [],
      "payable": false,
      "stateMutability": "nonpayable",
      "type": "function"
    },
    {
      "constant": true,
      "inputs": [],
      "name": "owner",
      "outputs": [
        {
          "name": "",
          "type": "address"
        }
      ],
      "payable": false,
      "stateMutability": "view",
      "type": "function"
    },
    {
      "constant": true,
      "inputs": [],
      "name": "isOwner",
      "outputs": [
        {
          "name": "",
          "type": "bool"
        }
      ],
      "payable": false,
      "stateMutability": "view",
      "type": "function"
    },
    {
      "constant": true,
      "inputs": [
        {
          "name": "",
          "type": "uint256"
        }
      ],
      "name": "constituencies",
      "outputs": [
        {
          "name": "_id",
          "type": "uint256"
        },
        {
          "name": "_startTime",
          "type": "uint256"
        },
        {
          "name": "_duration",
          "type": "uint256"
        }
      ],
      "payable": false,
      "stateMutability": "view",
      "type": "function"
    },
    {
      "constant": false,
      "inputs": [
        {
          "name": "_id",
          "type": "uint256"
        }
      ],
      "name": "registerAdmin",
      "outputs": [],
      "payable": false,
      "stateMutability": "nonpayable",
      "type": "function"
    },
    {
      "constant": true,
      "inputs": [],
      "name": "ResultsDeclared",
      "outputs": [
        {
          "name": "",
          "type": "bool"
        }
      ],
      "payable": false,
      "stateMutability": "view",
      "type": "function"
    },
    {
      "constant": true,
      "inputs": [
        {
          "name": "",
          "type": "uint256"
        }
      ],
      "name": "constituencyVoterCount",
      "outputs": [
        {
          "name": "",
          "type": "uint256"
        }
      ],
      "payable": false,
      "stateMutability": "view",
      "type": "function"
    },
    {
      "constant": true,
      "inputs": [
        {
          "name": "_constituencyId",
          "type": "uint256"
        },
        {
          "name": "_userId",
          "type": "uint256"
        }
      ],
      "name": "getCandidatesByConstituency",
      "outputs": [
        {
          "components": [
            {
              "name": "_id",
              "type": "uint256"
            }
          ],
          "name": "",
          "type": "tuple[]"
        }
      ],
      "payable": false,
      "stateMutability": "view",
      "type": "function"
    },
    {
      "constant": true,
      "inputs": [
        {
          "name": "",
          "type": "uint256"
        }
      ],
      "name": "voters",
      "outputs": [
        {
          "name": "_id",
          "type": "uint256"
        },
        {
          "name": "_constituencyId",
          "type": "uint256"
        },
        {
          "name": "_hasVoted",
          "type": "bool"
        },
        {
          "name": "_voteTime",
          "type": "uint256"
        },
        {
          "components": [
            {
              "name": "_voteId",
              "type": "uint256"
            }
          ],
          "name": "_vote",
          "type": "tuple"
        }
      ],
      "payable": false,
      "stateMutability": "view",
      "type": "function"
    },
    {
      "constant": false,
      "inputs": [
        {
          "name": "newOwner",
          "type": "address"
        }
      ],
      "name": "transferOwnership",
      "outputs": [],
      "payable": false,
      "stateMutability": "nonpayable",
      "type": "function"
    },
    {
      "constant": false,
      "inputs": [
        {
          "name": "_id",
          "type": "uint256"
        },
        {
          "name": "_duration",
          "type": "uint256"
        },
        {
          "name": "_adminId",
          "type": "uint256"
        }
      ],
      "name": "generateElectionforConstituency",
      "outputs": [],
      "payable": false,
      "stateMutability": "nonpayable",
      "type": "function"
    },
    {
      "constant": true,
      "inputs": [
        {
          "name": "",
          "type": "uint256"
        }
      ],
      "name": "idToVoter",
      "outputs": [
        {
          "name": "_id",
          "type": "uint256"
        },
        {
          "name": "_constituencyId",
          "type": "uint256"
        },
        {
          "name": "_hasVoted",
          "type": "bool"
        },
        {
          "name": "_voteTime",
          "type": "uint256"
        },
        {
          "components": [
            {
              "name": "_voteId",
              "type": "uint256"
            }
          ],
          "name": "_vote",
          "type": "tuple"
        }
      ],
      "payable": false,
      "stateMutability": "view",
      "type": "function"
    },
    {
      "anonymous": false,
      "inputs": [
        {
          "indexed": true,
          "name": "_from",
          "type": "uint256"
        },
        {
          "indexed": true,
          "name": "_to",
          "type": "uint256"
        },
        {
          "indexed": true,
          "name": "_tokenId",
          "type": "uint256"
        }
      ],
      "name": "Transfer",
      "type": "event"
    },
    {
      "anonymous": false,
      "inputs": [
        {
          "indexed": false,
          "name": "_id",
          "type": "uint256"
        },
        {
          "indexed": false,
          "name": "_constituencyId",
          "type": "uint256"
        }
      ],
      "name": "VoterCreated",
      "type": "event"
    },
    {
      "anonymous": false,
      "inputs": [
        {
          "indexed": false,
          "name": "_id",
          "type": "uint256"
        }
      ],
      "name": "CandidateRegistered",
      "type": "event"
    },
    {
      "anonymous": false,
      "inputs": [
        {
          "indexed": false,
          "name": "_id",
          "type": "uint256"
        }
      ],
      "name": "ConstituencyRegistered",
      "type": "event"
    },
    {
      "anonymous": false,
      "inputs": [
        {
          "indexed": true,
          "name": "previousOwner",
          "type": "address"
        },
        {
          "indexed": true,
          "name": "newOwner",
          "type": "address"
        }
      ],
      "name": "OwnershipTransferred",
      "type": "event"
    },
    {
      "constant": false,
      "inputs": [
        {
          "name": "_adminId",
          "type": "uint256"
        }
      ],
      "name": "declareResults",
      "outputs": [],
      "payable": false,
      "stateMutability": "nonpayable",
      "type": "function"
    },
    {
      "constant": true,
      "inputs": [
        {
          "name": "_constituencyId",
          "type": "uint256"
        },
        {
          "name": "_userId",
          "type": "uint256"
        }
      ],
      "name": "retreiveConstituencyVoteCount",
      "outputs": [
        {
          "name": "",
          "type": "uint32"
        }
      ],
      "payable": false,
      "stateMutability": "view",
      "type": "function"
    }
  ],
  "bytecode": "0x608060405260008060146101000a81548160ff021916908315150217905550336000806101000a81548173ffffffffffffffffffffffffffffffffffffffff021916908373ffffffffffffffffffffffffffffffffffffffff1602179055506000809054906101000a900473ffffffffffffffffffffffffffffffffffffffff1673ffffffffffffffffffffffffffffffffffffffff16600073ffffffffffffffffffffffffffffffffffffffff167f8be0079c531659141344cd1fd0a4f28419497f9722a3daafe3b4186f6b6457e060405160405180910390a360008060146101000a81548160ff021916908315150217905550611ad4806101036000396000f3fe60806040526004361061015f576000357c0100000000000000000000000000000000000000000000000000000000900463ffffffff16806301aa2e03146101645780630f80dcb0146101a157806312d51c72146101e05780631471e0ab1461020957806314bfd6d01461024657806323dc5c6e1461028357806328975210146102ac5780632fd23a3f146102e9578063310ed7f0146103265780633477ee2e1461034f5780633b04a6c91461038c57806345dc9ad7146103c957806356be16581461040657806357e2ef1014610443578063715018a6146104805780637b013b94146104975780638da5cb5b146104c05780638f32d59b146104eb5780639209416a146105165780639484525414610555578063aa3e4e1c1461057e578063b9a285de146105a9578063bbc893a3146105e6578063da58c7d914610623578063f2fde38b14610664578063f75900651461068d578063f8c70571146106b6575b600080fd5b34801561017057600080fd5b5061018b60048036036101869190810190611625565b6106f7565b604051610198919061191c565b60405180910390f35b3480156101ad57600080fd5b506101c860048036036101c39190810190611625565b61070f565b6040516101d79392919061198a565b60405180910390f35b3480156101ec57600080fd5b506102076004803603610202919081019061168a565b610739565b005b34801561021557600080fd5b50610230600480360361022b9190810190611625565b6107d2565b60405161023d919061191c565b60405180910390f35b34801561025257600080fd5b5061026d60048036036102689190810190611625565b6107ea565b60405161027a919061191c565b60405180910390f35b34801561028f57600080fd5b506102aa60048036036102a59190810190611625565b61080d565b005b3480156102b857600080fd5b506102d360048036036102ce9190810190611625565b61087a565b6040516102e091906118c4565b60405180910390f35b3480156102f557600080fd5b50610310600480360361030b919081019061164e565b6109a9565b60405161031d9190611901565b60405180910390f35b34801561033257600080fd5b5061034d6004803603610348919081019061168a565b610a2a565b005b34801561035b57600080fd5b5061037660048036036103719190810190611625565b610b36565b604051610383919061191c565b60405180910390f35b34801561039857600080fd5b506103b360048036036103ae9190810190611625565b610b5f565b6040516103c0919061191c565b60405180910390f35b3480156103d557600080fd5b506103f060048036036103eb919081019061164e565b610b77565b6040516103fd91906119c1565b60405180910390f35b34801561041257600080fd5b5061042d60048036036104289190810190611625565b610c2e565b60405161043a919061191c565b60405180910390f35b34801561044f57600080fd5b5061046a60048036036104659190810190611625565b610c46565b604051610477919061191c565b60405180910390f35b34801561048c57600080fd5b50610495610c64565b005b3480156104a357600080fd5b506104be60048036036104b991908101906115cd565b610d36565b005b3480156104cc57600080fd5b506104d5610dc7565b6040516104e29190611887565b60405180910390f35b3480156104f757600080fd5b50610500610df0565b60405161050d91906118e6565b60405180910390f35b34801561052257600080fd5b5061053d60048036036105389190810190611625565b610e47565b60405161054c9392919061198a565b60405180910390f35b34801561056157600080fd5b5061057c60048036036105779190810190611625565b610e80565b005b34801561058a57600080fd5b50610593610ec2565b6040516105a091906118e6565b60405180910390f35b3480156105b557600080fd5b506105d060048036036105cb9190810190611625565b610ed5565b6040516105dd919061191c565b60405180910390f35b3480156105f257600080fd5b5061060d6004803603610608919081019061164e565b610eed565b60405161061a91906118a2565b60405180910390f35b34801561062f57600080fd5b5061064a60048036036106459190810190611625565b611024565b60405161065b959493929190611937565b60405180910390f35b34801561067057600080fd5b5061068b600480360361068691908101906115a4565b61108b565b005b34801561069957600080fd5b506106b460048036036106af919081019061168a565b6110aa565b005b3480156106c257600080fd5b506106dd60048036036106d89190810190611625565b611128565b6040516106ee959493929190611937565b60405180910390f35b60086020528060005260406000206000915090505481565b60036020528060005260406000206000915090508060000154908060010154908060020154905083565b8060008090505b600c805490508110156107cb5781600c8281548110151561075d57fe5b906000526020600020015414156107b8576107788584611180565b83600560008781526020019081526020016000208190555060066000858152602001908152602001600020600081548092919060010191905055506107bd565b6107be565b5b8080600101915050610740565b5050505050565b60056020528060005260406000206000915090505481565b600c818154811015156107f957fe5b906000526020600020016000915090505481565b8060008090505b600c805490508110156108755781600c8281548110151561083157fe5b90600052602060002001541415610862576001600060146101000a81548160ff021916908315150217905550610867565b610868565b5b8080600101915050610814565b505050565b60608160008090505b600c805490508110156109a25781600c828154811015156108a057fe5b9060005260206000200154141561098f576060600b805490506040519080825280602002602001820160405280156108f257816020015b6108df6114d8565b8152602001906001900390816108d75790505b509050600080905060008090505b600b8054905081101561098457600b8181548110151561091c57fe5b9060005260206000209060030201606060405190810160405290816000820154815260200160018201548152602001600282015481525050838381518110151561096257fe5b9060200190602002018190525081806001019250508080600101915050610900565b508194505050610994565b610995565b5b8080600101915050610883565b5050919050565b6109b16114fa565b8160006001600083815260200190815260200160002060000154141515156109d857600080fd5b6109e06114fa565b600360008681526020019081526020016000206060604051908101604052908160008201548152602001600182015481526020016002820154815250509050809250505092915050565b826000600160008381526020019081526020016000206000015414151515610a5157600080fd5b60056000848152602001908152602001600020546001600086815260200190815260200160002060010154141515610a8857600080fd5b600060016000868152602001908152602001600020905060018160020160006101000a81548160ff02191690831515021790555042816003018190555083600460008781526020019081526020016000208190555060086000858152602001908152602001600020600081548092919060010191905055508284867faf6151f5085accf2d57e1e7bf7601d3b3982e0de7e9a90f032f8554de9c104f660405160405180910390a45050505050565b600a81815481101515610b4557fe5b906000526020600020016000915090508060000154905081565b60066020528060005260406000206000915090505481565b600060011515600060149054906101000a900460ff161515141515610b9b57600080fd5b816000600160008381526020019081526020016000206000015414151515610bc257600080fd5b6060610bce8585610eed565b9050600080600090505b8251811015610c2157600860008483815181101515610bf357fe5b9060200190602002015160000151815260200190815260200160002054820191508080600101915050610bd8565b5080935050505092915050565b60046020528060005260406000206000915090505481565b60026020528060005260406000206000915090508060000154905081565b610c6c610df0565b1515610c7757600080fd5b600073ffffffffffffffffffffffffffffffffffffffff166000809054906101000a900473ffffffffffffffffffffffffffffffffffffffff1673ffffffffffffffffffffffffffffffffffffffff167f8be0079c531659141344cd1fd0a4f28419497f9722a3daafe3b4186f6b6457e060405160405180910390a360008060006101000a81548173ffffffffffffffffffffffffffffffffffffffff021916908373ffffffffffffffffffffffffffffffffffffffff160217905550565b8060008090505b600c80549050811015610dc05781600c82815481101515610d5a57fe5b90600052602060002001541415610dad5760008090505b85859050811015610da757610d9a8686838181101515610d8d57fe5b9050602002013585611290565b8080600101915050610d71565b50610db2565b610db3565b5b8080600101915050610d3d565b5050505050565b60008060009054906101000a900473ffffffffffffffffffffffffffffffffffffffff16905090565b60008060009054906101000a900473ffffffffffffffffffffffffffffffffffffffff1673ffffffffffffffffffffffffffffffffffffffff163373ffffffffffffffffffffffffffffffffffffffff1614905090565b600b81815481101515610e5657fe5b90600052602060002090600302016000915090508060000154908060010154908060020154905083565b610e88610df0565b1515610e9357600080fd5b600c81908060018154018082558091505090600182039060005260206000200160009091929091909150555050565b600060149054906101000a900460ff1681565b60076020528060005260406000206000915090505481565b6060816000600160008381526020019081526020016000206000015414151515610f1657600080fd5b60606006600086815260200190815260200160002054604051908082528060200260200182016040528015610f6557816020015b610f5261151c565b815260200190600190039081610f4a5790505b509050600080905060008090505b600a80549050811015611017578660056000600a84815481101515610f9457fe5b9060005260206000200160000154815260200190815260200160002054141561100a57600a81815481101515610fc657fe5b90600052602060002001602060405190810160405290816000820154815250508383815181101515610ff457fe5b9060200190602002018190525081806001019250505b8080600101915050610f73565b5081935050505092915050565b60098181548110151561103357fe5b90600052602060002090600502016000915090508060000154908060010154908060020160009054906101000a900460ff16908060030154908060040160206040519081016040529081600082015481525050905085565b611093610df0565b151561109e57600080fd5b6110a7816113de565b50565b8060008090505b600c805490508110156111215781600c828154811015156110ce57fe5b9060005260206000200154141561110e57600060036000878152602001908152602001600020905042816001018190555084816002018190555050611113565b611114565b5b80806001019150506110b1565b5050505050565b60016020528060005260406000206000915090508060000154908060010154908060020160009054906101000a900460ff16908060030154908060040160206040519081016040529081600082015481525050905085565b8060008090505b600c8054905081101561128a5781600c828154811015156111a457fe5b906000526020600020015414156112775760006001600a60206040519081016040528088815250908060018154018082558091505090600182039060005260206000200160009091929091909150600082015181600001555050039050600a8181548110151561121057fe5b9060005260206000200160026000878152602001908152602001600020600082015481600001559050507f43dcee486fabffa2fb551555bfaa5bfcf6a42f2d014032ccef94bf09d83855eb85604051611269919061191c565b60405180910390a15061127c565b61127d565b5b8080600101915050611187565b50505050565b8060008090505b600c805490508110156113d85781600c828154811015156112b457fe5b906000526020600020015414156113c55760006001600b606060405190810160405280888152602001600081526020016000815250908060018154018082558091505090600182039060005260206000209060030201600090919290919091506000820151816000015560208201518160010155604082015181600201555050039050600b8181548110151561134657fe5b9060005260206000209060030201600360008781526020019081526020016000206000820154816000015560018201548160010155600282015481600201559050507f21db1a92fb8efb483c22a581ee7e282b6d79d9d43b559ee1affa341818867969856040516113b7919061191c565b60405180910390a1506113ca565b6113cb565b5b8080600101915050611297565b50505050565b600073ffffffffffffffffffffffffffffffffffffffff168173ffffffffffffffffffffffffffffffffffffffff161415151561141a57600080fd5b8073ffffffffffffffffffffffffffffffffffffffff166000809054906101000a900473ffffffffffffffffffffffffffffffffffffffff1673ffffffffffffffffffffffffffffffffffffffff167f8be0079c531659141344cd1fd0a4f28419497f9722a3daafe3b4186f6b6457e060405160405180910390a3806000806101000a81548173ffffffffffffffffffffffffffffffffffffffff021916908373ffffffffffffffffffffffffffffffffffffffff16021790555050565b6060604051908101604052806000815260200160008152602001600081525090565b6060604051908101604052806000815260200160008152602001600081525090565b602060405190810160405280600081525090565b600061153c8235611a7e565b905092915050565b60008083601f840112151561155857600080fd5b8235905067ffffffffffffffff81111561157157600080fd5b60208301915083602082028301111561158957600080fd5b9250929050565b600061159c8235611a90565b905092915050565b6000602082840312156115b657600080fd5b60006115c484828501611530565b91505092915050565b6000806000604084860312156115e257600080fd5b600084013567ffffffffffffffff8111156115fc57600080fd5b61160886828701611544565b9350935050602061161b86828701611590565b9150509250925092565b60006020828403121561163757600080fd5b600061164584828501611590565b91505092915050565b6000806040838503121561166157600080fd5b600061166f85828601611590565b925050602061168085828601611590565b9150509250929050565b60008060006060848603121561169f57600080fd5b60006116ad86828701611590565b93505060206116be86828701611590565b92505060406116cf86828701611590565b9150509250925092565b6116e281611a26565b82525050565b60006116f3826119f6565b808452602084019350611705836119dc565b60005b828110156117375761171b8683516117ad565b61172482611a0c565b9150602086019550600181019050611708565b50849250505092915050565b600061174e82611a01565b808452602084019350611760836119e9565b60005b828110156117925761177686835161180b565b61177f82611a19565b9150606086019550600181019050611763565b50849250505092915050565b6117a781611a38565b82525050565b6020820160008201516117c36000850182611869565b50505050565b6060820160008201516117df6000850182611869565b5060208201516117f26020850182611869565b5060408201516118056040850182611869565b50505050565b6060820160008201516118216000850182611869565b5060208201516118346020850182611869565b5060408201516118476040850182611869565b50505050565b6020820160008201516118636000850182611869565b50505050565b61187281611a64565b82525050565b61188181611a6e565b82525050565b600060208201905061189c60008301846116d9565b92915050565b600060208201905081810360008301526118bc81846116e8565b905092915050565b600060208201905081810360008301526118de8184611743565b905092915050565b60006020820190506118fb600083018461179e565b92915050565b600060608201905061191660008301846117c9565b92915050565b60006020820190506119316000830184611869565b92915050565b600060a08201905061194c6000830188611869565b6119596020830187611869565b611966604083018661179e565b6119736060830185611869565b611980608083018461184d565b9695505050505050565b600060608201905061199f6000830186611869565b6119ac6020830185611869565b6119b96040830184611869565b949350505050565b60006020820190506119d66000830184611878565b92915050565b6000602082019050919050565b6000602082019050919050565b600081519050919050565b600081519050919050565b6000602082019050919050565b6000602082019050919050565b6000611a3182611a44565b9050919050565b60008115159050919050565b600073ffffffffffffffffffffffffffffffffffffffff82169050919050565b6000819050919050565b600063ffffffff82169050919050565b6000611a8982611a44565b9050919050565b600081905091905056fea265627a7a723058200e7184d090d7461f175b1caff332c5b1db4bd120848ea8e1544f79e7e2cef6806c6578706572696d656e74616cf50037",
  "source": "pragma solidity ^0.5.0;\npragma experimental ABIEncoderV2;\n\nimport \"./VotingTransactions.sol\";\n\ncontract ResultHelper is VotingTransactions{\n\n    function declareResults(uint256 _adminId) external onlyAdmin(_adminId) {\n        ResultsDeclared = true;\n    }\n\n    function retreiveConstituencyVoteCount(uint256 _constituencyId, uint256 _userId) external view declaredResults onlyUser(_userId) returns(uint32) {\n        Candidate[] memory _candidates = getCandidatesByConstituency(_constituencyId,_userId);\n        uint32 _votes;\n        for (uint i = 0; i < _candidates.length; i++) {\n            _votes = _votes + uint32(candidateVoteCount[_candidates[i]._id]);\n        }\n\n        return _votes;\n    }\n}",
  "sourcePath": "/home/d3mon/Projects/sudo-rm--rf/contracts/ResultHelper.sol",
  "compiler": {
    "name": "solc",
    "version": "0.5.0+commit.1d4f565a.Emscripten.clang"
  },
  "schemaVersion": "3.0.2",
  "updatedAt": "2020-02-06T16:35:32.876Z",
  "devdoc": {
    "methods": {
      "isOwner()": {
        "return": "true if `msg.sender` is the owner of the contract."
      },
      "owner()": {
        "return": "the address of the owner."
      },
      "renounceOwnership()": {
        "details": "Allows the current owner to relinquish control of the contract."
      },
      "transferOwnership(address)": {
        "details": "Allows the current owner to transfer control of the contract to a newOwner.",
        "params": {
          "newOwner": "The address to transfer ownership to."
        }
      }
    }
  },
  "userdoc": {
    "methods": {
      "renounceOwnership()": {
        "notice": "Renouncing to ownership will leave the contract without an owner. It will not be possible to call the functions with the `onlyOwner` modifier anymore."
      }
    }
  }
}