{
  "contractName": "ResultHelper",
  "abi": [
    {
      "constant": false,
      "inputs": [
        {
          "name": "_id",
          "type": "uint256"
        },
        {
          "name": "_constituencyId",
          "type": "uint256"
        },
        {
          "name": "_adminId",
          "type": "uint256"
        }
      ],
      "name": "assignCandidateToConstituency",
      "outputs": [],
      "payable": false,
      "stateMutability": "nonpayable",
      "type": "function"
    },
    {
      "constant": true,
      "inputs": [
        {
          "name": "",
          "type": "uint256"
        }
      ],
      "name": "admins",
      "outputs": [
        {
          "name": "",
          "type": "uint256"
        }
      ],
      "payable": false,
      "stateMutability": "view",
      "type": "function"
    },
    {
      "constant": false,
      "inputs": [
        {
          "name": "_adminId",
          "type": "uint256"
        }
      ],
      "name": "getConstituencies",
      "outputs": [
        {
          "components": [
            {
              "name": "_id",
              "type": "uint256"
            },
            {
              "name": "_startTime",
              "type": "uint256"
            },
            {
              "name": "_duration",
              "type": "uint256"
            }
          ],
          "name": "",
          "type": "tuple[]"
        }
      ],
      "payable": false,
      "stateMutability": "nonpayable",
      "type": "function"
    },
    {
      "constant": false,
      "inputs": [
        {
          "name": "_id",
          "type": "uint256"
        },
        {
          "name": "_userId",
          "type": "uint256"
        }
      ],
      "name": "getConstituencyDetails",
      "outputs": [
        {
          "components": [
            {
              "name": "_id",
              "type": "uint256"
            },
            {
              "name": "_startTime",
              "type": "uint256"
            },
            {
              "name": "_duration",
              "type": "uint256"
            }
          ],
          "name": "",
          "type": "tuple"
        }
      ],
      "payable": false,
      "stateMutability": "nonpayable",
      "type": "function"
    },
    {
      "constant": true,
      "inputs": [
        {
          "name": "",
          "type": "uint256"
        }
      ],
      "name": "candidates",
      "outputs": [
        {
          "name": "_id",
          "type": "uint256"
        }
      ],
      "payable": false,
      "stateMutability": "view",
      "type": "function"
    },
    {
      "constant": false,
      "inputs": [
        {
          "name": "_id",
          "type": "uint256"
        },
        {
          "name": "_adminId",
          "type": "uint256"
        }
      ],
      "name": "registerConstituency",
      "outputs": [],
      "payable": false,
      "stateMutability": "nonpayable",
      "type": "function"
    },
    {
      "constant": false,
      "inputs": [
        {
          "name": "from",
          "type": "uint256"
        },
        {
          "name": "to",
          "type": "uint256"
        },
        {
          "name": "tokenId",
          "type": "bytes32"
        }
      ],
      "name": "transferFrom",
      "outputs": [],
      "payable": false,
      "stateMutability": "nonpayable",
      "type": "function"
    },
    {
      "constant": false,
      "inputs": [
        {
          "name": "_id",
          "type": "uint256"
        },
        {
          "name": "_adminId",
          "type": "uint256"
        }
      ],
      "name": "registerCandidate",
      "outputs": [],
      "payable": false,
      "stateMutability": "nonpayable",
      "type": "function"
    },
    {
      "constant": false,
      "inputs": [],
      "name": "renounceOwnership",
      "outputs": [],
      "payable": false,
      "stateMutability": "nonpayable",
      "type": "function"
    },
    {
      "constant": true,
      "inputs": [],
      "name": "owner",
      "outputs": [
        {
          "name": "",
          "type": "address"
        }
      ],
      "payable": false,
      "stateMutability": "view",
      "type": "function"
    },
    {
      "constant": true,
      "inputs": [],
      "name": "isOwner",
      "outputs": [
        {
          "name": "",
          "type": "bool"
        }
      ],
      "payable": false,
      "stateMutability": "view",
      "type": "function"
    },
    {
      "constant": true,
      "inputs": [
        {
          "name": "",
          "type": "uint256"
        }
      ],
      "name": "constituencies",
      "outputs": [
        {
          "name": "_id",
          "type": "uint256"
        },
        {
          "name": "_startTime",
          "type": "uint256"
        },
        {
          "name": "_duration",
          "type": "uint256"
        }
      ],
      "payable": false,
      "stateMutability": "view",
      "type": "function"
    },
    {
      "constant": false,
      "inputs": [
        {
          "name": "_id",
          "type": "uint256"
        }
      ],
      "name": "registerAdmin",
      "outputs": [],
      "payable": false,
      "stateMutability": "nonpayable",
      "type": "function"
    },
    {
      "constant": true,
      "inputs": [
        {
          "name": "_constituencyId",
          "type": "uint256"
        },
        {
          "name": "_userId",
          "type": "uint256"
        }
      ],
      "name": "getCandidatesByConstituency",
      "outputs": [
        {
          "components": [
            {
              "name": "_id",
              "type": "uint256"
            }
          ],
          "name": "",
          "type": "tuple[]"
        }
      ],
      "payable": false,
      "stateMutability": "view",
      "type": "function"
    },
    {
      "constant": true,
      "inputs": [
        {
          "name": "",
          "type": "uint256"
        }
      ],
      "name": "voters",
      "outputs": [
        {
          "name": "_id",
          "type": "uint256"
        },
        {
          "name": "_constituencyId",
          "type": "uint256"
        },
        {
          "name": "_hasVoted",
          "type": "bool"
        },
        {
          "components": [
            {
              "name": "_voteId",
              "type": "bytes32"
            },
            {
              "name": "_votedId",
              "type": "uint256"
            },
            {
              "name": "_voteTime",
              "type": "uint64"
            }
          ],
          "name": "_vote",
          "type": "tuple"
        }
      ],
      "payable": false,
      "stateMutability": "view",
      "type": "function"
    },
    {
      "constant": false,
      "inputs": [
        {
          "name": "newOwner",
          "type": "address"
        }
      ],
      "name": "transferOwnership",
      "outputs": [],
      "payable": false,
      "stateMutability": "nonpayable",
      "type": "function"
    },
    {
      "constant": false,
      "inputs": [
        {
          "name": "_id",
          "type": "uint256"
        },
        {
          "name": "_duration",
          "type": "uint256"
        },
        {
          "name": "_adminId",
          "type": "uint256"
        }
      ],
      "name": "generateElectionforConstituency",
      "outputs": [],
      "payable": false,
      "stateMutability": "nonpayable",
      "type": "function"
    },
    {
      "anonymous": false,
      "inputs": [
        {
          "indexed": true,
          "name": "_from",
          "type": "uint256"
        },
        {
          "indexed": true,
          "name": "_to",
          "type": "uint256"
        },
        {
          "indexed": true,
          "name": "_tokenId",
          "type": "bytes32"
        }
      ],
      "name": "Transfer",
      "type": "event"
    },
    {
      "anonymous": false,
      "inputs": [
        {
          "indexed": false,
          "name": "_id",
          "type": "uint256"
        },
        {
          "indexed": false,
          "name": "_voterId",
          "type": "uint256"
        }
      ],
      "name": "VoterCreated",
      "type": "event"
    },
    {
      "anonymous": false,
      "inputs": [
        {
          "indexed": false,
          "name": "_id",
          "type": "uint256"
        }
      ],
      "name": "CandidateRegistered",
      "type": "event"
    },
    {
      "anonymous": false,
      "inputs": [
        {
          "indexed": false,
          "name": "_id",
          "type": "uint256"
        }
      ],
      "name": "ConstituencyRegistered",
      "type": "event"
    },
    {
      "anonymous": false,
      "inputs": [
        {
          "indexed": true,
          "name": "previousOwner",
          "type": "address"
        },
        {
          "indexed": true,
          "name": "newOwner",
          "type": "address"
        }
      ],
      "name": "OwnershipTransferred",
      "type": "event"
    },
    {
      "constant": false,
      "inputs": [
        {
          "name": "_adminId",
          "type": "uint256"
        }
      ],
      "name": "declareResults",
      "outputs": [],
      "payable": false,
      "stateMutability": "nonpayable",
      "type": "function"
    },
    {
      "constant": true,
      "inputs": [
        {
          "name": "_constituencyId",
          "type": "uint256"
        },
        {
          "name": "_userId",
          "type": "uint256"
        }
      ],
      "name": "retreiveConstituencyVoteCount",
      "outputs": [
        {
          "name": "",
          "type": "uint32"
        }
      ],
      "payable": false,
      "stateMutability": "view",
      "type": "function"
    }
  ],
  "bytecode": "0x608060405260405180606001604052806000801b815260200160008152602001600067ffffffffffffffff168152506001600082015181600001556020820151816001015560408201518160020160006101000a81548167ffffffffffffffff021916908367ffffffffffffffff16021790555050506000600460006101000a81548160ff021916908315150217905550336000806101000a81548173ffffffffffffffffffffffffffffffffffffffff021916908373ffffffffffffffffffffffffffffffffffffffff1602179055506000809054906101000a900473ffffffffffffffffffffffffffffffffffffffff1673ffffffffffffffffffffffffffffffffffffffff16600073ffffffffffffffffffffffffffffffffffffffff167f8be0079c531659141344cd1fd0a4f28419497f9722a3daafe3b4186f6b6457e060405160405180910390a361171e8061015b6000396000f3fe608060405234801561001057600080fd5b50600436106101215760003560e01c80635d6e5052116100ad5780639484525411610071578063948452541461031a578063bbc893a314610336578063da58c7d914610366578063f2fde38b14610399578063f7590065146103b557610121565b80635d6e505214610286578063715018a6146102a25780638da5cb5b146102ac5780638f32d59b146102ca5780639209416a146102e857610121565b80632fd23a3f116100f45780632fd23a3f146101be5780633477ee2e146101ee5780633acab52f1461021e5780633ba8b3ff1461023a57806345dc9ad71461025657610121565b806312d51c721461012657806314bfd6d01461014257806323dc5c6e14610172578063289752101461018e575b600080fd5b610140600480360361013b91908101906111f0565b6103d1565b005b61015c6004803603610157919081019061113c565b61045e565b604051610169919061150b565b60405180910390f35b61018c6004803603610187919081019061113c565b61047f565b005b6101a860048036036101a3919081019061113c565b6104ea565b6040516101b591906114b3565b60405180910390f35b6101d860048036036101d39190810190611165565b6105b6565b6040516101e591906114f0565b60405180910390f35b6102086004803603610203919081019061113c565b610634565b604051610215919061150b565b60405180910390f35b61023860048036036102339190810190611165565b61065b565b005b610254600480360361024f91908101906111a1565b6107a4565b005b610270600480360361026b9190810190611165565b610939565b60405161027d91906115a2565b60405180910390f35b6102a0600480360361029b9190810190611165565b6109e8565b005b6102aa610af3565b005b6102b4610bc3565b6040516102c19190611476565b60405180910390f35b6102d2610bec565b6040516102df91906114d5565b60405180910390f35b61030260048036036102fd919081019061113c565b610c43565b6040516103119392919061156b565b60405180910390f35b610334600480360361032f919081019061113c565b610c7a565b005b610350600480360361034b9190810190611165565b610cba565b60405161035d9190611491565b60405180910390f35b610380600480360361037b919081019061113c565b610de6565b6040516103909493929190611526565b60405180910390f35b6103b360048036036103ae9190810190611113565b610e80565b005b6103cf60048036036103ca91908101906111f0565b610e9d565b005b8060008090505b600f805490508110156104575781600f82815481106103f357fe5b9060005260206000200154141561044457836009600087815260200190815260200160002081905550600a600085815260200190815260200160002060008154809291906001019190505550610449565b61044a565b5b80806001019150506103d8565b5050505050565b600f818154811061046b57fe5b906000526020600020016000915090505481565b8060008090505b600f805490508110156104e55781600f82815481106104a157fe5b906000526020600020015414156104d2576001600460006101000a81548160ff0219169083151502179055506104d7565b6104d8565b5b8080600101915050610486565b505050565b60608160008090505b600f805490508110156105af5781600f828154811061050e57fe5b9060005260206000200154141561059c57600e805480602002602001604051908101604052809291908181526020016000905b828210156105915783829060005260206000209060030201604051806060016040529081600082015481526020016001820154815260200160028201548152505081526020019060010190610541565b5050505092506105a1565b6105a2565b5b80806001019150506104f3565b5050919050565b6105be611042565b816000600560008381526020019081526020016000206000015414156105e357600080fd5b6105eb611042565b6007600086815260200190815260200160002060405180606001604052908160008201548152602001600182015481526020016002820154815250509050809250505092915050565b600d818154811061064157fe5b906000526020600020016000915090508060000154905081565b8060008090505b600f8054905081101561079e5781600f828154811061067d57fe5b9060005260206000200154141561078b5760006001600e6040518060600160405280888152602001600081526020016000815250908060018154018082558091505090600182039060005260206000209060030201600090919290919091506000820151816000015560208201518160010155604082015181600201555050039050600e818154811061070c57fe5b9060005260206000209060030201600760008781526020019081526020016000206000820154816000015560018201548160010155600282015481600201559050507f21db1a92fb8efb483c22a581ee7e282b6d79d9d43b559ee1affa3418188679698560405161077d919061150b565b60405180910390a150610790565b610791565b5b8080600101915050610662565b50505050565b826000600560008381526020019081526020016000206000015414156107c957600080fd5b60096000848152602001908152602001600020546005600086815260200190815260200160002060010154146107fe57600080fd5b610806611063565b6005600086815260200190815260200160002060405180608001604052908160008201548152602001600182015481526020016002820160009054906101000a900460ff161515151581526020016003820160405180606001604052908160008201548152602001600182015481526020016002820160009054906101000a900467ffffffffffffffff1667ffffffffffffffff1667ffffffffffffffff168152505081525050905060018160400190151590811515815250508360086000836060015160000151815260200190815260200160002081905550600b6000858152602001908152602001600020600081548092919060010191905055508284867f612c500cbd8f1ed8a4643cbf6b41fda92203645d7e4f7c3a237a1be69565ea2c60405160405180910390a45050505050565b600060011515600460009054906101000a900460ff1615151461095b57600080fd5b8160006005600083815260200190815260200160002060000154141561098057600080fd5b606061098c8585610cba565b9050600080600090505b82518110156109db57600b60008483815181106109af57fe5b602002602001015160000151815260200190815260200160002054820191508080600101915050610996565b5080935050505092915050565b8060008090505b600f80549050811015610aed5781600f8281548110610a0a57fe5b90600052602060002001541415610ada5760006001600d604051806020016040528088815250908060018154018082558091505090600182039060005260206000200160009091929091909150600082015181600001555050039050600d8181548110610a7357fe5b9060005260206000200160066000878152602001908152602001600020600082015481600001559050507f43dcee486fabffa2fb551555bfaa5bfcf6a42f2d014032ccef94bf09d83855eb85604051610acc919061150b565b60405180910390a150610adf565b610ae0565b5b80806001019150506109ef565b50505050565b610afb610bec565b610b0457600080fd5b600073ffffffffffffffffffffffffffffffffffffffff166000809054906101000a900473ffffffffffffffffffffffffffffffffffffffff1673ffffffffffffffffffffffffffffffffffffffff167f8be0079c531659141344cd1fd0a4f28419497f9722a3daafe3b4186f6b6457e060405160405180910390a360008060006101000a81548173ffffffffffffffffffffffffffffffffffffffff021916908373ffffffffffffffffffffffffffffffffffffffff160217905550565b60008060009054906101000a900473ffffffffffffffffffffffffffffffffffffffff16905090565b60008060009054906101000a900473ffffffffffffffffffffffffffffffffffffffff1673ffffffffffffffffffffffffffffffffffffffff163373ffffffffffffffffffffffffffffffffffffffff1614905090565b600e8181548110610c5057fe5b90600052602060002090600302016000915090508060000154908060010154908060020154905083565b610c82610bec565b610c8b57600080fd5b600f81908060018154018082558091505090600182039060005260206000200160009091929091909150555050565b606081600060056000838152602001908152602001600020600001541415610ce157600080fd5b6060600a600086815260200190815260200160002054604051908082528060200260200182016040528015610d3057816020015b610d1d611093565b815260200190600190039081610d155790505b509050600080905060008090505b600d80549050811015610dd9578660096000600d8481548110610d5d57fe5b90600052602060002001600001548152602001908152602001600020541415610dcc57600d8181548110610d8d57fe5b90600052602060002001604051806020016040529081600082015481525050838381518110610db857fe5b602002602001018190525081806001019250505b8080600101915050610d3e565b5081935050505092915050565b600c8181548110610df357fe5b90600052602060002090600602016000915090508060000154908060010154908060020160009054906101000a900460ff16908060030160405180606001604052908160008201548152602001600182015481526020016002820160009054906101000a900467ffffffffffffffff1667ffffffffffffffff1667ffffffffffffffff1681525050905084565b610e88610bec565b610e9157600080fd5b610e9a81610f4a565b50565b8060008090505b600f80549050811015610f435781600f8281548110610ebf57fe5b90600052602060002001541415610f3057610ed8611042565b6007600087815260200190815260200160002060405180606001604052908160008201548152602001600182015481526020016002820154815250509050428160200181815250508481604001818152505050610f35565b610f36565b5b8080600101915050610ea4565b5050505050565b600073ffffffffffffffffffffffffffffffffffffffff168173ffffffffffffffffffffffffffffffffffffffff161415610f8457600080fd5b8073ffffffffffffffffffffffffffffffffffffffff166000809054906101000a900473ffffffffffffffffffffffffffffffffffffffff1673ffffffffffffffffffffffffffffffffffffffff167f8be0079c531659141344cd1fd0a4f28419497f9722a3daafe3b4186f6b6457e060405160405180910390a3806000806101000a81548173ffffffffffffffffffffffffffffffffffffffff021916908373ffffffffffffffffffffffffffffffffffffffff16021790555050565b60405180606001604052806000815260200160008152602001600081525090565b6040518060c00160405280600081526020016000815260200160001515815260200161108d6110a6565b81525090565b6040518060200160405280600081525090565b60405180606001604052806000801916815260200160008152602001600067ffffffffffffffff1681525090565b6000813590506110e38161169f565b92915050565b6000813590506110f8816116b6565b92915050565b60008135905061110d816116cd565b92915050565b60006020828403121561112557600080fd5b6000611133848285016110d4565b91505092915050565b60006020828403121561114e57600080fd5b600061115c848285016110fe565b91505092915050565b6000806040838503121561117857600080fd5b6000611186858286016110fe565b9250506020611197858286016110fe565b9150509250929050565b6000806000606084860312156111b657600080fd5b60006111c4868287016110fe565b93505060206111d5868287016110fe565b92505060406111e6868287016110e9565b9150509250925092565b60008060006060848603121561120557600080fd5b6000611213868287016110fe565b9350506020611224868287016110fe565b9250506040611235868287016110fe565b9150509250925092565b600061124b8383611358565b60208301905092915050565b600061126383836113b6565b60608301905092915050565b61127881611629565b82525050565b6000611289826115d7565b6112938185611607565b935061129e836115bd565b8060005b838110156112cf5781516112b6888261123f565b97506112c1836115ed565b9250506001810190506112a2565b5085935050505092915050565b60006112e7826115e2565b6112f18185611618565b93506112fc836115ca565b8060005b8381101561132d5781516113148882611257565b975061131f836115fa565b925050600181019050611300565b5085935050505092915050565b6113438161163b565b82525050565b61135281611647565b82525050565b60208201600082015161136e600085018261143a565b50505050565b60608201600082015161138a600085018261143a565b50602082015161139d602085018261143a565b5060408201516113b0604085018261143a565b50505050565b6060820160008201516113cc600085018261143a565b5060208201516113df602085018261143a565b5060408201516113f2604085018261143a565b50505050565b60608201600082015161140e6000850182611349565b506020820151611421602085018261143a565b5060408201516114346040850182611467565b50505050565b61144381611671565b82525050565b61145281611671565b82525050565b6114618161167b565b82525050565b6114708161168b565b82525050565b600060208201905061148b600083018461126f565b92915050565b600060208201905081810360008301526114ab818461127e565b905092915050565b600060208201905081810360008301526114cd81846112dc565b905092915050565b60006020820190506114ea600083018461133a565b92915050565b60006060820190506115056000830184611374565b92915050565b60006020820190506115206000830184611449565b92915050565b600060c08201905061153b6000830187611449565b6115486020830186611449565b611555604083018561133a565b61156260608301846113f8565b95945050505050565b60006060820190506115806000830186611449565b61158d6020830185611449565b61159a6040830184611449565b949350505050565b60006020820190506115b76000830184611458565b92915050565b6000602082019050919050565b6000602082019050919050565b600081519050919050565b600081519050919050565b6000602082019050919050565b6000602082019050919050565b600082825260208201905092915050565b600082825260208201905092915050565b600061163482611651565b9050919050565b60008115159050919050565b6000819050919050565b600073ffffffffffffffffffffffffffffffffffffffff82169050919050565b6000819050919050565b600063ffffffff82169050919050565b600067ffffffffffffffff82169050919050565b6116a881611629565b81146116b357600080fd5b50565b6116bf81611647565b81146116ca57600080fd5b50565b6116d681611671565b81146116e157600080fd5b5056fea265627a7a72305820a91a6b043ccd721bb3bf53324e6d9ba40a4cf391805fb69d4f3ddb24d7a31a926c6578706572696d656e74616cf50037",
  "source": "pragma solidity ^0.5.0;\npragma experimental ABIEncoderV2;\n\nimport \"./VotingTransactions.sol\";\n\ncontract ResultHelper is VotingTransactions{\n\n    function declareResults(uint256 _adminId) external onlyAdmin(_adminId) {\n        ResultsDeclared = true;\n    }\n\n    function retreiveConstituencyVoteCount(uint256 _constituencyId, uint256 _userId) external view declaredResults onlyUser(_userId) returns(uint32) {\n        Candidate[] memory _candidates = getCandidatesByConstituency(_constituencyId,_userId);\n        uint32 _votes;\n        for (uint i = 0; i < _candidates.length; i++) {\n            _votes = _votes + uint32(candidateVoteCount[_candidates[i]._id]);\n        }\n\n        return _votes;\n    }\n}",
  "sourcePath": "/home/d3mon/Projects/sudo-rm--rf/contracts/ResultHelper.sol",
  "compiler": {
    "name": "solc",
    "version": "0.5.8+commit.23d335f2.Emscripten.clang"
  },
  "schemaVersion": "3.0.11",
  "updatedAt": "2019-08-20T22:01:51.365Z",
  "devdoc": {
    "methods": {
      "isOwner()": {
        "return": "true if `msg.sender` is the owner of the contract."
      },
      "owner()": {
        "return": "the address of the owner."
      },
      "renounceOwnership()": {
        "details": "Allows the current owner to relinquish control of the contract."
      },
      "transferOwnership(address)": {
        "details": "Allows the current owner to transfer control of the contract to a newOwner.",
        "params": {
          "newOwner": "The address to transfer ownership to."
        }
      }
    }
  },
  "userdoc": {
    "methods": {
      "renounceOwnership()": {
        "notice": "Renouncing to ownership will leave the contract without an owner. It will not be possible to call the functions with the `onlyOwner` modifier anymore."
      }
    }
  }
}