{
  "contractName": "ResultHelper",
  "abi": [
    {
      "constant": true,
      "inputs": [
        {
          "name": "",
          "type": "uint256"
        }
      ],
      "name": "candidateVoteCount",
      "outputs": [
        {
          "name": "",
          "type": "uint256"
        }
      ],
      "payable": false,
      "stateMutability": "view",
      "type": "function"
    },
    {
      "constant": true,
      "inputs": [
        {
          "name": "",
          "type": "uint256"
        }
      ],
      "name": "idToConstituency",
      "outputs": [
        {
          "name": "_id",
          "type": "uint256"
        },
        {
          "name": "_startTime",
          "type": "uint256"
        },
        {
          "name": "_duration",
          "type": "uint256"
        }
      ],
      "payable": false,
      "stateMutability": "view",
      "type": "function"
    },
    {
      "constant": false,
      "inputs": [
        {
          "name": "_id",
          "type": "uint256"
        },
        {
          "name": "_constituencyId",
          "type": "uint256"
        },
        {
          "name": "_adminId",
          "type": "uint256"
        }
      ],
      "name": "assignCandidateToConstituency",
      "outputs": [],
      "payable": false,
      "stateMutability": "nonpayable",
      "type": "function"
    },
    {
      "constant": true,
      "inputs": [
        {
          "name": "",
          "type": "uint256"
        }
      ],
      "name": "candidateToConstituency",
      "outputs": [
        {
          "name": "",
          "type": "uint256"
        }
      ],
      "payable": false,
      "stateMutability": "view",
      "type": "function"
    },
    {
      "constant": true,
      "inputs": [
        {
          "name": "",
          "type": "uint256"
        }
      ],
      "name": "admins",
      "outputs": [
        {
          "name": "",
          "type": "uint256"
        }
      ],
      "payable": false,
      "stateMutability": "view",
      "type": "function"
    },
    {
      "constant": false,
      "inputs": [
        {
          "name": "_adminId",
          "type": "uint256"
        }
      ],
      "name": "getConstituencies",
      "outputs": [
        {
          "components": [
            {
              "name": "_id",
              "type": "uint256"
            },
            {
              "name": "_startTime",
              "type": "uint256"
            },
            {
              "name": "_duration",
              "type": "uint256"
            }
          ],
          "name": "",
          "type": "tuple[]"
        }
      ],
      "payable": false,
      "stateMutability": "nonpayable",
      "type": "function"
    },
    {
      "constant": false,
      "inputs": [
        {
          "name": "_id",
          "type": "uint256"
        },
        {
          "name": "_userId",
          "type": "uint256"
        }
      ],
      "name": "getConstituencyDetails",
      "outputs": [
        {
          "components": [
            {
              "name": "_id",
              "type": "uint256"
            },
            {
              "name": "_startTime",
              "type": "uint256"
            },
            {
              "name": "_duration",
              "type": "uint256"
            }
          ],
          "name": "",
          "type": "tuple"
        }
      ],
      "payable": false,
      "stateMutability": "nonpayable",
      "type": "function"
    },
    {
      "constant": true,
      "inputs": [
        {
          "name": "",
          "type": "uint256"
        }
      ],
      "name": "candidates",
      "outputs": [
        {
          "name": "_id",
          "type": "uint256"
        }
      ],
      "payable": false,
      "stateMutability": "view",
      "type": "function"
    },
    {
      "constant": false,
      "inputs": [
        {
          "name": "_id",
          "type": "uint256"
        },
        {
          "name": "_adminId",
          "type": "uint256"
        }
      ],
      "name": "registerConstituency",
      "outputs": [],
      "payable": false,
      "stateMutability": "nonpayable",
      "type": "function"
    },
    {
      "constant": true,
      "inputs": [
        {
          "name": "",
          "type": "uint256"
        }
      ],
      "name": "constituencyCandidateCount",
      "outputs": [
        {
          "name": "",
          "type": "uint256"
        }
      ],
      "payable": false,
      "stateMutability": "view",
      "type": "function"
    },
    {
      "constant": false,
      "inputs": [
        {
          "name": "from",
          "type": "uint256"
        },
        {
          "name": "to",
          "type": "uint256"
        },
        {
          "name": "tokenId",
          "type": "bytes32"
        }
      ],
      "name": "transferFrom",
      "outputs": [],
      "payable": false,
      "stateMutability": "nonpayable",
      "type": "function"
    },
    {
      "constant": true,
      "inputs": [
        {
          "name": "",
          "type": "uint256"
        }
      ],
      "name": "voteToCandidate",
      "outputs": [
        {
          "name": "",
          "type": "uint256"
        }
      ],
      "payable": false,
      "stateMutability": "view",
      "type": "function"
    },
    {
      "constant": true,
      "inputs": [
        {
          "name": "",
          "type": "uint256"
        }
      ],
      "name": "idToCandidate",
      "outputs": [
        {
          "name": "_id",
          "type": "uint256"
        }
      ],
      "payable": false,
      "stateMutability": "view",
      "type": "function"
    },
    {
      "constant": false,
      "inputs": [
        {
          "name": "_id",
          "type": "uint256"
        },
        {
          "name": "_adminId",
          "type": "uint256"
        }
      ],
      "name": "registerCandidate",
      "outputs": [],
      "payable": false,
      "stateMutability": "nonpayable",
      "type": "function"
    },
    {
      "constant": false,
      "inputs": [],
      "name": "renounceOwnership",
      "outputs": [],
      "payable": false,
      "stateMutability": "nonpayable",
      "type": "function"
    },
    {
      "constant": true,
      "inputs": [],
      "name": "owner",
      "outputs": [
        {
          "name": "",
          "type": "address"
        }
      ],
      "payable": false,
      "stateMutability": "view",
      "type": "function"
    },
    {
      "constant": true,
      "inputs": [],
      "name": "isOwner",
      "outputs": [
        {
          "name": "",
          "type": "bool"
        }
      ],
      "payable": false,
      "stateMutability": "view",
      "type": "function"
    },
    {
      "constant": true,
      "inputs": [
        {
          "name": "",
          "type": "uint256"
        }
      ],
      "name": "constituencies",
      "outputs": [
        {
          "name": "_id",
          "type": "uint256"
        },
        {
          "name": "_startTime",
          "type": "uint256"
        },
        {
          "name": "_duration",
          "type": "uint256"
        }
      ],
      "payable": false,
      "stateMutability": "view",
      "type": "function"
    },
    {
      "constant": false,
      "inputs": [
        {
          "name": "_id",
          "type": "uint256"
        }
      ],
      "name": "registerAdmin",
      "outputs": [],
      "payable": false,
      "stateMutability": "nonpayable",
      "type": "function"
    },
    {
      "constant": true,
      "inputs": [
        {
          "name": "_constituencyId",
          "type": "uint256"
        },
        {
          "name": "_userId",
          "type": "uint256"
        }
      ],
      "name": "getCandidatesByConstituency",
      "outputs": [
        {
          "components": [
            {
              "name": "_id",
              "type": "uint256"
            }
          ],
          "name": "",
          "type": "tuple[]"
        }
      ],
      "payable": false,
      "stateMutability": "view",
      "type": "function"
    },
    {
      "constant": true,
      "inputs": [
        {
          "name": "",
          "type": "uint256"
        }
      ],
      "name": "voters",
      "outputs": [
        {
          "name": "_id",
          "type": "uint256"
        },
        {
          "name": "_constituencyId",
          "type": "uint256"
        },
        {
          "name": "_hasVoted",
          "type": "bool"
        },
        {
          "components": [
            {
              "name": "_voteId",
              "type": "uint256"
            },
            {
              "name": "_votedId",
              "type": "uint256"
            },
            {
              "name": "_voteTime",
              "type": "uint64"
            }
          ],
          "name": "_vote",
          "type": "tuple"
        }
      ],
      "payable": false,
      "stateMutability": "view",
      "type": "function"
    },
    {
      "constant": false,
      "inputs": [
        {
          "name": "newOwner",
          "type": "address"
        }
      ],
      "name": "transferOwnership",
      "outputs": [],
      "payable": false,
      "stateMutability": "nonpayable",
      "type": "function"
    },
    {
      "constant": false,
      "inputs": [
        {
          "name": "_id",
          "type": "uint256"
        },
        {
          "name": "_duration",
          "type": "uint256"
        },
        {
          "name": "_adminId",
          "type": "uint256"
        }
      ],
      "name": "generateElectionforConstituency",
      "outputs": [],
      "payable": false,
      "stateMutability": "nonpayable",
      "type": "function"
    },
    {
      "constant": true,
      "inputs": [
        {
          "name": "",
          "type": "uint256"
        }
      ],
      "name": "idToVoter",
      "outputs": [
        {
          "name": "_id",
          "type": "uint256"
        },
        {
          "name": "_constituencyId",
          "type": "uint256"
        },
        {
          "name": "_hasVoted",
          "type": "bool"
        },
        {
          "components": [
            {
              "name": "_voteId",
              "type": "uint256"
            },
            {
              "name": "_votedId",
              "type": "uint256"
            },
            {
              "name": "_voteTime",
              "type": "uint64"
            }
          ],
          "name": "_vote",
          "type": "tuple"
        }
      ],
      "payable": false,
      "stateMutability": "view",
      "type": "function"
    },
    {
      "anonymous": false,
      "inputs": [
        {
          "indexed": true,
          "name": "_from",
          "type": "uint256"
        },
        {
          "indexed": true,
          "name": "_to",
          "type": "uint256"
        },
        {
          "indexed": true,
          "name": "_tokenId",
          "type": "bytes32"
        }
      ],
      "name": "Transfer",
      "type": "event"
    },
    {
      "anonymous": false,
      "inputs": [
        {
          "indexed": false,
          "name": "_id",
          "type": "uint256"
        },
        {
          "indexed": false,
          "name": "_constituencyId",
          "type": "uint256"
        }
      ],
      "name": "VoterCreated",
      "type": "event"
    },
    {
      "anonymous": false,
      "inputs": [
        {
          "indexed": false,
          "name": "_id",
          "type": "uint256"
        }
      ],
      "name": "CandidateRegistered",
      "type": "event"
    },
    {
      "anonymous": false,
      "inputs": [
        {
          "indexed": false,
          "name": "_id",
          "type": "uint256"
        }
      ],
      "name": "ConstituencyRegistered",
      "type": "event"
    },
    {
      "anonymous": false,
      "inputs": [
        {
          "indexed": true,
          "name": "previousOwner",
          "type": "address"
        },
        {
          "indexed": true,
          "name": "newOwner",
          "type": "address"
        }
      ],
      "name": "OwnershipTransferred",
      "type": "event"
    },
    {
      "constant": false,
      "inputs": [
        {
          "name": "_adminId",
          "type": "uint256"
        }
      ],
      "name": "declareResults",
      "outputs": [],
      "payable": false,
      "stateMutability": "nonpayable",
      "type": "function"
    },
    {
      "constant": true,
      "inputs": [
        {
          "name": "_constituencyId",
          "type": "uint256"
        },
        {
          "name": "_userId",
          "type": "uint256"
        }
      ],
      "name": "retreiveConstituencyVoteCount",
      "outputs": [
        {
          "name": "",
          "type": "uint32"
        }
      ],
      "payable": false,
      "stateMutability": "view",
      "type": "function"
    }
  ],
  "bytecode": "0x6080604052336000806101000a81548173ffffffffffffffffffffffffffffffffffffffff021916908373ffffffffffffffffffffffffffffffffffffffff1602179055506000809054906101000a900473ffffffffffffffffffffffffffffffffffffffff1673ffffffffffffffffffffffffffffffffffffffff16600073ffffffffffffffffffffffffffffffffffffffff167f8be0079c531659141344cd1fd0a4f28419497f9722a3daafe3b4186f6b6457e060405160405180910390a360008060146101000a81548160ff021916908315150217905550611b50806100e96000396000f3fe608060405260043610610154576000357c0100000000000000000000000000000000000000000000000000000000900463ffffffff16806301aa2e03146101595780630f80dcb01461019657806312d51c72146101d55780631471e0ab146101fe57806314bfd6d01461023b57806323dc5c6e1461027857806328975210146102a15780632fd23a3f146102de5780633477ee2e1461031b5780633acab52f146103585780633b04a6c9146103815780633ba8b3ff146103be57806345dc9ad7146103e757806356be16581461042457806357e2ef10146104615780635d6e50521461049e578063715018a6146104c75780638da5cb5b146104de5780638f32d59b146105095780639209416a146105345780639484525414610573578063bbc893a31461059c578063da58c7d9146105d9578063f2fde38b14610619578063f759006514610642578063f8c705711461066b575b600080fd5b34801561016557600080fd5b50610180600480360361017b919081019061160d565b6106ab565b60405161018d9190611988565b60405180910390f35b3480156101a257600080fd5b506101bd60048036036101b8919081019061160d565b6106c3565b6040516101cc939291906119e8565b60405180910390f35b3480156101e157600080fd5b506101fc60048036036101f791908101906116c1565b6106ed565b005b34801561020a57600080fd5b506102256004803603610220919081019061160d565b61077c565b6040516102329190611988565b60405180910390f35b34801561024757600080fd5b50610262600480360361025d919081019061160d565b610794565b60405161026f9190611988565b60405180910390f35b34801561028457600080fd5b5061029f600480360361029a919081019061160d565b6107b7565b005b3480156102ad57600080fd5b506102c860048036036102c3919081019061160d565b610824565b6040516102d59190611930565b60405180910390f35b3480156102ea57600080fd5b5061030560048036036103009190810190611636565b610953565b604051610312919061196d565b60405180910390f35b34801561032757600080fd5b50610342600480360361033d919081019061160d565b6109d4565b60405161034f9190611988565b60405180910390f35b34801561036457600080fd5b5061037f600480360361037a9190810190611636565b6109fd565b005b34801561038d57600080fd5b506103a860048036036103a3919081019061160d565b610b4b565b6040516103b59190611988565b60405180910390f35b3480156103ca57600080fd5b506103e560048036036103e09190810190611672565b610b63565b005b3480156103f357600080fd5b5061040e60048036036104099190810190611636565b610cfe565b60405161041b9190611a1f565b60405180910390f35b34801561043057600080fd5b5061044b6004803603610446919081019061160d565b610db5565b6040516104589190611988565b60405180910390f35b34801561046d57600080fd5b506104886004803603610483919081019061160d565b610dcd565b6040516104959190611988565b60405180910390f35b3480156104aa57600080fd5b506104c560048036036104c09190810190611636565b610deb565b005b3480156104d357600080fd5b506104dc610efb565b005b3480156104ea57600080fd5b506104f3610fcd565b60405161050091906118f3565b60405180910390f35b34801561051557600080fd5b5061051e610ff6565b60405161052b9190611952565b60405180910390f35b34801561054057600080fd5b5061055b6004803603610556919081019061160d565b61104d565b60405161056a939291906119e8565b60405180910390f35b34801561057f57600080fd5b5061059a6004803603610595919081019061160d565b611086565b005b3480156105a857600080fd5b506105c360048036036105be9190810190611636565b6110c8565b6040516105d0919061190e565b60405180910390f35b3480156105e557600080fd5b5061060060048036036105fb919081019061160d565b6111ff565b60405161061094939291906119a3565b60405180910390f35b34801561062557600080fd5b50610640600480360361063b91908101906115e4565b61129c565b005b34801561064e57600080fd5b50610669600480360361066491908101906116c1565b6112bb565b005b34801561067757600080fd5b50610692600480360361068d919081019061160d565b61136b565b6040516106a294939291906119a3565b60405180910390f35b60076020528060005260406000206000915090505481565b60036020528060005260406000206000915090508060000154908060010154908060020154905083565b8060008090505b600b805490508110156107755781600b8281548110151561071157fe5b90600052602060002001541415610762578360056000878152602001908152602001600020819055506006600085815260200190815260200160002060008154809291906001019190505550610767565b610768565b5b80806001019150506106f4565b5050505050565b60056020528060005260406000206000915090505481565b600b818154811015156107a357fe5b906000526020600020016000915090505481565b8060008090505b600b8054905081101561081f5781600b828154811015156107db57fe5b9060005260206000200154141561080c576001600060146101000a81548160ff021916908315150217905550610811565b610812565b5b80806001019150506107be565b505050565b60608160008090505b600b8054905081101561094c5781600b8281548110151561084a57fe5b90600052602060002001541415610939576060600a8054905060405190808252806020026020018201604052801561089c57816020015b6108896114f3565b8152602001906001900390816108815790505b509050600080905060008090505b600a8054905081101561092e57600a818154811015156108c657fe5b9060005260206000209060030201606060405190810160405290816000820154815260200160018201548152602001600282015481525050838381518110151561090c57fe5b90602001906020020181905250818060010192505080806001019150506108aa565b50819450505061093e565b61093f565b5b808060010191505061082d565b5050919050565b61095b611515565b81600060016000838152602001908152602001600020600001541415151561098257600080fd5b61098a611515565b600360008681526020019081526020016000206060604051908101604052908160008201548152602001600182015481526020016002820154815250509050809250505092915050565b6009818154811015156109e357fe5b906000526020600020016000915090508060000154905081565b8060008090505b600b80549050811015610b455781600b82815481101515610a2157fe5b90600052602060002001541415610b325760006001600a606060405190810160405280888152602001600081526020016000815250908060018154018082558091505090600182039060005260206000209060030201600090919290919091506000820151816000015560208201518160010155604082015181600201555050039050600a81815481101515610ab357fe5b9060005260206000209060030201600360008781526020019081526020016000206000820154816000015560018201548160010155600282015481600201559050507f21db1a92fb8efb483c22a581ee7e282b6d79d9d43b559ee1affa34181886796985604051610b249190611988565b60405180910390a150610b37565b610b38565b5b8080600101915050610a04565b50505050565b60066020528060005260406000206000915090505481565b826000600160008381526020019081526020016000206000015414151515610b8a57600080fd5b60056000848152602001908152602001600020546001600086815260200190815260200160002060010154141515610bc157600080fd5b610bc9611537565b600160008681526020019081526020016000206080604051908101604052908160008201548152602001600182015481526020016002820160009054906101000a900460ff16151515158152602001600382016060604051908101604052908160008201548152602001600182015481526020016002820160009054906101000a900467ffffffffffffffff1667ffffffffffffffff1667ffffffffffffffff16815250508152505090506001816040019015159081151581525050836004600083606001516000015181526020019081526020016000208190555060076000858152602001908152602001600020600081548092919060010191905055508284867f612c500cbd8f1ed8a4643cbf6b41fda92203645d7e4f7c3a237a1be69565ea2c60405160405180910390a45050505050565b600060011515600060149054906101000a900460ff161515141515610d2257600080fd5b816000600160008381526020019081526020016000206000015414151515610d4957600080fd5b6060610d5585856110c8565b9050600080600090505b8251811015610da857600760008483815181101515610d7a57fe5b9060200190602002015160000151815260200190815260200160002054820191508080600101915050610d5f565b5080935050505092915050565b60046020528060005260406000206000915090505481565b60026020528060005260406000206000915090508060000154905081565b8060008090505b600b80549050811015610ef55781600b82815481101515610e0f57fe5b90600052602060002001541415610ee25760006001600960206040519081016040528088815250908060018154018082558091505090600182039060005260206000200160009091929091909150600082015181600001555050039050600981815481101515610e7b57fe5b9060005260206000200160026000878152602001908152602001600020600082015481600001559050507f43dcee486fabffa2fb551555bfaa5bfcf6a42f2d014032ccef94bf09d83855eb85604051610ed49190611988565b60405180910390a150610ee7565b610ee8565b5b8080600101915050610df2565b50505050565b610f03610ff6565b1515610f0e57600080fd5b600073ffffffffffffffffffffffffffffffffffffffff166000809054906101000a900473ffffffffffffffffffffffffffffffffffffffff1673ffffffffffffffffffffffffffffffffffffffff167f8be0079c531659141344cd1fd0a4f28419497f9722a3daafe3b4186f6b6457e060405160405180910390a360008060006101000a81548173ffffffffffffffffffffffffffffffffffffffff021916908373ffffffffffffffffffffffffffffffffffffffff160217905550565b60008060009054906101000a900473ffffffffffffffffffffffffffffffffffffffff16905090565b60008060009054906101000a900473ffffffffffffffffffffffffffffffffffffffff1673ffffffffffffffffffffffffffffffffffffffff163373ffffffffffffffffffffffffffffffffffffffff1614905090565b600a8181548110151561105c57fe5b90600052602060002090600302016000915090508060000154908060010154908060020154905083565b61108e610ff6565b151561109957600080fd5b600b81908060018154018082558091505090600182039060005260206000200160009091929091909150555050565b60608160006001600083815260200190815260200160002060000154141515156110f157600080fd5b6060600660008681526020019081526020016000205460405190808252806020026020018201604052801561114057816020015b61112d611568565b8152602001906001900390816111255790505b509050600080905060008090505b6009805490508110156111f257866005600060098481548110151561116f57fe5b906000526020600020016000015481526020019081526020016000205414156111e5576009818154811015156111a157fe5b906000526020600020016020604051908101604052908160008201548152505083838151811015156111cf57fe5b9060200190602002018190525081806001019250505b808060010191505061114e565b5081935050505092915050565b60088181548110151561120e57fe5b90600052602060002090600602016000915090508060000154908060010154908060020160009054906101000a900460ff1690806003016060604051908101604052908160008201548152602001600182015481526020016002820160009054906101000a900467ffffffffffffffff1667ffffffffffffffff1667ffffffffffffffff1681525050905084565b6112a4610ff6565b15156112af57600080fd5b6112b8816113f9565b50565b8060008090505b600b805490508110156113645781600b828154811015156112df57fe5b90600052602060002001541415611351576112f8611515565b600360008781526020019081526020016000206060604051908101604052908160008201548152602001600182015481526020016002820154815250509050428160200181815250508481604001818152505050611356565b611357565b5b80806001019150506112c2565b5050505050565b60016020528060005260406000206000915090508060000154908060010154908060020160009054906101000a900460ff1690806003016060604051908101604052908160008201548152602001600182015481526020016002820160009054906101000a900467ffffffffffffffff1667ffffffffffffffff1667ffffffffffffffff1681525050905084565b600073ffffffffffffffffffffffffffffffffffffffff168173ffffffffffffffffffffffffffffffffffffffff161415151561143557600080fd5b8073ffffffffffffffffffffffffffffffffffffffff166000809054906101000a900473ffffffffffffffffffffffffffffffffffffffff1673ffffffffffffffffffffffffffffffffffffffff167f8be0079c531659141344cd1fd0a4f28419497f9722a3daafe3b4186f6b6457e060405160405180910390a3806000806101000a81548173ffffffffffffffffffffffffffffffffffffffff021916908373ffffffffffffffffffffffffffffffffffffffff16021790555050565b6060604051908101604052806000815260200160008152602001600081525090565b6060604051908101604052806000815260200160008152602001600081525090565b60c060405190810160405280600081526020016000815260200160001515815260200161156261157c565b81525090565b602060405190810160405280600081525090565b6060604051908101604052806000815260200160008152602001600067ffffffffffffffff1681525090565b60006115b48235611af0565b905092915050565b60006115c88235611b02565b905092915050565b60006115dc8235611b0c565b905092915050565b6000602082840312156115f657600080fd5b6000611604848285016115a8565b91505092915050565b60006020828403121561161f57600080fd5b600061162d848285016115d0565b91505092915050565b6000806040838503121561164957600080fd5b6000611657858286016115d0565b9250506020611668858286016115d0565b9150509250929050565b60008060006060848603121561168757600080fd5b6000611695868287016115d0565b93505060206116a6868287016115d0565b92505060406116b7868287016115bc565b9150509250925092565b6000806000606084860312156116d657600080fd5b60006116e4868287016115d0565b93505060206116f5868287016115d0565b9250506040611706868287016115d0565b9150509250925092565b61171981611a84565b82525050565b600061172a82611a54565b80845260208401935061173c83611a3a565b60005b8281101561176e576117528683516117e4565b61175b82611a6a565b915060208601955060018101905061173f565b50849250505092915050565b600061178582611a5f565b80845260208401935061179783611a47565b60005b828110156117c9576117ad868351611842565b6117b682611a77565b915060608601955060018101905061179a565b50849250505092915050565b6117de81611a96565b82525050565b6020820160008201516117fa60008501826118c6565b50505050565b60608201600082015161181660008501826118c6565b50602082015161182960208501826118c6565b50604082015161183c60408501826118c6565b50505050565b60608201600082015161185860008501826118c6565b50602082015161186b60208501826118c6565b50604082015161187e60408501826118c6565b50505050565b60608201600082015161189a60008501826118c6565b5060208201516118ad60208501826118c6565b5060408201516118c060408501826118e4565b50505050565b6118cf81611ac2565b82525050565b6118de81611acc565b82525050565b6118ed81611adc565b82525050565b60006020820190506119086000830184611710565b92915050565b60006020820190508181036000830152611928818461171f565b905092915050565b6000602082019050818103600083015261194a818461177a565b905092915050565b600060208201905061196760008301846117d5565b92915050565b60006060820190506119826000830184611800565b92915050565b600060208201905061199d60008301846118c6565b92915050565b600060c0820190506119b860008301876118c6565b6119c560208301866118c6565b6119d260408301856117d5565b6119df6060830184611884565b95945050505050565b60006060820190506119fd60008301866118c6565b611a0a60208301856118c6565b611a1760408301846118c6565b949350505050565b6000602082019050611a3460008301846118d5565b92915050565b6000602082019050919050565b6000602082019050919050565b600081519050919050565b600081519050919050565b6000602082019050919050565b6000602082019050919050565b6000611a8f82611aa2565b9050919050565b60008115159050919050565b600073ffffffffffffffffffffffffffffffffffffffff82169050919050565b6000819050919050565b600063ffffffff82169050919050565b600067ffffffffffffffff82169050919050565b6000611afb82611aa2565b9050919050565b6000819050919050565b600081905091905056fea265627a7a72305820a0d059aa1ff60d9c1fa3b80082f9758389749fdb75f2ae690a65b7986629e4a16c6578706572696d656e74616cf50037",
  "source": "pragma solidity ^0.5.0;\npragma experimental ABIEncoderV2;\n\nimport \"./VotingTransactions.sol\";\n\ncontract ResultHelper is VotingTransactions{\n\n    function declareResults(uint256 _adminId) external onlyAdmin(_adminId) {\n        ResultsDeclared = true;\n    }\n\n    function retreiveConstituencyVoteCount(uint256 _constituencyId, uint256 _userId) external view declaredResults onlyUser(_userId) returns(uint32) {\n        Candidate[] memory _candidates = getCandidatesByConstituency(_constituencyId,_userId);\n        uint32 _votes;\n        for (uint i = 0; i < _candidates.length; i++) {\n            _votes = _votes + uint32(candidateVoteCount[_candidates[i]._id]);\n        }\n\n        return _votes;\n    }\n}",
  "sourcePath": "/home/d3mon/Projects/sudo-rm--rf/contracts/ResultHelper.sol",
  "compiler": {
    "name": "solc",
    "version": "0.5.0+commit.1d4f565a.Emscripten.clang"
  },
  "schemaVersion": "3.0.2",
  "updatedAt": "2020-01-25T14:01:48.946Z",
  "devdoc": {
    "methods": {
      "isOwner()": {
        "return": "true if `msg.sender` is the owner of the contract."
      },
      "owner()": {
        "return": "the address of the owner."
      },
      "renounceOwnership()": {
        "details": "Allows the current owner to relinquish control of the contract."
      },
      "transferOwnership(address)": {
        "details": "Allows the current owner to transfer control of the contract to a newOwner.",
        "params": {
          "newOwner": "The address to transfer ownership to."
        }
      }
    }
  },
  "userdoc": {
    "methods": {
      "renounceOwnership()": {
        "notice": "Renouncing to ownership will leave the contract without an owner. It will not be possible to call the functions with the `onlyOwner` modifier anymore."
      }
    }
  }
}