{
  "contractName": "ResultHelper",
  "abi": [
    {
      "constant": true,
      "inputs": [
        {
          "name": "",
          "type": "uint256"
        }
      ],
      "name": "candidateVoteCount",
      "outputs": [
        {
          "name": "",
          "type": "uint256"
        }
      ],
      "payable": false,
      "stateMutability": "view",
      "type": "function"
    },
    {
      "constant": true,
      "inputs": [
        {
          "name": "",
          "type": "uint256"
        }
      ],
      "name": "idToConstituency",
      "outputs": [
        {
          "name": "_id",
          "type": "uint256"
        },
        {
          "name": "_startTime",
          "type": "uint256"
        },
        {
          "name": "_duration",
          "type": "uint256"
        }
      ],
      "payable": false,
      "stateMutability": "view",
      "type": "function"
    },
    {
      "constant": false,
      "inputs": [
        {
          "name": "_id",
          "type": "uint256"
        },
        {
          "name": "_constituencyId",
          "type": "uint256"
        },
        {
          "name": "_adminId",
          "type": "uint256"
        }
      ],
      "name": "assignCandidateToConstituency",
      "outputs": [],
      "payable": false,
      "stateMutability": "nonpayable",
      "type": "function"
    },
    {
      "constant": true,
      "inputs": [
        {
          "name": "",
          "type": "uint256"
        }
      ],
      "name": "candidateToConstituency",
      "outputs": [
        {
          "name": "",
          "type": "uint256"
        }
      ],
      "payable": false,
      "stateMutability": "view",
      "type": "function"
    },
    {
      "constant": true,
      "inputs": [
        {
          "name": "",
          "type": "uint256"
        }
      ],
      "name": "admins",
      "outputs": [
        {
          "name": "",
          "type": "uint256"
        }
      ],
      "payable": false,
      "stateMutability": "view",
      "type": "function"
    },
    {
      "constant": false,
      "inputs": [
        {
          "name": "_adminId",
          "type": "uint256"
        }
      ],
      "name": "getConstituencies",
      "outputs": [
        {
          "components": [
            {
              "name": "_id",
              "type": "uint256"
            },
            {
              "name": "_startTime",
              "type": "uint256"
            },
            {
              "name": "_duration",
              "type": "uint256"
            }
          ],
          "name": "",
          "type": "tuple[]"
        }
      ],
      "payable": false,
      "stateMutability": "nonpayable",
      "type": "function"
    },
    {
      "constant": false,
      "inputs": [
        {
          "name": "_id",
          "type": "uint256"
        },
        {
          "name": "_userId",
          "type": "uint256"
        }
      ],
      "name": "getConstituencyDetails",
      "outputs": [
        {
          "components": [
            {
              "name": "_id",
              "type": "uint256"
            },
            {
              "name": "_startTime",
              "type": "uint256"
            },
            {
              "name": "_duration",
              "type": "uint256"
            }
          ],
          "name": "",
          "type": "tuple"
        }
      ],
      "payable": false,
      "stateMutability": "nonpayable",
      "type": "function"
    },
    {
      "constant": false,
      "inputs": [
        {
          "name": "from",
          "type": "uint256"
        },
        {
          "name": "to",
          "type": "uint256"
        },
        {
          "name": "tokenId",
          "type": "uint256"
        }
      ],
      "name": "transferFrom",
      "outputs": [],
      "payable": false,
      "stateMutability": "nonpayable",
      "type": "function"
    },
    {
      "constant": true,
      "inputs": [
        {
          "name": "",
          "type": "uint256"
        }
      ],
      "name": "candidates",
      "outputs": [
        {
          "name": "_id",
          "type": "uint256"
        }
      ],
      "payable": false,
      "stateMutability": "view",
      "type": "function"
    },
    {
      "constant": false,
      "inputs": [
        {
          "name": "_id",
          "type": "uint256"
        },
        {
          "name": "_adminId",
          "type": "uint256"
        }
      ],
      "name": "registerConstituency",
      "outputs": [],
      "payable": false,
      "stateMutability": "nonpayable",
      "type": "function"
    },
    {
      "constant": true,
      "inputs": [
        {
          "name": "",
          "type": "uint256"
        }
      ],
      "name": "constituencyCandidateCount",
      "outputs": [
        {
          "name": "",
          "type": "uint256"
        }
      ],
      "payable": false,
      "stateMutability": "view",
      "type": "function"
    },
    {
      "constant": true,
      "inputs": [
        {
          "name": "",
          "type": "uint256"
        }
      ],
      "name": "voteToCandidate",
      "outputs": [
        {
          "name": "",
          "type": "uint256"
        }
      ],
      "payable": false,
      "stateMutability": "view",
      "type": "function"
    },
    {
      "constant": true,
      "inputs": [
        {
          "name": "",
          "type": "uint256"
        }
      ],
      "name": "idToCandidate",
      "outputs": [
        {
          "name": "_id",
          "type": "uint256"
        }
      ],
      "payable": false,
      "stateMutability": "view",
      "type": "function"
    },
    {
      "constant": false,
      "inputs": [
        {
          "name": "_id",
          "type": "uint256"
        },
        {
          "name": "_adminId",
          "type": "uint256"
        }
      ],
      "name": "registerCandidate",
      "outputs": [],
      "payable": false,
      "stateMutability": "nonpayable",
      "type": "function"
    },
    {
      "constant": false,
      "inputs": [],
      "name": "renounceOwnership",
      "outputs": [],
      "payable": false,
      "stateMutability": "nonpayable",
      "type": "function"
    },
    {
      "constant": true,
      "inputs": [],
      "name": "owner",
      "outputs": [
        {
          "name": "",
          "type": "address"
        }
      ],
      "payable": false,
      "stateMutability": "view",
      "type": "function"
    },
    {
      "constant": true,
      "inputs": [],
      "name": "isOwner",
      "outputs": [
        {
          "name": "",
          "type": "bool"
        }
      ],
      "payable": false,
      "stateMutability": "view",
      "type": "function"
    },
    {
      "constant": true,
      "inputs": [
        {
          "name": "",
          "type": "uint256"
        }
      ],
      "name": "constituencies",
      "outputs": [
        {
          "name": "_id",
          "type": "uint256"
        },
        {
          "name": "_startTime",
          "type": "uint256"
        },
        {
          "name": "_duration",
          "type": "uint256"
        }
      ],
      "payable": false,
      "stateMutability": "view",
      "type": "function"
    },
    {
      "constant": false,
      "inputs": [
        {
          "name": "_id",
          "type": "uint256"
        }
      ],
      "name": "registerAdmin",
      "outputs": [],
      "payable": false,
      "stateMutability": "nonpayable",
      "type": "function"
    },
    {
      "constant": true,
      "inputs": [],
      "name": "ResultsDeclared",
      "outputs": [
        {
          "name": "",
          "type": "bool"
        }
      ],
      "payable": false,
      "stateMutability": "view",
      "type": "function"
    },
    {
      "constant": true,
      "inputs": [
        {
          "name": "_constituencyId",
          "type": "uint256"
        },
        {
          "name": "_userId",
          "type": "uint256"
        }
      ],
      "name": "getCandidatesByConstituency",
      "outputs": [
        {
          "components": [
            {
              "name": "_id",
              "type": "uint256"
            }
          ],
          "name": "",
          "type": "tuple[]"
        }
      ],
      "payable": false,
      "stateMutability": "view",
      "type": "function"
    },
    {
      "constant": true,
      "inputs": [
        {
          "name": "",
          "type": "uint256"
        }
      ],
      "name": "voters",
      "outputs": [
        {
          "name": "_id",
          "type": "uint256"
        },
        {
          "name": "_constituencyId",
          "type": "uint256"
        },
        {
          "name": "_hasVoted",
          "type": "bool"
        },
        {
          "name": "_voteTime",
          "type": "uint256"
        },
        {
          "components": [
            {
              "name": "_voteId",
              "type": "uint256"
            }
          ],
          "name": "_vote",
          "type": "tuple"
        }
      ],
      "payable": false,
      "stateMutability": "view",
      "type": "function"
    },
    {
      "constant": false,
      "inputs": [
        {
          "name": "newOwner",
          "type": "address"
        }
      ],
      "name": "transferOwnership",
      "outputs": [],
      "payable": false,
      "stateMutability": "nonpayable",
      "type": "function"
    },
    {
      "constant": false,
      "inputs": [
        {
          "name": "_id",
          "type": "uint256"
        },
        {
          "name": "_duration",
          "type": "uint256"
        },
        {
          "name": "_adminId",
          "type": "uint256"
        }
      ],
      "name": "generateElectionforConstituency",
      "outputs": [],
      "payable": false,
      "stateMutability": "nonpayable",
      "type": "function"
    },
    {
      "constant": true,
      "inputs": [
        {
          "name": "",
          "type": "uint256"
        }
      ],
      "name": "idToVoter",
      "outputs": [
        {
          "name": "_id",
          "type": "uint256"
        },
        {
          "name": "_constituencyId",
          "type": "uint256"
        },
        {
          "name": "_hasVoted",
          "type": "bool"
        },
        {
          "name": "_voteTime",
          "type": "uint256"
        },
        {
          "components": [
            {
              "name": "_voteId",
              "type": "uint256"
            }
          ],
          "name": "_vote",
          "type": "tuple"
        }
      ],
      "payable": false,
      "stateMutability": "view",
      "type": "function"
    },
    {
      "anonymous": false,
      "inputs": [
        {
          "indexed": true,
          "name": "_from",
          "type": "uint256"
        },
        {
          "indexed": true,
          "name": "_to",
          "type": "uint256"
        },
        {
          "indexed": true,
          "name": "_tokenId",
          "type": "uint256"
        }
      ],
      "name": "Transfer",
      "type": "event"
    },
    {
      "anonymous": false,
      "inputs": [
        {
          "indexed": false,
          "name": "_id",
          "type": "uint256"
        },
        {
          "indexed": false,
          "name": "_constituencyId",
          "type": "uint256"
        }
      ],
      "name": "VoterCreated",
      "type": "event"
    },
    {
      "anonymous": false,
      "inputs": [
        {
          "indexed": false,
          "name": "_id",
          "type": "uint256"
        }
      ],
      "name": "CandidateRegistered",
      "type": "event"
    },
    {
      "anonymous": false,
      "inputs": [
        {
          "indexed": false,
          "name": "_id",
          "type": "uint256"
        }
      ],
      "name": "ConstituencyRegistered",
      "type": "event"
    },
    {
      "anonymous": false,
      "inputs": [
        {
          "indexed": true,
          "name": "previousOwner",
          "type": "address"
        },
        {
          "indexed": true,
          "name": "newOwner",
          "type": "address"
        }
      ],
      "name": "OwnershipTransferred",
      "type": "event"
    },
    {
      "constant": false,
      "inputs": [
        {
          "name": "_adminId",
          "type": "uint256"
        }
      ],
      "name": "declareResults",
      "outputs": [],
      "payable": false,
      "stateMutability": "nonpayable",
      "type": "function"
    },
    {
      "constant": true,
      "inputs": [
        {
          "name": "_constituencyId",
          "type": "uint256"
        },
        {
          "name": "_userId",
          "type": "uint256"
        }
      ],
      "name": "retreiveConstituencyVoteCount",
      "outputs": [
        {
          "name": "",
          "type": "uint32"
        }
      ],
      "payable": false,
      "stateMutability": "view",
      "type": "function"
    }
  ],
  "bytecode": "0x608060405260008060146101000a81548160ff021916908315150217905550336000806101000a81548173ffffffffffffffffffffffffffffffffffffffff021916908373ffffffffffffffffffffffffffffffffffffffff1602179055506000809054906101000a900473ffffffffffffffffffffffffffffffffffffffff1673ffffffffffffffffffffffffffffffffffffffff16600073ffffffffffffffffffffffffffffffffffffffff167f8be0079c531659141344cd1fd0a4f28419497f9722a3daafe3b4186f6b6457e060405160405180910390a360008060146101000a81548160ff021916908315150217905550611969806101036000396000f3fe60806040526004361061015f576000357c0100000000000000000000000000000000000000000000000000000000900463ffffffff16806301aa2e03146101645780630f80dcb0146101a157806312d51c72146101e05780631471e0ab1461020957806314bfd6d01461024657806323dc5c6e1461028357806328975210146102ac5780632fd23a3f146102e9578063310ed7f0146103265780633477ee2e1461034f5780633acab52f1461038c5780633b04a6c9146103b557806345dc9ad7146103f257806356be16581461042f57806357e2ef101461046c5780635d6e5052146104a9578063715018a6146104d25780638da5cb5b146104e95780638f32d59b146105145780639209416a1461053f578063948452541461057e578063aa3e4e1c146105a7578063bbc893a3146105d2578063da58c7d91461060f578063f2fde38b14610650578063f759006514610679578063f8c70571146106a2575b600080fd5b34801561017057600080fd5b5061018b600480360361018691908101906114ba565b6106e3565b60405161019891906117b1565b60405180910390f35b3480156101ad57600080fd5b506101c860048036036101c391908101906114ba565b6106fb565b6040516101d79392919061181f565b60405180910390f35b3480156101ec57600080fd5b506102076004803603610202919081019061151f565b610725565b005b34801561021557600080fd5b50610230600480360361022b91908101906114ba565b6107b4565b60405161023d91906117b1565b60405180910390f35b34801561025257600080fd5b5061026d600480360361026891908101906114ba565b6107cc565b60405161027a91906117b1565b60405180910390f35b34801561028f57600080fd5b506102aa60048036036102a591908101906114ba565b6107ef565b005b3480156102b857600080fd5b506102d360048036036102ce91908101906114ba565b61085c565b6040516102e09190611759565b60405180910390f35b3480156102f557600080fd5b50610310600480360361030b91908101906114e3565b61098b565b60405161031d9190611796565b60405180910390f35b34801561033257600080fd5b5061034d6004803603610348919081019061151f565b610a0c565b005b34801561035b57600080fd5b50610376600480360361037191908101906114ba565b610b18565b60405161038391906117b1565b60405180910390f35b34801561039857600080fd5b506103b360048036036103ae91908101906114e3565b610b41565b005b3480156103c157600080fd5b506103dc60048036036103d791908101906114ba565b610c8f565b6040516103e991906117b1565b60405180910390f35b3480156103fe57600080fd5b50610419600480360361041491908101906114e3565b610ca7565b6040516104269190611856565b60405180910390f35b34801561043b57600080fd5b50610456600480360361045191908101906114ba565b610d5e565b60405161046391906117b1565b60405180910390f35b34801561047857600080fd5b50610493600480360361048e91908101906114ba565b610d76565b6040516104a091906117b1565b60405180910390f35b3480156104b557600080fd5b506104d060048036036104cb91908101906114e3565b610d94565b005b3480156104de57600080fd5b506104e7610ea4565b005b3480156104f557600080fd5b506104fe610f76565b60405161050b919061171c565b60405180910390f35b34801561052057600080fd5b50610529610f9f565b604051610536919061177b565b60405180910390f35b34801561054b57600080fd5b50610566600480360361056191908101906114ba565b610ff6565b6040516105759392919061181f565b60405180910390f35b34801561058a57600080fd5b506105a560048036036105a091908101906114ba565b61102f565b005b3480156105b357600080fd5b506105bc611071565b6040516105c9919061177b565b60405180910390f35b3480156105de57600080fd5b506105f960048036036105f491908101906114e3565b611084565b6040516106069190611737565b60405180910390f35b34801561061b57600080fd5b50610636600480360361063191908101906114ba565b6111bb565b6040516106479594939291906117cc565b60405180910390f35b34801561065c57600080fd5b5061067760048036036106729190810190611491565b611222565b005b34801561068557600080fd5b506106a0600480360361069b919081019061151f565b611241565b005b3480156106ae57600080fd5b506106c960048036036106c491908101906114ba565b6112bf565b6040516106da9594939291906117cc565b60405180910390f35b60076020528060005260406000206000915090505481565b60036020528060005260406000206000915090508060000154908060010154908060020154905083565b8060008090505b600b805490508110156107ad5781600b8281548110151561074957fe5b9060005260206000200154141561079a57836005600087815260200190815260200160002081905550600660008581526020019081526020016000206000815480929190600101919050555061079f565b6107a0565b5b808060010191505061072c565b5050505050565b60056020528060005260406000206000915090505481565b600b818154811015156107db57fe5b906000526020600020016000915090505481565b8060008090505b600b805490508110156108575781600b8281548110151561081357fe5b90600052602060002001541415610844576001600060146101000a81548160ff021916908315150217905550610849565b61084a565b5b80806001019150506107f6565b505050565b60608160008090505b600b805490508110156109845781600b8281548110151561088257fe5b90600052602060002001541415610971576060600a805490506040519080825280602002602001820160405280156108d457816020015b6108c1611411565b8152602001906001900390816108b95790505b509050600080905060008090505b600a8054905081101561096657600a818154811015156108fe57fe5b9060005260206000209060030201606060405190810160405290816000820154815260200160018201548152602001600282015481525050838381518110151561094457fe5b90602001906020020181905250818060010192505080806001019150506108e2565b508194505050610976565b610977565b5b8080600101915050610865565b5050919050565b610993611433565b8160006001600083815260200190815260200160002060000154141515156109ba57600080fd5b6109c2611433565b600360008681526020019081526020016000206060604051908101604052908160008201548152602001600182015481526020016002820154815250509050809250505092915050565b826000600160008381526020019081526020016000206000015414151515610a3357600080fd5b60056000848152602001908152602001600020546001600086815260200190815260200160002060010154141515610a6a57600080fd5b600060016000868152602001908152602001600020905060018160020160006101000a81548160ff02191690831515021790555042816003018190555083600460008781526020019081526020016000208190555060076000858152602001908152602001600020600081548092919060010191905055508284867faf6151f5085accf2d57e1e7bf7601d3b3982e0de7e9a90f032f8554de9c104f660405160405180910390a45050505050565b600981815481101515610b2757fe5b906000526020600020016000915090508060000154905081565b8060008090505b600b80549050811015610c895781600b82815481101515610b6557fe5b90600052602060002001541415610c765760006001600a606060405190810160405280888152602001600081526020016000815250908060018154018082558091505090600182039060005260206000209060030201600090919290919091506000820151816000015560208201518160010155604082015181600201555050039050600a81815481101515610bf757fe5b9060005260206000209060030201600360008781526020019081526020016000206000820154816000015560018201548160010155600282015481600201559050507f21db1a92fb8efb483c22a581ee7e282b6d79d9d43b559ee1affa34181886796985604051610c6891906117b1565b60405180910390a150610c7b565b610c7c565b5b8080600101915050610b48565b50505050565b60066020528060005260406000206000915090505481565b600060011515600060149054906101000a900460ff161515141515610ccb57600080fd5b816000600160008381526020019081526020016000206000015414151515610cf257600080fd5b6060610cfe8585611084565b9050600080600090505b8251811015610d5157600760008483815181101515610d2357fe5b9060200190602002015160000151815260200190815260200160002054820191508080600101915050610d08565b5080935050505092915050565b60046020528060005260406000206000915090505481565b60026020528060005260406000206000915090508060000154905081565b8060008090505b600b80549050811015610e9e5781600b82815481101515610db857fe5b90600052602060002001541415610e8b5760006001600960206040519081016040528088815250908060018154018082558091505090600182039060005260206000200160009091929091909150600082015181600001555050039050600981815481101515610e2457fe5b9060005260206000200160026000878152602001908152602001600020600082015481600001559050507f43dcee486fabffa2fb551555bfaa5bfcf6a42f2d014032ccef94bf09d83855eb85604051610e7d91906117b1565b60405180910390a150610e90565b610e91565b5b8080600101915050610d9b565b50505050565b610eac610f9f565b1515610eb757600080fd5b600073ffffffffffffffffffffffffffffffffffffffff166000809054906101000a900473ffffffffffffffffffffffffffffffffffffffff1673ffffffffffffffffffffffffffffffffffffffff167f8be0079c531659141344cd1fd0a4f28419497f9722a3daafe3b4186f6b6457e060405160405180910390a360008060006101000a81548173ffffffffffffffffffffffffffffffffffffffff021916908373ffffffffffffffffffffffffffffffffffffffff160217905550565b60008060009054906101000a900473ffffffffffffffffffffffffffffffffffffffff16905090565b60008060009054906101000a900473ffffffffffffffffffffffffffffffffffffffff1673ffffffffffffffffffffffffffffffffffffffff163373ffffffffffffffffffffffffffffffffffffffff1614905090565b600a8181548110151561100557fe5b90600052602060002090600302016000915090508060000154908060010154908060020154905083565b611037610f9f565b151561104257600080fd5b600b81908060018154018082558091505090600182039060005260206000200160009091929091909150555050565b600060149054906101000a900460ff1681565b60608160006001600083815260200190815260200160002060000154141515156110ad57600080fd5b606060066000868152602001908152602001600020546040519080825280602002602001820160405280156110fc57816020015b6110e9611455565b8152602001906001900390816110e15790505b509050600080905060008090505b6009805490508110156111ae57866005600060098481548110151561112b57fe5b906000526020600020016000015481526020019081526020016000205414156111a15760098181548110151561115d57fe5b9060005260206000200160206040519081016040529081600082015481525050838381518110151561118b57fe5b9060200190602002018190525081806001019250505b808060010191505061110a565b5081935050505092915050565b6008818154811015156111ca57fe5b90600052602060002090600502016000915090508060000154908060010154908060020160009054906101000a900460ff16908060030154908060040160206040519081016040529081600082015481525050905085565b61122a610f9f565b151561123557600080fd5b61123e81611317565b50565b8060008090505b600b805490508110156112b85781600b8281548110151561126557fe5b906000526020600020015414156112a5576000600360008781526020019081526020016000209050428160010181905550848160020181905550506112aa565b6112ab565b5b8080600101915050611248565b5050505050565b60016020528060005260406000206000915090508060000154908060010154908060020160009054906101000a900460ff16908060030154908060040160206040519081016040529081600082015481525050905085565b600073ffffffffffffffffffffffffffffffffffffffff168173ffffffffffffffffffffffffffffffffffffffff161415151561135357600080fd5b8073ffffffffffffffffffffffffffffffffffffffff166000809054906101000a900473ffffffffffffffffffffffffffffffffffffffff1673ffffffffffffffffffffffffffffffffffffffff167f8be0079c531659141344cd1fd0a4f28419497f9722a3daafe3b4186f6b6457e060405160405180910390a3806000806101000a81548173ffffffffffffffffffffffffffffffffffffffff021916908373ffffffffffffffffffffffffffffffffffffffff16021790555050565b6060604051908101604052806000815260200160008152602001600081525090565b6060604051908101604052806000815260200160008152602001600081525090565b602060405190810160405280600081525090565b60006114758235611913565b905092915050565b60006114898235611925565b905092915050565b6000602082840312156114a357600080fd5b60006114b184828501611469565b91505092915050565b6000602082840312156114cc57600080fd5b60006114da8482850161147d565b91505092915050565b600080604083850312156114f657600080fd5b60006115048582860161147d565b92505060206115158582860161147d565b9150509250929050565b60008060006060848603121561153457600080fd5b60006115428682870161147d565b93505060206115538682870161147d565b92505060406115648682870161147d565b9150509250925092565b611577816118bb565b82525050565b60006115888261188b565b80845260208401935061159a83611871565b60005b828110156115cc576115b0868351611642565b6115b9826118a1565b915060208601955060018101905061159d565b50849250505092915050565b60006115e382611896565b8084526020840193506115f58361187e565b60005b828110156116275761160b8683516116a0565b611614826118ae565b91506060860195506001810190506115f8565b50849250505092915050565b61163c816118cd565b82525050565b60208201600082015161165860008501826116fe565b50505050565b60608201600082015161167460008501826116fe565b50602082015161168760208501826116fe565b50604082015161169a60408501826116fe565b50505050565b6060820160008201516116b660008501826116fe565b5060208201516116c960208501826116fe565b5060408201516116dc60408501826116fe565b50505050565b6020820160008201516116f860008501826116fe565b50505050565b611707816118f9565b82525050565b61171681611903565b82525050565b6000602082019050611731600083018461156e565b92915050565b60006020820190508181036000830152611751818461157d565b905092915050565b6000602082019050818103600083015261177381846115d8565b905092915050565b60006020820190506117906000830184611633565b92915050565b60006060820190506117ab600083018461165e565b92915050565b60006020820190506117c660008301846116fe565b92915050565b600060a0820190506117e160008301886116fe565b6117ee60208301876116fe565b6117fb6040830186611633565b61180860608301856116fe565b61181560808301846116e2565b9695505050505050565b600060608201905061183460008301866116fe565b61184160208301856116fe565b61184e60408301846116fe565b949350505050565b600060208201905061186b600083018461170d565b92915050565b6000602082019050919050565b6000602082019050919050565b600081519050919050565b600081519050919050565b6000602082019050919050565b6000602082019050919050565b60006118c6826118d9565b9050919050565b60008115159050919050565b600073ffffffffffffffffffffffffffffffffffffffff82169050919050565b6000819050919050565b600063ffffffff82169050919050565b600061191e826118d9565b9050919050565b600081905091905056fea265627a7a723058206a9b9b5f57b3fc264b3d38cc5d5770f903d1dcf63244b58106e22a3cfd7a784a6c6578706572696d656e74616cf50037",
  "source": "pragma solidity ^0.5.0;\npragma experimental ABIEncoderV2;\n\nimport \"./VotingTransactions.sol\";\n\ncontract ResultHelper is VotingTransactions{\n\n    function declareResults(uint256 _adminId) external onlyAdmin(_adminId) {\n        ResultsDeclared = true;\n    }\n\n    function retreiveConstituencyVoteCount(uint256 _constituencyId, uint256 _userId) external view declaredResults onlyUser(_userId) returns(uint32) {\n        Candidate[] memory _candidates = getCandidatesByConstituency(_constituencyId,_userId);\n        uint32 _votes;\n        for (uint i = 0; i < _candidates.length; i++) {\n            _votes = _votes + uint32(candidateVoteCount[_candidates[i]._id]);\n        }\n\n        return _votes;\n    }\n}",
  "sourcePath": "/home/d3mon/Projects/sudo-rm--rf/contracts/ResultHelper.sol",
  "compiler": {
    "name": "solc",
    "version": "0.5.0+commit.1d4f565a.Emscripten.clang"
  },
  "schemaVersion": "3.0.2",
  "updatedAt": "2020-01-30T16:34:04.943Z",
  "devdoc": {
    "methods": {
      "isOwner()": {
        "return": "true if `msg.sender` is the owner of the contract."
      },
      "owner()": {
        "return": "the address of the owner."
      },
      "renounceOwnership()": {
        "details": "Allows the current owner to relinquish control of the contract."
      },
      "transferOwnership(address)": {
        "details": "Allows the current owner to transfer control of the contract to a newOwner.",
        "params": {
          "newOwner": "The address to transfer ownership to."
        }
      }
    }
  },
  "userdoc": {
    "methods": {
      "renounceOwnership()": {
        "notice": "Renouncing to ownership will leave the contract without an owner. It will not be possible to call the functions with the `onlyOwner` modifier anymore."
      }
    }
  }
}