{
  "contractName": "ResultHelper",
  "abi": [
    {
      "constant": true,
      "inputs": [
        {
          "name": "",
          "type": "uint256"
        }
      ],
      "name": "candidateVoteCount",
      "outputs": [
        {
          "name": "",
          "type": "uint256"
        }
      ],
      "payable": false,
      "stateMutability": "view",
      "type": "function"
    },
    {
      "constant": true,
      "inputs": [
        {
          "name": "",
          "type": "uint256"
        }
      ],
      "name": "idToConstituency",
      "outputs": [
        {
          "name": "_id",
          "type": "uint256"
        },
        {
          "name": "_startTime",
          "type": "uint256"
        },
        {
          "name": "_duration",
          "type": "uint256"
        }
      ],
      "payable": false,
      "stateMutability": "view",
      "type": "function"
    },
    {
      "constant": false,
      "inputs": [
        {
          "name": "_id",
          "type": "uint256"
        },
        {
          "name": "_constituencyId",
          "type": "uint256"
        },
        {
          "name": "_adminId",
          "type": "uint256"
        }
      ],
      "name": "assignCandidateToConstituency",
      "outputs": [],
      "payable": false,
      "stateMutability": "nonpayable",
      "type": "function"
    },
    {
      "constant": true,
      "inputs": [
        {
          "name": "",
          "type": "uint256"
        }
      ],
      "name": "candidateToConstituency",
      "outputs": [
        {
          "name": "",
          "type": "uint256"
        }
      ],
      "payable": false,
      "stateMutability": "view",
      "type": "function"
    },
    {
      "constant": true,
      "inputs": [
        {
          "name": "",
          "type": "uint256"
        }
      ],
      "name": "admins",
      "outputs": [
        {
          "name": "",
          "type": "uint256"
        }
      ],
      "payable": false,
      "stateMutability": "view",
      "type": "function"
    },
    {
      "constant": false,
      "inputs": [
        {
          "name": "_adminId",
          "type": "uint256"
        }
      ],
      "name": "getConstituencies",
      "outputs": [
        {
          "components": [
            {
              "name": "_id",
              "type": "uint256"
            },
            {
              "name": "_startTime",
              "type": "uint256"
            },
            {
              "name": "_duration",
              "type": "uint256"
            }
          ],
          "name": "",
          "type": "tuple[]"
        }
      ],
      "payable": false,
      "stateMutability": "nonpayable",
      "type": "function"
    },
    {
      "constant": false,
      "inputs": [
        {
          "name": "_id",
          "type": "uint256"
        },
        {
          "name": "_userId",
          "type": "uint256"
        }
      ],
      "name": "getConstituencyDetails",
      "outputs": [
        {
          "components": [
            {
              "name": "_id",
              "type": "uint256"
            },
            {
              "name": "_startTime",
              "type": "uint256"
            },
            {
              "name": "_duration",
              "type": "uint256"
            }
          ],
          "name": "",
          "type": "tuple"
        }
      ],
      "payable": false,
      "stateMutability": "nonpayable",
      "type": "function"
    },
    {
      "constant": false,
      "inputs": [
        {
          "name": "from",
          "type": "uint256"
        },
        {
          "name": "to",
          "type": "uint256"
        },
        {
          "name": "tokenId",
          "type": "uint256"
        }
      ],
      "name": "transferFrom",
      "outputs": [],
      "payable": false,
      "stateMutability": "nonpayable",
      "type": "function"
    },
    {
      "constant": true,
      "inputs": [
        {
          "name": "",
          "type": "uint256"
        }
      ],
      "name": "candidates",
      "outputs": [
        {
          "name": "_id",
          "type": "uint256"
        }
      ],
      "payable": false,
      "stateMutability": "view",
      "type": "function"
    },
    {
      "constant": true,
      "inputs": [
        {
          "name": "",
          "type": "uint256"
        }
      ],
      "name": "constituencyCandidateCount",
      "outputs": [
        {
          "name": "",
          "type": "uint256"
        }
      ],
      "payable": false,
      "stateMutability": "view",
      "type": "function"
    },
    {
      "constant": true,
      "inputs": [
        {
          "name": "",
          "type": "uint256"
        }
      ],
      "name": "voteToCandidate",
      "outputs": [
        {
          "name": "",
          "type": "uint256"
        }
      ],
      "payable": false,
      "stateMutability": "view",
      "type": "function"
    },
    {
      "constant": true,
      "inputs": [
        {
          "name": "",
          "type": "uint256"
        }
      ],
      "name": "idToCandidate",
      "outputs": [
        {
          "name": "_id",
          "type": "uint256"
        }
      ],
      "payable": false,
      "stateMutability": "view",
      "type": "function"
    },
    {
      "constant": false,
      "inputs": [],
      "name": "renounceOwnership",
      "outputs": [],
      "payable": false,
      "stateMutability": "nonpayable",
      "type": "function"
    },
    {
      "constant": false,
      "inputs": [
        {
          "name": "_constituencies",
          "type": "uint256[]"
        },
        {
          "name": "_adminId",
          "type": "uint256"
        }
      ],
      "name": "registerConstituencies",
      "outputs": [],
      "payable": false,
      "stateMutability": "nonpayable",
      "type": "function"
    },
    {
      "constant": true,
      "inputs": [],
      "name": "owner",
      "outputs": [
        {
          "name": "",
          "type": "address"
        }
      ],
      "payable": false,
      "stateMutability": "view",
      "type": "function"
    },
    {
      "constant": true,
      "inputs": [],
      "name": "isOwner",
      "outputs": [
        {
          "name": "",
          "type": "bool"
        }
      ],
      "payable": false,
      "stateMutability": "view",
      "type": "function"
    },
    {
      "constant": true,
      "inputs": [
        {
          "name": "",
          "type": "uint256"
        }
      ],
      "name": "constituencies",
      "outputs": [
        {
          "name": "_id",
          "type": "uint256"
        },
        {
          "name": "_startTime",
          "type": "uint256"
        },
        {
          "name": "_duration",
          "type": "uint256"
        }
      ],
      "payable": false,
      "stateMutability": "view",
      "type": "function"
    },
    {
      "constant": false,
      "inputs": [
        {
          "name": "_id",
          "type": "uint256"
        }
      ],
      "name": "registerAdmin",
      "outputs": [],
      "payable": false,
      "stateMutability": "nonpayable",
      "type": "function"
    },
    {
      "constant": true,
      "inputs": [],
      "name": "ResultsDeclared",
      "outputs": [
        {
          "name": "",
          "type": "bool"
        }
      ],
      "payable": false,
      "stateMutability": "view",
      "type": "function"
    },
    {
      "constant": true,
      "inputs": [
        {
          "name": "_constituencyId",
          "type": "uint256"
        },
        {
          "name": "_userId",
          "type": "uint256"
        }
      ],
      "name": "getCandidatesByConstituency",
      "outputs": [
        {
          "components": [
            {
              "name": "_id",
              "type": "uint256"
            }
          ],
          "name": "",
          "type": "tuple[]"
        }
      ],
      "payable": false,
      "stateMutability": "view",
      "type": "function"
    },
    {
      "constant": true,
      "inputs": [
        {
          "name": "",
          "type": "uint256"
        }
      ],
      "name": "voters",
      "outputs": [
        {
          "name": "_id",
          "type": "uint256"
        },
        {
          "name": "_constituencyId",
          "type": "uint256"
        },
        {
          "name": "_hasVoted",
          "type": "bool"
        },
        {
          "name": "_voteTime",
          "type": "uint256"
        },
        {
          "components": [
            {
              "name": "_voteId",
              "type": "uint256"
            }
          ],
          "name": "_vote",
          "type": "tuple"
        }
      ],
      "payable": false,
      "stateMutability": "view",
      "type": "function"
    },
    {
      "constant": false,
      "inputs": [
        {
          "name": "newOwner",
          "type": "address"
        }
      ],
      "name": "transferOwnership",
      "outputs": [],
      "payable": false,
      "stateMutability": "nonpayable",
      "type": "function"
    },
    {
      "constant": false,
      "inputs": [
        {
          "name": "_id",
          "type": "uint256"
        },
        {
          "name": "_duration",
          "type": "uint256"
        },
        {
          "name": "_adminId",
          "type": "uint256"
        }
      ],
      "name": "generateElectionforConstituency",
      "outputs": [],
      "payable": false,
      "stateMutability": "nonpayable",
      "type": "function"
    },
    {
      "constant": true,
      "inputs": [
        {
          "name": "",
          "type": "uint256"
        }
      ],
      "name": "idToVoter",
      "outputs": [
        {
          "name": "_id",
          "type": "uint256"
        },
        {
          "name": "_constituencyId",
          "type": "uint256"
        },
        {
          "name": "_hasVoted",
          "type": "bool"
        },
        {
          "name": "_voteTime",
          "type": "uint256"
        },
        {
          "components": [
            {
              "name": "_voteId",
              "type": "uint256"
            }
          ],
          "name": "_vote",
          "type": "tuple"
        }
      ],
      "payable": false,
      "stateMutability": "view",
      "type": "function"
    },
    {
      "anonymous": false,
      "inputs": [
        {
          "indexed": true,
          "name": "_from",
          "type": "uint256"
        },
        {
          "indexed": true,
          "name": "_to",
          "type": "uint256"
        },
        {
          "indexed": true,
          "name": "_tokenId",
          "type": "uint256"
        }
      ],
      "name": "Transfer",
      "type": "event"
    },
    {
      "anonymous": false,
      "inputs": [
        {
          "indexed": false,
          "name": "_id",
          "type": "uint256"
        },
        {
          "indexed": false,
          "name": "_constituencyId",
          "type": "uint256"
        }
      ],
      "name": "VoterCreated",
      "type": "event"
    },
    {
      "anonymous": false,
      "inputs": [
        {
          "indexed": false,
          "name": "_id",
          "type": "uint256"
        }
      ],
      "name": "CandidateRegistered",
      "type": "event"
    },
    {
      "anonymous": false,
      "inputs": [
        {
          "indexed": false,
          "name": "_id",
          "type": "uint256"
        }
      ],
      "name": "ConstituencyRegistered",
      "type": "event"
    },
    {
      "anonymous": false,
      "inputs": [
        {
          "indexed": true,
          "name": "previousOwner",
          "type": "address"
        },
        {
          "indexed": true,
          "name": "newOwner",
          "type": "address"
        }
      ],
      "name": "OwnershipTransferred",
      "type": "event"
    },
    {
      "constant": false,
      "inputs": [
        {
          "name": "_adminId",
          "type": "uint256"
        }
      ],
      "name": "declareResults",
      "outputs": [],
      "payable": false,
      "stateMutability": "nonpayable",
      "type": "function"
    },
    {
      "constant": true,
      "inputs": [
        {
          "name": "_constituencyId",
          "type": "uint256"
        },
        {
          "name": "_userId",
          "type": "uint256"
        }
      ],
      "name": "retreiveConstituencyVoteCount",
      "outputs": [
        {
          "name": "",
          "type": "uint32"
        }
      ],
      "payable": false,
      "stateMutability": "view",
      "type": "function"
    }
  ],
  "bytecode": "0x608060405260008060146101000a81548160ff021916908315150217905550336000806101000a81548173ffffffffffffffffffffffffffffffffffffffff021916908373ffffffffffffffffffffffffffffffffffffffff1602179055506000809054906101000a900473ffffffffffffffffffffffffffffffffffffffff1673ffffffffffffffffffffffffffffffffffffffff16600073ffffffffffffffffffffffffffffffffffffffff167f8be0079c531659141344cd1fd0a4f28419497f9722a3daafe3b4186f6b6457e060405160405180910390a360008060146101000a81548160ff021916908315150217905550611a74806101036000396000f3fe608060405260043610610154576000357c0100000000000000000000000000000000000000000000000000000000900463ffffffff16806301aa2e03146101595780630f80dcb01461019657806312d51c72146101d55780631471e0ab146101fe57806314bfd6d01461023b57806323dc5c6e1461027857806328975210146102a15780632fd23a3f146102de578063310ed7f01461031b5780633477ee2e146103445780633b04a6c91461038157806345dc9ad7146103be57806356be1658146103fb57806357e2ef1014610438578063715018a6146104755780637b013b941461048c5780638da5cb5b146104b55780638f32d59b146104e05780639209416a1461050b578063948452541461054a578063aa3e4e1c14610573578063bbc893a31461059e578063da58c7d9146105db578063f2fde38b1461061c578063f759006514610645578063f8c705711461066e575b600080fd5b34801561016557600080fd5b50610180600480360361017b91908101906115c5565b6106af565b60405161018d91906118bc565b60405180910390f35b3480156101a257600080fd5b506101bd60048036036101b891908101906115c5565b6106c7565b6040516101cc9392919061192a565b60405180910390f35b3480156101e157600080fd5b506101fc60048036036101f7919081019061162a565b6106f1565b005b34801561020a57600080fd5b50610225600480360361022091908101906115c5565b61078a565b60405161023291906118bc565b60405180910390f35b34801561024757600080fd5b50610262600480360361025d91908101906115c5565b6107a2565b60405161026f91906118bc565b60405180910390f35b34801561028457600080fd5b5061029f600480360361029a91908101906115c5565b6107c5565b005b3480156102ad57600080fd5b506102c860048036036102c391908101906115c5565b610832565b6040516102d59190611864565b60405180910390f35b3480156102ea57600080fd5b50610305600480360361030091908101906115ee565b610961565b60405161031291906118a1565b60405180910390f35b34801561032757600080fd5b50610342600480360361033d919081019061162a565b6109e2565b005b34801561035057600080fd5b5061036b600480360361036691908101906115c5565b610aee565b60405161037891906118bc565b60405180910390f35b34801561038d57600080fd5b506103a860048036036103a391908101906115c5565b610b17565b6040516103b591906118bc565b60405180910390f35b3480156103ca57600080fd5b506103e560048036036103e091908101906115ee565b610b2f565b6040516103f29190611961565b60405180910390f35b34801561040757600080fd5b50610422600480360361041d91908101906115c5565b610be6565b60405161042f91906118bc565b60405180910390f35b34801561044457600080fd5b5061045f600480360361045a91908101906115c5565b610bfe565b60405161046c91906118bc565b60405180910390f35b34801561048157600080fd5b5061048a610c1c565b005b34801561049857600080fd5b506104b360048036036104ae919081019061156d565b610cee565b005b3480156104c157600080fd5b506104ca610d7f565b6040516104d79190611827565b60405180910390f35b3480156104ec57600080fd5b506104f5610da8565b6040516105029190611886565b60405180910390f35b34801561051757600080fd5b50610532600480360361052d91908101906115c5565b610dff565b6040516105419392919061192a565b60405180910390f35b34801561055657600080fd5b50610571600480360361056c91908101906115c5565b610e38565b005b34801561057f57600080fd5b50610588610e7a565b6040516105959190611886565b60405180910390f35b3480156105aa57600080fd5b506105c560048036036105c091908101906115ee565b610e8d565b6040516105d29190611842565b60405180910390f35b3480156105e757600080fd5b5061060260048036036105fd91908101906115c5565b610fc4565b6040516106139594939291906118d7565b60405180910390f35b34801561062857600080fd5b50610643600480360361063e9190810190611544565b61102b565b005b34801561065157600080fd5b5061066c6004803603610667919081019061162a565b61104a565b005b34801561067a57600080fd5b50610695600480360361069091908101906115c5565b6110c8565b6040516106a69594939291906118d7565b60405180910390f35b60076020528060005260406000206000915090505481565b60036020528060005260406000206000915090508060000154908060010154908060020154905083565b8060008090505b600b805490508110156107835781600b8281548110151561071557fe5b90600052602060002001541415610770576107308584611120565b8360056000878152602001908152602001600020819055506006600085815260200190815260200160002060008154809291906001019190505550610775565b610776565b5b80806001019150506106f8565b5050505050565b60056020528060005260406000206000915090505481565b600b818154811015156107b157fe5b906000526020600020016000915090505481565b8060008090505b600b8054905081101561082d5781600b828154811015156107e957fe5b9060005260206000200154141561081a576001600060146101000a81548160ff02191690831515021790555061081f565b610820565b5b80806001019150506107cc565b505050565b60608160008090505b600b8054905081101561095a5781600b8281548110151561085857fe5b90600052602060002001541415610947576060600a805490506040519080825280602002602001820160405280156108aa57816020015b610897611478565b81526020019060019003908161088f5790505b509050600080905060008090505b600a8054905081101561093c57600a818154811015156108d457fe5b9060005260206000209060030201606060405190810160405290816000820154815260200160018201548152602001600282015481525050838381518110151561091a57fe5b90602001906020020181905250818060010192505080806001019150506108b8565b50819450505061094c565b61094d565b5b808060010191505061083b565b5050919050565b61096961149a565b81600060016000838152602001908152602001600020600001541415151561099057600080fd5b61099861149a565b600360008681526020019081526020016000206060604051908101604052908160008201548152602001600182015481526020016002820154815250509050809250505092915050565b826000600160008381526020019081526020016000206000015414151515610a0957600080fd5b60056000848152602001908152602001600020546001600086815260200190815260200160002060010154141515610a4057600080fd5b600060016000868152602001908152602001600020905060018160020160006101000a81548160ff02191690831515021790555042816003018190555083600460008781526020019081526020016000208190555060076000858152602001908152602001600020600081548092919060010191905055508284867faf6151f5085accf2d57e1e7bf7601d3b3982e0de7e9a90f032f8554de9c104f660405160405180910390a45050505050565b600981815481101515610afd57fe5b906000526020600020016000915090508060000154905081565b60066020528060005260406000206000915090505481565b600060011515600060149054906101000a900460ff161515141515610b5357600080fd5b816000600160008381526020019081526020016000206000015414151515610b7a57600080fd5b6060610b868585610e8d565b9050600080600090505b8251811015610bd957600760008483815181101515610bab57fe5b9060200190602002015160000151815260200190815260200160002054820191508080600101915050610b90565b5080935050505092915050565b60046020528060005260406000206000915090505481565b60026020528060005260406000206000915090508060000154905081565b610c24610da8565b1515610c2f57600080fd5b600073ffffffffffffffffffffffffffffffffffffffff166000809054906101000a900473ffffffffffffffffffffffffffffffffffffffff1673ffffffffffffffffffffffffffffffffffffffff167f8be0079c531659141344cd1fd0a4f28419497f9722a3daafe3b4186f6b6457e060405160405180910390a360008060006101000a81548173ffffffffffffffffffffffffffffffffffffffff021916908373ffffffffffffffffffffffffffffffffffffffff160217905550565b8060008090505b600b80549050811015610d785781600b82815481101515610d1257fe5b90600052602060002001541415610d655760008090505b85859050811015610d5f57610d528686838181101515610d4557fe5b9050602002013585611230565b8080600101915050610d29565b50610d6a565b610d6b565b5b8080600101915050610cf5565b5050505050565b60008060009054906101000a900473ffffffffffffffffffffffffffffffffffffffff16905090565b60008060009054906101000a900473ffffffffffffffffffffffffffffffffffffffff1673ffffffffffffffffffffffffffffffffffffffff163373ffffffffffffffffffffffffffffffffffffffff1614905090565b600a81815481101515610e0e57fe5b90600052602060002090600302016000915090508060000154908060010154908060020154905083565b610e40610da8565b1515610e4b57600080fd5b600b81908060018154018082558091505090600182039060005260206000200160009091929091909150555050565b600060149054906101000a900460ff1681565b6060816000600160008381526020019081526020016000206000015414151515610eb657600080fd5b60606006600086815260200190815260200160002054604051908082528060200260200182016040528015610f0557816020015b610ef26114bc565b815260200190600190039081610eea5790505b509050600080905060008090505b600980549050811015610fb7578660056000600984815481101515610f3457fe5b90600052602060002001600001548152602001908152602001600020541415610faa57600981815481101515610f6657fe5b90600052602060002001602060405190810160405290816000820154815250508383815181101515610f9457fe5b9060200190602002018190525081806001019250505b8080600101915050610f13565b5081935050505092915050565b600881815481101515610fd357fe5b90600052602060002090600502016000915090508060000154908060010154908060020160009054906101000a900460ff16908060030154908060040160206040519081016040529081600082015481525050905085565b611033610da8565b151561103e57600080fd5b6110478161137e565b50565b8060008090505b600b805490508110156110c15781600b8281548110151561106e57fe5b906000526020600020015414156110ae576000600360008781526020019081526020016000209050428160010181905550848160020181905550506110b3565b6110b4565b5b8080600101915050611051565b5050505050565b60016020528060005260406000206000915090508060000154908060010154908060020160009054906101000a900460ff16908060030154908060040160206040519081016040529081600082015481525050905085565b8060008090505b600b8054905081101561122a5781600b8281548110151561114457fe5b9060005260206000200154141561121757600060016009602060405190810160405280888152509080600181540180825580915050906001820390600052602060002001600090919290919091506000820151816000015550500390506009818154811015156111b057fe5b9060005260206000200160026000878152602001908152602001600020600082015481600001559050507f43dcee486fabffa2fb551555bfaa5bfcf6a42f2d014032ccef94bf09d83855eb8560405161120991906118bc565b60405180910390a15061121c565b61121d565b5b8080600101915050611127565b50505050565b8060008090505b600b805490508110156113785781600b8281548110151561125457fe5b906000526020600020015414156113655760006001600a606060405190810160405280888152602001600081526020016000815250908060018154018082558091505090600182039060005260206000209060030201600090919290919091506000820151816000015560208201518160010155604082015181600201555050039050600a818154811015156112e657fe5b9060005260206000209060030201600360008781526020019081526020016000206000820154816000015560018201548160010155600282015481600201559050507f21db1a92fb8efb483c22a581ee7e282b6d79d9d43b559ee1affa3418188679698560405161135791906118bc565b60405180910390a15061136a565b61136b565b5b8080600101915050611237565b50505050565b600073ffffffffffffffffffffffffffffffffffffffff168173ffffffffffffffffffffffffffffffffffffffff16141515156113ba57600080fd5b8073ffffffffffffffffffffffffffffffffffffffff166000809054906101000a900473ffffffffffffffffffffffffffffffffffffffff1673ffffffffffffffffffffffffffffffffffffffff167f8be0079c531659141344cd1fd0a4f28419497f9722a3daafe3b4186f6b6457e060405160405180910390a3806000806101000a81548173ffffffffffffffffffffffffffffffffffffffff021916908373ffffffffffffffffffffffffffffffffffffffff16021790555050565b6060604051908101604052806000815260200160008152602001600081525090565b6060604051908101604052806000815260200160008152602001600081525090565b602060405190810160405280600081525090565b60006114dc8235611a1e565b905092915050565b60008083601f84011215156114f857600080fd5b8235905067ffffffffffffffff81111561151157600080fd5b60208301915083602082028301111561152957600080fd5b9250929050565b600061153c8235611a30565b905092915050565b60006020828403121561155657600080fd5b6000611564848285016114d0565b91505092915050565b60008060006040848603121561158257600080fd5b600084013567ffffffffffffffff81111561159c57600080fd5b6115a8868287016114e4565b935093505060206115bb86828701611530565b9150509250925092565b6000602082840312156115d757600080fd5b60006115e584828501611530565b91505092915050565b6000806040838503121561160157600080fd5b600061160f85828601611530565b925050602061162085828601611530565b9150509250929050565b60008060006060848603121561163f57600080fd5b600061164d86828701611530565b935050602061165e86828701611530565b925050604061166f86828701611530565b9150509250925092565b611682816119c6565b82525050565b600061169382611996565b8084526020840193506116a58361197c565b60005b828110156116d7576116bb86835161174d565b6116c4826119ac565b91506020860195506001810190506116a8565b50849250505092915050565b60006116ee826119a1565b80845260208401935061170083611989565b60005b82811015611732576117168683516117ab565b61171f826119b9565b9150606086019550600181019050611703565b50849250505092915050565b611747816119d8565b82525050565b6020820160008201516117636000850182611809565b50505050565b60608201600082015161177f6000850182611809565b5060208201516117926020850182611809565b5060408201516117a56040850182611809565b50505050565b6060820160008201516117c16000850182611809565b5060208201516117d46020850182611809565b5060408201516117e76040850182611809565b50505050565b6020820160008201516118036000850182611809565b50505050565b61181281611a04565b82525050565b61182181611a0e565b82525050565b600060208201905061183c6000830184611679565b92915050565b6000602082019050818103600083015261185c8184611688565b905092915050565b6000602082019050818103600083015261187e81846116e3565b905092915050565b600060208201905061189b600083018461173e565b92915050565b60006060820190506118b66000830184611769565b92915050565b60006020820190506118d16000830184611809565b92915050565b600060a0820190506118ec6000830188611809565b6118f96020830187611809565b611906604083018661173e565b6119136060830185611809565b61192060808301846117ed565b9695505050505050565b600060608201905061193f6000830186611809565b61194c6020830185611809565b6119596040830184611809565b949350505050565b60006020820190506119766000830184611818565b92915050565b6000602082019050919050565b6000602082019050919050565b600081519050919050565b600081519050919050565b6000602082019050919050565b6000602082019050919050565b60006119d1826119e4565b9050919050565b60008115159050919050565b600073ffffffffffffffffffffffffffffffffffffffff82169050919050565b6000819050919050565b600063ffffffff82169050919050565b6000611a29826119e4565b9050919050565b600081905091905056fea265627a7a723058207665810c5db3db2bee053eb75caf23743c60597996179360a05f1d8e7ba55b436c6578706572696d656e74616cf50037",
  "source": "pragma solidity ^0.5.0;\npragma experimental ABIEncoderV2;\n\nimport \"./VotingTransactions.sol\";\n\ncontract ResultHelper is VotingTransactions{\n\n    function declareResults(uint256 _adminId) external onlyAdmin(_adminId) {\n        ResultsDeclared = true;\n    }\n\n    function retreiveConstituencyVoteCount(uint256 _constituencyId, uint256 _userId) external view declaredResults onlyUser(_userId) returns(uint32) {\n        Candidate[] memory _candidates = getCandidatesByConstituency(_constituencyId,_userId);\n        uint32 _votes;\n        for (uint i = 0; i < _candidates.length; i++) {\n            _votes = _votes + uint32(candidateVoteCount[_candidates[i]._id]);\n        }\n\n        return _votes;\n    }\n}",
  "sourcePath": "/home/d3mon/Projects/sudo-rm--rf/contracts/ResultHelper.sol",
  "compiler": {
    "name": "solc",
    "version": "0.5.0+commit.1d4f565a.Emscripten.clang"
  },
  "schemaVersion": "3.0.2",
  "updatedAt": "2020-02-04T18:02:43.310Z",
  "devdoc": {
    "methods": {
      "isOwner()": {
        "return": "true if `msg.sender` is the owner of the contract."
      },
      "owner()": {
        "return": "the address of the owner."
      },
      "renounceOwnership()": {
        "details": "Allows the current owner to relinquish control of the contract."
      },
      "transferOwnership(address)": {
        "details": "Allows the current owner to transfer control of the contract to a newOwner.",
        "params": {
          "newOwner": "The address to transfer ownership to."
        }
      }
    }
  },
  "userdoc": {
    "methods": {
      "renounceOwnership()": {
        "notice": "Renouncing to ownership will leave the contract without an owner. It will not be possible to call the functions with the `onlyOwner` modifier anymore."
      }
    }
  }
}