{
  "contractName": "ResultHelper",
  "abi": [
    {
      "constant": true,
      "inputs": [
        {
          "name": "",
          "type": "uint256"
        }
      ],
      "name": "candidateVoteCount",
      "outputs": [
        {
          "name": "",
          "type": "uint256"
        }
      ],
      "payable": false,
      "stateMutability": "view",
      "type": "function"
    },
    {
      "constant": true,
      "inputs": [
        {
          "name": "",
          "type": "uint256"
        }
      ],
      "name": "idToConstituency",
      "outputs": [
        {
          "name": "_id",
          "type": "uint256"
        },
        {
          "name": "_startTime",
          "type": "uint256"
        },
        {
          "name": "_duration",
          "type": "uint256"
        }
      ],
      "payable": false,
      "stateMutability": "view",
      "type": "function"
    },
    {
      "constant": false,
      "inputs": [
        {
          "name": "_id",
          "type": "uint256"
        },
        {
          "name": "_constituencyId",
          "type": "uint256"
        },
        {
          "name": "_adminId",
          "type": "uint256"
        }
      ],
      "name": "assignCandidateToConstituency",
      "outputs": [],
      "payable": false,
      "stateMutability": "nonpayable",
      "type": "function"
    },
    {
      "constant": true,
      "inputs": [
        {
          "name": "",
          "type": "uint256"
        }
      ],
      "name": "candidateToConstituency",
      "outputs": [
        {
          "name": "",
          "type": "uint256"
        }
      ],
      "payable": false,
      "stateMutability": "view",
      "type": "function"
    },
    {
      "constant": true,
      "inputs": [
        {
          "name": "",
          "type": "uint256"
        }
      ],
      "name": "admins",
      "outputs": [
        {
          "name": "",
          "type": "uint256"
        }
      ],
      "payable": false,
      "stateMutability": "view",
      "type": "function"
    },
    {
      "constant": false,
      "inputs": [
        {
          "name": "_adminId",
          "type": "uint256"
        }
      ],
      "name": "getConstituencies",
      "outputs": [
        {
          "components": [
            {
              "name": "_id",
              "type": "uint256"
            },
            {
              "name": "_startTime",
              "type": "uint256"
            },
            {
              "name": "_duration",
              "type": "uint256"
            }
          ],
          "name": "",
          "type": "tuple[]"
        }
      ],
      "payable": false,
      "stateMutability": "nonpayable",
      "type": "function"
    },
    {
      "constant": false,
      "inputs": [
        {
          "name": "_id",
          "type": "uint256"
        },
        {
          "name": "_userId",
          "type": "uint256"
        }
      ],
      "name": "getConstituencyDetails",
      "outputs": [
        {
          "components": [
            {
              "name": "_id",
              "type": "uint256"
            },
            {
              "name": "_startTime",
              "type": "uint256"
            },
            {
              "name": "_duration",
              "type": "uint256"
            }
          ],
          "name": "",
          "type": "tuple"
        }
      ],
      "payable": false,
      "stateMutability": "nonpayable",
      "type": "function"
    },
    {
      "constant": true,
      "inputs": [
        {
          "name": "",
          "type": "uint256"
        }
      ],
      "name": "candidates",
      "outputs": [
        {
          "name": "_id",
          "type": "uint256"
        }
      ],
      "payable": false,
      "stateMutability": "view",
      "type": "function"
    },
    {
      "constant": false,
      "inputs": [
        {
          "name": "_id",
          "type": "uint256"
        },
        {
          "name": "_adminId",
          "type": "uint256"
        }
      ],
      "name": "registerConstituency",
      "outputs": [],
      "payable": false,
      "stateMutability": "nonpayable",
      "type": "function"
    },
    {
      "constant": true,
      "inputs": [
        {
          "name": "",
          "type": "uint256"
        }
      ],
      "name": "constituencyCandidateCount",
      "outputs": [
        {
          "name": "",
          "type": "uint256"
        }
      ],
      "payable": false,
      "stateMutability": "view",
      "type": "function"
    },
    {
      "constant": false,
      "inputs": [
        {
          "name": "from",
          "type": "uint256"
        },
        {
          "name": "to",
          "type": "uint256"
        },
        {
          "name": "tokenId",
          "type": "bytes32"
        }
      ],
      "name": "transferFrom",
      "outputs": [],
      "payable": false,
      "stateMutability": "nonpayable",
      "type": "function"
    },
    {
      "constant": true,
      "inputs": [
        {
          "name": "",
          "type": "uint256"
        }
      ],
      "name": "voteToCandidate",
      "outputs": [
        {
          "name": "",
          "type": "uint256"
        }
      ],
      "payable": false,
      "stateMutability": "view",
      "type": "function"
    },
    {
      "constant": true,
      "inputs": [
        {
          "name": "",
          "type": "uint256"
        }
      ],
      "name": "idToCandidate",
      "outputs": [
        {
          "name": "_id",
          "type": "uint256"
        }
      ],
      "payable": false,
      "stateMutability": "view",
      "type": "function"
    },
    {
      "constant": false,
      "inputs": [
        {
          "name": "_id",
          "type": "uint256"
        },
        {
          "name": "_adminId",
          "type": "uint256"
        }
      ],
      "name": "registerCandidate",
      "outputs": [],
      "payable": false,
      "stateMutability": "nonpayable",
      "type": "function"
    },
    {
      "constant": false,
      "inputs": [],
      "name": "renounceOwnership",
      "outputs": [],
      "payable": false,
      "stateMutability": "nonpayable",
      "type": "function"
    },
    {
      "constant": true,
      "inputs": [],
      "name": "owner",
      "outputs": [
        {
          "name": "",
          "type": "address"
        }
      ],
      "payable": false,
      "stateMutability": "view",
      "type": "function"
    },
    {
      "constant": true,
      "inputs": [],
      "name": "isOwner",
      "outputs": [
        {
          "name": "",
          "type": "bool"
        }
      ],
      "payable": false,
      "stateMutability": "view",
      "type": "function"
    },
    {
      "constant": true,
      "inputs": [
        {
          "name": "",
          "type": "uint256"
        }
      ],
      "name": "constituencies",
      "outputs": [
        {
          "name": "_id",
          "type": "uint256"
        },
        {
          "name": "_startTime",
          "type": "uint256"
        },
        {
          "name": "_duration",
          "type": "uint256"
        }
      ],
      "payable": false,
      "stateMutability": "view",
      "type": "function"
    },
    {
      "constant": false,
      "inputs": [
        {
          "name": "_id",
          "type": "uint256"
        }
      ],
      "name": "registerAdmin",
      "outputs": [],
      "payable": false,
      "stateMutability": "nonpayable",
      "type": "function"
    },
    {
      "constant": true,
      "inputs": [],
      "name": "ResultsDeclared",
      "outputs": [
        {
          "name": "",
          "type": "bool"
        }
      ],
      "payable": false,
      "stateMutability": "view",
      "type": "function"
    },
    {
      "constant": true,
      "inputs": [
        {
          "name": "_constituencyId",
          "type": "uint256"
        },
        {
          "name": "_userId",
          "type": "uint256"
        }
      ],
      "name": "getCandidatesByConstituency",
      "outputs": [
        {
          "components": [
            {
              "name": "_id",
              "type": "uint256"
            }
          ],
          "name": "",
          "type": "tuple[]"
        }
      ],
      "payable": false,
      "stateMutability": "view",
      "type": "function"
    },
    {
      "constant": true,
      "inputs": [
        {
          "name": "",
          "type": "uint256"
        }
      ],
      "name": "voters",
      "outputs": [
        {
          "name": "_id",
          "type": "uint256"
        },
        {
          "name": "_constituencyId",
          "type": "uint256"
        },
        {
          "name": "_hasVoted",
          "type": "bool"
        },
        {
          "components": [
            {
              "name": "_voteId",
              "type": "uint256"
            },
            {
              "name": "_votedId",
              "type": "uint256"
            },
            {
              "name": "_voteTime",
              "type": "uint64"
            }
          ],
          "name": "_vote",
          "type": "tuple"
        }
      ],
      "payable": false,
      "stateMutability": "view",
      "type": "function"
    },
    {
      "constant": false,
      "inputs": [
        {
          "name": "newOwner",
          "type": "address"
        }
      ],
      "name": "transferOwnership",
      "outputs": [],
      "payable": false,
      "stateMutability": "nonpayable",
      "type": "function"
    },
    {
      "constant": false,
      "inputs": [
        {
          "name": "_id",
          "type": "uint256"
        },
        {
          "name": "_duration",
          "type": "uint256"
        },
        {
          "name": "_adminId",
          "type": "uint256"
        }
      ],
      "name": "generateElectionforConstituency",
      "outputs": [],
      "payable": false,
      "stateMutability": "nonpayable",
      "type": "function"
    },
    {
      "constant": true,
      "inputs": [
        {
          "name": "",
          "type": "uint256"
        }
      ],
      "name": "idToVoter",
      "outputs": [
        {
          "name": "_id",
          "type": "uint256"
        },
        {
          "name": "_constituencyId",
          "type": "uint256"
        },
        {
          "name": "_hasVoted",
          "type": "bool"
        },
        {
          "components": [
            {
              "name": "_voteId",
              "type": "uint256"
            },
            {
              "name": "_votedId",
              "type": "uint256"
            },
            {
              "name": "_voteTime",
              "type": "uint64"
            }
          ],
          "name": "_vote",
          "type": "tuple"
        }
      ],
      "payable": false,
      "stateMutability": "view",
      "type": "function"
    },
    {
      "anonymous": false,
      "inputs": [
        {
          "indexed": true,
          "name": "_from",
          "type": "uint256"
        },
        {
          "indexed": true,
          "name": "_to",
          "type": "uint256"
        },
        {
          "indexed": true,
          "name": "_tokenId",
          "type": "bytes32"
        }
      ],
      "name": "Transfer",
      "type": "event"
    },
    {
      "anonymous": false,
      "inputs": [
        {
          "indexed": false,
          "name": "_id",
          "type": "uint256"
        },
        {
          "indexed": false,
          "name": "_constituencyId",
          "type": "uint256"
        }
      ],
      "name": "VoterCreated",
      "type": "event"
    },
    {
      "anonymous": false,
      "inputs": [
        {
          "indexed": false,
          "name": "_id",
          "type": "uint256"
        }
      ],
      "name": "CandidateRegistered",
      "type": "event"
    },
    {
      "anonymous": false,
      "inputs": [
        {
          "indexed": false,
          "name": "_id",
          "type": "uint256"
        }
      ],
      "name": "ConstituencyRegistered",
      "type": "event"
    },
    {
      "anonymous": false,
      "inputs": [
        {
          "indexed": true,
          "name": "previousOwner",
          "type": "address"
        },
        {
          "indexed": true,
          "name": "newOwner",
          "type": "address"
        }
      ],
      "name": "OwnershipTransferred",
      "type": "event"
    },
    {
      "constant": false,
      "inputs": [
        {
          "name": "_adminId",
          "type": "uint256"
        }
      ],
      "name": "declareResults",
      "outputs": [],
      "payable": false,
      "stateMutability": "nonpayable",
      "type": "function"
    },
    {
      "constant": true,
      "inputs": [
        {
          "name": "_constituencyId",
          "type": "uint256"
        },
        {
          "name": "_userId",
          "type": "uint256"
        }
      ],
      "name": "retreiveConstituencyVoteCount",
      "outputs": [
        {
          "name": "",
          "type": "uint32"
        }
      ],
      "payable": false,
      "stateMutability": "view",
      "type": "function"
    }
  ],
  "bytecode": "0x608060405260008060146101000a81548160ff021916908315150217905550336000806101000a81548173ffffffffffffffffffffffffffffffffffffffff021916908373ffffffffffffffffffffffffffffffffffffffff1602179055506000809054906101000a900473ffffffffffffffffffffffffffffffffffffffff1673ffffffffffffffffffffffffffffffffffffffff16600073ffffffffffffffffffffffffffffffffffffffff167f8be0079c531659141344cd1fd0a4f28419497f9722a3daafe3b4186f6b6457e060405160405180910390a360008060146101000a81548160ff021916908315150217905550611b99806101036000396000f3fe60806040526004361061015f576000357c0100000000000000000000000000000000000000000000000000000000900463ffffffff16806301aa2e03146101645780630f80dcb0146101a157806312d51c72146101e05780631471e0ab1461020957806314bfd6d01461024657806323dc5c6e1461028357806328975210146102ac5780632fd23a3f146102e95780633477ee2e146103265780633acab52f146103635780633b04a6c91461038c5780633ba8b3ff146103c957806345dc9ad7146103f257806356be16581461042f57806357e2ef101461046c5780635d6e5052146104a9578063715018a6146104d25780638da5cb5b146104e95780638f32d59b146105145780639209416a1461053f578063948452541461057e578063aa3e4e1c146105a7578063bbc893a3146105d2578063da58c7d91461060f578063f2fde38b1461064f578063f759006514610678578063f8c70571146106a1575b600080fd5b34801561017057600080fd5b5061018b60048036036101869190810190611656565b6106e1565b60405161019891906119d1565b60405180910390f35b3480156101ad57600080fd5b506101c860048036036101c39190810190611656565b6106f9565b6040516101d793929190611a31565b60405180910390f35b3480156101ec57600080fd5b506102076004803603610202919081019061170a565b610723565b005b34801561021557600080fd5b50610230600480360361022b9190810190611656565b6107b2565b60405161023d91906119d1565b60405180910390f35b34801561025257600080fd5b5061026d60048036036102689190810190611656565b6107ca565b60405161027a91906119d1565b60405180910390f35b34801561028f57600080fd5b506102aa60048036036102a59190810190611656565b6107ed565b005b3480156102b857600080fd5b506102d360048036036102ce9190810190611656565b61085a565b6040516102e09190611979565b60405180910390f35b3480156102f557600080fd5b50610310600480360361030b919081019061167f565b610989565b60405161031d91906119b6565b60405180910390f35b34801561033257600080fd5b5061034d60048036036103489190810190611656565b610a0a565b60405161035a91906119d1565b60405180910390f35b34801561036f57600080fd5b5061038a6004803603610385919081019061167f565b610a33565b005b34801561039857600080fd5b506103b360048036036103ae9190810190611656565b610b81565b6040516103c091906119d1565b60405180910390f35b3480156103d557600080fd5b506103f060048036036103eb91908101906116bb565b610b99565b005b3480156103fe57600080fd5b506104196004803603610414919081019061167f565b610d34565b6040516104269190611a68565b60405180910390f35b34801561043b57600080fd5b5061045660048036036104519190810190611656565b610deb565b60405161046391906119d1565b60405180910390f35b34801561047857600080fd5b50610493600480360361048e9190810190611656565b610e03565b6040516104a091906119d1565b60405180910390f35b3480156104b557600080fd5b506104d060048036036104cb919081019061167f565b610e21565b005b3480156104de57600080fd5b506104e7610f31565b005b3480156104f557600080fd5b506104fe611003565b60405161050b919061193c565b60405180910390f35b34801561052057600080fd5b5061052961102c565b604051610536919061199b565b60405180910390f35b34801561054b57600080fd5b5061056660048036036105619190810190611656565b611083565b60405161057593929190611a31565b60405180910390f35b34801561058a57600080fd5b506105a560048036036105a09190810190611656565b6110bc565b005b3480156105b357600080fd5b506105bc6110fe565b6040516105c9919061199b565b60405180910390f35b3480156105de57600080fd5b506105f960048036036105f4919081019061167f565b611111565b6040516106069190611957565b60405180910390f35b34801561061b57600080fd5b5061063660048036036106319190810190611656565b611248565b60405161064694939291906119ec565b60405180910390f35b34801561065b57600080fd5b506106766004803603610671919081019061162d565b6112e5565b005b34801561068457600080fd5b5061069f600480360361069a919081019061170a565b611304565b005b3480156106ad57600080fd5b506106c860048036036106c39190810190611656565b6113b4565b6040516106d894939291906119ec565b60405180910390f35b60076020528060005260406000206000915090505481565b60036020528060005260406000206000915090508060000154908060010154908060020154905083565b8060008090505b600b805490508110156107ab5781600b8281548110151561074757fe5b9060005260206000200154141561079857836005600087815260200190815260200160002081905550600660008581526020019081526020016000206000815480929190600101919050555061079d565b61079e565b5b808060010191505061072a565b5050505050565b60056020528060005260406000206000915090505481565b600b818154811015156107d957fe5b906000526020600020016000915090505481565b8060008090505b600b805490508110156108555781600b8281548110151561081157fe5b90600052602060002001541415610842576001600060146101000a81548160ff021916908315150217905550610847565b610848565b5b80806001019150506107f4565b505050565b60608160008090505b600b805490508110156109825781600b8281548110151561088057fe5b9060005260206000200154141561096f576060600a805490506040519080825280602002602001820160405280156108d257816020015b6108bf61153c565b8152602001906001900390816108b75790505b509050600080905060008090505b600a8054905081101561096457600a818154811015156108fc57fe5b9060005260206000209060030201606060405190810160405290816000820154815260200160018201548152602001600282015481525050838381518110151561094257fe5b90602001906020020181905250818060010192505080806001019150506108e0565b508194505050610974565b610975565b5b8080600101915050610863565b5050919050565b61099161155e565b8160006001600083815260200190815260200160002060000154141515156109b857600080fd5b6109c061155e565b600360008681526020019081526020016000206060604051908101604052908160008201548152602001600182015481526020016002820154815250509050809250505092915050565b600981815481101515610a1957fe5b906000526020600020016000915090508060000154905081565b8060008090505b600b80549050811015610b7b5781600b82815481101515610a5757fe5b90600052602060002001541415610b685760006001600a606060405190810160405280888152602001600081526020016000815250908060018154018082558091505090600182039060005260206000209060030201600090919290919091506000820151816000015560208201518160010155604082015181600201555050039050600a81815481101515610ae957fe5b9060005260206000209060030201600360008781526020019081526020016000206000820154816000015560018201548160010155600282015481600201559050507f21db1a92fb8efb483c22a581ee7e282b6d79d9d43b559ee1affa34181886796985604051610b5a91906119d1565b60405180910390a150610b6d565b610b6e565b5b8080600101915050610a3a565b50505050565b60066020528060005260406000206000915090505481565b826000600160008381526020019081526020016000206000015414151515610bc057600080fd5b60056000848152602001908152602001600020546001600086815260200190815260200160002060010154141515610bf757600080fd5b610bff611580565b600160008681526020019081526020016000206080604051908101604052908160008201548152602001600182015481526020016002820160009054906101000a900460ff16151515158152602001600382016060604051908101604052908160008201548152602001600182015481526020016002820160009054906101000a900467ffffffffffffffff1667ffffffffffffffff1667ffffffffffffffff16815250508152505090506001816040019015159081151581525050836004600083606001516000015181526020019081526020016000208190555060076000858152602001908152602001600020600081548092919060010191905055508284867f612c500cbd8f1ed8a4643cbf6b41fda92203645d7e4f7c3a237a1be69565ea2c60405160405180910390a45050505050565b600060011515600060149054906101000a900460ff161515141515610d5857600080fd5b816000600160008381526020019081526020016000206000015414151515610d7f57600080fd5b6060610d8b8585611111565b9050600080600090505b8251811015610dde57600760008483815181101515610db057fe5b9060200190602002015160000151815260200190815260200160002054820191508080600101915050610d95565b5080935050505092915050565b60046020528060005260406000206000915090505481565b60026020528060005260406000206000915090508060000154905081565b8060008090505b600b80549050811015610f2b5781600b82815481101515610e4557fe5b90600052602060002001541415610f185760006001600960206040519081016040528088815250908060018154018082558091505090600182039060005260206000200160009091929091909150600082015181600001555050039050600981815481101515610eb157fe5b9060005260206000200160026000878152602001908152602001600020600082015481600001559050507f43dcee486fabffa2fb551555bfaa5bfcf6a42f2d014032ccef94bf09d83855eb85604051610f0a91906119d1565b60405180910390a150610f1d565b610f1e565b5b8080600101915050610e28565b50505050565b610f3961102c565b1515610f4457600080fd5b600073ffffffffffffffffffffffffffffffffffffffff166000809054906101000a900473ffffffffffffffffffffffffffffffffffffffff1673ffffffffffffffffffffffffffffffffffffffff167f8be0079c531659141344cd1fd0a4f28419497f9722a3daafe3b4186f6b6457e060405160405180910390a360008060006101000a81548173ffffffffffffffffffffffffffffffffffffffff021916908373ffffffffffffffffffffffffffffffffffffffff160217905550565b60008060009054906101000a900473ffffffffffffffffffffffffffffffffffffffff16905090565b60008060009054906101000a900473ffffffffffffffffffffffffffffffffffffffff1673ffffffffffffffffffffffffffffffffffffffff163373ffffffffffffffffffffffffffffffffffffffff1614905090565b600a8181548110151561109257fe5b90600052602060002090600302016000915090508060000154908060010154908060020154905083565b6110c461102c565b15156110cf57600080fd5b600b81908060018154018082558091505090600182039060005260206000200160009091929091909150555050565b600060149054906101000a900460ff1681565b606081600060016000838152602001908152602001600020600001541415151561113a57600080fd5b6060600660008681526020019081526020016000205460405190808252806020026020018201604052801561118957816020015b6111766115b1565b81526020019060019003908161116e5790505b509050600080905060008090505b60098054905081101561123b5786600560006009848154811015156111b857fe5b9060005260206000200160000154815260200190815260200160002054141561122e576009818154811015156111ea57fe5b9060005260206000200160206040519081016040529081600082015481525050838381518110151561121857fe5b9060200190602002018190525081806001019250505b8080600101915050611197565b5081935050505092915050565b60088181548110151561125757fe5b90600052602060002090600602016000915090508060000154908060010154908060020160009054906101000a900460ff1690806003016060604051908101604052908160008201548152602001600182015481526020016002820160009054906101000a900467ffffffffffffffff1667ffffffffffffffff1667ffffffffffffffff1681525050905084565b6112ed61102c565b15156112f857600080fd5b61130181611442565b50565b8060008090505b600b805490508110156113ad5781600b8281548110151561132857fe5b9060005260206000200154141561139a5761134161155e565b60036000878152602001908152602001600020606060405190810160405290816000820154815260200160018201548152602001600282015481525050905042816020018181525050848160400181815250505061139f565b6113a0565b5b808060010191505061130b565b5050505050565b60016020528060005260406000206000915090508060000154908060010154908060020160009054906101000a900460ff1690806003016060604051908101604052908160008201548152602001600182015481526020016002820160009054906101000a900467ffffffffffffffff1667ffffffffffffffff1667ffffffffffffffff1681525050905084565b600073ffffffffffffffffffffffffffffffffffffffff168173ffffffffffffffffffffffffffffffffffffffff161415151561147e57600080fd5b8073ffffffffffffffffffffffffffffffffffffffff166000809054906101000a900473ffffffffffffffffffffffffffffffffffffffff1673ffffffffffffffffffffffffffffffffffffffff167f8be0079c531659141344cd1fd0a4f28419497f9722a3daafe3b4186f6b6457e060405160405180910390a3806000806101000a81548173ffffffffffffffffffffffffffffffffffffffff021916908373ffffffffffffffffffffffffffffffffffffffff16021790555050565b6060604051908101604052806000815260200160008152602001600081525090565b6060604051908101604052806000815260200160008152602001600081525090565b60c06040519081016040528060008152602001600081526020016000151581526020016115ab6115c5565b81525090565b602060405190810160405280600081525090565b6060604051908101604052806000815260200160008152602001600067ffffffffffffffff1681525090565b60006115fd8235611b39565b905092915050565b60006116118235611b4b565b905092915050565b60006116258235611b55565b905092915050565b60006020828403121561163f57600080fd5b600061164d848285016115f1565b91505092915050565b60006020828403121561166857600080fd5b600061167684828501611619565b91505092915050565b6000806040838503121561169257600080fd5b60006116a085828601611619565b92505060206116b185828601611619565b9150509250929050565b6000806000606084860312156116d057600080fd5b60006116de86828701611619565b93505060206116ef86828701611619565b925050604061170086828701611605565b9150509250925092565b60008060006060848603121561171f57600080fd5b600061172d86828701611619565b935050602061173e86828701611619565b925050604061174f86828701611619565b9150509250925092565b61176281611acd565b82525050565b600061177382611a9d565b80845260208401935061178583611a83565b60005b828110156117b75761179b86835161182d565b6117a482611ab3565b9150602086019550600181019050611788565b50849250505092915050565b60006117ce82611aa8565b8084526020840193506117e083611a90565b60005b82811015611812576117f686835161188b565b6117ff82611ac0565b91506060860195506001810190506117e3565b50849250505092915050565b61182781611adf565b82525050565b602082016000820151611843600085018261190f565b50505050565b60608201600082015161185f600085018261190f565b506020820151611872602085018261190f565b506040820151611885604085018261190f565b50505050565b6060820160008201516118a1600085018261190f565b5060208201516118b4602085018261190f565b5060408201516118c7604085018261190f565b50505050565b6060820160008201516118e3600085018261190f565b5060208201516118f6602085018261190f565b506040820151611909604085018261192d565b50505050565b61191881611b0b565b82525050565b61192781611b15565b82525050565b61193681611b25565b82525050565b60006020820190506119516000830184611759565b92915050565b600060208201905081810360008301526119718184611768565b905092915050565b6000602082019050818103600083015261199381846117c3565b905092915050565b60006020820190506119b0600083018461181e565b92915050565b60006060820190506119cb6000830184611849565b92915050565b60006020820190506119e6600083018461190f565b92915050565b600060c082019050611a01600083018761190f565b611a0e602083018661190f565b611a1b604083018561181e565b611a2860608301846118cd565b95945050505050565b6000606082019050611a46600083018661190f565b611a53602083018561190f565b611a60604083018461190f565b949350505050565b6000602082019050611a7d600083018461191e565b92915050565b6000602082019050919050565b6000602082019050919050565b600081519050919050565b600081519050919050565b6000602082019050919050565b6000602082019050919050565b6000611ad882611aeb565b9050919050565b60008115159050919050565b600073ffffffffffffffffffffffffffffffffffffffff82169050919050565b6000819050919050565b600063ffffffff82169050919050565b600067ffffffffffffffff82169050919050565b6000611b4482611aeb565b9050919050565b6000819050919050565b600081905091905056fea265627a7a7230582008a2f04e9f9ef346335c6fe5cfa741f6cc01e3ca4c56b9bd6531bad8f13486426c6578706572696d656e74616cf50037",
  "source": "pragma solidity ^0.5.0;\npragma experimental ABIEncoderV2;\n\nimport \"./VotingTransactions.sol\";\n\ncontract ResultHelper is VotingTransactions{\n\n    function declareResults(uint256 _adminId) external onlyAdmin(_adminId) {\n        ResultsDeclared = true;\n    }\n\n    function retreiveConstituencyVoteCount(uint256 _constituencyId, uint256 _userId) external view declaredResults onlyUser(_userId) returns(uint32) {\n        Candidate[] memory _candidates = getCandidatesByConstituency(_constituencyId,_userId);\n        uint32 _votes;\n        for (uint i = 0; i < _candidates.length; i++) {\n            _votes = _votes + uint32(candidateVoteCount[_candidates[i]._id]);\n        }\n\n        return _votes;\n    }\n}",
  "sourcePath": "/home/d3mon/Projects/sudo-rm--rf/contracts/ResultHelper.sol",
  "compiler": {
    "name": "solc",
    "version": "0.5.0+commit.1d4f565a.Emscripten.clang"
  },
  "schemaVersion": "3.0.2",
  "updatedAt": "2020-01-25T17:50:32.650Z",
  "devdoc": {
    "methods": {
      "isOwner()": {
        "return": "true if `msg.sender` is the owner of the contract."
      },
      "owner()": {
        "return": "the address of the owner."
      },
      "renounceOwnership()": {
        "details": "Allows the current owner to relinquish control of the contract."
      },
      "transferOwnership(address)": {
        "details": "Allows the current owner to transfer control of the contract to a newOwner.",
        "params": {
          "newOwner": "The address to transfer ownership to."
        }
      }
    }
  },
  "userdoc": {
    "methods": {
      "renounceOwnership()": {
        "notice": "Renouncing to ownership will leave the contract without an owner. It will not be possible to call the functions with the `onlyOwner` modifier anymore."
      }
    }
  }
}