{
  "contractName": "ResultHelper",
  "abi": [
    {
      "constant": false,
      "inputs": [
        {
          "name": "_id",
          "type": "uint256"
        },
        {
          "name": "_constituencyId",
          "type": "uint256"
        },
        {
          "name": "_adminId",
          "type": "uint256"
        }
      ],
      "name": "assignCandidateToConstituency",
      "outputs": [],
      "payable": false,
      "stateMutability": "nonpayable",
      "type": "function"
    },
    {
      "constant": true,
      "inputs": [
        {
          "name": "",
          "type": "uint256"
        }
      ],
      "name": "admins",
      "outputs": [
        {
          "name": "",
          "type": "uint256"
        }
      ],
      "payable": false,
      "stateMutability": "view",
      "type": "function"
    },
    {
      "constant": false,
      "inputs": [
        {
          "name": "_adminId",
          "type": "uint256"
        }
      ],
      "name": "getConstituencies",
      "outputs": [
        {
          "components": [
            {
              "name": "_id",
              "type": "uint256"
            },
            {
              "name": "_startTime",
              "type": "uint256"
            },
            {
              "name": "_duration",
              "type": "uint256"
            }
          ],
          "name": "",
          "type": "tuple[]"
        }
      ],
      "payable": false,
      "stateMutability": "nonpayable",
      "type": "function"
    },
    {
      "constant": true,
      "inputs": [
        {
          "name": "",
          "type": "uint256"
        }
      ],
      "name": "candidates",
      "outputs": [
        {
          "name": "_id",
          "type": "uint256"
        }
      ],
      "payable": false,
      "stateMutability": "view",
      "type": "function"
    },
    {
      "constant": false,
      "inputs": [
        {
          "name": "_id",
          "type": "uint256"
        },
        {
          "name": "_adminId",
          "type": "uint256"
        }
      ],
      "name": "registerConstituency",
      "outputs": [],
      "payable": false,
      "stateMutability": "nonpayable",
      "type": "function"
    },
    {
      "constant": false,
      "inputs": [
        {
          "name": "from",
          "type": "uint256"
        },
        {
          "name": "to",
          "type": "uint256"
        },
        {
          "name": "tokenId",
          "type": "bytes32"
        }
      ],
      "name": "transferFrom",
      "outputs": [],
      "payable": false,
      "stateMutability": "nonpayable",
      "type": "function"
    },
    {
      "constant": false,
      "inputs": [
        {
          "name": "_id",
          "type": "uint256"
        },
        {
          "name": "_adminId",
          "type": "uint256"
        }
      ],
      "name": "registerCandidate",
      "outputs": [],
      "payable": false,
      "stateMutability": "nonpayable",
      "type": "function"
    },
    {
      "constant": false,
      "inputs": [],
      "name": "renounceOwnership",
      "outputs": [],
      "payable": false,
      "stateMutability": "nonpayable",
      "type": "function"
    },
    {
      "constant": true,
      "inputs": [],
      "name": "owner",
      "outputs": [
        {
          "name": "",
          "type": "address"
        }
      ],
      "payable": false,
      "stateMutability": "view",
      "type": "function"
    },
    {
      "constant": true,
      "inputs": [],
      "name": "isOwner",
      "outputs": [
        {
          "name": "",
          "type": "bool"
        }
      ],
      "payable": false,
      "stateMutability": "view",
      "type": "function"
    },
    {
      "constant": true,
      "inputs": [
        {
          "name": "",
          "type": "uint256"
        }
      ],
      "name": "constituencies",
      "outputs": [
        {
          "name": "_id",
          "type": "uint256"
        },
        {
          "name": "_startTime",
          "type": "uint256"
        },
        {
          "name": "_duration",
          "type": "uint256"
        }
      ],
      "payable": false,
      "stateMutability": "view",
      "type": "function"
    },
    {
      "constant": false,
      "inputs": [
        {
          "name": "_id",
          "type": "uint256"
        }
      ],
      "name": "registerAdmin",
      "outputs": [],
      "payable": false,
      "stateMutability": "nonpayable",
      "type": "function"
    },
    {
      "constant": false,
      "inputs": [
        {
          "name": "_id",
          "type": "uint256"
        },
        {
          "name": "_duration",
          "type": "uint256"
        }
      ],
      "name": "generateElectionforConstituency",
      "outputs": [],
      "payable": false,
      "stateMutability": "nonpayable",
      "type": "function"
    },
    {
      "constant": true,
      "inputs": [
        {
          "name": "",
          "type": "uint256"
        }
      ],
      "name": "voters",
      "outputs": [
        {
          "name": "_id",
          "type": "uint256"
        },
        {
          "name": "_constituencyId",
          "type": "uint256"
        },
        {
          "name": "_hasVoted",
          "type": "bool"
        },
        {
          "components": [
            {
              "name": "_voteId",
              "type": "bytes32"
            },
            {
              "name": "_votedId",
              "type": "uint256"
            },
            {
              "name": "_voteTime",
              "type": "uint64"
            }
          ],
          "name": "_vote",
          "type": "tuple"
        }
      ],
      "payable": false,
      "stateMutability": "view",
      "type": "function"
    },
    {
      "constant": false,
      "inputs": [
        {
          "name": "newOwner",
          "type": "address"
        }
      ],
      "name": "transferOwnership",
      "outputs": [],
      "payable": false,
      "stateMutability": "nonpayable",
      "type": "function"
    },
    {
      "constant": true,
      "inputs": [
        {
          "name": "_constituencyId",
          "type": "uint256"
        }
      ],
      "name": "getCandidatesByConstituency",
      "outputs": [
        {
          "components": [
            {
              "name": "_id",
              "type": "uint256"
            }
          ],
          "name": "",
          "type": "tuple[]"
        }
      ],
      "payable": false,
      "stateMutability": "view",
      "type": "function"
    },
    {
      "anonymous": false,
      "inputs": [
        {
          "indexed": true,
          "name": "_from",
          "type": "uint256"
        },
        {
          "indexed": true,
          "name": "_to",
          "type": "uint256"
        },
        {
          "indexed": true,
          "name": "_tokenId",
          "type": "bytes32"
        }
      ],
      "name": "Transfer",
      "type": "event"
    },
    {
      "anonymous": false,
      "inputs": [
        {
          "indexed": false,
          "name": "_id",
          "type": "uint256"
        },
        {
          "indexed": false,
          "name": "_voterId",
          "type": "uint256"
        }
      ],
      "name": "VoterCreated",
      "type": "event"
    },
    {
      "anonymous": false,
      "inputs": [
        {
          "indexed": false,
          "name": "_id",
          "type": "uint256"
        }
      ],
      "name": "CandidateRegistered",
      "type": "event"
    },
    {
      "anonymous": false,
      "inputs": [
        {
          "indexed": false,
          "name": "_id",
          "type": "uint256"
        }
      ],
      "name": "ConstituencyRegistered",
      "type": "event"
    },
    {
      "anonymous": false,
      "inputs": [
        {
          "indexed": true,
          "name": "previousOwner",
          "type": "address"
        },
        {
          "indexed": true,
          "name": "newOwner",
          "type": "address"
        }
      ],
      "name": "OwnershipTransferred",
      "type": "event"
    },
    {
      "constant": true,
      "inputs": [
        {
          "name": "_constituencyId",
          "type": "uint256"
        }
      ],
      "name": "retreiveConstituencyVoteCount",
      "outputs": [
        {
          "name": "",
          "type": "uint32"
        }
      ],
      "payable": false,
      "stateMutability": "view",
      "type": "function"
    }
  ],
  "bytecode": "0x608060405260405180606001604052806000801b815260200160008152602001600067ffffffffffffffff168152506001600082015181600001556020820151816001015560408201518160020160006101000a81548167ffffffffffffffff021916908367ffffffffffffffff1602179055505050336000806101000a81548173ffffffffffffffffffffffffffffffffffffffff021916908373ffffffffffffffffffffffffffffffffffffffff1602179055506000809054906101000a900473ffffffffffffffffffffffffffffffffffffffff1673ffffffffffffffffffffffffffffffffffffffff16600073ffffffffffffffffffffffffffffffffffffffff167f8be0079c531659141344cd1fd0a4f28419497f9722a3daafe3b4186f6b6457e060405160405180910390a3611492806101406000396000f3fe608060405234801561001057600080fd5b506004361061010b5760003560e01c80638da5cb5b116100a2578063c1c5c5d811610071578063c1c5c5d8146102a4578063d59d48d4146102d4578063da58c7d9146102f0578063f2fde38b14610323578063f9ed80671461033f5761010b565b80638da5cb5b1461021a5780638f32d59b146102385780639209416a1461025657806394845254146102885761010b565b80633acab52f116100de5780633acab52f146101bc5780633ba8b3ff146101d85780635d6e5052146101f4578063715018a6146102105761010b565b806312d51c721461011057806314bfd6d01461012c578063289752101461015c5780633477ee2e1461018c575b600080fd5b61012a60048036036101259190810190610fc1565b61036f565b005b61014660048036036101419190810190610f0d565b6103fc565b604051610153919061127f565b60405180910390f35b61017660048036036101719190810190610f0d565b61041d565b6040516101839190611242565b60405180910390f35b6101a660048036036101a19190810190610f0d565b6104e9565b6040516101b3919061127f565b60405180910390f35b6101d660048036036101d19190810190610f36565b610510565b005b6101f260048036036101ed9190810190610f72565b610659565b005b61020e60048036036102099190810190610f36565b6107c8565b005b6102186108d3565b005b6102226109a3565b60405161022f9190611205565b60405180910390f35b6102406109cc565b60405161024d9190611264565b60405180910390f35b610270600480360361026b9190810190610f0d565b610a23565b60405161027f939291906112df565b60405180910390f35b6102a2600480360361029d9190810190610f0d565b610a5a565b005b6102be60048036036102b99190810190610f0d565b610a9a565b6040516102cb9190611316565b60405180910390f35b6102ee60048036036102e99190810190610f36565b610b01565b005b61030a60048036036103059190810190610f0d565b610b60565b60405161031a949392919061129a565b60405180910390f35b61033d60048036036103389190810190610ee4565b610bfa565b005b61035960048036036103549190810190610f0d565b610c17565b6040516103669190611220565b60405180910390f35b8060008090505b600e805490508110156103f55781600e828154811061039157fe5b906000526020600020015414156103e25783600860008781526020019081526020016000208190555060096000858152602001908152602001600020600081548092919060010191905055506103e7565b6103e8565b5b8080600101915050610376565b5050505050565b600e818154811061040957fe5b906000526020600020016000915090505481565b60608160008090505b600e805490508110156104e25781600e828154811061044157fe5b906000526020600020015414156104cf57600d805480602002602001604051908101604052809291908181526020016000905b828210156104c45783829060005260206000209060030201604051806060016040529081600082015481526020016001820154815260200160028201548152505081526020019060010190610474565b5050505092506104d4565b6104d5565b5b8080600101915050610426565b5050919050565b600c81815481106104f657fe5b906000526020600020016000915090508060000154905081565b8060008090505b600e805490508110156106535781600e828154811061053257fe5b906000526020600020015414156106405760006001600d6040518060600160405280888152602001600081526020016000815250908060018154018082558091505090600182039060005260206000209060030201600090919290919091506000820151816000015560208201518160010155604082015181600201555050039050600d81815481106105c157fe5b9060005260206000209060030201600660008781526020019081526020016000206000820154816000015560018201548160010155600282015481600201559050507f21db1a92fb8efb483c22a581ee7e282b6d79d9d43b559ee1affa34181886796985604051610632919061127f565b60405180910390a150610645565b610646565b5b8080600101915050610517565b50505050565b600860008381526020019081526020016000205460046000858152602001908152602001600020600101541461068e57600080fd5b610696610e13565b6004600085815260200190815260200160002060405180608001604052908160008201548152602001600182015481526020016002820160009054906101000a900460ff161515151581526020016003820160405180606001604052908160008201548152602001600182015481526020016002820160009054906101000a900467ffffffffffffffff1667ffffffffffffffff1667ffffffffffffffff168152505081525050905060018160400190151590811515815250508260076000836060015160000151815260200190815260200160002081905550600a6000848152602001908152602001600020600081548092919060010191905055508183857f612c500cbd8f1ed8a4643cbf6b41fda92203645d7e4f7c3a237a1be69565ea2c60405160405180910390a450505050565b8060008090505b600e805490508110156108cd5781600e82815481106107ea57fe5b906000526020600020015414156108ba5760006001600c604051806020016040528088815250908060018154018082558091505090600182039060005260206000200160009091929091909150600082015181600001555050039050600c818154811061085357fe5b9060005260206000200160056000878152602001908152602001600020600082015481600001559050507f43dcee486fabffa2fb551555bfaa5bfcf6a42f2d014032ccef94bf09d83855eb856040516108ac919061127f565b60405180910390a1506108bf565b6108c0565b5b80806001019150506107cf565b50505050565b6108db6109cc565b6108e457600080fd5b600073ffffffffffffffffffffffffffffffffffffffff166000809054906101000a900473ffffffffffffffffffffffffffffffffffffffff1673ffffffffffffffffffffffffffffffffffffffff167f8be0079c531659141344cd1fd0a4f28419497f9722a3daafe3b4186f6b6457e060405160405180910390a360008060006101000a81548173ffffffffffffffffffffffffffffffffffffffff021916908373ffffffffffffffffffffffffffffffffffffffff160217905550565b60008060009054906101000a900473ffffffffffffffffffffffffffffffffffffffff16905090565b60008060009054906101000a900473ffffffffffffffffffffffffffffffffffffffff1673ffffffffffffffffffffffffffffffffffffffff163373ffffffffffffffffffffffffffffffffffffffff1614905090565b600d8181548110610a3057fe5b90600052602060002090600302016000915090508060000154908060010154908060020154905083565b610a626109cc565b610a6b57600080fd5b600e81908060018154018082558091505090600182039060005260206000200160009091929091909150555050565b60006060610aa783610c17565b9050600080600090505b8251811015610af657600a6000848381518110610aca57fe5b602002602001015160000151815260200190815260200160002054820191508080600101915050610ab1565b508092505050919050565b610b09610e43565b60066000848152602001908152602001600020604051806060016040529081600082015481526020016001820154815260200160028201548152505090504281602001818152505081816040018181525050505050565b600b8181548110610b6d57fe5b90600052602060002090600602016000915090508060000154908060010154908060020160009054906101000a900460ff16908060030160405180606001604052908160008201548152602001600182015481526020016002820160009054906101000a900467ffffffffffffffff1667ffffffffffffffff1667ffffffffffffffff1681525050905084565b610c026109cc565b610c0b57600080fd5b610c1481610d1b565b50565b6060806009600084815260200190815260200160002054604051908082528060200260200182016040528015610c6757816020015b610c54610e64565b815260200190600190039081610c4c5790505b509050600080905060008090505b600c80549050811015610d10578460086000600c8481548110610c9457fe5b90600052602060002001600001548152602001908152602001600020541415610d0357600c8181548110610cc457fe5b90600052602060002001604051806020016040529081600082015481525050838381518110610cef57fe5b602002602001018190525081806001019250505b8080600101915050610c75565b508192505050919050565b600073ffffffffffffffffffffffffffffffffffffffff168173ffffffffffffffffffffffffffffffffffffffff161415610d5557600080fd5b8073ffffffffffffffffffffffffffffffffffffffff166000809054906101000a900473ffffffffffffffffffffffffffffffffffffffff1673ffffffffffffffffffffffffffffffffffffffff167f8be0079c531659141344cd1fd0a4f28419497f9722a3daafe3b4186f6b6457e060405160405180910390a3806000806101000a81548173ffffffffffffffffffffffffffffffffffffffff021916908373ffffffffffffffffffffffffffffffffffffffff16021790555050565b6040518060c001604052806000815260200160008152602001600015158152602001610e3d610e77565b81525090565b60405180606001604052806000815260200160008152602001600081525090565b6040518060200160405280600081525090565b60405180606001604052806000801916815260200160008152602001600067ffffffffffffffff1681525090565b600081359050610eb481611413565b92915050565b600081359050610ec98161142a565b92915050565b600081359050610ede81611441565b92915050565b600060208284031215610ef657600080fd5b6000610f0484828501610ea5565b91505092915050565b600060208284031215610f1f57600080fd5b6000610f2d84828501610ecf565b91505092915050565b60008060408385031215610f4957600080fd5b6000610f5785828601610ecf565b9250506020610f6885828601610ecf565b9150509250929050565b600080600060608486031215610f8757600080fd5b6000610f9586828701610ecf565b9350506020610fa686828701610ecf565b9250506040610fb786828701610eba565b9150509250925092565b600080600060608486031215610fd657600080fd5b6000610fe486828701610ecf565b9350506020610ff586828701610ecf565b925050604061100686828701610ecf565b9150509250925092565b600061101c8383611129565b60208301905092915050565b60006110348383611145565b60608301905092915050565b6110498161139d565b82525050565b600061105a8261134b565b611064818561137b565b935061106f83611331565b8060005b838110156110a05781516110878882611010565b975061109283611361565b925050600181019050611073565b5085935050505092915050565b60006110b882611356565b6110c2818561138c565b93506110cd8361133e565b8060005b838110156110fe5781516110e58882611028565b97506110f08361136e565b9250506001810190506110d1565b5085935050505092915050565b611114816113af565b82525050565b611123816113bb565b82525050565b60208201600082015161113f60008501826111c9565b50505050565b60608201600082015161115b60008501826111c9565b50602082015161116e60208501826111c9565b50604082015161118160408501826111c9565b50505050565b60608201600082015161119d600085018261111a565b5060208201516111b060208501826111c9565b5060408201516111c360408501826111f6565b50505050565b6111d2816113e5565b82525050565b6111e1816113e5565b82525050565b6111f0816113ef565b82525050565b6111ff816113ff565b82525050565b600060208201905061121a6000830184611040565b92915050565b6000602082019050818103600083015261123a818461104f565b905092915050565b6000602082019050818103600083015261125c81846110ad565b905092915050565b6000602082019050611279600083018461110b565b92915050565b600060208201905061129460008301846111d8565b92915050565b600060c0820190506112af60008301876111d8565b6112bc60208301866111d8565b6112c9604083018561110b565b6112d66060830184611187565b95945050505050565b60006060820190506112f460008301866111d8565b61130160208301856111d8565b61130e60408301846111d8565b949350505050565b600060208201905061132b60008301846111e7565b92915050565b6000602082019050919050565b6000602082019050919050565b600081519050919050565b600081519050919050565b6000602082019050919050565b6000602082019050919050565b600082825260208201905092915050565b600082825260208201905092915050565b60006113a8826113c5565b9050919050565b60008115159050919050565b6000819050919050565b600073ffffffffffffffffffffffffffffffffffffffff82169050919050565b6000819050919050565b600063ffffffff82169050919050565b600067ffffffffffffffff82169050919050565b61141c8161139d565b811461142757600080fd5b50565b611433816113bb565b811461143e57600080fd5b50565b61144a816113e5565b811461145557600080fd5b5056fea265627a7a72305820800622b6f3a9d2c9e8233adf863dbdb8fd798edc3c64caf1f37a33f238e55cb66c6578706572696d656e74616cf50037",
  "source": "pragma solidity ^0.5.0;\npragma experimental ABIEncoderV2;\n\nimport \"./VotingTransactions.sol\";\n\ncontract ResultHelper is VotingTransactions{\n\n    function retreiveConstituencyVoteCount(uint256 _constituencyId) external view returns(uint32) {\n        Candidate[] memory _candidates = getCandidatesByConstituency(_constituencyId);\n        uint32 _votes;\n        for (uint i = 0; i < _candidates.length; i++) {\n            _votes = _votes + uint32(candidateVoteCount[_candidates[i]._id]);\n        }\n\n        return _votes;\n    }\n}",
  "sourcePath": "/home/d3mon/Projects/sudo-rm--rf/contracts/ResultHelper.sol",
  "compiler": {
    "name": "solc",
    "version": "0.5.8+commit.23d335f2.Emscripten.clang"
  },
  "schemaVersion": "3.0.11",
  "updatedAt": "2019-08-20T16:17:50.072Z",
  "devdoc": {
    "methods": {
      "isOwner()": {
        "return": "true if `msg.sender` is the owner of the contract."
      },
      "owner()": {
        "return": "the address of the owner."
      },
      "renounceOwnership()": {
        "details": "Allows the current owner to relinquish control of the contract."
      },
      "transferOwnership(address)": {
        "details": "Allows the current owner to transfer control of the contract to a newOwner.",
        "params": {
          "newOwner": "The address to transfer ownership to."
        }
      }
    }
  },
  "userdoc": {
    "methods": {
      "renounceOwnership()": {
        "notice": "Renouncing to ownership will leave the contract without an owner. It will not be possible to call the functions with the `onlyOwner` modifier anymore."
      }
    }
  }
}