{
  "contractName": "VotingTransactions",
  "abi": [
    {
      "constant": true,
      "inputs": [
        {
          "name": "",
          "type": "uint256"
        }
      ],
      "name": "candidateVoteCount",
      "outputs": [
        {
          "name": "",
          "type": "uint256"
        }
      ],
      "payable": false,
      "stateMutability": "view",
      "type": "function"
    },
    {
      "constant": true,
      "inputs": [
        {
          "name": "",
          "type": "uint256"
        }
      ],
      "name": "idToConstituency",
      "outputs": [
        {
          "name": "_id",
          "type": "uint256"
        },
        {
          "name": "_startTime",
          "type": "uint256"
        },
        {
          "name": "_duration",
          "type": "uint256"
        }
      ],
      "payable": false,
      "stateMutability": "view",
      "type": "function"
    },
    {
      "constant": false,
      "inputs": [
        {
          "name": "_id",
          "type": "uint256"
        },
        {
          "name": "_constituencyId",
          "type": "uint256"
        },
        {
          "name": "_adminId",
          "type": "uint256"
        }
      ],
      "name": "assignCandidateToConstituency",
      "outputs": [],
      "payable": false,
      "stateMutability": "nonpayable",
      "type": "function"
    },
    {
      "constant": true,
      "inputs": [
        {
          "name": "",
          "type": "uint256"
        }
      ],
      "name": "candidateToConstituency",
      "outputs": [
        {
          "name": "",
          "type": "uint256"
        }
      ],
      "payable": false,
      "stateMutability": "view",
      "type": "function"
    },
    {
      "constant": true,
      "inputs": [
        {
          "name": "",
          "type": "uint256"
        }
      ],
      "name": "admins",
      "outputs": [
        {
          "name": "",
          "type": "uint256"
        }
      ],
      "payable": false,
      "stateMutability": "view",
      "type": "function"
    },
    {
      "constant": false,
      "inputs": [
        {
          "name": "_adminId",
          "type": "uint256"
        }
      ],
      "name": "getConstituencies",
      "outputs": [
        {
          "components": [
            {
              "name": "_id",
              "type": "uint256"
            },
            {
              "name": "_startTime",
              "type": "uint256"
            },
            {
              "name": "_duration",
              "type": "uint256"
            }
          ],
          "name": "",
          "type": "tuple[]"
        }
      ],
      "payable": false,
      "stateMutability": "nonpayable",
      "type": "function"
    },
    {
      "constant": false,
      "inputs": [
        {
          "name": "_id",
          "type": "uint256"
        },
        {
          "name": "_userId",
          "type": "uint256"
        }
      ],
      "name": "getConstituencyDetails",
      "outputs": [
        {
          "components": [
            {
              "name": "_id",
              "type": "uint256"
            },
            {
              "name": "_startTime",
              "type": "uint256"
            },
            {
              "name": "_duration",
              "type": "uint256"
            }
          ],
          "name": "",
          "type": "tuple"
        }
      ],
      "payable": false,
      "stateMutability": "nonpayable",
      "type": "function"
    },
    {
      "constant": true,
      "inputs": [
        {
          "name": "",
          "type": "uint256"
        }
      ],
      "name": "candidates",
      "outputs": [
        {
          "name": "_id",
          "type": "uint256"
        }
      ],
      "payable": false,
      "stateMutability": "view",
      "type": "function"
    },
    {
      "constant": false,
      "inputs": [
        {
          "name": "_id",
          "type": "uint256"
        },
        {
          "name": "_adminId",
          "type": "uint256"
        }
      ],
      "name": "registerConstituency",
      "outputs": [],
      "payable": false,
      "stateMutability": "nonpayable",
      "type": "function"
    },
    {
      "constant": true,
      "inputs": [
        {
          "name": "",
          "type": "uint256"
        }
      ],
      "name": "constituencyCandidateCount",
      "outputs": [
        {
          "name": "",
          "type": "uint256"
        }
      ],
      "payable": false,
      "stateMutability": "view",
      "type": "function"
    },
    {
      "constant": true,
      "inputs": [
        {
          "name": "",
          "type": "uint256"
        }
      ],
      "name": "voteToCandidate",
      "outputs": [
        {
          "name": "",
          "type": "uint256"
        }
      ],
      "payable": false,
      "stateMutability": "view",
      "type": "function"
    },
    {
      "constant": true,
      "inputs": [
        {
          "name": "",
          "type": "uint256"
        }
      ],
      "name": "idToCandidate",
      "outputs": [
        {
          "name": "_id",
          "type": "uint256"
        }
      ],
      "payable": false,
      "stateMutability": "view",
      "type": "function"
    },
    {
      "constant": false,
      "inputs": [
        {
          "name": "_id",
          "type": "uint256"
        },
        {
          "name": "_adminId",
          "type": "uint256"
        }
      ],
      "name": "registerCandidate",
      "outputs": [],
      "payable": false,
      "stateMutability": "nonpayable",
      "type": "function"
    },
    {
      "constant": false,
      "inputs": [],
      "name": "renounceOwnership",
      "outputs": [],
      "payable": false,
      "stateMutability": "nonpayable",
      "type": "function"
    },
    {
      "constant": true,
      "inputs": [],
      "name": "owner",
      "outputs": [
        {
          "name": "",
          "type": "address"
        }
      ],
      "payable": false,
      "stateMutability": "view",
      "type": "function"
    },
    {
      "constant": true,
      "inputs": [],
      "name": "isOwner",
      "outputs": [
        {
          "name": "",
          "type": "bool"
        }
      ],
      "payable": false,
      "stateMutability": "view",
      "type": "function"
    },
    {
      "constant": true,
      "inputs": [
        {
          "name": "",
          "type": "uint256"
        }
      ],
      "name": "constituencies",
      "outputs": [
        {
          "name": "_id",
          "type": "uint256"
        },
        {
          "name": "_startTime",
          "type": "uint256"
        },
        {
          "name": "_duration",
          "type": "uint256"
        }
      ],
      "payable": false,
      "stateMutability": "view",
      "type": "function"
    },
    {
      "constant": false,
      "inputs": [
        {
          "name": "_id",
          "type": "uint256"
        }
      ],
      "name": "registerAdmin",
      "outputs": [],
      "payable": false,
      "stateMutability": "nonpayable",
      "type": "function"
    },
    {
      "constant": true,
      "inputs": [],
      "name": "ResultsDeclared",
      "outputs": [
        {
          "name": "",
          "type": "bool"
        }
      ],
      "payable": false,
      "stateMutability": "view",
      "type": "function"
    },
    {
      "constant": true,
      "inputs": [
        {
          "name": "_constituencyId",
          "type": "uint256"
        },
        {
          "name": "_userId",
          "type": "uint256"
        }
      ],
      "name": "getCandidatesByConstituency",
      "outputs": [
        {
          "components": [
            {
              "name": "_id",
              "type": "uint256"
            }
          ],
          "name": "",
          "type": "tuple[]"
        }
      ],
      "payable": false,
      "stateMutability": "view",
      "type": "function"
    },
    {
      "constant": true,
      "inputs": [
        {
          "name": "",
          "type": "uint256"
        }
      ],
      "name": "voters",
      "outputs": [
        {
          "name": "_id",
          "type": "uint256"
        },
        {
          "name": "_constituencyId",
          "type": "uint256"
        },
        {
          "name": "_hasVoted",
          "type": "bool"
        },
        {
          "components": [
            {
              "name": "_voteId",
              "type": "uint256"
            },
            {
              "name": "_votedId",
              "type": "uint256"
            },
            {
              "name": "_voteTime",
              "type": "uint64"
            }
          ],
          "name": "_vote",
          "type": "tuple"
        }
      ],
      "payable": false,
      "stateMutability": "view",
      "type": "function"
    },
    {
      "constant": false,
      "inputs": [
        {
          "name": "newOwner",
          "type": "address"
        }
      ],
      "name": "transferOwnership",
      "outputs": [],
      "payable": false,
      "stateMutability": "nonpayable",
      "type": "function"
    },
    {
      "constant": false,
      "inputs": [
        {
          "name": "_id",
          "type": "uint256"
        },
        {
          "name": "_duration",
          "type": "uint256"
        },
        {
          "name": "_adminId",
          "type": "uint256"
        }
      ],
      "name": "generateElectionforConstituency",
      "outputs": [],
      "payable": false,
      "stateMutability": "nonpayable",
      "type": "function"
    },
    {
      "constant": true,
      "inputs": [
        {
          "name": "",
          "type": "uint256"
        }
      ],
      "name": "idToVoter",
      "outputs": [
        {
          "name": "_id",
          "type": "uint256"
        },
        {
          "name": "_constituencyId",
          "type": "uint256"
        },
        {
          "name": "_hasVoted",
          "type": "bool"
        },
        {
          "components": [
            {
              "name": "_voteId",
              "type": "uint256"
            },
            {
              "name": "_votedId",
              "type": "uint256"
            },
            {
              "name": "_voteTime",
              "type": "uint64"
            }
          ],
          "name": "_vote",
          "type": "tuple"
        }
      ],
      "payable": false,
      "stateMutability": "view",
      "type": "function"
    },
    {
      "anonymous": false,
      "inputs": [
        {
          "indexed": true,
          "name": "_from",
          "type": "uint256"
        },
        {
          "indexed": true,
          "name": "_to",
          "type": "uint256"
        },
        {
          "indexed": true,
          "name": "_tokenId",
          "type": "uint256"
        }
      ],
      "name": "Transfer",
      "type": "event"
    },
    {
      "anonymous": false,
      "inputs": [
        {
          "indexed": false,
          "name": "_id",
          "type": "uint256"
        },
        {
          "indexed": false,
          "name": "_constituencyId",
          "type": "uint256"
        }
      ],
      "name": "VoterCreated",
      "type": "event"
    },
    {
      "anonymous": false,
      "inputs": [
        {
          "indexed": false,
          "name": "_id",
          "type": "uint256"
        }
      ],
      "name": "CandidateRegistered",
      "type": "event"
    },
    {
      "anonymous": false,
      "inputs": [
        {
          "indexed": false,
          "name": "_id",
          "type": "uint256"
        }
      ],
      "name": "ConstituencyRegistered",
      "type": "event"
    },
    {
      "anonymous": false,
      "inputs": [
        {
          "indexed": true,
          "name": "previousOwner",
          "type": "address"
        },
        {
          "indexed": true,
          "name": "newOwner",
          "type": "address"
        }
      ],
      "name": "OwnershipTransferred",
      "type": "event"
    },
    {
      "constant": false,
      "inputs": [
        {
          "name": "from",
          "type": "uint256"
        },
        {
          "name": "to",
          "type": "uint256"
        },
        {
          "name": "tokenId",
          "type": "uint256"
        }
      ],
      "name": "transferFrom",
      "outputs": [],
      "payable": false,
      "stateMutability": "nonpayable",
      "type": "function"
    }
  ],
  "bytecode": "0x608060405260008060146101000a81548160ff021916908315150217905550336000806101000a81548173ffffffffffffffffffffffffffffffffffffffff021916908373ffffffffffffffffffffffffffffffffffffffff1602179055506000809054906101000a900473ffffffffffffffffffffffffffffffffffffffff1673ffffffffffffffffffffffffffffffffffffffff16600073ffffffffffffffffffffffffffffffffffffffff167f8be0079c531659141344cd1fd0a4f28419497f9722a3daafe3b4186f6b6457e060405160405180910390a360008060146101000a81548160ff021916908315150217905550611864806101036000396000f3fe608060405260043610610149576000357c0100000000000000000000000000000000000000000000000000000000900463ffffffff16806301aa2e031461014e5780630f80dcb01461018b57806312d51c72146101ca5780631471e0ab146101f357806314bfd6d014610230578063289752101461026d5780632fd23a3f146102aa578063310ed7f0146102e75780633477ee2e146103105780633acab52f1461034d5780633b04a6c91461037657806356be1658146103b357806357e2ef10146103f05780635d6e50521461042d578063715018a6146104565780638da5cb5b1461046d5780638f32d59b146104985780639209416a146104c35780639484525414610502578063aa3e4e1c1461052b578063bbc893a314610556578063da58c7d914610593578063f2fde38b146105d3578063f7590065146105fc578063f8c7057114610625575b600080fd5b34801561015a57600080fd5b50610175600480360361017091908101906113b4565b610665565b60405161018291906116d1565b60405180910390f35b34801561019757600080fd5b506101b260048036036101ad91908101906113b4565b61067d565b6040516101c193929190611731565b60405180910390f35b3480156101d657600080fd5b506101f160048036036101ec9190810190611419565b6106a7565b005b3480156101ff57600080fd5b5061021a600480360361021591908101906113b4565b610736565b60405161022791906116d1565b60405180910390f35b34801561023c57600080fd5b50610257600480360361025291908101906113b4565b61074e565b60405161026491906116d1565b60405180910390f35b34801561027957600080fd5b50610294600480360361028f91908101906113b4565b610771565b6040516102a19190611679565b60405180910390f35b3480156102b657600080fd5b506102d160048036036102cc91908101906113dd565b6108a0565b6040516102de91906116b6565b60405180910390f35b3480156102f357600080fd5b5061030e60048036036103099190810190611419565b610921565b005b34801561031c57600080fd5b50610337600480360361033291908101906113b4565b610a2b565b60405161034491906116d1565b60405180910390f35b34801561035957600080fd5b50610374600480360361036f91908101906113dd565b610a54565b005b34801561038257600080fd5b5061039d600480360361039891908101906113b4565b610ba2565b6040516103aa91906116d1565b60405180910390f35b3480156103bf57600080fd5b506103da60048036036103d591908101906113b4565b610bba565b6040516103e791906116d1565b60405180910390f35b3480156103fc57600080fd5b50610417600480360361041291908101906113b4565b610bd2565b60405161042491906116d1565b60405180910390f35b34801561043957600080fd5b50610454600480360361044f91908101906113dd565b610bf0565b005b34801561046257600080fd5b5061046b610d00565b005b34801561047957600080fd5b50610482610dd2565b60405161048f919061163c565b60405180910390f35b3480156104a457600080fd5b506104ad610dfb565b6040516104ba919061169b565b60405180910390f35b3480156104cf57600080fd5b506104ea60048036036104e591908101906113b4565b610e52565b6040516104f993929190611731565b60405180910390f35b34801561050e57600080fd5b50610529600480360361052491908101906113b4565b610e8b565b005b34801561053757600080fd5b50610540610ecd565b60405161054d919061169b565b60405180910390f35b34801561056257600080fd5b5061057d600480360361057891908101906113dd565b610ee0565b60405161058a9190611657565b60405180910390f35b34801561059f57600080fd5b506105ba60048036036105b591908101906113b4565b611017565b6040516105ca94939291906116ec565b60405180910390f35b3480156105df57600080fd5b506105fa60048036036105f5919081019061138b565b6110b4565b005b34801561060857600080fd5b50610623600480360361061e9190810190611419565b6110d3565b005b34801561063157600080fd5b5061064c600480360361064791908101906113b4565b611183565b60405161065c94939291906116ec565b60405180910390f35b60076020528060005260406000206000915090505481565b60036020528060005260406000206000915090508060000154908060010154908060020154905083565b8060008090505b600b8054905081101561072f5781600b828154811015156106cb57fe5b9060005260206000200154141561071c578360056000878152602001908152602001600020819055506006600085815260200190815260200160002060008154809291906001019190505550610721565b610722565b5b80806001019150506106ae565b5050505050565b60056020528060005260406000206000915090505481565b600b8181548110151561075d57fe5b906000526020600020016000915090505481565b60608160008090505b600b805490508110156108995781600b8281548110151561079757fe5b90600052602060002001541415610886576060600a805490506040519080825280602002602001820160405280156107e957816020015b6107d661130b565b8152602001906001900390816107ce5790505b509050600080905060008090505b600a8054905081101561087b57600a8181548110151561081357fe5b9060005260206000209060030201606060405190810160405290816000820154815260200160018201548152602001600282015481525050838381518110151561085957fe5b90602001906020020181905250818060010192505080806001019150506107f7565b50819450505061088b565b61088c565b5b808060010191505061077a565b5050919050565b6108a861132d565b8160006001600083815260200190815260200160002060000154141515156108cf57600080fd5b6108d761132d565b600360008681526020019081526020016000206060604051908101604052908160008201548152602001600182015481526020016002820154815250509050809250505092915050565b82600060016000838152602001908152602001600020600001541415151561094857600080fd5b6005600084815260200190815260200160002054600160008681526020019081526020016000206001015414151561097f57600080fd5b600060016000868152602001908152602001600020905060018160020160006101000a81548160ff0219169083151502179055508360046000836003016000015481526020019081526020016000208190555060076000858152602001908152602001600020600081548092919060010191905055508284867faf6151f5085accf2d57e1e7bf7601d3b3982e0de7e9a90f032f8554de9c104f660405160405180910390a45050505050565b600981815481101515610a3a57fe5b906000526020600020016000915090508060000154905081565b8060008090505b600b80549050811015610b9c5781600b82815481101515610a7857fe5b90600052602060002001541415610b895760006001600a606060405190810160405280888152602001600081526020016000815250908060018154018082558091505090600182039060005260206000209060030201600090919290919091506000820151816000015560208201518160010155604082015181600201555050039050600a81815481101515610b0a57fe5b9060005260206000209060030201600360008781526020019081526020016000206000820154816000015560018201548160010155600282015481600201559050507f21db1a92fb8efb483c22a581ee7e282b6d79d9d43b559ee1affa34181886796985604051610b7b91906116d1565b60405180910390a150610b8e565b610b8f565b5b8080600101915050610a5b565b50505050565b60066020528060005260406000206000915090505481565b60046020528060005260406000206000915090505481565b60026020528060005260406000206000915090508060000154905081565b8060008090505b600b80549050811015610cfa5781600b82815481101515610c1457fe5b90600052602060002001541415610ce75760006001600960206040519081016040528088815250908060018154018082558091505090600182039060005260206000200160009091929091909150600082015181600001555050039050600981815481101515610c8057fe5b9060005260206000200160026000878152602001908152602001600020600082015481600001559050507f43dcee486fabffa2fb551555bfaa5bfcf6a42f2d014032ccef94bf09d83855eb85604051610cd991906116d1565b60405180910390a150610cec565b610ced565b5b8080600101915050610bf7565b50505050565b610d08610dfb565b1515610d1357600080fd5b600073ffffffffffffffffffffffffffffffffffffffff166000809054906101000a900473ffffffffffffffffffffffffffffffffffffffff1673ffffffffffffffffffffffffffffffffffffffff167f8be0079c531659141344cd1fd0a4f28419497f9722a3daafe3b4186f6b6457e060405160405180910390a360008060006101000a81548173ffffffffffffffffffffffffffffffffffffffff021916908373ffffffffffffffffffffffffffffffffffffffff160217905550565b60008060009054906101000a900473ffffffffffffffffffffffffffffffffffffffff16905090565b60008060009054906101000a900473ffffffffffffffffffffffffffffffffffffffff1673ffffffffffffffffffffffffffffffffffffffff163373ffffffffffffffffffffffffffffffffffffffff1614905090565b600a81815481101515610e6157fe5b90600052602060002090600302016000915090508060000154908060010154908060020154905083565b610e93610dfb565b1515610e9e57600080fd5b600b81908060018154018082558091505090600182039060005260206000200160009091929091909150555050565b600060149054906101000a900460ff1681565b6060816000600160008381526020019081526020016000206000015414151515610f0957600080fd5b60606006600086815260200190815260200160002054604051908082528060200260200182016040528015610f5857816020015b610f4561134f565b815260200190600190039081610f3d5790505b509050600080905060008090505b60098054905081101561100a578660056000600984815481101515610f8757fe5b90600052602060002001600001548152602001908152602001600020541415610ffd57600981815481101515610fb957fe5b90600052602060002001602060405190810160405290816000820154815250508383815181101515610fe757fe5b9060200190602002018190525081806001019250505b8080600101915050610f66565b5081935050505092915050565b60088181548110151561102657fe5b90600052602060002090600602016000915090508060000154908060010154908060020160009054906101000a900460ff1690806003016060604051908101604052908160008201548152602001600182015481526020016002820160009054906101000a900467ffffffffffffffff1667ffffffffffffffff1667ffffffffffffffff1681525050905084565b6110bc610dfb565b15156110c757600080fd5b6110d081611211565b50565b8060008090505b600b8054905081101561117c5781600b828154811015156110f757fe5b906000526020600020015414156111695761111061132d565b60036000878152602001908152602001600020606060405190810160405290816000820154815260200160018201548152602001600282015481525050905042816020018181525050848160400181815250505061116e565b61116f565b5b80806001019150506110da565b5050505050565b60016020528060005260406000206000915090508060000154908060010154908060020160009054906101000a900460ff1690806003016060604051908101604052908160008201548152602001600182015481526020016002820160009054906101000a900467ffffffffffffffff1667ffffffffffffffff1667ffffffffffffffff1681525050905084565b600073ffffffffffffffffffffffffffffffffffffffff168173ffffffffffffffffffffffffffffffffffffffff161415151561124d57600080fd5b8073ffffffffffffffffffffffffffffffffffffffff166000809054906101000a900473ffffffffffffffffffffffffffffffffffffffff1673ffffffffffffffffffffffffffffffffffffffff167f8be0079c531659141344cd1fd0a4f28419497f9722a3daafe3b4186f6b6457e060405160405180910390a3806000806101000a81548173ffffffffffffffffffffffffffffffffffffffff021916908373ffffffffffffffffffffffffffffffffffffffff16021790555050565b6060604051908101604052806000815260200160008152602001600081525090565b6060604051908101604052806000815260200160008152602001600081525090565b602060405190810160405280600081525090565b600061136f823561180e565b905092915050565b60006113838235611820565b905092915050565b60006020828403121561139d57600080fd5b60006113ab84828501611363565b91505092915050565b6000602082840312156113c657600080fd5b60006113d484828501611377565b91505092915050565b600080604083850312156113f057600080fd5b60006113fe85828601611377565b925050602061140f85828601611377565b9150509250929050565b60008060006060848603121561142e57600080fd5b600061143c86828701611377565b935050602061144d86828701611377565b925050604061145e86828701611377565b9150509250925092565b611471816117b2565b82525050565b600061148282611782565b80845260208401935061149483611768565b60005b828110156114c6576114aa86835161153c565b6114b382611798565b9150602086019550600181019050611497565b50849250505092915050565b60006114dd8261178d565b8084526020840193506114ef83611775565b60005b828110156115215761150586835161159a565b61150e826117a5565b91506060860195506001810190506114f2565b50849250505092915050565b611536816117c4565b82525050565b602082016000820151611552600085018261161e565b50505050565b60608201600082015161156e600085018261161e565b506020820151611581602085018261161e565b506040820151611594604085018261161e565b50505050565b6060820160008201516115b0600085018261161e565b5060208201516115c3602085018261161e565b5060408201516115d6604085018261161e565b50505050565b6060820160008201516115f2600085018261161e565b506020820151611605602085018261161e565b506040820151611618604085018261162d565b50505050565b611627816117f0565b82525050565b611636816117fa565b82525050565b60006020820190506116516000830184611468565b92915050565b600060208201905081810360008301526116718184611477565b905092915050565b6000602082019050818103600083015261169381846114d2565b905092915050565b60006020820190506116b0600083018461152d565b92915050565b60006060820190506116cb6000830184611558565b92915050565b60006020820190506116e6600083018461161e565b92915050565b600060c082019050611701600083018761161e565b61170e602083018661161e565b61171b604083018561152d565b61172860608301846115dc565b95945050505050565b6000606082019050611746600083018661161e565b611753602083018561161e565b611760604083018461161e565b949350505050565b6000602082019050919050565b6000602082019050919050565b600081519050919050565b600081519050919050565b6000602082019050919050565b6000602082019050919050565b60006117bd826117d0565b9050919050565b60008115159050919050565b600073ffffffffffffffffffffffffffffffffffffffff82169050919050565b6000819050919050565b600067ffffffffffffffff82169050919050565b6000611819826117d0565b9050919050565b600081905091905056fea265627a7a72305820b4e7ca631cf0321668d73f08d98536886fdd4a6faf2e833f47cd9014fb5ff7466c6578706572696d656e74616cf50037",
  "source": "pragma solidity ^0.5.0;\npragma experimental ABIEncoderV2;\nimport \"./ElectionHelper.sol\";\n\ncontract VotingTransactions is ElectionHelper {\n    event Transfer(uint256 indexed _from, uint256 indexed _to, uint256 indexed _tokenId);\n\n    function transferFrom(uint256 from, uint256 to, uint256 tokenId) public onlyUser(from) {\n        require(idToVoter[from]._constituencyId == candidateToConstituency[to]);\n        Voter storage voter = idToVoter[from];\n        voter._hasVoted = true;\n        voteToCandidate[voter._vote._voteId] = to;\n        candidateVoteCount[to]++;\n        emit Transfer(from, to, tokenId);\n    }\n\n    function _transferredTo(uint256 _id, uint256 _userId) private view onlyUser(_userId) returns(Candidate memory) {\n        uint256 candidateId = voteToCandidate[_id];\n        Candidate memory candidate = idToCandidate[candidateId];\n        return candidate;\n    }\n}",
  "sourcePath": "/home/d3mon/Projects/sudo-rm--rf/contracts/VotingTransactions.sol",
  "compiler": {
    "name": "solc",
    "version": "0.5.0+commit.1d4f565a.Emscripten.clang"
  },
  "schemaVersion": "3.0.2",
  "updatedAt": "2020-01-25T22:05:07.286Z",
  "devdoc": {
    "methods": {
      "isOwner()": {
        "return": "true if `msg.sender` is the owner of the contract."
      },
      "owner()": {
        "return": "the address of the owner."
      },
      "renounceOwnership()": {
        "details": "Allows the current owner to relinquish control of the contract."
      },
      "transferOwnership(address)": {
        "details": "Allows the current owner to transfer control of the contract to a newOwner.",
        "params": {
          "newOwner": "The address to transfer ownership to."
        }
      }
    }
  },
  "userdoc": {
    "methods": {
      "renounceOwnership()": {
        "notice": "Renouncing to ownership will leave the contract without an owner. It will not be possible to call the functions with the `onlyOwner` modifier anymore."
      }
    }
  }
}