{
  "contractName": "VotingTransactions",
  "abi": [
    {
      "constant": true,
      "inputs": [
        {
          "name": "",
          "type": "uint256"
        }
      ],
      "name": "candidateVoteCount",
      "outputs": [
        {
          "name": "",
          "type": "uint256"
        }
      ],
      "payable": false,
      "stateMutability": "view",
      "type": "function"
    },
    {
      "constant": true,
      "inputs": [
        {
          "name": "",
          "type": "uint256"
        }
      ],
      "name": "idToConstituency",
      "outputs": [
        {
          "name": "_id",
          "type": "uint256"
        },
        {
          "name": "_startTime",
          "type": "uint256"
        },
        {
          "name": "_duration",
          "type": "uint256"
        }
      ],
      "payable": false,
      "stateMutability": "view",
      "type": "function"
    },
    {
      "constant": false,
      "inputs": [
        {
          "name": "_id",
          "type": "uint256"
        },
        {
          "name": "_constituencyId",
          "type": "uint256"
        },
        {
          "name": "_adminId",
          "type": "uint256"
        }
      ],
      "name": "assignCandidateToConstituency",
      "outputs": [],
      "payable": false,
      "stateMutability": "nonpayable",
      "type": "function"
    },
    {
      "constant": true,
      "inputs": [
        {
          "name": "",
          "type": "uint256"
        }
      ],
      "name": "candidateToConstituency",
      "outputs": [
        {
          "name": "",
          "type": "uint256"
        }
      ],
      "payable": false,
      "stateMutability": "view",
      "type": "function"
    },
    {
      "constant": true,
      "inputs": [
        {
          "name": "",
          "type": "uint256"
        }
      ],
      "name": "admins",
      "outputs": [
        {
          "name": "",
          "type": "uint256"
        }
      ],
      "payable": false,
      "stateMutability": "view",
      "type": "function"
    },
    {
      "constant": false,
      "inputs": [
        {
          "name": "_adminId",
          "type": "uint256"
        }
      ],
      "name": "getConstituencies",
      "outputs": [
        {
          "components": [
            {
              "name": "_id",
              "type": "uint256"
            },
            {
              "name": "_startTime",
              "type": "uint256"
            },
            {
              "name": "_duration",
              "type": "uint256"
            }
          ],
          "name": "",
          "type": "tuple[]"
        }
      ],
      "payable": false,
      "stateMutability": "nonpayable",
      "type": "function"
    },
    {
      "constant": false,
      "inputs": [
        {
          "name": "_id",
          "type": "uint256"
        },
        {
          "name": "_userId",
          "type": "uint256"
        }
      ],
      "name": "getConstituencyDetails",
      "outputs": [
        {
          "components": [
            {
              "name": "_id",
              "type": "uint256"
            },
            {
              "name": "_startTime",
              "type": "uint256"
            },
            {
              "name": "_duration",
              "type": "uint256"
            }
          ],
          "name": "",
          "type": "tuple"
        }
      ],
      "payable": false,
      "stateMutability": "nonpayable",
      "type": "function"
    },
    {
      "constant": true,
      "inputs": [
        {
          "name": "",
          "type": "uint256"
        }
      ],
      "name": "candidates",
      "outputs": [
        {
          "name": "_id",
          "type": "uint256"
        }
      ],
      "payable": false,
      "stateMutability": "view",
      "type": "function"
    },
    {
      "constant": false,
      "inputs": [
        {
          "name": "_id",
          "type": "uint256"
        },
        {
          "name": "_adminId",
          "type": "uint256"
        }
      ],
      "name": "registerConstituency",
      "outputs": [],
      "payable": false,
      "stateMutability": "nonpayable",
      "type": "function"
    },
    {
      "constant": true,
      "inputs": [
        {
          "name": "",
          "type": "uint256"
        }
      ],
      "name": "constituencyCandidateCount",
      "outputs": [
        {
          "name": "",
          "type": "uint256"
        }
      ],
      "payable": false,
      "stateMutability": "view",
      "type": "function"
    },
    {
      "constant": true,
      "inputs": [
        {
          "name": "",
          "type": "uint256"
        }
      ],
      "name": "voteToCandidate",
      "outputs": [
        {
          "name": "",
          "type": "uint256"
        }
      ],
      "payable": false,
      "stateMutability": "view",
      "type": "function"
    },
    {
      "constant": true,
      "inputs": [
        {
          "name": "",
          "type": "uint256"
        }
      ],
      "name": "idToCandidate",
      "outputs": [
        {
          "name": "_id",
          "type": "uint256"
        }
      ],
      "payable": false,
      "stateMutability": "view",
      "type": "function"
    },
    {
      "constant": false,
      "inputs": [
        {
          "name": "_id",
          "type": "uint256"
        },
        {
          "name": "_adminId",
          "type": "uint256"
        }
      ],
      "name": "registerCandidate",
      "outputs": [],
      "payable": false,
      "stateMutability": "nonpayable",
      "type": "function"
    },
    {
      "constant": false,
      "inputs": [],
      "name": "renounceOwnership",
      "outputs": [],
      "payable": false,
      "stateMutability": "nonpayable",
      "type": "function"
    },
    {
      "constant": false,
      "inputs": [
        {
          "name": "_constituencies",
          "type": "uint256[]"
        },
        {
          "name": "_adminId",
          "type": "uint256"
        }
      ],
      "name": "registerConstituencies",
      "outputs": [],
      "payable": false,
      "stateMutability": "nonpayable",
      "type": "function"
    },
    {
      "constant": true,
      "inputs": [],
      "name": "owner",
      "outputs": [
        {
          "name": "",
          "type": "address"
        }
      ],
      "payable": false,
      "stateMutability": "view",
      "type": "function"
    },
    {
      "constant": true,
      "inputs": [],
      "name": "isOwner",
      "outputs": [
        {
          "name": "",
          "type": "bool"
        }
      ],
      "payable": false,
      "stateMutability": "view",
      "type": "function"
    },
    {
      "constant": true,
      "inputs": [
        {
          "name": "",
          "type": "uint256"
        }
      ],
      "name": "constituencies",
      "outputs": [
        {
          "name": "_id",
          "type": "uint256"
        },
        {
          "name": "_startTime",
          "type": "uint256"
        },
        {
          "name": "_duration",
          "type": "uint256"
        }
      ],
      "payable": false,
      "stateMutability": "view",
      "type": "function"
    },
    {
      "constant": false,
      "inputs": [
        {
          "name": "_id",
          "type": "uint256"
        }
      ],
      "name": "registerAdmin",
      "outputs": [],
      "payable": false,
      "stateMutability": "nonpayable",
      "type": "function"
    },
    {
      "constant": true,
      "inputs": [],
      "name": "ResultsDeclared",
      "outputs": [
        {
          "name": "",
          "type": "bool"
        }
      ],
      "payable": false,
      "stateMutability": "view",
      "type": "function"
    },
    {
      "constant": true,
      "inputs": [
        {
          "name": "_constituencyId",
          "type": "uint256"
        },
        {
          "name": "_userId",
          "type": "uint256"
        }
      ],
      "name": "getCandidatesByConstituency",
      "outputs": [
        {
          "components": [
            {
              "name": "_id",
              "type": "uint256"
            }
          ],
          "name": "",
          "type": "tuple[]"
        }
      ],
      "payable": false,
      "stateMutability": "view",
      "type": "function"
    },
    {
      "constant": true,
      "inputs": [
        {
          "name": "",
          "type": "uint256"
        }
      ],
      "name": "voters",
      "outputs": [
        {
          "name": "_id",
          "type": "uint256"
        },
        {
          "name": "_constituencyId",
          "type": "uint256"
        },
        {
          "name": "_hasVoted",
          "type": "bool"
        },
        {
          "name": "_voteTime",
          "type": "uint256"
        },
        {
          "components": [
            {
              "name": "_voteId",
              "type": "uint256"
            }
          ],
          "name": "_vote",
          "type": "tuple"
        }
      ],
      "payable": false,
      "stateMutability": "view",
      "type": "function"
    },
    {
      "constant": false,
      "inputs": [
        {
          "name": "newOwner",
          "type": "address"
        }
      ],
      "name": "transferOwnership",
      "outputs": [],
      "payable": false,
      "stateMutability": "nonpayable",
      "type": "function"
    },
    {
      "constant": false,
      "inputs": [
        {
          "name": "_id",
          "type": "uint256"
        },
        {
          "name": "_duration",
          "type": "uint256"
        },
        {
          "name": "_adminId",
          "type": "uint256"
        }
      ],
      "name": "generateElectionforConstituency",
      "outputs": [],
      "payable": false,
      "stateMutability": "nonpayable",
      "type": "function"
    },
    {
      "constant": true,
      "inputs": [
        {
          "name": "",
          "type": "uint256"
        }
      ],
      "name": "idToVoter",
      "outputs": [
        {
          "name": "_id",
          "type": "uint256"
        },
        {
          "name": "_constituencyId",
          "type": "uint256"
        },
        {
          "name": "_hasVoted",
          "type": "bool"
        },
        {
          "name": "_voteTime",
          "type": "uint256"
        },
        {
          "components": [
            {
              "name": "_voteId",
              "type": "uint256"
            }
          ],
          "name": "_vote",
          "type": "tuple"
        }
      ],
      "payable": false,
      "stateMutability": "view",
      "type": "function"
    },
    {
      "anonymous": false,
      "inputs": [
        {
          "indexed": true,
          "name": "_from",
          "type": "uint256"
        },
        {
          "indexed": true,
          "name": "_to",
          "type": "uint256"
        },
        {
          "indexed": true,
          "name": "_tokenId",
          "type": "uint256"
        }
      ],
      "name": "Transfer",
      "type": "event"
    },
    {
      "anonymous": false,
      "inputs": [
        {
          "indexed": false,
          "name": "_id",
          "type": "uint256"
        },
        {
          "indexed": false,
          "name": "_constituencyId",
          "type": "uint256"
        }
      ],
      "name": "VoterCreated",
      "type": "event"
    },
    {
      "anonymous": false,
      "inputs": [
        {
          "indexed": false,
          "name": "_id",
          "type": "uint256"
        }
      ],
      "name": "CandidateRegistered",
      "type": "event"
    },
    {
      "anonymous": false,
      "inputs": [
        {
          "indexed": false,
          "name": "_id",
          "type": "uint256"
        }
      ],
      "name": "ConstituencyRegistered",
      "type": "event"
    },
    {
      "anonymous": false,
      "inputs": [
        {
          "indexed": true,
          "name": "previousOwner",
          "type": "address"
        },
        {
          "indexed": true,
          "name": "newOwner",
          "type": "address"
        }
      ],
      "name": "OwnershipTransferred",
      "type": "event"
    },
    {
      "constant": false,
      "inputs": [
        {
          "name": "from",
          "type": "uint256"
        },
        {
          "name": "to",
          "type": "uint256"
        },
        {
          "name": "tokenId",
          "type": "uint256"
        }
      ],
      "name": "transferFrom",
      "outputs": [],
      "payable": false,
      "stateMutability": "nonpayable",
      "type": "function"
    }
  ],
  "bytecode": "0x608060405260008060146101000a81548160ff021916908315150217905550336000806101000a81548173ffffffffffffffffffffffffffffffffffffffff021916908373ffffffffffffffffffffffffffffffffffffffff1602179055506000809054906101000a900473ffffffffffffffffffffffffffffffffffffffff1673ffffffffffffffffffffffffffffffffffffffff16600073ffffffffffffffffffffffffffffffffffffffff167f8be0079c531659141344cd1fd0a4f28419497f9722a3daafe3b4186f6b6457e060405160405180910390a360008060146101000a81548160ff0219169083151502179055506118f8806101036000396000f3fe608060405260043610610154576000357c0100000000000000000000000000000000000000000000000000000000900463ffffffff16806301aa2e03146101595780630f80dcb01461019657806312d51c72146101d55780631471e0ab146101fe57806314bfd6d01461023b57806328975210146102785780632fd23a3f146102b5578063310ed7f0146102f25780633477ee2e1461031b5780633acab52f146103585780633b04a6c91461038157806356be1658146103be57806357e2ef10146103fb5780635d6e505214610438578063715018a6146104615780637b013b94146104785780638da5cb5b146104a15780638f32d59b146104cc5780639209416a146104f75780639484525414610536578063aa3e4e1c1461055f578063bbc893a31461058a578063da58c7d9146105c7578063f2fde38b14610608578063f759006514610631578063f8c705711461065a575b600080fd5b34801561016557600080fd5b50610180600480360361017b9190810190611483565b61069b565b60405161018d919061176b565b60405180910390f35b3480156101a257600080fd5b506101bd60048036036101b89190810190611483565b6106b3565b6040516101cc939291906117d9565b60405180910390f35b3480156101e157600080fd5b506101fc60048036036101f791908101906114e8565b6106dd565b005b34801561020a57600080fd5b5061022560048036036102209190810190611483565b61076c565b604051610232919061176b565b60405180910390f35b34801561024757600080fd5b50610262600480360361025d9190810190611483565b610784565b60405161026f919061176b565b60405180910390f35b34801561028457600080fd5b5061029f600480360361029a9190810190611483565b6107a7565b6040516102ac9190611713565b60405180910390f35b3480156102c157600080fd5b506102dc60048036036102d791908101906114ac565b6108d6565b6040516102e99190611750565b60405180910390f35b3480156102fe57600080fd5b50610319600480360361031491908101906114e8565b610957565b005b34801561032757600080fd5b50610342600480360361033d9190810190611483565b610a63565b60405161034f919061176b565b60405180910390f35b34801561036457600080fd5b5061037f600480360361037a91908101906114ac565b610a8c565b005b34801561038d57600080fd5b506103a860048036036103a39190810190611483565b610bda565b6040516103b5919061176b565b60405180910390f35b3480156103ca57600080fd5b506103e560048036036103e09190810190611483565b610bf2565b6040516103f2919061176b565b60405180910390f35b34801561040757600080fd5b50610422600480360361041d9190810190611483565b610c0a565b60405161042f919061176b565b60405180910390f35b34801561044457600080fd5b5061045f600480360361045a91908101906114ac565b610c28565b005b34801561046d57600080fd5b50610476610d38565b005b34801561048457600080fd5b5061049f600480360361049a919081019061142b565b610e0a565b005b3480156104ad57600080fd5b506104b6610e9b565b6040516104c391906116d6565b60405180910390f35b3480156104d857600080fd5b506104e1610ec4565b6040516104ee9190611735565b60405180910390f35b34801561050357600080fd5b5061051e60048036036105199190810190611483565b610f1b565b60405161052d939291906117d9565b60405180910390f35b34801561054257600080fd5b5061055d60048036036105589190810190611483565b610f54565b005b34801561056b57600080fd5b50610574610f96565b6040516105819190611735565b60405180910390f35b34801561059657600080fd5b506105b160048036036105ac91908101906114ac565b610fa9565b6040516105be91906116f1565b60405180910390f35b3480156105d357600080fd5b506105ee60048036036105e99190810190611483565b6110e0565b6040516105ff959493929190611786565b60405180910390f35b34801561061457600080fd5b5061062f600480360361062a9190810190611402565b611147565b005b34801561063d57600080fd5b50610658600480360361065391908101906114e8565b611166565b005b34801561066657600080fd5b50610681600480360361067c9190810190611483565b6111e4565b604051610692959493929190611786565b60405180910390f35b60076020528060005260406000206000915090505481565b60036020528060005260406000206000915090508060000154908060010154908060020154905083565b8060008090505b600b805490508110156107655781600b8281548110151561070157fe5b90600052602060002001541415610752578360056000878152602001908152602001600020819055506006600085815260200190815260200160002060008154809291906001019190505550610757565b610758565b5b80806001019150506106e4565b5050505050565b60056020528060005260406000206000915090505481565b600b8181548110151561079357fe5b906000526020600020016000915090505481565b60608160008090505b600b805490508110156108cf5781600b828154811015156107cd57fe5b906000526020600020015414156108bc576060600a8054905060405190808252806020026020018201604052801561081f57816020015b61080c611336565b8152602001906001900390816108045790505b509050600080905060008090505b600a805490508110156108b157600a8181548110151561084957fe5b9060005260206000209060030201606060405190810160405290816000820154815260200160018201548152602001600282015481525050838381518110151561088f57fe5b906020019060200201819052508180600101925050808060010191505061082d565b5081945050506108c1565b6108c2565b5b80806001019150506107b0565b5050919050565b6108de611358565b81600060016000838152602001908152602001600020600001541415151561090557600080fd5b61090d611358565b600360008681526020019081526020016000206060604051908101604052908160008201548152602001600182015481526020016002820154815250509050809250505092915050565b82600060016000838152602001908152602001600020600001541415151561097e57600080fd5b600560008481526020019081526020016000205460016000868152602001908152602001600020600101541415156109b557600080fd5b600060016000868152602001908152602001600020905060018160020160006101000a81548160ff02191690831515021790555042816003018190555083600460008781526020019081526020016000208190555060076000858152602001908152602001600020600081548092919060010191905055508284867faf6151f5085accf2d57e1e7bf7601d3b3982e0de7e9a90f032f8554de9c104f660405160405180910390a45050505050565b600981815481101515610a7257fe5b906000526020600020016000915090508060000154905081565b8060008090505b600b80549050811015610bd45781600b82815481101515610ab057fe5b90600052602060002001541415610bc15760006001600a606060405190810160405280888152602001600081526020016000815250908060018154018082558091505090600182039060005260206000209060030201600090919290919091506000820151816000015560208201518160010155604082015181600201555050039050600a81815481101515610b4257fe5b9060005260206000209060030201600360008781526020019081526020016000206000820154816000015560018201548160010155600282015481600201559050507f21db1a92fb8efb483c22a581ee7e282b6d79d9d43b559ee1affa34181886796985604051610bb3919061176b565b60405180910390a150610bc6565b610bc7565b5b8080600101915050610a93565b50505050565b60066020528060005260406000206000915090505481565b60046020528060005260406000206000915090505481565b60026020528060005260406000206000915090508060000154905081565b8060008090505b600b80549050811015610d325781600b82815481101515610c4c57fe5b90600052602060002001541415610d1f5760006001600960206040519081016040528088815250908060018154018082558091505090600182039060005260206000200160009091929091909150600082015181600001555050039050600981815481101515610cb857fe5b9060005260206000200160026000878152602001908152602001600020600082015481600001559050507f43dcee486fabffa2fb551555bfaa5bfcf6a42f2d014032ccef94bf09d83855eb85604051610d11919061176b565b60405180910390a150610d24565b610d25565b5b8080600101915050610c2f565b50505050565b610d40610ec4565b1515610d4b57600080fd5b600073ffffffffffffffffffffffffffffffffffffffff166000809054906101000a900473ffffffffffffffffffffffffffffffffffffffff1673ffffffffffffffffffffffffffffffffffffffff167f8be0079c531659141344cd1fd0a4f28419497f9722a3daafe3b4186f6b6457e060405160405180910390a360008060006101000a81548173ffffffffffffffffffffffffffffffffffffffff021916908373ffffffffffffffffffffffffffffffffffffffff160217905550565b8060008090505b600b80549050811015610e945781600b82815481101515610e2e57fe5b90600052602060002001541415610e815760008090505b85859050811015610e7b57610e6e8686838181101515610e6157fe5b9050602002013585610a8c565b8080600101915050610e45565b50610e86565b610e87565b5b8080600101915050610e11565b5050505050565b60008060009054906101000a900473ffffffffffffffffffffffffffffffffffffffff16905090565b60008060009054906101000a900473ffffffffffffffffffffffffffffffffffffffff1673ffffffffffffffffffffffffffffffffffffffff163373ffffffffffffffffffffffffffffffffffffffff1614905090565b600a81815481101515610f2a57fe5b90600052602060002090600302016000915090508060000154908060010154908060020154905083565b610f5c610ec4565b1515610f6757600080fd5b600b81908060018154018082558091505090600182039060005260206000200160009091929091909150555050565b600060149054906101000a900460ff1681565b6060816000600160008381526020019081526020016000206000015414151515610fd257600080fd5b6060600660008681526020019081526020016000205460405190808252806020026020018201604052801561102157816020015b61100e61137a565b8152602001906001900390816110065790505b509050600080905060008090505b6009805490508110156110d357866005600060098481548110151561105057fe5b906000526020600020016000015481526020019081526020016000205414156110c65760098181548110151561108257fe5b906000526020600020016020604051908101604052908160008201548152505083838151811015156110b057fe5b9060200190602002018190525081806001019250505b808060010191505061102f565b5081935050505092915050565b6008818154811015156110ef57fe5b90600052602060002090600502016000915090508060000154908060010154908060020160009054906101000a900460ff16908060030154908060040160206040519081016040529081600082015481525050905085565b61114f610ec4565b151561115a57600080fd5b6111638161123c565b50565b8060008090505b600b805490508110156111dd5781600b8281548110151561118a57fe5b906000526020600020015414156111ca576000600360008781526020019081526020016000209050428160010181905550848160020181905550506111cf565b6111d0565b5b808060010191505061116d565b5050505050565b60016020528060005260406000206000915090508060000154908060010154908060020160009054906101000a900460ff16908060030154908060040160206040519081016040529081600082015481525050905085565b600073ffffffffffffffffffffffffffffffffffffffff168173ffffffffffffffffffffffffffffffffffffffff161415151561127857600080fd5b8073ffffffffffffffffffffffffffffffffffffffff166000809054906101000a900473ffffffffffffffffffffffffffffffffffffffff1673ffffffffffffffffffffffffffffffffffffffff167f8be0079c531659141344cd1fd0a4f28419497f9722a3daafe3b4186f6b6457e060405160405180910390a3806000806101000a81548173ffffffffffffffffffffffffffffffffffffffff021916908373ffffffffffffffffffffffffffffffffffffffff16021790555050565b6060604051908101604052806000815260200160008152602001600081525090565b6060604051908101604052806000815260200160008152602001600081525090565b602060405190810160405280600081525090565b600061139a82356118a2565b905092915050565b60008083601f84011215156113b657600080fd5b8235905067ffffffffffffffff8111156113cf57600080fd5b6020830191508360208202830111156113e757600080fd5b9250929050565b60006113fa82356118b4565b905092915050565b60006020828403121561141457600080fd5b60006114228482850161138e565b91505092915050565b60008060006040848603121561144057600080fd5b600084013567ffffffffffffffff81111561145a57600080fd5b611466868287016113a2565b93509350506020611479868287016113ee565b9150509250925092565b60006020828403121561149557600080fd5b60006114a3848285016113ee565b91505092915050565b600080604083850312156114bf57600080fd5b60006114cd858286016113ee565b92505060206114de858286016113ee565b9150509250929050565b6000806000606084860312156114fd57600080fd5b600061150b868287016113ee565b935050602061151c868287016113ee565b925050604061152d868287016113ee565b9150509250925092565b6115408161185a565b82525050565b60006115518261182a565b80845260208401935061156383611810565b60005b828110156115955761157986835161160b565b61158282611840565b9150602086019550600181019050611566565b50849250505092915050565b60006115ac82611835565b8084526020840193506115be8361181d565b60005b828110156115f0576115d4868351611669565b6115dd8261184d565b91506060860195506001810190506115c1565b50849250505092915050565b6116058161186c565b82525050565b60208201600082015161162160008501826116c7565b50505050565b60608201600082015161163d60008501826116c7565b50602082015161165060208501826116c7565b50604082015161166360408501826116c7565b50505050565b60608201600082015161167f60008501826116c7565b50602082015161169260208501826116c7565b5060408201516116a560408501826116c7565b50505050565b6020820160008201516116c160008501826116c7565b50505050565b6116d081611898565b82525050565b60006020820190506116eb6000830184611537565b92915050565b6000602082019050818103600083015261170b8184611546565b905092915050565b6000602082019050818103600083015261172d81846115a1565b905092915050565b600060208201905061174a60008301846115fc565b92915050565b60006060820190506117656000830184611627565b92915050565b600060208201905061178060008301846116c7565b92915050565b600060a08201905061179b60008301886116c7565b6117a860208301876116c7565b6117b560408301866115fc565b6117c260608301856116c7565b6117cf60808301846116ab565b9695505050505050565b60006060820190506117ee60008301866116c7565b6117fb60208301856116c7565b61180860408301846116c7565b949350505050565b6000602082019050919050565b6000602082019050919050565b600081519050919050565b600081519050919050565b6000602082019050919050565b6000602082019050919050565b600061186582611878565b9050919050565b60008115159050919050565b600073ffffffffffffffffffffffffffffffffffffffff82169050919050565b6000819050919050565b60006118ad82611878565b9050919050565b600081905091905056fea265627a7a723058203189df52c72b68286893c85351bbdee3b5c540723f3bd92c9748f62afc0746a36c6578706572696d656e74616cf50037",
  "source": "pragma solidity ^0.5.0;\npragma experimental ABIEncoderV2;\nimport \"./ElectionHelper.sol\";\n\ncontract VotingTransactions is ElectionHelper {\n    event Transfer(uint256 indexed _from, uint256 indexed _to, uint256 indexed _tokenId);\n\n    function transferFrom(uint256 from, uint256 to, uint256 tokenId) public onlyUser(from) {\n        require(idToVoter[from]._constituencyId == candidateToConstituency[to]);\n        Voter storage voter = idToVoter[from];\n        voter._hasVoted = true;\n        voter._voteTime = block.timestamp;\n        voteToCandidate[from] = to;\n        candidateVoteCount[to]++;\n        emit Transfer(from, to, tokenId);\n    }\n\n    function _transferredTo(uint256 _id, uint256 _userId) private view onlyUser(_userId) returns(Candidate memory) {\n        uint256 candidateId = voteToCandidate[_id];\n        Candidate memory candidate = idToCandidate[candidateId];\n        return candidate;\n    }\n}",
  "sourcePath": "/home/d3mon/Projects/sudo-rm--rf/contracts/VotingTransactions.sol",
  "compiler": {
    "name": "solc",
    "version": "0.5.0+commit.1d4f565a.Emscripten.clang"
  },
  "schemaVersion": "3.0.2",
  "updatedAt": "2020-02-04T08:01:47.498Z",
  "devdoc": {
    "methods": {
      "isOwner()": {
        "return": "true if `msg.sender` is the owner of the contract."
      },
      "owner()": {
        "return": "the address of the owner."
      },
      "renounceOwnership()": {
        "details": "Allows the current owner to relinquish control of the contract."
      },
      "transferOwnership(address)": {
        "details": "Allows the current owner to transfer control of the contract to a newOwner.",
        "params": {
          "newOwner": "The address to transfer ownership to."
        }
      }
    }
  },
  "userdoc": {
    "methods": {
      "renounceOwnership()": {
        "notice": "Renouncing to ownership will leave the contract without an owner. It will not be possible to call the functions with the `onlyOwner` modifier anymore."
      }
    }
  }
}