{
  "contractName": "VotingTransactions",
  "abi": [
    {
      "constant": true,
      "inputs": [
        {
          "name": "",
          "type": "uint256"
        }
      ],
      "name": "candidateVoteCount",
      "outputs": [
        {
          "name": "",
          "type": "uint256"
        }
      ],
      "payable": false,
      "stateMutability": "view",
      "type": "function"
    },
    {
      "constant": true,
      "inputs": [
        {
          "name": "",
          "type": "uint256"
        }
      ],
      "name": "idToConstituency",
      "outputs": [
        {
          "name": "_id",
          "type": "uint256"
        },
        {
          "name": "_startTime",
          "type": "uint256"
        },
        {
          "name": "_duration",
          "type": "uint256"
        }
      ],
      "payable": false,
      "stateMutability": "view",
      "type": "function"
    },
    {
      "constant": false,
      "inputs": [
        {
          "name": "_id",
          "type": "uint256"
        },
        {
          "name": "_constituencyId",
          "type": "uint256"
        },
        {
          "name": "_adminId",
          "type": "uint256"
        }
      ],
      "name": "assignCandidateToConstituency",
      "outputs": [],
      "payable": false,
      "stateMutability": "nonpayable",
      "type": "function"
    },
    {
      "constant": true,
      "inputs": [
        {
          "name": "",
          "type": "uint256"
        }
      ],
      "name": "candidateToConstituency",
      "outputs": [
        {
          "name": "",
          "type": "uint256"
        }
      ],
      "payable": false,
      "stateMutability": "view",
      "type": "function"
    },
    {
      "constant": true,
      "inputs": [
        {
          "name": "",
          "type": "uint256"
        }
      ],
      "name": "admins",
      "outputs": [
        {
          "name": "",
          "type": "uint256"
        }
      ],
      "payable": false,
      "stateMutability": "view",
      "type": "function"
    },
    {
      "constant": false,
      "inputs": [
        {
          "name": "_adminId",
          "type": "uint256"
        }
      ],
      "name": "getConstituencies",
      "outputs": [
        {
          "components": [
            {
              "name": "_id",
              "type": "uint256"
            },
            {
              "name": "_startTime",
              "type": "uint256"
            },
            {
              "name": "_duration",
              "type": "uint256"
            }
          ],
          "name": "",
          "type": "tuple[]"
        }
      ],
      "payable": false,
      "stateMutability": "nonpayable",
      "type": "function"
    },
    {
      "constant": false,
      "inputs": [
        {
          "name": "_id",
          "type": "uint256"
        },
        {
          "name": "_userId",
          "type": "uint256"
        }
      ],
      "name": "getConstituencyDetails",
      "outputs": [
        {
          "components": [
            {
              "name": "_id",
              "type": "uint256"
            },
            {
              "name": "_startTime",
              "type": "uint256"
            },
            {
              "name": "_duration",
              "type": "uint256"
            }
          ],
          "name": "",
          "type": "tuple"
        }
      ],
      "payable": false,
      "stateMutability": "nonpayable",
      "type": "function"
    },
    {
      "constant": true,
      "inputs": [
        {
          "name": "",
          "type": "uint256"
        }
      ],
      "name": "candidates",
      "outputs": [
        {
          "name": "_id",
          "type": "uint256"
        }
      ],
      "payable": false,
      "stateMutability": "view",
      "type": "function"
    },
    {
      "constant": false,
      "inputs": [
        {
          "name": "_id",
          "type": "uint256"
        },
        {
          "name": "_adminId",
          "type": "uint256"
        }
      ],
      "name": "registerConstituency",
      "outputs": [],
      "payable": false,
      "stateMutability": "nonpayable",
      "type": "function"
    },
    {
      "constant": true,
      "inputs": [
        {
          "name": "",
          "type": "uint256"
        }
      ],
      "name": "constituencyCandidateCount",
      "outputs": [
        {
          "name": "",
          "type": "uint256"
        }
      ],
      "payable": false,
      "stateMutability": "view",
      "type": "function"
    },
    {
      "constant": true,
      "inputs": [
        {
          "name": "",
          "type": "uint256"
        }
      ],
      "name": "voteToCandidate",
      "outputs": [
        {
          "name": "",
          "type": "uint256"
        }
      ],
      "payable": false,
      "stateMutability": "view",
      "type": "function"
    },
    {
      "constant": true,
      "inputs": [
        {
          "name": "",
          "type": "uint256"
        }
      ],
      "name": "idToCandidate",
      "outputs": [
        {
          "name": "_id",
          "type": "uint256"
        }
      ],
      "payable": false,
      "stateMutability": "view",
      "type": "function"
    },
    {
      "constant": false,
      "inputs": [
        {
          "name": "_id",
          "type": "uint256"
        },
        {
          "name": "_adminId",
          "type": "uint256"
        }
      ],
      "name": "registerCandidate",
      "outputs": [],
      "payable": false,
      "stateMutability": "nonpayable",
      "type": "function"
    },
    {
      "constant": false,
      "inputs": [],
      "name": "renounceOwnership",
      "outputs": [],
      "payable": false,
      "stateMutability": "nonpayable",
      "type": "function"
    },
    {
      "constant": true,
      "inputs": [],
      "name": "owner",
      "outputs": [
        {
          "name": "",
          "type": "address"
        }
      ],
      "payable": false,
      "stateMutability": "view",
      "type": "function"
    },
    {
      "constant": true,
      "inputs": [],
      "name": "isOwner",
      "outputs": [
        {
          "name": "",
          "type": "bool"
        }
      ],
      "payable": false,
      "stateMutability": "view",
      "type": "function"
    },
    {
      "constant": true,
      "inputs": [
        {
          "name": "",
          "type": "uint256"
        }
      ],
      "name": "constituencies",
      "outputs": [
        {
          "name": "_id",
          "type": "uint256"
        },
        {
          "name": "_startTime",
          "type": "uint256"
        },
        {
          "name": "_duration",
          "type": "uint256"
        }
      ],
      "payable": false,
      "stateMutability": "view",
      "type": "function"
    },
    {
      "constant": false,
      "inputs": [
        {
          "name": "_id",
          "type": "uint256"
        }
      ],
      "name": "registerAdmin",
      "outputs": [],
      "payable": false,
      "stateMutability": "nonpayable",
      "type": "function"
    },
    {
      "constant": true,
      "inputs": [
        {
          "name": "_constituencyId",
          "type": "uint256"
        },
        {
          "name": "_userId",
          "type": "uint256"
        }
      ],
      "name": "getCandidatesByConstituency",
      "outputs": [
        {
          "components": [
            {
              "name": "_id",
              "type": "uint256"
            }
          ],
          "name": "",
          "type": "tuple[]"
        }
      ],
      "payable": false,
      "stateMutability": "view",
      "type": "function"
    },
    {
      "constant": true,
      "inputs": [
        {
          "name": "",
          "type": "uint256"
        }
      ],
      "name": "voters",
      "outputs": [
        {
          "name": "_id",
          "type": "uint256"
        },
        {
          "name": "_constituencyId",
          "type": "uint256"
        },
        {
          "name": "_hasVoted",
          "type": "bool"
        },
        {
          "components": [
            {
              "name": "_voteId",
              "type": "uint256"
            },
            {
              "name": "_votedId",
              "type": "uint256"
            },
            {
              "name": "_voteTime",
              "type": "uint64"
            }
          ],
          "name": "_vote",
          "type": "tuple"
        }
      ],
      "payable": false,
      "stateMutability": "view",
      "type": "function"
    },
    {
      "constant": false,
      "inputs": [
        {
          "name": "newOwner",
          "type": "address"
        }
      ],
      "name": "transferOwnership",
      "outputs": [],
      "payable": false,
      "stateMutability": "nonpayable",
      "type": "function"
    },
    {
      "constant": false,
      "inputs": [
        {
          "name": "_id",
          "type": "uint256"
        },
        {
          "name": "_duration",
          "type": "uint256"
        },
        {
          "name": "_adminId",
          "type": "uint256"
        }
      ],
      "name": "generateElectionforConstituency",
      "outputs": [],
      "payable": false,
      "stateMutability": "nonpayable",
      "type": "function"
    },
    {
      "constant": true,
      "inputs": [
        {
          "name": "",
          "type": "uint256"
        }
      ],
      "name": "idToVoter",
      "outputs": [
        {
          "name": "_id",
          "type": "uint256"
        },
        {
          "name": "_constituencyId",
          "type": "uint256"
        },
        {
          "name": "_hasVoted",
          "type": "bool"
        },
        {
          "components": [
            {
              "name": "_voteId",
              "type": "uint256"
            },
            {
              "name": "_votedId",
              "type": "uint256"
            },
            {
              "name": "_voteTime",
              "type": "uint64"
            }
          ],
          "name": "_vote",
          "type": "tuple"
        }
      ],
      "payable": false,
      "stateMutability": "view",
      "type": "function"
    },
    {
      "anonymous": false,
      "inputs": [
        {
          "indexed": true,
          "name": "_from",
          "type": "uint256"
        },
        {
          "indexed": true,
          "name": "_to",
          "type": "uint256"
        },
        {
          "indexed": true,
          "name": "_tokenId",
          "type": "bytes32"
        }
      ],
      "name": "Transfer",
      "type": "event"
    },
    {
      "anonymous": false,
      "inputs": [
        {
          "indexed": false,
          "name": "_id",
          "type": "uint256"
        },
        {
          "indexed": false,
          "name": "_constituencyId",
          "type": "uint256"
        }
      ],
      "name": "VoterCreated",
      "type": "event"
    },
    {
      "anonymous": false,
      "inputs": [
        {
          "indexed": false,
          "name": "_id",
          "type": "uint256"
        }
      ],
      "name": "CandidateRegistered",
      "type": "event"
    },
    {
      "anonymous": false,
      "inputs": [
        {
          "indexed": false,
          "name": "_id",
          "type": "uint256"
        }
      ],
      "name": "ConstituencyRegistered",
      "type": "event"
    },
    {
      "anonymous": false,
      "inputs": [
        {
          "indexed": true,
          "name": "previousOwner",
          "type": "address"
        },
        {
          "indexed": true,
          "name": "newOwner",
          "type": "address"
        }
      ],
      "name": "OwnershipTransferred",
      "type": "event"
    },
    {
      "constant": false,
      "inputs": [
        {
          "name": "from",
          "type": "uint256"
        },
        {
          "name": "to",
          "type": "uint256"
        },
        {
          "name": "tokenId",
          "type": "bytes32"
        }
      ],
      "name": "transferFrom",
      "outputs": [],
      "payable": false,
      "stateMutability": "nonpayable",
      "type": "function"
    }
  ],
  "bytecode": "0x6080604052336000806101000a81548173ffffffffffffffffffffffffffffffffffffffff021916908373ffffffffffffffffffffffffffffffffffffffff1602179055506000809054906101000a900473ffffffffffffffffffffffffffffffffffffffff1673ffffffffffffffffffffffffffffffffffffffff16600073ffffffffffffffffffffffffffffffffffffffff167f8be0079c531659141344cd1fd0a4f28419497f9722a3daafe3b4186f6b6457e060405160405180910390a360008060146101000a81548160ff0219169083151502179055506118f4806100e96000396000f3fe60806040526004361061013e576000357c0100000000000000000000000000000000000000000000000000000000900463ffffffff16806301aa2e03146101435780630f80dcb01461018057806312d51c72146101bf5780631471e0ab146101e857806314bfd6d01461022557806328975210146102625780632fd23a3f1461029f5780633477ee2e146102dc5780633acab52f146103195780633b04a6c9146103425780633ba8b3ff1461037f57806356be1658146103a857806357e2ef10146103e55780635d6e505214610422578063715018a61461044b5780638da5cb5b146104625780638f32d59b1461048d5780639209416a146104b857806394845254146104f7578063bbc893a314610520578063da58c7d91461055d578063f2fde38b1461059d578063f7590065146105c6578063f8c70571146105ef575b600080fd5b34801561014f57600080fd5b5061016a600480360361016591908101906113eb565b61062f565b6040516101779190611757565b60405180910390f35b34801561018c57600080fd5b506101a760048036036101a291908101906113eb565b610647565b6040516101b6939291906117b7565b60405180910390f35b3480156101cb57600080fd5b506101e660048036036101e1919081019061149f565b610671565b005b3480156101f457600080fd5b5061020f600480360361020a91908101906113eb565b610700565b60405161021c9190611757565b60405180910390f35b34801561023157600080fd5b5061024c600480360361024791908101906113eb565b610718565b6040516102599190611757565b60405180910390f35b34801561026e57600080fd5b50610289600480360361028491908101906113eb565b61073b565b60405161029691906116ff565b60405180910390f35b3480156102ab57600080fd5b506102c660048036036102c19190810190611414565b61080a565b6040516102d3919061173c565b60405180910390f35b3480156102e857600080fd5b5061030360048036036102fe91908101906113eb565b61088b565b6040516103109190611757565b60405180910390f35b34801561032557600080fd5b50610340600480360361033b9190810190611414565b6108b4565b005b34801561034e57600080fd5b50610369600480360361036491908101906113eb565b610a02565b6040516103769190611757565b60405180910390f35b34801561038b57600080fd5b506103a660048036036103a19190810190611450565b610a1a565b005b3480156103b457600080fd5b506103cf60048036036103ca91908101906113eb565b610bb5565b6040516103dc9190611757565b60405180910390f35b3480156103f157600080fd5b5061040c600480360361040791908101906113eb565b610bcd565b6040516104199190611757565b60405180910390f35b34801561042e57600080fd5b5061044960048036036104449190810190611414565b610beb565b005b34801561045757600080fd5b50610460610cfb565b005b34801561046e57600080fd5b50610477610dcd565b60405161048491906116c2565b60405180910390f35b34801561049957600080fd5b506104a2610df6565b6040516104af9190611721565b60405180910390f35b3480156104c457600080fd5b506104df60048036036104da91908101906113eb565b610e4d565b6040516104ee939291906117b7565b60405180910390f35b34801561050357600080fd5b5061051e600480360361051991908101906113eb565b610e86565b005b34801561052c57600080fd5b5061054760048036036105429190810190611414565b610ec8565b60405161055491906116dd565b60405180910390f35b34801561056957600080fd5b50610584600480360361057f91908101906113eb565b610fff565b6040516105949493929190611772565b60405180910390f35b3480156105a957600080fd5b506105c460048036036105bf91908101906113c2565b61109c565b005b3480156105d257600080fd5b506105ed60048036036105e8919081019061149f565b6110bb565b005b3480156105fb57600080fd5b50610616600480360361061191908101906113eb565b61116b565b6040516106269493929190611772565b60405180910390f35b60076020528060005260406000206000915090505481565b60036020528060005260406000206000915090508060000154908060010154908060020154905083565b8060008090505b600b805490508110156106f95781600b8281548110151561069557fe5b906000526020600020015414156106e65783600560008781526020019081526020016000208190555060066000858152602001908152602001600020600081548092919060010191905055506106eb565b6106ec565b5b8080600101915050610678565b5050505050565b60056020528060005260406000206000915090505481565b600b8181548110151561072757fe5b906000526020600020016000915090505481565b60608160008090505b600b805490508110156108035781600b8281548110151561076157fe5b906000526020600020015414156107f057600a805480602002602001604051908101604052809291908181526020016000905b828210156107e5578382906000526020600020906003020160606040519081016040529081600082015481526020016001820154815260200160028201548152505081526020019060010190610794565b5050505092506107f5565b6107f6565b5b8080600101915050610744565b5050919050565b6108126112f3565b81600060016000838152602001908152602001600020600001541415151561083957600080fd5b6108416112f3565b600360008681526020019081526020016000206060604051908101604052908160008201548152602001600182015481526020016002820154815250509050809250505092915050565b60098181548110151561089a57fe5b906000526020600020016000915090508060000154905081565b8060008090505b600b805490508110156109fc5781600b828154811015156108d857fe5b906000526020600020015414156109e95760006001600a606060405190810160405280888152602001600081526020016000815250908060018154018082558091505090600182039060005260206000209060030201600090919290919091506000820151816000015560208201518160010155604082015181600201555050039050600a8181548110151561096a57fe5b9060005260206000209060030201600360008781526020019081526020016000206000820154816000015560018201548160010155600282015481600201559050507f21db1a92fb8efb483c22a581ee7e282b6d79d9d43b559ee1affa341818867969856040516109db9190611757565b60405180910390a1506109ee565b6109ef565b5b80806001019150506108bb565b50505050565b60066020528060005260406000206000915090505481565b826000600160008381526020019081526020016000206000015414151515610a4157600080fd5b60056000848152602001908152602001600020546001600086815260200190815260200160002060010154141515610a7857600080fd5b610a80611315565b600160008681526020019081526020016000206080604051908101604052908160008201548152602001600182015481526020016002820160009054906101000a900460ff16151515158152602001600382016060604051908101604052908160008201548152602001600182015481526020016002820160009054906101000a900467ffffffffffffffff1667ffffffffffffffff1667ffffffffffffffff16815250508152505090506001816040019015159081151581525050836004600083606001516000015181526020019081526020016000208190555060076000858152602001908152602001600020600081548092919060010191905055508284867f612c500cbd8f1ed8a4643cbf6b41fda92203645d7e4f7c3a237a1be69565ea2c60405160405180910390a45050505050565b60046020528060005260406000206000915090505481565b60026020528060005260406000206000915090508060000154905081565b8060008090505b600b80549050811015610cf55781600b82815481101515610c0f57fe5b90600052602060002001541415610ce25760006001600960206040519081016040528088815250908060018154018082558091505090600182039060005260206000200160009091929091909150600082015181600001555050039050600981815481101515610c7b57fe5b9060005260206000200160026000878152602001908152602001600020600082015481600001559050507f43dcee486fabffa2fb551555bfaa5bfcf6a42f2d014032ccef94bf09d83855eb85604051610cd49190611757565b60405180910390a150610ce7565b610ce8565b5b8080600101915050610bf2565b50505050565b610d03610df6565b1515610d0e57600080fd5b600073ffffffffffffffffffffffffffffffffffffffff166000809054906101000a900473ffffffffffffffffffffffffffffffffffffffff1673ffffffffffffffffffffffffffffffffffffffff167f8be0079c531659141344cd1fd0a4f28419497f9722a3daafe3b4186f6b6457e060405160405180910390a360008060006101000a81548173ffffffffffffffffffffffffffffffffffffffff021916908373ffffffffffffffffffffffffffffffffffffffff160217905550565b60008060009054906101000a900473ffffffffffffffffffffffffffffffffffffffff16905090565b60008060009054906101000a900473ffffffffffffffffffffffffffffffffffffffff1673ffffffffffffffffffffffffffffffffffffffff163373ffffffffffffffffffffffffffffffffffffffff1614905090565b600a81815481101515610e5c57fe5b90600052602060002090600302016000915090508060000154908060010154908060020154905083565b610e8e610df6565b1515610e9957600080fd5b600b81908060018154018082558091505090600182039060005260206000200160009091929091909150555050565b6060816000600160008381526020019081526020016000206000015414151515610ef157600080fd5b60606006600086815260200190815260200160002054604051908082528060200260200182016040528015610f4057816020015b610f2d611346565b815260200190600190039081610f255790505b509050600080905060008090505b600980549050811015610ff2578660056000600984815481101515610f6f57fe5b90600052602060002001600001548152602001908152602001600020541415610fe557600981815481101515610fa157fe5b90600052602060002001602060405190810160405290816000820154815250508383815181101515610fcf57fe5b9060200190602002018190525081806001019250505b8080600101915050610f4e565b5081935050505092915050565b60088181548110151561100e57fe5b90600052602060002090600602016000915090508060000154908060010154908060020160009054906101000a900460ff1690806003016060604051908101604052908160008201548152602001600182015481526020016002820160009054906101000a900467ffffffffffffffff1667ffffffffffffffff1667ffffffffffffffff1681525050905084565b6110a4610df6565b15156110af57600080fd5b6110b8816111f9565b50565b8060008090505b600b805490508110156111645781600b828154811015156110df57fe5b90600052602060002001541415611151576110f86112f3565b600360008781526020019081526020016000206060604051908101604052908160008201548152602001600182015481526020016002820154815250509050428160200181815250508481604001818152505050611156565b611157565b5b80806001019150506110c2565b5050505050565b60016020528060005260406000206000915090508060000154908060010154908060020160009054906101000a900460ff1690806003016060604051908101604052908160008201548152602001600182015481526020016002820160009054906101000a900467ffffffffffffffff1667ffffffffffffffff1667ffffffffffffffff1681525050905084565b600073ffffffffffffffffffffffffffffffffffffffff168173ffffffffffffffffffffffffffffffffffffffff161415151561123557600080fd5b8073ffffffffffffffffffffffffffffffffffffffff166000809054906101000a900473ffffffffffffffffffffffffffffffffffffffff1673ffffffffffffffffffffffffffffffffffffffff167f8be0079c531659141344cd1fd0a4f28419497f9722a3daafe3b4186f6b6457e060405160405180910390a3806000806101000a81548173ffffffffffffffffffffffffffffffffffffffff021916908373ffffffffffffffffffffffffffffffffffffffff16021790555050565b6060604051908101604052806000815260200160008152602001600081525090565b60c060405190810160405280600081526020016000815260200160001515815260200161134061135a565b81525090565b602060405190810160405280600081525090565b6060604051908101604052806000815260200160008152602001600067ffffffffffffffff1681525090565b60006113928235611894565b905092915050565b60006113a682356118a6565b905092915050565b60006113ba82356118b0565b905092915050565b6000602082840312156113d457600080fd5b60006113e284828501611386565b91505092915050565b6000602082840312156113fd57600080fd5b600061140b848285016113ae565b91505092915050565b6000806040838503121561142757600080fd5b6000611435858286016113ae565b9250506020611446858286016113ae565b9150509250929050565b60008060006060848603121561146557600080fd5b6000611473868287016113ae565b9350506020611484868287016113ae565b92505060406114958682870161139a565b9150509250925092565b6000806000606084860312156114b457600080fd5b60006114c2868287016113ae565b93505060206114d3868287016113ae565b92505060406114e4868287016113ae565b9150509250925092565b6114f781611838565b82525050565b600061150882611808565b80845260208401935061151a836117ee565b60005b8281101561154c576115308683516115c2565b6115398261181e565b915060208601955060018101905061151d565b50849250505092915050565b600061156382611813565b808452602084019350611575836117fb565b60005b828110156115a75761158b868351611620565b6115948261182b565b9150606086019550600181019050611578565b50849250505092915050565b6115bc8161184a565b82525050565b6020820160008201516115d860008501826116a4565b50505050565b6060820160008201516115f460008501826116a4565b50602082015161160760208501826116a4565b50604082015161161a60408501826116a4565b50505050565b60608201600082015161163660008501826116a4565b50602082015161164960208501826116a4565b50604082015161165c60408501826116a4565b50505050565b60608201600082015161167860008501826116a4565b50602082015161168b60208501826116a4565b50604082015161169e60408501826116b3565b50505050565b6116ad81611876565b82525050565b6116bc81611880565b82525050565b60006020820190506116d760008301846114ee565b92915050565b600060208201905081810360008301526116f781846114fd565b905092915050565b600060208201905081810360008301526117198184611558565b905092915050565b600060208201905061173660008301846115b3565b92915050565b600060608201905061175160008301846115de565b92915050565b600060208201905061176c60008301846116a4565b92915050565b600060c08201905061178760008301876116a4565b61179460208301866116a4565b6117a160408301856115b3565b6117ae6060830184611662565b95945050505050565b60006060820190506117cc60008301866116a4565b6117d960208301856116a4565b6117e660408301846116a4565b949350505050565b6000602082019050919050565b6000602082019050919050565b600081519050919050565b600081519050919050565b6000602082019050919050565b6000602082019050919050565b600061184382611856565b9050919050565b60008115159050919050565b600073ffffffffffffffffffffffffffffffffffffffff82169050919050565b6000819050919050565b600067ffffffffffffffff82169050919050565b600061189f82611856565b9050919050565b6000819050919050565b600081905091905056fea265627a7a72305820ec6d4b41a0deda9ae1d2377b305ba6b15fc2342051c4a46dedccc02eb3a5a9f56c6578706572696d656e74616cf50037",
  "source": "pragma solidity ^0.5.0;\npragma experimental ABIEncoderV2;\nimport \"./ElectionHelper.sol\";\n\ncontract VotingTransactions is ElectionHelper {\n    event Transfer(uint256 indexed _from, uint256 indexed _to, bytes32 indexed _tokenId);\n\n    // function ownerOf(uint256 tokenId) public view returns (address) {\n    //     address owner = _tokenOwner[tokenId];\n    //     require(owner != address(0), \"ERC721: owner query for nonexistent token\");\n\n    //     return owner;\n    // }\n\n    function transferFrom(uint256 from, uint256 to, bytes32 tokenId) public onlyUser(from) {\n        require(idToVoter[from]._constituencyId == candidateToConstituency[to]);\n        Voter memory voter = idToVoter[from];\n        voter._hasVoted = true;\n        voteToCandidate[voter._vote._voteId] = to;\n        candidateVoteCount[to]++;\n        emit Transfer(from, to, tokenId);\n    }\n\n    function _transferredTo(uint256 _id, uint256 _userId) private view onlyUser(_userId) returns(Candidate memory) {\n        uint256 candidateId = voteToCandidate[_id];\n        Candidate memory candidate = idToCandidate[candidateId];\n        return candidate;\n    }\n}",
  "sourcePath": "/home/d3mon/Projects/sudo-rm--rf/contracts/VotingTransactions.sol",
  "compiler": {
    "name": "solc",
    "version": "0.5.0+commit.1d4f565a.Emscripten.clang"
  },
  "schemaVersion": "3.0.2",
  "updatedAt": "2019-12-24T13:41:29.572Z",
  "devdoc": {
    "methods": {
      "isOwner()": {
        "return": "true if `msg.sender` is the owner of the contract."
      },
      "owner()": {
        "return": "the address of the owner."
      },
      "renounceOwnership()": {
        "details": "Allows the current owner to relinquish control of the contract."
      },
      "transferOwnership(address)": {
        "details": "Allows the current owner to transfer control of the contract to a newOwner.",
        "params": {
          "newOwner": "The address to transfer ownership to."
        }
      }
    }
  },
  "userdoc": {
    "methods": {
      "renounceOwnership()": {
        "notice": "Renouncing to ownership will leave the contract without an owner. It will not be possible to call the functions with the `onlyOwner` modifier anymore."
      }
    }
  }
}