{
  "contractName": "VotingTransactions",
  "abi": [
    {
      "constant": true,
      "inputs": [
        {
          "name": "",
          "type": "uint256"
        }
      ],
      "name": "candidateVoteCount",
      "outputs": [
        {
          "name": "",
          "type": "uint256"
        }
      ],
      "payable": false,
      "stateMutability": "view",
      "type": "function"
    },
    {
      "constant": true,
      "inputs": [
        {
          "name": "",
          "type": "uint256"
        }
      ],
      "name": "idToConstituency",
      "outputs": [
        {
          "name": "_id",
          "type": "uint256"
        },
        {
          "name": "_startTime",
          "type": "uint256"
        },
        {
          "name": "_duration",
          "type": "uint256"
        }
      ],
      "payable": false,
      "stateMutability": "view",
      "type": "function"
    },
    {
      "constant": false,
      "inputs": [
        {
          "name": "_id",
          "type": "uint256"
        },
        {
          "name": "_constituencyId",
          "type": "uint256"
        },
        {
          "name": "_adminId",
          "type": "uint256"
        }
      ],
      "name": "assignCandidateToConstituency",
      "outputs": [],
      "payable": false,
      "stateMutability": "nonpayable",
      "type": "function"
    },
    {
      "constant": true,
      "inputs": [
        {
          "name": "",
          "type": "uint256"
        }
      ],
      "name": "candidateToConstituency",
      "outputs": [
        {
          "name": "",
          "type": "uint256"
        }
      ],
      "payable": false,
      "stateMutability": "view",
      "type": "function"
    },
    {
      "constant": true,
      "inputs": [
        {
          "name": "",
          "type": "uint256"
        }
      ],
      "name": "admins",
      "outputs": [
        {
          "name": "",
          "type": "uint256"
        }
      ],
      "payable": false,
      "stateMutability": "view",
      "type": "function"
    },
    {
      "constant": false,
      "inputs": [
        {
          "name": "_adminId",
          "type": "uint256"
        }
      ],
      "name": "getConstituencies",
      "outputs": [
        {
          "components": [
            {
              "name": "_id",
              "type": "uint256"
            },
            {
              "name": "_startTime",
              "type": "uint256"
            },
            {
              "name": "_duration",
              "type": "uint256"
            }
          ],
          "name": "",
          "type": "tuple[]"
        }
      ],
      "payable": false,
      "stateMutability": "nonpayable",
      "type": "function"
    },
    {
      "constant": false,
      "inputs": [
        {
          "name": "_id",
          "type": "uint256"
        },
        {
          "name": "_userId",
          "type": "uint256"
        }
      ],
      "name": "getConstituencyDetails",
      "outputs": [
        {
          "components": [
            {
              "name": "_id",
              "type": "uint256"
            },
            {
              "name": "_startTime",
              "type": "uint256"
            },
            {
              "name": "_duration",
              "type": "uint256"
            }
          ],
          "name": "",
          "type": "tuple"
        }
      ],
      "payable": false,
      "stateMutability": "nonpayable",
      "type": "function"
    },
    {
      "constant": true,
      "inputs": [
        {
          "name": "",
          "type": "uint256"
        }
      ],
      "name": "candidates",
      "outputs": [
        {
          "name": "_id",
          "type": "uint256"
        }
      ],
      "payable": false,
      "stateMutability": "view",
      "type": "function"
    },
    {
      "constant": false,
      "inputs": [
        {
          "name": "_id",
          "type": "uint256"
        },
        {
          "name": "_adminId",
          "type": "uint256"
        }
      ],
      "name": "registerConstituency",
      "outputs": [],
      "payable": false,
      "stateMutability": "nonpayable",
      "type": "function"
    },
    {
      "constant": true,
      "inputs": [
        {
          "name": "",
          "type": "uint256"
        }
      ],
      "name": "constituencyCandidateCount",
      "outputs": [
        {
          "name": "",
          "type": "uint256"
        }
      ],
      "payable": false,
      "stateMutability": "view",
      "type": "function"
    },
    {
      "constant": true,
      "inputs": [
        {
          "name": "",
          "type": "uint256"
        }
      ],
      "name": "voteToCandidate",
      "outputs": [
        {
          "name": "",
          "type": "uint256"
        }
      ],
      "payable": false,
      "stateMutability": "view",
      "type": "function"
    },
    {
      "constant": true,
      "inputs": [
        {
          "name": "",
          "type": "uint256"
        }
      ],
      "name": "idToCandidate",
      "outputs": [
        {
          "name": "_id",
          "type": "uint256"
        }
      ],
      "payable": false,
      "stateMutability": "view",
      "type": "function"
    },
    {
      "constant": false,
      "inputs": [
        {
          "name": "_id",
          "type": "uint256"
        },
        {
          "name": "_adminId",
          "type": "uint256"
        }
      ],
      "name": "registerCandidate",
      "outputs": [],
      "payable": false,
      "stateMutability": "nonpayable",
      "type": "function"
    },
    {
      "constant": false,
      "inputs": [],
      "name": "renounceOwnership",
      "outputs": [],
      "payable": false,
      "stateMutability": "nonpayable",
      "type": "function"
    },
    {
      "constant": true,
      "inputs": [],
      "name": "owner",
      "outputs": [
        {
          "name": "",
          "type": "address"
        }
      ],
      "payable": false,
      "stateMutability": "view",
      "type": "function"
    },
    {
      "constant": true,
      "inputs": [],
      "name": "isOwner",
      "outputs": [
        {
          "name": "",
          "type": "bool"
        }
      ],
      "payable": false,
      "stateMutability": "view",
      "type": "function"
    },
    {
      "constant": true,
      "inputs": [
        {
          "name": "",
          "type": "uint256"
        }
      ],
      "name": "constituencies",
      "outputs": [
        {
          "name": "_id",
          "type": "uint256"
        },
        {
          "name": "_startTime",
          "type": "uint256"
        },
        {
          "name": "_duration",
          "type": "uint256"
        }
      ],
      "payable": false,
      "stateMutability": "view",
      "type": "function"
    },
    {
      "constant": false,
      "inputs": [
        {
          "name": "_id",
          "type": "uint256"
        }
      ],
      "name": "registerAdmin",
      "outputs": [],
      "payable": false,
      "stateMutability": "nonpayable",
      "type": "function"
    },
    {
      "constant": true,
      "inputs": [],
      "name": "ResultsDeclared",
      "outputs": [
        {
          "name": "",
          "type": "bool"
        }
      ],
      "payable": false,
      "stateMutability": "view",
      "type": "function"
    },
    {
      "constant": true,
      "inputs": [
        {
          "name": "_constituencyId",
          "type": "uint256"
        },
        {
          "name": "_userId",
          "type": "uint256"
        }
      ],
      "name": "getCandidatesByConstituency",
      "outputs": [
        {
          "components": [
            {
              "name": "_id",
              "type": "uint256"
            }
          ],
          "name": "",
          "type": "tuple[]"
        }
      ],
      "payable": false,
      "stateMutability": "view",
      "type": "function"
    },
    {
      "constant": true,
      "inputs": [
        {
          "name": "",
          "type": "uint256"
        }
      ],
      "name": "voters",
      "outputs": [
        {
          "name": "_id",
          "type": "uint256"
        },
        {
          "name": "_constituencyId",
          "type": "uint256"
        },
        {
          "name": "_hasVoted",
          "type": "bool"
        },
        {
          "components": [
            {
              "name": "_voteId",
              "type": "uint256"
            },
            {
              "name": "_votedId",
              "type": "uint256"
            },
            {
              "name": "_voteTime",
              "type": "uint64"
            }
          ],
          "name": "_vote",
          "type": "tuple"
        }
      ],
      "payable": false,
      "stateMutability": "view",
      "type": "function"
    },
    {
      "constant": false,
      "inputs": [
        {
          "name": "newOwner",
          "type": "address"
        }
      ],
      "name": "transferOwnership",
      "outputs": [],
      "payable": false,
      "stateMutability": "nonpayable",
      "type": "function"
    },
    {
      "constant": false,
      "inputs": [
        {
          "name": "_id",
          "type": "uint256"
        },
        {
          "name": "_duration",
          "type": "uint256"
        },
        {
          "name": "_adminId",
          "type": "uint256"
        }
      ],
      "name": "generateElectionforConstituency",
      "outputs": [],
      "payable": false,
      "stateMutability": "nonpayable",
      "type": "function"
    },
    {
      "constant": true,
      "inputs": [
        {
          "name": "",
          "type": "uint256"
        }
      ],
      "name": "idToVoter",
      "outputs": [
        {
          "name": "_id",
          "type": "uint256"
        },
        {
          "name": "_constituencyId",
          "type": "uint256"
        },
        {
          "name": "_hasVoted",
          "type": "bool"
        },
        {
          "components": [
            {
              "name": "_voteId",
              "type": "uint256"
            },
            {
              "name": "_votedId",
              "type": "uint256"
            },
            {
              "name": "_voteTime",
              "type": "uint64"
            }
          ],
          "name": "_vote",
          "type": "tuple"
        }
      ],
      "payable": false,
      "stateMutability": "view",
      "type": "function"
    },
    {
      "anonymous": false,
      "inputs": [
        {
          "indexed": true,
          "name": "_from",
          "type": "uint256"
        },
        {
          "indexed": true,
          "name": "_to",
          "type": "uint256"
        },
        {
          "indexed": true,
          "name": "_tokenId",
          "type": "bytes32"
        }
      ],
      "name": "Transfer",
      "type": "event"
    },
    {
      "anonymous": false,
      "inputs": [
        {
          "indexed": false,
          "name": "_id",
          "type": "uint256"
        },
        {
          "indexed": false,
          "name": "_constituencyId",
          "type": "uint256"
        }
      ],
      "name": "VoterCreated",
      "type": "event"
    },
    {
      "anonymous": false,
      "inputs": [
        {
          "indexed": false,
          "name": "_id",
          "type": "uint256"
        }
      ],
      "name": "CandidateRegistered",
      "type": "event"
    },
    {
      "anonymous": false,
      "inputs": [
        {
          "indexed": false,
          "name": "_id",
          "type": "uint256"
        }
      ],
      "name": "ConstituencyRegistered",
      "type": "event"
    },
    {
      "anonymous": false,
      "inputs": [
        {
          "indexed": true,
          "name": "previousOwner",
          "type": "address"
        },
        {
          "indexed": true,
          "name": "newOwner",
          "type": "address"
        }
      ],
      "name": "OwnershipTransferred",
      "type": "event"
    },
    {
      "constant": false,
      "inputs": [
        {
          "name": "from",
          "type": "uint256"
        },
        {
          "name": "to",
          "type": "uint256"
        },
        {
          "name": "tokenId",
          "type": "bytes32"
        }
      ],
      "name": "transferFrom",
      "outputs": [],
      "payable": false,
      "stateMutability": "nonpayable",
      "type": "function"
    }
  ],
  "bytecode": "0x608060405260008060146101000a81548160ff021916908315150217905550336000806101000a81548173ffffffffffffffffffffffffffffffffffffffff021916908373ffffffffffffffffffffffffffffffffffffffff1602179055506000809054906101000a900473ffffffffffffffffffffffffffffffffffffffff1673ffffffffffffffffffffffffffffffffffffffff16600073ffffffffffffffffffffffffffffffffffffffff167f8be0079c531659141344cd1fd0a4f28419497f9722a3daafe3b4186f6b6457e060405160405180910390a360008060146101000a81548160ff0219169083151502179055506119bf806101036000396000f3fe608060405260043610610149576000357c0100000000000000000000000000000000000000000000000000000000900463ffffffff16806301aa2e031461014e5780630f80dcb01461018b57806312d51c72146101ca5780631471e0ab146101f357806314bfd6d014610230578063289752101461026d5780632fd23a3f146102aa5780633477ee2e146102e75780633acab52f146103245780633b04a6c91461034d5780633ba8b3ff1461038a57806356be1658146103b357806357e2ef10146103f05780635d6e50521461042d578063715018a6146104565780638da5cb5b1461046d5780638f32d59b146104985780639209416a146104c35780639484525414610502578063aa3e4e1c1461052b578063bbc893a314610556578063da58c7d914610593578063f2fde38b146105d3578063f7590065146105fc578063f8c7057114610625575b600080fd5b34801561015a57600080fd5b50610175600480360361017091908101906114b6565b610665565b6040516101829190611822565b60405180910390f35b34801561019757600080fd5b506101b260048036036101ad91908101906114b6565b61067d565b6040516101c193929190611882565b60405180910390f35b3480156101d657600080fd5b506101f160048036036101ec919081019061156a565b6106a7565b005b3480156101ff57600080fd5b5061021a600480360361021591908101906114b6565b610736565b6040516102279190611822565b60405180910390f35b34801561023c57600080fd5b50610257600480360361025291908101906114b6565b61074e565b6040516102649190611822565b60405180910390f35b34801561027957600080fd5b50610294600480360361028f91908101906114b6565b610771565b6040516102a191906117ca565b60405180910390f35b3480156102b657600080fd5b506102d160048036036102cc91908101906114df565b6108a0565b6040516102de9190611807565b60405180910390f35b3480156102f357600080fd5b5061030e600480360361030991908101906114b6565b610921565b60405161031b9190611822565b60405180910390f35b34801561033057600080fd5b5061034b600480360361034691908101906114df565b61094a565b005b34801561035957600080fd5b50610374600480360361036f91908101906114b6565b610a98565b6040516103819190611822565b60405180910390f35b34801561039657600080fd5b506103b160048036036103ac919081019061151b565b610ab0565b005b3480156103bf57600080fd5b506103da60048036036103d591908101906114b6565b610c4b565b6040516103e79190611822565b60405180910390f35b3480156103fc57600080fd5b50610417600480360361041291908101906114b6565b610c63565b6040516104249190611822565b60405180910390f35b34801561043957600080fd5b50610454600480360361044f91908101906114df565b610c81565b005b34801561046257600080fd5b5061046b610d91565b005b34801561047957600080fd5b50610482610e63565b60405161048f919061178d565b60405180910390f35b3480156104a457600080fd5b506104ad610e8c565b6040516104ba91906117ec565b60405180910390f35b3480156104cf57600080fd5b506104ea60048036036104e591908101906114b6565b610ee3565b6040516104f993929190611882565b60405180910390f35b34801561050e57600080fd5b50610529600480360361052491908101906114b6565b610f1c565b005b34801561053757600080fd5b50610540610f5e565b60405161054d91906117ec565b60405180910390f35b34801561056257600080fd5b5061057d600480360361057891908101906114df565b610f71565b60405161058a91906117a8565b60405180910390f35b34801561059f57600080fd5b506105ba60048036036105b591908101906114b6565b6110a8565b6040516105ca949392919061183d565b60405180910390f35b3480156105df57600080fd5b506105fa60048036036105f5919081019061148d565b611145565b005b34801561060857600080fd5b50610623600480360361061e919081019061156a565b611164565b005b34801561063157600080fd5b5061064c600480360361064791908101906114b6565b611214565b60405161065c949392919061183d565b60405180910390f35b60076020528060005260406000206000915090505481565b60036020528060005260406000206000915090508060000154908060010154908060020154905083565b8060008090505b600b8054905081101561072f5781600b828154811015156106cb57fe5b9060005260206000200154141561071c578360056000878152602001908152602001600020819055506006600085815260200190815260200160002060008154809291906001019190505550610721565b610722565b5b80806001019150506106ae565b5050505050565b60056020528060005260406000206000915090505481565b600b8181548110151561075d57fe5b906000526020600020016000915090505481565b60608160008090505b600b805490508110156108995781600b8281548110151561079757fe5b90600052602060002001541415610886576060600a805490506040519080825280602002602001820160405280156107e957816020015b6107d661139c565b8152602001906001900390816107ce5790505b509050600080905060008090505b600a8054905081101561087b57600a8181548110151561081357fe5b9060005260206000209060030201606060405190810160405290816000820154815260200160018201548152602001600282015481525050838381518110151561085957fe5b90602001906020020181905250818060010192505080806001019150506107f7565b50819450505061088b565b61088c565b5b808060010191505061077a565b5050919050565b6108a86113be565b8160006001600083815260200190815260200160002060000154141515156108cf57600080fd5b6108d76113be565b600360008681526020019081526020016000206060604051908101604052908160008201548152602001600182015481526020016002820154815250509050809250505092915050565b60098181548110151561093057fe5b906000526020600020016000915090508060000154905081565b8060008090505b600b80549050811015610a925781600b8281548110151561096e57fe5b90600052602060002001541415610a7f5760006001600a606060405190810160405280888152602001600081526020016000815250908060018154018082558091505090600182039060005260206000209060030201600090919290919091506000820151816000015560208201518160010155604082015181600201555050039050600a81815481101515610a0057fe5b9060005260206000209060030201600360008781526020019081526020016000206000820154816000015560018201548160010155600282015481600201559050507f21db1a92fb8efb483c22a581ee7e282b6d79d9d43b559ee1affa34181886796985604051610a719190611822565b60405180910390a150610a84565b610a85565b5b8080600101915050610951565b50505050565b60066020528060005260406000206000915090505481565b826000600160008381526020019081526020016000206000015414151515610ad757600080fd5b60056000848152602001908152602001600020546001600086815260200190815260200160002060010154141515610b0e57600080fd5b610b166113e0565b600160008681526020019081526020016000206080604051908101604052908160008201548152602001600182015481526020016002820160009054906101000a900460ff16151515158152602001600382016060604051908101604052908160008201548152602001600182015481526020016002820160009054906101000a900467ffffffffffffffff1667ffffffffffffffff1667ffffffffffffffff16815250508152505090506001816040019015159081151581525050836004600083606001516000015181526020019081526020016000208190555060076000858152602001908152602001600020600081548092919060010191905055508284867f612c500cbd8f1ed8a4643cbf6b41fda92203645d7e4f7c3a237a1be69565ea2c60405160405180910390a45050505050565b60046020528060005260406000206000915090505481565b60026020528060005260406000206000915090508060000154905081565b8060008090505b600b80549050811015610d8b5781600b82815481101515610ca557fe5b90600052602060002001541415610d785760006001600960206040519081016040528088815250908060018154018082558091505090600182039060005260206000200160009091929091909150600082015181600001555050039050600981815481101515610d1157fe5b9060005260206000200160026000878152602001908152602001600020600082015481600001559050507f43dcee486fabffa2fb551555bfaa5bfcf6a42f2d014032ccef94bf09d83855eb85604051610d6a9190611822565b60405180910390a150610d7d565b610d7e565b5b8080600101915050610c88565b50505050565b610d99610e8c565b1515610da457600080fd5b600073ffffffffffffffffffffffffffffffffffffffff166000809054906101000a900473ffffffffffffffffffffffffffffffffffffffff1673ffffffffffffffffffffffffffffffffffffffff167f8be0079c531659141344cd1fd0a4f28419497f9722a3daafe3b4186f6b6457e060405160405180910390a360008060006101000a81548173ffffffffffffffffffffffffffffffffffffffff021916908373ffffffffffffffffffffffffffffffffffffffff160217905550565b60008060009054906101000a900473ffffffffffffffffffffffffffffffffffffffff16905090565b60008060009054906101000a900473ffffffffffffffffffffffffffffffffffffffff1673ffffffffffffffffffffffffffffffffffffffff163373ffffffffffffffffffffffffffffffffffffffff1614905090565b600a81815481101515610ef257fe5b90600052602060002090600302016000915090508060000154908060010154908060020154905083565b610f24610e8c565b1515610f2f57600080fd5b600b81908060018154018082558091505090600182039060005260206000200160009091929091909150555050565b600060149054906101000a900460ff1681565b6060816000600160008381526020019081526020016000206000015414151515610f9a57600080fd5b60606006600086815260200190815260200160002054604051908082528060200260200182016040528015610fe957816020015b610fd6611411565b815260200190600190039081610fce5790505b509050600080905060008090505b60098054905081101561109b57866005600060098481548110151561101857fe5b9060005260206000200160000154815260200190815260200160002054141561108e5760098181548110151561104a57fe5b9060005260206000200160206040519081016040529081600082015481525050838381518110151561107857fe5b9060200190602002018190525081806001019250505b8080600101915050610ff7565b5081935050505092915050565b6008818154811015156110b757fe5b90600052602060002090600602016000915090508060000154908060010154908060020160009054906101000a900460ff1690806003016060604051908101604052908160008201548152602001600182015481526020016002820160009054906101000a900467ffffffffffffffff1667ffffffffffffffff1667ffffffffffffffff1681525050905084565b61114d610e8c565b151561115857600080fd5b611161816112a2565b50565b8060008090505b600b8054905081101561120d5781600b8281548110151561118857fe5b906000526020600020015414156111fa576111a16113be565b6003600087815260200190815260200160002060606040519081016040529081600082015481526020016001820154815260200160028201548152505090504281602001818152505084816040018181525050506111ff565b611200565b5b808060010191505061116b565b5050505050565b60016020528060005260406000206000915090508060000154908060010154908060020160009054906101000a900460ff1690806003016060604051908101604052908160008201548152602001600182015481526020016002820160009054906101000a900467ffffffffffffffff1667ffffffffffffffff1667ffffffffffffffff1681525050905084565b600073ffffffffffffffffffffffffffffffffffffffff168173ffffffffffffffffffffffffffffffffffffffff16141515156112de57600080fd5b8073ffffffffffffffffffffffffffffffffffffffff166000809054906101000a900473ffffffffffffffffffffffffffffffffffffffff1673ffffffffffffffffffffffffffffffffffffffff167f8be0079c531659141344cd1fd0a4f28419497f9722a3daafe3b4186f6b6457e060405160405180910390a3806000806101000a81548173ffffffffffffffffffffffffffffffffffffffff021916908373ffffffffffffffffffffffffffffffffffffffff16021790555050565b6060604051908101604052806000815260200160008152602001600081525090565b6060604051908101604052806000815260200160008152602001600081525090565b60c060405190810160405280600081526020016000815260200160001515815260200161140b611425565b81525090565b602060405190810160405280600081525090565b6060604051908101604052806000815260200160008152602001600067ffffffffffffffff1681525090565b600061145d823561195f565b905092915050565b60006114718235611971565b905092915050565b6000611485823561197b565b905092915050565b60006020828403121561149f57600080fd5b60006114ad84828501611451565b91505092915050565b6000602082840312156114c857600080fd5b60006114d684828501611479565b91505092915050565b600080604083850312156114f257600080fd5b600061150085828601611479565b925050602061151185828601611479565b9150509250929050565b60008060006060848603121561153057600080fd5b600061153e86828701611479565b935050602061154f86828701611479565b925050604061156086828701611465565b9150509250925092565b60008060006060848603121561157f57600080fd5b600061158d86828701611479565b935050602061159e86828701611479565b92505060406115af86828701611479565b9150509250925092565b6115c281611903565b82525050565b60006115d3826118d3565b8084526020840193506115e5836118b9565b60005b82811015611617576115fb86835161168d565b611604826118e9565b91506020860195506001810190506115e8565b50849250505092915050565b600061162e826118de565b808452602084019350611640836118c6565b60005b82811015611672576116568683516116eb565b61165f826118f6565b9150606086019550600181019050611643565b50849250505092915050565b61168781611915565b82525050565b6020820160008201516116a3600085018261176f565b50505050565b6060820160008201516116bf600085018261176f565b5060208201516116d2602085018261176f565b5060408201516116e5604085018261176f565b50505050565b606082016000820151611701600085018261176f565b506020820151611714602085018261176f565b506040820151611727604085018261176f565b50505050565b606082016000820151611743600085018261176f565b506020820151611756602085018261176f565b506040820151611769604085018261177e565b50505050565b61177881611941565b82525050565b6117878161194b565b82525050565b60006020820190506117a260008301846115b9565b92915050565b600060208201905081810360008301526117c281846115c8565b905092915050565b600060208201905081810360008301526117e48184611623565b905092915050565b6000602082019050611801600083018461167e565b92915050565b600060608201905061181c60008301846116a9565b92915050565b6000602082019050611837600083018461176f565b92915050565b600060c082019050611852600083018761176f565b61185f602083018661176f565b61186c604083018561167e565b611879606083018461172d565b95945050505050565b6000606082019050611897600083018661176f565b6118a4602083018561176f565b6118b1604083018461176f565b949350505050565b6000602082019050919050565b6000602082019050919050565b600081519050919050565b600081519050919050565b6000602082019050919050565b6000602082019050919050565b600061190e82611921565b9050919050565b60008115159050919050565b600073ffffffffffffffffffffffffffffffffffffffff82169050919050565b6000819050919050565b600067ffffffffffffffff82169050919050565b600061196a82611921565b9050919050565b6000819050919050565b600081905091905056fea265627a7a72305820ecf3b2829b3ee04461eb228a7d6f9e58cf908cc9d22f2815558da3d5ecc1859c6c6578706572696d656e74616cf50037",
  "source": "pragma solidity ^0.5.0;\npragma experimental ABIEncoderV2;\nimport \"./ElectionHelper.sol\";\n\ncontract VotingTransactions is ElectionHelper {\n    event Transfer(uint256 indexed _from, uint256 indexed _to, bytes32 indexed _tokenId);\n\n    // function ownerOf(uint256 tokenId) public view returns (address) {\n    //     address owner = _tokenOwner[tokenId];\n    //     require(owner != address(0), \"ERC721: owner query for nonexistent token\");\n\n    //     return owner;\n    // }\n\n    function transferFrom(uint256 from, uint256 to, bytes32 tokenId) public onlyUser(from) {\n        require(idToVoter[from]._constituencyId == candidateToConstituency[to]);\n        Voter memory voter = idToVoter[from];\n        voter._hasVoted = true;\n        voteToCandidate[voter._vote._voteId] = to;\n        candidateVoteCount[to]++;\n        emit Transfer(from, to, tokenId);\n    }\n\n    function _transferredTo(uint256 _id, uint256 _userId) private view onlyUser(_userId) returns(Candidate memory) {\n        uint256 candidateId = voteToCandidate[_id];\n        Candidate memory candidate = idToCandidate[candidateId];\n        return candidate;\n    }\n}",
  "sourcePath": "/home/d3mon/Projects/sudo-rm--rf/contracts/VotingTransactions.sol",
  "compiler": {
    "name": "solc",
    "version": "0.5.0+commit.1d4f565a.Emscripten.clang"
  },
  "schemaVersion": "3.0.2",
  "updatedAt": "2020-01-25T20:45:50.006Z",
  "devdoc": {
    "methods": {
      "isOwner()": {
        "return": "true if `msg.sender` is the owner of the contract."
      },
      "owner()": {
        "return": "the address of the owner."
      },
      "renounceOwnership()": {
        "details": "Allows the current owner to relinquish control of the contract."
      },
      "transferOwnership(address)": {
        "details": "Allows the current owner to transfer control of the contract to a newOwner.",
        "params": {
          "newOwner": "The address to transfer ownership to."
        }
      }
    }
  },
  "userdoc": {
    "methods": {
      "renounceOwnership()": {
        "notice": "Renouncing to ownership will leave the contract without an owner. It will not be possible to call the functions with the `onlyOwner` modifier anymore."
      }
    }
  }
}