{
  "contractName": "VotingTransactions",
  "abi": [
    {
      "constant": false,
      "inputs": [
        {
          "name": "_id",
          "type": "uint256"
        },
        {
          "name": "_constituencyId",
          "type": "uint256"
        },
        {
          "name": "_adminId",
          "type": "uint256"
        }
      ],
      "name": "assignCandidateToConstituency",
      "outputs": [],
      "payable": false,
      "stateMutability": "nonpayable",
      "type": "function"
    },
    {
      "constant": true,
      "inputs": [
        {
          "name": "",
          "type": "uint256"
        }
      ],
      "name": "admins",
      "outputs": [
        {
          "name": "",
          "type": "uint256"
        }
      ],
      "payable": false,
      "stateMutability": "view",
      "type": "function"
    },
    {
      "constant": false,
      "inputs": [
        {
          "name": "_adminId",
          "type": "uint256"
        }
      ],
      "name": "getConstituencies",
      "outputs": [
        {
          "components": [
            {
              "name": "_id",
              "type": "uint256"
            },
            {
              "name": "_startTime",
              "type": "uint256"
            },
            {
              "name": "_duration",
              "type": "uint256"
            }
          ],
          "name": "",
          "type": "tuple[]"
        }
      ],
      "payable": false,
      "stateMutability": "nonpayable",
      "type": "function"
    },
    {
      "constant": true,
      "inputs": [
        {
          "name": "",
          "type": "uint256"
        }
      ],
      "name": "candidates",
      "outputs": [
        {
          "name": "_id",
          "type": "uint256"
        }
      ],
      "payable": false,
      "stateMutability": "view",
      "type": "function"
    },
    {
      "constant": false,
      "inputs": [
        {
          "name": "_id",
          "type": "uint256"
        },
        {
          "name": "_adminId",
          "type": "uint256"
        }
      ],
      "name": "registerConstituency",
      "outputs": [],
      "payable": false,
      "stateMutability": "nonpayable",
      "type": "function"
    },
    {
      "constant": false,
      "inputs": [
        {
          "name": "_id",
          "type": "uint256"
        },
        {
          "name": "_adminId",
          "type": "uint256"
        }
      ],
      "name": "registerCandidate",
      "outputs": [],
      "payable": false,
      "stateMutability": "nonpayable",
      "type": "function"
    },
    {
      "constant": false,
      "inputs": [],
      "name": "renounceOwnership",
      "outputs": [],
      "payable": false,
      "stateMutability": "nonpayable",
      "type": "function"
    },
    {
      "constant": true,
      "inputs": [],
      "name": "owner",
      "outputs": [
        {
          "name": "",
          "type": "address"
        }
      ],
      "payable": false,
      "stateMutability": "view",
      "type": "function"
    },
    {
      "constant": true,
      "inputs": [],
      "name": "isOwner",
      "outputs": [
        {
          "name": "",
          "type": "bool"
        }
      ],
      "payable": false,
      "stateMutability": "view",
      "type": "function"
    },
    {
      "constant": true,
      "inputs": [
        {
          "name": "",
          "type": "uint256"
        }
      ],
      "name": "constituencies",
      "outputs": [
        {
          "name": "_id",
          "type": "uint256"
        },
        {
          "name": "_startTime",
          "type": "uint256"
        },
        {
          "name": "_duration",
          "type": "uint256"
        }
      ],
      "payable": false,
      "stateMutability": "view",
      "type": "function"
    },
    {
      "constant": false,
      "inputs": [
        {
          "name": "_id",
          "type": "uint256"
        }
      ],
      "name": "registerAdmin",
      "outputs": [],
      "payable": false,
      "stateMutability": "nonpayable",
      "type": "function"
    },
    {
      "constant": false,
      "inputs": [
        {
          "name": "_id",
          "type": "uint256"
        },
        {
          "name": "_duration",
          "type": "uint256"
        }
      ],
      "name": "generateElectionforConstituency",
      "outputs": [],
      "payable": false,
      "stateMutability": "nonpayable",
      "type": "function"
    },
    {
      "constant": true,
      "inputs": [
        {
          "name": "",
          "type": "uint256"
        }
      ],
      "name": "voters",
      "outputs": [
        {
          "name": "_id",
          "type": "uint256"
        },
        {
          "name": "_constituencyId",
          "type": "uint256"
        },
        {
          "name": "_hasVoted",
          "type": "bool"
        },
        {
          "components": [
            {
              "name": "_voteId",
              "type": "bytes32"
            },
            {
              "name": "_votedId",
              "type": "uint256"
            },
            {
              "name": "_voteTime",
              "type": "uint64"
            }
          ],
          "name": "_vote",
          "type": "tuple"
        }
      ],
      "payable": false,
      "stateMutability": "view",
      "type": "function"
    },
    {
      "constant": false,
      "inputs": [
        {
          "name": "newOwner",
          "type": "address"
        }
      ],
      "name": "transferOwnership",
      "outputs": [],
      "payable": false,
      "stateMutability": "nonpayable",
      "type": "function"
    },
    {
      "constant": true,
      "inputs": [
        {
          "name": "_constituencyId",
          "type": "uint256"
        }
      ],
      "name": "getCandidatesByConstituency",
      "outputs": [
        {
          "components": [
            {
              "name": "_id",
              "type": "uint256"
            }
          ],
          "name": "",
          "type": "tuple[]"
        }
      ],
      "payable": false,
      "stateMutability": "view",
      "type": "function"
    },
    {
      "anonymous": false,
      "inputs": [
        {
          "indexed": true,
          "name": "_from",
          "type": "uint256"
        },
        {
          "indexed": true,
          "name": "_to",
          "type": "uint256"
        },
        {
          "indexed": true,
          "name": "_tokenId",
          "type": "bytes32"
        }
      ],
      "name": "Transfer",
      "type": "event"
    },
    {
      "anonymous": false,
      "inputs": [
        {
          "indexed": false,
          "name": "_id",
          "type": "uint256"
        },
        {
          "indexed": false,
          "name": "_voterId",
          "type": "uint256"
        }
      ],
      "name": "VoterCreated",
      "type": "event"
    },
    {
      "anonymous": false,
      "inputs": [
        {
          "indexed": false,
          "name": "_id",
          "type": "uint256"
        }
      ],
      "name": "CandidateRegistered",
      "type": "event"
    },
    {
      "anonymous": false,
      "inputs": [
        {
          "indexed": false,
          "name": "_id",
          "type": "uint256"
        }
      ],
      "name": "ConstituencyRegistered",
      "type": "event"
    },
    {
      "anonymous": false,
      "inputs": [
        {
          "indexed": true,
          "name": "previousOwner",
          "type": "address"
        },
        {
          "indexed": true,
          "name": "newOwner",
          "type": "address"
        }
      ],
      "name": "OwnershipTransferred",
      "type": "event"
    },
    {
      "constant": false,
      "inputs": [
        {
          "name": "from",
          "type": "uint256"
        },
        {
          "name": "to",
          "type": "uint256"
        },
        {
          "name": "tokenId",
          "type": "bytes32"
        }
      ],
      "name": "transferFrom",
      "outputs": [],
      "payable": false,
      "stateMutability": "nonpayable",
      "type": "function"
    }
  ],
  "bytecode": "0x608060405260405180606001604052806000801b815260200160008152602001600067ffffffffffffffff168152506001600082015181600001556020820151816001015560408201518160020160006101000a81548167ffffffffffffffff021916908367ffffffffffffffff1602179055505050336000806101000a81548173ffffffffffffffffffffffffffffffffffffffff021916908373ffffffffffffffffffffffffffffffffffffffff1602179055506000809054906101000a900473ffffffffffffffffffffffffffffffffffffffff1673ffffffffffffffffffffffffffffffffffffffff16600073ffffffffffffffffffffffffffffffffffffffff167f8be0079c531659141344cd1fd0a4f28419497f9722a3daafe3b4186f6b6457e060405160405180910390a36113b6806101406000396000f3fe608060405234801561001057600080fd5b50600436106101005760003560e01c80638da5cb5b11610097578063d59d48d411610066578063d59d48d414610299578063da58c7d9146102b5578063f2fde38b146102e8578063f9ed80671461030457610100565b80638da5cb5b1461020f5780638f32d59b1461022d5780639209416a1461024b578063948452541461027d57610100565b80633acab52f116100d35780633acab52f146101b15780633ba8b3ff146101cd5780635d6e5052146101e9578063715018a61461020557610100565b806312d51c721461010557806314bfd6d01461012157806328975210146101515780633477ee2e14610181575b600080fd5b61011f600480360361011a9190810190610f1f565b610334565b005b61013b60048036036101369190810190610e6b565b6103c1565b60405161014891906111ce565b60405180910390f35b61016b60048036036101669190810190610e6b565b6103e2565b6040516101789190611191565b60405180910390f35b61019b60048036036101969190810190610e6b565b6104ae565b6040516101a891906111ce565b60405180910390f35b6101cb60048036036101c69190810190610e94565b6104d5565b005b6101e760048036036101e29190810190610ed0565b61061e565b005b61020360048036036101fe9190810190610e94565b61078d565b005b61020d610898565b005b610217610968565b6040516102249190611154565b60405180910390f35b610235610991565b60405161024291906111b3565b60405180910390f35b61026560048036036102609190810190610e6b565b6109e8565b6040516102749392919061122e565b60405180910390f35b61029760048036036102929190810190610e6b565b610a1f565b005b6102b360048036036102ae9190810190610e94565b610a5f565b005b6102cf60048036036102ca9190810190610e6b565b610abe565b6040516102df94939291906111e9565b60405180910390f35b61030260048036036102fd9190810190610e42565b610b58565b005b61031e60048036036103199190810190610e6b565b610b75565b60405161032b919061116f565b60405180910390f35b8060008090505b600e805490508110156103ba5781600e828154811061035657fe5b906000526020600020015414156103a75783600860008781526020019081526020016000208190555060096000858152602001908152602001600020600081548092919060010191905055506103ac565b6103ad565b5b808060010191505061033b565b5050505050565b600e81815481106103ce57fe5b906000526020600020016000915090505481565b60608160008090505b600e805490508110156104a75781600e828154811061040657fe5b9060005260206000200154141561049457600d805480602002602001604051908101604052809291908181526020016000905b828210156104895783829060005260206000209060030201604051806060016040529081600082015481526020016001820154815260200160028201548152505081526020019060010190610439565b505050509250610499565b61049a565b5b80806001019150506103eb565b5050919050565b600c81815481106104bb57fe5b906000526020600020016000915090508060000154905081565b8060008090505b600e805490508110156106185781600e82815481106104f757fe5b906000526020600020015414156106055760006001600d6040518060600160405280888152602001600081526020016000815250908060018154018082558091505090600182039060005260206000209060030201600090919290919091506000820151816000015560208201518160010155604082015181600201555050039050600d818154811061058657fe5b9060005260206000209060030201600660008781526020019081526020016000206000820154816000015560018201548160010155600282015481600201559050507f21db1a92fb8efb483c22a581ee7e282b6d79d9d43b559ee1affa341818867969856040516105f791906111ce565b60405180910390a15061060a565b61060b565b5b80806001019150506104dc565b50505050565b600860008381526020019081526020016000205460046000858152602001908152602001600020600101541461065357600080fd5b61065b610d71565b6004600085815260200190815260200160002060405180608001604052908160008201548152602001600182015481526020016002820160009054906101000a900460ff161515151581526020016003820160405180606001604052908160008201548152602001600182015481526020016002820160009054906101000a900467ffffffffffffffff1667ffffffffffffffff1667ffffffffffffffff168152505081525050905060018160400190151590811515815250508260076000836060015160000151815260200190815260200160002081905550600a6000848152602001908152602001600020600081548092919060010191905055508183857f612c500cbd8f1ed8a4643cbf6b41fda92203645d7e4f7c3a237a1be69565ea2c60405160405180910390a450505050565b8060008090505b600e805490508110156108925781600e82815481106107af57fe5b9060005260206000200154141561087f5760006001600c604051806020016040528088815250908060018154018082558091505090600182039060005260206000200160009091929091909150600082015181600001555050039050600c818154811061081857fe5b9060005260206000200160056000878152602001908152602001600020600082015481600001559050507f43dcee486fabffa2fb551555bfaa5bfcf6a42f2d014032ccef94bf09d83855eb8560405161087191906111ce565b60405180910390a150610884565b610885565b5b8080600101915050610794565b50505050565b6108a0610991565b6108a957600080fd5b600073ffffffffffffffffffffffffffffffffffffffff166000809054906101000a900473ffffffffffffffffffffffffffffffffffffffff1673ffffffffffffffffffffffffffffffffffffffff167f8be0079c531659141344cd1fd0a4f28419497f9722a3daafe3b4186f6b6457e060405160405180910390a360008060006101000a81548173ffffffffffffffffffffffffffffffffffffffff021916908373ffffffffffffffffffffffffffffffffffffffff160217905550565b60008060009054906101000a900473ffffffffffffffffffffffffffffffffffffffff16905090565b60008060009054906101000a900473ffffffffffffffffffffffffffffffffffffffff1673ffffffffffffffffffffffffffffffffffffffff163373ffffffffffffffffffffffffffffffffffffffff1614905090565b600d81815481106109f557fe5b90600052602060002090600302016000915090508060000154908060010154908060020154905083565b610a27610991565b610a3057600080fd5b600e81908060018154018082558091505090600182039060005260206000200160009091929091909150555050565b610a67610da1565b60066000848152602001908152602001600020604051806060016040529081600082015481526020016001820154815260200160028201548152505090504281602001818152505081816040018181525050505050565b600b8181548110610acb57fe5b90600052602060002090600602016000915090508060000154908060010154908060020160009054906101000a900460ff16908060030160405180606001604052908160008201548152602001600182015481526020016002820160009054906101000a900467ffffffffffffffff1667ffffffffffffffff1667ffffffffffffffff1681525050905084565b610b60610991565b610b6957600080fd5b610b7281610c79565b50565b6060806009600084815260200190815260200160002054604051908082528060200260200182016040528015610bc557816020015b610bb2610dc2565b815260200190600190039081610baa5790505b509050600080905060008090505b600c80549050811015610c6e578460086000600c8481548110610bf257fe5b90600052602060002001600001548152602001908152602001600020541415610c6157600c8181548110610c2257fe5b90600052602060002001604051806020016040529081600082015481525050838381518110610c4d57fe5b602002602001018190525081806001019250505b8080600101915050610bd3565b508192505050919050565b600073ffffffffffffffffffffffffffffffffffffffff168173ffffffffffffffffffffffffffffffffffffffff161415610cb357600080fd5b8073ffffffffffffffffffffffffffffffffffffffff166000809054906101000a900473ffffffffffffffffffffffffffffffffffffffff1673ffffffffffffffffffffffffffffffffffffffff167f8be0079c531659141344cd1fd0a4f28419497f9722a3daafe3b4186f6b6457e060405160405180910390a3806000806101000a81548173ffffffffffffffffffffffffffffffffffffffff021916908373ffffffffffffffffffffffffffffffffffffffff16021790555050565b6040518060c001604052806000815260200160008152602001600015158152602001610d9b610dd5565b81525090565b60405180606001604052806000815260200160008152602001600081525090565b6040518060200160405280600081525090565b60405180606001604052806000801916815260200160008152602001600067ffffffffffffffff1681525090565b600081359050610e1281611337565b92915050565b600081359050610e278161134e565b92915050565b600081359050610e3c81611365565b92915050565b600060208284031215610e5457600080fd5b6000610e6284828501610e03565b91505092915050565b600060208284031215610e7d57600080fd5b6000610e8b84828501610e2d565b91505092915050565b60008060408385031215610ea757600080fd5b6000610eb585828601610e2d565b9250506020610ec685828601610e2d565b9150509250929050565b600080600060608486031215610ee557600080fd5b6000610ef386828701610e2d565b9350506020610f0486828701610e2d565b9250506040610f1586828701610e18565b9150509250925092565b600080600060608486031215610f3457600080fd5b6000610f4286828701610e2d565b9350506020610f5386828701610e2d565b9250506040610f6486828701610e2d565b9150509250925092565b6000610f7a8383611087565b60208301905092915050565b6000610f9283836110a3565b60608301905092915050565b610fa7816112d1565b82525050565b6000610fb88261127f565b610fc281856112af565b9350610fcd83611265565b8060005b83811015610ffe578151610fe58882610f6e565b9750610ff083611295565b925050600181019050610fd1565b5085935050505092915050565b60006110168261128a565b61102081856112c0565b935061102b83611272565b8060005b8381101561105c5781516110438882610f86565b975061104e836112a2565b92505060018101905061102f565b5085935050505092915050565b611072816112e3565b82525050565b611081816112ef565b82525050565b60208201600082015161109d6000850182611127565b50505050565b6060820160008201516110b96000850182611127565b5060208201516110cc6020850182611127565b5060408201516110df6040850182611127565b50505050565b6060820160008201516110fb6000850182611078565b50602082015161110e6020850182611127565b5060408201516111216040850182611145565b50505050565b61113081611319565b82525050565b61113f81611319565b82525050565b61114e81611323565b82525050565b60006020820190506111696000830184610f9e565b92915050565b600060208201905081810360008301526111898184610fad565b905092915050565b600060208201905081810360008301526111ab818461100b565b905092915050565b60006020820190506111c86000830184611069565b92915050565b60006020820190506111e36000830184611136565b92915050565b600060c0820190506111fe6000830187611136565b61120b6020830186611136565b6112186040830185611069565b61122560608301846110e5565b95945050505050565b60006060820190506112436000830186611136565b6112506020830185611136565b61125d6040830184611136565b949350505050565b6000602082019050919050565b6000602082019050919050565b600081519050919050565b600081519050919050565b6000602082019050919050565b6000602082019050919050565b600082825260208201905092915050565b600082825260208201905092915050565b60006112dc826112f9565b9050919050565b60008115159050919050565b6000819050919050565b600073ffffffffffffffffffffffffffffffffffffffff82169050919050565b6000819050919050565b600067ffffffffffffffff82169050919050565b611340816112d1565b811461134b57600080fd5b50565b611357816112ef565b811461136257600080fd5b50565b61136e81611319565b811461137957600080fd5b5056fea265627a7a72305820d4ca25684893b0cef3c08118fc088c5d3d2019d0ee76eea6d43e0358a37b1e336c6578706572696d656e74616cf50037",
  "source": "pragma solidity ^0.5.0;\npragma experimental ABIEncoderV2;\nimport \"./ElectionHelper.sol\";\n\ncontract VotingTransactions is ElectionHelper {\n    event Transfer(uint256 indexed _from, uint256 indexed _to, bytes32 indexed _tokenId);\n\n    // function ownerOf(uint256 tokenId) public view returns (address) {\n    //     address owner = _tokenOwner[tokenId];\n    //     require(owner != address(0), \"ERC721: owner query for nonexistent token\");\n\n    //     return owner;\n    // }\n\n    function transferFrom(uint256 from, uint256 to, bytes32 tokenId) public {\n        require(idToVoter[from]._constituencyId == candidateToConstituency[to]);\n        Voter memory voter = idToVoter[from];\n        voter._hasVoted = true;\n        voteToCandidate[voter._vote._voteId] = to;\n        candidateVoteCount[to]++;\n        emit Transfer(from, to, tokenId);\n    }\n\n    function _transferredTo(bytes32 _id) private view returns (Candidate memory) {\n        uint256 candidateId = voteToCandidate[_id];\n        Candidate memory candidate = idToCandidate[candidateId];\n        return candidate;\n    }\n}",
  "sourcePath": "/home/d3mon/Projects/sudo-rm--rf/contracts/VotingTransactions.sol",
  "compiler": {
    "name": "solc",
    "version": "0.5.8+commit.23d335f2.Emscripten.clang"
  },
  "schemaVersion": "3.0.11",
  "updatedAt": "2019-08-20T16:17:50.074Z",
  "devdoc": {
    "methods": {
      "isOwner()": {
        "return": "true if `msg.sender` is the owner of the contract."
      },
      "owner()": {
        "return": "the address of the owner."
      },
      "renounceOwnership()": {
        "details": "Allows the current owner to relinquish control of the contract."
      },
      "transferOwnership(address)": {
        "details": "Allows the current owner to transfer control of the contract to a newOwner.",
        "params": {
          "newOwner": "The address to transfer ownership to."
        }
      }
    }
  },
  "userdoc": {
    "methods": {
      "renounceOwnership()": {
        "notice": "Renouncing to ownership will leave the contract without an owner. It will not be possible to call the functions with the `onlyOwner` modifier anymore."
      }
    }
  }
}