{
  "contractName": "VotingTransactions",
  "abi": [
    {
      "constant": true,
      "inputs": [
        {
          "name": "",
          "type": "uint256"
        }
      ],
      "name": "candidateVoteCount",
      "outputs": [
        {
          "name": "",
          "type": "uint256"
        }
      ],
      "payable": false,
      "stateMutability": "view",
      "type": "function"
    },
    {
      "constant": true,
      "inputs": [
        {
          "name": "",
          "type": "uint256"
        }
      ],
      "name": "idToConstituency",
      "outputs": [
        {
          "name": "_id",
          "type": "uint256"
        },
        {
          "name": "_startTime",
          "type": "uint256"
        },
        {
          "name": "_duration",
          "type": "uint256"
        }
      ],
      "payable": false,
      "stateMutability": "view",
      "type": "function"
    },
    {
      "constant": false,
      "inputs": [
        {
          "name": "_id",
          "type": "uint256"
        },
        {
          "name": "_constituencyId",
          "type": "uint256"
        },
        {
          "name": "_adminId",
          "type": "uint256"
        }
      ],
      "name": "assignCandidateToConstituency",
      "outputs": [],
      "payable": false,
      "stateMutability": "nonpayable",
      "type": "function"
    },
    {
      "constant": true,
      "inputs": [
        {
          "name": "",
          "type": "uint256"
        }
      ],
      "name": "candidateToConstituency",
      "outputs": [
        {
          "name": "",
          "type": "uint256"
        }
      ],
      "payable": false,
      "stateMutability": "view",
      "type": "function"
    },
    {
      "constant": true,
      "inputs": [
        {
          "name": "",
          "type": "uint256"
        }
      ],
      "name": "admins",
      "outputs": [
        {
          "name": "",
          "type": "uint256"
        }
      ],
      "payable": false,
      "stateMutability": "view",
      "type": "function"
    },
    {
      "constant": false,
      "inputs": [
        {
          "name": "_adminId",
          "type": "uint256"
        }
      ],
      "name": "getConstituencies",
      "outputs": [
        {
          "components": [
            {
              "name": "_id",
              "type": "uint256"
            },
            {
              "name": "_startTime",
              "type": "uint256"
            },
            {
              "name": "_duration",
              "type": "uint256"
            }
          ],
          "name": "",
          "type": "tuple[]"
        }
      ],
      "payable": false,
      "stateMutability": "nonpayable",
      "type": "function"
    },
    {
      "constant": false,
      "inputs": [
        {
          "name": "_id",
          "type": "uint256"
        },
        {
          "name": "_userId",
          "type": "uint256"
        }
      ],
      "name": "getConstituencyDetails",
      "outputs": [
        {
          "components": [
            {
              "name": "_id",
              "type": "uint256"
            },
            {
              "name": "_startTime",
              "type": "uint256"
            },
            {
              "name": "_duration",
              "type": "uint256"
            }
          ],
          "name": "",
          "type": "tuple"
        }
      ],
      "payable": false,
      "stateMutability": "nonpayable",
      "type": "function"
    },
    {
      "constant": true,
      "inputs": [
        {
          "name": "",
          "type": "uint256"
        }
      ],
      "name": "candidates",
      "outputs": [
        {
          "name": "_id",
          "type": "uint256"
        }
      ],
      "payable": false,
      "stateMutability": "view",
      "type": "function"
    },
    {
      "constant": true,
      "inputs": [
        {
          "name": "",
          "type": "uint256"
        }
      ],
      "name": "constituencyCandidateCount",
      "outputs": [
        {
          "name": "",
          "type": "uint256"
        }
      ],
      "payable": false,
      "stateMutability": "view",
      "type": "function"
    },
    {
      "constant": true,
      "inputs": [
        {
          "name": "",
          "type": "uint256"
        }
      ],
      "name": "voteToCandidate",
      "outputs": [
        {
          "name": "",
          "type": "uint256"
        }
      ],
      "payable": false,
      "stateMutability": "view",
      "type": "function"
    },
    {
      "constant": true,
      "inputs": [
        {
          "name": "",
          "type": "uint256"
        }
      ],
      "name": "idToCandidate",
      "outputs": [
        {
          "name": "_id",
          "type": "uint256"
        }
      ],
      "payable": false,
      "stateMutability": "view",
      "type": "function"
    },
    {
      "constant": false,
      "inputs": [],
      "name": "renounceOwnership",
      "outputs": [],
      "payable": false,
      "stateMutability": "nonpayable",
      "type": "function"
    },
    {
      "constant": false,
      "inputs": [
        {
          "name": "_constituencies",
          "type": "uint256[]"
        },
        {
          "name": "_adminId",
          "type": "uint256"
        }
      ],
      "name": "registerConstituencies",
      "outputs": [],
      "payable": false,
      "stateMutability": "nonpayable",
      "type": "function"
    },
    {
      "constant": true,
      "inputs": [],
      "name": "owner",
      "outputs": [
        {
          "name": "",
          "type": "address"
        }
      ],
      "payable": false,
      "stateMutability": "view",
      "type": "function"
    },
    {
      "constant": true,
      "inputs": [],
      "name": "isOwner",
      "outputs": [
        {
          "name": "",
          "type": "bool"
        }
      ],
      "payable": false,
      "stateMutability": "view",
      "type": "function"
    },
    {
      "constant": true,
      "inputs": [
        {
          "name": "",
          "type": "uint256"
        }
      ],
      "name": "constituencies",
      "outputs": [
        {
          "name": "_id",
          "type": "uint256"
        },
        {
          "name": "_startTime",
          "type": "uint256"
        },
        {
          "name": "_duration",
          "type": "uint256"
        }
      ],
      "payable": false,
      "stateMutability": "view",
      "type": "function"
    },
    {
      "constant": false,
      "inputs": [
        {
          "name": "_id",
          "type": "uint256"
        }
      ],
      "name": "registerAdmin",
      "outputs": [],
      "payable": false,
      "stateMutability": "nonpayable",
      "type": "function"
    },
    {
      "constant": true,
      "inputs": [],
      "name": "ResultsDeclared",
      "outputs": [
        {
          "name": "",
          "type": "bool"
        }
      ],
      "payable": false,
      "stateMutability": "view",
      "type": "function"
    },
    {
      "constant": true,
      "inputs": [
        {
          "name": "_constituencyId",
          "type": "uint256"
        },
        {
          "name": "_userId",
          "type": "uint256"
        }
      ],
      "name": "getCandidatesByConstituency",
      "outputs": [
        {
          "components": [
            {
              "name": "_id",
              "type": "uint256"
            }
          ],
          "name": "",
          "type": "tuple[]"
        }
      ],
      "payable": false,
      "stateMutability": "view",
      "type": "function"
    },
    {
      "constant": true,
      "inputs": [
        {
          "name": "",
          "type": "uint256"
        }
      ],
      "name": "voters",
      "outputs": [
        {
          "name": "_id",
          "type": "uint256"
        },
        {
          "name": "_constituencyId",
          "type": "uint256"
        },
        {
          "name": "_hasVoted",
          "type": "bool"
        },
        {
          "name": "_voteTime",
          "type": "uint256"
        },
        {
          "components": [
            {
              "name": "_voteId",
              "type": "uint256"
            }
          ],
          "name": "_vote",
          "type": "tuple"
        }
      ],
      "payable": false,
      "stateMutability": "view",
      "type": "function"
    },
    {
      "constant": false,
      "inputs": [
        {
          "name": "newOwner",
          "type": "address"
        }
      ],
      "name": "transferOwnership",
      "outputs": [],
      "payable": false,
      "stateMutability": "nonpayable",
      "type": "function"
    },
    {
      "constant": false,
      "inputs": [
        {
          "name": "_id",
          "type": "uint256"
        },
        {
          "name": "_duration",
          "type": "uint256"
        },
        {
          "name": "_adminId",
          "type": "uint256"
        }
      ],
      "name": "generateElectionforConstituency",
      "outputs": [],
      "payable": false,
      "stateMutability": "nonpayable",
      "type": "function"
    },
    {
      "constant": true,
      "inputs": [
        {
          "name": "",
          "type": "uint256"
        }
      ],
      "name": "idToVoter",
      "outputs": [
        {
          "name": "_id",
          "type": "uint256"
        },
        {
          "name": "_constituencyId",
          "type": "uint256"
        },
        {
          "name": "_hasVoted",
          "type": "bool"
        },
        {
          "name": "_voteTime",
          "type": "uint256"
        },
        {
          "components": [
            {
              "name": "_voteId",
              "type": "uint256"
            }
          ],
          "name": "_vote",
          "type": "tuple"
        }
      ],
      "payable": false,
      "stateMutability": "view",
      "type": "function"
    },
    {
      "anonymous": false,
      "inputs": [
        {
          "indexed": true,
          "name": "_from",
          "type": "uint256"
        },
        {
          "indexed": true,
          "name": "_to",
          "type": "uint256"
        },
        {
          "indexed": true,
          "name": "_tokenId",
          "type": "uint256"
        }
      ],
      "name": "Transfer",
      "type": "event"
    },
    {
      "anonymous": false,
      "inputs": [
        {
          "indexed": false,
          "name": "_id",
          "type": "uint256"
        },
        {
          "indexed": false,
          "name": "_constituencyId",
          "type": "uint256"
        }
      ],
      "name": "VoterCreated",
      "type": "event"
    },
    {
      "anonymous": false,
      "inputs": [
        {
          "indexed": false,
          "name": "_id",
          "type": "uint256"
        }
      ],
      "name": "CandidateRegistered",
      "type": "event"
    },
    {
      "anonymous": false,
      "inputs": [
        {
          "indexed": false,
          "name": "_id",
          "type": "uint256"
        }
      ],
      "name": "ConstituencyRegistered",
      "type": "event"
    },
    {
      "anonymous": false,
      "inputs": [
        {
          "indexed": true,
          "name": "previousOwner",
          "type": "address"
        },
        {
          "indexed": true,
          "name": "newOwner",
          "type": "address"
        }
      ],
      "name": "OwnershipTransferred",
      "type": "event"
    },
    {
      "constant": false,
      "inputs": [
        {
          "name": "from",
          "type": "uint256"
        },
        {
          "name": "to",
          "type": "uint256"
        },
        {
          "name": "tokenId",
          "type": "uint256"
        }
      ],
      "name": "transferFrom",
      "outputs": [],
      "payable": false,
      "stateMutability": "nonpayable",
      "type": "function"
    }
  ],
  "bytecode": "0x608060405260008060146101000a81548160ff021916908315150217905550336000806101000a81548173ffffffffffffffffffffffffffffffffffffffff021916908373ffffffffffffffffffffffffffffffffffffffff1602179055506000809054906101000a900473ffffffffffffffffffffffffffffffffffffffff1673ffffffffffffffffffffffffffffffffffffffff16600073ffffffffffffffffffffffffffffffffffffffff167f8be0079c531659141344cd1fd0a4f28419497f9722a3daafe3b4186f6b6457e060405160405180910390a360008060146101000a81548160ff02191690831515021790555061189a806101036000396000f3fe60806040526004361061013e576000357c0100000000000000000000000000000000000000000000000000000000900463ffffffff16806301aa2e03146101435780630f80dcb01461018057806312d51c72146101bf5780631471e0ab146101e857806314bfd6d01461022557806328975210146102625780632fd23a3f1461029f578063310ed7f0146102dc5780633477ee2e146103055780633b04a6c91461034257806356be16581461037f57806357e2ef10146103bc578063715018a6146103f95780637b013b94146104105780638da5cb5b146104395780638f32d59b146104645780639209416a1461048f57806394845254146104ce578063aa3e4e1c146104f7578063bbc893a314610522578063da58c7d91461055f578063f2fde38b146105a0578063f7590065146105c9578063f8c70571146105f2575b600080fd5b34801561014f57600080fd5b5061016a60048036036101659190810190611425565b610633565b604051610177919061170d565b60405180910390f35b34801561018c57600080fd5b506101a760048036036101a29190810190611425565b61064b565b6040516101b69392919061177b565b60405180910390f35b3480156101cb57600080fd5b506101e660048036036101e1919081019061148a565b610675565b005b3480156101f457600080fd5b5061020f600480360361020a9190810190611425565b61070e565b60405161021c919061170d565b60405180910390f35b34801561023157600080fd5b5061024c60048036036102479190810190611425565b610726565b604051610259919061170d565b60405180910390f35b34801561026e57600080fd5b5061028960048036036102849190810190611425565b610749565b60405161029691906116b5565b60405180910390f35b3480156102ab57600080fd5b506102c660048036036102c1919081019061144e565b610878565b6040516102d391906116f2565b60405180910390f35b3480156102e857600080fd5b5061030360048036036102fe919081019061148a565b6108f9565b005b34801561031157600080fd5b5061032c60048036036103279190810190611425565b610a05565b604051610339919061170d565b60405180910390f35b34801561034e57600080fd5b5061036960048036036103649190810190611425565b610a2e565b604051610376919061170d565b60405180910390f35b34801561038b57600080fd5b506103a660048036036103a19190810190611425565b610a46565b6040516103b3919061170d565b60405180910390f35b3480156103c857600080fd5b506103e360048036036103de9190810190611425565b610a5e565b6040516103f0919061170d565b60405180910390f35b34801561040557600080fd5b5061040e610a7c565b005b34801561041c57600080fd5b50610437600480360361043291908101906113cd565b610b4e565b005b34801561044557600080fd5b5061044e610bdf565b60405161045b9190611678565b60405180910390f35b34801561047057600080fd5b50610479610c08565b60405161048691906116d7565b60405180910390f35b34801561049b57600080fd5b506104b660048036036104b19190810190611425565b610c5f565b6040516104c59392919061177b565b60405180910390f35b3480156104da57600080fd5b506104f560048036036104f09190810190611425565b610c98565b005b34801561050357600080fd5b5061050c610cda565b60405161051991906116d7565b60405180910390f35b34801561052e57600080fd5b506105496004803603610544919081019061144e565b610ced565b6040516105569190611693565b60405180910390f35b34801561056b57600080fd5b5061058660048036036105819190810190611425565b610e24565b604051610597959493929190611728565b60405180910390f35b3480156105ac57600080fd5b506105c760048036036105c291908101906113a4565b610e8b565b005b3480156105d557600080fd5b506105f060048036036105eb919081019061148a565b610eaa565b005b3480156105fe57600080fd5b5061061960048036036106149190810190611425565b610f28565b60405161062a959493929190611728565b60405180910390f35b60076020528060005260406000206000915090505481565b60036020528060005260406000206000915090508060000154908060010154908060020154905083565b8060008090505b600b805490508110156107075781600b8281548110151561069957fe5b906000526020600020015414156106f4576106b48584610f80565b83600560008781526020019081526020016000208190555060066000858152602001908152602001600020600081548092919060010191905055506106f9565b6106fa565b5b808060010191505061067c565b5050505050565b60056020528060005260406000206000915090505481565b600b8181548110151561073557fe5b906000526020600020016000915090505481565b60608160008090505b600b805490508110156108715781600b8281548110151561076f57fe5b9060005260206000200154141561085e576060600a805490506040519080825280602002602001820160405280156107c157816020015b6107ae6112d8565b8152602001906001900390816107a65790505b509050600080905060008090505b600a8054905081101561085357600a818154811015156107eb57fe5b9060005260206000209060030201606060405190810160405290816000820154815260200160018201548152602001600282015481525050838381518110151561083157fe5b90602001906020020181905250818060010192505080806001019150506107cf565b508194505050610863565b610864565b5b8080600101915050610752565b5050919050565b6108806112fa565b8160006001600083815260200190815260200160002060000154141515156108a757600080fd5b6108af6112fa565b600360008681526020019081526020016000206060604051908101604052908160008201548152602001600182015481526020016002820154815250509050809250505092915050565b82600060016000838152602001908152602001600020600001541415151561092057600080fd5b6005600084815260200190815260200160002054600160008681526020019081526020016000206001015414151561095757600080fd5b600060016000868152602001908152602001600020905060018160020160006101000a81548160ff02191690831515021790555042816003018190555083600460008781526020019081526020016000208190555060076000858152602001908152602001600020600081548092919060010191905055508284867faf6151f5085accf2d57e1e7bf7601d3b3982e0de7e9a90f032f8554de9c104f660405160405180910390a45050505050565b600981815481101515610a1457fe5b906000526020600020016000915090508060000154905081565b60066020528060005260406000206000915090505481565b60046020528060005260406000206000915090505481565b60026020528060005260406000206000915090508060000154905081565b610a84610c08565b1515610a8f57600080fd5b600073ffffffffffffffffffffffffffffffffffffffff166000809054906101000a900473ffffffffffffffffffffffffffffffffffffffff1673ffffffffffffffffffffffffffffffffffffffff167f8be0079c531659141344cd1fd0a4f28419497f9722a3daafe3b4186f6b6457e060405160405180910390a360008060006101000a81548173ffffffffffffffffffffffffffffffffffffffff021916908373ffffffffffffffffffffffffffffffffffffffff160217905550565b8060008090505b600b80549050811015610bd85781600b82815481101515610b7257fe5b90600052602060002001541415610bc55760008090505b85859050811015610bbf57610bb28686838181101515610ba557fe5b9050602002013585611090565b8080600101915050610b89565b50610bca565b610bcb565b5b8080600101915050610b55565b5050505050565b60008060009054906101000a900473ffffffffffffffffffffffffffffffffffffffff16905090565b60008060009054906101000a900473ffffffffffffffffffffffffffffffffffffffff1673ffffffffffffffffffffffffffffffffffffffff163373ffffffffffffffffffffffffffffffffffffffff1614905090565b600a81815481101515610c6e57fe5b90600052602060002090600302016000915090508060000154908060010154908060020154905083565b610ca0610c08565b1515610cab57600080fd5b600b81908060018154018082558091505090600182039060005260206000200160009091929091909150555050565b600060149054906101000a900460ff1681565b6060816000600160008381526020019081526020016000206000015414151515610d1657600080fd5b60606006600086815260200190815260200160002054604051908082528060200260200182016040528015610d6557816020015b610d5261131c565b815260200190600190039081610d4a5790505b509050600080905060008090505b600980549050811015610e17578660056000600984815481101515610d9457fe5b90600052602060002001600001548152602001908152602001600020541415610e0a57600981815481101515610dc657fe5b90600052602060002001602060405190810160405290816000820154815250508383815181101515610df457fe5b9060200190602002018190525081806001019250505b8080600101915050610d73565b5081935050505092915050565b600881815481101515610e3357fe5b90600052602060002090600502016000915090508060000154908060010154908060020160009054906101000a900460ff16908060030154908060040160206040519081016040529081600082015481525050905085565b610e93610c08565b1515610e9e57600080fd5b610ea7816111de565b50565b8060008090505b600b80549050811015610f215781600b82815481101515610ece57fe5b90600052602060002001541415610f0e57600060036000878152602001908152602001600020905042816001018190555084816002018190555050610f13565b610f14565b5b8080600101915050610eb1565b5050505050565b60016020528060005260406000206000915090508060000154908060010154908060020160009054906101000a900460ff16908060030154908060040160206040519081016040529081600082015481525050905085565b8060008090505b600b8054905081101561108a5781600b82815481101515610fa457fe5b90600052602060002001541415611077576000600160096020604051908101604052808881525090806001815401808255809150509060018203906000526020600020016000909192909190915060008201518160000155505003905060098181548110151561101057fe5b9060005260206000200160026000878152602001908152602001600020600082015481600001559050507f43dcee486fabffa2fb551555bfaa5bfcf6a42f2d014032ccef94bf09d83855eb85604051611069919061170d565b60405180910390a15061107c565b61107d565b5b8080600101915050610f87565b50505050565b8060008090505b600b805490508110156111d85781600b828154811015156110b457fe5b906000526020600020015414156111c55760006001600a606060405190810160405280888152602001600081526020016000815250908060018154018082558091505090600182039060005260206000209060030201600090919290919091506000820151816000015560208201518160010155604082015181600201555050039050600a8181548110151561114657fe5b9060005260206000209060030201600360008781526020019081526020016000206000820154816000015560018201548160010155600282015481600201559050507f21db1a92fb8efb483c22a581ee7e282b6d79d9d43b559ee1affa341818867969856040516111b7919061170d565b60405180910390a1506111ca565b6111cb565b5b8080600101915050611097565b50505050565b600073ffffffffffffffffffffffffffffffffffffffff168173ffffffffffffffffffffffffffffffffffffffff161415151561121a57600080fd5b8073ffffffffffffffffffffffffffffffffffffffff166000809054906101000a900473ffffffffffffffffffffffffffffffffffffffff1673ffffffffffffffffffffffffffffffffffffffff167f8be0079c531659141344cd1fd0a4f28419497f9722a3daafe3b4186f6b6457e060405160405180910390a3806000806101000a81548173ffffffffffffffffffffffffffffffffffffffff021916908373ffffffffffffffffffffffffffffffffffffffff16021790555050565b6060604051908101604052806000815260200160008152602001600081525090565b6060604051908101604052806000815260200160008152602001600081525090565b602060405190810160405280600081525090565b600061133c8235611844565b905092915050565b60008083601f840112151561135857600080fd5b8235905067ffffffffffffffff81111561137157600080fd5b60208301915083602082028301111561138957600080fd5b9250929050565b600061139c8235611856565b905092915050565b6000602082840312156113b657600080fd5b60006113c484828501611330565b91505092915050565b6000806000604084860312156113e257600080fd5b600084013567ffffffffffffffff8111156113fc57600080fd5b61140886828701611344565b9350935050602061141b86828701611390565b9150509250925092565b60006020828403121561143757600080fd5b600061144584828501611390565b91505092915050565b6000806040838503121561146157600080fd5b600061146f85828601611390565b925050602061148085828601611390565b9150509250929050565b60008060006060848603121561149f57600080fd5b60006114ad86828701611390565b93505060206114be86828701611390565b92505060406114cf86828701611390565b9150509250925092565b6114e2816117fc565b82525050565b60006114f3826117cc565b808452602084019350611505836117b2565b60005b828110156115375761151b8683516115ad565b611524826117e2565b9150602086019550600181019050611508565b50849250505092915050565b600061154e826117d7565b808452602084019350611560836117bf565b60005b828110156115925761157686835161160b565b61157f826117ef565b9150606086019550600181019050611563565b50849250505092915050565b6115a78161180e565b82525050565b6020820160008201516115c36000850182611669565b50505050565b6060820160008201516115df6000850182611669565b5060208201516115f26020850182611669565b5060408201516116056040850182611669565b50505050565b6060820160008201516116216000850182611669565b5060208201516116346020850182611669565b5060408201516116476040850182611669565b50505050565b6020820160008201516116636000850182611669565b50505050565b6116728161183a565b82525050565b600060208201905061168d60008301846114d9565b92915050565b600060208201905081810360008301526116ad81846114e8565b905092915050565b600060208201905081810360008301526116cf8184611543565b905092915050565b60006020820190506116ec600083018461159e565b92915050565b600060608201905061170760008301846115c9565b92915050565b60006020820190506117226000830184611669565b92915050565b600060a08201905061173d6000830188611669565b61174a6020830187611669565b611757604083018661159e565b6117646060830185611669565b611771608083018461164d565b9695505050505050565b60006060820190506117906000830186611669565b61179d6020830185611669565b6117aa6040830184611669565b949350505050565b6000602082019050919050565b6000602082019050919050565b600081519050919050565b600081519050919050565b6000602082019050919050565b6000602082019050919050565b60006118078261181a565b9050919050565b60008115159050919050565b600073ffffffffffffffffffffffffffffffffffffffff82169050919050565b6000819050919050565b600061184f8261181a565b9050919050565b600081905091905056fea265627a7a723058205dc622dd2e853c9fa70e170aac69203a42b85a552adb042d0c5956abd44bce616c6578706572696d656e74616cf50037",
  "source": "pragma solidity ^0.5.0;\npragma experimental ABIEncoderV2;\nimport \"./ElectionHelper.sol\";\n\ncontract VotingTransactions is ElectionHelper {\n    event Transfer(uint256 indexed _from, uint256 indexed _to, uint256 indexed _tokenId);\n\n    function transferFrom(uint256 from, uint256 to, uint256 tokenId) public onlyUser(from) {\n        require(idToVoter[from]._constituencyId == candidateToConstituency[to]);\n        Voter storage voter = idToVoter[from];\n        voter._hasVoted = true;\n        voter._voteTime = block.timestamp;\n        voteToCandidate[from] = to;\n        candidateVoteCount[to]++;\n        emit Transfer(from, to, tokenId);\n    }\n\n    function _transferredTo(uint256 _id, uint256 _userId) private view onlyUser(_userId) returns(Candidate memory) {\n        uint256 candidateId = voteToCandidate[_id];\n        Candidate memory candidate = idToCandidate[candidateId];\n        return candidate;\n    }\n}",
  "sourcePath": "/home/d3mon/Projects/sudo-rm--rf/contracts/VotingTransactions.sol",
  "compiler": {
    "name": "solc",
    "version": "0.5.0+commit.1d4f565a.Emscripten.clang"
  },
  "schemaVersion": "3.0.2",
  "updatedAt": "2020-02-04T09:27:58.048Z",
  "devdoc": {
    "methods": {
      "isOwner()": {
        "return": "true if `msg.sender` is the owner of the contract."
      },
      "owner()": {
        "return": "the address of the owner."
      },
      "renounceOwnership()": {
        "details": "Allows the current owner to relinquish control of the contract."
      },
      "transferOwnership(address)": {
        "details": "Allows the current owner to transfer control of the contract to a newOwner.",
        "params": {
          "newOwner": "The address to transfer ownership to."
        }
      }
    }
  },
  "userdoc": {
    "methods": {
      "renounceOwnership()": {
        "notice": "Renouncing to ownership will leave the contract without an owner. It will not be possible to call the functions with the `onlyOwner` modifier anymore."
      }
    }
  }
}