{
  "contractName": "VotingTransactions",
  "abi": [
    {
      "constant": true,
      "inputs": [
        {
          "name": "",
          "type": "uint256"
        }
      ],
      "name": "candidateVoteCount",
      "outputs": [
        {
          "name": "",
          "type": "uint256"
        }
      ],
      "payable": false,
      "stateMutability": "view",
      "type": "function"
    },
    {
      "constant": true,
      "inputs": [
        {
          "name": "",
          "type": "uint256"
        }
      ],
      "name": "idToConstituency",
      "outputs": [
        {
          "name": "_id",
          "type": "uint256"
        },
        {
          "name": "_startTime",
          "type": "uint256"
        },
        {
          "name": "_duration",
          "type": "uint256"
        }
      ],
      "payable": false,
      "stateMutability": "view",
      "type": "function"
    },
    {
      "constant": false,
      "inputs": [
        {
          "name": "_id",
          "type": "uint256"
        },
        {
          "name": "_constituencyId",
          "type": "uint256"
        },
        {
          "name": "_adminId",
          "type": "uint256"
        }
      ],
      "name": "assignCandidateToConstituency",
      "outputs": [],
      "payable": false,
      "stateMutability": "nonpayable",
      "type": "function"
    },
    {
      "constant": true,
      "inputs": [
        {
          "name": "",
          "type": "uint256"
        }
      ],
      "name": "candidateToConstituency",
      "outputs": [
        {
          "name": "",
          "type": "uint256"
        }
      ],
      "payable": false,
      "stateMutability": "view",
      "type": "function"
    },
    {
      "constant": true,
      "inputs": [
        {
          "name": "",
          "type": "uint256"
        }
      ],
      "name": "admins",
      "outputs": [
        {
          "name": "",
          "type": "uint256"
        }
      ],
      "payable": false,
      "stateMutability": "view",
      "type": "function"
    },
    {
      "constant": false,
      "inputs": [
        {
          "name": "_adminId",
          "type": "uint256"
        }
      ],
      "name": "getConstituencies",
      "outputs": [
        {
          "components": [
            {
              "name": "_id",
              "type": "uint256"
            },
            {
              "name": "_startTime",
              "type": "uint256"
            },
            {
              "name": "_duration",
              "type": "uint256"
            }
          ],
          "name": "",
          "type": "tuple[]"
        }
      ],
      "payable": false,
      "stateMutability": "nonpayable",
      "type": "function"
    },
    {
      "constant": false,
      "inputs": [
        {
          "name": "_id",
          "type": "uint256"
        },
        {
          "name": "_userId",
          "type": "uint256"
        }
      ],
      "name": "getConstituencyDetails",
      "outputs": [
        {
          "components": [
            {
              "name": "_id",
              "type": "uint256"
            },
            {
              "name": "_startTime",
              "type": "uint256"
            },
            {
              "name": "_duration",
              "type": "uint256"
            }
          ],
          "name": "",
          "type": "tuple"
        }
      ],
      "payable": false,
      "stateMutability": "nonpayable",
      "type": "function"
    },
    {
      "constant": true,
      "inputs": [
        {
          "name": "",
          "type": "uint256"
        }
      ],
      "name": "candidates",
      "outputs": [
        {
          "name": "_id",
          "type": "uint256"
        }
      ],
      "payable": false,
      "stateMutability": "view",
      "type": "function"
    },
    {
      "constant": false,
      "inputs": [
        {
          "name": "_id",
          "type": "uint256"
        },
        {
          "name": "_adminId",
          "type": "uint256"
        }
      ],
      "name": "registerConstituency",
      "outputs": [],
      "payable": false,
      "stateMutability": "nonpayable",
      "type": "function"
    },
    {
      "constant": true,
      "inputs": [
        {
          "name": "",
          "type": "uint256"
        }
      ],
      "name": "constituencyCandidateCount",
      "outputs": [
        {
          "name": "",
          "type": "uint256"
        }
      ],
      "payable": false,
      "stateMutability": "view",
      "type": "function"
    },
    {
      "constant": true,
      "inputs": [
        {
          "name": "",
          "type": "uint256"
        }
      ],
      "name": "voteToCandidate",
      "outputs": [
        {
          "name": "",
          "type": "uint256"
        }
      ],
      "payable": false,
      "stateMutability": "view",
      "type": "function"
    },
    {
      "constant": true,
      "inputs": [
        {
          "name": "",
          "type": "uint256"
        }
      ],
      "name": "idToCandidate",
      "outputs": [
        {
          "name": "_id",
          "type": "uint256"
        }
      ],
      "payable": false,
      "stateMutability": "view",
      "type": "function"
    },
    {
      "constant": false,
      "inputs": [
        {
          "name": "_id",
          "type": "uint256"
        },
        {
          "name": "_adminId",
          "type": "uint256"
        }
      ],
      "name": "registerCandidate",
      "outputs": [],
      "payable": false,
      "stateMutability": "nonpayable",
      "type": "function"
    },
    {
      "constant": false,
      "inputs": [],
      "name": "renounceOwnership",
      "outputs": [],
      "payable": false,
      "stateMutability": "nonpayable",
      "type": "function"
    },
    {
      "constant": true,
      "inputs": [],
      "name": "owner",
      "outputs": [
        {
          "name": "",
          "type": "address"
        }
      ],
      "payable": false,
      "stateMutability": "view",
      "type": "function"
    },
    {
      "constant": true,
      "inputs": [],
      "name": "isOwner",
      "outputs": [
        {
          "name": "",
          "type": "bool"
        }
      ],
      "payable": false,
      "stateMutability": "view",
      "type": "function"
    },
    {
      "constant": true,
      "inputs": [
        {
          "name": "",
          "type": "uint256"
        }
      ],
      "name": "constituencies",
      "outputs": [
        {
          "name": "_id",
          "type": "uint256"
        },
        {
          "name": "_startTime",
          "type": "uint256"
        },
        {
          "name": "_duration",
          "type": "uint256"
        }
      ],
      "payable": false,
      "stateMutability": "view",
      "type": "function"
    },
    {
      "constant": false,
      "inputs": [
        {
          "name": "_id",
          "type": "uint256"
        }
      ],
      "name": "registerAdmin",
      "outputs": [],
      "payable": false,
      "stateMutability": "nonpayable",
      "type": "function"
    },
    {
      "constant": true,
      "inputs": [],
      "name": "ResultsDeclared",
      "outputs": [
        {
          "name": "",
          "type": "bool"
        }
      ],
      "payable": false,
      "stateMutability": "view",
      "type": "function"
    },
    {
      "constant": true,
      "inputs": [
        {
          "name": "_constituencyId",
          "type": "uint256"
        },
        {
          "name": "_userId",
          "type": "uint256"
        }
      ],
      "name": "getCandidatesByConstituency",
      "outputs": [
        {
          "components": [
            {
              "name": "_id",
              "type": "uint256"
            }
          ],
          "name": "",
          "type": "tuple[]"
        }
      ],
      "payable": false,
      "stateMutability": "view",
      "type": "function"
    },
    {
      "constant": true,
      "inputs": [
        {
          "name": "",
          "type": "uint256"
        }
      ],
      "name": "voters",
      "outputs": [
        {
          "name": "_id",
          "type": "uint256"
        },
        {
          "name": "_constituencyId",
          "type": "uint256"
        },
        {
          "name": "_hasVoted",
          "type": "bool"
        },
        {
          "name": "_voteTime",
          "type": "uint256"
        },
        {
          "components": [
            {
              "name": "_voteId",
              "type": "uint256"
            }
          ],
          "name": "_vote",
          "type": "tuple"
        }
      ],
      "payable": false,
      "stateMutability": "view",
      "type": "function"
    },
    {
      "constant": false,
      "inputs": [
        {
          "name": "newOwner",
          "type": "address"
        }
      ],
      "name": "transferOwnership",
      "outputs": [],
      "payable": false,
      "stateMutability": "nonpayable",
      "type": "function"
    },
    {
      "constant": false,
      "inputs": [
        {
          "name": "_id",
          "type": "uint256"
        },
        {
          "name": "_duration",
          "type": "uint256"
        },
        {
          "name": "_adminId",
          "type": "uint256"
        }
      ],
      "name": "generateElectionforConstituency",
      "outputs": [],
      "payable": false,
      "stateMutability": "nonpayable",
      "type": "function"
    },
    {
      "constant": true,
      "inputs": [
        {
          "name": "",
          "type": "uint256"
        }
      ],
      "name": "idToVoter",
      "outputs": [
        {
          "name": "_id",
          "type": "uint256"
        },
        {
          "name": "_constituencyId",
          "type": "uint256"
        },
        {
          "name": "_hasVoted",
          "type": "bool"
        },
        {
          "name": "_voteTime",
          "type": "uint256"
        },
        {
          "components": [
            {
              "name": "_voteId",
              "type": "uint256"
            }
          ],
          "name": "_vote",
          "type": "tuple"
        }
      ],
      "payable": false,
      "stateMutability": "view",
      "type": "function"
    },
    {
      "anonymous": false,
      "inputs": [
        {
          "indexed": true,
          "name": "_from",
          "type": "uint256"
        },
        {
          "indexed": true,
          "name": "_to",
          "type": "uint256"
        },
        {
          "indexed": true,
          "name": "_tokenId",
          "type": "uint256"
        }
      ],
      "name": "Transfer",
      "type": "event"
    },
    {
      "anonymous": false,
      "inputs": [
        {
          "indexed": false,
          "name": "_id",
          "type": "uint256"
        },
        {
          "indexed": false,
          "name": "_constituencyId",
          "type": "uint256"
        }
      ],
      "name": "VoterCreated",
      "type": "event"
    },
    {
      "anonymous": false,
      "inputs": [
        {
          "indexed": false,
          "name": "_id",
          "type": "uint256"
        }
      ],
      "name": "CandidateRegistered",
      "type": "event"
    },
    {
      "anonymous": false,
      "inputs": [
        {
          "indexed": false,
          "name": "_id",
          "type": "uint256"
        }
      ],
      "name": "ConstituencyRegistered",
      "type": "event"
    },
    {
      "anonymous": false,
      "inputs": [
        {
          "indexed": true,
          "name": "previousOwner",
          "type": "address"
        },
        {
          "indexed": true,
          "name": "newOwner",
          "type": "address"
        }
      ],
      "name": "OwnershipTransferred",
      "type": "event"
    },
    {
      "constant": false,
      "inputs": [
        {
          "name": "from",
          "type": "uint256"
        },
        {
          "name": "to",
          "type": "uint256"
        },
        {
          "name": "tokenId",
          "type": "uint256"
        }
      ],
      "name": "transferFrom",
      "outputs": [],
      "payable": false,
      "stateMutability": "nonpayable",
      "type": "function"
    }
  ],
  "bytecode": "0x608060405260008060146101000a81548160ff021916908315150217905550336000806101000a81548173ffffffffffffffffffffffffffffffffffffffff021916908373ffffffffffffffffffffffffffffffffffffffff1602179055506000809054906101000a900473ffffffffffffffffffffffffffffffffffffffff1673ffffffffffffffffffffffffffffffffffffffff16600073ffffffffffffffffffffffffffffffffffffffff167f8be0079c531659141344cd1fd0a4f28419497f9722a3daafe3b4186f6b6457e060405160405180910390a360008060146101000a81548160ff02191690831515021790555061178f806101036000396000f3fe608060405260043610610149576000357c0100000000000000000000000000000000000000000000000000000000900463ffffffff16806301aa2e031461014e5780630f80dcb01461018b57806312d51c72146101ca5780631471e0ab146101f357806314bfd6d014610230578063289752101461026d5780632fd23a3f146102aa578063310ed7f0146102e75780633477ee2e146103105780633acab52f1461034d5780633b04a6c91461037657806356be1658146103b357806357e2ef10146103f05780635d6e50521461042d578063715018a6146104565780638da5cb5b1461046d5780638f32d59b146104985780639209416a146104c35780639484525414610502578063aa3e4e1c1461052b578063bbc893a314610556578063da58c7d914610593578063f2fde38b146105d4578063f7590065146105fd578063f8c7057114610626575b600080fd5b34801561015a57600080fd5b506101756004803603610170919081019061131a565b610667565b6040516101829190611602565b60405180910390f35b34801561019757600080fd5b506101b260048036036101ad919081019061131a565b61067f565b6040516101c193929190611670565b60405180910390f35b3480156101d657600080fd5b506101f160048036036101ec919081019061137f565b6106a9565b005b3480156101ff57600080fd5b5061021a6004803603610215919081019061131a565b610738565b6040516102279190611602565b60405180910390f35b34801561023c57600080fd5b506102576004803603610252919081019061131a565b610750565b6040516102649190611602565b60405180910390f35b34801561027957600080fd5b50610294600480360361028f919081019061131a565b610773565b6040516102a191906115aa565b60405180910390f35b3480156102b657600080fd5b506102d160048036036102cc9190810190611343565b6108a2565b6040516102de91906115e7565b60405180910390f35b3480156102f357600080fd5b5061030e6004803603610309919081019061137f565b610923565b005b34801561031c57600080fd5b506103376004803603610332919081019061131a565b610a2f565b6040516103449190611602565b60405180910390f35b34801561035957600080fd5b50610374600480360361036f9190810190611343565b610a58565b005b34801561038257600080fd5b5061039d6004803603610398919081019061131a565b610ba6565b6040516103aa9190611602565b60405180910390f35b3480156103bf57600080fd5b506103da60048036036103d5919081019061131a565b610bbe565b6040516103e79190611602565b60405180910390f35b3480156103fc57600080fd5b506104176004803603610412919081019061131a565b610bd6565b6040516104249190611602565b60405180910390f35b34801561043957600080fd5b50610454600480360361044f9190810190611343565b610bf4565b005b34801561046257600080fd5b5061046b610d04565b005b34801561047957600080fd5b50610482610dd6565b60405161048f919061156d565b60405180910390f35b3480156104a457600080fd5b506104ad610dff565b6040516104ba91906115cc565b60405180910390f35b3480156104cf57600080fd5b506104ea60048036036104e5919081019061131a565b610e56565b6040516104f993929190611670565b60405180910390f35b34801561050e57600080fd5b506105296004803603610524919081019061131a565b610e8f565b005b34801561053757600080fd5b50610540610ed1565b60405161054d91906115cc565b60405180910390f35b34801561056257600080fd5b5061057d60048036036105789190810190611343565b610ee4565b60405161058a9190611588565b60405180910390f35b34801561059f57600080fd5b506105ba60048036036105b5919081019061131a565b61101b565b6040516105cb95949392919061161d565b60405180910390f35b3480156105e057600080fd5b506105fb60048036036105f691908101906112f1565b611082565b005b34801561060957600080fd5b50610624600480360361061f919081019061137f565b6110a1565b005b34801561063257600080fd5b5061064d6004803603610648919081019061131a565b61111f565b60405161065e95949392919061161d565b60405180910390f35b60076020528060005260406000206000915090505481565b60036020528060005260406000206000915090508060000154908060010154908060020154905083565b8060008090505b600b805490508110156107315781600b828154811015156106cd57fe5b9060005260206000200154141561071e578360056000878152602001908152602001600020819055506006600085815260200190815260200160002060008154809291906001019190505550610723565b610724565b5b80806001019150506106b0565b5050505050565b60056020528060005260406000206000915090505481565b600b8181548110151561075f57fe5b906000526020600020016000915090505481565b60608160008090505b600b8054905081101561089b5781600b8281548110151561079957fe5b90600052602060002001541415610888576060600a805490506040519080825280602002602001820160405280156107eb57816020015b6107d8611271565b8152602001906001900390816107d05790505b509050600080905060008090505b600a8054905081101561087d57600a8181548110151561081557fe5b9060005260206000209060030201606060405190810160405290816000820154815260200160018201548152602001600282015481525050838381518110151561085b57fe5b90602001906020020181905250818060010192505080806001019150506107f9565b50819450505061088d565b61088e565b5b808060010191505061077c565b5050919050565b6108aa611293565b8160006001600083815260200190815260200160002060000154141515156108d157600080fd5b6108d9611293565b600360008681526020019081526020016000206060604051908101604052908160008201548152602001600182015481526020016002820154815250509050809250505092915050565b82600060016000838152602001908152602001600020600001541415151561094a57600080fd5b6005600084815260200190815260200160002054600160008681526020019081526020016000206001015414151561098157600080fd5b600060016000868152602001908152602001600020905060018160020160006101000a81548160ff02191690831515021790555042816003018190555083600460008781526020019081526020016000208190555060076000858152602001908152602001600020600081548092919060010191905055508284867faf6151f5085accf2d57e1e7bf7601d3b3982e0de7e9a90f032f8554de9c104f660405160405180910390a45050505050565b600981815481101515610a3e57fe5b906000526020600020016000915090508060000154905081565b8060008090505b600b80549050811015610ba05781600b82815481101515610a7c57fe5b90600052602060002001541415610b8d5760006001600a606060405190810160405280888152602001600081526020016000815250908060018154018082558091505090600182039060005260206000209060030201600090919290919091506000820151816000015560208201518160010155604082015181600201555050039050600a81815481101515610b0e57fe5b9060005260206000209060030201600360008781526020019081526020016000206000820154816000015560018201548160010155600282015481600201559050507f21db1a92fb8efb483c22a581ee7e282b6d79d9d43b559ee1affa34181886796985604051610b7f9190611602565b60405180910390a150610b92565b610b93565b5b8080600101915050610a5f565b50505050565b60066020528060005260406000206000915090505481565b60046020528060005260406000206000915090505481565b60026020528060005260406000206000915090508060000154905081565b8060008090505b600b80549050811015610cfe5781600b82815481101515610c1857fe5b90600052602060002001541415610ceb5760006001600960206040519081016040528088815250908060018154018082558091505090600182039060005260206000200160009091929091909150600082015181600001555050039050600981815481101515610c8457fe5b9060005260206000200160026000878152602001908152602001600020600082015481600001559050507f43dcee486fabffa2fb551555bfaa5bfcf6a42f2d014032ccef94bf09d83855eb85604051610cdd9190611602565b60405180910390a150610cf0565b610cf1565b5b8080600101915050610bfb565b50505050565b610d0c610dff565b1515610d1757600080fd5b600073ffffffffffffffffffffffffffffffffffffffff166000809054906101000a900473ffffffffffffffffffffffffffffffffffffffff1673ffffffffffffffffffffffffffffffffffffffff167f8be0079c531659141344cd1fd0a4f28419497f9722a3daafe3b4186f6b6457e060405160405180910390a360008060006101000a81548173ffffffffffffffffffffffffffffffffffffffff021916908373ffffffffffffffffffffffffffffffffffffffff160217905550565b60008060009054906101000a900473ffffffffffffffffffffffffffffffffffffffff16905090565b60008060009054906101000a900473ffffffffffffffffffffffffffffffffffffffff1673ffffffffffffffffffffffffffffffffffffffff163373ffffffffffffffffffffffffffffffffffffffff1614905090565b600a81815481101515610e6557fe5b90600052602060002090600302016000915090508060000154908060010154908060020154905083565b610e97610dff565b1515610ea257600080fd5b600b81908060018154018082558091505090600182039060005260206000200160009091929091909150555050565b600060149054906101000a900460ff1681565b6060816000600160008381526020019081526020016000206000015414151515610f0d57600080fd5b60606006600086815260200190815260200160002054604051908082528060200260200182016040528015610f5c57816020015b610f496112b5565b815260200190600190039081610f415790505b509050600080905060008090505b60098054905081101561100e578660056000600984815481101515610f8b57fe5b9060005260206000200160000154815260200190815260200160002054141561100157600981815481101515610fbd57fe5b90600052602060002001602060405190810160405290816000820154815250508383815181101515610feb57fe5b9060200190602002018190525081806001019250505b8080600101915050610f6a565b5081935050505092915050565b60088181548110151561102a57fe5b90600052602060002090600502016000915090508060000154908060010154908060020160009054906101000a900460ff16908060030154908060040160206040519081016040529081600082015481525050905085565b61108a610dff565b151561109557600080fd5b61109e81611177565b50565b8060008090505b600b805490508110156111185781600b828154811015156110c557fe5b906000526020600020015414156111055760006003600087815260200190815260200160002090504281600101819055508481600201819055505061110a565b61110b565b5b80806001019150506110a8565b5050505050565b60016020528060005260406000206000915090508060000154908060010154908060020160009054906101000a900460ff16908060030154908060040160206040519081016040529081600082015481525050905085565b600073ffffffffffffffffffffffffffffffffffffffff168173ffffffffffffffffffffffffffffffffffffffff16141515156111b357600080fd5b8073ffffffffffffffffffffffffffffffffffffffff166000809054906101000a900473ffffffffffffffffffffffffffffffffffffffff1673ffffffffffffffffffffffffffffffffffffffff167f8be0079c531659141344cd1fd0a4f28419497f9722a3daafe3b4186f6b6457e060405160405180910390a3806000806101000a81548173ffffffffffffffffffffffffffffffffffffffff021916908373ffffffffffffffffffffffffffffffffffffffff16021790555050565b6060604051908101604052806000815260200160008152602001600081525090565b6060604051908101604052806000815260200160008152602001600081525090565b602060405190810160405280600081525090565b60006112d58235611739565b905092915050565b60006112e9823561174b565b905092915050565b60006020828403121561130357600080fd5b6000611311848285016112c9565b91505092915050565b60006020828403121561132c57600080fd5b600061133a848285016112dd565b91505092915050565b6000806040838503121561135657600080fd5b6000611364858286016112dd565b9250506020611375858286016112dd565b9150509250929050565b60008060006060848603121561139457600080fd5b60006113a2868287016112dd565b93505060206113b3868287016112dd565b92505060406113c4868287016112dd565b9150509250925092565b6113d7816116f1565b82525050565b60006113e8826116c1565b8084526020840193506113fa836116a7565b60005b8281101561142c576114108683516114a2565b611419826116d7565b91506020860195506001810190506113fd565b50849250505092915050565b6000611443826116cc565b808452602084019350611455836116b4565b60005b828110156114875761146b868351611500565b611474826116e4565b9150606086019550600181019050611458565b50849250505092915050565b61149c81611703565b82525050565b6020820160008201516114b8600085018261155e565b50505050565b6060820160008201516114d4600085018261155e565b5060208201516114e7602085018261155e565b5060408201516114fa604085018261155e565b50505050565b606082016000820151611516600085018261155e565b506020820151611529602085018261155e565b50604082015161153c604085018261155e565b50505050565b602082016000820151611558600085018261155e565b50505050565b6115678161172f565b82525050565b600060208201905061158260008301846113ce565b92915050565b600060208201905081810360008301526115a281846113dd565b905092915050565b600060208201905081810360008301526115c48184611438565b905092915050565b60006020820190506115e16000830184611493565b92915050565b60006060820190506115fc60008301846114be565b92915050565b6000602082019050611617600083018461155e565b92915050565b600060a082019050611632600083018861155e565b61163f602083018761155e565b61164c6040830186611493565b611659606083018561155e565b6116666080830184611542565b9695505050505050565b6000606082019050611685600083018661155e565b611692602083018561155e565b61169f604083018461155e565b949350505050565b6000602082019050919050565b6000602082019050919050565b600081519050919050565b600081519050919050565b6000602082019050919050565b6000602082019050919050565b60006116fc8261170f565b9050919050565b60008115159050919050565b600073ffffffffffffffffffffffffffffffffffffffff82169050919050565b6000819050919050565b60006117448261170f565b9050919050565b600081905091905056fea265627a7a72305820b97f8121b5db6137e02750330f42a46b6da1671bb6de5edebeb02ba485fca2c16c6578706572696d656e74616cf50037",
  "source": "pragma solidity ^0.5.0;\npragma experimental ABIEncoderV2;\nimport \"./ElectionHelper.sol\";\n\ncontract VotingTransactions is ElectionHelper {\n    event Transfer(uint256 indexed _from, uint256 indexed _to, uint256 indexed _tokenId);\n\n    function transferFrom(uint256 from, uint256 to, uint256 tokenId) public onlyUser(from) {\n        require(idToVoter[from]._constituencyId == candidateToConstituency[to]);\n        Voter storage voter = idToVoter[from];\n        voter._hasVoted = true;\n        voter._voteTime = block.timestamp;\n        voteToCandidate[from] = to;\n        candidateVoteCount[to]++;\n        emit Transfer(from, to, tokenId);\n    }\n\n    function _transferredTo(uint256 _id, uint256 _userId) private view onlyUser(_userId) returns(Candidate memory) {\n        uint256 candidateId = voteToCandidate[_id];\n        Candidate memory candidate = idToCandidate[candidateId];\n        return candidate;\n    }\n}",
  "sourcePath": "/home/d3mon/Projects/sudo-rm--rf/contracts/VotingTransactions.sol",
  "compiler": {
    "name": "solc",
    "version": "0.5.0+commit.1d4f565a.Emscripten.clang"
  },
  "schemaVersion": "3.0.2",
  "updatedAt": "2020-01-30T16:34:04.945Z",
  "devdoc": {
    "methods": {
      "isOwner()": {
        "return": "true if `msg.sender` is the owner of the contract."
      },
      "owner()": {
        "return": "the address of the owner."
      },
      "renounceOwnership()": {
        "details": "Allows the current owner to relinquish control of the contract."
      },
      "transferOwnership(address)": {
        "details": "Allows the current owner to transfer control of the contract to a newOwner.",
        "params": {
          "newOwner": "The address to transfer ownership to."
        }
      }
    }
  },
  "userdoc": {
    "methods": {
      "renounceOwnership()": {
        "notice": "Renouncing to ownership will leave the contract without an owner. It will not be possible to call the functions with the `onlyOwner` modifier anymore."
      }
    }
  }
}