{
  "contractName": "VotingTransactions",
  "abi": [
    {
      "constant": false,
      "inputs": [
        {
          "name": "_id",
          "type": "uint256"
        },
        {
          "name": "_constituencyId",
          "type": "uint256"
        },
        {
          "name": "_adminId",
          "type": "uint256"
        }
      ],
      "name": "assignCandidateToConstituency",
      "outputs": [],
      "payable": false,
      "stateMutability": "nonpayable",
      "type": "function"
    },
    {
      "constant": true,
      "inputs": [
        {
          "name": "",
          "type": "uint256"
        }
      ],
      "name": "admins",
      "outputs": [
        {
          "name": "",
          "type": "uint256"
        }
      ],
      "payable": false,
      "stateMutability": "view",
      "type": "function"
    },
    {
      "constant": false,
      "inputs": [
        {
          "name": "_adminId",
          "type": "uint256"
        }
      ],
      "name": "getConstituencies",
      "outputs": [
        {
          "components": [
            {
              "name": "_id",
              "type": "uint256"
            },
            {
              "name": "_startTime",
              "type": "uint256"
            },
            {
              "name": "_duration",
              "type": "uint256"
            }
          ],
          "name": "",
          "type": "tuple[]"
        }
      ],
      "payable": false,
      "stateMutability": "nonpayable",
      "type": "function"
    },
    {
      "constant": false,
      "inputs": [
        {
          "name": "_id",
          "type": "uint256"
        },
        {
          "name": "_userId",
          "type": "uint256"
        }
      ],
      "name": "getConstituencyDetails",
      "outputs": [
        {
          "components": [
            {
              "name": "_id",
              "type": "uint256"
            },
            {
              "name": "_startTime",
              "type": "uint256"
            },
            {
              "name": "_duration",
              "type": "uint256"
            }
          ],
          "name": "",
          "type": "tuple"
        }
      ],
      "payable": false,
      "stateMutability": "nonpayable",
      "type": "function"
    },
    {
      "constant": true,
      "inputs": [
        {
          "name": "",
          "type": "uint256"
        }
      ],
      "name": "candidates",
      "outputs": [
        {
          "name": "_id",
          "type": "uint256"
        }
      ],
      "payable": false,
      "stateMutability": "view",
      "type": "function"
    },
    {
      "constant": false,
      "inputs": [
        {
          "name": "_id",
          "type": "uint256"
        },
        {
          "name": "_adminId",
          "type": "uint256"
        }
      ],
      "name": "registerConstituency",
      "outputs": [],
      "payable": false,
      "stateMutability": "nonpayable",
      "type": "function"
    },
    {
      "constant": false,
      "inputs": [
        {
          "name": "_id",
          "type": "uint256"
        },
        {
          "name": "_adminId",
          "type": "uint256"
        }
      ],
      "name": "registerCandidate",
      "outputs": [],
      "payable": false,
      "stateMutability": "nonpayable",
      "type": "function"
    },
    {
      "constant": false,
      "inputs": [],
      "name": "renounceOwnership",
      "outputs": [],
      "payable": false,
      "stateMutability": "nonpayable",
      "type": "function"
    },
    {
      "constant": true,
      "inputs": [],
      "name": "owner",
      "outputs": [
        {
          "name": "",
          "type": "address"
        }
      ],
      "payable": false,
      "stateMutability": "view",
      "type": "function"
    },
    {
      "constant": true,
      "inputs": [],
      "name": "isOwner",
      "outputs": [
        {
          "name": "",
          "type": "bool"
        }
      ],
      "payable": false,
      "stateMutability": "view",
      "type": "function"
    },
    {
      "constant": true,
      "inputs": [
        {
          "name": "",
          "type": "uint256"
        }
      ],
      "name": "constituencies",
      "outputs": [
        {
          "name": "_id",
          "type": "uint256"
        },
        {
          "name": "_startTime",
          "type": "uint256"
        },
        {
          "name": "_duration",
          "type": "uint256"
        }
      ],
      "payable": false,
      "stateMutability": "view",
      "type": "function"
    },
    {
      "constant": false,
      "inputs": [
        {
          "name": "_id",
          "type": "uint256"
        }
      ],
      "name": "registerAdmin",
      "outputs": [],
      "payable": false,
      "stateMutability": "nonpayable",
      "type": "function"
    },
    {
      "constant": true,
      "inputs": [
        {
          "name": "_constituencyId",
          "type": "uint256"
        },
        {
          "name": "_userId",
          "type": "uint256"
        }
      ],
      "name": "getCandidatesByConstituency",
      "outputs": [
        {
          "components": [
            {
              "name": "_id",
              "type": "uint256"
            }
          ],
          "name": "",
          "type": "tuple[]"
        }
      ],
      "payable": false,
      "stateMutability": "view",
      "type": "function"
    },
    {
      "constant": true,
      "inputs": [
        {
          "name": "",
          "type": "uint256"
        }
      ],
      "name": "voters",
      "outputs": [
        {
          "name": "_id",
          "type": "uint256"
        },
        {
          "name": "_constituencyId",
          "type": "uint256"
        },
        {
          "name": "_hasVoted",
          "type": "bool"
        },
        {
          "components": [
            {
              "name": "_voteId",
              "type": "bytes32"
            },
            {
              "name": "_votedId",
              "type": "uint256"
            },
            {
              "name": "_voteTime",
              "type": "uint64"
            }
          ],
          "name": "_vote",
          "type": "tuple"
        }
      ],
      "payable": false,
      "stateMutability": "view",
      "type": "function"
    },
    {
      "constant": false,
      "inputs": [
        {
          "name": "newOwner",
          "type": "address"
        }
      ],
      "name": "transferOwnership",
      "outputs": [],
      "payable": false,
      "stateMutability": "nonpayable",
      "type": "function"
    },
    {
      "constant": false,
      "inputs": [
        {
          "name": "_id",
          "type": "uint256"
        },
        {
          "name": "_duration",
          "type": "uint256"
        },
        {
          "name": "_adminId",
          "type": "uint256"
        }
      ],
      "name": "generateElectionforConstituency",
      "outputs": [],
      "payable": false,
      "stateMutability": "nonpayable",
      "type": "function"
    },
    {
      "anonymous": false,
      "inputs": [
        {
          "indexed": true,
          "name": "_from",
          "type": "uint256"
        },
        {
          "indexed": true,
          "name": "_to",
          "type": "uint256"
        },
        {
          "indexed": true,
          "name": "_tokenId",
          "type": "bytes32"
        }
      ],
      "name": "Transfer",
      "type": "event"
    },
    {
      "anonymous": false,
      "inputs": [
        {
          "indexed": false,
          "name": "_id",
          "type": "uint256"
        },
        {
          "indexed": false,
          "name": "_voterId",
          "type": "uint256"
        }
      ],
      "name": "VoterCreated",
      "type": "event"
    },
    {
      "anonymous": false,
      "inputs": [
        {
          "indexed": false,
          "name": "_id",
          "type": "uint256"
        }
      ],
      "name": "CandidateRegistered",
      "type": "event"
    },
    {
      "anonymous": false,
      "inputs": [
        {
          "indexed": false,
          "name": "_id",
          "type": "uint256"
        }
      ],
      "name": "ConstituencyRegistered",
      "type": "event"
    },
    {
      "anonymous": false,
      "inputs": [
        {
          "indexed": true,
          "name": "previousOwner",
          "type": "address"
        },
        {
          "indexed": true,
          "name": "newOwner",
          "type": "address"
        }
      ],
      "name": "OwnershipTransferred",
      "type": "event"
    },
    {
      "constant": false,
      "inputs": [
        {
          "name": "from",
          "type": "uint256"
        },
        {
          "name": "to",
          "type": "uint256"
        },
        {
          "name": "tokenId",
          "type": "bytes32"
        }
      ],
      "name": "transferFrom",
      "outputs": [],
      "payable": false,
      "stateMutability": "nonpayable",
      "type": "function"
    }
  ],
  "bytecode": "0x60806040526060604051908101604052806000600102815260200160008152602001600067ffffffffffffffff168152506001600082015181600001556020820151816001015560408201518160020160006101000a81548167ffffffffffffffff021916908367ffffffffffffffff16021790555050506000600460006101000a81548160ff021916908315150217905550336000806101000a81548173ffffffffffffffffffffffffffffffffffffffff021916908373ffffffffffffffffffffffffffffffffffffffff1602179055506000809054906101000a900473ffffffffffffffffffffffffffffffffffffffff1673ffffffffffffffffffffffffffffffffffffffff16600073ffffffffffffffffffffffffffffffffffffffff167f8be0079c531659141344cd1fd0a4f28419497f9722a3daafe3b4186f6b6457e060405160405180910390a36115dd8061015d6000396000f3fe6080604052600436106100f1576000357c0100000000000000000000000000000000000000000000000000000000900463ffffffff16806312d51c72146100f657806314bfd6d01461011f578063289752101461015c5780632fd23a3f146101995780633477ee2e146101d65780633acab52f146102135780633ba8b3ff1461023c5780635d6e505214610265578063715018a61461028e5780638da5cb5b146102a55780638f32d59b146102d05780639209416a146102fb578063948452541461033a578063bbc893a314610363578063da58c7d9146103a0578063f2fde38b146103e0578063f759006514610409575b600080fd5b34801561010257600080fd5b5061011d6004803603610118919081019061116f565b610432565b005b34801561012b57600080fd5b50610146600480360361014191908101906110bb565b6104c1565b6040516101539190611436565b60405180910390f35b34801561016857600080fd5b50610183600480360361017e91908101906110bb565b6104e4565b60405161019091906113de565b60405180910390f35b3480156101a557600080fd5b506101c060048036036101bb91908101906110e4565b6105b3565b6040516101cd919061141b565b60405180910390f35b3480156101e257600080fd5b506101fd60048036036101f891908101906110bb565b610634565b60405161020a9190611436565b60405180910390f35b34801561021f57600080fd5b5061023a600480360361023591908101906110e4565b61065d565b005b34801561024857600080fd5b50610263600480360361025e9190810190611120565b6107ab565b005b34801561027157600080fd5b5061028c600480360361028791908101906110e4565b610946565b005b34801561029a57600080fd5b506102a3610a56565b005b3480156102b157600080fd5b506102ba610b28565b6040516102c791906113a1565b60405180910390f35b3480156102dc57600080fd5b506102e5610b51565b6040516102f29190611400565b60405180910390f35b34801561030757600080fd5b50610322600480360361031d91908101906110bb565b610ba8565b60405161033193929190611496565b60405180910390f35b34801561034657600080fd5b50610361600480360361035c91908101906110bb565b610be1565b005b34801561036f57600080fd5b5061038a600480360361038591908101906110e4565b610c23565b60405161039791906113bc565b60405180910390f35b3480156103ac57600080fd5b506103c760048036036103c291908101906110bb565b610d5a565b6040516103d79493929190611451565b60405180910390f35b3480156103ec57600080fd5b5061040760048036036104029190810190611092565b610df7565b005b34801561041557600080fd5b50610430600480360361042b919081019061116f565b610e16565b005b8060008090505b600f805490508110156104ba5781600f8281548110151561045657fe5b906000526020600020015414156104a757836009600087815260200190815260200160002081905550600a6000858152602001908152602001600020600081548092919060010191905055506104ac565b6104ad565b5b8080600101915050610439565b5050505050565b600f818154811015156104d057fe5b906000526020600020016000915090505481565b60608160008090505b600f805490508110156105ac5781600f8281548110151561050a57fe5b9060005260206000200154141561059957600e805480602002602001604051908101604052809291908181526020016000905b8282101561058e57838290600052602060002090600302016060604051908101604052908160008201548152602001600182015481526020016002820154815250508152602001906001019061053d565b50505050925061059e565b61059f565b5b80806001019150506104ed565b5050919050565b6105bb610fc0565b8160006005600083815260200190815260200160002060000154141515156105e257600080fd5b6105ea610fc0565b600760008681526020019081526020016000206060604051908101604052908160008201548152602001600182015481526020016002820154815250509050809250505092915050565b600d8181548110151561064357fe5b906000526020600020016000915090508060000154905081565b8060008090505b600f805490508110156107a55781600f8281548110151561068157fe5b906000526020600020015414156107925760006001600e606060405190810160405280888152602001600081526020016000815250908060018154018082558091505090600182039060005260206000209060030201600090919290919091506000820151816000015560208201518160010155604082015181600201555050039050600e8181548110151561071357fe5b9060005260206000209060030201600760008781526020019081526020016000206000820154816000015560018201548160010155600282015481600201559050507f21db1a92fb8efb483c22a581ee7e282b6d79d9d43b559ee1affa341818867969856040516107849190611436565b60405180910390a150610797565b610798565b5b8080600101915050610664565b50505050565b8260006005600083815260200190815260200160002060000154141515156107d257600080fd5b6009600084815260200190815260200160002054600560008681526020019081526020016000206001015414151561080957600080fd5b610811610fe2565b600560008681526020019081526020016000206080604051908101604052908160008201548152602001600182015481526020016002820160009054906101000a900460ff16151515158152602001600382016060604051908101604052908160008201548152602001600182015481526020016002820160009054906101000a900467ffffffffffffffff1667ffffffffffffffff1667ffffffffffffffff168152505081525050905060018160400190151590811515815250508360086000836060015160000151815260200190815260200160002081905550600b6000858152602001908152602001600020600081548092919060010191905055508284867f612c500cbd8f1ed8a4643cbf6b41fda92203645d7e4f7c3a237a1be69565ea2c60405160405180910390a45050505050565b8060008090505b600f80549050811015610a505781600f8281548110151561096a57fe5b90600052602060002001541415610a3d5760006001600d60206040519081016040528088815250908060018154018082558091505090600182039060005260206000200160009091929091909150600082015181600001555050039050600d818154811015156109d657fe5b9060005260206000200160066000878152602001908152602001600020600082015481600001559050507f43dcee486fabffa2fb551555bfaa5bfcf6a42f2d014032ccef94bf09d83855eb85604051610a2f9190611436565b60405180910390a150610a42565b610a43565b5b808060010191505061094d565b50505050565b610a5e610b51565b1515610a6957600080fd5b600073ffffffffffffffffffffffffffffffffffffffff166000809054906101000a900473ffffffffffffffffffffffffffffffffffffffff1673ffffffffffffffffffffffffffffffffffffffff167f8be0079c531659141344cd1fd0a4f28419497f9722a3daafe3b4186f6b6457e060405160405180910390a360008060006101000a81548173ffffffffffffffffffffffffffffffffffffffff021916908373ffffffffffffffffffffffffffffffffffffffff160217905550565b60008060009054906101000a900473ffffffffffffffffffffffffffffffffffffffff16905090565b60008060009054906101000a900473ffffffffffffffffffffffffffffffffffffffff1673ffffffffffffffffffffffffffffffffffffffff163373ffffffffffffffffffffffffffffffffffffffff1614905090565b600e81815481101515610bb757fe5b90600052602060002090600302016000915090508060000154908060010154908060020154905083565b610be9610b51565b1515610bf457600080fd5b600f81908060018154018082558091505090600182039060005260206000200160009091929091909150555050565b6060816000600560008381526020019081526020016000206000015414151515610c4c57600080fd5b6060600a600086815260200190815260200160002054604051908082528060200260200182016040528015610c9b57816020015b610c88611013565b815260200190600190039081610c805790505b509050600080905060008090505b600d80549050811015610d4d578660096000600d84815481101515610cca57fe5b90600052602060002001600001548152602001908152602001600020541415610d4057600d81815481101515610cfc57fe5b90600052602060002001602060405190810160405290816000820154815250508383815181101515610d2a57fe5b9060200190602002018190525081806001019250505b8080600101915050610ca9565b5081935050505092915050565b600c81815481101515610d6957fe5b90600052602060002090600602016000915090508060000154908060010154908060020160009054906101000a900460ff1690806003016060604051908101604052908160008201548152602001600182015481526020016002820160009054906101000a900467ffffffffffffffff1667ffffffffffffffff1667ffffffffffffffff1681525050905084565b610dff610b51565b1515610e0a57600080fd5b610e1381610ec6565b50565b8060008090505b600f80549050811015610ebf5781600f82815481101515610e3a57fe5b90600052602060002001541415610eac57610e53610fc0565b600760008781526020019081526020016000206060604051908101604052908160008201548152602001600182015481526020016002820154815250509050428160200181815250508481604001818152505050610eb1565b610eb2565b5b8080600101915050610e1d565b5050505050565b600073ffffffffffffffffffffffffffffffffffffffff168173ffffffffffffffffffffffffffffffffffffffff1614151515610f0257600080fd5b8073ffffffffffffffffffffffffffffffffffffffff166000809054906101000a900473ffffffffffffffffffffffffffffffffffffffff1673ffffffffffffffffffffffffffffffffffffffff167f8be0079c531659141344cd1fd0a4f28419497f9722a3daafe3b4186f6b6457e060405160405180910390a3806000806101000a81548173ffffffffffffffffffffffffffffffffffffffff021916908373ffffffffffffffffffffffffffffffffffffffff16021790555050565b6060604051908101604052806000815260200160008152602001600081525090565b60c060405190810160405280600081526020016000815260200160001515815260200161100d611027565b81525090565b602060405190810160405280600081525090565b6060604051908101604052806000801916815260200160008152602001600067ffffffffffffffff1681525090565b6000611062823561157d565b905092915050565b6000611076823561158f565b905092915050565b600061108a8235611599565b905092915050565b6000602082840312156110a457600080fd5b60006110b284828501611056565b91505092915050565b6000602082840312156110cd57600080fd5b60006110db8482850161107e565b91505092915050565b600080604083850312156110f757600080fd5b60006111058582860161107e565b92505060206111168582860161107e565b9150509250929050565b60008060006060848603121561113557600080fd5b60006111438682870161107e565b93505060206111548682870161107e565b92505060406111658682870161106a565b9150509250925092565b60008060006060848603121561118457600080fd5b60006111928682870161107e565b93505060206111a38682870161107e565b92505060406111b48682870161107e565b9150509250925092565b6111c781611517565b82525050565b60006111d8826114e7565b8084526020840193506111ea836114cd565b60005b8281101561121c576112008683516112a1565b611209826114fd565b91506020860195506001810190506111ed565b50849250505092915050565b6000611233826114f2565b808452602084019350611245836114da565b60005b828110156112775761125b8683516112ff565b6112648261150a565b9150606086019550600181019050611248565b50849250505092915050565b61128c81611529565b82525050565b61129b81611535565b82525050565b6020820160008201516112b76000850182611383565b50505050565b6060820160008201516112d36000850182611383565b5060208201516112e66020850182611383565b5060408201516112f96040850182611383565b50505050565b6060820160008201516113156000850182611383565b5060208201516113286020850182611383565b50604082015161133b6040850182611383565b50505050565b6060820160008201516113576000850182611292565b50602082015161136a6020850182611383565b50604082015161137d6040850182611392565b50505050565b61138c8161155f565b82525050565b61139b81611569565b82525050565b60006020820190506113b660008301846111be565b92915050565b600060208201905081810360008301526113d681846111cd565b905092915050565b600060208201905081810360008301526113f88184611228565b905092915050565b60006020820190506114156000830184611283565b92915050565b600060608201905061143060008301846112bd565b92915050565b600060208201905061144b6000830184611383565b92915050565b600060c0820190506114666000830187611383565b6114736020830186611383565b6114806040830185611283565b61148d6060830184611341565b95945050505050565b60006060820190506114ab6000830186611383565b6114b86020830185611383565b6114c56040830184611383565b949350505050565b6000602082019050919050565b6000602082019050919050565b600081519050919050565b600081519050919050565b6000602082019050919050565b6000602082019050919050565b60006115228261153f565b9050919050565b60008115159050919050565b6000819050919050565b600073ffffffffffffffffffffffffffffffffffffffff82169050919050565b6000819050919050565b600067ffffffffffffffff82169050919050565b60006115888261153f565b9050919050565b6000819050919050565b600081905091905056fea265627a7a7230582089e14b82ded1270e57feae8a9f47f5b110f0a662235859f3890faa9ed0a78d356c6578706572696d656e74616cf50037",
  "source": "pragma solidity ^0.5.0;\npragma experimental ABIEncoderV2;\nimport \"./ElectionHelper.sol\";\n\ncontract VotingTransactions is ElectionHelper {\n    event Transfer(uint256 indexed _from, uint256 indexed _to, bytes32 indexed _tokenId);\n\n    // function ownerOf(uint256 tokenId) public view returns (address) {\n    //     address owner = _tokenOwner[tokenId];\n    //     require(owner != address(0), \"ERC721: owner query for nonexistent token\");\n\n    //     return owner;\n    // }\n\n    function transferFrom(uint256 from, uint256 to, bytes32 tokenId) public onlyUser(from) {\n        require(idToVoter[from]._constituencyId == candidateToConstituency[to]);\n        Voter memory voter = idToVoter[from];\n        voter._hasVoted = true;\n        voteToCandidate[voter._vote._voteId] = to;\n        candidateVoteCount[to]++;\n        emit Transfer(from, to, tokenId);\n    }\n\n    function _transferredTo(bytes32 _id, uint256 _userId) private view onlyUser(_userId) returns(Candidate memory) {\n        uint256 candidateId = voteToCandidate[_id];\n        Candidate memory candidate = idToCandidate[candidateId];\n        return candidate;\n    }\n}",
  "sourcePath": "/home/d3mon/Projects/sudo-rm--rf/contracts/VotingTransactions.sol",
  "compiler": {
    "name": "solc",
    "version": "0.5.0+commit.1d4f565a.Emscripten.clang"
  },
  "schemaVersion": "3.0.2",
  "updatedAt": "2019-12-21T10:19:28.240Z",
  "devdoc": {
    "methods": {
      "isOwner()": {
        "return": "true if `msg.sender` is the owner of the contract."
      },
      "owner()": {
        "return": "the address of the owner."
      },
      "renounceOwnership()": {
        "details": "Allows the current owner to relinquish control of the contract."
      },
      "transferOwnership(address)": {
        "details": "Allows the current owner to transfer control of the contract to a newOwner.",
        "params": {
          "newOwner": "The address to transfer ownership to."
        }
      }
    }
  },
  "userdoc": {
    "methods": {
      "renounceOwnership()": {
        "notice": "Renouncing to ownership will leave the contract without an owner. It will not be possible to call the functions with the `onlyOwner` modifier anymore."
      }
    }
  }
}