{
  "contractName": "VotingTransactions",
  "abi": [
    {
      "constant": true,
      "inputs": [
        {
          "name": "",
          "type": "uint256"
        }
      ],
      "name": "candidateVoteCount",
      "outputs": [
        {
          "name": "",
          "type": "uint256"
        }
      ],
      "payable": false,
      "stateMutability": "view",
      "type": "function"
    },
    {
      "constant": true,
      "inputs": [
        {
          "name": "",
          "type": "uint256"
        }
      ],
      "name": "idToConstituency",
      "outputs": [
        {
          "name": "_id",
          "type": "uint256"
        },
        {
          "name": "_startTime",
          "type": "uint256"
        },
        {
          "name": "_duration",
          "type": "uint256"
        }
      ],
      "payable": false,
      "stateMutability": "view",
      "type": "function"
    },
    {
      "constant": false,
      "inputs": [
        {
          "name": "_id",
          "type": "uint256"
        },
        {
          "name": "_constituencyId",
          "type": "uint256"
        },
        {
          "name": "_adminId",
          "type": "uint256"
        }
      ],
      "name": "assignCandidateToConstituency",
      "outputs": [],
      "payable": false,
      "stateMutability": "nonpayable",
      "type": "function"
    },
    {
      "constant": true,
      "inputs": [
        {
          "name": "",
          "type": "uint256"
        }
      ],
      "name": "candidateToConstituency",
      "outputs": [
        {
          "name": "",
          "type": "uint256"
        }
      ],
      "payable": false,
      "stateMutability": "view",
      "type": "function"
    },
    {
      "constant": true,
      "inputs": [
        {
          "name": "",
          "type": "uint256"
        }
      ],
      "name": "admins",
      "outputs": [
        {
          "name": "",
          "type": "uint256"
        }
      ],
      "payable": false,
      "stateMutability": "view",
      "type": "function"
    },
    {
      "constant": false,
      "inputs": [
        {
          "name": "_adminId",
          "type": "uint256"
        }
      ],
      "name": "getConstituencies",
      "outputs": [
        {
          "components": [
            {
              "name": "_id",
              "type": "uint256"
            },
            {
              "name": "_startTime",
              "type": "uint256"
            },
            {
              "name": "_duration",
              "type": "uint256"
            }
          ],
          "name": "",
          "type": "tuple[]"
        }
      ],
      "payable": false,
      "stateMutability": "nonpayable",
      "type": "function"
    },
    {
      "constant": false,
      "inputs": [
        {
          "name": "_id",
          "type": "uint256"
        },
        {
          "name": "_userId",
          "type": "uint256"
        }
      ],
      "name": "getConstituencyDetails",
      "outputs": [
        {
          "components": [
            {
              "name": "_id",
              "type": "uint256"
            },
            {
              "name": "_startTime",
              "type": "uint256"
            },
            {
              "name": "_duration",
              "type": "uint256"
            }
          ],
          "name": "",
          "type": "tuple"
        }
      ],
      "payable": false,
      "stateMutability": "nonpayable",
      "type": "function"
    },
    {
      "constant": true,
      "inputs": [
        {
          "name": "",
          "type": "uint256"
        }
      ],
      "name": "candidates",
      "outputs": [
        {
          "name": "_id",
          "type": "uint256"
        }
      ],
      "payable": false,
      "stateMutability": "view",
      "type": "function"
    },
    {
      "constant": false,
      "inputs": [
        {
          "name": "_id",
          "type": "uint256"
        },
        {
          "name": "_adminId",
          "type": "uint256"
        }
      ],
      "name": "registerConstituency",
      "outputs": [],
      "payable": false,
      "stateMutability": "nonpayable",
      "type": "function"
    },
    {
      "constant": true,
      "inputs": [
        {
          "name": "",
          "type": "uint256"
        }
      ],
      "name": "constituencyCandidateCount",
      "outputs": [
        {
          "name": "",
          "type": "uint256"
        }
      ],
      "payable": false,
      "stateMutability": "view",
      "type": "function"
    },
    {
      "constant": true,
      "inputs": [
        {
          "name": "",
          "type": "uint256"
        }
      ],
      "name": "voteToCandidate",
      "outputs": [
        {
          "name": "",
          "type": "uint256"
        }
      ],
      "payable": false,
      "stateMutability": "view",
      "type": "function"
    },
    {
      "constant": true,
      "inputs": [
        {
          "name": "",
          "type": "uint256"
        }
      ],
      "name": "idToCandidate",
      "outputs": [
        {
          "name": "_id",
          "type": "uint256"
        }
      ],
      "payable": false,
      "stateMutability": "view",
      "type": "function"
    },
    {
      "constant": false,
      "inputs": [
        {
          "name": "_id",
          "type": "uint256"
        },
        {
          "name": "_adminId",
          "type": "uint256"
        }
      ],
      "name": "registerCandidate",
      "outputs": [],
      "payable": false,
      "stateMutability": "nonpayable",
      "type": "function"
    },
    {
      "constant": false,
      "inputs": [],
      "name": "renounceOwnership",
      "outputs": [],
      "payable": false,
      "stateMutability": "nonpayable",
      "type": "function"
    },
    {
      "constant": true,
      "inputs": [],
      "name": "owner",
      "outputs": [
        {
          "name": "",
          "type": "address"
        }
      ],
      "payable": false,
      "stateMutability": "view",
      "type": "function"
    },
    {
      "constant": true,
      "inputs": [],
      "name": "isOwner",
      "outputs": [
        {
          "name": "",
          "type": "bool"
        }
      ],
      "payable": false,
      "stateMutability": "view",
      "type": "function"
    },
    {
      "constant": true,
      "inputs": [
        {
          "name": "",
          "type": "uint256"
        }
      ],
      "name": "constituencies",
      "outputs": [
        {
          "name": "_id",
          "type": "uint256"
        },
        {
          "name": "_startTime",
          "type": "uint256"
        },
        {
          "name": "_duration",
          "type": "uint256"
        }
      ],
      "payable": false,
      "stateMutability": "view",
      "type": "function"
    },
    {
      "constant": false,
      "inputs": [
        {
          "name": "_id",
          "type": "uint256"
        }
      ],
      "name": "registerAdmin",
      "outputs": [],
      "payable": false,
      "stateMutability": "nonpayable",
      "type": "function"
    },
    {
      "constant": true,
      "inputs": [
        {
          "name": "_constituencyId",
          "type": "uint256"
        },
        {
          "name": "_userId",
          "type": "uint256"
        }
      ],
      "name": "getCandidatesByConstituency",
      "outputs": [
        {
          "components": [
            {
              "name": "_id",
              "type": "uint256"
            }
          ],
          "name": "",
          "type": "tuple[]"
        }
      ],
      "payable": false,
      "stateMutability": "view",
      "type": "function"
    },
    {
      "constant": true,
      "inputs": [
        {
          "name": "",
          "type": "uint256"
        }
      ],
      "name": "voters",
      "outputs": [
        {
          "name": "_id",
          "type": "uint256"
        },
        {
          "name": "_constituencyId",
          "type": "uint256"
        },
        {
          "name": "_hasVoted",
          "type": "bool"
        },
        {
          "components": [
            {
              "name": "_voteId",
              "type": "uint256"
            },
            {
              "name": "_votedId",
              "type": "uint256"
            },
            {
              "name": "_voteTime",
              "type": "uint64"
            }
          ],
          "name": "_vote",
          "type": "tuple"
        }
      ],
      "payable": false,
      "stateMutability": "view",
      "type": "function"
    },
    {
      "constant": false,
      "inputs": [
        {
          "name": "newOwner",
          "type": "address"
        }
      ],
      "name": "transferOwnership",
      "outputs": [],
      "payable": false,
      "stateMutability": "nonpayable",
      "type": "function"
    },
    {
      "constant": false,
      "inputs": [
        {
          "name": "_id",
          "type": "uint256"
        },
        {
          "name": "_duration",
          "type": "uint256"
        },
        {
          "name": "_adminId",
          "type": "uint256"
        }
      ],
      "name": "generateElectionforConstituency",
      "outputs": [],
      "payable": false,
      "stateMutability": "nonpayable",
      "type": "function"
    },
    {
      "constant": true,
      "inputs": [
        {
          "name": "",
          "type": "uint256"
        }
      ],
      "name": "idToVoter",
      "outputs": [
        {
          "name": "_id",
          "type": "uint256"
        },
        {
          "name": "_constituencyId",
          "type": "uint256"
        },
        {
          "name": "_hasVoted",
          "type": "bool"
        },
        {
          "components": [
            {
              "name": "_voteId",
              "type": "uint256"
            },
            {
              "name": "_votedId",
              "type": "uint256"
            },
            {
              "name": "_voteTime",
              "type": "uint64"
            }
          ],
          "name": "_vote",
          "type": "tuple"
        }
      ],
      "payable": false,
      "stateMutability": "view",
      "type": "function"
    },
    {
      "anonymous": false,
      "inputs": [
        {
          "indexed": true,
          "name": "_from",
          "type": "uint256"
        },
        {
          "indexed": true,
          "name": "_to",
          "type": "uint256"
        },
        {
          "indexed": true,
          "name": "_tokenId",
          "type": "bytes32"
        }
      ],
      "name": "Transfer",
      "type": "event"
    },
    {
      "anonymous": false,
      "inputs": [
        {
          "indexed": false,
          "name": "_id",
          "type": "uint256"
        },
        {
          "indexed": false,
          "name": "_constituencyId",
          "type": "uint256"
        }
      ],
      "name": "VoterCreated",
      "type": "event"
    },
    {
      "anonymous": false,
      "inputs": [
        {
          "indexed": false,
          "name": "_id",
          "type": "uint256"
        }
      ],
      "name": "CandidateRegistered",
      "type": "event"
    },
    {
      "anonymous": false,
      "inputs": [
        {
          "indexed": false,
          "name": "_id",
          "type": "uint256"
        }
      ],
      "name": "ConstituencyRegistered",
      "type": "event"
    },
    {
      "anonymous": false,
      "inputs": [
        {
          "indexed": true,
          "name": "previousOwner",
          "type": "address"
        },
        {
          "indexed": true,
          "name": "newOwner",
          "type": "address"
        }
      ],
      "name": "OwnershipTransferred",
      "type": "event"
    },
    {
      "constant": false,
      "inputs": [
        {
          "name": "from",
          "type": "uint256"
        },
        {
          "name": "to",
          "type": "uint256"
        },
        {
          "name": "tokenId",
          "type": "bytes32"
        }
      ],
      "name": "transferFrom",
      "outputs": [],
      "payable": false,
      "stateMutability": "nonpayable",
      "type": "function"
    }
  ],
  "bytecode": "0x6080604052336000806101000a81548173ffffffffffffffffffffffffffffffffffffffff021916908373ffffffffffffffffffffffffffffffffffffffff1602179055506000809054906101000a900473ffffffffffffffffffffffffffffffffffffffff1673ffffffffffffffffffffffffffffffffffffffff16600073ffffffffffffffffffffffffffffffffffffffff167f8be0079c531659141344cd1fd0a4f28419497f9722a3daafe3b4186f6b6457e060405160405180910390a360008060146101000a81548160ff021916908315150217905550611976806100e96000396000f3fe60806040526004361061013e576000357c0100000000000000000000000000000000000000000000000000000000900463ffffffff16806301aa2e03146101435780630f80dcb01461018057806312d51c72146101bf5780631471e0ab146101e857806314bfd6d01461022557806328975210146102625780632fd23a3f1461029f5780633477ee2e146102dc5780633acab52f146103195780633b04a6c9146103425780633ba8b3ff1461037f57806356be1658146103a857806357e2ef10146103e55780635d6e505214610422578063715018a61461044b5780638da5cb5b146104625780638f32d59b1461048d5780639209416a146104b857806394845254146104f7578063bbc893a314610520578063da58c7d91461055d578063f2fde38b1461059d578063f7590065146105c6578063f8c70571146105ef575b600080fd5b34801561014f57600080fd5b5061016a6004803603610165919081019061146d565b61062f565b60405161017791906117d9565b60405180910390f35b34801561018c57600080fd5b506101a760048036036101a2919081019061146d565b610647565b6040516101b693929190611839565b60405180910390f35b3480156101cb57600080fd5b506101e660048036036101e19190810190611521565b610671565b005b3480156101f457600080fd5b5061020f600480360361020a919081019061146d565b610700565b60405161021c91906117d9565b60405180910390f35b34801561023157600080fd5b5061024c6004803603610247919081019061146d565b610718565b60405161025991906117d9565b60405180910390f35b34801561026e57600080fd5b506102896004803603610284919081019061146d565b61073b565b6040516102969190611781565b60405180910390f35b3480156102ab57600080fd5b506102c660048036036102c19190810190611496565b61086a565b6040516102d391906117be565b60405180910390f35b3480156102e857600080fd5b5061030360048036036102fe919081019061146d565b6108eb565b60405161031091906117d9565b60405180910390f35b34801561032557600080fd5b50610340600480360361033b9190810190611496565b610914565b005b34801561034e57600080fd5b506103696004803603610364919081019061146d565b610a62565b60405161037691906117d9565b60405180910390f35b34801561038b57600080fd5b506103a660048036036103a191908101906114d2565b610a7a565b005b3480156103b457600080fd5b506103cf60048036036103ca919081019061146d565b610c15565b6040516103dc91906117d9565b60405180910390f35b3480156103f157600080fd5b5061040c6004803603610407919081019061146d565b610c2d565b60405161041991906117d9565b60405180910390f35b34801561042e57600080fd5b5061044960048036036104449190810190611496565b610c4b565b005b34801561045757600080fd5b50610460610d5b565b005b34801561046e57600080fd5b50610477610e2d565b6040516104849190611744565b60405180910390f35b34801561049957600080fd5b506104a2610e56565b6040516104af91906117a3565b60405180910390f35b3480156104c457600080fd5b506104df60048036036104da919081019061146d565b610ead565b6040516104ee93929190611839565b60405180910390f35b34801561050357600080fd5b5061051e6004803603610519919081019061146d565b610ee6565b005b34801561052c57600080fd5b5061054760048036036105429190810190611496565b610f28565b604051610554919061175f565b60405180910390f35b34801561056957600080fd5b50610584600480360361057f919081019061146d565b61105f565b60405161059494939291906117f4565b60405180910390f35b3480156105a957600080fd5b506105c460048036036105bf9190810190611444565b6110fc565b005b3480156105d257600080fd5b506105ed60048036036105e89190810190611521565b61111b565b005b3480156105fb57600080fd5b506106166004803603610611919081019061146d565b6111cb565b60405161062694939291906117f4565b60405180910390f35b60076020528060005260406000206000915090505481565b60036020528060005260406000206000915090508060000154908060010154908060020154905083565b8060008090505b600b805490508110156106f95781600b8281548110151561069557fe5b906000526020600020015414156106e65783600560008781526020019081526020016000208190555060066000858152602001908152602001600020600081548092919060010191905055506106eb565b6106ec565b5b8080600101915050610678565b5050505050565b60056020528060005260406000206000915090505481565b600b8181548110151561072757fe5b906000526020600020016000915090505481565b60608160008090505b600b805490508110156108635781600b8281548110151561076157fe5b90600052602060002001541415610850576060600a805490506040519080825280602002602001820160405280156107b357816020015b6107a0611353565b8152602001906001900390816107985790505b509050600080905060008090505b600a8054905081101561084557600a818154811015156107dd57fe5b9060005260206000209060030201606060405190810160405290816000820154815260200160018201548152602001600282015481525050838381518110151561082357fe5b90602001906020020181905250818060010192505080806001019150506107c1565b508194505050610855565b610856565b5b8080600101915050610744565b5050919050565b610872611375565b81600060016000838152602001908152602001600020600001541415151561089957600080fd5b6108a1611375565b600360008681526020019081526020016000206060604051908101604052908160008201548152602001600182015481526020016002820154815250509050809250505092915050565b6009818154811015156108fa57fe5b906000526020600020016000915090508060000154905081565b8060008090505b600b80549050811015610a5c5781600b8281548110151561093857fe5b90600052602060002001541415610a495760006001600a606060405190810160405280888152602001600081526020016000815250908060018154018082558091505090600182039060005260206000209060030201600090919290919091506000820151816000015560208201518160010155604082015181600201555050039050600a818154811015156109ca57fe5b9060005260206000209060030201600360008781526020019081526020016000206000820154816000015560018201548160010155600282015481600201559050507f21db1a92fb8efb483c22a581ee7e282b6d79d9d43b559ee1affa34181886796985604051610a3b91906117d9565b60405180910390a150610a4e565b610a4f565b5b808060010191505061091b565b50505050565b60066020528060005260406000206000915090505481565b826000600160008381526020019081526020016000206000015414151515610aa157600080fd5b60056000848152602001908152602001600020546001600086815260200190815260200160002060010154141515610ad857600080fd5b610ae0611397565b600160008681526020019081526020016000206080604051908101604052908160008201548152602001600182015481526020016002820160009054906101000a900460ff16151515158152602001600382016060604051908101604052908160008201548152602001600182015481526020016002820160009054906101000a900467ffffffffffffffff1667ffffffffffffffff1667ffffffffffffffff16815250508152505090506001816040019015159081151581525050836004600083606001516000015181526020019081526020016000208190555060076000858152602001908152602001600020600081548092919060010191905055508284867f612c500cbd8f1ed8a4643cbf6b41fda92203645d7e4f7c3a237a1be69565ea2c60405160405180910390a45050505050565b60046020528060005260406000206000915090505481565b60026020528060005260406000206000915090508060000154905081565b8060008090505b600b80549050811015610d555781600b82815481101515610c6f57fe5b90600052602060002001541415610d425760006001600960206040519081016040528088815250908060018154018082558091505090600182039060005260206000200160009091929091909150600082015181600001555050039050600981815481101515610cdb57fe5b9060005260206000200160026000878152602001908152602001600020600082015481600001559050507f43dcee486fabffa2fb551555bfaa5bfcf6a42f2d014032ccef94bf09d83855eb85604051610d3491906117d9565b60405180910390a150610d47565b610d48565b5b8080600101915050610c52565b50505050565b610d63610e56565b1515610d6e57600080fd5b600073ffffffffffffffffffffffffffffffffffffffff166000809054906101000a900473ffffffffffffffffffffffffffffffffffffffff1673ffffffffffffffffffffffffffffffffffffffff167f8be0079c531659141344cd1fd0a4f28419497f9722a3daafe3b4186f6b6457e060405160405180910390a360008060006101000a81548173ffffffffffffffffffffffffffffffffffffffff021916908373ffffffffffffffffffffffffffffffffffffffff160217905550565b60008060009054906101000a900473ffffffffffffffffffffffffffffffffffffffff16905090565b60008060009054906101000a900473ffffffffffffffffffffffffffffffffffffffff1673ffffffffffffffffffffffffffffffffffffffff163373ffffffffffffffffffffffffffffffffffffffff1614905090565b600a81815481101515610ebc57fe5b90600052602060002090600302016000915090508060000154908060010154908060020154905083565b610eee610e56565b1515610ef957600080fd5b600b81908060018154018082558091505090600182039060005260206000200160009091929091909150555050565b6060816000600160008381526020019081526020016000206000015414151515610f5157600080fd5b60606006600086815260200190815260200160002054604051908082528060200260200182016040528015610fa057816020015b610f8d6113c8565b815260200190600190039081610f855790505b509050600080905060008090505b600980549050811015611052578660056000600984815481101515610fcf57fe5b906000526020600020016000015481526020019081526020016000205414156110455760098181548110151561100157fe5b9060005260206000200160206040519081016040529081600082015481525050838381518110151561102f57fe5b9060200190602002018190525081806001019250505b8080600101915050610fae565b5081935050505092915050565b60088181548110151561106e57fe5b90600052602060002090600602016000915090508060000154908060010154908060020160009054906101000a900460ff1690806003016060604051908101604052908160008201548152602001600182015481526020016002820160009054906101000a900467ffffffffffffffff1667ffffffffffffffff1667ffffffffffffffff1681525050905084565b611104610e56565b151561110f57600080fd5b61111881611259565b50565b8060008090505b600b805490508110156111c45781600b8281548110151561113f57fe5b906000526020600020015414156111b157611158611375565b6003600087815260200190815260200160002060606040519081016040529081600082015481526020016001820154815260200160028201548152505090504281602001818152505084816040018181525050506111b6565b6111b7565b5b8080600101915050611122565b5050505050565b60016020528060005260406000206000915090508060000154908060010154908060020160009054906101000a900460ff1690806003016060604051908101604052908160008201548152602001600182015481526020016002820160009054906101000a900467ffffffffffffffff1667ffffffffffffffff1667ffffffffffffffff1681525050905084565b600073ffffffffffffffffffffffffffffffffffffffff168173ffffffffffffffffffffffffffffffffffffffff161415151561129557600080fd5b8073ffffffffffffffffffffffffffffffffffffffff166000809054906101000a900473ffffffffffffffffffffffffffffffffffffffff1673ffffffffffffffffffffffffffffffffffffffff167f8be0079c531659141344cd1fd0a4f28419497f9722a3daafe3b4186f6b6457e060405160405180910390a3806000806101000a81548173ffffffffffffffffffffffffffffffffffffffff021916908373ffffffffffffffffffffffffffffffffffffffff16021790555050565b6060604051908101604052806000815260200160008152602001600081525090565b6060604051908101604052806000815260200160008152602001600081525090565b60c06040519081016040528060008152602001600081526020016000151581526020016113c26113dc565b81525090565b602060405190810160405280600081525090565b6060604051908101604052806000815260200160008152602001600067ffffffffffffffff1681525090565b60006114148235611916565b905092915050565b60006114288235611928565b905092915050565b600061143c8235611932565b905092915050565b60006020828403121561145657600080fd5b600061146484828501611408565b91505092915050565b60006020828403121561147f57600080fd5b600061148d84828501611430565b91505092915050565b600080604083850312156114a957600080fd5b60006114b785828601611430565b92505060206114c885828601611430565b9150509250929050565b6000806000606084860312156114e757600080fd5b60006114f586828701611430565b935050602061150686828701611430565b92505060406115178682870161141c565b9150509250925092565b60008060006060848603121561153657600080fd5b600061154486828701611430565b935050602061155586828701611430565b925050604061156686828701611430565b9150509250925092565b611579816118ba565b82525050565b600061158a8261188a565b80845260208401935061159c83611870565b60005b828110156115ce576115b2868351611644565b6115bb826118a0565b915060208601955060018101905061159f565b50849250505092915050565b60006115e582611895565b8084526020840193506115f78361187d565b60005b828110156116295761160d8683516116a2565b611616826118ad565b91506060860195506001810190506115fa565b50849250505092915050565b61163e816118cc565b82525050565b60208201600082015161165a6000850182611726565b50505050565b6060820160008201516116766000850182611726565b5060208201516116896020850182611726565b50604082015161169c6040850182611726565b50505050565b6060820160008201516116b86000850182611726565b5060208201516116cb6020850182611726565b5060408201516116de6040850182611726565b50505050565b6060820160008201516116fa6000850182611726565b50602082015161170d6020850182611726565b5060408201516117206040850182611735565b50505050565b61172f816118f8565b82525050565b61173e81611902565b82525050565b60006020820190506117596000830184611570565b92915050565b60006020820190508181036000830152611779818461157f565b905092915050565b6000602082019050818103600083015261179b81846115da565b905092915050565b60006020820190506117b86000830184611635565b92915050565b60006060820190506117d36000830184611660565b92915050565b60006020820190506117ee6000830184611726565b92915050565b600060c0820190506118096000830187611726565b6118166020830186611726565b6118236040830185611635565b61183060608301846116e4565b95945050505050565b600060608201905061184e6000830186611726565b61185b6020830185611726565b6118686040830184611726565b949350505050565b6000602082019050919050565b6000602082019050919050565b600081519050919050565b600081519050919050565b6000602082019050919050565b6000602082019050919050565b60006118c5826118d8565b9050919050565b60008115159050919050565b600073ffffffffffffffffffffffffffffffffffffffff82169050919050565b6000819050919050565b600067ffffffffffffffff82169050919050565b6000611921826118d8565b9050919050565b6000819050919050565b600081905091905056fea265627a7a7230582066e6f3266002662ca94f9d6df674117919825ab40547f9f4e3916e9b07613a2e6c6578706572696d656e74616cf50037",
  "source": "pragma solidity ^0.5.0;\npragma experimental ABIEncoderV2;\nimport \"./ElectionHelper.sol\";\n\ncontract VotingTransactions is ElectionHelper {\n    event Transfer(uint256 indexed _from, uint256 indexed _to, bytes32 indexed _tokenId);\n\n    // function ownerOf(uint256 tokenId) public view returns (address) {\n    //     address owner = _tokenOwner[tokenId];\n    //     require(owner != address(0), \"ERC721: owner query for nonexistent token\");\n\n    //     return owner;\n    // }\n\n    function transferFrom(uint256 from, uint256 to, bytes32 tokenId) public onlyUser(from) {\n        require(idToVoter[from]._constituencyId == candidateToConstituency[to]);\n        Voter memory voter = idToVoter[from];\n        voter._hasVoted = true;\n        voteToCandidate[voter._vote._voteId] = to;\n        candidateVoteCount[to]++;\n        emit Transfer(from, to, tokenId);\n    }\n\n    function _transferredTo(uint256 _id, uint256 _userId) private view onlyUser(_userId) returns(Candidate memory) {\n        uint256 candidateId = voteToCandidate[_id];\n        Candidate memory candidate = idToCandidate[candidateId];\n        return candidate;\n    }\n}",
  "sourcePath": "/home/d3mon/Projects/sudo-rm--rf/contracts/VotingTransactions.sol",
  "compiler": {
    "name": "solc",
    "version": "0.5.0+commit.1d4f565a.Emscripten.clang"
  },
  "schemaVersion": "3.0.2",
  "updatedAt": "2020-01-25T14:01:48.947Z",
  "devdoc": {
    "methods": {
      "isOwner()": {
        "return": "true if `msg.sender` is the owner of the contract."
      },
      "owner()": {
        "return": "the address of the owner."
      },
      "renounceOwnership()": {
        "details": "Allows the current owner to relinquish control of the contract."
      },
      "transferOwnership(address)": {
        "details": "Allows the current owner to transfer control of the contract to a newOwner.",
        "params": {
          "newOwner": "The address to transfer ownership to."
        }
      }
    }
  },
  "userdoc": {
    "methods": {
      "renounceOwnership()": {
        "notice": "Renouncing to ownership will leave the contract without an owner. It will not be possible to call the functions with the `onlyOwner` modifier anymore."
      }
    }
  }
}