{
  "contractName": "VotingTransactions",
  "abi": [
    {
      "constant": false,
      "inputs": [
        {
          "name": "_id",
          "type": "uint256"
        }
      ],
      "name": "registerCandidate",
      "outputs": [],
      "payable": false,
      "stateMutability": "nonpayable",
      "type": "function"
    },
    {
      "constant": false,
      "inputs": [
        {
          "name": "_id",
          "type": "uint256"
        }
      ],
      "name": "registerConstituency",
      "outputs": [],
      "payable": false,
      "stateMutability": "nonpayable",
      "type": "function"
    },
    {
      "constant": true,
      "inputs": [
        {
          "name": "",
          "type": "uint256"
        }
      ],
      "name": "candidates",
      "outputs": [
        {
          "name": "_id",
          "type": "uint256"
        }
      ],
      "payable": false,
      "stateMutability": "view",
      "type": "function"
    },
    {
      "constant": true,
      "inputs": [
        {
          "name": "",
          "type": "uint256"
        }
      ],
      "name": "constituencies",
      "outputs": [
        {
          "name": "_id",
          "type": "uint256"
        },
        {
          "name": "_startTime",
          "type": "uint256"
        },
        {
          "name": "_duration",
          "type": "uint256"
        }
      ],
      "payable": false,
      "stateMutability": "view",
      "type": "function"
    },
    {
      "constant": false,
      "inputs": [
        {
          "name": "_id",
          "type": "uint256"
        },
        {
          "name": "_constituencyId",
          "type": "uint256"
        }
      ],
      "name": "assignCandidateToConstituency",
      "outputs": [],
      "payable": false,
      "stateMutability": "nonpayable",
      "type": "function"
    },
    {
      "constant": false,
      "inputs": [
        {
          "name": "_id",
          "type": "uint256"
        },
        {
          "name": "_duration",
          "type": "uint256"
        }
      ],
      "name": "generateElectionforConstituency",
      "outputs": [],
      "payable": false,
      "stateMutability": "nonpayable",
      "type": "function"
    },
    {
      "constant": true,
      "inputs": [
        {
          "name": "",
          "type": "uint256"
        }
      ],
      "name": "voters",
      "outputs": [
        {
          "name": "_id",
          "type": "uint256"
        },
        {
          "name": "_constituencyId",
          "type": "uint256"
        },
        {
          "name": "_hasVoted",
          "type": "bool"
        },
        {
          "components": [
            {
              "name": "_voteId",
              "type": "bytes32"
            },
            {
              "name": "_votedId",
              "type": "uint256"
            },
            {
              "name": "_voteTime",
              "type": "uint64"
            }
          ],
          "name": "_vote",
          "type": "tuple"
        }
      ],
      "payable": false,
      "stateMutability": "view",
      "type": "function"
    },
    {
      "constant": true,
      "inputs": [
        {
          "name": "_constituencyId",
          "type": "uint256"
        }
      ],
      "name": "getCandidatesByConstituency",
      "outputs": [
        {
          "components": [
            {
              "name": "_id",
              "type": "uint256"
            }
          ],
          "name": "",
          "type": "tuple[]"
        }
      ],
      "payable": false,
      "stateMutability": "view",
      "type": "function"
    },
    {
      "anonymous": false,
      "inputs": [
        {
          "indexed": true,
          "name": "_from",
          "type": "uint256"
        },
        {
          "indexed": true,
          "name": "_to",
          "type": "uint256"
        },
        {
          "indexed": true,
          "name": "_tokenId",
          "type": "bytes32"
        }
      ],
      "name": "Transfer",
      "type": "event"
    },
    {
      "anonymous": false,
      "inputs": [
        {
          "indexed": false,
          "name": "_id",
          "type": "uint256"
        },
        {
          "indexed": false,
          "name": "_voterId",
          "type": "uint256"
        }
      ],
      "name": "VoterCreated",
      "type": "event"
    },
    {
      "anonymous": false,
      "inputs": [
        {
          "indexed": false,
          "name": "_id",
          "type": "uint256"
        }
      ],
      "name": "CandidateRegistered",
      "type": "event"
    },
    {
      "anonymous": false,
      "inputs": [
        {
          "indexed": false,
          "name": "_id",
          "type": "uint256"
        }
      ],
      "name": "ConstituencyRegistered",
      "type": "event"
    },
    {
      "constant": false,
      "inputs": [
        {
          "name": "from",
          "type": "uint256"
        },
        {
          "name": "to",
          "type": "uint256"
        },
        {
          "name": "tokenId",
          "type": "bytes32"
        }
      ],
      "name": "transferFrom",
      "outputs": [],
      "payable": false,
      "stateMutability": "nonpayable",
      "type": "function"
    }
  ],
  "bytecode": "0x608060405260405180606001604052806000801b815260200160008152602001600067ffffffffffffffff1681525060008082015181600001556020820151816001015560408201518160020160006101000a81548167ffffffffffffffff021916908367ffffffffffffffff160217905550505034801561008057600080fd5b50610bc4806100906000396000f3fe608060405234801561001057600080fd5b50600436106100935760003560e01c80639209416a116100665780639209416a1461011c578063c50eff0c1461014e578063d59d48d41461016a578063da58c7d914610186578063f9ed8067146101b957610093565b80630b2a85ea14610098578063233f0114146100b45780633477ee2e146100d05780633ba8b3ff14610100575b600080fd5b6100b260048036036100ad9190810190610866565b6101e9565b005b6100ce60048036036100c99190810190610866565b6102a6565b005b6100ea60048036036100e59190810190610866565b6103a1565b6040516100f79190610a5b565b60405180910390f35b61011a600480360361011591908101906108cb565b6103c8565b005b61013660048036036101319190810190610866565b610537565b60405161014593929190610abb565b60405180910390f35b6101686004803603610163919081019061088f565b61056e565b005b610184600480360361017f919081019061088f565b6105ad565b005b6101a0600480360361019b9190810190610866565b61060c565b6040516101b09493929190610a76565b60405180910390f35b6101d360048036036101ce9190810190610866565b6106a6565b6040516101e09190610a39565b60405180910390f35b60006001600b604051806020016040528085815250908060018154018082558091505090600182039060005260206000200160009091929091909150600082015181600001555050039050600b818154811061024157fe5b9060005260206000200160046000848152602001908152602001600020600082015481600001559050507f43dcee486fabffa2fb551555bfaa5bfcf6a42f2d014032ccef94bf09d83855eb8260405161029a9190610a5b565b60405180910390a15050565b60006001600c6040518060600160405280858152602001600081526020016000815250908060018154018082558091505090600182039060005260206000209060030201600090919290919091506000820151816000015560208201518160010155604082015181600201555050039050600c818154811061032457fe5b9060005260206000209060030201600560008481526020019081526020016000206000820154816000015560018201548160010155600282015481600201559050507f21db1a92fb8efb483c22a581ee7e282b6d79d9d43b559ee1affa341818867969826040516103959190610a5b565b60405180910390a15050565b600b81815481106103ae57fe5b906000526020600020016000915090508060000154905081565b60076000838152602001908152602001600020546003600085815260200190815260200160002060010154146103fd57600080fd5b6104056107aa565b6003600085815260200190815260200160002060405180608001604052908160008201548152602001600182015481526020016002820160009054906101000a900460ff161515151581526020016003820160405180606001604052908160008201548152602001600182015481526020016002820160009054906101000a900467ffffffffffffffff1667ffffffffffffffff1667ffffffffffffffff16815250508152505090506001816040019015159081151581525050826006600083606001516000015181526020019081526020016000208190555060096000848152602001908152602001600020600081548092919060010191905055508183857f612c500cbd8f1ed8a4643cbf6b41fda92203645d7e4f7c3a237a1be69565ea2c60405160405180910390a450505050565b600c818154811061054457fe5b90600052602060002090600302016000915090508060000154908060010154908060020154905083565b80600760008481526020019081526020016000208190555060086000828152602001908152602001600020600081548092919060010191905055505050565b6105b56107da565b60056000848152602001908152602001600020604051806060016040529081600082015481526020016001820154815260200160028201548152505090504281602001818152505081816040018181525050505050565b600a818154811061061957fe5b90600052602060002090600602016000915090508060000154908060010154908060020160009054906101000a900460ff16908060030160405180606001604052908160008201548152602001600182015481526020016002820160009054906101000a900467ffffffffffffffff1667ffffffffffffffff1667ffffffffffffffff1681525050905084565b60608060086000848152602001908152602001600020546040519080825280602002602001820160405280156106f657816020015b6106e36107fb565b8152602001906001900390816106db5790505b509050600080905060008090505b600b8054905081101561079f578460076000600b848154811061072357fe5b9060005260206000200160000154815260200190815260200160002054141561079257600b818154811061075357fe5b9060005260206000200160405180602001604052908160008201548152505083838151811061077e57fe5b602002602001018190525081806001019250505b8080600101915050610704565b508192505050919050565b6040518060c0016040528060008152602001600081526020016000151581526020016107d461080e565b81525090565b60405180606001604052806000815260200160008152602001600081525090565b6040518060200160405280600081525090565b60405180606001604052806000801916815260200160008152602001600067ffffffffffffffff1681525090565b60008135905061084b81610b5c565b92915050565b60008135905061086081610b73565b92915050565b60006020828403121561087857600080fd5b600061088684828501610851565b91505092915050565b600080604083850312156108a257600080fd5b60006108b085828601610851565b92505060206108c185828601610851565b9150509250929050565b6000806000606084860312156108e057600080fd5b60006108ee86828701610851565b93505060206108ff86828701610851565b92505060406109108682870161083c565b9150509250925092565b600061092683836109ae565b60208301905092915050565b600061093d82610aff565b6109478185610b17565b935061095283610af2565b8060005b8381101561098357815161096a888261091a565b975061097583610b0a565b925050600181019050610956565b5085935050505092915050565b61099981610b28565b82525050565b6109a881610b34565b82525050565b6020820160008201516109c46000850182610a0c565b50505050565b6060820160008201516109e0600085018261099f565b5060208201516109f36020850182610a0c565b506040820151610a066040850182610a2a565b50505050565b610a1581610b3e565b82525050565b610a2481610b3e565b82525050565b610a3381610b48565b82525050565b60006020820190508181036000830152610a538184610932565b905092915050565b6000602082019050610a706000830184610a1b565b92915050565b600060c082019050610a8b6000830187610a1b565b610a986020830186610a1b565b610aa56040830185610990565b610ab260608301846109ca565b95945050505050565b6000606082019050610ad06000830186610a1b565b610add6020830185610a1b565b610aea6040830184610a1b565b949350505050565b6000602082019050919050565b600081519050919050565b6000602082019050919050565b600082825260208201905092915050565b60008115159050919050565b6000819050919050565b6000819050919050565b600067ffffffffffffffff82169050919050565b610b6581610b34565b8114610b7057600080fd5b50565b610b7c81610b3e565b8114610b8757600080fd5b5056fea265627a7a7230582077537712879ed266bf857d51e706ad44096b7eb491ab0eeb72bc3f1af00b3b8f6c6578706572696d656e74616cf50037",
  "source": "pragma solidity ^0.5.0;\npragma experimental ABIEncoderV2;\nimport \"./ElectionHelper.sol\";\n\ncontract VotingTransactions is ElectionHelper {\n    event Transfer(uint256 indexed _from, uint256 indexed _to, bytes32 indexed _tokenId);\n\n    // function ownerOf(uint256 tokenId) public view returns (address) {\n    //     address owner = _tokenOwner[tokenId];\n    //     require(owner != address(0), \"ERC721: owner query for nonexistent token\");\n\n    //     return owner;\n    // }\n\n    function transferFrom(uint256 from, uint256 to, bytes32 tokenId) public {\n        require(idToVoter[from]._constituencyId == candidateToConstituency[to]);\n        Voter memory voter = idToVoter[from];\n        voter._hasVoted = true;\n        voteToCandidate[voter._vote._voteId] = to;\n        candidateVoteCount[to]++;\n        emit Transfer(from, to, tokenId);\n    }\n\n    function _transferredTo(bytes32 _id) private view returns (Candidate memory) {\n        uint256 candidateId = voteToCandidate[_id];\n        Candidate memory candidate = idToCandidate[candidateId];\n        return candidate;\n    }\n}",
  "sourcePath": "/home/d3mon/Projects/sudo-rm--rf/contracts/VotingTransactions.sol",
  "compiler": {
    "name": "solc",
    "version": "0.5.8+commit.23d335f2.Emscripten.clang"
  },
  "schemaVersion": "3.0.11",
  "updatedAt": "2019-08-18T10:40:24.958Z",
  "devdoc": {
    "methods": {}
  },
  "userdoc": {
    "methods": {}
  }
}