{
  "contractName": "VotingTransactions",
  "abi": [
    {
      "constant": false,
      "inputs": [
        {
          "name": "_id",
          "type": "uint256"
        },
        {
          "name": "_constituencyId",
          "type": "uint256"
        },
        {
          "name": "_adminId",
          "type": "uint256"
        }
      ],
      "name": "assignCandidateToConstituency",
      "outputs": [],
      "payable": false,
      "stateMutability": "nonpayable",
      "type": "function"
    },
    {
      "constant": true,
      "inputs": [
        {
          "name": "",
          "type": "uint256"
        }
      ],
      "name": "admins",
      "outputs": [
        {
          "name": "",
          "type": "uint256"
        }
      ],
      "payable": false,
      "stateMutability": "view",
      "type": "function"
    },
    {
      "constant": false,
      "inputs": [
        {
          "name": "_adminId",
          "type": "uint256"
        }
      ],
      "name": "getConstituencies",
      "outputs": [
        {
          "components": [
            {
              "name": "_id",
              "type": "uint256"
            },
            {
              "name": "_startTime",
              "type": "uint256"
            },
            {
              "name": "_duration",
              "type": "uint256"
            }
          ],
          "name": "",
          "type": "tuple[]"
        }
      ],
      "payable": false,
      "stateMutability": "nonpayable",
      "type": "function"
    },
    {
      "constant": false,
      "inputs": [
        {
          "name": "_id",
          "type": "uint256"
        },
        {
          "name": "_userId",
          "type": "uint256"
        }
      ],
      "name": "getConstituencyDetails",
      "outputs": [
        {
          "components": [
            {
              "name": "_id",
              "type": "uint256"
            },
            {
              "name": "_startTime",
              "type": "uint256"
            },
            {
              "name": "_duration",
              "type": "uint256"
            }
          ],
          "name": "",
          "type": "tuple"
        }
      ],
      "payable": false,
      "stateMutability": "nonpayable",
      "type": "function"
    },
    {
      "constant": true,
      "inputs": [
        {
          "name": "",
          "type": "uint256"
        }
      ],
      "name": "candidates",
      "outputs": [
        {
          "name": "_id",
          "type": "uint256"
        }
      ],
      "payable": false,
      "stateMutability": "view",
      "type": "function"
    },
    {
      "constant": false,
      "inputs": [
        {
          "name": "_id",
          "type": "uint256"
        },
        {
          "name": "_adminId",
          "type": "uint256"
        }
      ],
      "name": "registerConstituency",
      "outputs": [],
      "payable": false,
      "stateMutability": "nonpayable",
      "type": "function"
    },
    {
      "constant": false,
      "inputs": [
        {
          "name": "_id",
          "type": "uint256"
        },
        {
          "name": "_adminId",
          "type": "uint256"
        }
      ],
      "name": "registerCandidate",
      "outputs": [],
      "payable": false,
      "stateMutability": "nonpayable",
      "type": "function"
    },
    {
      "constant": false,
      "inputs": [],
      "name": "renounceOwnership",
      "outputs": [],
      "payable": false,
      "stateMutability": "nonpayable",
      "type": "function"
    },
    {
      "constant": true,
      "inputs": [],
      "name": "owner",
      "outputs": [
        {
          "name": "",
          "type": "address"
        }
      ],
      "payable": false,
      "stateMutability": "view",
      "type": "function"
    },
    {
      "constant": true,
      "inputs": [],
      "name": "isOwner",
      "outputs": [
        {
          "name": "",
          "type": "bool"
        }
      ],
      "payable": false,
      "stateMutability": "view",
      "type": "function"
    },
    {
      "constant": true,
      "inputs": [
        {
          "name": "",
          "type": "uint256"
        }
      ],
      "name": "constituencies",
      "outputs": [
        {
          "name": "_id",
          "type": "uint256"
        },
        {
          "name": "_startTime",
          "type": "uint256"
        },
        {
          "name": "_duration",
          "type": "uint256"
        }
      ],
      "payable": false,
      "stateMutability": "view",
      "type": "function"
    },
    {
      "constant": false,
      "inputs": [
        {
          "name": "_id",
          "type": "uint256"
        }
      ],
      "name": "registerAdmin",
      "outputs": [],
      "payable": false,
      "stateMutability": "nonpayable",
      "type": "function"
    },
    {
      "constant": true,
      "inputs": [
        {
          "name": "_constituencyId",
          "type": "uint256"
        },
        {
          "name": "_userId",
          "type": "uint256"
        }
      ],
      "name": "getCandidatesByConstituency",
      "outputs": [
        {
          "components": [
            {
              "name": "_id",
              "type": "uint256"
            }
          ],
          "name": "",
          "type": "tuple[]"
        }
      ],
      "payable": false,
      "stateMutability": "view",
      "type": "function"
    },
    {
      "constant": true,
      "inputs": [
        {
          "name": "",
          "type": "uint256"
        }
      ],
      "name": "voters",
      "outputs": [
        {
          "name": "_id",
          "type": "uint256"
        },
        {
          "name": "_constituencyId",
          "type": "uint256"
        },
        {
          "name": "_hasVoted",
          "type": "bool"
        },
        {
          "components": [
            {
              "name": "_voteId",
              "type": "bytes32"
            },
            {
              "name": "_votedId",
              "type": "uint256"
            },
            {
              "name": "_voteTime",
              "type": "uint64"
            }
          ],
          "name": "_vote",
          "type": "tuple"
        }
      ],
      "payable": false,
      "stateMutability": "view",
      "type": "function"
    },
    {
      "constant": false,
      "inputs": [
        {
          "name": "newOwner",
          "type": "address"
        }
      ],
      "name": "transferOwnership",
      "outputs": [],
      "payable": false,
      "stateMutability": "nonpayable",
      "type": "function"
    },
    {
      "constant": false,
      "inputs": [
        {
          "name": "_id",
          "type": "uint256"
        },
        {
          "name": "_duration",
          "type": "uint256"
        },
        {
          "name": "_adminId",
          "type": "uint256"
        }
      ],
      "name": "generateElectionforConstituency",
      "outputs": [],
      "payable": false,
      "stateMutability": "nonpayable",
      "type": "function"
    },
    {
      "anonymous": false,
      "inputs": [
        {
          "indexed": true,
          "name": "_from",
          "type": "uint256"
        },
        {
          "indexed": true,
          "name": "_to",
          "type": "uint256"
        },
        {
          "indexed": true,
          "name": "_tokenId",
          "type": "bytes32"
        }
      ],
      "name": "Transfer",
      "type": "event"
    },
    {
      "anonymous": false,
      "inputs": [
        {
          "indexed": false,
          "name": "_id",
          "type": "uint256"
        },
        {
          "indexed": false,
          "name": "_voterId",
          "type": "uint256"
        }
      ],
      "name": "VoterCreated",
      "type": "event"
    },
    {
      "anonymous": false,
      "inputs": [
        {
          "indexed": false,
          "name": "_id",
          "type": "uint256"
        }
      ],
      "name": "CandidateRegistered",
      "type": "event"
    },
    {
      "anonymous": false,
      "inputs": [
        {
          "indexed": false,
          "name": "_id",
          "type": "uint256"
        }
      ],
      "name": "ConstituencyRegistered",
      "type": "event"
    },
    {
      "anonymous": false,
      "inputs": [
        {
          "indexed": true,
          "name": "previousOwner",
          "type": "address"
        },
        {
          "indexed": true,
          "name": "newOwner",
          "type": "address"
        }
      ],
      "name": "OwnershipTransferred",
      "type": "event"
    },
    {
      "constant": false,
      "inputs": [
        {
          "name": "from",
          "type": "uint256"
        },
        {
          "name": "to",
          "type": "uint256"
        },
        {
          "name": "tokenId",
          "type": "bytes32"
        }
      ],
      "name": "transferFrom",
      "outputs": [],
      "payable": false,
      "stateMutability": "nonpayable",
      "type": "function"
    }
  ],
  "bytecode": "0x608060405260405180606001604052806000801b815260200160008152602001600067ffffffffffffffff168152506001600082015181600001556020820151816001015560408201518160020160006101000a81548167ffffffffffffffff021916908367ffffffffffffffff16021790555050506000600460006101000a81548160ff021916908315150217905550336000806101000a81548173ffffffffffffffffffffffffffffffffffffffff021916908373ffffffffffffffffffffffffffffffffffffffff1602179055506000809054906101000a900473ffffffffffffffffffffffffffffffffffffffff1673ffffffffffffffffffffffffffffffffffffffff16600073ffffffffffffffffffffffffffffffffffffffff167f8be0079c531659141344cd1fd0a4f28419497f9722a3daafe3b4186f6b6457e060405160405180910390a36115688061015b6000396000f3fe608060405234801561001057600080fd5b506004361061010b5760003560e01c8063715018a6116100a2578063948452541161007157806394845254146102b8578063bbc893a3146102d4578063da58c7d914610304578063f2fde38b14610337578063f7590065146103535761010b565b8063715018a6146102405780638da5cb5b1461024a5780638f32d59b146102685780639209416a146102865761010b565b80633477ee2e116100de5780633477ee2e146101bc5780633acab52f146101ec5780633ba8b3ff146102085780635d6e5052146102245761010b565b806312d51c721461011057806314bfd6d01461012c578063289752101461015c5780632fd23a3f1461018c575b600080fd5b61012a60048036036101259190810190611074565b61036f565b005b61014660048036036101419190810190610fc0565b6103fc565b6040516101539190611380565b60405180910390f35b61017660048036036101719190810190610fc0565b61041d565b6040516101839190611328565b60405180910390f35b6101a660048036036101a19190810190610fe9565b6104e9565b6040516101b39190611365565b60405180910390f35b6101d660048036036101d19190810190610fc0565b610567565b6040516101e39190611380565b60405180910390f35b61020660048036036102019190810190610fe9565b61058e565b005b610222600480360361021d9190810190611025565b6106d7565b005b61023e60048036036102399190810190610fe9565b61086c565b005b610248610977565b005b610252610a47565b60405161025f91906112eb565b60405180910390f35b610270610a70565b60405161027d919061134a565b60405180910390f35b6102a0600480360361029b9190810190610fc0565b610ac7565b6040516102af939291906113e0565b60405180910390f35b6102d260048036036102cd9190810190610fc0565b610afe565b005b6102ee60048036036102e99190810190610fe9565b610b3e565b6040516102fb9190611306565b60405180910390f35b61031e60048036036103199190810190610fc0565b610c6a565b60405161032e949392919061139b565b60405180910390f35b610351600480360361034c9190810190610f97565b610d04565b005b61036d60048036036103689190810190611074565b610d21565b005b8060008090505b600f805490508110156103f55781600f828154811061039157fe5b906000526020600020015414156103e257836009600087815260200190815260200160002081905550600a6000858152602001908152602001600020600081548092919060010191905055506103e7565b6103e8565b5b8080600101915050610376565b5050505050565b600f818154811061040957fe5b906000526020600020016000915090505481565b60608160008090505b600f805490508110156104e25781600f828154811061044157fe5b906000526020600020015414156104cf57600e805480602002602001604051908101604052809291908181526020016000905b828210156104c45783829060005260206000209060030201604051806060016040529081600082015481526020016001820154815260200160028201548152505081526020019060010190610474565b5050505092506104d4565b6104d5565b5b8080600101915050610426565b5050919050565b6104f1610ec6565b8160006005600083815260200190815260200160002060000154141561051657600080fd5b61051e610ec6565b6007600086815260200190815260200160002060405180606001604052908160008201548152602001600182015481526020016002820154815250509050809250505092915050565b600d818154811061057457fe5b906000526020600020016000915090508060000154905081565b8060008090505b600f805490508110156106d15781600f82815481106105b057fe5b906000526020600020015414156106be5760006001600e6040518060600160405280888152602001600081526020016000815250908060018154018082558091505090600182039060005260206000209060030201600090919290919091506000820151816000015560208201518160010155604082015181600201555050039050600e818154811061063f57fe5b9060005260206000209060030201600760008781526020019081526020016000206000820154816000015560018201548160010155600282015481600201559050507f21db1a92fb8efb483c22a581ee7e282b6d79d9d43b559ee1affa341818867969856040516106b09190611380565b60405180910390a1506106c3565b6106c4565b5b8080600101915050610595565b50505050565b826000600560008381526020019081526020016000206000015414156106fc57600080fd5b600960008481526020019081526020016000205460056000868152602001908152602001600020600101541461073157600080fd5b610739610ee7565b6005600086815260200190815260200160002060405180608001604052908160008201548152602001600182015481526020016002820160009054906101000a900460ff161515151581526020016003820160405180606001604052908160008201548152602001600182015481526020016002820160009054906101000a900467ffffffffffffffff1667ffffffffffffffff1667ffffffffffffffff168152505081525050905060018160400190151590811515815250508360086000836060015160000151815260200190815260200160002081905550600b6000858152602001908152602001600020600081548092919060010191905055508284867f612c500cbd8f1ed8a4643cbf6b41fda92203645d7e4f7c3a237a1be69565ea2c60405160405180910390a45050505050565b8060008090505b600f805490508110156109715781600f828154811061088e57fe5b9060005260206000200154141561095e5760006001600d604051806020016040528088815250908060018154018082558091505090600182039060005260206000200160009091929091909150600082015181600001555050039050600d81815481106108f757fe5b9060005260206000200160066000878152602001908152602001600020600082015481600001559050507f43dcee486fabffa2fb551555bfaa5bfcf6a42f2d014032ccef94bf09d83855eb856040516109509190611380565b60405180910390a150610963565b610964565b5b8080600101915050610873565b50505050565b61097f610a70565b61098857600080fd5b600073ffffffffffffffffffffffffffffffffffffffff166000809054906101000a900473ffffffffffffffffffffffffffffffffffffffff1673ffffffffffffffffffffffffffffffffffffffff167f8be0079c531659141344cd1fd0a4f28419497f9722a3daafe3b4186f6b6457e060405160405180910390a360008060006101000a81548173ffffffffffffffffffffffffffffffffffffffff021916908373ffffffffffffffffffffffffffffffffffffffff160217905550565b60008060009054906101000a900473ffffffffffffffffffffffffffffffffffffffff16905090565b60008060009054906101000a900473ffffffffffffffffffffffffffffffffffffffff1673ffffffffffffffffffffffffffffffffffffffff163373ffffffffffffffffffffffffffffffffffffffff1614905090565b600e8181548110610ad457fe5b90600052602060002090600302016000915090508060000154908060010154908060020154905083565b610b06610a70565b610b0f57600080fd5b600f81908060018154018082558091505090600182039060005260206000200160009091929091909150555050565b606081600060056000838152602001908152602001600020600001541415610b6557600080fd5b6060600a600086815260200190815260200160002054604051908082528060200260200182016040528015610bb457816020015b610ba1610f17565b815260200190600190039081610b995790505b509050600080905060008090505b600d80549050811015610c5d578660096000600d8481548110610be157fe5b90600052602060002001600001548152602001908152602001600020541415610c5057600d8181548110610c1157fe5b90600052602060002001604051806020016040529081600082015481525050838381518110610c3c57fe5b602002602001018190525081806001019250505b8080600101915050610bc2565b5081935050505092915050565b600c8181548110610c7757fe5b90600052602060002090600602016000915090508060000154908060010154908060020160009054906101000a900460ff16908060030160405180606001604052908160008201548152602001600182015481526020016002820160009054906101000a900467ffffffffffffffff1667ffffffffffffffff1667ffffffffffffffff1681525050905084565b610d0c610a70565b610d1557600080fd5b610d1e81610dce565b50565b8060008090505b600f80549050811015610dc75781600f8281548110610d4357fe5b90600052602060002001541415610db457610d5c610ec6565b6007600087815260200190815260200160002060405180606001604052908160008201548152602001600182015481526020016002820154815250509050428160200181815250508481604001818152505050610db9565b610dba565b5b8080600101915050610d28565b5050505050565b600073ffffffffffffffffffffffffffffffffffffffff168173ffffffffffffffffffffffffffffffffffffffff161415610e0857600080fd5b8073ffffffffffffffffffffffffffffffffffffffff166000809054906101000a900473ffffffffffffffffffffffffffffffffffffffff1673ffffffffffffffffffffffffffffffffffffffff167f8be0079c531659141344cd1fd0a4f28419497f9722a3daafe3b4186f6b6457e060405160405180910390a3806000806101000a81548173ffffffffffffffffffffffffffffffffffffffff021916908373ffffffffffffffffffffffffffffffffffffffff16021790555050565b60405180606001604052806000815260200160008152602001600081525090565b6040518060c001604052806000815260200160008152602001600015158152602001610f11610f2a565b81525090565b6040518060200160405280600081525090565b60405180606001604052806000801916815260200160008152602001600067ffffffffffffffff1681525090565b600081359050610f67816114e9565b92915050565b600081359050610f7c81611500565b92915050565b600081359050610f9181611517565b92915050565b600060208284031215610fa957600080fd5b6000610fb784828501610f58565b91505092915050565b600060208284031215610fd257600080fd5b6000610fe084828501610f82565b91505092915050565b60008060408385031215610ffc57600080fd5b600061100a85828601610f82565b925050602061101b85828601610f82565b9150509250929050565b60008060006060848603121561103a57600080fd5b600061104886828701610f82565b935050602061105986828701610f82565b925050604061106a86828701610f6d565b9150509250925092565b60008060006060848603121561108957600080fd5b600061109786828701610f82565b93505060206110a886828701610f82565b92505060406110b986828701610f82565b9150509250925092565b60006110cf83836111dc565b60208301905092915050565b60006110e7838361123a565b60608301905092915050565b6110fc81611483565b82525050565b600061110d82611431565b6111178185611461565b935061112283611417565b8060005b8381101561115357815161113a88826110c3565b975061114583611447565b925050600181019050611126565b5085935050505092915050565b600061116b8261143c565b6111758185611472565b935061118083611424565b8060005b838110156111b157815161119888826110db565b97506111a383611454565b925050600181019050611184565b5085935050505092915050565b6111c781611495565b82525050565b6111d6816114a1565b82525050565b6020820160008201516111f260008501826112be565b50505050565b60608201600082015161120e60008501826112be565b50602082015161122160208501826112be565b50604082015161123460408501826112be565b50505050565b60608201600082015161125060008501826112be565b50602082015161126360208501826112be565b50604082015161127660408501826112be565b50505050565b60608201600082015161129260008501826111cd565b5060208201516112a560208501826112be565b5060408201516112b860408501826112dc565b50505050565b6112c7816114cb565b82525050565b6112d6816114cb565b82525050565b6112e5816114d5565b82525050565b600060208201905061130060008301846110f3565b92915050565b600060208201905081810360008301526113208184611102565b905092915050565b600060208201905081810360008301526113428184611160565b905092915050565b600060208201905061135f60008301846111be565b92915050565b600060608201905061137a60008301846111f8565b92915050565b600060208201905061139560008301846112cd565b92915050565b600060c0820190506113b060008301876112cd565b6113bd60208301866112cd565b6113ca60408301856111be565b6113d7606083018461127c565b95945050505050565b60006060820190506113f560008301866112cd565b61140260208301856112cd565b61140f60408301846112cd565b949350505050565b6000602082019050919050565b6000602082019050919050565b600081519050919050565b600081519050919050565b6000602082019050919050565b6000602082019050919050565b600082825260208201905092915050565b600082825260208201905092915050565b600061148e826114ab565b9050919050565b60008115159050919050565b6000819050919050565b600073ffffffffffffffffffffffffffffffffffffffff82169050919050565b6000819050919050565b600067ffffffffffffffff82169050919050565b6114f281611483565b81146114fd57600080fd5b50565b611509816114a1565b811461151457600080fd5b50565b611520816114cb565b811461152b57600080fd5b5056fea265627a7a723058209571e7c22a723b1d433a472a16de3d0459b236339aba2fc27d3b8f567dc36d636c6578706572696d656e74616cf50037",
  "source": "pragma solidity ^0.5.0;\npragma experimental ABIEncoderV2;\nimport \"./ElectionHelper.sol\";\n\ncontract VotingTransactions is ElectionHelper {\n    event Transfer(uint256 indexed _from, uint256 indexed _to, bytes32 indexed _tokenId);\n\n    // function ownerOf(uint256 tokenId) public view returns (address) {\n    //     address owner = _tokenOwner[tokenId];\n    //     require(owner != address(0), \"ERC721: owner query for nonexistent token\");\n\n    //     return owner;\n    // }\n\n    function transferFrom(uint256 from, uint256 to, bytes32 tokenId) public onlyUser(from) {\n        require(idToVoter[from]._constituencyId == candidateToConstituency[to]);\n        Voter memory voter = idToVoter[from];\n        voter._hasVoted = true;\n        voteToCandidate[voter._vote._voteId] = to;\n        candidateVoteCount[to]++;\n        emit Transfer(from, to, tokenId);\n    }\n\n    function _transferredTo(bytes32 _id, uint256 _userId) private view onlyUser(_userId) returns(Candidate memory) {\n        uint256 candidateId = voteToCandidate[_id];\n        Candidate memory candidate = idToCandidate[candidateId];\n        return candidate;\n    }\n}",
  "sourcePath": "/home/d3mon/Projects/sudo-rm--rf/contracts/VotingTransactions.sol",
  "compiler": {
    "name": "solc",
    "version": "0.5.8+commit.23d335f2.Emscripten.clang"
  },
  "schemaVersion": "3.0.11",
  "updatedAt": "2019-08-21T02:47:24.935Z",
  "devdoc": {
    "methods": {
      "isOwner()": {
        "return": "true if `msg.sender` is the owner of the contract."
      },
      "owner()": {
        "return": "the address of the owner."
      },
      "renounceOwnership()": {
        "details": "Allows the current owner to relinquish control of the contract."
      },
      "transferOwnership(address)": {
        "details": "Allows the current owner to transfer control of the contract to a newOwner.",
        "params": {
          "newOwner": "The address to transfer ownership to."
        }
      }
    }
  },
  "userdoc": {
    "methods": {
      "renounceOwnership()": {
        "notice": "Renouncing to ownership will leave the contract without an owner. It will not be possible to call the functions with the `onlyOwner` modifier anymore."
      }
    }
  }
}