{
  "contractName": "VotingTransactions",
  "abi": [
    {
      "constant": true,
      "inputs": [
        {
          "name": "",
          "type": "uint256"
        }
      ],
      "name": "candidateVoteCount",
      "outputs": [
        {
          "name": "",
          "type": "uint256"
        }
      ],
      "payable": false,
      "stateMutability": "view",
      "type": "function"
    },
    {
      "constant": true,
      "inputs": [
        {
          "name": "",
          "type": "uint256"
        }
      ],
      "name": "idToConstituency",
      "outputs": [
        {
          "name": "_id",
          "type": "uint256"
        },
        {
          "name": "_startTime",
          "type": "uint256"
        },
        {
          "name": "_duration",
          "type": "uint256"
        }
      ],
      "payable": false,
      "stateMutability": "view",
      "type": "function"
    },
    {
      "constant": false,
      "inputs": [
        {
          "name": "_id",
          "type": "uint256"
        },
        {
          "name": "_constituencyId",
          "type": "uint256"
        },
        {
          "name": "_adminId",
          "type": "uint256"
        }
      ],
      "name": "assignCandidateToConstituency",
      "outputs": [],
      "payable": false,
      "stateMutability": "nonpayable",
      "type": "function"
    },
    {
      "constant": true,
      "inputs": [
        {
          "name": "",
          "type": "uint256"
        }
      ],
      "name": "candidateToConstituency",
      "outputs": [
        {
          "name": "",
          "type": "uint256"
        }
      ],
      "payable": false,
      "stateMutability": "view",
      "type": "function"
    },
    {
      "constant": true,
      "inputs": [
        {
          "name": "",
          "type": "uint256"
        }
      ],
      "name": "admins",
      "outputs": [
        {
          "name": "",
          "type": "uint256"
        }
      ],
      "payable": false,
      "stateMutability": "view",
      "type": "function"
    },
    {
      "constant": false,
      "inputs": [
        {
          "name": "_adminId",
          "type": "uint256"
        }
      ],
      "name": "getConstituencies",
      "outputs": [
        {
          "components": [
            {
              "name": "_id",
              "type": "uint256"
            },
            {
              "name": "_startTime",
              "type": "uint256"
            },
            {
              "name": "_duration",
              "type": "uint256"
            }
          ],
          "name": "",
          "type": "tuple[]"
        }
      ],
      "payable": false,
      "stateMutability": "nonpayable",
      "type": "function"
    },
    {
      "constant": false,
      "inputs": [
        {
          "name": "_id",
          "type": "uint256"
        },
        {
          "name": "_userId",
          "type": "uint256"
        }
      ],
      "name": "getConstituencyDetails",
      "outputs": [
        {
          "components": [
            {
              "name": "_id",
              "type": "uint256"
            },
            {
              "name": "_startTime",
              "type": "uint256"
            },
            {
              "name": "_duration",
              "type": "uint256"
            }
          ],
          "name": "",
          "type": "tuple"
        }
      ],
      "payable": false,
      "stateMutability": "nonpayable",
      "type": "function"
    },
    {
      "constant": true,
      "inputs": [
        {
          "name": "",
          "type": "uint256"
        }
      ],
      "name": "candidates",
      "outputs": [
        {
          "name": "_id",
          "type": "uint256"
        }
      ],
      "payable": false,
      "stateMutability": "view",
      "type": "function"
    },
    {
      "constant": true,
      "inputs": [
        {
          "name": "",
          "type": "uint256"
        }
      ],
      "name": "constituencyCandidateCount",
      "outputs": [
        {
          "name": "",
          "type": "uint256"
        }
      ],
      "payable": false,
      "stateMutability": "view",
      "type": "function"
    },
    {
      "constant": true,
      "inputs": [
        {
          "name": "",
          "type": "uint256"
        }
      ],
      "name": "voteToCandidate",
      "outputs": [
        {
          "name": "",
          "type": "uint256"
        }
      ],
      "payable": false,
      "stateMutability": "view",
      "type": "function"
    },
    {
      "constant": true,
      "inputs": [
        {
          "name": "",
          "type": "uint256"
        }
      ],
      "name": "idToCandidate",
      "outputs": [
        {
          "name": "_id",
          "type": "uint256"
        }
      ],
      "payable": false,
      "stateMutability": "view",
      "type": "function"
    },
    {
      "constant": false,
      "inputs": [],
      "name": "renounceOwnership",
      "outputs": [],
      "payable": false,
      "stateMutability": "nonpayable",
      "type": "function"
    },
    {
      "constant": false,
      "inputs": [
        {
          "name": "_constituencies",
          "type": "uint256[]"
        },
        {
          "name": "_adminId",
          "type": "uint256"
        }
      ],
      "name": "registerConstituencies",
      "outputs": [],
      "payable": false,
      "stateMutability": "nonpayable",
      "type": "function"
    },
    {
      "constant": true,
      "inputs": [],
      "name": "owner",
      "outputs": [
        {
          "name": "",
          "type": "address"
        }
      ],
      "payable": false,
      "stateMutability": "view",
      "type": "function"
    },
    {
      "constant": true,
      "inputs": [],
      "name": "isOwner",
      "outputs": [
        {
          "name": "",
          "type": "bool"
        }
      ],
      "payable": false,
      "stateMutability": "view",
      "type": "function"
    },
    {
      "constant": true,
      "inputs": [
        {
          "name": "",
          "type": "uint256"
        }
      ],
      "name": "constituencies",
      "outputs": [
        {
          "name": "_id",
          "type": "uint256"
        },
        {
          "name": "_startTime",
          "type": "uint256"
        },
        {
          "name": "_duration",
          "type": "uint256"
        }
      ],
      "payable": false,
      "stateMutability": "view",
      "type": "function"
    },
    {
      "constant": false,
      "inputs": [
        {
          "name": "_id",
          "type": "uint256"
        }
      ],
      "name": "registerAdmin",
      "outputs": [],
      "payable": false,
      "stateMutability": "nonpayable",
      "type": "function"
    },
    {
      "constant": true,
      "inputs": [],
      "name": "ResultsDeclared",
      "outputs": [
        {
          "name": "",
          "type": "bool"
        }
      ],
      "payable": false,
      "stateMutability": "view",
      "type": "function"
    },
    {
      "constant": true,
      "inputs": [
        {
          "name": "",
          "type": "uint256"
        }
      ],
      "name": "constituencyVoterCount",
      "outputs": [
        {
          "name": "",
          "type": "uint256"
        }
      ],
      "payable": false,
      "stateMutability": "view",
      "type": "function"
    },
    {
      "constant": true,
      "inputs": [
        {
          "name": "_constituencyId",
          "type": "uint256"
        },
        {
          "name": "_userId",
          "type": "uint256"
        }
      ],
      "name": "getCandidatesByConstituency",
      "outputs": [
        {
          "components": [
            {
              "name": "_id",
              "type": "uint256"
            }
          ],
          "name": "",
          "type": "tuple[]"
        }
      ],
      "payable": false,
      "stateMutability": "view",
      "type": "function"
    },
    {
      "constant": true,
      "inputs": [
        {
          "name": "",
          "type": "uint256"
        }
      ],
      "name": "voters",
      "outputs": [
        {
          "name": "_id",
          "type": "uint256"
        },
        {
          "name": "_constituencyId",
          "type": "uint256"
        },
        {
          "name": "_hasVoted",
          "type": "bool"
        },
        {
          "name": "_voteTime",
          "type": "uint256"
        },
        {
          "components": [
            {
              "name": "_voteId",
              "type": "uint256"
            }
          ],
          "name": "_vote",
          "type": "tuple"
        }
      ],
      "payable": false,
      "stateMutability": "view",
      "type": "function"
    },
    {
      "constant": false,
      "inputs": [
        {
          "name": "newOwner",
          "type": "address"
        }
      ],
      "name": "transferOwnership",
      "outputs": [],
      "payable": false,
      "stateMutability": "nonpayable",
      "type": "function"
    },
    {
      "constant": false,
      "inputs": [
        {
          "name": "_id",
          "type": "uint256"
        },
        {
          "name": "_duration",
          "type": "uint256"
        },
        {
          "name": "_adminId",
          "type": "uint256"
        }
      ],
      "name": "generateElectionforConstituency",
      "outputs": [],
      "payable": false,
      "stateMutability": "nonpayable",
      "type": "function"
    },
    {
      "constant": true,
      "inputs": [
        {
          "name": "",
          "type": "uint256"
        }
      ],
      "name": "idToVoter",
      "outputs": [
        {
          "name": "_id",
          "type": "uint256"
        },
        {
          "name": "_constituencyId",
          "type": "uint256"
        },
        {
          "name": "_hasVoted",
          "type": "bool"
        },
        {
          "name": "_voteTime",
          "type": "uint256"
        },
        {
          "components": [
            {
              "name": "_voteId",
              "type": "uint256"
            }
          ],
          "name": "_vote",
          "type": "tuple"
        }
      ],
      "payable": false,
      "stateMutability": "view",
      "type": "function"
    },
    {
      "anonymous": false,
      "inputs": [
        {
          "indexed": true,
          "name": "_from",
          "type": "uint256"
        },
        {
          "indexed": true,
          "name": "_to",
          "type": "uint256"
        },
        {
          "indexed": true,
          "name": "_tokenId",
          "type": "uint256"
        }
      ],
      "name": "Transfer",
      "type": "event"
    },
    {
      "anonymous": false,
      "inputs": [
        {
          "indexed": false,
          "name": "_id",
          "type": "uint256"
        },
        {
          "indexed": false,
          "name": "_constituencyId",
          "type": "uint256"
        }
      ],
      "name": "VoterCreated",
      "type": "event"
    },
    {
      "anonymous": false,
      "inputs": [
        {
          "indexed": false,
          "name": "_id",
          "type": "uint256"
        }
      ],
      "name": "CandidateRegistered",
      "type": "event"
    },
    {
      "anonymous": false,
      "inputs": [
        {
          "indexed": false,
          "name": "_id",
          "type": "uint256"
        }
      ],
      "name": "ConstituencyRegistered",
      "type": "event"
    },
    {
      "anonymous": false,
      "inputs": [
        {
          "indexed": true,
          "name": "previousOwner",
          "type": "address"
        },
        {
          "indexed": true,
          "name": "newOwner",
          "type": "address"
        }
      ],
      "name": "OwnershipTransferred",
      "type": "event"
    },
    {
      "constant": false,
      "inputs": [
        {
          "name": "from",
          "type": "uint256"
        },
        {
          "name": "to",
          "type": "uint256"
        },
        {
          "name": "tokenId",
          "type": "uint256"
        }
      ],
      "name": "transferFrom",
      "outputs": [],
      "payable": false,
      "stateMutability": "nonpayable",
      "type": "function"
    }
  ],
  "bytecode": "0x608060405260008060146101000a81548160ff021916908315150217905550336000806101000a81548173ffffffffffffffffffffffffffffffffffffffff021916908373ffffffffffffffffffffffffffffffffffffffff1602179055506000809054906101000a900473ffffffffffffffffffffffffffffffffffffffff1673ffffffffffffffffffffffffffffffffffffffff16600073ffffffffffffffffffffffffffffffffffffffff167f8be0079c531659141344cd1fd0a4f28419497f9722a3daafe3b4186f6b6457e060405160405180910390a360008060146101000a81548160ff0219169083151502179055506118fa806101036000396000f3fe608060405260043610610149576000357c0100000000000000000000000000000000000000000000000000000000900463ffffffff16806301aa2e031461014e5780630f80dcb01461018b57806312d51c72146101ca5780631471e0ab146101f357806314bfd6d014610230578063289752101461026d5780632fd23a3f146102aa578063310ed7f0146102e75780633477ee2e146103105780633b04a6c91461034d57806356be16581461038a57806357e2ef10146103c7578063715018a6146104045780637b013b941461041b5780638da5cb5b146104445780638f32d59b1461046f5780639209416a1461049a57806394845254146104d9578063aa3e4e1c14610502578063b9a285de1461052d578063bbc893a31461056a578063da58c7d9146105a7578063f2fde38b146105e8578063f759006514610611578063f8c705711461063a575b600080fd5b34801561015a57600080fd5b5061017560048036036101709190810190611485565b61067b565b604051610182919061176d565b60405180910390f35b34801561019757600080fd5b506101b260048036036101ad9190810190611485565b610693565b6040516101c1939291906117db565b60405180910390f35b3480156101d657600080fd5b506101f160048036036101ec91908101906114ea565b6106bd565b005b3480156101ff57600080fd5b5061021a60048036036102159190810190611485565b610756565b604051610227919061176d565b60405180910390f35b34801561023c57600080fd5b5061025760048036036102529190810190611485565b61076e565b604051610264919061176d565b60405180910390f35b34801561027957600080fd5b50610294600480360361028f9190810190611485565b610791565b6040516102a19190611715565b60405180910390f35b3480156102b657600080fd5b506102d160048036036102cc91908101906114ae565b6108c0565b6040516102de9190611752565b60405180910390f35b3480156102f357600080fd5b5061030e600480360361030991908101906114ea565b610941565b005b34801561031c57600080fd5b5061033760048036036103329190810190611485565b610a4d565b604051610344919061176d565b60405180910390f35b34801561035957600080fd5b50610374600480360361036f9190810190611485565b610a76565b604051610381919061176d565b60405180910390f35b34801561039657600080fd5b506103b160048036036103ac9190810190611485565b610a8e565b6040516103be919061176d565b60405180910390f35b3480156103d357600080fd5b506103ee60048036036103e99190810190611485565b610aa6565b6040516103fb919061176d565b60405180910390f35b34801561041057600080fd5b50610419610ac4565b005b34801561042757600080fd5b50610442600480360361043d919081019061142d565b610b96565b005b34801561045057600080fd5b50610459610c27565b60405161046691906116d8565b60405180910390f35b34801561047b57600080fd5b50610484610c50565b6040516104919190611737565b60405180910390f35b3480156104a657600080fd5b506104c160048036036104bc9190810190611485565b610ca7565b6040516104d0939291906117db565b60405180910390f35b3480156104e557600080fd5b5061050060048036036104fb9190810190611485565b610ce0565b005b34801561050e57600080fd5b50610517610d22565b6040516105249190611737565b60405180910390f35b34801561053957600080fd5b50610554600480360361054f9190810190611485565b610d35565b604051610561919061176d565b60405180910390f35b34801561057657600080fd5b50610591600480360361058c91908101906114ae565b610d4d565b60405161059e91906116f3565b60405180910390f35b3480156105b357600080fd5b506105ce60048036036105c99190810190611485565b610e84565b6040516105df959493929190611788565b60405180910390f35b3480156105f457600080fd5b5061060f600480360361060a9190810190611404565b610eeb565b005b34801561061d57600080fd5b50610638600480360361063391908101906114ea565b610f0a565b005b34801561064657600080fd5b50610661600480360361065c9190810190611485565b610f88565b604051610672959493929190611788565b60405180910390f35b60086020528060005260406000206000915090505481565b60036020528060005260406000206000915090508060000154908060010154908060020154905083565b8060008090505b600c8054905081101561074f5781600c828154811015156106e157fe5b9060005260206000200154141561073c576106fc8584610fe0565b8360056000878152602001908152602001600020819055506006600085815260200190815260200160002060008154809291906001019190505550610741565b610742565b5b80806001019150506106c4565b5050505050565b60056020528060005260406000206000915090505481565b600c8181548110151561077d57fe5b906000526020600020016000915090505481565b60608160008090505b600c805490508110156108b95781600c828154811015156107b757fe5b906000526020600020015414156108a6576060600b8054905060405190808252806020026020018201604052801561080957816020015b6107f6611338565b8152602001906001900390816107ee5790505b509050600080905060008090505b600b8054905081101561089b57600b8181548110151561083357fe5b9060005260206000209060030201606060405190810160405290816000820154815260200160018201548152602001600282015481525050838381518110151561087957fe5b9060200190602002018190525081806001019250508080600101915050610817565b5081945050506108ab565b6108ac565b5b808060010191505061079a565b5050919050565b6108c861135a565b8160006001600083815260200190815260200160002060000154141515156108ef57600080fd5b6108f761135a565b600360008681526020019081526020016000206060604051908101604052908160008201548152602001600182015481526020016002820154815250509050809250505092915050565b82600060016000838152602001908152602001600020600001541415151561096857600080fd5b6005600084815260200190815260200160002054600160008681526020019081526020016000206001015414151561099f57600080fd5b600060016000868152602001908152602001600020905060018160020160006101000a81548160ff02191690831515021790555042816003018190555083600460008781526020019081526020016000208190555060086000858152602001908152602001600020600081548092919060010191905055508284867faf6151f5085accf2d57e1e7bf7601d3b3982e0de7e9a90f032f8554de9c104f660405160405180910390a45050505050565b600a81815481101515610a5c57fe5b906000526020600020016000915090508060000154905081565b60066020528060005260406000206000915090505481565b60046020528060005260406000206000915090505481565b60026020528060005260406000206000915090508060000154905081565b610acc610c50565b1515610ad757600080fd5b600073ffffffffffffffffffffffffffffffffffffffff166000809054906101000a900473ffffffffffffffffffffffffffffffffffffffff1673ffffffffffffffffffffffffffffffffffffffff167f8be0079c531659141344cd1fd0a4f28419497f9722a3daafe3b4186f6b6457e060405160405180910390a360008060006101000a81548173ffffffffffffffffffffffffffffffffffffffff021916908373ffffffffffffffffffffffffffffffffffffffff160217905550565b8060008090505b600c80549050811015610c205781600c82815481101515610bba57fe5b90600052602060002001541415610c0d5760008090505b85859050811015610c0757610bfa8686838181101515610bed57fe5b90506020020135856110f0565b8080600101915050610bd1565b50610c12565b610c13565b5b8080600101915050610b9d565b5050505050565b60008060009054906101000a900473ffffffffffffffffffffffffffffffffffffffff16905090565b60008060009054906101000a900473ffffffffffffffffffffffffffffffffffffffff1673ffffffffffffffffffffffffffffffffffffffff163373ffffffffffffffffffffffffffffffffffffffff1614905090565b600b81815481101515610cb657fe5b90600052602060002090600302016000915090508060000154908060010154908060020154905083565b610ce8610c50565b1515610cf357600080fd5b600c81908060018154018082558091505090600182039060005260206000200160009091929091909150555050565b600060149054906101000a900460ff1681565b60076020528060005260406000206000915090505481565b6060816000600160008381526020019081526020016000206000015414151515610d7657600080fd5b60606006600086815260200190815260200160002054604051908082528060200260200182016040528015610dc557816020015b610db261137c565b815260200190600190039081610daa5790505b509050600080905060008090505b600a80549050811015610e77578660056000600a84815481101515610df457fe5b90600052602060002001600001548152602001908152602001600020541415610e6a57600a81815481101515610e2657fe5b90600052602060002001602060405190810160405290816000820154815250508383815181101515610e5457fe5b9060200190602002018190525081806001019250505b8080600101915050610dd3565b5081935050505092915050565b600981815481101515610e9357fe5b90600052602060002090600502016000915090508060000154908060010154908060020160009054906101000a900460ff16908060030154908060040160206040519081016040529081600082015481525050905085565b610ef3610c50565b1515610efe57600080fd5b610f078161123e565b50565b8060008090505b600c80549050811015610f815781600c82815481101515610f2e57fe5b90600052602060002001541415610f6e57600060036000878152602001908152602001600020905042816001018190555084816002018190555050610f73565b610f74565b5b8080600101915050610f11565b5050505050565b60016020528060005260406000206000915090508060000154908060010154908060020160009054906101000a900460ff16908060030154908060040160206040519081016040529081600082015481525050905085565b8060008090505b600c805490508110156110ea5781600c8281548110151561100457fe5b906000526020600020015414156110d75760006001600a60206040519081016040528088815250908060018154018082558091505090600182039060005260206000200160009091929091909150600082015181600001555050039050600a8181548110151561107057fe5b9060005260206000200160026000878152602001908152602001600020600082015481600001559050507f43dcee486fabffa2fb551555bfaa5bfcf6a42f2d014032ccef94bf09d83855eb856040516110c9919061176d565b60405180910390a1506110dc565b6110dd565b5b8080600101915050610fe7565b50505050565b8060008090505b600c805490508110156112385781600c8281548110151561111457fe5b906000526020600020015414156112255760006001600b606060405190810160405280888152602001600081526020016000815250908060018154018082558091505090600182039060005260206000209060030201600090919290919091506000820151816000015560208201518160010155604082015181600201555050039050600b818154811015156111a657fe5b9060005260206000209060030201600360008781526020019081526020016000206000820154816000015560018201548160010155600282015481600201559050507f21db1a92fb8efb483c22a581ee7e282b6d79d9d43b559ee1affa34181886796985604051611217919061176d565b60405180910390a15061122a565b61122b565b5b80806001019150506110f7565b50505050565b600073ffffffffffffffffffffffffffffffffffffffff168173ffffffffffffffffffffffffffffffffffffffff161415151561127a57600080fd5b8073ffffffffffffffffffffffffffffffffffffffff166000809054906101000a900473ffffffffffffffffffffffffffffffffffffffff1673ffffffffffffffffffffffffffffffffffffffff167f8be0079c531659141344cd1fd0a4f28419497f9722a3daafe3b4186f6b6457e060405160405180910390a3806000806101000a81548173ffffffffffffffffffffffffffffffffffffffff021916908373ffffffffffffffffffffffffffffffffffffffff16021790555050565b6060604051908101604052806000815260200160008152602001600081525090565b6060604051908101604052806000815260200160008152602001600081525090565b602060405190810160405280600081525090565b600061139c82356118a4565b905092915050565b60008083601f84011215156113b857600080fd5b8235905067ffffffffffffffff8111156113d157600080fd5b6020830191508360208202830111156113e957600080fd5b9250929050565b60006113fc82356118b6565b905092915050565b60006020828403121561141657600080fd5b600061142484828501611390565b91505092915050565b60008060006040848603121561144257600080fd5b600084013567ffffffffffffffff81111561145c57600080fd5b611468868287016113a4565b9350935050602061147b868287016113f0565b9150509250925092565b60006020828403121561149757600080fd5b60006114a5848285016113f0565b91505092915050565b600080604083850312156114c157600080fd5b60006114cf858286016113f0565b92505060206114e0858286016113f0565b9150509250929050565b6000806000606084860312156114ff57600080fd5b600061150d868287016113f0565b935050602061151e868287016113f0565b925050604061152f868287016113f0565b9150509250925092565b6115428161185c565b82525050565b60006115538261182c565b80845260208401935061156583611812565b60005b828110156115975761157b86835161160d565b61158482611842565b9150602086019550600181019050611568565b50849250505092915050565b60006115ae82611837565b8084526020840193506115c08361181f565b60005b828110156115f2576115d686835161166b565b6115df8261184f565b91506060860195506001810190506115c3565b50849250505092915050565b6116078161186e565b82525050565b60208201600082015161162360008501826116c9565b50505050565b60608201600082015161163f60008501826116c9565b50602082015161165260208501826116c9565b50604082015161166560408501826116c9565b50505050565b60608201600082015161168160008501826116c9565b50602082015161169460208501826116c9565b5060408201516116a760408501826116c9565b50505050565b6020820160008201516116c360008501826116c9565b50505050565b6116d28161189a565b82525050565b60006020820190506116ed6000830184611539565b92915050565b6000602082019050818103600083015261170d8184611548565b905092915050565b6000602082019050818103600083015261172f81846115a3565b905092915050565b600060208201905061174c60008301846115fe565b92915050565b60006060820190506117676000830184611629565b92915050565b600060208201905061178260008301846116c9565b92915050565b600060a08201905061179d60008301886116c9565b6117aa60208301876116c9565b6117b760408301866115fe565b6117c460608301856116c9565b6117d160808301846116ad565b9695505050505050565b60006060820190506117f060008301866116c9565b6117fd60208301856116c9565b61180a60408301846116c9565b949350505050565b6000602082019050919050565b6000602082019050919050565b600081519050919050565b600081519050919050565b6000602082019050919050565b6000602082019050919050565b60006118678261187a565b9050919050565b60008115159050919050565b600073ffffffffffffffffffffffffffffffffffffffff82169050919050565b6000819050919050565b60006118af8261187a565b9050919050565b600081905091905056fea265627a7a723058203ebd2628279859cae2dae01070c5d7e9d7d311a45758196c6dac7eaa311838966c6578706572696d656e74616cf50037",
  "source": "pragma solidity ^0.5.0;\npragma experimental ABIEncoderV2;\nimport \"./ElectionHelper.sol\";\n\ncontract VotingTransactions is ElectionHelper {\n    event Transfer(uint256 indexed _from, uint256 indexed _to, uint256 indexed _tokenId);\n\n    function transferFrom(uint256 from, uint256 to, uint256 tokenId) public onlyUser(from) {\n        require(idToVoter[from]._constituencyId == candidateToConstituency[to]);\n        Voter storage voter = idToVoter[from];\n        voter._hasVoted = true;\n        voter._voteTime = block.timestamp;\n        voteToCandidate[from] = to;\n        candidateVoteCount[to]++;\n        emit Transfer(from, to, tokenId);\n    }\n\n    function _transferredTo(uint256 _id, uint256 _userId) private view onlyUser(_userId) returns(Candidate memory) {\n        uint256 candidateId = voteToCandidate[_id];\n        Candidate memory candidate = idToCandidate[candidateId];\n        return candidate;\n    }\n}",
  "sourcePath": "/home/d3mon/Projects/sudo-rm--rf/contracts/VotingTransactions.sol",
  "compiler": {
    "name": "solc",
    "version": "0.5.0+commit.1d4f565a.Emscripten.clang"
  },
  "schemaVersion": "3.0.2",
  "updatedAt": "2020-02-06T16:35:32.878Z",
  "devdoc": {
    "methods": {
      "isOwner()": {
        "return": "true if `msg.sender` is the owner of the contract."
      },
      "owner()": {
        "return": "the address of the owner."
      },
      "renounceOwnership()": {
        "details": "Allows the current owner to relinquish control of the contract."
      },
      "transferOwnership(address)": {
        "details": "Allows the current owner to transfer control of the contract to a newOwner.",
        "params": {
          "newOwner": "The address to transfer ownership to."
        }
      }
    }
  },
  "userdoc": {
    "methods": {
      "renounceOwnership()": {
        "notice": "Renouncing to ownership will leave the contract without an owner. It will not be possible to call the functions with the `onlyOwner` modifier anymore."
      }
    }
  }
}